{
  "contractName": "ARM",
  "abi": [
    {
      "inputs": [],
      "stateMutability": "nonpayable",
      "type": "constructor"
    },
    {
      "anonymous": false,
      "inputs": [
        {
          "indexed": true,
          "internalType": "address",
          "name": "owner",
          "type": "address"
        },
        {
          "indexed": true,
          "internalType": "address",
          "name": "spender",
          "type": "address"
        },
        {
          "indexed": false,
          "internalType": "uint256",
          "name": "value",
          "type": "uint256"
        }
      ],
      "name": "Approval",
      "type": "event"
    },
    {
      "anonymous": false,
      "inputs": [
        {
          "indexed": true,
          "internalType": "address",
          "name": "from",
          "type": "address"
        },
        {
          "indexed": true,
          "internalType": "address",
          "name": "to",
          "type": "address"
        },
        {
          "indexed": false,
          "internalType": "uint256",
          "name": "value",
          "type": "uint256"
        }
      ],
      "name": "Transfer",
      "type": "event"
    },
    {
      "inputs": [],
      "name": "getOwner",
      "outputs": [
        {
          "internalType": "address",
          "name": "",
          "type": "address"
        }
      ],
      "stateMutability": "view",
      "type": "function"
    },
    {
      "inputs": [],
      "name": "decimals",
      "outputs": [
        {
          "internalType": "uint8",
          "name": "",
          "type": "uint8"
        }
      ],
      "stateMutability": "view",
      "type": "function"
    },
    {
      "inputs": [],
      "name": "symbol",
      "outputs": [
        {
          "internalType": "string",
          "name": "",
          "type": "string"
        }
      ],
      "stateMutability": "view",
      "type": "function"
    },
    {
      "inputs": [],
      "name": "name",
      "outputs": [
        {
          "internalType": "string",
          "name": "",
          "type": "string"
        }
      ],
      "stateMutability": "view",
      "type": "function"
    },
    {
      "inputs": [],
      "name": "totalSupply",
      "outputs": [
        {
          "internalType": "uint256",
          "name": "",
          "type": "uint256"
        }
      ],
      "stateMutability": "view",
      "type": "function"
    },
    {
      "inputs": [
        {
          "internalType": "address",
          "name": "account",
          "type": "address"
        }
      ],
      "name": "balanceOf",
      "outputs": [
        {
          "internalType": "uint256",
          "name": "",
          "type": "uint256"
        }
      ],
      "stateMutability": "view",
      "type": "function"
    },
    {
      "inputs": [
        {
          "internalType": "address",
          "name": "recipient",
          "type": "address"
        },
        {
          "internalType": "uint256",
          "name": "amount",
          "type": "uint256"
        }
      ],
      "name": "transfer",
      "outputs": [
        {
          "internalType": "bool",
          "name": "",
          "type": "bool"
        }
      ],
      "stateMutability": "nonpayable",
      "type": "function"
    },
    {
      "inputs": [
        {
          "internalType": "address",
          "name": "owner",
          "type": "address"
        },
        {
          "internalType": "address",
          "name": "spender",
          "type": "address"
        }
      ],
      "name": "allowance",
      "outputs": [
        {
          "internalType": "uint256",
          "name": "",
          "type": "uint256"
        }
      ],
      "stateMutability": "view",
      "type": "function"
    },
    {
      "inputs": [
        {
          "internalType": "address",
          "name": "spender",
          "type": "address"
        },
        {
          "internalType": "uint256",
          "name": "amount",
          "type": "uint256"
        }
      ],
      "name": "approve",
      "outputs": [
        {
          "internalType": "bool",
          "name": "",
          "type": "bool"
        }
      ],
      "stateMutability": "nonpayable",
      "type": "function"
    },
    {
      "inputs": [
        {
          "internalType": "address",
          "name": "sender",
          "type": "address"
        },
        {
          "internalType": "address",
          "name": "recipient",
          "type": "address"
        },
        {
          "internalType": "uint256",
          "name": "amount",
          "type": "uint256"
        }
      ],
      "name": "transferFrom",
      "outputs": [
        {
          "internalType": "bool",
          "name": "",
          "type": "bool"
        }
      ],
      "stateMutability": "nonpayable",
      "type": "function"
    },
    {
      "inputs": [
        {
          "internalType": "address",
          "name": "spender",
          "type": "address"
        },
        {
          "internalType": "uint256",
          "name": "addedValue",
          "type": "uint256"
        }
      ],
      "name": "increaseAllowance",
      "outputs": [
        {
          "internalType": "bool",
          "name": "",
          "type": "bool"
        }
      ],
      "stateMutability": "nonpayable",
      "type": "function"
    },
    {
      "inputs": [
        {
          "internalType": "address",
          "name": "spender",
          "type": "address"
        },
        {
          "internalType": "uint256",
          "name": "subtractedValue",
          "type": "uint256"
        }
      ],
      "name": "decreaseAllowance",
      "outputs": [
        {
          "internalType": "bool",
          "name": "",
          "type": "bool"
        }
      ],
      "stateMutability": "nonpayable",
      "type": "function"
    },
    {
      "inputs": [
        {
          "internalType": "uint256",
          "name": "amount",
          "type": "uint256"
        }
      ],
      "name": "mint",
      "outputs": [
        {
          "internalType": "bool",
          "name": "",
          "type": "bool"
        }
      ],
      "stateMutability": "nonpayable",
      "type": "function"
    },
    {
      "inputs": [
        {
          "internalType": "address",
          "name": "_to",
          "type": "address"
        }
      ],
      "name": "transferOwnership",
      "outputs": [],
      "stateMutability": "nonpayable",
      "type": "function"
    }
  ],
  "bytecode": "0x60806040523480156200001157600080fd5b506040518060400160405280601081526020017f417572756d204465466920546f6b656e00000000000000000000000000000000815250600590805190602001906200005f929190620001d2565b506040518060400160405280600381526020017f41524d000000000000000000000000000000000000000000000000000000000081525060049080519060200190620000ad929190620001d2565b506012600360006101000a81548160ff021916908360ff1602179055506a084595161401484a0000006002819055506002546000803373ffffffffffffffffffffffffffffffffffffffff1673ffffffffffffffffffffffffffffffffffffffff1681526020019081526020016000208190555033600660006101000a81548173ffffffffffffffffffffffffffffffffffffffff021916908373ffffffffffffffffffffffffffffffffffffffff1602179055503373ffffffffffffffffffffffffffffffffffffffff16600073ffffffffffffffffffffffffffffffffffffffff167fddf252ad1be2c89b69c2b068fc378daa952ba7f163c4a11628f55a4df523b3ef600254604051620001c491906200029d565b60405180910390a36200031f565b828054620001e090620002e9565b90600052602060002090601f01602090048101928262000204576000855562000250565b82601f106200021f57805160ff191683800117855562000250565b8280016001018555821562000250579182015b828111156200024f57825182559160200191906001019062000232565b5b5090506200025f919062000263565b5090565b5b808211156200027e57600081600090555060010162000264565b5090565b6000819050919050565b620002978162000282565b82525050565b6000602082019050620002b460008301846200028c565b92915050565b7f4e487b7100000000000000000000000000000000000000000000000000000000600052602260045260246000fd5b600060028204905060018216806200030257607f821691505b60208210811415620003195762000318620002ba565b5b50919050565b61156d806200032f6000396000f3fe608060405234801561001057600080fd5b50600436106100ea5760003560e01c8063893d20e81161008c578063a457c2d711610066578063a457c2d714610275578063a9059cbb146102a5578063dd62ed3e146102d5578063f2fde38b14610305576100ea565b8063893d20e81461020957806395d89b4114610227578063a0712d6814610245576100ea565b806323b872dd116100c857806323b872dd1461015b578063313ce5671461018b57806339509351146101a957806370a08231146101d9576100ea565b806306fdde03146100ef578063095ea7b31461010d57806318160ddd1461013d575b600080fd5b6100f7610321565b6040516101049190610ec0565b60405180910390f35b61012760048036038101906101229190610f7b565b6103b3565b6040516101349190610fd6565b60405180910390f35b6101456103ca565b6040516101529190611000565b60405180910390f35b6101756004803603810190610170919061101b565b6103d4565b6040516101829190610fd6565b60405180910390f35b61019361047e565b6040516101a0919061108a565b60405180910390f35b6101c360048036038101906101be9190610f7b565b610495565b6040516101d09190610fd6565b60405180910390f35b6101f360048036038101906101ee91906110a5565b610533565b6040516102009190611000565b60405180910390f35b61021161057b565b60405161021e91906110e1565b60405180910390f35b61022f6105a5565b60405161023c9190610ec0565b60405180910390f35b61025f600480360381019061025a91906110fc565b610637565b60405161026c9190610fd6565b60405180910390f35b61028f600480360381019061028a9190610f7b565b6106a6565b60405161029c9190610fd6565b60405180910390f35b6102bf60048036038101906102ba9190610f7b565b610744565b6040516102cc9190610fd6565b60405180910390f35b6102ef60048036038101906102ea9190611129565b61075b565b6040516102fc9190611000565b60405180910390f35b61031f600480360381019061031a91906110a5565b6107e2565b005b60606005805461033090611198565b80601f016020809104026020016040519081016040528092919081815260200182805461035c90611198565b80156103a95780601f1061037e576101008083540402835291602001916103a9565b820191906000526020600020905b81548152906001019060200180831161038c57829003601f168201915b5050505050905090565b60006103c0338484610880565b6001905092915050565b6000600254905090565b60006103e1848484610a4b565b610473843384600160008973ffffffffffffffffffffffffffffffffffffffff1673ffffffffffffffffffffffffffffffffffffffff16815260200190815260200160002060003373ffffffffffffffffffffffffffffffffffffffff1673ffffffffffffffffffffffffffffffffffffffff1681526020019081526020016000205461046e91906111f9565b610880565b600190509392505050565b6000600360009054906101000a900460ff16905090565b6000610529338484600160003373ffffffffffffffffffffffffffffffffffffffff1673ffffffffffffffffffffffffffffffffffffffff16815260200190815260200160002060008873ffffffffffffffffffffffffffffffffffffffff1673ffffffffffffffffffffffffffffffffffffffff16815260200190815260200160002054610524919061122d565b610880565b6001905092915050565b60008060008373ffffffffffffffffffffffffffffffffffffffff1673ffffffffffffffffffffffffffffffffffffffff168152602001908152602001600020549050919050565b6000600660009054906101000a900473ffffffffffffffffffffffffffffffffffffffff16905090565b6060600480546105b490611198565b80601f01602080910402602001604051908101604052809291908181526020018280546105e090611198565b801561062d5780601f106106025761010080835404028352916020019161062d565b820191906000526020600020905b81548152906001019060200180831161061057829003601f168201915b5050505050905090565b60003373ffffffffffffffffffffffffffffffffffffffff16600660009054906101000a900473ffffffffffffffffffffffffffffffffffffffff1673ffffffffffffffffffffffffffffffffffffffff161461069357600080fd5b61069d3383610cad565b60019050919050565b600061073a338484600160003373ffffffffffffffffffffffffffffffffffffffff1673ffffffffffffffffffffffffffffffffffffffff16815260200190815260200160002060008873ffffffffffffffffffffffffffffffffffffffff1673ffffffffffffffffffffffffffffffffffffffff1681526020019081526020016000205461073591906111f9565b610880565b6001905092915050565b6000610751338484610a4b565b6001905092915050565b6000600160008473ffffffffffffffffffffffffffffffffffffffff1673ffffffffffffffffffffffffffffffffffffffff16815260200190815260200160002060008373ffffffffffffffffffffffffffffffffffffffff1673ffffffffffffffffffffffffffffffffffffffff16815260200190815260200160002054905092915050565b3373ffffffffffffffffffffffffffffffffffffffff16600660009054906101000a900473ffffffffffffffffffffffffffffffffffffffff1673ffffffffffffffffffffffffffffffffffffffff161461083c57600080fd5b80600660006101000a81548173ffffffffffffffffffffffffffffffffffffffff021916908373ffffffffffffffffffffffffffffffffffffffff16021790555050565b600073ffffffffffffffffffffffffffffffffffffffff168373ffffffffffffffffffffffffffffffffffffffff1614156108f0576040517f08c379a00000000000000000000000000000000000000000000000000000000081526004016108e7906112f5565b60405180910390fd5b600073ffffffffffffffffffffffffffffffffffffffff168273ffffffffffffffffffffffffffffffffffffffff161415610960576040517f08c379a000000000000000000000000000000000000000000000000000000000815260040161095790611387565b60405180910390fd5b80600160008573ffffffffffffffffffffffffffffffffffffffff1673ffffffffffffffffffffffffffffffffffffffff16815260200190815260200160002060008473ffffffffffffffffffffffffffffffffffffffff1673ffffffffffffffffffffffffffffffffffffffff168152602001908152602001600020819055508173ffffffffffffffffffffffffffffffffffffffff168373ffffffffffffffffffffffffffffffffffffffff167f8c5be1e5ebec7d5bd14f71427d1e84f3dd0314c0f7b2291e5b200ac8c7c3b92583604051610a3e9190611000565b60405180910390a3505050565b600073ffffffffffffffffffffffffffffffffffffffff168373ffffffffffffffffffffffffffffffffffffffff161415610abb576040517f08c379a0000000000000000000000000000000000000000000000000000000008152600401610ab290611419565b60405180910390fd5b600073ffffffffffffffffffffffffffffffffffffffff168273ffffffffffffffffffffffffffffffffffffffff161415610b2b576040517f08c379a0000000000000000000000000000000000000000000000000000000008152600401610b22906114ab565b60405180910390fd5b806000808573ffffffffffffffffffffffffffffffffffffffff1673ffffffffffffffffffffffffffffffffffffffff16815260200190815260200160002054610b7591906111f9565b6000808573ffffffffffffffffffffffffffffffffffffffff1673ffffffffffffffffffffffffffffffffffffffff16815260200190815260200160002081905550806000808473ffffffffffffffffffffffffffffffffffffffff1673ffffffffffffffffffffffffffffffffffffffff16815260200190815260200160002054610c01919061122d565b6000808473ffffffffffffffffffffffffffffffffffffffff1673ffffffffffffffffffffffffffffffffffffffff168152602001908152602001600020819055508173ffffffffffffffffffffffffffffffffffffffff168373ffffffffffffffffffffffffffffffffffffffff167fddf252ad1be2c89b69c2b068fc378daa952ba7f163c4a11628f55a4df523b3ef83604051610ca09190611000565b60405180910390a3505050565b600073ffffffffffffffffffffffffffffffffffffffff168273ffffffffffffffffffffffffffffffffffffffff161415610d1d576040517f08c379a0000000000000000000000000000000000000000000000000000000008152600401610d1490611517565b60405180910390fd5b80600254610d2b919061122d565b600281905550806000808473ffffffffffffffffffffffffffffffffffffffff1673ffffffffffffffffffffffffffffffffffffffff16815260200190815260200160002054610d7b919061122d565b6000808473ffffffffffffffffffffffffffffffffffffffff1673ffffffffffffffffffffffffffffffffffffffff168152602001908152602001600020819055508173ffffffffffffffffffffffffffffffffffffffff16600073ffffffffffffffffffffffffffffffffffffffff167fddf252ad1be2c89b69c2b068fc378daa952ba7f163c4a11628f55a4df523b3ef83604051610e1b9190611000565b60405180910390a35050565b600081519050919050565b600082825260208201905092915050565b60005b83811015610e61578082015181840152602081019050610e46565b83811115610e70576000848401525b50505050565b6000601f19601f8301169050919050565b6000610e9282610e27565b610e9c8185610e32565b9350610eac818560208601610e43565b610eb581610e76565b840191505092915050565b60006020820190508181036000830152610eda8184610e87565b905092915050565b600080fd5b600073ffffffffffffffffffffffffffffffffffffffff82169050919050565b6000610f1282610ee7565b9050919050565b610f2281610f07565b8114610f2d57600080fd5b50565b600081359050610f3f81610f19565b92915050565b6000819050919050565b610f5881610f45565b8114610f6357600080fd5b50565b600081359050610f7581610f4f565b92915050565b60008060408385031215610f9257610f91610ee2565b5b6000610fa085828601610f30565b9250506020610fb185828601610f66565b9150509250929050565b60008115159050919050565b610fd081610fbb565b82525050565b6000602082019050610feb6000830184610fc7565b92915050565b610ffa81610f45565b82525050565b60006020820190506110156000830184610ff1565b92915050565b60008060006060848603121561103457611033610ee2565b5b600061104286828701610f30565b935050602061105386828701610f30565b925050604061106486828701610f66565b9150509250925092565b600060ff82169050919050565b6110848161106e565b82525050565b600060208201905061109f600083018461107b565b92915050565b6000602082840312156110bb576110ba610ee2565b5b60006110c984828501610f30565b91505092915050565b6110db81610f07565b82525050565b60006020820190506110f660008301846110d2565b92915050565b60006020828403121561111257611111610ee2565b5b600061112084828501610f66565b91505092915050565b600080604083850312156111405761113f610ee2565b5b600061114e85828601610f30565b925050602061115f85828601610f30565b9150509250929050565b7f4e487b7100000000000000000000000000000000000000000000000000000000600052602260045260246000fd5b600060028204905060018216806111b057607f821691505b602082108114156111c4576111c3611169565b5b50919050565b7f4e487b7100000000000000000000000000000000000000000000000000000000600052601160045260246000fd5b600061120482610f45565b915061120f83610f45565b925082821015611222576112216111ca565b5b828203905092915050565b600061123882610f45565b915061124383610f45565b9250827fffffffffffffffffffffffffffffffffffffffffffffffffffffffffffffffff03821115611278576112776111ca565b5b828201905092915050565b7f42455032303a20617070726f76652066726f6d20746865207a65726f2061646460008201527f7265737300000000000000000000000000000000000000000000000000000000602082015250565b60006112df602483610e32565b91506112ea82611283565b604082019050919050565b6000602082019050818103600083015261130e816112d2565b9050919050565b7f42455032303a20617070726f766520746f20746865207a65726f20616464726560008201527f7373000000000000000000000000000000000000000000000000000000000000602082015250565b6000611371602283610e32565b915061137c82611315565b604082019050919050565b600060208201905081810360008301526113a081611364565b9050919050565b7f42455032303a207472616e736665722066726f6d20746865207a65726f20616460008201527f6472657373000000000000000000000000000000000000000000000000000000602082015250565b6000611403602583610e32565b915061140e826113a7565b604082019050919050565b60006020820190508181036000830152611432816113f6565b9050919050565b7f42455032303a207472616e7366657220746f20746865207a65726f206164647260008201527f6573730000000000000000000000000000000000000000000000000000000000602082015250565b6000611495602383610e32565b91506114a082611439565b604082019050919050565b600060208201905081810360008301526114c481611488565b9050919050565b7f42455032303a206d696e7420746f20746865207a65726f206164647265737300600082015250565b6000611501601f83610e32565b915061150c826114cb565b602082019050919050565b60006020820190508181036000830152611530816114f4565b905091905056fea2646970667358221220d03f793a1f6761e3dd9e9136cca55ab02c5ffe78c75ef23b826b1b798e4ebf8664736f6c634300080c0033",
  "immutableReferences": {},
  "source": "// SPDX-License-Identifier: MIT\r\npragma solidity ^0.8.0;\r\n\r\nimport \"@openzeppelin/contracts/token/ERC20/ERC20.sol\";\r\n\r\ncontract ARM is IERC20 {\r\n  //Solidity 0.8.0 no need safeMath, auto revert if underflow, overflow\r\n\r\n  mapping (address => uint256) private _balances;\r\n\r\n  mapping (address => mapping (address => uint256)) private _allowances;\r\n\r\n  uint256 private _totalSupply;\r\n  uint8 private _decimals;\r\n  string private _symbol;\r\n  string private _name;\r\n  \r\n  address _owner;\r\n\r\n  constructor() {\r\n    _name = \"Aurum DeFi Token\";\r\n    _symbol = \"ARM\";\r\n    _decimals = 18;\r\n    _totalSupply = 10000000e18;\r\n    _balances[msg.sender] = _totalSupply;\r\n    _owner = msg.sender;\r\n\r\n    emit Transfer(address(0), msg.sender, _totalSupply);\r\n  }\r\n\r\n  modifier onlyOwner{\r\n    require(_owner == msg.sender);\r\n    _;\r\n  }\r\n\r\n  function getOwner() external view returns (address) {\r\n    return _owner;\r\n  }\r\n\r\n  function decimals() external view returns (uint8) {\r\n    return _decimals;\r\n  }\r\n\r\n  function symbol() external view returns (string memory) {\r\n    return _symbol;\r\n  }\r\n\r\n  function name() external view returns (string memory) {\r\n    return _name;\r\n  }\r\n\r\n  function totalSupply() external view returns (uint256) {\r\n    return _totalSupply;\r\n  }\r\n\r\n  function balanceOf(address account) external view returns (uint256) {\r\n    return _balances[account];\r\n  }\r\n\r\n  function transfer(address recipient, uint256 amount) external returns (bool) {\r\n    _transfer(msg.sender, recipient, amount);\r\n    return true;\r\n  }\r\n\r\n  function allowance(address owner, address spender) external view returns (uint256) {\r\n    return _allowances[owner][spender];\r\n  }\r\n\r\n  function approve(address spender, uint256 amount) external returns (bool) {\r\n    _approve(msg.sender, spender, amount);\r\n    return true;\r\n  }\r\n\r\n  function transferFrom(address sender, address recipient, uint256 amount) external returns (bool) {\r\n    _transfer(sender, recipient, amount);\r\n    _approve(sender, msg.sender, _allowances[sender][msg.sender] - amount);\r\n    return true;\r\n  }\r\n\r\n  function increaseAllowance(address spender, uint256 addedValue) public returns (bool) {\r\n    _approve(msg.sender, spender, _allowances[msg.sender][spender] + addedValue);\r\n    return true;\r\n  }\r\n\r\n  function decreaseAllowance(address spender, uint256 subtractedValue) public returns (bool) {\r\n    _approve(msg.sender, spender, _allowances[msg.sender][spender] - subtractedValue);\r\n    return true;\r\n  }\r\n\r\n  //Admin function\r\n  function mint(uint256 amount) public onlyOwner returns (bool) {\r\n    _mint(msg.sender, amount);\r\n    return true;\r\n  }\r\n\r\n  function _mint(address account, uint256 amount) internal {\r\n    require(account != address(0), \"BEP20: mint to the zero address\");\r\n\r\n    _totalSupply = _totalSupply + amount;\r\n    _balances[account] = _balances[account] + amount;\r\n    emit Transfer(address(0), account, amount);\r\n  }\r\n\r\n  function _transfer(address sender, address recipient, uint256 amount) internal {\r\n    require(sender != address(0), \"BEP20: transfer from the zero address\");\r\n    require(recipient != address(0), \"BEP20: transfer to the zero address\");\r\n\r\n    _balances[sender] = _balances[sender] - amount;\r\n    _balances[recipient] = _balances[recipient] + amount;\r\n    emit Transfer(sender, recipient, amount);\r\n  }\r\n\r\n  function _burn(address account, uint256 amount) internal {\r\n    require(account != address(0), \"BEP20: burn from the zero address\");\r\n\r\n    _balances[account] = _balances[account] - amount;\r\n    _totalSupply = _totalSupply - amount;\r\n    emit Transfer(account, address(0), amount);\r\n  }\r\n\r\n  function _approve(address owner, address spender, uint256 amount) internal {\r\n    require(owner != address(0), \"BEP20: approve from the zero address\");\r\n    require(spender != address(0), \"BEP20: approve to the zero address\");\r\n\r\n    _allowances[owner][spender] = amount;\r\n    emit Approval(owner, spender, amount);\r\n  }\r\n\r\n  function _burnFrom(address account, uint256 amount) internal {\r\n    _burn(account, amount);\r\n    _approve(account, msg.sender, _allowances[account][msg.sender] - amount);\r\n  }\r\n\r\n  //Transfer owner to public\r\n  function transferOwnership (address _to) onlyOwner external{\r\n    _owner = _to;\r\n  }\r\n}\r\n",
  "sourcePath": "C:\\Users\\chana\\desktop\\aurumdefi\\src\\contracts\\ARM.sol",
  "compiler": {
    "name": "solc",
    "version": "0.8.12+commit.f00d7308.Emscripten.clang"
  },
  "schemaVersion": "3.4.6",
  "updatedAt": "2022-04-29T17:57:51.968Z",
  "networkType": "ethereum",
  "devdoc": {
    "kind": "dev",
    "methods": {
      "allowance(address,address)": {
        "details": "Returns the remaining number of tokens that `spender` will be allowed to spend on behalf of `owner` through {transferFrom}. This is zero by default. This value changes when {approve} or {transferFrom} are called."
      },
      "approve(address,uint256)": {
        "details": "Sets `amount` as the allowance of `spender` over the caller's tokens. Returns a boolean value indicating whether the operation succeeded. IMPORTANT: Beware that changing an allowance with this method brings the risk that someone may use both the old and the new allowance by unfortunate transaction ordering. One possible solution to mitigate this race condition is to first reduce the spender's allowance to 0 and set the desired value afterwards: https://github.com/ethereum/EIPs/issues/20#issuecomment-263524729 Emits an {Approval} event."
      },
      "balanceOf(address)": {
        "details": "Returns the amount of tokens owned by `account`."
      },
      "totalSupply()": {
        "details": "Returns the amount of tokens in existence."
      }
    },
    "version": 1
  },
  "userdoc": {
    "kind": "user",
    "methods": {},
    "version": 1
  }
}