{
  "contractName": "AurumPriceOracle",
  "abi": [
    {
      "inputs": [
        {
          "internalType": "address",
          "name": "compStorage_",
          "type": "address"
        },
        {
          "internalType": "address",
          "name": "slidingWindow_",
          "type": "address"
        },
        {
          "internalType": "address",
          "name": "tether_",
          "type": "address"
        },
        {
          "internalType": "address",
          "name": "wrei_",
          "type": "address"
        },
        {
          "internalType": "address",
          "name": "arm_",
          "type": "address"
        }
      ],
      "stateMutability": "nonpayable",
      "type": "constructor"
    },
    {
      "anonymous": false,
      "inputs": [
        {
          "indexed": false,
          "internalType": "uint256",
          "name": "previousGoldPriceMantissa",
          "type": "uint256"
        },
        {
          "indexed": false,
          "internalType": "uint256",
          "name": "requestedGoldPriceMantissa",
          "type": "uint256"
        },
        {
          "indexed": false,
          "internalType": "uint256",
          "name": "newGoldPriceMantissa",
          "type": "uint256"
        }
      ],
      "name": "GoldPricePosted",
      "type": "event"
    },
    {
      "anonymous": false,
      "inputs": [
        {
          "indexed": false,
          "internalType": "address",
          "name": "oldAdmin",
          "type": "address"
        },
        {
          "indexed": false,
          "internalType": "address",
          "name": "newAdmin",
          "type": "address"
        }
      ],
      "name": "NewAdmin",
      "type": "event"
    },
    {
      "anonymous": false,
      "inputs": [
        {
          "indexed": false,
          "internalType": "address",
          "name": "asset",
          "type": "address"
        },
        {
          "indexed": false,
          "internalType": "uint256",
          "name": "previousPriceMantissa",
          "type": "uint256"
        },
        {
          "indexed": false,
          "internalType": "uint256",
          "name": "requestedPriceMantissa",
          "type": "uint256"
        },
        {
          "indexed": false,
          "internalType": "uint256",
          "name": "newPriceMantissa",
          "type": "uint256"
        }
      ],
      "name": "PricePosted",
      "type": "event"
    },
    {
      "anonymous": false,
      "inputs": [
        {
          "indexed": false,
          "internalType": "address",
          "name": "tokenA",
          "type": "address"
        },
        {
          "indexed": false,
          "internalType": "address",
          "name": "tokenB",
          "type": "address"
        }
      ],
      "name": "UpdatePriceSlidingWindow",
      "type": "event"
    },
    {
      "inputs": [],
      "name": "admin",
      "outputs": [
        {
          "internalType": "address",
          "name": "",
          "type": "address"
        }
      ],
      "stateMutability": "view",
      "type": "function"
    },
    {
      "inputs": [],
      "name": "arm",
      "outputs": [
        {
          "internalType": "address",
          "name": "",
          "type": "address"
        }
      ],
      "stateMutability": "view",
      "type": "function"
    },
    {
      "inputs": [],
      "name": "compStorage",
      "outputs": [
        {
          "internalType": "contract ComptrollerStorageInterface",
          "name": "",
          "type": "address"
        }
      ],
      "stateMutability": "view",
      "type": "function"
    },
    {
      "inputs": [],
      "name": "goldPrice",
      "outputs": [
        {
          "internalType": "uint256",
          "name": "",
          "type": "uint256"
        }
      ],
      "stateMutability": "view",
      "type": "function"
    },
    {
      "inputs": [],
      "name": "slidingWindow",
      "outputs": [
        {
          "internalType": "contract ISlidingWindow",
          "name": "",
          "type": "address"
        }
      ],
      "stateMutability": "view",
      "type": "function"
    },
    {
      "inputs": [],
      "name": "tether",
      "outputs": [
        {
          "internalType": "address",
          "name": "",
          "type": "address"
        }
      ],
      "stateMutability": "view",
      "type": "function"
    },
    {
      "inputs": [],
      "name": "wrei",
      "outputs": [
        {
          "internalType": "address",
          "name": "",
          "type": "address"
        }
      ],
      "stateMutability": "view",
      "type": "function"
    },
    {
      "inputs": [],
      "name": "isPriceOracle",
      "outputs": [
        {
          "internalType": "bool",
          "name": "",
          "type": "bool"
        }
      ],
      "stateMutability": "pure",
      "type": "function"
    },
    {
      "inputs": [
        {
          "internalType": "contract LendTokenInterface",
          "name": "lendToken",
          "type": "address"
        }
      ],
      "name": "getUnderlyingPrice",
      "outputs": [
        {
          "internalType": "uint256",
          "name": "",
          "type": "uint256"
        }
      ],
      "stateMutability": "view",
      "type": "function"
    },
    {
      "inputs": [],
      "name": "updateAllSlidingWindow",
      "outputs": [],
      "stateMutability": "nonpayable",
      "type": "function"
    },
    {
      "inputs": [
        {
          "internalType": "contract LendTokenInterface",
          "name": "lendToken",
          "type": "address"
        },
        {
          "internalType": "uint256",
          "name": "underlyingPriceMantissa",
          "type": "uint256"
        }
      ],
      "name": "setUnderlyingPrice",
      "outputs": [],
      "stateMutability": "nonpayable",
      "type": "function"
    },
    {
      "inputs": [
        {
          "internalType": "address",
          "name": "asset",
          "type": "address"
        },
        {
          "internalType": "uint256",
          "name": "price",
          "type": "uint256"
        }
      ],
      "name": "setDirectPrice",
      "outputs": [],
      "stateMutability": "nonpayable",
      "type": "function"
    },
    {
      "inputs": [],
      "name": "getGoldPrice",
      "outputs": [
        {
          "internalType": "uint256",
          "name": "",
          "type": "uint256"
        }
      ],
      "stateMutability": "view",
      "type": "function"
    },
    {
      "inputs": [
        {
          "internalType": "uint256",
          "name": "underlyingPriceMantissa",
          "type": "uint256"
        }
      ],
      "name": "setGoldPrice",
      "outputs": [],
      "stateMutability": "nonpayable",
      "type": "function"
    },
    {
      "inputs": [
        {
          "internalType": "address",
          "name": "asset",
          "type": "address"
        }
      ],
      "name": "assetPrices",
      "outputs": [
        {
          "internalType": "uint256",
          "name": "",
          "type": "uint256"
        }
      ],
      "stateMutability": "view",
      "type": "function"
    },
    {
      "inputs": [
        {
          "internalType": "address",
          "name": "newAdmin",
          "type": "address"
        }
      ],
      "name": "_setAdmin",
      "outputs": [],
      "stateMutability": "nonpayable",
      "type": "function"
    }
  ],
  "bytecode": "0x60806040523480156200001157600080fd5b506040516200254f3803806200254f83398181016040528101906200003791906200027d565b336000806101000a81548173ffffffffffffffffffffffffffffffffffffffff021916908373ffffffffffffffffffffffffffffffffffffffff16021790555080600360006101000a81548173ffffffffffffffffffffffffffffffffffffffff021916908373ffffffffffffffffffffffffffffffffffffffff16021790555081600260006101000a81548173ffffffffffffffffffffffffffffffffffffffff021916908373ffffffffffffffffffffffffffffffffffffffff16021790555082600160006101000a81548173ffffffffffffffffffffffffffffffffffffffff021916908373ffffffffffffffffffffffffffffffffffffffff160217905550670de0b6b3a7640000600560008573ffffffffffffffffffffffffffffffffffffffff1673ffffffffffffffffffffffffffffffffffffffff1681526020019081526020016000208190555083600660006101000a81548173ffffffffffffffffffffffffffffffffffffffff021916908373ffffffffffffffffffffffffffffffffffffffff16021790555084600760006101000a81548173ffffffffffffffffffffffffffffffffffffffff021916908373ffffffffffffffffffffffffffffffffffffffff160217905550505050505062000305565b600080fd5b600073ffffffffffffffffffffffffffffffffffffffff82169050919050565b6000620002458262000218565b9050919050565b620002578162000238565b81146200026357600080fd5b50565b60008151905062000277816200024c565b92915050565b600080600080600060a086880312156200029c576200029b62000213565b5b6000620002ac8882890162000266565b9550506020620002bf8882890162000266565b9450506040620002d28882890162000266565b9350506060620002e58882890162000266565b9250506080620002f88882890162000266565b9150509295509295909350565b61223a80620003156000396000f3fe608060405234801561001057600080fd5b50600436106101005760003560e01c80635efc071a11610097578063bd378e8e11610066578063bd378e8e14610263578063da6bae1014610281578063f851a4401461029f578063fc57d4df146102bd57610100565b80635efc071a146101eb57806366331bba1461020957806381546f3f1461022757806384ce0cd41461024557610100565b8063370419e5116100d3578063370419e5146101635780633a74a76714610181578063445014041461019d5780635e9a523c146101bb57610100565b806309a8acb014610105578063127ffda01461012157806325446a151461013d5780632d02a5b214610147575b600080fd5b61011f600480360381019061011a91906115b9565b6102ed565b005b61013b60048036038101906101369190611637565b61043f565b005b610145610605565b005b610161600480360381019061015c9190611677565b610bd1565b005b61016b610ca6565b60405161017891906116b3565b60405180910390f35b61019b600480360381019061019691906116ce565b610ccc565b005b6101a5610dfd565b6040516101b2919061170a565b60405180910390f35b6101d560048036038101906101d091906116ce565b610e03565b6040516101e2919061170a565b60405180910390f35b6101f3610f70565b60405161020091906116b3565b60405180910390f35b610211610f96565b60405161021e9190611740565b60405180910390f35b61022f610f9f565b60405161023c91906117ba565b60405180910390f35b61024d610fc5565b60405161025a91906116b3565b60405180910390f35b61026b610feb565b60405161027891906117f6565b60405180910390f35b610289611011565b604051610296919061170a565b60405180910390f35b6102a761101b565b6040516102b491906116b3565b60405180910390f35b6102d760048036038101906102d29190611811565b61103f565b6040516102e4919061170a565b60405180910390f35b60008054906101000a900473ffffffffffffffffffffffffffffffffffffffff1673ffffffffffffffffffffffffffffffffffffffff163373ffffffffffffffffffffffffffffffffffffffff161461037b576040517f08c379a00000000000000000000000000000000000000000000000000000000081526004016103729061189b565b60405180910390fd5b7fdd71a1d19fcba687442a1d5c58578f1e409af71a79d10fd95a4d66efd8fa9ae782600560008573ffffffffffffffffffffffffffffffffffffffff1673ffffffffffffffffffffffffffffffffffffffff1681526020019081526020016000205483846040516103ef94939291906118bb565b60405180910390a180600560008473ffffffffffffffffffffffffffffffffffffffff1673ffffffffffffffffffffffffffffffffffffffff168152602001908152602001600020819055505050565b60008054906101000a900473ffffffffffffffffffffffffffffffffffffffff1673ffffffffffffffffffffffffffffffffffffffff163373ffffffffffffffffffffffffffffffffffffffff16146104cd576040517f08c379a00000000000000000000000000000000000000000000000000000000081526004016104c490611972565b60405180910390fd5b60008273ffffffffffffffffffffffffffffffffffffffff16636f307dc36040518163ffffffff1660e01b8152600401602060405180830381865afa15801561051a573d6000803e3d6000fd5b505050506040513d601f19601f8201168201806040525081019061053e91906119a7565b90507fdd71a1d19fcba687442a1d5c58578f1e409af71a79d10fd95a4d66efd8fa9ae781600560008473ffffffffffffffffffffffffffffffffffffffff1673ffffffffffffffffffffffffffffffffffffffff1681526020019081526020016000205484856040516105b494939291906118bb565b60405180910390a181600560008373ffffffffffffffffffffffffffffffffffffffff1673ffffffffffffffffffffffffffffffffffffffff16815260200190815260200160002081905550505050565b6000600760009054906101000a900473ffffffffffffffffffffffffffffffffffffffff1673ffffffffffffffffffffffffffffffffffffffff1663b0772d0b6040518163ffffffff1660e01b8152600401600060405180830381865afa158015610674573d6000803e3d6000fd5b505050506040513d6000823e3d601f19601f8201168201806040525081019061069d9190611b42565b90506000600660009054906101000a900473ffffffffffffffffffffffffffffffffffffffff1690506000600160009054906101000a900473ffffffffffffffffffffffffffffffffffffffff169050600080600090505b8451811015610ae0576107ca85828151811061071457610713611b8b565b5b602002602001015173ffffffffffffffffffffffffffffffffffffffff166395d89b416040518163ffffffff1660e01b8152600401600060405180830381865afa158015610766573d6000803e3d6000fd5b505050506040513d6000823e3d601f19601f8201168201806040525081019061078f9190611c93565b6040518060400160405280600781526020017f6c656e64524549000000000000000000000000000000000000000000000000008152506114b8565b156107f957600260009054906101000a900473ffffffffffffffffffffffffffffffffffffffff169150610956565b6108c585828151811061080f5761080e611b8b565b5b602002602001015173ffffffffffffffffffffffffffffffffffffffff166395d89b416040518163ffffffff1660e01b8152600401600060405180830381865afa158015610861573d6000803e3d6000fd5b505050506040513d6000823e3d601f19601f8201168201806040525081019061088a9190611c93565b6040518060400160405280600881526020017f6c656e64555344540000000000000000000000000000000000000000000000008152506114b8565b610955578481815181106108dc576108db611b8b565b5b602002602001015173ffffffffffffffffffffffffffffffffffffffff16636f307dc36040518163ffffffff1660e01b8152600401602060405180830381865afa15801561092e573d6000803e3d6000fd5b505050506040513d601f19601f8201168201806040525081019061095291906119a7565b91505b5b610a2285828151811061096c5761096b611b8b565b5b602002602001015173ffffffffffffffffffffffffffffffffffffffff166395d89b416040518163ffffffff1660e01b8152600401600060405180830381865afa1580156109be573d6000803e3d6000fd5b505050506040513d6000823e3d601f19601f820116820180604052508101906109e79190611c93565b6040518060400160405280600881526020017f6c656e64555344540000000000000000000000000000000000000000000000008152506114b8565b610acd578373ffffffffffffffffffffffffffffffffffffffff1663c640752d83856040518363ffffffff1660e01b8152600401610a61929190611cdc565b600060405180830381600087803b158015610a7b57600080fd5b505af1158015610a8f573d6000803e3d6000fd5b505050507f98601ff6218793415e19f31dfc7054f66c7fd04c9ab9dd24b51f9e7df2fff0d28284604051610ac4929190611cdc565b60405180910390a15b8080610ad890611d34565b9150506106f5565b8373ffffffffffffffffffffffffffffffffffffffff1663c640752d600360009054906101000a900473ffffffffffffffffffffffffffffffffffffffff16856040518363ffffffff1660e01b8152600401610b3d929190611cdc565b600060405180830381600087803b158015610b5757600080fd5b505af1158015610b6b573d6000803e3d6000fd5b505050507f98601ff6218793415e19f31dfc7054f66c7fd04c9ab9dd24b51f9e7df2fff0d2600360009054906101000a900473ffffffffffffffffffffffffffffffffffffffff1684604051610bc2929190611cdc565b60405180910390a15050505050565b60008054906101000a900473ffffffffffffffffffffffffffffffffffffffff1673ffffffffffffffffffffffffffffffffffffffff163373ffffffffffffffffffffffffffffffffffffffff1614610c5f576040517f08c379a0000000000000000000000000000000000000000000000000000000008152600401610c5690611dc9565b60405180910390fd5b806004819055507fe648fc41c2dd51fe241f1f2d3778d817ec78d4e455a664a1d27af9c640f6f33d6004548283604051610c9b93929190611de9565b60405180910390a150565b600360009054906101000a900473ffffffffffffffffffffffffffffffffffffffff1681565b60008054906101000a900473ffffffffffffffffffffffffffffffffffffffff1673ffffffffffffffffffffffffffffffffffffffff163373ffffffffffffffffffffffffffffffffffffffff1614610d5a576040517f08c379a0000000000000000000000000000000000000000000000000000000008152600401610d5190611dc9565b60405180910390fd5b60008060009054906101000a900473ffffffffffffffffffffffffffffffffffffffff169050816000806101000a81548173ffffffffffffffffffffffffffffffffffffffff021916908373ffffffffffffffffffffffffffffffffffffffff1602179055507ff9ffabca9c8276e99321725bcb43fb076a6c66a54b7f21c4e8146d8519b417dc8183604051610df1929190611cdc565b60405180910390a15050565b60045481565b6000806000600160009054906101000a900473ffffffffffffffffffffffffffffffffffffffff1690506000600560008673ffffffffffffffffffffffffffffffffffffffff1673ffffffffffffffffffffffffffffffffffffffff1681526020019081526020016000205414610ebb57600560008573ffffffffffffffffffffffffffffffffffffffff1673ffffffffffffffffffffffffffffffffffffffff168152602001908152602001600020549150610f66565b600660009054906101000a900473ffffffffffffffffffffffffffffffffffffffff1673ffffffffffffffffffffffffffffffffffffffff16638c86f1e485670de0b6b3a7640000846040518463ffffffff1660e01b8152600401610f2293929190611e5b565b602060405180830381865afa158015610f3f573d6000803e3d6000fd5b505050506040513d601f19601f82011682018060405250810190610f639190611ea7565b91505b8192505050919050565b600160009054906101000a900473ffffffffffffffffffffffffffffffffffffffff1681565b60006001905090565b600660009054906101000a900473ffffffffffffffffffffffffffffffffffffffff1681565b600260009054906101000a900473ffffffffffffffffffffffffffffffffffffffff1681565b600760009054906101000a900473ffffffffffffffffffffffffffffffffffffffff1681565b6000600454905090565b60008054906101000a900473ffffffffffffffffffffffffffffffffffffffff1681565b600080600160009054906101000a900473ffffffffffffffffffffffffffffffffffffffff16905060008061111c8573ffffffffffffffffffffffffffffffffffffffff166395d89b416040518163ffffffff1660e01b8152600401600060405180830381865afa1580156110b8573d6000803e3d6000fd5b505050506040513d6000823e3d601f19601f820116820180604052508101906110e19190611c93565b6040518060400160405280600781526020017f6c656e64524549000000000000000000000000000000000000000000000000008152506114b8565b1561114b57600260009054906101000a900473ffffffffffffffffffffffffffffffffffffffff169050611287565b6111fd8573ffffffffffffffffffffffffffffffffffffffff166395d89b416040518163ffffffff1660e01b8152600401600060405180830381865afa158015611199573d6000803e3d6000fd5b505050506040513d6000823e3d601f19601f820116820180604052508101906111c29190611c93565b6040518060400160405280600881526020017f6c656e64555344540000000000000000000000000000000000000000000000008152506114b8565b1561121557670de0b6b3a764000093505050506114b3565b8473ffffffffffffffffffffffffffffffffffffffff16636f307dc36040518163ffffffff1660e01b8152600401602060405180830381865afa158015611260573d6000803e3d6000fd5b505050506040513d601f19601f8201168201806040525081019061128491906119a7565b90505b6000600560008373ffffffffffffffffffffffffffffffffffffffff1673ffffffffffffffffffffffffffffffffffffffff168152602001908152602001600020541461131557600560008273ffffffffffffffffffffffffffffffffffffffff1673ffffffffffffffffffffffffffffffffffffffff1681526020019081526020016000205491506113c0565b600660009054906101000a900473ffffffffffffffffffffffffffffffffffffffff1673ffffffffffffffffffffffffffffffffffffffff16638c86f1e482670de0b6b3a7640000866040518463ffffffff1660e01b815260040161137c93929190611e5b565b602060405180830381865afa158015611399573d6000803e3d6000fd5b505050506040513d601f19601f820116820180604052508101906113bd9190611ea7565b91505b60006012905060008273ffffffffffffffffffffffffffffffffffffffff1663313ce5676040518163ffffffff1660e01b8152600401602060405180830381865afa158015611413573d6000803e3d6000fd5b505050506040513d601f19601f820116820180604052508101906114379190611f0d565b60ff169050808214156114515783955050505050506114b3565b808211156114885780826114659190611f3a565b600a61147191906120a1565b8461147c91906120ec565b955050505050506114b3565b81816114949190611f3a565b600a6114a091906120a1565b846114ab9190612175565b955050505050505b919050565b6000816040516020016114cb91906121ed565b60405160208183030381529060405280519060200120836040516020016114f291906121ed565b6040516020818303038152906040528051906020012014905092915050565b6000604051905090565b600080fd5b600080fd5b600073ffffffffffffffffffffffffffffffffffffffff82169050919050565b600061155082611525565b9050919050565b61156081611545565b811461156b57600080fd5b50565b60008135905061157d81611557565b92915050565b6000819050919050565b61159681611583565b81146115a157600080fd5b50565b6000813590506115b38161158d565b92915050565b600080604083850312156115d0576115cf61151b565b5b60006115de8582860161156e565b92505060206115ef858286016115a4565b9150509250929050565b600061160482611545565b9050919050565b611614816115f9565b811461161f57600080fd5b50565b6000813590506116318161160b565b92915050565b6000806040838503121561164e5761164d61151b565b5b600061165c85828601611622565b925050602061166d858286016115a4565b9150509250929050565b60006020828403121561168d5761168c61151b565b5b600061169b848285016115a4565b91505092915050565b6116ad81611545565b82525050565b60006020820190506116c860008301846116a4565b92915050565b6000602082840312156116e4576116e361151b565b5b60006116f28482850161156e565b91505092915050565b61170481611583565b82525050565b600060208201905061171f60008301846116fb565b92915050565b60008115159050919050565b61173a81611725565b82525050565b60006020820190506117556000830184611731565b92915050565b6000819050919050565b600061178061177b61177684611525565b61175b565b611525565b9050919050565b600061179282611765565b9050919050565b60006117a482611787565b9050919050565b6117b481611799565b82525050565b60006020820190506117cf60008301846117ab565b92915050565b60006117e082611787565b9050919050565b6117f0816117d5565b82525050565b600060208201905061180b60008301846117e7565b92915050565b6000602082840312156118275761182661151b565b5b600061183584828501611622565b91505092915050565b600082825260208201905092915050565b7f6f6e6c792061646d696e2063616e207365742070726963650000000000000000600082015250565b600061188560188361183e565b91506118908261184f565b602082019050919050565b600060208201905081810360008301526118b481611878565b9050919050565b60006080820190506118d060008301876116a4565b6118dd60208301866116fb565b6118ea60408301856116fb565b6118f760608301846116fb565b95945050505050565b7f6f6e6c792061646d696e2063616e2073657420756e6465726c79696e6720707260008201527f6963650000000000000000000000000000000000000000000000000000000000602082015250565b600061195c60238361183e565b915061196782611900565b604082019050919050565b6000602082019050818103600083015261198b8161194f565b9050919050565b6000815190506119a181611557565b92915050565b6000602082840312156119bd576119bc61151b565b5b60006119cb84828501611992565b91505092915050565b600080fd5b6000601f19601f8301169050919050565b7f4e487b7100000000000000000000000000000000000000000000000000000000600052604160045260246000fd5b611a22826119d9565b810181811067ffffffffffffffff82111715611a4157611a406119ea565b5b80604052505050565b6000611a54611511565b9050611a608282611a19565b919050565b600067ffffffffffffffff821115611a8057611a7f6119ea565b5b602082029050602081019050919050565b600080fd5b600081519050611aa58161160b565b92915050565b6000611abe611ab984611a65565b611a4a565b90508083825260208201905060208402830185811115611ae157611ae0611a91565b5b835b81811015611b0a5780611af68882611a96565b845260208401935050602081019050611ae3565b5050509392505050565b600082601f830112611b2957611b286119d4565b5b8151611b39848260208601611aab565b91505092915050565b600060208284031215611b5857611b5761151b565b5b600082015167ffffffffffffffff811115611b7657611b75611520565b5b611b8284828501611b14565b91505092915050565b7f4e487b7100000000000000000000000000000000000000000000000000000000600052603260045260246000fd5b600080fd5b600067ffffffffffffffff821115611bda57611bd96119ea565b5b611be3826119d9565b9050602081019050919050565b60005b83811015611c0e578082015181840152602081019050611bf3565b83811115611c1d576000848401525b50505050565b6000611c36611c3184611bbf565b611a4a565b905082815260208101848484011115611c5257611c51611bba565b5b611c5d848285611bf0565b509392505050565b600082601f830112611c7a57611c796119d4565b5b8151611c8a848260208601611c23565b91505092915050565b600060208284031215611ca957611ca861151b565b5b600082015167ffffffffffffffff811115611cc757611cc6611520565b5b611cd384828501611c65565b91505092915050565b6000604082019050611cf160008301856116a4565b611cfe60208301846116a4565b9392505050565b7f4e487b7100000000000000000000000000000000000000000000000000000000600052601160045260246000fd5b6000611d3f82611583565b91507fffffffffffffffffffffffffffffffffffffffffffffffffffffffffffffffff821415611d7257611d71611d05565b5b600182019050919050565b7f6f6e6c792061646d696e2063616e20736574206e65772061646d696e00000000600082015250565b6000611db3601c8361183e565b9150611dbe82611d7d565b602082019050919050565b60006020820190508181036000830152611de281611da6565b9050919050565b6000606082019050611dfe60008301866116fb565b611e0b60208301856116fb565b611e1860408301846116fb565b949350505050565b6000819050919050565b6000611e45611e40611e3b84611e20565b61175b565b611583565b9050919050565b611e5581611e2a565b82525050565b6000606082019050611e7060008301866116a4565b611e7d6020830185611e4c565b611e8a60408301846116a4565b949350505050565b600081519050611ea18161158d565b92915050565b600060208284031215611ebd57611ebc61151b565b5b6000611ecb84828501611e92565b91505092915050565b600060ff82169050919050565b611eea81611ed4565b8114611ef557600080fd5b50565b600081519050611f0781611ee1565b92915050565b600060208284031215611f2357611f2261151b565b5b6000611f3184828501611ef8565b91505092915050565b6000611f4582611583565b9150611f5083611583565b925082821015611f6357611f62611d05565b5b828203905092915050565b60008160011c9050919050565b6000808291508390505b6001851115611fc557808604811115611fa157611fa0611d05565b5b6001851615611fb05780820291505b8081029050611fbe85611f6e565b9450611f85565b94509492505050565b600082611fde576001905061209a565b81611fec576000905061209a565b8160018114612002576002811461200c5761203b565b600191505061209a565b60ff84111561201e5761201d611d05565b5b8360020a91508482111561203557612034611d05565b5b5061209a565b5060208310610133831016604e8410600b84101617156120705782820a90508381111561206b5761206a611d05565b5b61209a565b61207d8484846001611f7b565b9250905081840481111561209457612093611d05565b5b81810290505b9392505050565b60006120ac82611583565b91506120b783611583565b92506120e47fffffffffffffffffffffffffffffffffffffffffffffffffffffffffffffffff8484611fce565b905092915050565b60006120f782611583565b915061210283611583565b9250817fffffffffffffffffffffffffffffffffffffffffffffffffffffffffffffffff048311821515161561213b5761213a611d05565b5b828202905092915050565b7f4e487b7100000000000000000000000000000000000000000000000000000000600052601260045260246000fd5b600061218082611583565b915061218b83611583565b92508261219b5761219a612146565b5b828204905092915050565b600081519050919050565b600081905092915050565b60006121c7826121a6565b6121d181856121b1565b93506121e1818560208601611bf0565b80840191505092915050565b60006121f982846121bc565b91508190509291505056fea2646970667358221220e4f3ec92afc037420a4519f6bd27778d35db3636935ffe7df855260c66bb131f64736f6c634300080c0033",
  "immutableReferences": {},
  "source": "// SPDX-License-Identifier: MIT\r\npragma solidity ^0.8.0;\r\nimport \"./interface/ComptrollerInterface.sol\";\r\nimport \"./interface/ISlidingWindow.sol\";\r\nimport \"@openzeppelin/contracts/token/ERC20/ERC20.sol\";\r\n\r\ncontract AurumPriceOracle is PriceOracle {\r\n    //\r\n    // This version we reference price to Tether USDT, if the USDT is off pegged the price may go wrong.\r\n    //\r\n\r\n    address public admin;\r\n    \r\n    address public tether; // Tether used in reference price to the wanted TOKENs price\r\n    address public wrei; // Wrapped REI address\r\n    address public arm; // Governance token of AURUM DeFi\r\n\r\n    uint public goldPrice;\r\n    mapping(address => uint) prices;  //Manual set price, use in emergency case\r\n\r\n    ISlidingWindow public slidingWindow;\r\n    ComptrollerStorageInterface public compStorage;\r\n\r\n    event PricePosted(address asset, uint previousPriceMantissa, uint requestedPriceMantissa, uint newPriceMantissa);\r\n    event GoldPricePosted(uint previousGoldPriceMantissa, uint requestedGoldPriceMantissa, uint newGoldPriceMantissa);\r\n    event NewAdmin(address oldAdmin, address newAdmin);\r\n    event UpdatePriceSlidingWindow (address tokenA, address tokenB);\r\n\r\n\r\n    constructor(address compStorage_, address slidingWindow_,address tether_, address wrei_, address arm_) {\r\n        admin = msg.sender;\r\n        arm = arm_;\r\n        wrei = wrei_;\r\n        tether = tether_; // reference USDT as a mean of exchange\r\n        prices[tether_] = 1e18; //Everything refer to usdt price\r\n        slidingWindow = ISlidingWindow(slidingWindow_);\r\n        compStorage = ComptrollerStorageInterface(compStorage_);\r\n    }\r\n    function isPriceOracle() external pure returns(bool) {\r\n        return true;\r\n    }\r\n\r\n    function getUnderlyingPrice(LendTokenInterface lendToken) external view returns (uint) {\r\n\r\n        address usdt  = tether;\r\n        uint256 price;\r\n        address token;\r\n\r\n        //LendREI doesn't have underlying variable.\r\n        if (compareStrings(lendToken.symbol(), \"lendREI\")) {\r\n            token = wrei;\r\n        }else {\r\n            if(compareStrings(lendToken.symbol(), \"lendUSDT\")){\r\n                return 1e18; // return price = 1 USDT: 1 USDT\r\n            } else {\r\n                token = lendToken.underlying();\r\n            }\r\n        }\r\n\r\n        if(prices[token] != 0) {\r\n            // Manual feed by admin\r\n            price = prices[token];\r\n        } else {\r\n            // TWAP Uniswap v2 called\r\n            price = slidingWindow.consult(token,1e18,usdt);\r\n\r\n        }\r\n\r\n        uint256 defaultDecimal = 18;\r\n        uint256 tokenDecimal = uint256(ERC20(token).decimals());\r\n\r\n        if(defaultDecimal == tokenDecimal) {\r\n            return price;\r\n        } else if(defaultDecimal > tokenDecimal) {\r\n            return price * (10**(defaultDecimal-tokenDecimal));\r\n        } else {\r\n            return price / (10**(tokenDecimal-defaultDecimal));\r\n        }\r\n    }\r\n\r\n    function updateAllSlidingWindow() external {\r\n        LendTokenInterface[] memory lendToken = compStorage.getAllMarkets();\r\n        ISlidingWindow uniswapOracle = slidingWindow;\r\n        address usdt = tether;\r\n        address underlying;\r\n        uint i;\r\n        for(i=0;i<lendToken.length;i++){\r\n            //We compare each underlying to Tether USDT\r\n            //We need bot to update the price of each pair\r\n            if (compareStrings(lendToken[i].symbol(), \"lendREI\")) {\r\n                underlying = wrei;\r\n            } else {\r\n                if (!compareStrings(lendToken[i].symbol(), \"lendUSDT\")) {\r\n                    underlying = lendToken[i].underlying();\r\n                }\r\n            }\r\n            //USDT is set to 1\r\n            if (!compareStrings(lendToken[i].symbol(), \"lendUSDT\")) {    \r\n                uniswapOracle.update(underlying, usdt);\r\n                emit UpdatePriceSlidingWindow(underlying, usdt);\r\n            }\r\n        }\r\n        uniswapOracle.update(arm, usdt);\r\n        emit UpdatePriceSlidingWindow(arm, usdt);\r\n    }\r\n\r\n    function setUnderlyingPrice(LendTokenInterface lendToken, uint underlyingPriceMantissa) external {\r\n        require(msg.sender == admin, \"only admin can set underlying price\");\r\n        address asset = address(LendTokenInterface(address(lendToken)).underlying());\r\n        emit PricePosted(asset, prices[asset], underlyingPriceMantissa, underlyingPriceMantissa);\r\n        prices[asset] = underlyingPriceMantissa;\r\n    }\r\n\r\n    function setDirectPrice(address asset, uint price) external {\r\n        require(msg.sender == admin, \"only admin can set price\");\r\n        emit PricePosted(asset, prices[asset], price, price);\r\n        prices[asset] = price;\r\n    }\r\n\r\n    function getGoldPrice() external view returns(uint){\r\n        return goldPrice;\r\n    }\r\n    \r\n    function setGoldPrice(uint underlyingPriceMantissa) external {      //Manually set gold price\r\n        require(msg.sender == admin, \"only admin can set new admin\");\r\n        goldPrice = underlyingPriceMantissa;\r\n        emit GoldPricePosted(goldPrice, underlyingPriceMantissa, underlyingPriceMantissa);\r\n    }\r\n\r\n    function assetPrices(address asset) external view returns (uint) {\r\n        uint price;\r\n        address usdt = tether;\r\n        if(prices[asset] != 0) {\r\n            // Manual feed by admin\r\n            price = prices[asset];\r\n        } else {\r\n            // TWAP Uniswap v2 called\r\n            price = slidingWindow.consult(asset,1e18,usdt);\r\n\r\n        }\r\n        return price;\r\n    }\r\n\r\n    function compareStrings(string memory a, string memory b) internal pure returns (bool) {\r\n        return (keccak256(abi.encodePacked((a))) == keccak256(abi.encodePacked((b))));\r\n    }\r\n\r\n    function _setAdmin(address newAdmin) external {\r\n        require(msg.sender == admin, \"only admin can set new admin\");\r\n        address oldAdmin = admin;\r\n        admin = newAdmin;\r\n\r\n        emit NewAdmin(oldAdmin, newAdmin);\r\n    }\r\n}",
  "sourcePath": "C:\\Users\\chana\\desktop\\aurumdefi\\src\\contracts\\AurumPriceOraclev1.sol",
  "compiler": {
    "name": "solc",
    "version": "0.8.12+commit.f00d7308.Emscripten.clang"
  },
  "schemaVersion": "3.4.6",
  "updatedAt": "2022-04-24T15:41:10.397Z",
  "devdoc": {
    "kind": "dev",
    "methods": {},
    "version": 1
  },
  "userdoc": {
    "kind": "user",
    "methods": {},
    "version": 1
  }
}