{
  "contractName": "AurumOracleCentralized",
  "abi": [
    {
      "inputs": [
        {
          "internalType": "address",
          "name": "WREI_",
          "type": "address"
        }
      ],
      "stateMutability": "nonpayable",
      "type": "constructor"
    },
    {
      "anonymous": false,
      "inputs": [
        {
          "indexed": false,
          "internalType": "address",
          "name": "token",
          "type": "address"
        },
        {
          "indexed": false,
          "internalType": "uint128",
          "name": "price",
          "type": "uint128"
        },
        {
          "indexed": false,
          "internalType": "uint128",
          "name": "timestamp",
          "type": "uint128"
        }
      ],
      "name": "Initialized_Asset",
      "type": "event"
    },
    {
      "anonymous": false,
      "inputs": [
        {
          "indexed": false,
          "internalType": "uint128",
          "name": "price",
          "type": "uint128"
        },
        {
          "indexed": false,
          "internalType": "uint128",
          "name": "timestamp",
          "type": "uint128"
        }
      ],
      "name": "Initialized_Gold",
      "type": "event"
    },
    {
      "inputs": [],
      "name": "isPriceOracle",
      "outputs": [
        {
          "internalType": "bool",
          "name": "",
          "type": "bool"
        }
      ],
      "stateMutability": "pure",
      "type": "function",
      "constant": true
    },
    {
      "inputs": [
        {
          "internalType": "address",
          "name": "token",
          "type": "address"
        },
        {
          "internalType": "uint128",
          "name": "price",
          "type": "uint128"
        }
      ],
      "name": "initializedAsset",
      "outputs": [],
      "stateMutability": "nonpayable",
      "type": "function"
    },
    {
      "inputs": [
        {
          "internalType": "uint128",
          "name": "price",
          "type": "uint128"
        }
      ],
      "name": "initializedGold",
      "outputs": [],
      "stateMutability": "nonpayable",
      "type": "function"
    },
    {
      "inputs": [
        {
          "internalType": "address",
          "name": "token",
          "type": "address"
        },
        {
          "internalType": "uint128",
          "name": "price",
          "type": "uint128"
        }
      ],
      "name": "updateAssetPrice",
      "outputs": [],
      "stateMutability": "nonpayable",
      "type": "function"
    },
    {
      "inputs": [
        {
          "internalType": "uint128",
          "name": "price",
          "type": "uint128"
        }
      ],
      "name": "updateGoldPrice",
      "outputs": [],
      "stateMutability": "nonpayable",
      "type": "function"
    },
    {
      "inputs": [],
      "name": "getGoldPrice",
      "outputs": [
        {
          "internalType": "uint256",
          "name": "",
          "type": "uint256"
        }
      ],
      "stateMutability": "view",
      "type": "function",
      "constant": true
    },
    {
      "inputs": [
        {
          "internalType": "contract LendTokenInterface",
          "name": "lendToken",
          "type": "address"
        }
      ],
      "name": "getUnderlyingPrice",
      "outputs": [
        {
          "internalType": "uint256",
          "name": "",
          "type": "uint256"
        }
      ],
      "stateMutability": "view",
      "type": "function",
      "constant": true
    },
    {
      "inputs": [
        {
          "internalType": "address",
          "name": "token",
          "type": "address"
        }
      ],
      "name": "assetPrices",
      "outputs": [
        {
          "internalType": "uint256",
          "name": "",
          "type": "uint256"
        }
      ],
      "stateMutability": "view",
      "type": "function",
      "constant": true
    }
  ],
  "bytecode": "0x60806040523480156200001157600080fd5b5060405162001d9f38038062001d9f833981810160405281019062000037919062000129565b336000806101000a81548173ffffffffffffffffffffffffffffffffffffffff021916908373ffffffffffffffffffffffffffffffffffffffff16021790555080601b60006101000a81548173ffffffffffffffffffffffffffffffffffffffff021916908373ffffffffffffffffffffffffffffffffffffffff160217905550506200015b565b600080fd5b600073ffffffffffffffffffffffffffffffffffffffff82169050919050565b6000620000f182620000c4565b9050919050565b6200010381620000e4565b81146200010f57600080fd5b50565b6000815190506200012381620000f8565b92915050565b600060208284031215620001425762000141620000bf565b5b6000620001528482850162000112565b91505092915050565b611c34806200016b6000396000f3fe608060405234801561001057600080fd5b50600436106100885760003560e01c806366331bba1161005b57806366331bba1461011157806371232b1b1461012f578063da6bae101461014b578063fc57d4df1461016957610088565b80630f9e81ee1461008d5780633524cf6c146100a95780634b1386c9146100c55780635e9a523c146100e1575b600080fd5b6100a760048036038101906100a291906113ff565b610199565b005b6100c360048036038101906100be919061148a565b610366565b005b6100df60048036038101906100da91906113ff565b6105ed565b005b6100fb60048036038101906100f691906114ca565b610996565b6040516101089190611510565b60405180910390f35b610119610aab565b6040516101269190611546565b60405180910390f35b6101496004803603810190610144919061148a565b610ab4565b005b610153611046565b6040516101609190611510565b60405180910390f35b610183600480360381019061017e919061159f565b6110df565b6040516101909190611510565b60405180910390f35b60008054906101000a900473ffffffffffffffffffffffffffffffffffffffff1673ffffffffffffffffffffffffffffffffffffffff163373ffffffffffffffffffffffffffffffffffffffff1614610227576040517f08c379a000000000000000000000000000000000000000000000000000000000815260040161021e90611629565b60405180910390fd5b600080429050600091505b60188260ff161015610309578260026000018360ff166018811061025957610258611649565b5b600291828204019190066010026101000a8154816fffffffffffffffffffffffffffffffff02191690836fffffffffffffffffffffffffffffffff160217905550806002600c018360ff16601881106102b5576102b4611649565b5b600291828204019190066010026101000a8154816fffffffffffffffffffffffffffffffff02191690836fffffffffffffffffffffffffffffffff1602179055508180610301906116b4565b925050610232565b6000600260180160006101000a81548160ff021916908360ff1602179055507fc66c6a9be0b5931755018ddae096efb20b7b80e636d01ee9bb535584cd06101d83826040516103599291906116ed565b60405180910390a1505050565b60008054906101000a900473ffffffffffffffffffffffffffffffffffffffff1673ffffffffffffffffffffffffffffffffffffffff163373ffffffffffffffffffffffffffffffffffffffff16146103f4576040517f08c379a00000000000000000000000000000000000000000000000000000000081526004016103eb90611629565b60405180910390fd5b600080429050600091505b60188260ff1610156105505782600160008673ffffffffffffffffffffffffffffffffffffffff1673ffffffffffffffffffffffffffffffffffffffff1681526020019081526020016000206000018360ff166018811061046357610462611649565b5b600291828204019190066010026101000a8154816fffffffffffffffffffffffffffffffff02191690836fffffffffffffffffffffffffffffffff16021790555080600160008673ffffffffffffffffffffffffffffffffffffffff1673ffffffffffffffffffffffffffffffffffffffff168152602001908152602001600020600c018360ff16601881106104fc576104fb611649565b5b600291828204019190066010026101000a8154816fffffffffffffffffffffffffffffffff02191690836fffffffffffffffffffffffffffffffff1602179055508180610548906116b4565b9250506103ff565b6000600160008673ffffffffffffffffffffffffffffffffffffffff1673ffffffffffffffffffffffffffffffffffffffff16815260200190815260200160002060180160006101000a81548160ff021916908360ff1602179055507fb269f714c40d09fccdca4d2f0b9dfa2a604c8b821f713813fc79824c458b0d908484836040516105df93929190611725565b60405180910390a150505050565b60008054906101000a900473ffffffffffffffffffffffffffffffffffffffff1673ffffffffffffffffffffffffffffffffffffffff163373ffffffffffffffffffffffffffffffffffffffff161461067b576040517f08c379a000000000000000000000000000000000000000000000000000000000815260040161067290611629565b60405180910390fd5b6000600260180160009054906101000a900460ff16905060008060008360ff1614156106aa57601791506106ba565b6001836106b7919061175c565b91505b600060026000018360ff16601881106106d6576106d5611649565b5b600291828204019190066010029054906101000a90046fffffffffffffffffffffffffffffffff166fffffffffffffffffffffffffffffffff16905060178460ff1614156107275760009150610737565b6001846107349190611790565b91505b60006002600c018460ff166018811061075357610752611649565b5b600291828204019190066010029054906101000a90046fffffffffffffffffffffffffffffffff166002600c018460ff166018811061079557610794611649565b5b600291828204019190066010029054906101000a90046fffffffffffffffffffffffffffffffff166107c791906117c7565b6fffffffffffffffffffffffffffffffff16905060006002600c018560ff16601881106107f7576107f6611649565b5b600291828204019190066010029054906101000a90046fffffffffffffffffffffffffffffffff166fffffffffffffffffffffffffffffffff164261083c91906117fb565b90506000828261084c919061182f565b886fffffffffffffffffffffffffffffffff168361086a9190611885565b85856108769190611885565b610880919061182f565b61088a919061190e565b90506fffffffffffffffffffffffffffffffff80168111156108e1576040517f08c379a00000000000000000000000000000000000000000000000000000000081526004016108d89061198b565b60405180910390fd5b8060026000018860ff16601881106108fc576108fb611649565b5b600291828204019190066010026101000a8154816fffffffffffffffffffffffffffffffff02191690836fffffffffffffffffffffffffffffffff1602179055506002600c018760ff166018811061095757610956611649565b5b600291828204019190066010029054906101000a90505084600260180160006101000a81548160ff021916908360ff1602179055505050505050505050565b600080600160008473ffffffffffffffffffffffffffffffffffffffff1673ffffffffffffffffffffffffffffffffffffffff16815260200190815260200160002060180160009054906101000a900460ff1690506000808260ff161415610a015760179050610a11565b600182610a0e919061175c565b90505b600160008573ffffffffffffffffffffffffffffffffffffffff1673ffffffffffffffffffffffffffffffffffffffff1681526020019081526020016000206000018160ff1660188110610a6857610a67611649565b5b600291828204019190066010029054906101000a90046fffffffffffffffffffffffffffffffff166fffffffffffffffffffffffffffffffff1692505050919050565b60006001905090565b60008054906101000a900473ffffffffffffffffffffffffffffffffffffffff1673ffffffffffffffffffffffffffffffffffffffff163373ffffffffffffffffffffffffffffffffffffffff1614610b42576040517f08c379a0000000000000000000000000000000000000000000000000000000008152600401610b3990611629565b60405180910390fd5b6000600160008473ffffffffffffffffffffffffffffffffffffffff1673ffffffffffffffffffffffffffffffffffffffff16815260200190815260200160002060180160009054906101000a900460ff16905060008060008360ff161415610bae5760179150610bbe565b600183610bbb919061175c565b91505b6000600160008773ffffffffffffffffffffffffffffffffffffffff1673ffffffffffffffffffffffffffffffffffffffff1681526020019081526020016000206000018360ff1660188110610c1757610c16611649565b5b600291828204019190066010029054906101000a90046fffffffffffffffffffffffffffffffff166fffffffffffffffffffffffffffffffff16905060178460ff161415610c685760009150610c78565b600184610c759190611790565b91505b6000600160008873ffffffffffffffffffffffffffffffffffffffff1673ffffffffffffffffffffffffffffffffffffffff168152602001908152602001600020600c018460ff1660188110610cd157610cd0611649565b5b600291828204019190066010029054906101000a90046fffffffffffffffffffffffffffffffff16600160008973ffffffffffffffffffffffffffffffffffffffff1673ffffffffffffffffffffffffffffffffffffffff168152602001908152602001600020600c018460ff1660188110610d5057610d4f611649565b5b600291828204019190066010029054906101000a90046fffffffffffffffffffffffffffffffff16610d8291906117c7565b6fffffffffffffffffffffffffffffffff1690506000600160008973ffffffffffffffffffffffffffffffffffffffff1673ffffffffffffffffffffffffffffffffffffffff168152602001908152602001600020600c018560ff1660188110610def57610dee611649565b5b600291828204019190066010029054906101000a90046fffffffffffffffffffffffffffffffff166fffffffffffffffffffffffffffffffff1642610e3491906117fb565b905060008282610e44919061182f565b886fffffffffffffffffffffffffffffffff1683610e629190611885565b8585610e6e9190611885565b610e78919061182f565b610e82919061190e565b90506fffffffffffffffffffffffffffffffff8016811115610ed9576040517f08c379a0000000000000000000000000000000000000000000000000000000008152600401610ed09061198b565b60405180910390fd5b80600160008b73ffffffffffffffffffffffffffffffffffffffff1673ffffffffffffffffffffffffffffffffffffffff1681526020019081526020016000206000018860ff1660188110610f3157610f30611649565b5b600291828204019190066010026101000a8154816fffffffffffffffffffffffffffffffff02191690836fffffffffffffffffffffffffffffffff160217905550600160008a73ffffffffffffffffffffffffffffffffffffffff1673ffffffffffffffffffffffffffffffffffffffff168152602001908152602001600020600c018760ff1660188110610fc957610fc8611649565b5b600291828204019190066010029054906101000a90505084600160008b73ffffffffffffffffffffffffffffffffffffffff1673ffffffffffffffffffffffffffffffffffffffff16815260200190815260200160002060180160006101000a81548160ff021916908360ff160217905550505050505050505050565b600080600260180160009054906101000a900460ff1690506000808260ff1614156110745760179050611084565b600182611081919061175c565b90505b60026000018160ff166018811061109e5761109d611649565b5b600291828204019190066010029054906101000a90046fffffffffffffffffffffffffffffffff166fffffffffffffffffffffffffffffffff169250505090565b6000806111948373ffffffffffffffffffffffffffffffffffffffff166395d89b416040518163ffffffff1660e01b8152600401600060405180830381865afa158015611130573d6000803e3d6000fd5b505050506040513d6000823e3d601f19601f820116820180604052508101906111599190611b15565b6040518060400160405280600781526020017f6c656e645245490000000000000000000000000000000000000000000000000081525061134a565b156111c357601b60009054906101000a900473ffffffffffffffffffffffffffffffffffffffff169050611235565b8273ffffffffffffffffffffffffffffffffffffffff16636f307dc36040518163ffffffff1660e01b8152600401602060405180830381865afa15801561120e573d6000803e3d6000fd5b505050506040513d601f19601f820116820180604052508101906112329190611b73565b90505b6000600160008373ffffffffffffffffffffffffffffffffffffffff1673ffffffffffffffffffffffffffffffffffffffff16815260200190815260200160002060180160009054906101000a900460ff1690506000808260ff16141561129f57601790506112af565b6001826112ac919061175c565b90505b600160008473ffffffffffffffffffffffffffffffffffffffff1673ffffffffffffffffffffffffffffffffffffffff1681526020019081526020016000206000018160ff166018811061130657611305611649565b5b600291828204019190066010029054906101000a90046fffffffffffffffffffffffffffffffff166fffffffffffffffffffffffffffffffff169350505050919050565b60008160405160200161135d9190611be7565b60405160208183030381529060405280519060200120836040516020016113849190611be7565b6040516020818303038152906040528051906020012014905092915050565b6000604051905090565b600080fd5b600080fd5b60006fffffffffffffffffffffffffffffffff82169050919050565b6113dc816113b7565b81146113e757600080fd5b50565b6000813590506113f9816113d3565b92915050565b600060208284031215611415576114146113ad565b5b6000611423848285016113ea565b91505092915050565b600073ffffffffffffffffffffffffffffffffffffffff82169050919050565b60006114578261142c565b9050919050565b6114678161144c565b811461147257600080fd5b50565b6000813590506114848161145e565b92915050565b600080604083850312156114a1576114a06113ad565b5b60006114af85828601611475565b92505060206114c0858286016113ea565b9150509250929050565b6000602082840312156114e0576114df6113ad565b5b60006114ee84828501611475565b91505092915050565b6000819050919050565b61150a816114f7565b82525050565b60006020820190506115256000830184611501565b92915050565b60008115159050919050565b6115408161152b565b82525050565b600060208201905061155b6000830184611537565b92915050565b600061156c8261144c565b9050919050565b61157c81611561565b811461158757600080fd5b50565b60008135905061159981611573565b92915050565b6000602082840312156115b5576115b46113ad565b5b60006115c38482850161158a565b91505092915050565b600082825260208201905092915050565b7f4f6e6c792061646d696e00000000000000000000000000000000000000000000600082015250565b6000611613600a836115cc565b915061161e826115dd565b602082019050919050565b6000602082019050818103600083015261164281611606565b9050919050565b7f4e487b7100000000000000000000000000000000000000000000000000000000600052603260045260246000fd5b7f4e487b7100000000000000000000000000000000000000000000000000000000600052601160045260246000fd5b600060ff82169050919050565b60006116bf826116a7565b915060ff8214156116d3576116d2611678565b5b600182019050919050565b6116e7816113b7565b82525050565b600060408201905061170260008301856116de565b61170f60208301846116de565b9392505050565b61171f8161144c565b82525050565b600060608201905061173a6000830186611716565b61174760208301856116de565b61175460408301846116de565b949350505050565b6000611767826116a7565b9150611772836116a7565b92508282101561178557611784611678565b5b828203905092915050565b600061179b826116a7565b91506117a6836116a7565b92508260ff038211156117bc576117bb611678565b5b828201905092915050565b60006117d2826113b7565b91506117dd836113b7565b9250828210156117f0576117ef611678565b5b828203905092915050565b6000611806826114f7565b9150611811836114f7565b92508282101561182457611823611678565b5b828203905092915050565b600061183a826114f7565b9150611845836114f7565b9250827fffffffffffffffffffffffffffffffffffffffffffffffffffffffffffffffff0382111561187a57611879611678565b5b828201905092915050565b6000611890826114f7565b915061189b836114f7565b9250817fffffffffffffffffffffffffffffffffffffffffffffffffffffffffffffffff04831182151516156118d4576118d3611678565b5b828202905092915050565b7f4e487b7100000000000000000000000000000000000000000000000000000000600052601260045260246000fd5b6000611919826114f7565b9150611924836114f7565b925082611934576119336118df565b5b828204905092915050565b7f4f766572666c6f77000000000000000000000000000000000000000000000000600082015250565b60006119756008836115cc565b91506119808261193f565b602082019050919050565b600060208201905081810360008301526119a481611968565b9050919050565b600080fd5b600080fd5b6000601f19601f8301169050919050565b7f4e487b7100000000000000000000000000000000000000000000000000000000600052604160045260246000fd5b6119fe826119b5565b810181811067ffffffffffffffff82111715611a1d57611a1c6119c6565b5b80604052505050565b6000611a306113a3565b9050611a3c82826119f5565b919050565b600067ffffffffffffffff821115611a5c57611a5b6119c6565b5b611a65826119b5565b9050602081019050919050565b60005b83811015611a90578082015181840152602081019050611a75565b83811115611a9f576000848401525b50505050565b6000611ab8611ab384611a41565b611a26565b905082815260208101848484011115611ad457611ad36119b0565b5b611adf848285611a72565b509392505050565b600082601f830112611afc57611afb6119ab565b5b8151611b0c848260208601611aa5565b91505092915050565b600060208284031215611b2b57611b2a6113ad565b5b600082015167ffffffffffffffff811115611b4957611b486113b2565b5b611b5584828501611ae7565b91505092915050565b600081519050611b6d8161145e565b92915050565b600060208284031215611b8957611b886113ad565b5b6000611b9784828501611b5e565b91505092915050565b600081519050919050565b600081905092915050565b6000611bc182611ba0565b611bcb8185611bab565b9350611bdb818560208601611a72565b80840191505092915050565b6000611bf38284611bb6565b91508190509291505056fea26469706673582212202e35ea1bcca12ebea7bbdbb93dc418a0b50aedb5388113d3a154843cba9b490e64736f6c634300080c0033",
  "immutableReferences": {},
  "source": "// SPDX-License-Identifier: MIT\r\npragma solidity ^0.8.0;\r\n\r\nimport './interface/ComptrollerInterface.sol';\r\n\r\ncontract AurumOracleCentralized is PriceOracle {\r\n    //Using TWAP model, using index for looping and re-write the price storage\r\n    address admin;\r\n    struct PriceList {\r\n        uint128[24] avgPrice;\r\n        uint128[24] timestamp;\r\n        uint8 currentIndex;\r\n    }\r\n    \r\n    mapping (address => PriceList) asset;\r\n    PriceList goldPrice; // gold price TWAP\r\n\r\n    function isPriceOracle() external pure returns (bool) {return true;}\r\n\r\n\r\n    address WREI; // Wrapped REI address\r\n\r\n\r\n    constructor (address WREI_) {\r\n        admin = msg.sender;\r\n        WREI = WREI_;  // WREI will prevent crash when query the 'lendREI' token\r\n    }\r\n\r\n    modifier onlyAdmin {\r\n        require(msg.sender == admin, \"Only admin\");\r\n        _;\r\n    }\r\n\r\n    event Initialized_Asset(address token, uint128 price, uint128 timestamp);\r\n    event Initialized_Gold(uint128 price, uint128 timestamp);\r\n\r\n    // Initialized Asset before updateAssetPrice, make sure that lastPrice not equal to 0, and Timestamp not equal to 0.\r\n    function initializedAsset(address token, uint128 price) external onlyAdmin{\r\n        uint8 i;\r\n        uint128 currentTime = uint128(block.timestamp);\r\n        for(i=0;i<24;i++){\r\n            asset[token].avgPrice[i] = price;\r\n            asset[token].timestamp[i] = currentTime;\r\n        }\r\n        asset[token].currentIndex = 0;\r\n        emit Initialized_Asset(token, price, currentTime);\r\n    }\r\n    function initializedGold(uint128 price) external onlyAdmin{\r\n        uint8 i;\r\n        uint128 currentTime = uint128(block.timestamp);\r\n        for(i=0;i<24;i++){\r\n            goldPrice.avgPrice[i] = price;\r\n            goldPrice.timestamp[i] = currentTime;\r\n        }\r\n        goldPrice.currentIndex = 0;\r\n        emit Initialized_Gold(price, currentTime);\r\n    }\r\n\r\n\r\n    // Update price with the TWAP model.\r\n    function updateAssetPrice(address token, uint128 price) external onlyAdmin{\r\n        uint8 index = asset[token].currentIndex;\r\n        uint8 lastIndex;\r\n        uint8 nextIndex;\r\n        if(index == 0){\r\n            lastIndex = 23;\r\n        } else {\r\n            lastIndex = index-1;\r\n        }\r\n        uint lastPrice = asset[token].avgPrice[lastIndex];\r\n\r\n        if(index == 23){\r\n            nextIndex = 0;\r\n        } else {\r\n            nextIndex = index+1;\r\n        }\r\n        //oldDeltaTime is the time 0 - time K\r\n        //newDeltaTime is the time n - time K\r\n        uint oldDeltaTime = asset[token].timestamp[nextIndex]-asset[token].timestamp[lastIndex]; // This need to be initialized prevent underflow\r\n        uint newDeltaTime = block.timestamp - asset[token].timestamp[lastIndex];\r\n\r\n        //new AvgPrice is ( price*tk  +  price*tn  ) / tk+tn\r\n        uint newAvgPrice = ((oldDeltaTime*lastPrice) + (newDeltaTime*price)) / (newDeltaTime+oldDeltaTime);\r\n\r\n        if(newAvgPrice > type(uint128).max){\r\n            revert(\"Overflow\");\r\n        }\r\n        asset[token].avgPrice[index] = uint128(newAvgPrice);\r\n        asset[token].timestamp[index];\r\n\r\n        //Set new index to the next;\r\n        asset[token].currentIndex = nextIndex;\r\n    }\r\n\r\n    function updateGoldPrice(uint128 price) external onlyAdmin {\r\n        uint8 index = goldPrice.currentIndex;\r\n        uint8 lastIndex;\r\n        uint8 nextIndex;\r\n        if(index == 0){\r\n            lastIndex = 23;\r\n        } else {\r\n            lastIndex = index-1;\r\n        }\r\n        uint lastPrice = goldPrice.avgPrice[lastIndex];\r\n\r\n        if(index == 23){\r\n            nextIndex = 0;\r\n        } else {\r\n            nextIndex = index+1;\r\n        }\r\n        //oldDeltaTime is the time 0 - time K\r\n        //newDeltaTime is the time n - time K\r\n        uint oldDeltaTime = goldPrice.timestamp[nextIndex]-goldPrice.timestamp[lastIndex]; // This need to be initialized prevent underflow\r\n        uint newDeltaTime = block.timestamp - goldPrice.timestamp[lastIndex];\r\n\r\n        //new AvgPrice is ( price*tk  +  price*tn  ) / tk+tn\r\n        uint newAvgPrice = ((oldDeltaTime*lastPrice) + (newDeltaTime*price)) / (newDeltaTime+oldDeltaTime);\r\n\r\n        if(newAvgPrice > type(uint128).max){\r\n            revert(\"Overflow\");\r\n        }\r\n        goldPrice.avgPrice[index] = uint128(newAvgPrice);\r\n        goldPrice.timestamp[index];\r\n\r\n        //Set new index to the next;\r\n        goldPrice.currentIndex = nextIndex;\r\n    }\r\n\r\n    function getGoldPrice() external view returns (uint){\r\n        uint8 index = goldPrice.currentIndex;\r\n        uint8 lastIndex;\r\n        if(index == 0){\r\n            lastIndex = 23;\r\n        } else {\r\n            lastIndex = index-1;\r\n        }\r\n        return uint(goldPrice.avgPrice[lastIndex]);\r\n    }\r\n    function getUnderlyingPrice(LendTokenInterface lendToken) external view returns (uint){\r\n        address underlying;\r\n        if(compareStrings(lendToken.symbol(), \"lendREI\")){\r\n            underlying = WREI;\r\n        } else {\r\n            underlying = lendToken.underlying();\r\n        }\r\n\r\n        //same as  assetPrices function\r\n        uint8 index = asset[underlying].currentIndex;\r\n        uint8 lastIndex;\r\n        if(index == 0){\r\n            lastIndex = 23;\r\n        } else {\r\n            lastIndex = index-1;\r\n        }\r\n        return uint(asset[underlying].avgPrice[lastIndex]);\r\n    }\r\n    //The latest price is where the lastIndex is.\r\n    function assetPrices(address token) external view returns (uint){\r\n        uint8 index = asset[token].currentIndex;\r\n        uint8 lastIndex;\r\n        if(index == 0){\r\n            lastIndex = 23;\r\n        } else {\r\n            lastIndex = index-1;\r\n        }\r\n        return uint(asset[token].avgPrice[lastIndex]);\r\n    }\r\n    \r\n    function compareStrings(string memory a, string memory b) internal pure returns (bool) {\r\n        return (keccak256(abi.encodePacked((a))) == keccak256(abi.encodePacked((b))));\r\n    }\r\n\r\n}",
  "sourcePath": "C:\\Users\\chana\\desktop\\aurumdefi\\src\\contracts\\AurumOracleCentralized.sol",
  "compiler": {
    "name": "solc",
    "version": "0.8.12+commit.f00d7308.Emscripten.clang"
  },
  "schemaVersion": "3.4.6",
  "updatedAt": "2022-04-01T14:03:29.738Z",
  "networkType": "ethereum",
  "devdoc": {
    "kind": "dev",
    "methods": {},
    "version": 1
  },
  "userdoc": {
    "kind": "user",
    "methods": {},
    "version": 1
  }
}