{
  "contractName": "AurumTreasury",
  "abi": [
    {
      "inputs": [
        {
          "internalType": "address",
          "name": "comptroller_",
          "type": "address"
        }
      ],
      "stateMutability": "nonpayable",
      "type": "constructor"
    },
    {
      "anonymous": false,
      "inputs": [
        {
          "indexed": false,
          "internalType": "address",
          "name": "oldDEXAddress",
          "type": "address"
        },
        {
          "indexed": false,
          "internalType": "address",
          "name": "newDEXAddress",
          "type": "address"
        }
      ],
      "name": "SetDecentralizedExchange",
      "type": "event"
    },
    {
      "anonymous": false,
      "inputs": [
        {
          "indexed": false,
          "internalType": "uint256",
          "name": "oldDistributionRatio",
          "type": "uint256"
        },
        {
          "indexed": false,
          "internalType": "uint256",
          "name": "newDistributionRatio",
          "type": "uint256"
        }
      ],
      "name": "SetDistributionRatio",
      "type": "event"
    },
    {
      "inputs": [],
      "name": "admin",
      "outputs": [
        {
          "internalType": "address",
          "name": "",
          "type": "address"
        }
      ],
      "stateMutability": "view",
      "type": "function"
    },
    {
      "inputs": [],
      "name": "comptroller",
      "outputs": [
        {
          "internalType": "contract Comptroller",
          "name": "",
          "type": "address"
        }
      ],
      "stateMutability": "view",
      "type": "function"
    },
    {
      "inputs": [],
      "name": "redistributionRatio",
      "outputs": [
        {
          "internalType": "uint256",
          "name": "",
          "type": "uint256"
        }
      ],
      "stateMutability": "view",
      "type": "function"
    },
    {
      "inputs": [],
      "name": "uniswapV2Router",
      "outputs": [
        {
          "internalType": "address",
          "name": "",
          "type": "address"
        }
      ],
      "stateMutability": "view",
      "type": "function"
    },
    {
      "inputs": [],
      "name": "vaultRatio",
      "outputs": [
        {
          "internalType": "uint256",
          "name": "",
          "type": "uint256"
        }
      ],
      "stateMutability": "view",
      "type": "function"
    },
    {
      "inputs": [],
      "name": "distribute",
      "outputs": [],
      "stateMutability": "nonpayable",
      "type": "function"
    },
    {
      "inputs": [
        {
          "internalType": "uint256",
          "name": "newDistributionRatio",
          "type": "uint256"
        }
      ],
      "name": "_setDistributionRatio",
      "outputs": [],
      "stateMutability": "nonpayable",
      "type": "function"
    },
    {
      "inputs": [
        {
          "internalType": "address",
          "name": "newDEXAddress",
          "type": "address"
        }
      ],
      "name": "_setDEXRouterAddress",
      "outputs": [],
      "stateMutability": "nonpayable",
      "type": "function"
    }
  ],
  "bytecode": "0x60806040523480156200001157600080fd5b50604051620011fe380380620011fe833981810160405281019062000037919062000147565b33600260006101000a81548173ffffffffffffffffffffffffffffffffffffffff021916908373ffffffffffffffffffffffffffffffffffffffff1602179055506706f05b59d3b200006003819055506706f05b59d3b20000600481905550806000806101000a81548173ffffffffffffffffffffffffffffffffffffffff021916908373ffffffffffffffffffffffffffffffffffffffff1602179055505062000179565b600080fd5b600073ffffffffffffffffffffffffffffffffffffffff82169050919050565b60006200010f82620000e2565b9050919050565b620001218162000102565b81146200012d57600080fd5b50565b600081519050620001418162000116565b92915050565b60006020828403121562000160576200015f620000dd565b5b6000620001708482850162000130565b91505092915050565b61107580620001896000396000f3fe608060405234801561001057600080fd5b50600436106100885760003560e01c8063c56ac8921161005b578063c56ac89214610101578063d8b8bc291461011f578063e4fc6b6d1461013d578063f851a4401461014757610088565b80631694505e1461008d5780635fe3b567146100ab578063833dddcf146100c95780639685a466146100e5575b600080fd5b610095610165565b6040516100a29190610829565b60405180910390f35b6100b361018b565b6040516100c091906108a3565b60405180910390f35b6100e360048036038101906100de9190610908565b6101af565b005b6100ff60048036038101906100fa9190610961565b61028a565b005b6101096103bf565b604051610116919061099d565b60405180910390f35b6101276103c5565b604051610134919061099d565b60405180910390f35b6101456103cb565b005b61014f610660565b60405161015c9190610829565b60405180910390f35b600160009054906101000a900473ffffffffffffffffffffffffffffffffffffffff1681565b60008054906101000a900473ffffffffffffffffffffffffffffffffffffffff1681565b600260009054906101000a900473ffffffffffffffffffffffffffffffffffffffff1673ffffffffffffffffffffffffffffffffffffffff163373ffffffffffffffffffffffffffffffffffffffff161461023f576040517f08c379a000000000000000000000000000000000000000000000000000000000815260040161023690610a15565b60405180910390fd5b60006003549050816003819055507f98e69b0b49000211039a89e12a05ecf57b3faa19cfe2cedbd3a518c39b8b2d9d818360405161027e929190610a35565b60405180910390a15050565b600260009054906101000a900473ffffffffffffffffffffffffffffffffffffffff1673ffffffffffffffffffffffffffffffffffffffff163373ffffffffffffffffffffffffffffffffffffffff161461031a576040517f08c379a000000000000000000000000000000000000000000000000000000000815260040161031190610a15565b60405180910390fd5b6000600160009054906101000a900473ffffffffffffffffffffffffffffffffffffffff16905081600160006101000a81548173ffffffffffffffffffffffffffffffffffffffff021916908373ffffffffffffffffffffffffffffffffffffffff1602179055507f0c7e51bbbd299fb1c5bb2b1e61c919231e73bc7cc89b10cb7fc2f850c0b94b5081836040516103b3929190610a5e565b60405180910390a15050565b60035481565b60045481565b60006103d5610686565b90506000806000600354905060006004549050670de0b6b3a764000081836103fd9190610ab6565b1461043d576040517f08c379a000000000000000000000000000000000000000000000000000000000815260040161043490610b58565b60405180910390fd5b600093505b84518410156106595761051785858151811061046157610460610b78565b5b602002602001015173ffffffffffffffffffffffffffffffffffffffff166395d89b416040518163ffffffff1660e01b8152600401600060405180830381865afa1580156104b3573d6000803e3d6000fd5b505050506040513d6000823e3d601f19601f820116820180604052508101906104dc9190610d11565b6040518060400160405280600781526020017f6c656e645265690000000000000000000000000000000000000000000000000081525061078f565b1561053b573073ffffffffffffffffffffffffffffffffffffffff16319250610646565b60008585815181106105505761054f610b78565b5b602002602001015173ffffffffffffffffffffffffffffffffffffffff16636f307dc36040518163ffffffff1660e01b8152600401602060405180830381865afa1580156105a2573d6000803e3d6000fd5b505050506040513d601f19601f820116820180604052508101906105c69190610d6f565b90508073ffffffffffffffffffffffffffffffffffffffff166370a08231306040518263ffffffff1660e01b81526004016106019190610829565b602060405180830381865afa15801561061e573d6000803e3d6000fd5b505050506040513d601f19601f820116820180604052508101906106429190610db1565b9350505b838061065190610dde565b945050610442565b5050505050565b600260009054906101000a900473ffffffffffffffffffffffffffffffffffffffff1681565b606060008054906101000a900473ffffffffffffffffffffffffffffffffffffffff1673ffffffffffffffffffffffffffffffffffffffff1663bd378e8e6040518163ffffffff1660e01b8152600401602060405180830381865afa1580156106f3573d6000803e3d6000fd5b505050506040513d601f19601f820116820180604052508101906107179190610e65565b73ffffffffffffffffffffffffffffffffffffffff1663b0772d0b6040518163ffffffff1660e01b8152600401600060405180830381865afa158015610761573d6000803e3d6000fd5b505050506040513d6000823e3d601f19601f8201168201806040525081019061078a9190610f98565b905090565b6000816040516020016107a29190611028565b60405160208183030381529060405280519060200120836040516020016107c99190611028565b6040516020818303038152906040528051906020012014905092915050565b600073ffffffffffffffffffffffffffffffffffffffff82169050919050565b6000610813826107e8565b9050919050565b61082381610808565b82525050565b600060208201905061083e600083018461081a565b92915050565b6000819050919050565b600061086961086461085f846107e8565b610844565b6107e8565b9050919050565b600061087b8261084e565b9050919050565b600061088d82610870565b9050919050565b61089d81610882565b82525050565b60006020820190506108b86000830184610894565b92915050565b6000604051905090565b600080fd5b600080fd5b6000819050919050565b6108e5816108d2565b81146108f057600080fd5b50565b600081359050610902816108dc565b92915050565b60006020828403121561091e5761091d6108c8565b5b600061092c848285016108f3565b91505092915050565b61093e81610808565b811461094957600080fd5b50565b60008135905061095b81610935565b92915050565b600060208284031215610977576109766108c8565b5b60006109858482850161094c565b91505092915050565b610997816108d2565b82525050565b60006020820190506109b2600083018461098e565b92915050565b600082825260208201905092915050565b7f4f6e6c7941646d696e0000000000000000000000000000000000000000000000600082015250565b60006109ff6009836109b8565b9150610a0a826109c9565b602082019050919050565b60006020820190508181036000830152610a2e816109f2565b9050919050565b6000604082019050610a4a600083018561098e565b610a57602083018461098e565b9392505050565b6000604082019050610a73600083018561081a565b610a80602083018461081a565b9392505050565b7f4e487b7100000000000000000000000000000000000000000000000000000000600052601160045260246000fd5b6000610ac1826108d2565b9150610acc836108d2565b9250827fffffffffffffffffffffffffffffffffffffffffffffffffffffffffffffffff03821115610b0157610b00610a87565b5b828201905092915050565b7f446973747269627574696f6e20526174696f206d69736d617463680000000000600082015250565b6000610b42601b836109b8565b9150610b4d82610b0c565b602082019050919050565b60006020820190508181036000830152610b7181610b35565b9050919050565b7f4e487b7100000000000000000000000000000000000000000000000000000000600052603260045260246000fd5b600080fd5b600080fd5b6000601f19601f8301169050919050565b7f4e487b7100000000000000000000000000000000000000000000000000000000600052604160045260246000fd5b610bfa82610bb1565b810181811067ffffffffffffffff82111715610c1957610c18610bc2565b5b80604052505050565b6000610c2c6108be565b9050610c388282610bf1565b919050565b600067ffffffffffffffff821115610c5857610c57610bc2565b5b610c6182610bb1565b9050602081019050919050565b60005b83811015610c8c578082015181840152602081019050610c71565b83811115610c9b576000848401525b50505050565b6000610cb4610caf84610c3d565b610c22565b905082815260208101848484011115610cd057610ccf610bac565b5b610cdb848285610c6e565b509392505050565b600082601f830112610cf857610cf7610ba7565b5b8151610d08848260208601610ca1565b91505092915050565b600060208284031215610d2757610d266108c8565b5b600082015167ffffffffffffffff811115610d4557610d446108cd565b5b610d5184828501610ce3565b91505092915050565b600081519050610d6981610935565b92915050565b600060208284031215610d8557610d846108c8565b5b6000610d9384828501610d5a565b91505092915050565b600081519050610dab816108dc565b92915050565b600060208284031215610dc757610dc66108c8565b5b6000610dd584828501610d9c565b91505092915050565b6000610de9826108d2565b91507fffffffffffffffffffffffffffffffffffffffffffffffffffffffffffffffff821415610e1c57610e1b610a87565b5b600182019050919050565b6000610e3282610808565b9050919050565b610e4281610e27565b8114610e4d57600080fd5b50565b600081519050610e5f81610e39565b92915050565b600060208284031215610e7b57610e7a6108c8565b5b6000610e8984828501610e50565b91505092915050565b600067ffffffffffffffff821115610ead57610eac610bc2565b5b602082029050602081019050919050565b600080fd5b6000610ece82610808565b9050919050565b610ede81610ec3565b8114610ee957600080fd5b50565b600081519050610efb81610ed5565b92915050565b6000610f14610f0f84610e92565b610c22565b90508083825260208201905060208402830185811115610f3757610f36610ebe565b5b835b81811015610f605780610f4c8882610eec565b845260208401935050602081019050610f39565b5050509392505050565b600082601f830112610f7f57610f7e610ba7565b5b8151610f8f848260208601610f01565b91505092915050565b600060208284031215610fae57610fad6108c8565b5b600082015167ffffffffffffffff811115610fcc57610fcb6108cd565b5b610fd884828501610f6a565b91505092915050565b600081519050919050565b600081905092915050565b600061100282610fe1565b61100c8185610fec565b935061101c818560208601610c6e565b80840191505092915050565b60006110348284610ff7565b91508190509291505056fea2646970667358221220eaa095ca5a0b2f9176231826bd77899582bfc0148c84f4efce63a21f48a9ed4b64736f6c634300080c0033",
  "immutableReferences": {},
  "source": "// SPDX-License-Identifier: MIT\r\npragma solidity ^0.8.0;\r\n\r\nimport './Comptroller.sol';\r\nimport './interface/UniswapInterface.sol';\r\n\r\ncontract AurumTreasury {\r\n    // This is the treasury of Aurum DeFi\r\n    // This contract will receive tokens fee 'when users withdraw tokens' => receive those tokens, 'minting AURUM' => receive those AURUM\r\n\r\n    Comptroller public comptroller;\r\n    address public uniswapV2Router;  //SET the DEX to use SwapExactTokensForTokens function\r\n\r\n    address public admin;\r\n    // address[] allMarkets;   //All the markets use function get allMarkets instead\r\n\r\n    uint public redistributionRatio; // store in % e18\r\n    uint public vaultRatio;\r\n\r\n    bool locked;\r\n\r\n    constructor(address comptroller_) {\r\n        admin = msg.sender;\r\n        redistributionRatio = 0.5e18;   // default 50%\r\n        vaultRatio = 0.5e18;            // default 50%\r\n        comptroller = Comptroller(comptroller_); // can get the verified markets by using comptroller getAllMarkets\r\n    }\r\n\r\n    modifier onlyAdmin {\r\n        require(msg.sender == admin, \"OnlyAdmin\");\r\n        _;\r\n    }\r\n    modifier noReentrance {\r\n        require(!locked,\"No reentrance\");\r\n        locked = true;\r\n        _;\r\n        locked = false;\r\n\r\n    }\r\n\r\n    event SetDistributionRatio(uint oldDistributionRatio, uint newDistributionRatio);\r\n    event SetDecentralizedExchange(address oldDEXAddress, address newDEXAddress);\r\n\r\n    function getAllMarkets() internal view returns (LendTokenInterface[] memory){\r\n        return comptroller.compStorage().getAllMarkets();\r\n    }\r\n\r\n    //This function will set allowance of the 'contract' to 'lendToken contract' max UINT\r\n    // When function 'mint' of LendToken is activate, the transferFrom() function will be able to run\r\n    // LendREI no need for approve\r\n    function approveDeposit(LendTokenInterface lendToken) internal {\r\n        lendToken.approve(address(lendToken), type(uint).max);\r\n    }\r\n\r\n    //staking Asset will deposit the tokens in treasury to the vault to increase self liquidity\r\n    function stakingAsset(LendTokenInterface lendToken, uint amount) internal {\r\n        uint allowance = lendToken.allowance(address(this), address(lendToken));\r\n        if(allowance < amount){\r\n            approveDeposit(lendToken);\r\n        }\r\n    }\r\n\r\n    function swapTokens(ERC20 tokenA, ERC20 tokenB, uint amountIn) internal{\r\n        IUniswapV2Router uniswapRouter = IUniswapV2Router(uniswapV2Router);\r\n        PriceOracle oracle = PriceOracle(comptroller.getComptrollerOracleAddress());\r\n        // A * priceA  = B * priceB\r\n        // Using price oracle to prevent sandwich attack\r\n        uint priceA = oracle.assetPrices(address(tokenA));\r\n        uint priceB = oracle.assetPrices(address(tokenB));\r\n    }\r\n\r\n    function swapETHtoTokens(ERC20 token, uint amountIn) internal {\r\n\r\n    }\r\n    //This function will compare string a and b, return TRUE if both are the same.\r\n    function compareStrings(string memory a, string memory b) internal pure returns (bool) {\r\n        return (keccak256(abi.encodePacked((a))) == keccak256(abi.encodePacked((b))));\r\n    }\r\n\r\n    // this is the core function for get everyfunction running\r\n    // this function let anyone to activate distribution of reward\r\n    // the distributionRatio only admin can set\r\n    function distribute() external {\r\n        LendTokenInterface[] memory allMarkets = getAllMarkets();\r\n        uint i;\r\n        uint balance;\r\n        uint localRedistributionRatio = redistributionRatio;\r\n        uint localVaultRatio = vaultRatio;\r\n        require((localRedistributionRatio + localVaultRatio) == 1e18, \"Distribution Ratio mismatch\");\r\n\r\n        for (i=0; i< allMarkets.length; i++) {\r\n            if(compareStrings(allMarkets[i].symbol(), \"lendRei\")) {\r\n                // LendREI token  underlying = REI\r\n                balance = payable(address(this)).balance;\r\n                \r\n            } else {\r\n                ERC20 underlying = ERC20(allMarkets[i].underlying());\r\n                balance = underlying.balanceOf(address(this));\r\n            }\r\n        }\r\n    }\r\n\r\n    function _setDistributionRatio(uint newDistributionRatio) external onlyAdmin{\r\n        uint oldDistributionRatio = redistributionRatio;\r\n        redistributionRatio = newDistributionRatio;\r\n\r\n        emit SetDistributionRatio(oldDistributionRatio, newDistributionRatio);\r\n    }\r\n\r\n    function _setDEXRouterAddress(address newDEXAddress) external onlyAdmin{\r\n        address oldDEXAddress = uniswapV2Router;\r\n        uniswapV2Router = newDEXAddress;\r\n\r\n        emit SetDecentralizedExchange(oldDEXAddress, newDEXAddress);\r\n    }\r\n}",
  "sourcePath": "C:\\Users\\chana\\desktop\\aurumdefi\\src\\contracts\\AurumTreasury.sol",
  "compiler": {
    "name": "solc",
    "version": "0.8.12+commit.f00d7308.Emscripten.clang"
  },
  "schemaVersion": "3.4.6",
  "updatedAt": "2022-03-26T12:16:34.139Z",
  "devdoc": {
    "kind": "dev",
    "methods": {},
    "version": 1
  },
  "userdoc": {
    "kind": "user",
    "methods": {},
    "version": 1
  }
}