{
  "contractName": "AurumTreasury",
  "abi": [
    {
      "inputs": [
        {
          "internalType": "address",
          "name": "comptroller_",
          "type": "address"
        },
        {
          "internalType": "address",
          "name": "uniswapV2Router_",
          "type": "address"
        },
        {
          "internalType": "address",
          "name": "wREI_",
          "type": "address"
        }
      ],
      "stateMutability": "nonpayable",
      "type": "constructor"
    },
    {
      "anonymous": false,
      "inputs": [
        {
          "indexed": false,
          "internalType": "address",
          "name": "oldDEXAddress",
          "type": "address"
        },
        {
          "indexed": false,
          "internalType": "address",
          "name": "newDEXAddress",
          "type": "address"
        }
      ],
      "name": "SetDecentralizedExchange",
      "type": "event"
    },
    {
      "anonymous": false,
      "inputs": [
        {
          "indexed": false,
          "internalType": "uint256",
          "name": "oldDistributionRatio",
          "type": "uint256"
        },
        {
          "indexed": false,
          "internalType": "uint256",
          "name": "newDistributionRatio",
          "type": "uint256"
        }
      ],
      "name": "SetDistributionRatio",
      "type": "event"
    },
    {
      "anonymous": false,
      "inputs": [
        {
          "indexed": false,
          "internalType": "address",
          "name": "oldWrappedREI",
          "type": "address"
        },
        {
          "indexed": false,
          "internalType": "address",
          "name": "newWrappedREI",
          "type": "address"
        }
      ],
      "name": "SetWrappedREIAddress",
      "type": "event"
    },
    {
      "inputs": [],
      "name": "admin",
      "outputs": [
        {
          "internalType": "address",
          "name": "",
          "type": "address"
        }
      ],
      "stateMutability": "view",
      "type": "function"
    },
    {
      "inputs": [],
      "name": "comptroller",
      "outputs": [
        {
          "internalType": "contract Comptroller",
          "name": "",
          "type": "address"
        }
      ],
      "stateMutability": "view",
      "type": "function"
    },
    {
      "inputs": [],
      "name": "redistributionRatio",
      "outputs": [
        {
          "internalType": "uint256",
          "name": "",
          "type": "uint256"
        }
      ],
      "stateMutability": "view",
      "type": "function"
    },
    {
      "inputs": [],
      "name": "uniswapV2Router",
      "outputs": [
        {
          "internalType": "address",
          "name": "",
          "type": "address"
        }
      ],
      "stateMutability": "view",
      "type": "function"
    },
    {
      "inputs": [],
      "name": "vaultRatio",
      "outputs": [
        {
          "internalType": "uint256",
          "name": "",
          "type": "uint256"
        }
      ],
      "stateMutability": "view",
      "type": "function"
    },
    {
      "inputs": [],
      "name": "distribute",
      "outputs": [],
      "stateMutability": "nonpayable",
      "type": "function"
    },
    {
      "inputs": [
        {
          "internalType": "uint256",
          "name": "newDistributionRatio",
          "type": "uint256"
        }
      ],
      "name": "_setDistributionRatio",
      "outputs": [],
      "stateMutability": "nonpayable",
      "type": "function"
    },
    {
      "inputs": [
        {
          "internalType": "address",
          "name": "newDEXAddress",
          "type": "address"
        }
      ],
      "name": "_setDEXRouterAddress",
      "outputs": [],
      "stateMutability": "nonpayable",
      "type": "function"
    },
    {
      "inputs": [
        {
          "internalType": "address",
          "name": "newWREI",
          "type": "address"
        }
      ],
      "name": "_setWrappedREIAddress",
      "outputs": [],
      "stateMutability": "nonpayable",
      "type": "function"
    }
  ],
  "bytecode": "0x60806040523480156200001157600080fd5b5060405162001408380380620014088339818101604052810190620000379190620001cb565b33600360006101000a81548173ffffffffffffffffffffffffffffffffffffffff021916908373ffffffffffffffffffffffffffffffffffffffff16021790555080600260006101000a81548173ffffffffffffffffffffffffffffffffffffffff021916908373ffffffffffffffffffffffffffffffffffffffff16021790555081600160006101000a81548173ffffffffffffffffffffffffffffffffffffffff021916908373ffffffffffffffffffffffffffffffffffffffff1602179055506706f05b59d3b200006004819055506706f05b59d3b20000600581905550826000806101000a81548173ffffffffffffffffffffffffffffffffffffffff021916908373ffffffffffffffffffffffffffffffffffffffff16021790555050505062000227565b600080fd5b600073ffffffffffffffffffffffffffffffffffffffff82169050919050565b6000620001938262000166565b9050919050565b620001a58162000186565b8114620001b157600080fd5b50565b600081519050620001c5816200019a565b92915050565b600080600060608486031215620001e757620001e662000161565b5b6000620001f786828701620001b4565b93505060206200020a86828701620001b4565b92505060406200021d86828701620001b4565b9150509250925092565b6111d180620002376000396000f3fe608060405234801561001057600080fd5b50600436106100935760003560e01c8063c56ac89211610066578063c56ac8921461010c578063d8b8bc291461012a578063e4fc6b6d14610148578063e785ed9514610152578063f851a4401461016e57610093565b80631694505e146100985780635fe3b567146100b6578063833dddcf146100d45780639685a466146100f0575b600080fd5b6100a061018c565b6040516100ad9190610985565b60405180910390f35b6100be6101b2565b6040516100cb91906109ff565b60405180910390f35b6100ee60048036038101906100e99190610a64565b6101d6565b005b61010a60048036038101906101059190610abd565b6102b1565b005b6101146103e6565b6040516101219190610af9565b60405180910390f35b6101326103ec565b60405161013f9190610af9565b60405180910390f35b6101506103f2565b005b61016c60048036038101906101679190610abd565b610687565b005b6101766107bc565b6040516101839190610985565b60405180910390f35b600160009054906101000a900473ffffffffffffffffffffffffffffffffffffffff1681565b60008054906101000a900473ffffffffffffffffffffffffffffffffffffffff1681565b600360009054906101000a900473ffffffffffffffffffffffffffffffffffffffff1673ffffffffffffffffffffffffffffffffffffffff163373ffffffffffffffffffffffffffffffffffffffff1614610266576040517f08c379a000000000000000000000000000000000000000000000000000000000815260040161025d90610b71565b60405180910390fd5b60006004549050816004819055507f98e69b0b49000211039a89e12a05ecf57b3faa19cfe2cedbd3a518c39b8b2d9d81836040516102a5929190610b91565b60405180910390a15050565b600360009054906101000a900473ffffffffffffffffffffffffffffffffffffffff1673ffffffffffffffffffffffffffffffffffffffff163373ffffffffffffffffffffffffffffffffffffffff1614610341576040517f08c379a000000000000000000000000000000000000000000000000000000000815260040161033890610b71565b60405180910390fd5b6000600160009054906101000a900473ffffffffffffffffffffffffffffffffffffffff16905081600160006101000a81548173ffffffffffffffffffffffffffffffffffffffff021916908373ffffffffffffffffffffffffffffffffffffffff1602179055507f0c7e51bbbd299fb1c5bb2b1e61c919231e73bc7cc89b10cb7fc2f850c0b94b5081836040516103da929190610bba565b60405180910390a15050565b60045481565b60055481565b60006103fc6107e2565b90506000806000600454905060006005549050670de0b6b3a764000081836104249190610c12565b14610464576040517f08c379a000000000000000000000000000000000000000000000000000000000815260040161045b90610cb4565b60405180910390fd5b600093505b84518410156106805761053e85858151811061048857610487610cd4565b5b602002602001015173ffffffffffffffffffffffffffffffffffffffff166395d89b416040518163ffffffff1660e01b8152600401600060405180830381865afa1580156104da573d6000803e3d6000fd5b505050506040513d6000823e3d601f19601f820116820180604052508101906105039190610e6d565b6040518060400160405280600781526020017f6c656e64526569000000000000000000000000000000000000000000000000008152506108eb565b15610562573073ffffffffffffffffffffffffffffffffffffffff1631925061066d565b600085858151811061057757610576610cd4565b5b602002602001015173ffffffffffffffffffffffffffffffffffffffff16636f307dc36040518163ffffffff1660e01b8152600401602060405180830381865afa1580156105c9573d6000803e3d6000fd5b505050506040513d601f19601f820116820180604052508101906105ed9190610ecb565b90508073ffffffffffffffffffffffffffffffffffffffff166370a08231306040518263ffffffff1660e01b81526004016106289190610985565b602060405180830381865afa158015610645573d6000803e3d6000fd5b505050506040513d601f19601f820116820180604052508101906106699190610f0d565b9350505b838061067890610f3a565b945050610469565b5050505050565b600360009054906101000a900473ffffffffffffffffffffffffffffffffffffffff1673ffffffffffffffffffffffffffffffffffffffff163373ffffffffffffffffffffffffffffffffffffffff1614610717576040517f08c379a000000000000000000000000000000000000000000000000000000000815260040161070e90610b71565b60405180910390fd5b6000600260009054906101000a900473ffffffffffffffffffffffffffffffffffffffff16905081600260006101000a81548173ffffffffffffffffffffffffffffffffffffffff021916908373ffffffffffffffffffffffffffffffffffffffff1602179055507f1421b21a5203f9c6419242b18ea7f33e7e1717c341a4cd09afe690090669af8f81836040516107b0929190610bba565b60405180910390a15050565b600360009054906101000a900473ffffffffffffffffffffffffffffffffffffffff1681565b606060008054906101000a900473ffffffffffffffffffffffffffffffffffffffff1673ffffffffffffffffffffffffffffffffffffffff1663bd378e8e6040518163ffffffff1660e01b8152600401602060405180830381865afa15801561084f573d6000803e3d6000fd5b505050506040513d601f19601f820116820180604052508101906108739190610fc1565b73ffffffffffffffffffffffffffffffffffffffff1663b0772d0b6040518163ffffffff1660e01b8152600401600060405180830381865afa1580156108bd573d6000803e3d6000fd5b505050506040513d6000823e3d601f19601f820116820180604052508101906108e691906110f4565b905090565b6000816040516020016108fe9190611184565b60405160208183030381529060405280519060200120836040516020016109259190611184565b6040516020818303038152906040528051906020012014905092915050565b600073ffffffffffffffffffffffffffffffffffffffff82169050919050565b600061096f82610944565b9050919050565b61097f81610964565b82525050565b600060208201905061099a6000830184610976565b92915050565b6000819050919050565b60006109c56109c06109bb84610944565b6109a0565b610944565b9050919050565b60006109d7826109aa565b9050919050565b60006109e9826109cc565b9050919050565b6109f9816109de565b82525050565b6000602082019050610a1460008301846109f0565b92915050565b6000604051905090565b600080fd5b600080fd5b6000819050919050565b610a4181610a2e565b8114610a4c57600080fd5b50565b600081359050610a5e81610a38565b92915050565b600060208284031215610a7a57610a79610a24565b5b6000610a8884828501610a4f565b91505092915050565b610a9a81610964565b8114610aa557600080fd5b50565b600081359050610ab781610a91565b92915050565b600060208284031215610ad357610ad2610a24565b5b6000610ae184828501610aa8565b91505092915050565b610af381610a2e565b82525050565b6000602082019050610b0e6000830184610aea565b92915050565b600082825260208201905092915050565b7f4f6e6c7941646d696e0000000000000000000000000000000000000000000000600082015250565b6000610b5b600983610b14565b9150610b6682610b25565b602082019050919050565b60006020820190508181036000830152610b8a81610b4e565b9050919050565b6000604082019050610ba66000830185610aea565b610bb36020830184610aea565b9392505050565b6000604082019050610bcf6000830185610976565b610bdc6020830184610976565b9392505050565b7f4e487b7100000000000000000000000000000000000000000000000000000000600052601160045260246000fd5b6000610c1d82610a2e565b9150610c2883610a2e565b9250827fffffffffffffffffffffffffffffffffffffffffffffffffffffffffffffffff03821115610c5d57610c5c610be3565b5b828201905092915050565b7f446973747269627574696f6e20526174696f206d69736d617463680000000000600082015250565b6000610c9e601b83610b14565b9150610ca982610c68565b602082019050919050565b60006020820190508181036000830152610ccd81610c91565b9050919050565b7f4e487b7100000000000000000000000000000000000000000000000000000000600052603260045260246000fd5b600080fd5b600080fd5b6000601f19601f8301169050919050565b7f4e487b7100000000000000000000000000000000000000000000000000000000600052604160045260246000fd5b610d5682610d0d565b810181811067ffffffffffffffff82111715610d7557610d74610d1e565b5b80604052505050565b6000610d88610a1a565b9050610d948282610d4d565b919050565b600067ffffffffffffffff821115610db457610db3610d1e565b5b610dbd82610d0d565b9050602081019050919050565b60005b83811015610de8578082015181840152602081019050610dcd565b83811115610df7576000848401525b50505050565b6000610e10610e0b84610d99565b610d7e565b905082815260208101848484011115610e2c57610e2b610d08565b5b610e37848285610dca565b509392505050565b600082601f830112610e5457610e53610d03565b5b8151610e64848260208601610dfd565b91505092915050565b600060208284031215610e8357610e82610a24565b5b600082015167ffffffffffffffff811115610ea157610ea0610a29565b5b610ead84828501610e3f565b91505092915050565b600081519050610ec581610a91565b92915050565b600060208284031215610ee157610ee0610a24565b5b6000610eef84828501610eb6565b91505092915050565b600081519050610f0781610a38565b92915050565b600060208284031215610f2357610f22610a24565b5b6000610f3184828501610ef8565b91505092915050565b6000610f4582610a2e565b91507fffffffffffffffffffffffffffffffffffffffffffffffffffffffffffffffff821415610f7857610f77610be3565b5b600182019050919050565b6000610f8e82610964565b9050919050565b610f9e81610f83565b8114610fa957600080fd5b50565b600081519050610fbb81610f95565b92915050565b600060208284031215610fd757610fd6610a24565b5b6000610fe584828501610fac565b91505092915050565b600067ffffffffffffffff82111561100957611008610d1e565b5b602082029050602081019050919050565b600080fd5b600061102a82610964565b9050919050565b61103a8161101f565b811461104557600080fd5b50565b60008151905061105781611031565b92915050565b600061107061106b84610fee565b610d7e565b905080838252602082019050602084028301858111156110935761109261101a565b5b835b818110156110bc57806110a88882611048565b845260208401935050602081019050611095565b5050509392505050565b600082601f8301126110db576110da610d03565b5b81516110eb84826020860161105d565b91505092915050565b60006020828403121561110a57611109610a24565b5b600082015167ffffffffffffffff81111561112857611127610a29565b5b611134848285016110c6565b91505092915050565b600081519050919050565b600081905092915050565b600061115e8261113d565b6111688185611148565b9350611178818560208601610dca565b80840191505092915050565b60006111908284611153565b91508190509291505056fea2646970667358221220ae1809cde6f0782a18ca37547d91d9d0c102524bad355d0732c24108f8ffafa264736f6c634300080c0033",
  "immutableReferences": {},
  "source": "// SPDX-License-Identifier: MIT\r\npragma solidity ^0.8.0;\r\n\r\nimport './Comptroller.sol';\r\nimport './interface/UniswapInterface.sol';\r\n\r\ncontract AurumTreasury {\r\n    // This is the treasury of Aurum DeFi\r\n    // This contract will receive tokens fee 'when users withdraw tokens' => receive those tokens, 'minting AURUM' => receive those AURUM\r\n\r\n    Comptroller public comptroller;\r\n    address public uniswapV2Router;  //SET the DEX to use SwapExactTokensForTokens function\r\n\r\n    address private wREI;\r\n\r\n    address public admin;\r\n    // address[] allMarkets;   //All the markets use function get allMarkets instead\r\n\r\n    uint public redistributionRatio; // store in % e18\r\n    uint public vaultRatio;\r\n\r\n    bool locked;\r\n\r\n    constructor(address comptroller_, address uniswapV2Router_, address wREI_) {\r\n        admin = msg.sender;\r\n\r\n        wREI = wREI_;\r\n        uniswapV2Router = uniswapV2Router_;\r\n        redistributionRatio = 0.5e18;   // default 50%\r\n        vaultRatio = 0.5e18;            // default 50%\r\n        comptroller = Comptroller(comptroller_); // can get the verified markets by using comptroller getAllMarkets\r\n    }\r\n\r\n    modifier onlyAdmin {\r\n        require(msg.sender == admin, \"OnlyAdmin\");\r\n        _;\r\n    }\r\n    modifier noReentrance {\r\n        require(!locked,\"No reentrance\");\r\n        locked = true;\r\n        _;\r\n        locked = false;\r\n\r\n    }\r\n\r\n    event SetDistributionRatio(uint oldDistributionRatio, uint newDistributionRatio);\r\n    event SetDecentralizedExchange(address oldDEXAddress, address newDEXAddress);\r\n    event SetWrappedREIAddress(address oldWrappedREI, address newWrappedREI);\r\n\r\n    function getAllMarkets() internal view returns (LendTokenInterface[] memory){\r\n        return comptroller.compStorage().getAllMarkets();\r\n    }\r\n\r\n    //This function will set allowance of the 'contract' to 'lendToken contract' max UINT\r\n    // When function 'mint' of LendToken is activate, the transferFrom() function will be able to run\r\n    // LendREI no need for approve\r\n    function approveDeposit(LendTokenInterface lendToken) internal {\r\n        lendToken.approve(address(lendToken), type(uint).max);\r\n    }\r\n\r\n    //staking Asset will deposit the tokens in treasury to the vault to increase self liquidity\r\n    function stakingAsset(LendTokenInterface lendToken, uint amount) internal {\r\n        uint allowance = lendToken.allowance(address(this), address(lendToken));\r\n        if(allowance < amount){\r\n            approveDeposit(lendToken);\r\n        }\r\n    }\r\n\r\n    function swapTokens(ERC20 tokenA, ERC20 tokenB, uint amountIn) internal{\r\n        IUniswapV2Router uniswapRouter = IUniswapV2Router(uniswapV2Router);\r\n\r\n\r\n        //path parameters for UNISWAP v.2\r\n        address[] memory path;\r\n        path = new address[](3);\r\n        path[0] = address(tokenA);\r\n        path[1] = wREI; //medium of exchange in UNISWAP (WETH)\r\n        path[2] = address(tokenB);\r\n\r\n        //Approve tokenA to Router\r\n        tokenA.approve(address(uniswapRouter), amountIn);\r\n\r\n        //Calculate amount Out\r\n        uint amountOutMin;\r\n\r\n        uniswapRouter.swapExactTokensForTokens(\r\n            amountIn,\r\n            amountOutMin,\r\n            path,\r\n            address(this),\r\n            block.timestamp\r\n        );\r\n    }\r\n\r\n    function wrapREI(uint amountIn) internal {\r\n        payable(wREI).transfer(amountIn);\r\n    }\r\n    //This function will compare string a and b, return TRUE if both are the same.\r\n    function compareStrings(string memory a, string memory b) internal pure returns (bool) {\r\n        return (keccak256(abi.encodePacked((a))) == keccak256(abi.encodePacked((b))));\r\n    }\r\n\r\n    // this is the core function for get everyfunction running\r\n    // this function let anyone to activate distribution of reward\r\n    // the distributionRatio only admin can set\r\n    function distribute() external {\r\n        LendTokenInterface[] memory allMarkets = getAllMarkets();\r\n        uint i;\r\n        uint balance;\r\n        uint localRedistributionRatio = redistributionRatio;\r\n        uint localVaultRatio = vaultRatio;\r\n        require((localRedistributionRatio + localVaultRatio) == 1e18, \"Distribution Ratio mismatch\");\r\n\r\n        for (i=0; i< allMarkets.length; i++) {\r\n            if(compareStrings(allMarkets[i].symbol(), \"lendRei\")) {\r\n                // LendREI token  underlying = REI\r\n                balance = payable(address(this)).balance;\r\n                \r\n            } else {\r\n                ERC20 underlying = ERC20(allMarkets[i].underlying());\r\n                balance = underlying.balanceOf(address(this));\r\n            }\r\n        }\r\n    }\r\n\r\n    function _setDistributionRatio(uint newDistributionRatio) external onlyAdmin{\r\n        uint oldDistributionRatio = redistributionRatio;\r\n        redistributionRatio = newDistributionRatio;\r\n\r\n        emit SetDistributionRatio(oldDistributionRatio, newDistributionRatio);\r\n    }\r\n\r\n    function _setDEXRouterAddress(address newDEXAddress) external onlyAdmin{\r\n        address oldDEXAddress = uniswapV2Router;\r\n        uniswapV2Router = newDEXAddress;\r\n\r\n        emit SetDecentralizedExchange(oldDEXAddress, newDEXAddress);\r\n    }\r\n\r\n    function _setWrappedREIAddress(address newWREI) external onlyAdmin{\r\n        address oldWREI = wREI;\r\n        wREI = newWREI;\r\n\r\n        emit SetWrappedREIAddress(oldWREI, newWREI);\r\n    }\r\n}",
  "sourcePath": "C:\\Users\\chana\\desktop\\aurumdefi\\src\\contracts\\AurumTreasury.sol",
  "compiler": {
    "name": "solc",
    "version": "0.8.12+commit.f00d7308.Emscripten.clang"
  },
  "schemaVersion": "3.4.6",
  "updatedAt": "2022-04-04T14:04:50.439Z",
  "devdoc": {
    "kind": "dev",
    "methods": {},
    "version": 1
  },
  "userdoc": {
    "kind": "user",
    "methods": {},
    "version": 1
  }
}