{
  "contractName": "AurumOracleCentralized",
  "abi": [
    {
      "inputs": [
        {
          "internalType": "address",
          "name": "WREI_",
          "type": "address"
        },
        {
          "internalType": "address",
          "name": "busd_",
          "type": "address"
        }
      ],
      "stateMutability": "nonpayable",
      "type": "constructor"
    },
    {
      "anonymous": false,
      "inputs": [
        {
          "indexed": false,
          "internalType": "address",
          "name": "token",
          "type": "address"
        },
        {
          "indexed": false,
          "internalType": "uint128",
          "name": "price",
          "type": "uint128"
        },
        {
          "indexed": false,
          "internalType": "uint128",
          "name": "timestamp",
          "type": "uint128"
        }
      ],
      "name": "Initialized_Asset",
      "type": "event"
    },
    {
      "anonymous": false,
      "inputs": [
        {
          "indexed": false,
          "internalType": "uint128",
          "name": "price",
          "type": "uint128"
        },
        {
          "indexed": false,
          "internalType": "uint128",
          "name": "timestamp",
          "type": "uint128"
        }
      ],
      "name": "Initialized_Gold",
      "type": "event"
    },
    {
      "anonymous": false,
      "inputs": [
        {
          "indexed": false,
          "internalType": "address",
          "name": "oldAdmin",
          "type": "address"
        },
        {
          "indexed": false,
          "internalType": "address",
          "name": "newAdmin",
          "type": "address"
        }
      ],
      "name": "SetNewAdmin",
      "type": "event"
    },
    {
      "anonymous": false,
      "inputs": [
        {
          "indexed": false,
          "internalType": "address",
          "name": "oldManager",
          "type": "address"
        },
        {
          "indexed": false,
          "internalType": "address",
          "name": "newManager",
          "type": "address"
        }
      ],
      "name": "SetNewManager",
      "type": "event"
    },
    {
      "anonymous": false,
      "inputs": [
        {
          "indexed": false,
          "internalType": "address",
          "name": "oldSlidingWindow",
          "type": "address"
        },
        {
          "indexed": false,
          "internalType": "address",
          "name": "newSlidingWindow",
          "type": "address"
        }
      ],
      "name": "SetNewSlidingWindow",
      "type": "event"
    },
    {
      "inputs": [],
      "name": "admin",
      "outputs": [
        {
          "internalType": "address",
          "name": "",
          "type": "address"
        }
      ],
      "stateMutability": "view",
      "type": "function"
    },
    {
      "inputs": [],
      "name": "manager",
      "outputs": [
        {
          "internalType": "address",
          "name": "",
          "type": "address"
        }
      ],
      "stateMutability": "view",
      "type": "function"
    },
    {
      "inputs": [],
      "name": "periodRange",
      "outputs": [
        {
          "internalType": "uint256",
          "name": "",
          "type": "uint256"
        }
      ],
      "stateMutability": "view",
      "type": "function"
    },
    {
      "inputs": [],
      "name": "slidingWindow",
      "outputs": [
        {
          "internalType": "contract ISlidingWindow",
          "name": "",
          "type": "address"
        }
      ],
      "stateMutability": "view",
      "type": "function"
    },
    {
      "inputs": [],
      "name": "isPriceOracle",
      "outputs": [
        {
          "internalType": "bool",
          "name": "",
          "type": "bool"
        }
      ],
      "stateMutability": "pure",
      "type": "function"
    },
    {
      "inputs": [
        {
          "internalType": "address",
          "name": "token",
          "type": "address"
        },
        {
          "internalType": "uint128",
          "name": "price",
          "type": "uint128"
        }
      ],
      "name": "initializedAsset",
      "outputs": [],
      "stateMutability": "nonpayable",
      "type": "function"
    },
    {
      "inputs": [
        {
          "internalType": "uint128",
          "name": "price",
          "type": "uint128"
        }
      ],
      "name": "initializedGold",
      "outputs": [],
      "stateMutability": "nonpayable",
      "type": "function"
    },
    {
      "inputs": [
        {
          "internalType": "address",
          "name": "token",
          "type": "address"
        },
        {
          "internalType": "uint128",
          "name": "price",
          "type": "uint128"
        }
      ],
      "name": "updateAssetPrice",
      "outputs": [],
      "stateMutability": "nonpayable",
      "type": "function"
    },
    {
      "inputs": [
        {
          "internalType": "address",
          "name": "token",
          "type": "address"
        }
      ],
      "name": "updateAssetPriceFromWindow",
      "outputs": [],
      "stateMutability": "nonpayable",
      "type": "function"
    },
    {
      "inputs": [
        {
          "internalType": "uint128",
          "name": "price",
          "type": "uint128"
        }
      ],
      "name": "updateGoldPrice",
      "outputs": [],
      "stateMutability": "nonpayable",
      "type": "function"
    },
    {
      "inputs": [],
      "name": "getGoldPrice",
      "outputs": [
        {
          "internalType": "uint256",
          "name": "",
          "type": "uint256"
        }
      ],
      "stateMutability": "view",
      "type": "function"
    },
    {
      "inputs": [
        {
          "internalType": "contract LendTokenInterface",
          "name": "lendToken",
          "type": "address"
        }
      ],
      "name": "getUnderlyingPrice",
      "outputs": [
        {
          "internalType": "uint256",
          "name": "",
          "type": "uint256"
        }
      ],
      "stateMutability": "view",
      "type": "function"
    },
    {
      "inputs": [
        {
          "internalType": "address",
          "name": "token",
          "type": "address"
        }
      ],
      "name": "assetPrices",
      "outputs": [
        {
          "internalType": "uint256",
          "name": "",
          "type": "uint256"
        }
      ],
      "stateMutability": "view",
      "type": "function"
    },
    {
      "inputs": [
        {
          "internalType": "address",
          "name": "newAdmin",
          "type": "address"
        }
      ],
      "name": "_setAdmin",
      "outputs": [],
      "stateMutability": "nonpayable",
      "type": "function"
    },
    {
      "inputs": [
        {
          "internalType": "address",
          "name": "newManager",
          "type": "address"
        }
      ],
      "name": "_setManager",
      "outputs": [],
      "stateMutability": "nonpayable",
      "type": "function"
    },
    {
      "inputs": [
        {
          "internalType": "address",
          "name": "newSlidingWindow",
          "type": "address"
        }
      ],
      "name": "_setSlidingWindow",
      "outputs": [],
      "stateMutability": "nonpayable",
      "type": "function"
    }
  ],
  "bytecode": "0x6080604052610bb8600c553480156200001757600080fd5b5060405162002ca138038062002ca183398181016040528101906200003d919062000171565b336000806101000a81548173ffffffffffffffffffffffffffffffffffffffff021916908373ffffffffffffffffffffffffffffffffffffffff16021790555080600260006101000a81548173ffffffffffffffffffffffffffffffffffffffff021916908373ffffffffffffffffffffffffffffffffffffffff16021790555081600d60006101000a81548173ffffffffffffffffffffffffffffffffffffffff021916908373ffffffffffffffffffffffffffffffffffffffff1602179055505050620001b8565b600080fd5b600073ffffffffffffffffffffffffffffffffffffffff82169050919050565b600062000139826200010c565b9050919050565b6200014b816200012c565b81146200015757600080fd5b50565b6000815190506200016b8162000140565b92915050565b600080604083850312156200018b576200018a62000107565b5b60006200019b858286016200015a565b9250506020620001ae858286016200015a565b9150509250929050565b612ad980620001c86000396000f3fe608060405234801561001057600080fd5b50600436106101005760003560e01c8063695bea4911610097578063bcb66fb711610066578063bcb66fb714610271578063da6bae101461028d578063f851a440146102ab578063fc57d4df146102c957610100565b8063695bea49146101ff5780636b7f0bd71461021b57806371232b1b1461023757806381546f3f1461025357610100565b8063481c6a75116100d3578063481c6a75146101775780634b1386c9146101955780635e9a523c146101b157806366331bba146101e157610100565b80630f9e81ee146101055780633524cf6c146101215780633a74a7671461013d57806345037b7014610159575b600080fd5b61011f600480360381019061011a9190612043565b6102f9565b005b61013b600480360381019061013691906120ce565b6104c6565b005b6101576004803603810190610152919061210e565b61074d565b005b61016161087e565b60405161016e9190612154565b60405180910390f35b61017f610884565b60405161018c919061217e565b60405180910390f35b6101af60048036038101906101aa9190612043565b6108aa565b005b6101cb60048036038101906101c6919061210e565b610d55565b6040516101d89190612154565b60405180910390f35b6101e9610e6a565b6040516101f691906121b4565b60405180910390f35b6102196004803603810190610214919061210e565b610e73565b005b6102356004803603810190610230919061210e565b610fa6565b005b610251600480360381019061024c91906120ce565b611509565b005b61025b611b0d565b604051610268919061222e565b60405180910390f35b61028b6004803603810190610286919061210e565b611b33565b005b610295611c66565b6040516102a29190612154565b60405180910390f35b6102b3611cff565b6040516102c0919061217e565b60405180910390f35b6102e360048036038101906102de9190612287565b611d23565b6040516102f09190612154565b60405180910390f35b60008054906101000a900473ffffffffffffffffffffffffffffffffffffffff1673ffffffffffffffffffffffffffffffffffffffff163373ffffffffffffffffffffffffffffffffffffffff1614610387576040517f08c379a000000000000000000000000000000000000000000000000000000000815260040161037e90612311565b60405180910390fd5b600080429050600091505b60068260ff161015610469578260046000018360ff16600681106103b9576103b8612331565b5b600291828204019190066010026101000a8154816fffffffffffffffffffffffffffffffff02191690836fffffffffffffffffffffffffffffffff1602179055508060046003018360ff166006811061041557610414612331565b5b600291828204019190066010026101000a8154816fffffffffffffffffffffffffffffffff02191690836fffffffffffffffffffffffffffffffff16021790555081806104619061239c565b925050610392565b6000600460060160006101000a81548160ff021916908360ff1602179055507fc66c6a9be0b5931755018ddae096efb20b7b80e636d01ee9bb535584cd06101d83826040516104b99291906123d5565b60405180910390a1505050565b60008054906101000a900473ffffffffffffffffffffffffffffffffffffffff1673ffffffffffffffffffffffffffffffffffffffff163373ffffffffffffffffffffffffffffffffffffffff1614610554576040517f08c379a000000000000000000000000000000000000000000000000000000000815260040161054b90612311565b60405180910390fd5b600080429050600091505b60068260ff1610156106b05782600360008673ffffffffffffffffffffffffffffffffffffffff1673ffffffffffffffffffffffffffffffffffffffff1681526020019081526020016000206000018360ff16600681106105c3576105c2612331565b5b600291828204019190066010026101000a8154816fffffffffffffffffffffffffffffffff02191690836fffffffffffffffffffffffffffffffff16021790555080600360008673ffffffffffffffffffffffffffffffffffffffff1673ffffffffffffffffffffffffffffffffffffffff1681526020019081526020016000206003018360ff166006811061065c5761065b612331565b5b600291828204019190066010026101000a8154816fffffffffffffffffffffffffffffffff02191690836fffffffffffffffffffffffffffffffff16021790555081806106a89061239c565b92505061055f565b6000600360008673ffffffffffffffffffffffffffffffffffffffff1673ffffffffffffffffffffffffffffffffffffffff16815260200190815260200160002060060160006101000a81548160ff021916908360ff1602179055507fb269f714c40d09fccdca4d2f0b9dfa2a604c8b821f713813fc79824c458b0d9084848360405161073f939291906123fe565b60405180910390a150505050565b60008054906101000a900473ffffffffffffffffffffffffffffffffffffffff1673ffffffffffffffffffffffffffffffffffffffff163373ffffffffffffffffffffffffffffffffffffffff16146107db576040517f08c379a00000000000000000000000000000000000000000000000000000000081526004016107d290612311565b60405180910390fd5b60008060009054906101000a900473ffffffffffffffffffffffffffffffffffffffff169050816000806101000a81548173ffffffffffffffffffffffffffffffffffffffff021916908373ffffffffffffffffffffffffffffffffffffffff1602179055507f677255dd8d307c528670cb7cefed4f404c1e92c8729eafcbe702e85ed49292bd8183604051610872929190612435565b60405180910390a15050565b600c5481565b600160009054906101000a900473ffffffffffffffffffffffffffffffffffffffff1681565b600160009054906101000a900473ffffffffffffffffffffffffffffffffffffffff1673ffffffffffffffffffffffffffffffffffffffff163373ffffffffffffffffffffffffffffffffffffffff161461093a576040517f08c379a0000000000000000000000000000000000000000000000000000000008152600401610931906124aa565b60405180910390fd5b6000600460060160009054906101000a900460ff16905060008060008360ff1614156109695760059150610979565b60018361097691906124ca565b91505b600060046000018360ff166006811061099557610994612331565b5b600291828204019190066010029054906101000a90046fffffffffffffffffffffffffffffffff166fffffffffffffffffffffffffffffffff16905060058460ff1614156109e657600091506109f6565b6001846109f391906124fe565b91505b600060046003018460ff1660068110610a1257610a11612331565b5b600291828204019190066010029054906101000a90046fffffffffffffffffffffffffffffffff166fffffffffffffffffffffffffffffffff1642610a579190612535565b9050600c54811015610a9e576040517f08c379a0000000000000000000000000000000000000000000000000000000008152600401610a95906125b5565b60405180910390fd5b600060046003018460ff1660068110610aba57610ab9612331565b5b600291828204019190066010029054906101000a90046fffffffffffffffffffffffffffffffff1660046003018660ff1660068110610afc57610afb612331565b5b600291828204019190066010029054906101000a90046fffffffffffffffffffffffffffffffff16610b2e91906125d5565b6fffffffffffffffffffffffffffffffff16905060008183610b509190612609565b886fffffffffffffffffffffffffffffffff1684610b6e919061265f565b8584610b7a919061265f565b610b849190612609565b610b8e91906126e8565b90506fffffffffffffffffffffffffffffffff8016811115610be5576040517f08c379a0000000000000000000000000000000000000000000000000000000008152600401610bdc90612765565b60405180910390fd5b80841115610c335760008185610bfb9190612535565b9050600a85610c0a91906126e8565b811115610c2d57600a600986610c20919061265f565b610c2a91906126e8565b91505b50610c75565b60008482610c419190612535565b9050600a85610c5091906126e8565b811115610c7357600a600b86610c66919061265f565b610c7091906126e8565b91505b505b8060046000018860ff1660068110610c9057610c8f612331565b5b600291828204019190066010026101000a8154816fffffffffffffffffffffffffffffffff02191690836fffffffffffffffffffffffffffffffff1602179055504260046003018860ff1660068110610cec57610ceb612331565b5b600291828204019190066010026101000a8154816fffffffffffffffffffffffffffffffff02191690836fffffffffffffffffffffffffffffffff16021790555084600460060160006101000a81548160ff021916908360ff1602179055505050505050505050565b600080600360008473ffffffffffffffffffffffffffffffffffffffff1673ffffffffffffffffffffffffffffffffffffffff16815260200190815260200160002060060160009054906101000a900460ff1690506000808260ff161415610dc05760059050610dd0565b600182610dcd91906124ca565b90505b600360008573ffffffffffffffffffffffffffffffffffffffff1673ffffffffffffffffffffffffffffffffffffffff1681526020019081526020016000206000018160ff1660068110610e2757610e26612331565b5b600291828204019190066010029054906101000a90046fffffffffffffffffffffffffffffffff166fffffffffffffffffffffffffffffffff1692505050919050565b60006001905090565b60008054906101000a900473ffffffffffffffffffffffffffffffffffffffff1673ffffffffffffffffffffffffffffffffffffffff163373ffffffffffffffffffffffffffffffffffffffff1614610f01576040517f08c379a0000000000000000000000000000000000000000000000000000000008152600401610ef890612311565b60405180910390fd5b6000600160009054906101000a900473ffffffffffffffffffffffffffffffffffffffff16905081600160006101000a81548173ffffffffffffffffffffffffffffffffffffffff021916908373ffffffffffffffffffffffffffffffffffffffff1602179055507f061c62d73b47f63d86ecde0c69b9ffa4e7eacdcb8b376c5283e78f85b6d4f5758183604051610f9a929190612435565b60405180910390a15050565b600160009054906101000a900473ffffffffffffffffffffffffffffffffffffffff1673ffffffffffffffffffffffffffffffffffffffff163373ffffffffffffffffffffffffffffffffffffffff1614611036576040517f08c379a000000000000000000000000000000000000000000000000000000000815260040161102d906124aa565b60405180910390fd5b6000600360008373ffffffffffffffffffffffffffffffffffffffff1673ffffffffffffffffffffffffffffffffffffffff16815260200190815260200160002060060160009054906101000a900460ff1690506000806000600b60009054906101000a900473ffffffffffffffffffffffffffffffffffffffff16905060008460ff1614156110c957600592506110d9565b6001846110d691906124ca565b92505b60058460ff1614156110ee57600091506110fe565b6001846110fb91906124fe565b91505b8073ffffffffffffffffffffffffffffffffffffffff1663c640752d86600260009054906101000a900473ffffffffffffffffffffffffffffffffffffffff166040518363ffffffff1660e01b815260040161115b929190612435565b600060405180830381600087803b15801561117557600080fd5b505af1158015611189573d6000803e3d6000fd5b505050506000600360008773ffffffffffffffffffffffffffffffffffffffff1673ffffffffffffffffffffffffffffffffffffffff1681526020019081526020016000206003018460ff16600681106111e6576111e5612331565b5b600291828204019190066010029054906101000a90046fffffffffffffffffffffffffffffffff166fffffffffffffffffffffffffffffffff164261122b9190612535565b9050600c54811015611272576040517f08c379a0000000000000000000000000000000000000000000000000000000008152600401611269906125b5565b60405180910390fd5b60008273ffffffffffffffffffffffffffffffffffffffff16638c86f1e488670de0b6b3a7640000600260009054906101000a900473ffffffffffffffffffffffffffffffffffffffff166040518463ffffffff1660e01b81526004016112db939291906127c0565b602060405180830381865afa1580156112f8573d6000803e3d6000fd5b505050506040513d601f19601f8201168201806040525081019061131c9190612823565b90506fffffffffffffffffffffffffffffffff8016811115611373576040517f08c379a000000000000000000000000000000000000000000000000000000000815260040161136a90612765565b60405180910390fd5b80600360008973ffffffffffffffffffffffffffffffffffffffff1673ffffffffffffffffffffffffffffffffffffffff1681526020019081526020016000206000018760ff16600681106113cb576113ca612331565b5b600291828204019190066010026101000a8154816fffffffffffffffffffffffffffffffff02191690836fffffffffffffffffffffffffffffffff16021790555042600360008973ffffffffffffffffffffffffffffffffffffffff1673ffffffffffffffffffffffffffffffffffffffff1681526020019081526020016000206003018760ff166006811061146457611463612331565b5b600291828204019190066010026101000a8154816fffffffffffffffffffffffffffffffff02191690836fffffffffffffffffffffffffffffffff16021790555083600360008973ffffffffffffffffffffffffffffffffffffffff1673ffffffffffffffffffffffffffffffffffffffff16815260200190815260200160002060060160006101000a81548160ff021916908360ff16021790555050505050505050565b600160009054906101000a900473ffffffffffffffffffffffffffffffffffffffff1673ffffffffffffffffffffffffffffffffffffffff163373ffffffffffffffffffffffffffffffffffffffff1614611599576040517f08c379a0000000000000000000000000000000000000000000000000000000008152600401611590906124aa565b60405180910390fd5b6000600360008473ffffffffffffffffffffffffffffffffffffffff1673ffffffffffffffffffffffffffffffffffffffff16815260200190815260200160002060060160009054906101000a900460ff16905060008060008360ff1614156116055760059150611615565b60018361161291906124ca565b91505b6000600360008773ffffffffffffffffffffffffffffffffffffffff1673ffffffffffffffffffffffffffffffffffffffff1681526020019081526020016000206000018360ff166006811061166e5761166d612331565b5b600291828204019190066010029054906101000a90046fffffffffffffffffffffffffffffffff166fffffffffffffffffffffffffffffffff16905060058460ff1614156116bf57600091506116cf565b6001846116cc91906124fe565b91505b6000600360008873ffffffffffffffffffffffffffffffffffffffff1673ffffffffffffffffffffffffffffffffffffffff1681526020019081526020016000206003018460ff166006811061172857611727612331565b5b600291828204019190066010029054906101000a90046fffffffffffffffffffffffffffffffff166fffffffffffffffffffffffffffffffff164261176d9190612535565b9050600c548110156117b4576040517f08c379a00000000000000000000000000000000000000000000000000000000081526004016117ab906125b5565b60405180910390fd5b6000600360008973ffffffffffffffffffffffffffffffffffffffff1673ffffffffffffffffffffffffffffffffffffffff1681526020019081526020016000206003018460ff166006811061180d5761180c612331565b5b600291828204019190066010029054906101000a90046fffffffffffffffffffffffffffffffff16600360008a73ffffffffffffffffffffffffffffffffffffffff1673ffffffffffffffffffffffffffffffffffffffff1681526020019081526020016000206003018660ff166006811061188c5761188b612331565b5b600291828204019190066010029054906101000a90046fffffffffffffffffffffffffffffffff166118be91906125d5565b6fffffffffffffffffffffffffffffffff169050600081836118e09190612609565b886fffffffffffffffffffffffffffffffff16846118fe919061265f565b858461190a919061265f565b6119149190612609565b61191e91906126e8565b90506fffffffffffffffffffffffffffffffff8016811115611975576040517f08c379a000000000000000000000000000000000000000000000000000000000815260040161196c90612765565b60405180910390fd5b80600360008b73ffffffffffffffffffffffffffffffffffffffff1673ffffffffffffffffffffffffffffffffffffffff1681526020019081526020016000206000018860ff16600681106119cd576119cc612331565b5b600291828204019190066010026101000a8154816fffffffffffffffffffffffffffffffff02191690836fffffffffffffffffffffffffffffffff16021790555042600360008b73ffffffffffffffffffffffffffffffffffffffff1673ffffffffffffffffffffffffffffffffffffffff1681526020019081526020016000206003018860ff1660068110611a6657611a65612331565b5b600291828204019190066010026101000a8154816fffffffffffffffffffffffffffffffff02191690836fffffffffffffffffffffffffffffffff16021790555084600360008b73ffffffffffffffffffffffffffffffffffffffff1673ffffffffffffffffffffffffffffffffffffffff16815260200190815260200160002060060160006101000a81548160ff021916908360ff160217905550505050505050505050565b600b60009054906101000a900473ffffffffffffffffffffffffffffffffffffffff1681565b60008054906101000a900473ffffffffffffffffffffffffffffffffffffffff1673ffffffffffffffffffffffffffffffffffffffff163373ffffffffffffffffffffffffffffffffffffffff1614611bc1576040517f08c379a0000000000000000000000000000000000000000000000000000000008152600401611bb890612311565b60405180910390fd5b6000600b60009054906101000a900473ffffffffffffffffffffffffffffffffffffffff16905081600b60006101000a81548173ffffffffffffffffffffffffffffffffffffffff021916908373ffffffffffffffffffffffffffffffffffffffff1602179055507f1ccbe9c2ced5a5da9675bff51bd159c972993fe023bf5e9b7473dfec96af57b08183604051611c5a929190612435565b60405180910390a15050565b600080600460060160009054906101000a900460ff1690506000808260ff161415611c945760059050611ca4565b600182611ca191906124ca565b90505b60046000018160ff1660068110611cbe57611cbd612331565b5b600291828204019190066010029054906101000a90046fffffffffffffffffffffffffffffffff166fffffffffffffffffffffffffffffffff169250505090565b60008054906101000a900473ffffffffffffffffffffffffffffffffffffffff1681565b600080611dd88373ffffffffffffffffffffffffffffffffffffffff166395d89b416040518163ffffffff1660e01b8152600401600060405180830381865afa158015611d74573d6000803e3d6000fd5b505050506040513d6000823e3d601f19601f82011682018060405250810190611d9d91906129ba565b6040518060400160405280600781526020017f6c656e6452454900000000000000000000000000000000000000000000000000815250611f8e565b15611e0757600d60009054906101000a900473ffffffffffffffffffffffffffffffffffffffff169050611e79565b8273ffffffffffffffffffffffffffffffffffffffff16636f307dc36040518163ffffffff1660e01b8152600401602060405180830381865afa158015611e52573d6000803e3d6000fd5b505050506040513d601f19601f82011682018060405250810190611e769190612a18565b90505b6000600360008373ffffffffffffffffffffffffffffffffffffffff1673ffffffffffffffffffffffffffffffffffffffff16815260200190815260200160002060060160009054906101000a900460ff1690506000808260ff161415611ee35760059050611ef3565b600182611ef091906124ca565b90505b600360008473ffffffffffffffffffffffffffffffffffffffff1673ffffffffffffffffffffffffffffffffffffffff1681526020019081526020016000206000018160ff1660068110611f4a57611f49612331565b5b600291828204019190066010029054906101000a90046fffffffffffffffffffffffffffffffff166fffffffffffffffffffffffffffffffff169350505050919050565b600081604051602001611fa19190612a8c565b6040516020818303038152906040528051906020012083604051602001611fc89190612a8c565b6040516020818303038152906040528051906020012014905092915050565b6000604051905090565b600080fd5b600080fd5b60006fffffffffffffffffffffffffffffffff82169050919050565b61202081611ffb565b811461202b57600080fd5b50565b60008135905061203d81612017565b92915050565b60006020828403121561205957612058611ff1565b5b60006120678482850161202e565b91505092915050565b600073ffffffffffffffffffffffffffffffffffffffff82169050919050565b600061209b82612070565b9050919050565b6120ab81612090565b81146120b657600080fd5b50565b6000813590506120c8816120a2565b92915050565b600080604083850312156120e5576120e4611ff1565b5b60006120f3858286016120b9565b92505060206121048582860161202e565b9150509250929050565b60006020828403121561212457612123611ff1565b5b6000612132848285016120b9565b91505092915050565b6000819050919050565b61214e8161213b565b82525050565b60006020820190506121696000830184612145565b92915050565b61217881612090565b82525050565b6000602082019050612193600083018461216f565b92915050565b60008115159050919050565b6121ae81612199565b82525050565b60006020820190506121c960008301846121a5565b92915050565b6000819050919050565b60006121f46121ef6121ea84612070565b6121cf565b612070565b9050919050565b6000612206826121d9565b9050919050565b6000612218826121fb565b9050919050565b6122288161220d565b82525050565b6000602082019050612243600083018461221f565b92915050565b600061225482612090565b9050919050565b61226481612249565b811461226f57600080fd5b50565b6000813590506122818161225b565b92915050565b60006020828403121561229d5761229c611ff1565b5b60006122ab84828501612272565b91505092915050565b600082825260208201905092915050565b7f4f6e6c792061646d696e00000000000000000000000000000000000000000000600082015250565b60006122fb600a836122b4565b9150612306826122c5565b602082019050919050565b6000602082019050818103600083015261232a816122ee565b9050919050565b7f4e487b7100000000000000000000000000000000000000000000000000000000600052603260045260246000fd5b7f4e487b7100000000000000000000000000000000000000000000000000000000600052601160045260246000fd5b600060ff82169050919050565b60006123a78261238f565b915060ff8214156123bb576123ba612360565b5b600182019050919050565b6123cf81611ffb565b82525050565b60006040820190506123ea60008301856123c6565b6123f760208301846123c6565b9392505050565b6000606082019050612413600083018661216f565b61242060208301856123c6565b61242d60408301846123c6565b949350505050565b600060408201905061244a600083018561216f565b612457602083018461216f565b9392505050565b7f4f6e6c79206d616e616765720000000000000000000000000000000000000000600082015250565b6000612494600c836122b4565b915061249f8261245e565b602082019050919050565b600060208201905081810360008301526124c381612487565b9050919050565b60006124d58261238f565b91506124e08361238f565b9250828210156124f3576124f2612360565b5b828203905092915050565b60006125098261238f565b91506125148361238f565b92508260ff0382111561252a57612529612360565b5b828201905092915050565b60006125408261213b565b915061254b8361213b565b92508282101561255e5761255d612360565b5b828203905092915050565b7f75706461746520746f6f206561726c7900000000000000000000000000000000600082015250565b600061259f6010836122b4565b91506125aa82612569565b602082019050919050565b600060208201905081810360008301526125ce81612592565b9050919050565b60006125e082611ffb565b91506125eb83611ffb565b9250828210156125fe576125fd612360565b5b828203905092915050565b60006126148261213b565b915061261f8361213b565b9250827fffffffffffffffffffffffffffffffffffffffffffffffffffffffffffffffff0382111561265457612653612360565b5b828201905092915050565b600061266a8261213b565b91506126758361213b565b9250817fffffffffffffffffffffffffffffffffffffffffffffffffffffffffffffffff04831182151516156126ae576126ad612360565b5b828202905092915050565b7f4e487b7100000000000000000000000000000000000000000000000000000000600052601260045260246000fd5b60006126f38261213b565b91506126fe8361213b565b92508261270e5761270d6126b9565b5b828204905092915050565b7f4f766572666c6f77000000000000000000000000000000000000000000000000600082015250565b600061274f6008836122b4565b915061275a82612719565b602082019050919050565b6000602082019050818103600083015261277e81612742565b9050919050565b6000819050919050565b60006127aa6127a56127a084612785565b6121cf565b61213b565b9050919050565b6127ba8161278f565b82525050565b60006060820190506127d5600083018661216f565b6127e260208301856127b1565b6127ef604083018461216f565b949350505050565b6128008161213b565b811461280b57600080fd5b50565b60008151905061281d816127f7565b92915050565b60006020828403121561283957612838611ff1565b5b60006128478482850161280e565b91505092915050565b600080fd5b600080fd5b6000601f19601f8301169050919050565b7f4e487b7100000000000000000000000000000000000000000000000000000000600052604160045260246000fd5b6128a38261285a565b810181811067ffffffffffffffff821117156128c2576128c161286b565b5b80604052505050565b60006128d5611fe7565b90506128e1828261289a565b919050565b600067ffffffffffffffff8211156129015761290061286b565b5b61290a8261285a565b9050602081019050919050565b60005b8381101561293557808201518184015260208101905061291a565b83811115612944576000848401525b50505050565b600061295d612958846128e6565b6128cb565b90508281526020810184848401111561297957612978612855565b5b612984848285612917565b509392505050565b600082601f8301126129a1576129a0612850565b5b81516129b184826020860161294a565b91505092915050565b6000602082840312156129d0576129cf611ff1565b5b600082015167ffffffffffffffff8111156129ee576129ed611ff6565b5b6129fa8482850161298c565b91505092915050565b600081519050612a12816120a2565b92915050565b600060208284031215612a2e57612a2d611ff1565b5b6000612a3c84828501612a03565b91505092915050565b600081519050919050565b600081905092915050565b6000612a6682612a45565b612a708185612a50565b9350612a80818560208601612917565b80840191505092915050565b6000612a988284612a5b565b91508190509291505056fea2646970667358221220c8ba86124ebc5736035f6f5947699a8cf66f1b2da7d966c8c1e2f7f9827c1a8864736f6c634300080c0033",
  "immutableReferences": {},
  "source": "// SPDX-License-Identifier: MIT\r\npragma solidity ^0.8.0;\r\n\r\nimport './interface/IAurumOracleCentralized.sol';\r\n\r\ncontract AurumOracleCentralized is IAurumOracleCentralized {\r\n    //Using TWAP model, using index for looping and re-write the price storage\r\n\r\n    address public admin; // Admin can initiate price and set manager (reducing risk of privatekey leak)   Admin private key store in Hardware wallet.\r\n    address public manager; // Manager can update the price, using Multi-signature wallet address to reduce risk of single key leak.\r\n    \r\n    address busd; //Reference stable coin price.\r\n\r\n    struct PriceList {\r\n        uint128[6] avgPrice;\r\n        uint128[6] timestamp;\r\n        uint8 currentIndex;\r\n    }\r\n    \r\n    mapping (address => PriceList) asset;\r\n    PriceList goldPrice; // gold price TWAP\r\n\r\n    ISlidingWindow public slidingWindow;\r\n\r\n    // Period range will trigger the alarm when someone got the admin private key and try to manipulate prices\r\n    // \r\n    uint public periodRange = 60*50; // 50 minutes\r\n\r\n    function isPriceOracle() external pure returns (bool) {return true;}\r\n\r\n\r\n    address WREI; // Wrapped REI address\r\n\r\n\r\n    constructor (address WREI_, address busd_) {\r\n        admin = msg.sender;\r\n        busd = busd_;\r\n        WREI = WREI_;  // WREI will prevent crash when query the 'lendREI' token\r\n    }\r\n\r\n    modifier onlyAdmin {\r\n        require(msg.sender == admin, \"Only admin\");\r\n        _;\r\n    }\r\n    modifier onlyManager {\r\n        require(msg.sender == manager, \"Only manager\");\r\n        _;\r\n    }\r\n\r\n    event Initialized_Asset(address token, uint128 price, uint128 timestamp);\r\n    event Initialized_Gold(uint128 price, uint128 timestamp);\r\n    event SetNewAdmin(address oldAdmin, address newAdmin);\r\n    event SetNewManager(address oldManager, address newManager);\r\n    event SetNewSlidingWindow(address oldSlidingWindow, address newSlidingWindow);\r\n\r\n    // Initialized Asset before updateAssetPrice, make sure that lastPrice not equal to 0, and Timestamp not equal to 0.\r\n    function initializedAsset(address token, uint128 price) external onlyAdmin{\r\n        uint8 i;\r\n        uint128 currentTime = uint128(block.timestamp);\r\n        for(i=0;i<6;i++){\r\n            asset[token].avgPrice[i] = price;\r\n            asset[token].timestamp[i] = currentTime;\r\n        }\r\n        asset[token].currentIndex = 0;\r\n        emit Initialized_Asset(token, price, currentTime);\r\n    }\r\n    function initializedGold(uint128 price) external onlyAdmin{\r\n        uint8 i;\r\n        uint128 currentTime = uint128(block.timestamp);\r\n        for(i=0;i<6;i++){\r\n            goldPrice.avgPrice[i] = price;\r\n            goldPrice.timestamp[i] = currentTime;\r\n        }\r\n        goldPrice.currentIndex = 0;\r\n        emit Initialized_Gold(price, currentTime);\r\n    }\r\n\r\n\r\n    // Update price with the TWAP model.\r\n    function updateAssetPrice(address token, uint128 price) external onlyManager{\r\n        uint8 index = asset[token].currentIndex;\r\n        uint8 lastIndex;\r\n        uint8 nextIndex;\r\n        if(index == 0){\r\n            lastIndex = 5;\r\n        } else {\r\n            lastIndex = index-1;\r\n        }\r\n        uint lastPrice = asset[token].avgPrice[lastIndex];\r\n\r\n        if(index == 5){\r\n            nextIndex = 0;\r\n        } else {\r\n            nextIndex = index+1;\r\n        }\r\n        //newDeltaTime is the time n - time K  // it must more than period time\r\n        //oldDeltaTime is the time K - time 0\r\n        uint newDeltaTime = block.timestamp - asset[token].timestamp[lastIndex];\r\n        require(newDeltaTime >= periodRange, \"update too early\");   //If update oracle bot catch this means the privatekey got hacked OR the bot error.\r\n        uint oldDeltaTime = asset[token].timestamp[lastIndex]-asset[token].timestamp[nextIndex]; // This need to be initialized\r\n\r\n        //new AvgPrice is ( price*tk  +  price*tn  ) / tk+tn\r\n        uint newAvgPrice = ((oldDeltaTime*lastPrice) + (newDeltaTime*price)) / (newDeltaTime+oldDeltaTime);\r\n\r\n        if(newAvgPrice > type(uint128).max){\r\n            revert(\"Overflow\");\r\n        }\r\n        asset[token].avgPrice[index] = uint128(newAvgPrice);\r\n        asset[token].timestamp[index] = uint128(block.timestamp);\r\n\r\n        //Set new index to the next;\r\n        asset[token].currentIndex = nextIndex;\r\n    }\r\n\r\n    // This using sliding window oracle of Uniswap V2 data to update this oracle.\r\n    function updateAssetPriceFromWindow(address token) external onlyManager{\r\n        uint8 index = asset[token].currentIndex;\r\n        uint8 lastIndex;\r\n        uint8 nextIndex;\r\n        ISlidingWindow uniswapOracle = ISlidingWindow(slidingWindow);\r\n        if(index == 0){\r\n            lastIndex = 5;\r\n        } else {\r\n            lastIndex = index-1;\r\n        }\r\n\r\n        if(index == 5){\r\n            nextIndex = 0;\r\n        } else {\r\n            nextIndex = index+1;\r\n        }\r\n        // So.. We helping sliding Window update each time we read parameter.\r\n        uniswapOracle.update(token,busd);\r\n\r\n        uint newDeltaTime = block.timestamp - asset[token].timestamp[lastIndex];\r\n        require(newDeltaTime >= periodRange, \"update too early\");   //If update oracle bot catch this means the privatekey got hacked OR the bot error.\r\n\r\n        // The price we got already time-weight average price.\r\n        uint newAvgPrice = uniswapOracle.consult(token,1e18,busd);\r\n\r\n        if(newAvgPrice > type(uint128).max){\r\n            revert(\"Overflow\");\r\n        }\r\n        asset[token].avgPrice[index] = uint128(newAvgPrice);\r\n        asset[token].timestamp[index] = uint128(block.timestamp);\r\n\r\n        //Set new index to the next;\r\n        asset[token].currentIndex = nextIndex;\r\n    }\r\n\r\n\r\n\r\n    function updateGoldPrice(uint128 price) external onlyManager {\r\n        uint8 index = goldPrice.currentIndex;\r\n        uint8 lastIndex;\r\n        uint8 nextIndex;\r\n        if(index == 0){\r\n            lastIndex = 5;\r\n        } else {\r\n            lastIndex = index-1;\r\n        }\r\n        uint lastPrice = goldPrice.avgPrice[lastIndex];\r\n\r\n        if(index == 5){\r\n            nextIndex = 0;\r\n        } else {\r\n            nextIndex = index+1;\r\n        }\r\n        //newDeltaTime is the time n - time K\r\n        //oldDeltaTime is the time K - time 0\r\n        uint newDeltaTime = block.timestamp - goldPrice.timestamp[lastIndex];\r\n        require(newDeltaTime >= periodRange, \"update too early\");   //If update oracle bot catch this means the privatekey got hacked OR the bot error.\r\n        uint oldDeltaTime = goldPrice.timestamp[lastIndex]-goldPrice.timestamp[nextIndex]; // This need to be initialized\r\n\r\n        //new AvgPrice is ( price*tk  +  price*tn  ) / tk+tn\r\n        uint newAvgPrice = ((oldDeltaTime*lastPrice) + (newDeltaTime*price)) / (newDeltaTime+oldDeltaTime);\r\n\r\n        if(newAvgPrice > type(uint128).max){\r\n            revert(\"Overflow\");\r\n        }\r\n\r\n        //Prevent overvalue / undervalue algorithm, Max change = 10%\r\n        if(lastPrice > newAvgPrice) {\r\n            //new price is less than previous price\r\n            uint dif = lastPrice - newAvgPrice;\r\n            if(dif > lastPrice/10){\r\n                newAvgPrice = lastPrice * 9 / 10;\r\n            }\r\n        } else {\r\n            //new price is greater than previous price\r\n            uint dif = newAvgPrice - lastPrice;\r\n            if(dif > lastPrice/10){\r\n                newAvgPrice = lastPrice * 11 / 10;\r\n            }\r\n        }\r\n\r\n        goldPrice.avgPrice[index] = uint128(newAvgPrice);\r\n        goldPrice.timestamp[index] = uint128(block.timestamp);\r\n\r\n        //Set new index to the next;\r\n        goldPrice.currentIndex = nextIndex;\r\n    }\r\n\r\n    function getGoldPrice() external view returns (uint){\r\n        uint8 index = goldPrice.currentIndex;\r\n        uint8 lastIndex;\r\n        if(index == 0){\r\n            lastIndex = 5;\r\n        } else {\r\n            lastIndex = index-1;\r\n        }\r\n        return uint(goldPrice.avgPrice[lastIndex]);\r\n    }\r\n    function getUnderlyingPrice(LendTokenInterface lendToken) external view returns (uint){\r\n        address underlying;\r\n        if(compareStrings(lendToken.symbol(), \"lendREI\")){\r\n            underlying = WREI;\r\n        } else {\r\n            underlying = lendToken.underlying();\r\n        }\r\n\r\n        //same as  assetPrices function\r\n        uint8 index = asset[underlying].currentIndex;\r\n        uint8 lastIndex;\r\n        if(index == 0){\r\n            lastIndex = 5;\r\n        } else {\r\n            lastIndex = index-1;\r\n        }\r\n        return uint(asset[underlying].avgPrice[lastIndex]);\r\n    }\r\n    //The latest price is where the lastIndex is.\r\n    function assetPrices(address token) external view returns (uint){\r\n        uint8 index = asset[token].currentIndex;\r\n        uint8 lastIndex;\r\n        if(index == 0){\r\n            lastIndex = 5;\r\n        } else {\r\n            lastIndex = index-1;\r\n        }\r\n\r\n        \r\n        return uint(asset[token].avgPrice[lastIndex]);\r\n    }\r\n    \r\n    function compareStrings(string memory a, string memory b) internal pure returns (bool) {\r\n        return (keccak256(abi.encodePacked((a))) == keccak256(abi.encodePacked((b))));\r\n    }\r\n\r\n    function _setAdmin (address newAdmin) external onlyAdmin {\r\n        address oldAdmin = admin;\r\n        admin = newAdmin;\r\n\r\n        emit SetNewAdmin (oldAdmin, newAdmin);\r\n    }\r\n\r\n    function _setManager (address newManager) external onlyAdmin {\r\n        address oldManager = manager;\r\n        manager = newManager;\r\n\r\n        emit SetNewManager(oldManager, newManager);\r\n    }\r\n\r\n    function _setSlidingWindow (address newSlidingWindow) external onlyAdmin {\r\n        address oldSlidingWindow = address(slidingWindow);\r\n        slidingWindow = ISlidingWindow(newSlidingWindow);\r\n\r\n        emit SetNewSlidingWindow(oldSlidingWindow, newSlidingWindow);\r\n    }\r\n}",
  "sourcePath": "C:\\Users\\chana\\desktop\\aurumdefi\\src\\contracts\\AurumOracleCentralized.sol",
  "compiler": {
    "name": "solc",
    "version": "0.8.12+commit.f00d7308.Emscripten.clang"
  },
  "schemaVersion": "3.4.6",
  "updatedAt": "2022-04-16T15:53:56.095Z",
  "devdoc": {
    "kind": "dev",
    "methods": {},
    "version": 1
  },
  "userdoc": {
    "kind": "user",
    "methods": {},
    "version": 1
  }
}