{
  "contractName": "AurumPriceOracle",
  "abi": [
    {
      "inputs": [
        {
          "internalType": "address",
          "name": "compStorage_",
          "type": "address"
        },
        {
          "internalType": "address",
          "name": "slidingWindow_",
          "type": "address"
        },
        {
          "internalType": "address",
          "name": "tether_",
          "type": "address"
        },
        {
          "internalType": "address",
          "name": "wrei_",
          "type": "address"
        },
        {
          "internalType": "address",
          "name": "arm_",
          "type": "address"
        }
      ],
      "stateMutability": "nonpayable",
      "type": "constructor"
    },
    {
      "anonymous": false,
      "inputs": [
        {
          "indexed": false,
          "internalType": "uint256",
          "name": "previousGoldPriceMantissa",
          "type": "uint256"
        },
        {
          "indexed": false,
          "internalType": "uint256",
          "name": "requestedGoldPriceMantissa",
          "type": "uint256"
        },
        {
          "indexed": false,
          "internalType": "uint256",
          "name": "newGoldPriceMantissa",
          "type": "uint256"
        }
      ],
      "name": "GoldPricePosted",
      "type": "event"
    },
    {
      "anonymous": false,
      "inputs": [
        {
          "indexed": false,
          "internalType": "address",
          "name": "oldAdmin",
          "type": "address"
        },
        {
          "indexed": false,
          "internalType": "address",
          "name": "newAdmin",
          "type": "address"
        }
      ],
      "name": "NewAdmin",
      "type": "event"
    },
    {
      "anonymous": false,
      "inputs": [
        {
          "indexed": false,
          "internalType": "address",
          "name": "asset",
          "type": "address"
        },
        {
          "indexed": false,
          "internalType": "uint256",
          "name": "previousPriceMantissa",
          "type": "uint256"
        },
        {
          "indexed": false,
          "internalType": "uint256",
          "name": "requestedPriceMantissa",
          "type": "uint256"
        },
        {
          "indexed": false,
          "internalType": "uint256",
          "name": "newPriceMantissa",
          "type": "uint256"
        }
      ],
      "name": "PricePosted",
      "type": "event"
    },
    {
      "anonymous": false,
      "inputs": [
        {
          "indexed": false,
          "internalType": "address",
          "name": "tokenA",
          "type": "address"
        },
        {
          "indexed": false,
          "internalType": "address",
          "name": "tokenB",
          "type": "address"
        }
      ],
      "name": "UpdatePriceSlidingWindow",
      "type": "event"
    },
    {
      "inputs": [],
      "name": "admin",
      "outputs": [
        {
          "internalType": "address",
          "name": "",
          "type": "address"
        }
      ],
      "stateMutability": "view",
      "type": "function"
    },
    {
      "inputs": [],
      "name": "arm",
      "outputs": [
        {
          "internalType": "address",
          "name": "",
          "type": "address"
        }
      ],
      "stateMutability": "view",
      "type": "function"
    },
    {
      "inputs": [],
      "name": "compStorage",
      "outputs": [
        {
          "internalType": "contract ComptrollerStorageInterface",
          "name": "",
          "type": "address"
        }
      ],
      "stateMutability": "view",
      "type": "function"
    },
    {
      "inputs": [],
      "name": "goldPrice",
      "outputs": [
        {
          "internalType": "uint256",
          "name": "",
          "type": "uint256"
        }
      ],
      "stateMutability": "view",
      "type": "function"
    },
    {
      "inputs": [],
      "name": "slidingWindow",
      "outputs": [
        {
          "internalType": "contract ISlidingWindow",
          "name": "",
          "type": "address"
        }
      ],
      "stateMutability": "view",
      "type": "function"
    },
    {
      "inputs": [],
      "name": "tether",
      "outputs": [
        {
          "internalType": "address",
          "name": "",
          "type": "address"
        }
      ],
      "stateMutability": "view",
      "type": "function"
    },
    {
      "inputs": [],
      "name": "wrei",
      "outputs": [
        {
          "internalType": "address",
          "name": "",
          "type": "address"
        }
      ],
      "stateMutability": "view",
      "type": "function"
    },
    {
      "inputs": [],
      "name": "isPriceOracle",
      "outputs": [
        {
          "internalType": "bool",
          "name": "",
          "type": "bool"
        }
      ],
      "stateMutability": "pure",
      "type": "function"
    },
    {
      "inputs": [
        {
          "internalType": "contract LendTokenInterface",
          "name": "lendToken",
          "type": "address"
        }
      ],
      "name": "getUnderlyingPrice",
      "outputs": [
        {
          "internalType": "uint256",
          "name": "",
          "type": "uint256"
        }
      ],
      "stateMutability": "view",
      "type": "function"
    },
    {
      "inputs": [],
      "name": "updateAllSlidingWindow",
      "outputs": [],
      "stateMutability": "nonpayable",
      "type": "function"
    },
    {
      "inputs": [
        {
          "internalType": "contract LendTokenInterface",
          "name": "lendToken",
          "type": "address"
        },
        {
          "internalType": "uint256",
          "name": "underlyingPriceMantissa",
          "type": "uint256"
        }
      ],
      "name": "setUnderlyingPrice",
      "outputs": [],
      "stateMutability": "nonpayable",
      "type": "function"
    },
    {
      "inputs": [
        {
          "internalType": "address",
          "name": "asset",
          "type": "address"
        },
        {
          "internalType": "uint256",
          "name": "price",
          "type": "uint256"
        }
      ],
      "name": "setDirectPrice",
      "outputs": [],
      "stateMutability": "nonpayable",
      "type": "function"
    },
    {
      "inputs": [],
      "name": "getGoldPrice",
      "outputs": [
        {
          "internalType": "uint256",
          "name": "",
          "type": "uint256"
        }
      ],
      "stateMutability": "view",
      "type": "function"
    },
    {
      "inputs": [
        {
          "internalType": "uint256",
          "name": "underlyingPriceMantissa",
          "type": "uint256"
        }
      ],
      "name": "setGoldPrice",
      "outputs": [],
      "stateMutability": "nonpayable",
      "type": "function"
    },
    {
      "inputs": [
        {
          "internalType": "address",
          "name": "asset",
          "type": "address"
        }
      ],
      "name": "assetPrices",
      "outputs": [
        {
          "internalType": "uint256",
          "name": "",
          "type": "uint256"
        }
      ],
      "stateMutability": "view",
      "type": "function"
    },
    {
      "inputs": [
        {
          "internalType": "address",
          "name": "newAdmin",
          "type": "address"
        }
      ],
      "name": "setAdmin",
      "outputs": [],
      "stateMutability": "nonpayable",
      "type": "function"
    }
  ],
  "bytecode": "0x60806040523480156200001157600080fd5b50604051620023df380380620023df833981810160405281019062000037919062000231565b336000806101000a81548173ffffffffffffffffffffffffffffffffffffffff021916908373ffffffffffffffffffffffffffffffffffffffff16021790555080600360006101000a81548173ffffffffffffffffffffffffffffffffffffffff021916908373ffffffffffffffffffffffffffffffffffffffff16021790555081600260006101000a81548173ffffffffffffffffffffffffffffffffffffffff021916908373ffffffffffffffffffffffffffffffffffffffff16021790555082600160006101000a81548173ffffffffffffffffffffffffffffffffffffffff021916908373ffffffffffffffffffffffffffffffffffffffff16021790555083600660006101000a81548173ffffffffffffffffffffffffffffffffffffffff021916908373ffffffffffffffffffffffffffffffffffffffff16021790555084600760006101000a81548173ffffffffffffffffffffffffffffffffffffffff021916908373ffffffffffffffffffffffffffffffffffffffff1602179055505050505050620002b9565b600080fd5b600073ffffffffffffffffffffffffffffffffffffffff82169050919050565b6000620001f982620001cc565b9050919050565b6200020b81620001ec565b81146200021757600080fd5b50565b6000815190506200022b8162000200565b92915050565b600080600080600060a0868803121562000250576200024f620001c7565b5b600062000260888289016200021a565b955050602062000273888289016200021a565b945050604062000286888289016200021a565b935050606062000299888289016200021a565b9250506080620002ac888289016200021a565b9150509295509295909350565b61211680620002c96000396000f3fe608060405234801561001057600080fd5b50600436106101005760003560e01c806366331bba11610097578063bd378e8e11610066578063bd378e8e14610263578063da6bae1014610281578063f851a4401461029f578063fc57d4df146102bd57610100565b806366331bba146101ed578063704b6c021461020b57806381546f3f1461022757806384ce0cd41461024557610100565b8063370419e5116100d3578063370419e51461016357806344501404146101815780635e9a523c1461019f5780635efc071a146101cf57610100565b806309a8acb014610105578063127ffda01461012157806325446a151461013d5780632d02a5b214610147575b600080fd5b61011f600480360381019061011a9190611495565b6102ed565b005b61013b60048036038101906101369190611513565b61043f565b005b610145610605565b005b610161600480360381019061015c9190611553565b610bd1565b005b61016b610ca6565b604051610178919061158f565b60405180910390f35b610189610ccc565b60405161019691906115b9565b60405180910390f35b6101b960048036038101906101b491906115d4565b610cd2565b6040516101c691906115b9565b60405180910390f35b6101d7610d1b565b6040516101e4919061158f565b60405180910390f35b6101f5610d41565b604051610202919061161c565b60405180910390f35b610225600480360381019061022091906115d4565b610d4a565b005b61022f610e7b565b60405161023c9190611696565b60405180910390f35b61024d610ea1565b60405161025a919061158f565b60405180910390f35b61026b610ec7565b60405161027891906116d2565b60405180910390f35b610289610eed565b60405161029691906115b9565b60405180910390f35b6102a7610ef7565b6040516102b4919061158f565b60405180910390f35b6102d760048036038101906102d291906116ed565b610f1b565b6040516102e491906115b9565b60405180910390f35b60008054906101000a900473ffffffffffffffffffffffffffffffffffffffff1673ffffffffffffffffffffffffffffffffffffffff163373ffffffffffffffffffffffffffffffffffffffff161461037b576040517f08c379a000000000000000000000000000000000000000000000000000000000815260040161037290611777565b60405180910390fd5b7fdd71a1d19fcba687442a1d5c58578f1e409af71a79d10fd95a4d66efd8fa9ae782600560008573ffffffffffffffffffffffffffffffffffffffff1673ffffffffffffffffffffffffffffffffffffffff1681526020019081526020016000205483846040516103ef9493929190611797565b60405180910390a180600560008473ffffffffffffffffffffffffffffffffffffffff1673ffffffffffffffffffffffffffffffffffffffff168152602001908152602001600020819055505050565b60008054906101000a900473ffffffffffffffffffffffffffffffffffffffff1673ffffffffffffffffffffffffffffffffffffffff163373ffffffffffffffffffffffffffffffffffffffff16146104cd576040517f08c379a00000000000000000000000000000000000000000000000000000000081526004016104c49061184e565b60405180910390fd5b60008273ffffffffffffffffffffffffffffffffffffffff16636f307dc36040518163ffffffff1660e01b8152600401602060405180830381865afa15801561051a573d6000803e3d6000fd5b505050506040513d601f19601f8201168201806040525081019061053e9190611883565b90507fdd71a1d19fcba687442a1d5c58578f1e409af71a79d10fd95a4d66efd8fa9ae781600560008473ffffffffffffffffffffffffffffffffffffffff1673ffffffffffffffffffffffffffffffffffffffff1681526020019081526020016000205484856040516105b49493929190611797565b60405180910390a181600560008373ffffffffffffffffffffffffffffffffffffffff1673ffffffffffffffffffffffffffffffffffffffff16815260200190815260200160002081905550505050565b6000600760009054906101000a900473ffffffffffffffffffffffffffffffffffffffff1673ffffffffffffffffffffffffffffffffffffffff1663b0772d0b6040518163ffffffff1660e01b8152600401600060405180830381865afa158015610674573d6000803e3d6000fd5b505050506040513d6000823e3d601f19601f8201168201806040525081019061069d9190611a1e565b90506000600660009054906101000a900473ffffffffffffffffffffffffffffffffffffffff1690506000600160009054906101000a900473ffffffffffffffffffffffffffffffffffffffff169050600080600090505b8451811015610ae0576107ca85828151811061071457610713611a67565b5b602002602001015173ffffffffffffffffffffffffffffffffffffffff166395d89b416040518163ffffffff1660e01b8152600401600060405180830381865afa158015610766573d6000803e3d6000fd5b505050506040513d6000823e3d601f19601f8201168201806040525081019061078f9190611b6f565b6040518060400160405280600781526020017f6c656e6452454900000000000000000000000000000000000000000000000000815250611394565b156107f957600260009054906101000a900473ffffffffffffffffffffffffffffffffffffffff169150610956565b6108c585828151811061080f5761080e611a67565b5b602002602001015173ffffffffffffffffffffffffffffffffffffffff166395d89b416040518163ffffffff1660e01b8152600401600060405180830381865afa158015610861573d6000803e3d6000fd5b505050506040513d6000823e3d601f19601f8201168201806040525081019061088a9190611b6f565b6040518060400160405280600881526020017f6c656e6455534454000000000000000000000000000000000000000000000000815250611394565b610955578481815181106108dc576108db611a67565b5b602002602001015173ffffffffffffffffffffffffffffffffffffffff16636f307dc36040518163ffffffff1660e01b8152600401602060405180830381865afa15801561092e573d6000803e3d6000fd5b505050506040513d601f19601f820116820180604052508101906109529190611883565b91505b5b610a2285828151811061096c5761096b611a67565b5b602002602001015173ffffffffffffffffffffffffffffffffffffffff166395d89b416040518163ffffffff1660e01b8152600401600060405180830381865afa1580156109be573d6000803e3d6000fd5b505050506040513d6000823e3d601f19601f820116820180604052508101906109e79190611b6f565b6040518060400160405280600881526020017f6c656e6455534454000000000000000000000000000000000000000000000000815250611394565b610acd578373ffffffffffffffffffffffffffffffffffffffff1663c640752d83856040518363ffffffff1660e01b8152600401610a61929190611bb8565b600060405180830381600087803b158015610a7b57600080fd5b505af1158015610a8f573d6000803e3d6000fd5b505050507f98601ff6218793415e19f31dfc7054f66c7fd04c9ab9dd24b51f9e7df2fff0d28284604051610ac4929190611bb8565b60405180910390a15b8080610ad890611c10565b9150506106f5565b8373ffffffffffffffffffffffffffffffffffffffff1663c640752d600360009054906101000a900473ffffffffffffffffffffffffffffffffffffffff16856040518363ffffffff1660e01b8152600401610b3d929190611bb8565b600060405180830381600087803b158015610b5757600080fd5b505af1158015610b6b573d6000803e3d6000fd5b505050507f98601ff6218793415e19f31dfc7054f66c7fd04c9ab9dd24b51f9e7df2fff0d2600360009054906101000a900473ffffffffffffffffffffffffffffffffffffffff1684604051610bc2929190611bb8565b60405180910390a15050505050565b60008054906101000a900473ffffffffffffffffffffffffffffffffffffffff1673ffffffffffffffffffffffffffffffffffffffff163373ffffffffffffffffffffffffffffffffffffffff1614610c5f576040517f08c379a0000000000000000000000000000000000000000000000000000000008152600401610c5690611ca5565b60405180910390fd5b806004819055507fe648fc41c2dd51fe241f1f2d3778d817ec78d4e455a664a1d27af9c640f6f33d6004548283604051610c9b93929190611cc5565b60405180910390a150565b600360009054906101000a900473ffffffffffffffffffffffffffffffffffffffff1681565b60045481565b6000600560008373ffffffffffffffffffffffffffffffffffffffff1673ffffffffffffffffffffffffffffffffffffffff168152602001908152602001600020549050919050565b600160009054906101000a900473ffffffffffffffffffffffffffffffffffffffff1681565b60006001905090565b60008054906101000a900473ffffffffffffffffffffffffffffffffffffffff1673ffffffffffffffffffffffffffffffffffffffff163373ffffffffffffffffffffffffffffffffffffffff1614610dd8576040517f08c379a0000000000000000000000000000000000000000000000000000000008152600401610dcf90611ca5565b60405180910390fd5b60008060009054906101000a900473ffffffffffffffffffffffffffffffffffffffff169050816000806101000a81548173ffffffffffffffffffffffffffffffffffffffff021916908373ffffffffffffffffffffffffffffffffffffffff1602179055507ff9ffabca9c8276e99321725bcb43fb076a6c66a54b7f21c4e8146d8519b417dc8183604051610e6f929190611bb8565b60405180910390a15050565b600660009054906101000a900473ffffffffffffffffffffffffffffffffffffffff1681565b600260009054906101000a900473ffffffffffffffffffffffffffffffffffffffff1681565b600760009054906101000a900473ffffffffffffffffffffffffffffffffffffffff1681565b6000600454905090565b60008054906101000a900473ffffffffffffffffffffffffffffffffffffffff1681565b600080600160009054906101000a900473ffffffffffffffffffffffffffffffffffffffff169050600080610ff88573ffffffffffffffffffffffffffffffffffffffff166395d89b416040518163ffffffff1660e01b8152600401600060405180830381865afa158015610f94573d6000803e3d6000fd5b505050506040513d6000823e3d601f19601f82011682018060405250810190610fbd9190611b6f565b6040518060400160405280600781526020017f6c656e6452454900000000000000000000000000000000000000000000000000815250611394565b1561102757600260009054906101000a900473ffffffffffffffffffffffffffffffffffffffff169050611163565b6110d98573ffffffffffffffffffffffffffffffffffffffff166395d89b416040518163ffffffff1660e01b8152600401600060405180830381865afa158015611075573d6000803e3d6000fd5b505050506040513d6000823e3d601f19601f8201168201806040525081019061109e9190611b6f565b6040518060400160405280600881526020017f6c656e6455534454000000000000000000000000000000000000000000000000815250611394565b156110f157670de0b6b3a7640000935050505061138f565b8473ffffffffffffffffffffffffffffffffffffffff16636f307dc36040518163ffffffff1660e01b8152600401602060405180830381865afa15801561113c573d6000803e3d6000fd5b505050506040513d601f19601f820116820180604052508101906111609190611883565b90505b6000600560008373ffffffffffffffffffffffffffffffffffffffff1673ffffffffffffffffffffffffffffffffffffffff16815260200190815260200160002054146111f157600560008273ffffffffffffffffffffffffffffffffffffffff1673ffffffffffffffffffffffffffffffffffffffff16815260200190815260200160002054915061129c565b600660009054906101000a900473ffffffffffffffffffffffffffffffffffffffff1673ffffffffffffffffffffffffffffffffffffffff16638c86f1e482670de0b6b3a7640000866040518463ffffffff1660e01b815260040161125893929190611d37565b602060405180830381865afa158015611275573d6000803e3d6000fd5b505050506040513d601f19601f820116820180604052508101906112999190611d83565b91505b60006012905060008273ffffffffffffffffffffffffffffffffffffffff1663313ce5676040518163ffffffff1660e01b8152600401602060405180830381865afa1580156112ef573d6000803e3d6000fd5b505050506040513d601f19601f820116820180604052508101906113139190611de9565b60ff1690508082141561132d57839550505050505061138f565b808211156113645780826113419190611e16565b600a61134d9190611f7d565b846113589190611fc8565b9550505050505061138f565b81816113709190611e16565b600a61137c9190611f7d565b846113879190612051565b955050505050505b919050565b6000816040516020016113a791906120c9565b60405160208183030381529060405280519060200120836040516020016113ce91906120c9565b6040516020818303038152906040528051906020012014905092915050565b6000604051905090565b600080fd5b600080fd5b600073ffffffffffffffffffffffffffffffffffffffff82169050919050565b600061142c82611401565b9050919050565b61143c81611421565b811461144757600080fd5b50565b60008135905061145981611433565b92915050565b6000819050919050565b6114728161145f565b811461147d57600080fd5b50565b60008135905061148f81611469565b92915050565b600080604083850312156114ac576114ab6113f7565b5b60006114ba8582860161144a565b92505060206114cb85828601611480565b9150509250929050565b60006114e082611421565b9050919050565b6114f0816114d5565b81146114fb57600080fd5b50565b60008135905061150d816114e7565b92915050565b6000806040838503121561152a576115296113f7565b5b6000611538858286016114fe565b925050602061154985828601611480565b9150509250929050565b600060208284031215611569576115686113f7565b5b600061157784828501611480565b91505092915050565b61158981611421565b82525050565b60006020820190506115a46000830184611580565b92915050565b6115b38161145f565b82525050565b60006020820190506115ce60008301846115aa565b92915050565b6000602082840312156115ea576115e96113f7565b5b60006115f88482850161144a565b91505092915050565b60008115159050919050565b61161681611601565b82525050565b6000602082019050611631600083018461160d565b92915050565b6000819050919050565b600061165c61165761165284611401565b611637565b611401565b9050919050565b600061166e82611641565b9050919050565b600061168082611663565b9050919050565b61169081611675565b82525050565b60006020820190506116ab6000830184611687565b92915050565b60006116bc82611663565b9050919050565b6116cc816116b1565b82525050565b60006020820190506116e760008301846116c3565b92915050565b600060208284031215611703576117026113f7565b5b6000611711848285016114fe565b91505092915050565b600082825260208201905092915050565b7f6f6e6c792061646d696e2063616e207365742070726963650000000000000000600082015250565b600061176160188361171a565b915061176c8261172b565b602082019050919050565b6000602082019050818103600083015261179081611754565b9050919050565b60006080820190506117ac6000830187611580565b6117b960208301866115aa565b6117c660408301856115aa565b6117d360608301846115aa565b95945050505050565b7f6f6e6c792061646d696e2063616e2073657420756e6465726c79696e6720707260008201527f6963650000000000000000000000000000000000000000000000000000000000602082015250565b600061183860238361171a565b9150611843826117dc565b604082019050919050565b600060208201905081810360008301526118678161182b565b9050919050565b60008151905061187d81611433565b92915050565b600060208284031215611899576118986113f7565b5b60006118a78482850161186e565b91505092915050565b600080fd5b6000601f19601f8301169050919050565b7f4e487b7100000000000000000000000000000000000000000000000000000000600052604160045260246000fd5b6118fe826118b5565b810181811067ffffffffffffffff8211171561191d5761191c6118c6565b5b80604052505050565b60006119306113ed565b905061193c82826118f5565b919050565b600067ffffffffffffffff82111561195c5761195b6118c6565b5b602082029050602081019050919050565b600080fd5b600081519050611981816114e7565b92915050565b600061199a61199584611941565b611926565b905080838252602082019050602084028301858111156119bd576119bc61196d565b5b835b818110156119e657806119d28882611972565b8452602084019350506020810190506119bf565b5050509392505050565b600082601f830112611a0557611a046118b0565b5b8151611a15848260208601611987565b91505092915050565b600060208284031215611a3457611a336113f7565b5b600082015167ffffffffffffffff811115611a5257611a516113fc565b5b611a5e848285016119f0565b91505092915050565b7f4e487b7100000000000000000000000000000000000000000000000000000000600052603260045260246000fd5b600080fd5b600067ffffffffffffffff821115611ab657611ab56118c6565b5b611abf826118b5565b9050602081019050919050565b60005b83811015611aea578082015181840152602081019050611acf565b83811115611af9576000848401525b50505050565b6000611b12611b0d84611a9b565b611926565b905082815260208101848484011115611b2e57611b2d611a96565b5b611b39848285611acc565b509392505050565b600082601f830112611b5657611b556118b0565b5b8151611b66848260208601611aff565b91505092915050565b600060208284031215611b8557611b846113f7565b5b600082015167ffffffffffffffff811115611ba357611ba26113fc565b5b611baf84828501611b41565b91505092915050565b6000604082019050611bcd6000830185611580565b611bda6020830184611580565b9392505050565b7f4e487b7100000000000000000000000000000000000000000000000000000000600052601160045260246000fd5b6000611c1b8261145f565b91507fffffffffffffffffffffffffffffffffffffffffffffffffffffffffffffffff821415611c4e57611c4d611be1565b5b600182019050919050565b7f6f6e6c792061646d696e2063616e20736574206e65772061646d696e00000000600082015250565b6000611c8f601c8361171a565b9150611c9a82611c59565b602082019050919050565b60006020820190508181036000830152611cbe81611c82565b9050919050565b6000606082019050611cda60008301866115aa565b611ce760208301856115aa565b611cf460408301846115aa565b949350505050565b6000819050919050565b6000611d21611d1c611d1784611cfc565b611637565b61145f565b9050919050565b611d3181611d06565b82525050565b6000606082019050611d4c6000830186611580565b611d596020830185611d28565b611d666040830184611580565b949350505050565b600081519050611d7d81611469565b92915050565b600060208284031215611d9957611d986113f7565b5b6000611da784828501611d6e565b91505092915050565b600060ff82169050919050565b611dc681611db0565b8114611dd157600080fd5b50565b600081519050611de381611dbd565b92915050565b600060208284031215611dff57611dfe6113f7565b5b6000611e0d84828501611dd4565b91505092915050565b6000611e218261145f565b9150611e2c8361145f565b925082821015611e3f57611e3e611be1565b5b828203905092915050565b60008160011c9050919050565b6000808291508390505b6001851115611ea157808604811115611e7d57611e7c611be1565b5b6001851615611e8c5780820291505b8081029050611e9a85611e4a565b9450611e61565b94509492505050565b600082611eba5760019050611f76565b81611ec85760009050611f76565b8160018114611ede5760028114611ee857611f17565b6001915050611f76565b60ff841115611efa57611ef9611be1565b5b8360020a915084821115611f1157611f10611be1565b5b50611f76565b5060208310610133831016604e8410600b8410161715611f4c5782820a905083811115611f4757611f46611be1565b5b611f76565b611f598484846001611e57565b92509050818404811115611f7057611f6f611be1565b5b81810290505b9392505050565b6000611f888261145f565b9150611f938361145f565b9250611fc07fffffffffffffffffffffffffffffffffffffffffffffffffffffffffffffffff8484611eaa565b905092915050565b6000611fd38261145f565b9150611fde8361145f565b9250817fffffffffffffffffffffffffffffffffffffffffffffffffffffffffffffffff048311821515161561201757612016611be1565b5b828202905092915050565b7f4e487b7100000000000000000000000000000000000000000000000000000000600052601260045260246000fd5b600061205c8261145f565b91506120678361145f565b92508261207757612076612022565b5b828204905092915050565b600081519050919050565b600081905092915050565b60006120a382612082565b6120ad818561208d565b93506120bd818560208601611acc565b80840191505092915050565b60006120d58284612098565b91508190509291505056fea26469706673582212204e7c0b656aa6e2b08271e34332722bf153fffd0fbea731bb50d70290b5732ff764736f6c634300080c0033",
  "immutableReferences": {},
  "source": "// SPDX-License-Identifier: MIT\r\npragma solidity ^0.8.0;\r\nimport \"./interface/ComptrollerInterface.sol\";\r\nimport \"./interface/ISlidingWindow.sol\";\r\nimport \"@openzeppelin/contracts/token/ERC20/ERC20.sol\";\r\n\r\ncontract AurumPriceOracle is PriceOracle {\r\n    //\r\n    // This version we reference price to Tether USDT, if the USDT is off pegged the price may go wrong.\r\n    //\r\n\r\n    address public admin;\r\n    \r\n    address public tether; // Tether used in reference price to the wanted TOKENs price\r\n    address public wrei; // Wrapped REI address\r\n    address public arm; // Governance token of AURUM DeFi\r\n\r\n    uint public goldPrice;\r\n    mapping(address => uint) prices;  //Manual set price, use in emergency case\r\n\r\n    ISlidingWindow public slidingWindow;\r\n    ComptrollerStorageInterface public compStorage;\r\n\r\n    event PricePosted(address asset, uint previousPriceMantissa, uint requestedPriceMantissa, uint newPriceMantissa);\r\n    event GoldPricePosted(uint previousGoldPriceMantissa, uint requestedGoldPriceMantissa, uint newGoldPriceMantissa);\r\n    event NewAdmin(address oldAdmin, address newAdmin);\r\n    event UpdatePriceSlidingWindow (address tokenA, address tokenB);\r\n\r\n\r\n    constructor(address compStorage_, address slidingWindow_,address tether_, address wrei_, address arm_) {\r\n        admin = msg.sender;\r\n        arm = arm_;\r\n        wrei = wrei_;\r\n        tether = tether_; // reference USDT as a mean of exchange\r\n        slidingWindow = ISlidingWindow(slidingWindow_);\r\n        compStorage = ComptrollerStorageInterface(compStorage_);\r\n    }\r\n    function isPriceOracle() external pure returns(bool) {\r\n        return true;\r\n    }\r\n\r\n    function getUnderlyingPrice(LendTokenInterface lendToken) external view returns (uint) {\r\n\r\n        address usdt  = tether;\r\n        uint256 price;\r\n        address token;\r\n\r\n        //LendREI doesn't have underlying variable.\r\n        if (compareStrings(lendToken.symbol(), \"lendREI\")) {\r\n            token = wrei;\r\n        }else {\r\n            if(compareStrings(lendToken.symbol(), \"lendUSDT\")){\r\n                return 1e18; // return price = 1 USDT: 1 USDT\r\n            } else {\r\n                token = lendToken.underlying();\r\n            }\r\n        }\r\n\r\n        if(prices[token] != 0) {\r\n            // Manual feed by admin\r\n            price = prices[token];\r\n        } else {\r\n            // TWAP Uniswap v2 called\r\n            price = slidingWindow.consult(token,1e18,usdt);\r\n\r\n        }\r\n\r\n        uint256 defaultDecimal = 18;\r\n        uint256 tokenDecimal = uint256(ERC20(token).decimals());\r\n\r\n        if(defaultDecimal == tokenDecimal) {\r\n            return price;\r\n        } else if(defaultDecimal > tokenDecimal) {\r\n            return price * (10**(defaultDecimal-tokenDecimal));\r\n        } else {\r\n            return price / (10**(tokenDecimal-defaultDecimal));\r\n        }\r\n    }\r\n\r\n    function updateAllSlidingWindow() external {\r\n        LendTokenInterface[] memory lendToken = compStorage.getAllMarkets();\r\n        ISlidingWindow uniswapOracle = slidingWindow;\r\n        address usdt = tether;\r\n        address underlying;\r\n        uint i;\r\n        for(i=0;i<lendToken.length;i++){\r\n            //We compare each underlying to Tether USDT\r\n            //We need bot to update the price of each pair\r\n            if (compareStrings(lendToken[i].symbol(), \"lendREI\")) {\r\n                underlying = wrei;\r\n            } else {\r\n                if (!compareStrings(lendToken[i].symbol(), \"lendUSDT\")) {\r\n                    underlying = lendToken[i].underlying();\r\n                }\r\n            }\r\n            //USDT is set to 1\r\n            if (!compareStrings(lendToken[i].symbol(), \"lendUSDT\")) {    \r\n                uniswapOracle.update(underlying, usdt);\r\n                emit UpdatePriceSlidingWindow(underlying, usdt);\r\n            }\r\n        }\r\n        uniswapOracle.update(arm, usdt);\r\n        emit UpdatePriceSlidingWindow(arm, usdt);\r\n    }\r\n\r\n    function setUnderlyingPrice(LendTokenInterface lendToken, uint underlyingPriceMantissa) external {\r\n        require(msg.sender == admin, \"only admin can set underlying price\");\r\n        address asset = address(LendTokenInterface(address(lendToken)).underlying());\r\n        emit PricePosted(asset, prices[asset], underlyingPriceMantissa, underlyingPriceMantissa);\r\n        prices[asset] = underlyingPriceMantissa;\r\n    }\r\n\r\n    function setDirectPrice(address asset, uint price) external {\r\n        require(msg.sender == admin, \"only admin can set price\");\r\n        emit PricePosted(asset, prices[asset], price, price);\r\n        prices[asset] = price;\r\n    }\r\n\r\n    function getGoldPrice() external view returns(uint){\r\n        return goldPrice;\r\n    }\r\n    \r\n    function setGoldPrice(uint underlyingPriceMantissa) external {      //Manually set gold price\r\n        require(msg.sender == admin, \"only admin can set new admin\");\r\n        goldPrice = underlyingPriceMantissa;\r\n        emit GoldPricePosted(goldPrice, underlyingPriceMantissa, underlyingPriceMantissa);\r\n    }\r\n\r\n    function assetPrices(address asset) external view returns (uint) {\r\n        return prices[asset];\r\n    }\r\n\r\n    function compareStrings(string memory a, string memory b) internal pure returns (bool) {\r\n        return (keccak256(abi.encodePacked((a))) == keccak256(abi.encodePacked((b))));\r\n    }\r\n\r\n    function setAdmin(address newAdmin) external {\r\n        require(msg.sender == admin, \"only admin can set new admin\");\r\n        address oldAdmin = admin;\r\n        admin = newAdmin;\r\n\r\n        emit NewAdmin(oldAdmin, newAdmin);\r\n    }\r\n}",
  "sourcePath": "C:\\Users\\chana\\desktop\\aurumdefi\\src\\contracts\\AurumPriceOracle.sol",
  "compiler": {
    "name": "solc",
    "version": "0.8.12+commit.f00d7308.Emscripten.clang"
  },
  "schemaVersion": "3.4.6",
  "updatedAt": "2022-03-28T07:40:49.091Z",
  "devdoc": {
    "kind": "dev",
    "methods": {},
    "version": 1
  },
  "userdoc": {
    "kind": "user",
    "methods": {},
    "version": 1
  }
}