{
  "contractName": "AurumController",
  "abi": [
    {
      "inputs": [
        {
          "internalType": "address",
          "name": "aurum_",
          "type": "address"
        }
      ],
      "stateMutability": "nonpayable",
      "type": "constructor"
    },
    {
      "anonymous": false,
      "inputs": [
        {
          "indexed": false,
          "internalType": "address",
          "name": "liquidator",
          "type": "address"
        },
        {
          "indexed": false,
          "internalType": "address",
          "name": "borrower",
          "type": "address"
        },
        {
          "indexed": false,
          "internalType": "uint256",
          "name": "repayAmount",
          "type": "uint256"
        },
        {
          "indexed": false,
          "internalType": "address",
          "name": "LendTokenCollateral",
          "type": "address"
        },
        {
          "indexed": false,
          "internalType": "uint256",
          "name": "seizeTokens",
          "type": "uint256"
        }
      ],
      "name": "LiquidateGold",
      "type": "event"
    },
    {
      "anonymous": false,
      "inputs": [
        {
          "indexed": false,
          "internalType": "address",
          "name": "minter",
          "type": "address"
        },
        {
          "indexed": false,
          "internalType": "uint256",
          "name": "feeAmount",
          "type": "uint256"
        }
      ],
      "name": "MintFee",
      "type": "event"
    },
    {
      "anonymous": false,
      "inputs": [
        {
          "indexed": false,
          "internalType": "address",
          "name": "minter",
          "type": "address"
        },
        {
          "indexed": false,
          "internalType": "uint256",
          "name": "mintGoldAmount",
          "type": "uint256"
        }
      ],
      "name": "MintGOLD",
      "type": "event"
    },
    {
      "anonymous": false,
      "inputs": [
        {
          "indexed": false,
          "internalType": "address",
          "name": "oldAURUMAddress",
          "type": "address"
        },
        {
          "indexed": false,
          "internalType": "address",
          "name": "newAURUMAddress",
          "type": "address"
        }
      ],
      "name": "NewAURUMAddress",
      "type": "event"
    },
    {
      "anonymous": false,
      "inputs": [
        {
          "indexed": false,
          "internalType": "contract ComptrollerInterface",
          "name": "oldComptroller",
          "type": "address"
        },
        {
          "indexed": false,
          "internalType": "contract ComptrollerInterface",
          "name": "newComptroller",
          "type": "address"
        }
      ],
      "name": "NewComptroller",
      "type": "event"
    },
    {
      "anonymous": false,
      "inputs": [
        {
          "indexed": false,
          "internalType": "address",
          "name": "oldTreasuryAddress",
          "type": "address"
        },
        {
          "indexed": false,
          "internalType": "address",
          "name": "newTreasuryAddress",
          "type": "address"
        }
      ],
      "name": "NewTreasuryAddress",
      "type": "event"
    },
    {
      "anonymous": false,
      "inputs": [
        {
          "indexed": false,
          "internalType": "address",
          "name": "oldTreasuryGuardian",
          "type": "address"
        },
        {
          "indexed": false,
          "internalType": "address",
          "name": "newTreasuryGuardian",
          "type": "address"
        }
      ],
      "name": "NewTreasuryGuardian",
      "type": "event"
    },
    {
      "anonymous": false,
      "inputs": [
        {
          "indexed": false,
          "internalType": "uint256",
          "name": "oldTreasuryPercent",
          "type": "uint256"
        },
        {
          "indexed": false,
          "internalType": "uint256",
          "name": "newTreasuryPercent",
          "type": "uint256"
        }
      ],
      "name": "NewTreasuryPercent",
      "type": "event"
    },
    {
      "anonymous": false,
      "inputs": [
        {
          "indexed": false,
          "internalType": "address",
          "name": "payer",
          "type": "address"
        },
        {
          "indexed": false,
          "internalType": "address",
          "name": "borrower",
          "type": "address"
        },
        {
          "indexed": false,
          "internalType": "uint256",
          "name": "repayGoldAmount",
          "type": "uint256"
        }
      ],
      "name": "RepayGOLD",
      "type": "event"
    },
    {
      "inputs": [],
      "name": "admin",
      "outputs": [
        {
          "internalType": "address",
          "name": "",
          "type": "address"
        }
      ],
      "stateMutability": "view",
      "type": "function"
    },
    {
      "inputs": [],
      "name": "aurumAddress",
      "outputs": [
        {
          "internalType": "address",
          "name": "",
          "type": "address"
        }
      ],
      "stateMutability": "view",
      "type": "function"
    },
    {
      "inputs": [
        {
          "internalType": "address",
          "name": "",
          "type": "address"
        }
      ],
      "name": "aurumGOLDMinterIndex",
      "outputs": [
        {
          "internalType": "uint256",
          "name": "",
          "type": "uint256"
        }
      ],
      "stateMutability": "view",
      "type": "function"
    },
    {
      "inputs": [],
      "name": "aurumGOLDState",
      "outputs": [
        {
          "internalType": "uint256",
          "name": "index",
          "type": "uint256"
        },
        {
          "internalType": "uint256",
          "name": "lastTimestamp",
          "type": "uint256"
        }
      ],
      "stateMutability": "view",
      "type": "function"
    },
    {
      "inputs": [],
      "name": "comptroller",
      "outputs": [
        {
          "internalType": "contract ComptrollerInterface",
          "name": "",
          "type": "address"
        }
      ],
      "stateMutability": "view",
      "type": "function"
    },
    {
      "inputs": [],
      "name": "goldInitialIndex",
      "outputs": [
        {
          "internalType": "uint256",
          "name": "",
          "type": "uint256"
        }
      ],
      "stateMutability": "view",
      "type": "function"
    },
    {
      "inputs": [
        {
          "internalType": "uint256",
          "name": "",
          "type": "uint256"
        }
      ],
      "name": "goldMinterAddress",
      "outputs": [
        {
          "internalType": "address",
          "name": "",
          "type": "address"
        }
      ],
      "stateMutability": "view",
      "type": "function"
    },
    {
      "inputs": [],
      "name": "treasuryAddress",
      "outputs": [
        {
          "internalType": "address",
          "name": "",
          "type": "address"
        }
      ],
      "stateMutability": "view",
      "type": "function"
    },
    {
      "inputs": [],
      "name": "treasuryGuardian",
      "outputs": [
        {
          "internalType": "address",
          "name": "",
          "type": "address"
        }
      ],
      "stateMutability": "view",
      "type": "function"
    },
    {
      "inputs": [],
      "name": "treasuryPercent",
      "outputs": [
        {
          "internalType": "uint256",
          "name": "",
          "type": "uint256"
        }
      ],
      "stateMutability": "view",
      "type": "function"
    },
    {
      "inputs": [],
      "name": "getGoldMinter",
      "outputs": [
        {
          "internalType": "address[]",
          "name": "",
          "type": "address[]"
        }
      ],
      "stateMutability": "view",
      "type": "function"
    },
    {
      "inputs": [
        {
          "internalType": "uint256",
          "name": "mintGOLDAmount",
          "type": "uint256"
        }
      ],
      "name": "mintGOLD",
      "outputs": [],
      "stateMutability": "nonpayable",
      "type": "function"
    },
    {
      "inputs": [
        {
          "internalType": "uint256",
          "name": "repayGOLDAmount",
          "type": "uint256"
        }
      ],
      "name": "repayGOLD",
      "outputs": [
        {
          "internalType": "uint256",
          "name": "",
          "type": "uint256"
        }
      ],
      "stateMutability": "nonpayable",
      "type": "function"
    },
    {
      "inputs": [
        {
          "internalType": "address",
          "name": "borrower",
          "type": "address"
        },
        {
          "internalType": "uint256",
          "name": "repayAmount",
          "type": "uint256"
        },
        {
          "internalType": "contract LendTokenInterface",
          "name": "lendTokenCollateral",
          "type": "address"
        }
      ],
      "name": "liquidateGOLD",
      "outputs": [
        {
          "internalType": "uint256",
          "name": "",
          "type": "uint256"
        }
      ],
      "stateMutability": "nonpayable",
      "type": "function"
    },
    {
      "inputs": [
        {
          "internalType": "contract ComptrollerInterface",
          "name": "comptroller_",
          "type": "address"
        }
      ],
      "name": "_setComptroller",
      "outputs": [],
      "stateMutability": "nonpayable",
      "type": "function"
    },
    {
      "inputs": [
        {
          "internalType": "address",
          "name": "minter",
          "type": "address"
        }
      ],
      "name": "getMintableGOLD",
      "outputs": [
        {
          "internalType": "uint256",
          "name": "",
          "type": "uint256"
        }
      ],
      "stateMutability": "view",
      "type": "function"
    },
    {
      "inputs": [
        {
          "internalType": "address",
          "name": "newTreasuryGuardian",
          "type": "address"
        },
        {
          "internalType": "address",
          "name": "newTreasuryAddress",
          "type": "address"
        },
        {
          "internalType": "uint256",
          "name": "newTreasuryPercent",
          "type": "uint256"
        }
      ],
      "name": "_setTreasuryData",
      "outputs": [],
      "stateMutability": "nonpayable",
      "type": "function"
    },
    {
      "inputs": [],
      "name": "getTimestamp",
      "outputs": [
        {
          "internalType": "uint256",
          "name": "",
          "type": "uint256"
        }
      ],
      "stateMutability": "view",
      "type": "function"
    },
    {
      "inputs": [],
      "name": "getAURUMAddress",
      "outputs": [
        {
          "internalType": "address",
          "name": "",
          "type": "address"
        }
      ],
      "stateMutability": "view",
      "type": "function"
    },
    {
      "inputs": [
        {
          "internalType": "address",
          "name": "newAURUMAddress",
          "type": "address"
        }
      ],
      "name": "_setAURUMAddress",
      "outputs": [],
      "stateMutability": "nonpayable",
      "type": "function"
    }
  ],
  "bytecode": "0x60806040523480156200001157600080fd5b50604051620038193803806200381983398181016040528101906200003791906200019f565b33600160006101000a81548173ffffffffffffffffffffffffffffffffffffffff021916908373ffffffffffffffffffffffffffffffffffffffff16021790555080600260006101000a81548173ffffffffffffffffffffffffffffffffffffffff021916908373ffffffffffffffffffffffffffffffffffffffff1602179055506001600960006101000a81548160ff0219169083151502179055506000620000e66200012d60201b60201c565b905060405180604001604052806ec097ce7bc90715b34b9f1000000000815260200182815250600360008201518160000155602082015181600101559050505050620001d1565b600042905090565b600080fd5b600073ffffffffffffffffffffffffffffffffffffffff82169050919050565b600062000167826200013a565b9050919050565b62000179816200015a565b81146200018557600080fd5b50565b60008151905062000199816200016e565b92915050565b600060208284031215620001b857620001b762000135565b5b6000620001c88482850162000188565b91505092915050565b61363880620001e16000396000f3fe608060405234801561001057600080fd5b506004361061012c5760003560e01c8063968aed99116100ad578063efdd0bbe11610071578063efdd0bbe14610335578063f851a44014610354578063fc3f271414610372578063fc67a3db14610390578063fcc2e343146103ac5761012c565b8063968aed991461028f578063a71fdc97146102bf578063b2eafc39146102dd578063c5f956af146102fb578063d24febad146103195761012c565b8063452f5be1116100f4578063452f5be1146101eb5780634576b5db146102095780635fe3b567146102255780636742d00b146102435780638ae56cff1461025f5761012c565b80630127b29e1461013157806303ddf9861461014f57806304ef9d581461017f578063188ec3561461019d5780632086e1ee146101bb575b600080fd5b6101396103dc565b604051610146919061240e565b60405180910390f35b61016960048036038101906101649190612473565b610406565b604051610176919061240e565b60405180910390f35b610187610445565b60405161019491906124af565b60405180910390f35b6101a561044b565b6040516101b291906124af565b60405180910390f35b6101d560048036038101906101d091906124f6565b610453565b6040516101e291906124af565b60405180910390f35b6101f361046b565b60405161020091906124af565b60405180910390f35b610223600480360381019061021e9190612561565b61047e565b005b61022d6105b1565b60405161023a91906125ed565b60405180910390f35b61025d60048036038101906102589190612473565b6105d5565b005b610279600480360381019061027491906124f6565b610ccf565b60405161028691906124af565b60405180910390f35b6102a960048036038101906102a49190612646565b6112d7565b6040516102b691906124af565b60405180910390f35b6102c76114a2565b6040516102d4919061240e565b60405180910390f35b6102e56114c8565b6040516102f2919061240e565b60405180910390f35b6103036114ee565b604051610310919061240e565b60405180910390f35b610333600480360381019061032e9190612699565b611514565b005b61033d6117d7565b60405161034b9291906126ec565b60405180910390f35b61035c6117e9565b604051610369919061240e565b60405180910390f35b61037a61180f565b60405161038791906127d3565b60405180910390f35b6103aa60048036038101906103a591906124f6565b61189d565b005b6103c660048036038101906103c19190612473565b6119d2565b6040516103d391906124af565b60405180910390f35b6000600260009054906101000a900473ffffffffffffffffffffffffffffffffffffffff16905090565b600a818154811061041657600080fd5b906000526020600020016000915054906101000a900473ffffffffffffffffffffffffffffffffffffffff1681565b60085481565b600042905090565b60056020528060005260406000206000915090505481565b6ec097ce7bc90715b34b9f100000000081565b600160009054906101000a900473ffffffffffffffffffffffffffffffffffffffff1673ffffffffffffffffffffffffffffffffffffffff163373ffffffffffffffffffffffffffffffffffffffff161461050e576040517f08c379a000000000000000000000000000000000000000000000000000000000815260040161050590612852565b60405180910390fd5b60008060009054906101000a900473ffffffffffffffffffffffffffffffffffffffff169050816000806101000a81548173ffffffffffffffffffffffffffffffffffffffff021916908373ffffffffffffffffffffffffffffffffffffffff1602179055507f7ac369dbd14fa5ea3f473ed67cc9d598964a77501540ba6751eb0b3decf5870d81836040516105a5929190612872565b60405180910390a15050565b60008054906101000a900473ffffffffffffffffffffffffffffffffffffffff1681565b600960009054906101000a900460ff16610624576040517f08c379a000000000000000000000000000000000000000000000000000000000815260040161061b906128e7565b60405180910390fd5b6000600960006101000a81548160ff021916908315150217905550600073ffffffffffffffffffffffffffffffffffffffff1660008054906101000a900473ffffffffffffffffffffffffffffffffffffffff1673ffffffffffffffffffffffffffffffffffffffff1614156106cf576040517f08c379a00000000000000000000000000000000000000000000000000000000081526004016106c690612953565b60405180910390fd5b60008111610712576040517f08c379a0000000000000000000000000000000000000000000000000000000008152600401610709906129bf565b60405180910390fd5b60008054906101000a900473ffffffffffffffffffffffffffffffffffffffff1673ffffffffffffffffffffffffffffffffffffffff1663dac885616040518163ffffffff1660e01b8152600401602060405180830381865afa15801561077d573d6000803e3d6000fd5b505050506040513d601f19601f820116820180604052508101906107a19190612a17565b156107e1576040517f08c379a00000000000000000000000000000000000000000000000000000000081526004016107d890612a90565b60405180910390fd5b6107e9612367565b60003390506107f781610ccf565b8260400181815250508160400151831115610847576040517f08c379a000000000000000000000000000000000000000000000000000000000815260040161083e90612afc565b60405180910390fd5b8260008054906101000a900473ffffffffffffffffffffffffffffffffffffffff1673ffffffffffffffffffffffffffffffffffffffff1663da7983f5836040518263ffffffff1660e01b81526004016108a1919061240e565b602060405180830381865afa1580156108be573d6000803e3d6000fd5b505050506040513d601f19601f820116820180604052508101906108e29190612b31565b6108ec9190612b8d565b82602001818152505060008054906101000a900473ffffffffffffffffffffffffffffffffffffffff1673ffffffffffffffffffffffffffffffffffffffff1663329a16f48284602001516040518363ffffffff1660e01b8152600401610954929190612be3565b600060405180830381600087803b15801561096e57600080fd5b505af1158015610982573d6000803e3d6000fd5b5050505060008084846000018181525050600060085414610ac85760085484600001516109af9190612c0c565b9150670de0b6b3a7640000826109c59190612c95565b91508184600001516109d79190612cc6565b9050600260009054906101000a900473ffffffffffffffffffffffffffffffffffffffff1673ffffffffffffffffffffffffffffffffffffffff166340c10f19600760009054906101000a900473ffffffffffffffffffffffffffffffffffffffff16846040518363ffffffff1660e01b8152600401610a58929190612be3565b600060405180830381600087803b158015610a7257600080fd5b505af1158015610a86573d6000803e3d6000fd5b505050507fb0715a6d41a37c1b0672c22c09a31a0642c1fb3f9efa2d5fd5c6d2d891ee78c68383604051610abb929190612be3565b60405180910390a1610ad0565b836000015190505b60001515600b60008573ffffffffffffffffffffffffffffffffffffffff1673ffffffffffffffffffffffffffffffffffffffff16815260200190815260200160002060009054906101000a900460ff1615151415610be5576001600b60008573ffffffffffffffffffffffffffffffffffffffff1673ffffffffffffffffffffffffffffffffffffffff16815260200190815260200160002060006101000a81548160ff021916908315150217905550600a839080600181540180825580915050600190039060005260206000200160009091909190916101000a81548173ffffffffffffffffffffffffffffffffffffffff021916908373ffffffffffffffffffffffffffffffffffffffff1602179055505b600260009054906101000a900473ffffffffffffffffffffffffffffffffffffffff1673ffffffffffffffffffffffffffffffffffffffff166340c10f1984836040518363ffffffff1660e01b8152600401610c42929190612be3565b600060405180830381600087803b158015610c5c57600080fd5b505af1158015610c70573d6000803e3d6000fd5b505050507fdf937c9e1353bbd3150c8884a442790cae0c465e84cf228eda290e91b8e640878382604051610ca5929190612be3565b60405180910390a1505050506001600960006101000a81548160ff02191690831515021790555050565b60008060008054906101000a900473ffffffffffffffffffffffffffffffffffffffff1673ffffffffffffffffffffffffffffffffffffffff16638a45dd7d6040518163ffffffff1660e01b8152600401602060405180830381865afa158015610d3d573d6000803e3d6000fd5b505050506040513d601f19601f82011682018060405250810190610d619190612d0f565b9050600081905060008060009054906101000a900473ffffffffffffffffffffffffffffffffffffffff1673ffffffffffffffffffffffffffffffffffffffff1663abfceffc866040518263ffffffff1660e01b8152600401610dc4919061240e565b600060405180830381865afa158015610de1573d6000803e3d6000fd5b505050506040513d6000823e3d601f19601f82011682018060405250810190610e0a9190612eaa565b9050610e14612388565b6000808473ffffffffffffffffffffffffffffffffffffffff1663da6bae106040518163ffffffff1660e01b8152600401602060405180830381865afa158015610e62573d6000803e3d6000fd5b505050506040513d601f19601f82011682018060405250810190610e869190612b31565b8360c001818152505060008360c001511415610ed7576040517f08c379a0000000000000000000000000000000000000000000000000000000008152600401610ece90612f3f565b60405180910390fd5b600090505b835181101561110e57838181518110610ef857610ef7612f5f565b5b602002602001015173ffffffffffffffffffffffffffffffffffffffff1663c37f68e2896040518263ffffffff1660e01b8152600401610f38919061240e565b606060405180830381865afa158015610f55573d6000803e3d6000fd5b505050506040513d601f19601f82011682018060405250810190610f799190612f8e565b8560400186606001876080018381525083815250838152505050508473ffffffffffffffffffffffffffffffffffffffff1663fc57d4df858381518110610fc357610fc2612f5f565b5b60200260200101516040518263ffffffff1660e01b8152600401610fe79190613002565b602060405180830381865afa158015611004573d6000803e3d6000fd5b505050506040513d601f19601f820116820180604052508101906110289190612b31565b8360a0018181525050670de0b6b3a76400008360a00151846080015161104e9190612c0c565b6110589190612c95565b8360e001818152505082604001518360e0018181516110779190612c0c565b91508181525050670de0b6b3a76400008360e0018181516110989190612c95565b915081815250508260e00151836000018181516110b59190612b8d565b915081815250508260200151670de0b6b3a764000084606001518560a001516110de9190612c0c565b6110e89190612c95565b6110f29190612b8d565b83602001818152505080806111069061301d565b915050610edc565b8260200151670de0b6b3a764000060008054906101000a900473ffffffffffffffffffffffffffffffffffffffff1673ffffffffffffffffffffffffffffffffffffffff1663da7983f58b6040518263ffffffff1660e01b8152600401611175919061240e565b602060405180830381865afa158015611192573d6000803e3d6000fd5b505050506040513d601f19601f820116820180604052508101906111b69190612b31565b8560c001516111c59190612c0c565b6111cf9190612c95565b6111d99190612b8d565b83602001818152505060008054906101000a900473ffffffffffffffffffffffffffffffffffffffff1673ffffffffffffffffffffffffffffffffffffffff1663664ee5a06040518163ffffffff1660e01b8152600401602060405180830381865afa15801561124d573d6000803e3d6000fd5b505050506040513d601f19601f820116820180604052508101906112719190612b31565b83600001516112809190612c0c565b9150612710826112909190612c95565b91508260200151826112a29190612cc6565b91508260c00151670de0b6b3a7640000836112bd9190612c0c565b6112c79190612c95565b9150819650505050505050919050565b6000600960009054906101000a900460ff16611328576040517f08c379a000000000000000000000000000000000000000000000000000000000815260040161131f906128e7565b60405180910390fd5b6000600960006101000a81548160ff02191690831515021790555060008054906101000a900473ffffffffffffffffffffffffffffffffffffffff1673ffffffffffffffffffffffffffffffffffffffff1663dac885616040518163ffffffff1660e01b8152600401602060405180830381865afa1580156113ae573d6000803e3d6000fd5b505050506040513d601f19601f820116820180604052508101906113d29190612a17565b15611412576040517f08c379a000000000000000000000000000000000000000000000000000000000815260040161140990612a90565b60405180910390fd5b8173ffffffffffffffffffffffffffffffffffffffff1663a6afed956040518163ffffffff1660e01b8152600401600060405180830381600087803b15801561145a57600080fd5b505af115801561146e573d6000803e3d6000fd5b5050505061147e33858585611c13565b90506001600960006101000a81548160ff0219169083151502179055509392505050565b600260009054906101000a900473ffffffffffffffffffffffffffffffffffffffff1681565b600660009054906101000a900473ffffffffffffffffffffffffffffffffffffffff1681565b600760009054906101000a900473ffffffffffffffffffffffffffffffffffffffff1681565b600160009054906101000a900473ffffffffffffffffffffffffffffffffffffffff1673ffffffffffffffffffffffffffffffffffffffff163373ffffffffffffffffffffffffffffffffffffffff1614806115bd5750600660009054906101000a900473ffffffffffffffffffffffffffffffffffffffff1673ffffffffffffffffffffffffffffffffffffffff163373ffffffffffffffffffffffffffffffffffffffff16145b6115fc576040517f08c379a00000000000000000000000000000000000000000000000000000000081526004016115f3906130b2565b60405180910390fd5b670de0b6b3a76400008110611646576040517f08c379a000000000000000000000000000000000000000000000000000000000815260040161163d9061311e565b60405180910390fd5b6000600660009054906101000a900473ffffffffffffffffffffffffffffffffffffffff1690506000600760009054906101000a900473ffffffffffffffffffffffffffffffffffffffff1690506000600854905085600660006101000a81548173ffffffffffffffffffffffffffffffffffffffff021916908373ffffffffffffffffffffffffffffffffffffffff16021790555084600760006101000a81548173ffffffffffffffffffffffffffffffffffffffff021916908373ffffffffffffffffffffffffffffffffffffffff160217905550836008819055507f29f06ea15931797ebaed313d81d100963dc22cb213cb4ce2737b5a62b1a8b1e8838760405161175592919061313e565b60405180910390a17f8de763046d7b8f08b6c3d03543de1d615309417842bb5d2d62f110f65809ddac828660405161178e92919061313e565b60405180910390a17f0893f8f4101baaabbeb513f96761e7a36eb837403c82cc651c292a4abdc94ed781856040516117c79291906126ec565b60405180910390a1505050505050565b60038060000154908060010154905082565b600160009054906101000a900473ffffffffffffffffffffffffffffffffffffffff1681565b6060600a80548060200260200160405190810160405280929190818152602001828054801561189357602002820191906000526020600020905b8160009054906101000a900473ffffffffffffffffffffffffffffffffffffffff1673ffffffffffffffffffffffffffffffffffffffff1681526020019060010190808311611849575b5050505050905090565b600160009054906101000a900473ffffffffffffffffffffffffffffffffffffffff1673ffffffffffffffffffffffffffffffffffffffff163373ffffffffffffffffffffffffffffffffffffffff161461192d576040517f08c379a0000000000000000000000000000000000000000000000000000000008152600401611924906131b3565b60405180910390fd5b6000600260009054906101000a900473ffffffffffffffffffffffffffffffffffffffff16905081600260006101000a81548173ffffffffffffffffffffffffffffffffffffffff021916908373ffffffffffffffffffffffffffffffffffffffff1602179055507ffb5dcb6e3f9ef0d9e067e3901a6b8705565675a4af1429abd5f33ed48744099481836040516119c692919061313e565b60405180910390a15050565b6000600960009054906101000a900460ff16611a23576040517f08c379a0000000000000000000000000000000000000000000000000000000008152600401611a1a906128e7565b60405180910390fd5b6000600960006101000a81548160ff021916908315150217905550600073ffffffffffffffffffffffffffffffffffffffff1660008054906101000a900473ffffffffffffffffffffffffffffffffffffffff1673ffffffffffffffffffffffffffffffffffffffff161415611ace576040517f08c379a0000000000000000000000000000000000000000000000000000000008152600401611ac59061321f565b60405180910390fd5b60008211611b11576040517f08c379a0000000000000000000000000000000000000000000000000000000008152600401611b089061328b565b60405180910390fd5b60008054906101000a900473ffffffffffffffffffffffffffffffffffffffff1673ffffffffffffffffffffffffffffffffffffffff1663dac885616040518163ffffffff1660e01b8152600401602060405180830381865afa158015611b7c573d6000803e3d6000fd5b505050506040513d601f19601f82011682018060405250810190611ba09190612a17565b15611be0576040517f08c379a0000000000000000000000000000000000000000000000000000000008152600401611bd7906132f7565b60405180910390fd5b6000611bed333385612110565b9050809150506001600960006101000a81548160ff021916908315150217905550919050565b60008073ffffffffffffffffffffffffffffffffffffffff1660008054906101000a900473ffffffffffffffffffffffffffffffffffffffff1673ffffffffffffffffffffffffffffffffffffffff161415611ca4576040517f08c379a0000000000000000000000000000000000000000000000000000000008152600401611c9b9061321f565b60405180910390fd5b60008054906101000a900473ffffffffffffffffffffffffffffffffffffffff1673ffffffffffffffffffffffffffffffffffffffff16636e2cf5af308487876040518563ffffffff1660e01b8152600401611d039493929190613317565b600060405180830381600087803b158015611d1d57600080fd5b505af1158015611d31573d6000803e3d6000fd5b50505050611d3d61044b565b8273ffffffffffffffffffffffffffffffffffffffff1663b95b92a36040518163ffffffff1660e01b8152600401602060405180830381865afa158015611d88573d6000803e3d6000fd5b505050506040513d601f19601f82011682018060405250810190611dac9190612b31565b14611dec576040517f08c379a0000000000000000000000000000000000000000000000000000000008152600401611de3906133a8565b60405180910390fd5b8473ffffffffffffffffffffffffffffffffffffffff168473ffffffffffffffffffffffffffffffffffffffff161415611e5b576040517f08c379a0000000000000000000000000000000000000000000000000000000008152600401611e5290613414565b60405180910390fd5b6000831415611e9f576040517f08c379a0000000000000000000000000000000000000000000000000000000008152600401611e9690613480565b60405180910390fd5b611ea761233a565b831415611ee9576040517f08c379a0000000000000000000000000000000000000000000000000000000008152600401611ee0906134ec565b60405180910390fd5b6000611ef6868686612110565b905060008060009054906101000a900473ffffffffffffffffffffffffffffffffffffffff1673ffffffffffffffffffffffffffffffffffffffff1663fe5e828285846040518363ffffffff1660e01b8152600401611f56929190612be3565b602060405180830381865afa158015611f73573d6000803e3d6000fd5b505050506040513d601f19601f82011682018060405250810190611f979190612b31565b9050808473ffffffffffffffffffffffffffffffffffffffff166370a08231886040518263ffffffff1660e01b8152600401611fd3919061240e565b602060405180830381865afa158015611ff0573d6000803e3d6000fd5b505050506040513d601f19601f820116820180604052508101906120149190612b31565b1015612055576040517f08c379a000000000000000000000000000000000000000000000000000000000815260040161204c90613558565b60405180910390fd5b8373ffffffffffffffffffffffffffffffffffffffff1663b2a02ff18888846040518463ffffffff1660e01b815260040161209293929190613578565b600060405180830381600087803b1580156120ac57600080fd5b505af11580156120c0573d6000803e3d6000fd5b505050507ff2609e63463c1f03eac7489d9b3c60b8a9019b90b71a325d080dbefc1c2f171087878487856040516120fb9594939291906135af565b60405180910390a18192505050949350505050565b60008060008060009054906101000a900473ffffffffffffffffffffffffffffffffffffffff1673ffffffffffffffffffffffffffffffffffffffff1663da7983f5866040518263ffffffff1660e01b815260040161216f919061240e565b602060405180830381865afa15801561218c573d6000803e3d6000fd5b505050506040513d601f19601f820116820180604052508101906121b09190612b31565b9050838111156121c2578391506121c6565b8091505b600260009054906101000a900473ffffffffffffffffffffffffffffffffffffffff1673ffffffffffffffffffffffffffffffffffffffff16639dc29fac87846040518363ffffffff1660e01b8152600401612223929190612be3565b600060405180830381600087803b15801561223d57600080fd5b505af1158015612251573d6000803e3d6000fd5b50505050600082826122639190612cc6565b905060008054906101000a900473ffffffffffffffffffffffffffffffffffffffff1673ffffffffffffffffffffffffffffffffffffffff1663329a16f487836040518363ffffffff1660e01b81526004016122c0929190612be3565b600060405180830381600087803b1580156122da57600080fd5b505af11580156122ee573d6000803e3d6000fd5b505050507f5c0f88a0c5b2ce2d209a31fe826b808c6e03c0e0da6aa471df3673e53945e4f087878560405161232593929190613578565b60405180910390a18293505050509392505050565b6000807fffffffffffffffffffffffffffffffffffffffffffffffffffffffffffffffff90508091505090565b60405180606001604052806000815260200160008152602001600081525090565b60405180610100016040528060008152602001600081526020016000815260200160008152602001600081526020016000815260200160008152602001600081525090565b600073ffffffffffffffffffffffffffffffffffffffff82169050919050565b60006123f8826123cd565b9050919050565b612408816123ed565b82525050565b600060208201905061242360008301846123ff565b92915050565b6000604051905090565b600080fd5b600080fd5b6000819050919050565b6124508161243d565b811461245b57600080fd5b50565b60008135905061246d81612447565b92915050565b60006020828403121561248957612488612433565b5b60006124978482850161245e565b91505092915050565b6124a98161243d565b82525050565b60006020820190506124c460008301846124a0565b92915050565b6124d3816123ed565b81146124de57600080fd5b50565b6000813590506124f0816124ca565b92915050565b60006020828403121561250c5761250b612433565b5b600061251a848285016124e1565b91505092915050565b600061252e826123ed565b9050919050565b61253e81612523565b811461254957600080fd5b50565b60008135905061255b81612535565b92915050565b60006020828403121561257757612576612433565b5b60006125858482850161254c565b91505092915050565b6000819050919050565b60006125b36125ae6125a9846123cd565b61258e565b6123cd565b9050919050565b60006125c582612598565b9050919050565b60006125d7826125ba565b9050919050565b6125e7816125cc565b82525050565b600060208201905061260260008301846125de565b92915050565b6000612613826123ed565b9050919050565b61262381612608565b811461262e57600080fd5b50565b6000813590506126408161261a565b92915050565b60008060006060848603121561265f5761265e612433565b5b600061266d868287016124e1565b935050602061267e8682870161245e565b925050604061268f86828701612631565b9150509250925092565b6000806000606084860312156126b2576126b1612433565b5b60006126c0868287016124e1565b93505060206126d1868287016124e1565b92505060406126e28682870161245e565b9150509250925092565b600060408201905061270160008301856124a0565b61270e60208301846124a0565b9392505050565b600081519050919050565b600082825260208201905092915050565b6000819050602082019050919050565b61274a816123ed565b82525050565b600061275c8383612741565b60208301905092915050565b6000602082019050919050565b600061278082612715565b61278a8185612720565b935061279583612731565b8060005b838110156127c65781516127ad8882612750565b97506127b883612768565b925050600181019050612799565b5085935050505092915050565b600060208201905081810360008301526127ed8184612775565b905092915050565b600082825260208201905092915050565b7f4f6e6c792041646d696e00000000000000000000000000000000000000000000600082015250565b600061283c600a836127f5565b915061284782612806565b602082019050919050565b6000602082019050818103600083015261286b8161282f565b9050919050565b600060408201905061288760008301856125de565b61289460208301846125de565b9392505050565b7f72652d656e746572656400000000000000000000000000000000000000000000600082015250565b60006128d1600a836127f5565b91506128dc8261289b565b602082019050919050565b60006020820190508181036000830152612900816128c4565b9050919050565b7f436f6d7074726f6c6c657220646964206e6f7420736574000000000000000000600082015250565b600061293d6017836127f5565b915061294882612907565b602082019050919050565b6000602082019050818103600083015261296c81612930565b9050919050565b7f6d696e74474f4c44416d6f756e742063616e206e6f74206265207a65726f0000600082015250565b60006129a9601e836127f5565b91506129b482612973565b602082019050919050565b600060208201905081810360008301526129d88161299c565b9050919050565b60008115159050919050565b6129f4816129df565b81146129ff57600080fd5b50565b600081519050612a11816129eb565b92915050565b600060208284031215612a2d57612a2c612433565b5b6000612a3b84828501612a02565b91505092915050565b7f70726f746f636f6c206973207061757365640000000000000000000000000000600082015250565b6000612a7a6012836127f5565b9150612a8582612a44565b602082019050919050565b60006020820190508181036000830152612aa981612a6d565b9050919050565b7f496e73756666696369656e742063726564697473000000000000000000000000600082015250565b6000612ae66014836127f5565b9150612af182612ab0565b602082019050919050565b60006020820190508181036000830152612b1581612ad9565b9050919050565b600081519050612b2b81612447565b92915050565b600060208284031215612b4757612b46612433565b5b6000612b5584828501612b1c565b91505092915050565b7f4e487b7100000000000000000000000000000000000000000000000000000000600052601160045260246000fd5b6000612b988261243d565b9150612ba38361243d565b9250827fffffffffffffffffffffffffffffffffffffffffffffffffffffffffffffffff03821115612bd857612bd7612b5e565b5b828201905092915050565b6000604082019050612bf860008301856123ff565b612c0560208301846124a0565b9392505050565b6000612c178261243d565b9150612c228361243d565b9250817fffffffffffffffffffffffffffffffffffffffffffffffffffffffffffffffff0483118215151615612c5b57612c5a612b5e565b5b828202905092915050565b7f4e487b7100000000000000000000000000000000000000000000000000000000600052601260045260246000fd5b6000612ca08261243d565b9150612cab8361243d565b925082612cbb57612cba612c66565b5b828204905092915050565b6000612cd18261243d565b9150612cdc8361243d565b925082821015612cef57612cee612b5e565b5b828203905092915050565b600081519050612d09816124ca565b92915050565b600060208284031215612d2557612d24612433565b5b6000612d3384828501612cfa565b91505092915050565b600080fd5b6000601f19601f8301169050919050565b7f4e487b7100000000000000000000000000000000000000000000000000000000600052604160045260246000fd5b612d8a82612d41565b810181811067ffffffffffffffff82111715612da957612da8612d52565b5b80604052505050565b6000612dbc612429565b9050612dc88282612d81565b919050565b600067ffffffffffffffff821115612de857612de7612d52565b5b602082029050602081019050919050565b600080fd5b600081519050612e0d8161261a565b92915050565b6000612e26612e2184612dcd565b612db2565b90508083825260208201905060208402830185811115612e4957612e48612df9565b5b835b81811015612e725780612e5e8882612dfe565b845260208401935050602081019050612e4b565b5050509392505050565b600082601f830112612e9157612e90612d3c565b5b8151612ea1848260208601612e13565b91505092915050565b600060208284031215612ec057612ebf612433565b5b600082015167ffffffffffffffff811115612ede57612edd612438565b5b612eea84828501612e7c565b91505092915050565b7f474f4c44206f7261636c65206973207a65726f00000000000000000000000000600082015250565b6000612f296013836127f5565b9150612f3482612ef3565b602082019050919050565b60006020820190508181036000830152612f5881612f1c565b9050919050565b7f4e487b7100000000000000000000000000000000000000000000000000000000600052603260045260246000fd5b600080600060608486031215612fa757612fa6612433565b5b6000612fb586828701612b1c565b9350506020612fc686828701612b1c565b9250506040612fd786828701612b1c565b9150509250925092565b6000612fec826125ba565b9050919050565b612ffc81612fe1565b82525050565b60006020820190506130176000830184612ff3565b92915050565b60006130288261243d565b91507fffffffffffffffffffffffffffffffffffffffffffffffffffffffffffffffff82141561305b5761305a612b5e565b5b600182019050919050565b7f4f6e6c792061646d696e206f7220747265617375727920677561726469616e00600082015250565b600061309c601f836127f5565b91506130a782613066565b602082019050919050565b600060208201905081810360008301526130cb8161308f565b9050919050565b7f74726561737572792070657263656e7420636170206f766572666c6f77000000600082015250565b6000613108601d836127f5565b9150613113826130d2565b602082019050919050565b60006020820190508181036000830152613137816130fb565b9050919050565b600060408201905061315360008301856123ff565b61316060208301846123ff565b9392505050565b7f4f6e6c792061646d696e00000000000000000000000000000000000000000000600082015250565b600061319d600a836127f5565b91506131a882613167565b602082019050919050565b600060208201905081810360008301526131cc81613190565b9050919050565b7f436f6d7074726f6c6c6572206e6f742073657400000000000000000000000000600082015250565b60006132096013836127f5565b9150613214826131d3565b602082019050919050565b60006020820190508181036000830152613238816131fc565b9050919050565b7f416d6f756e74206973205a65726f000000000000000000000000000000000000600082015250565b6000613275600e836127f5565b91506132808261323f565b602082019050919050565b600060208201905081810360008301526132a481613268565b9050919050565b7f50726f746f636f6c207061757365640000000000000000000000000000000000600082015250565b60006132e1600f836127f5565b91506132ec826132ab565b602082019050919050565b60006020820190508181036000830152613310816132d4565b9050919050565b600060808201905061332c60008301876123ff565b61333960208301866123ff565b61334660408301856123ff565b61335360608301846124a0565b95945050505050565b7f6163637275616c54696d657374616d70206e6f74207570646174650000000000600082015250565b6000613392601b836127f5565b915061339d8261335c565b602082019050919050565b600060208201905081810360008301526133c181613385565b9050919050565b7f426f72726f77657220657175616c204c697175696461746f7200000000000000600082015250565b60006133fe6019836127f5565b9150613409826133c8565b602082019050919050565b6000602082019050818103600083015261342d816133f1565b9050919050565b7f526570617920616d6f756e74206973207a65726f000000000000000000000000600082015250565b600061346a6014836127f5565b915061347582613434565b602082019050919050565b600060208201905081810360008301526134998161345d565b9050919050565b7f434c4f53455f414d4f554e545f49535f55494e545f4d41580000000000000000600082015250565b60006134d66018836127f5565b91506134e1826134a0565b602082019050919050565b60006020820190508181036000830152613505816134c9565b9050919050565b7f546f6f206d756368207365697a6520746f6b656e730000000000000000000000600082015250565b60006135426015836127f5565b915061354d8261350c565b602082019050919050565b6000602082019050818103600083015261357181613535565b9050919050565b600060608201905061358d60008301866123ff565b61359a60208301856123ff565b6135a760408301846124a0565b949350505050565b600060a0820190506135c460008301886123ff565b6135d160208301876123ff565b6135de60408301866124a0565b6135eb60608301856123ff565b6135f860808301846124a0565b969550505050505056fea2646970667358221220d6a50652eb9f7678e26d4f86c64ccbee1b7a7cc72a6eddc8119845744a840d9364736f6c634300080c0033",
  "immutableReferences": {},
  "source": "// SPDX-License-Identifier: MIT\r\npragma solidity ^0.8.0;\r\n\r\nimport \"./interface/ComptrollerInterface.sol\";\r\nimport \"./AURUM.sol\";\r\n\r\n/**\r\n * == == == AURUM DeFi == == ==\r\n * these contracts are modified from Venus's Contract\r\n * \r\n */\r\ncontract AurumController is AurumControllerInterface {\r\n\r\n    event NewComptroller(ComptrollerInterface oldComptroller, ComptrollerInterface newComptroller);\r\n    event MintGOLD(address minter, uint mintGoldAmount);\r\n    event RepayGOLD(address payer, address borrower, uint repayGoldAmount);\r\n    event LiquidateGold(address liquidator, address borrower, uint repayAmount, address LendTokenCollateral, uint seizeTokens);\r\n    event NewTreasuryGuardian(address oldTreasuryGuardian, address newTreasuryGuardian);\r\n    event NewTreasuryAddress(address oldTreasuryAddress, address newTreasuryAddress);\r\n    event NewTreasuryPercent(uint oldTreasuryPercent, uint newTreasuryPercent);\r\n    event MintFee(address minter, uint feeAmount);\r\n    event NewAURUMAddress(address oldAURUMAddress, address newAURUMAddress);\r\n\r\n\r\n    uint public constant goldInitialIndex = 1e36;\r\n\r\n    ComptrollerInterface public comptroller;\r\n    address public admin;\r\n    address public aurumAddress;    //Must be set\r\n\r\n    struct AurumGOLDState {\r\n        /// @notice The last updated aurumGOLDMintIndex\r\n        uint index;\r\n        /// @notice The timestamp the index was last updated at\r\n        uint lastTimestamp;\r\n    }\r\n\r\n    AurumGOLDState public aurumGOLDState;\r\n\r\n    mapping(address => uint) public aurumGOLDMinterIndex;\r\n\r\n        /// @notice Treasury Guardian\r\n    address public treasuryGuardian;        //Guardian address\r\n    address public treasuryAddress;         //treasury address\r\n    uint public treasuryPercent;         //Fee percent with decimal 18\r\n\r\n    /// @notice Guard variable for re-entrancy checks\r\n    bool internal _notEntered;\r\n    \r\n    address[] public goldMinterAddress;\r\n    function getGoldMinter() external view returns(address[] memory){\r\n        return goldMinterAddress;\r\n    }\r\n    mapping(address => bool) hasMinted;\r\n\r\n    /*** Main Actions ***/\r\n\r\n    struct MintLocalVars {\r\n        uint mintAmount;\r\n        uint accountMintGOLDNew;\r\n        uint accountMintableGOLD;\r\n    }\r\n\r\n    constructor(address aurum_){\r\n        admin = msg.sender;\r\n        aurumAddress = aurum_;\r\n        _notEntered = true;\r\n        \r\n        uint goldTimestamp = getTimestamp();\r\n        aurumGOLDState = AurumGOLDState({\r\n            index: goldInitialIndex,\r\n            lastTimestamp: goldTimestamp\r\n        });\r\n    }\r\n\r\n    function maxUINT() internal pure returns (uint) {\r\n        uint number = type(uint).max;\r\n        return number;\r\n    }\r\n\r\n    function mintGOLD(uint mintGOLDAmount) external nonReentrant {\r\n        require(address(comptroller) != address(0),\"Comptroller did not set\");\r\n        require(mintGOLDAmount > 0, \"mintGOLDAmount can not be zero\");\r\n        require(!ComptrollerInterface(address(comptroller)).isProtocolPaused(), \"protocol is paused\");\r\n\r\n        MintLocalVars memory vars;\r\n\r\n        address minter = msg.sender;\r\n\r\n        vars.accountMintableGOLD = getMintableGOLD(minter);\r\n\r\n        // check that user have sufficient mintableGOLD balance\r\n        require (mintGOLDAmount <= vars.accountMintableGOLD, \"Insufficient credits\");\r\n\r\n        // accountMintGOLDNew = minted gold + newMinting gold\r\n        vars.accountMintGOLDNew = ComptrollerInterface(address(comptroller)).getMintedGOLDs(minter) + mintGOLDAmount;\r\n\r\n        //Set new Minted GOLD value\r\n        comptroller.setMintedGOLDOf(minter, vars.accountMintGOLDNew);\r\n\r\n        uint feeAmount;\r\n        uint remainedAmount;\r\n        vars.mintAmount = mintGOLDAmount;\r\n        //Fee calculation\r\n        if (treasuryPercent != 0) {\r\n            feeAmount = vars.mintAmount * treasuryPercent;  // feeAmount now in EXP state\r\n            feeAmount = feeAmount / 1e18;                   // feeAmount now in UINT state\r\n            remainedAmount = vars.mintAmount - feeAmount;   // Amount after fee reduction\r\n\r\n            AURUM(aurumAddress).mint(treasuryAddress, feeAmount);\r\n            emit MintFee(minter, feeAmount);\r\n\r\n        } else {\r\n            remainedAmount = vars.mintAmount;\r\n        }\r\n\r\n        if(hasMinted[minter] == false){     // List minter to the ledger.\r\n            hasMinted[minter] = true;\r\n            goldMinterAddress.push(minter);\r\n        }\r\n        AURUM(aurumAddress).mint(minter, remainedAmount);\r\n\r\n        emit MintGOLD(minter, remainedAmount);\r\n    }\r\n\r\n\r\n    /**\r\n     * repayGOLD is to pay debt and burn GOLD token\r\n     */\r\n    function repayGOLD(uint repayGOLDAmount) external nonReentrant returns (uint) {\r\n        require(address(comptroller) != address(0),\"Comptroller not set\");\r\n        require(repayGOLDAmount > 0, \"Amount is Zero\");\r\n        require(!ComptrollerInterface(address(comptroller)).isProtocolPaused(), \"Protocol paused\");\r\n\r\n        uint actualBurnAmount = repayGOLDFresh(msg.sender, msg.sender, repayGOLDAmount);\r\n        return actualBurnAmount;\r\n    }\r\n    // repayGOLD action is executed here\r\n    function repayGOLDFresh(address payer, address borrower, uint repayAmount) internal returns (uint) {\r\n        uint actualBurnAmount;\r\n        uint goldBalanceBorrower = ComptrollerInterface(address(comptroller)).getMintedGOLDs(borrower);\r\n\r\n        if(goldBalanceBorrower > repayAmount) { // Check the debt, if repay more than debt convert value to the actual debt value\r\n            actualBurnAmount = repayAmount;\r\n        } else {\r\n            actualBurnAmount = goldBalanceBorrower;\r\n        }\r\n\r\n        //BURN token, reduce debt of AurumController, set debt of Comptroller\r\n        AURUM(aurumAddress).burn(payer, actualBurnAmount);\r\n\r\n        uint accountGOLDNew = goldBalanceBorrower - actualBurnAmount;\r\n\r\n        comptroller.setMintedGOLDOf(borrower, accountGOLDNew);\r\n\r\n        emit RepayGOLD(payer, borrower, actualBurnAmount);\r\n        return actualBurnAmount;\r\n    }\r\n\r\n\r\n    // To liquidate must check if the borrower is in liquidatable position\r\n    function liquidateGOLD(address borrower, uint repayAmount, LendTokenInterface lendTokenCollateral) external nonReentrant returns (uint) {\r\n        require(!ComptrollerInterface(address(comptroller)).isProtocolPaused(), \"protocol is paused\");\r\n        lendTokenCollateral.accrueInterest();  // Update Interest of collateral lend token to current interest.\r\n\r\n        return liquidateGOLDFresh(msg.sender, borrower, repayAmount, lendTokenCollateral);\r\n    }\r\n    // Liquidate GOLD is executed here\r\n    function liquidateGOLDFresh(address liquidator, address borrower, uint repayAmount, LendTokenInterface lendTokenCollateral) internal returns (uint) {\r\n        require(address(comptroller) != address(0),\"Comptroller not set\");\r\n        /* This function will revert if NOT ALLOWED */\r\n        comptroller.liquidateBorrowAllowed(address(this), address(lendTokenCollateral), borrower, repayAmount);\r\n\r\n        /* Verify lendTokenCollateral market's block number equals current block number */\r\n        // it must be upgraded since external function was run :: accrueInterest()\r\n        require(lendTokenCollateral.accrualTimestamp() == getTimestamp(),\"accrualTimestamp not update\");\r\n        require(borrower != liquidator,\"Borrower equal Liquidator\");\r\n        require(repayAmount != 0,\"Repay amount is zero\");\r\n        /* Fail if repayAmount = -1 */\r\n        if (repayAmount == maxUINT()) {\r\n            revert(\"CLOSE_AMOUNT_IS_UINT_MAX\");\r\n        }\r\n\r\n        // Liquidator should pay the GOLD for the liquidating borrower  then seize the borrower collateral token\r\n        // 1. Liquidator must have GOLD for Repay the liquidating GOLD\r\n        // 2. Borrower collateral will be seize and pay to liquidator (including fee calculation)\r\n\r\n        // repay GOLD\r\n        uint actualRepayAmount = repayGOLDFresh(liquidator, borrower, repayAmount);\r\n\r\n        // Calculate the seize token amount\r\n        uint seizeTokens = comptroller.liquidateGOLDCalculateSeizeTokens(address(lendTokenCollateral), actualRepayAmount);\r\n\r\n        /* Revert if borrower collateral token balance < seizeTokens */\r\n        if(lendTokenCollateral.balanceOf(borrower) < seizeTokens) {\r\n            revert (\"Too much seize tokens\");\r\n        }\r\n\r\n        //Execute token seize\r\n        lendTokenCollateral.seize(liquidator, borrower, seizeTokens);\r\n\r\n        emit LiquidateGold(liquidator, borrower, actualRepayAmount, address(lendTokenCollateral), seizeTokens);\r\n\r\n        return actualRepayAmount;\r\n    }\r\n\r\n\r\n\r\n    /*** Admin Functions ***/\r\n\r\n    /**\r\n      * @notice Sets a new comptroller\r\n      * @dev Admin function to set a new comptroller\r\n      */\r\n    function _setComptroller(ComptrollerInterface comptroller_) external{\r\n        // Check caller is admin\r\n        require(msg.sender == admin, \"Only Admin\");\r\n\r\n        ComptrollerInterface oldComptroller = comptroller;\r\n        comptroller = comptroller_;\r\n        emit NewComptroller(oldComptroller, comptroller_);\r\n    }\r\n\r\n    /**\r\n     * @dev Local vars for avoiding stack-depth limits in calculating account total supply balance.\r\n     *  Note that `vTokenBalance` is the number of vTokens the account owns in the market,\r\n     *  whereas `borrowBalance` is the amount of underlying that the account has borrowed.\r\n     */\r\n    struct AccountAmountLocalVars {\r\n        uint sumSupply;\r\n        uint sumBorrowPlusEffects;\r\n        uint lendTokenBalance;\r\n        uint borrowBalance;\r\n        uint exchangeRateMantissa;\r\n        uint oraclePriceMantissa;\r\n        uint goldPriceMantissa;\r\n        uint tokensToDenom;\r\n    }\r\n\r\n\r\n    //This function determine the mintable GOLD in current position\r\n    function getMintableGOLD(address minter) public view returns (uint) {\r\n        address oracleAddress = ComptrollerInterface(address(comptroller)).getComptrollerOracleAddress();\r\n        PriceOracle oracle = PriceOracle(oracleAddress);\r\n        LendTokenInterface[] memory enteredMarkets = ComptrollerInterface(address(comptroller)).getAssetsIn(minter);\r\n\r\n        AccountAmountLocalVars memory vars;\r\n\r\n        uint accountMintableGOLD;\r\n        uint i;\r\n\r\n        // Get the gold price from oracle stored in var.goldPrice\r\n        vars.goldPriceMantissa = oracle.getGoldPrice();\r\n        if (vars.goldPriceMantissa == 0) {\r\n            revert(\"GOLD oracle is zero\");\r\n        }\r\n\r\n        /**\r\n         * We use this formula to calculate mintable GOLD amount.\r\n         * totalSupplyAmount * GOLDMintRate - (totalBorrowAmount + mintedGOLDOf)\r\n         */\r\n        for (i = 0; i < enteredMarkets.length; i++) {\r\n            //Get snapshot for each entered markets\r\n            (vars.lendTokenBalance, vars.borrowBalance, vars.exchangeRateMantissa) = enteredMarkets[i].getAccountSnapshot(minter);\r\n\r\n            // Get the normalized price of the asset\r\n            vars.oraclePriceMantissa = oracle.getUnderlyingPrice(enteredMarkets[i]);\r\n\r\n            vars.tokensToDenom = vars.exchangeRateMantissa * vars.oraclePriceMantissa / 1e18;   // e18*e18/1e18 => e18\r\n            vars.tokensToDenom *= vars.lendTokenBalance;                                        // e18*e18  => e36\r\n            vars.tokensToDenom /= 1e18;                                                         // e36/e18 => e18\r\n            \r\n            vars.sumSupply += vars.tokensToDenom;\r\n\r\n            // sumBorrowPlusEffects += oraclePrice * borrowBalance\r\n            vars.sumBorrowPlusEffects = (vars.oraclePriceMantissa * vars.borrowBalance / 1e18) + vars.sumBorrowPlusEffects;\r\n        }\r\n\r\n        //---------------------- This formula modified  => GoldMinted * GoldOraclePrice------------------\r\n        // sumBorrowPlusEffects += GoldMinted * GoldOraclePrice\r\n        //\r\n        vars.sumBorrowPlusEffects = (vars.goldPriceMantissa * ComptrollerInterface(address(comptroller)).getMintedGOLDs(minter) /1e18) + vars.sumBorrowPlusEffects;\r\n\r\n        accountMintableGOLD = vars.sumSupply * ComptrollerInterface(address(comptroller)).getGoldMintRate();\r\n        accountMintableGOLD /= 10000; // goldMintRate is percentage of total value, 100 = 1%, 10000 = 100%\r\n        \r\n        accountMintableGOLD -= vars.sumBorrowPlusEffects;\r\n\r\n        accountMintableGOLD = accountMintableGOLD * 1e18 / vars.goldPriceMantissa; // turnn unit USD to GOLD\r\n\r\n        return (accountMintableGOLD);\r\n    }\r\n\r\n\r\n    //\r\n    //  set Treasury information\r\n    //  TreasuryPercent is minting 'fee' 1e18 = 100%\r\n    //\r\n    function _setTreasuryData(address newTreasuryGuardian, address newTreasuryAddress, uint newTreasuryPercent) external{\r\n        // Check caller is admin\r\n        require(msg.sender == admin || msg.sender == treasuryGuardian,\"Only admin or treasury guardian\");\r\n        require(newTreasuryPercent < 1e18, \"treasury percent cap overflow\");\r\n\r\n        address oldTreasuryGuardian = treasuryGuardian;\r\n        address oldTreasuryAddress = treasuryAddress;\r\n        uint oldTreasuryPercent = treasuryPercent;\r\n\r\n        treasuryGuardian = newTreasuryGuardian;\r\n        treasuryAddress = newTreasuryAddress;\r\n        treasuryPercent = newTreasuryPercent;\r\n\r\n        emit NewTreasuryGuardian(oldTreasuryGuardian, newTreasuryGuardian);\r\n        emit NewTreasuryAddress(oldTreasuryAddress, newTreasuryAddress);\r\n        emit NewTreasuryPercent(oldTreasuryPercent, newTreasuryPercent);\r\n    }\r\n\r\n    function getTimestamp() public view returns (uint) {\r\n        return block.timestamp;\r\n    }\r\n\r\n    /**\r\n     * @notice Return the address of the AURUM GOLD token\r\n     * @return The address of GOLD\r\n     */\r\n    function getAURUMAddress() public view returns (address) {\r\n        return aurumAddress;\r\n    }\r\n    function _setAURUMAddress(address newAURUMAddress) external {\r\n        require (msg.sender == admin, \"Only admin\");\r\n        address oldAURUMAddress = aurumAddress;\r\n        aurumAddress = newAURUMAddress;\r\n\r\n        emit NewAURUMAddress(oldAURUMAddress,newAURUMAddress);\r\n    }\r\n\r\n    /*** Reentrancy Guard ***/\r\n\r\n    /**\r\n     * @dev Prevents a contract from calling itself, directly or indirectly.\r\n     */\r\n    modifier nonReentrant() {\r\n        require(_notEntered, \"re-entered\");\r\n        _notEntered = false;\r\n        _;\r\n        _notEntered = true; // get a gas-refund post-Istanbul\r\n    }\r\n}",
  "sourcePath": "C:\\Users\\chana\\desktop\\aurumdefi\\src\\contracts\\AurumController.sol",
  "compiler": {
    "name": "solc",
    "version": "0.8.12+commit.f00d7308.Emscripten.clang"
  },
  "schemaVersion": "3.4.6",
  "updatedAt": "2022-03-26T16:48:07.646Z",
  "devdoc": {
    "kind": "dev",
    "methods": {
      "_setComptroller(address)": {
        "details": "Admin function to set a new comptroller"
      },
      "getAURUMAddress()": {
        "returns": {
          "_0": "The address of GOLD"
        }
      }
    },
    "version": 1
  },
  "userdoc": {
    "kind": "user",
    "methods": {
      "_setComptroller(address)": {
        "notice": "Sets a new comptroller"
      },
      "getAURUMAddress()": {
        "notice": "Return the address of the AURUM GOLD token"
      },
      "repayGOLD(uint256)": {
        "notice": "repayGOLD is to pay debt and burn GOLD token"
      },
      "treasuryGuardian()": {
        "notice": "Treasury Guardian"
      }
    },
    "notice": "== == == AURUM DeFi == == == these contracts are modified from Venus's Contract ",
    "version": 1
  }
}