{
  "contractName": "AURUM",
  "abi": [
    {
      "inputs": [],
      "stateMutability": "nonpayable",
      "type": "constructor"
    },
    {
      "anonymous": false,
      "inputs": [
        {
          "indexed": true,
          "internalType": "address",
          "name": "owner",
          "type": "address"
        },
        {
          "indexed": true,
          "internalType": "address",
          "name": "spender",
          "type": "address"
        },
        {
          "indexed": false,
          "internalType": "uint256",
          "name": "value",
          "type": "uint256"
        }
      ],
      "name": "Approval",
      "type": "event"
    },
    {
      "anonymous": false,
      "inputs": [
        {
          "indexed": false,
          "internalType": "address",
          "name": "oldMinter",
          "type": "address"
        },
        {
          "indexed": false,
          "internalType": "address",
          "name": "newMinter",
          "type": "address"
        }
      ],
      "name": "SetMinter",
      "type": "event"
    },
    {
      "anonymous": false,
      "inputs": [
        {
          "indexed": true,
          "internalType": "address",
          "name": "from",
          "type": "address"
        },
        {
          "indexed": true,
          "internalType": "address",
          "name": "to",
          "type": "address"
        },
        {
          "indexed": false,
          "internalType": "uint256",
          "name": "value",
          "type": "uint256"
        }
      ],
      "name": "Transfer",
      "type": "event"
    },
    {
      "anonymous": false,
      "inputs": [
        {
          "indexed": false,
          "internalType": "address",
          "name": "from",
          "type": "address"
        },
        {
          "indexed": false,
          "internalType": "address",
          "name": "to",
          "type": "address"
        }
      ],
      "name": "TransferAdmin",
      "type": "event"
    },
    {
      "inputs": [],
      "name": "admin",
      "outputs": [
        {
          "internalType": "address",
          "name": "",
          "type": "address"
        }
      ],
      "stateMutability": "view",
      "type": "function"
    },
    {
      "inputs": [],
      "name": "aurumMinter",
      "outputs": [
        {
          "internalType": "address",
          "name": "",
          "type": "address"
        }
      ],
      "stateMutability": "view",
      "type": "function"
    },
    {
      "inputs": [],
      "name": "decimals",
      "outputs": [
        {
          "internalType": "uint8",
          "name": "",
          "type": "uint8"
        }
      ],
      "stateMutability": "view",
      "type": "function"
    },
    {
      "inputs": [],
      "name": "symbol",
      "outputs": [
        {
          "internalType": "string",
          "name": "",
          "type": "string"
        }
      ],
      "stateMutability": "view",
      "type": "function"
    },
    {
      "inputs": [],
      "name": "name",
      "outputs": [
        {
          "internalType": "string",
          "name": "",
          "type": "string"
        }
      ],
      "stateMutability": "view",
      "type": "function"
    },
    {
      "inputs": [],
      "name": "totalSupply",
      "outputs": [
        {
          "internalType": "uint256",
          "name": "",
          "type": "uint256"
        }
      ],
      "stateMutability": "view",
      "type": "function"
    },
    {
      "inputs": [
        {
          "internalType": "address",
          "name": "account",
          "type": "address"
        }
      ],
      "name": "balanceOf",
      "outputs": [
        {
          "internalType": "uint256",
          "name": "",
          "type": "uint256"
        }
      ],
      "stateMutability": "view",
      "type": "function"
    },
    {
      "inputs": [
        {
          "internalType": "address",
          "name": "recipient",
          "type": "address"
        },
        {
          "internalType": "uint256",
          "name": "amount",
          "type": "uint256"
        }
      ],
      "name": "transfer",
      "outputs": [
        {
          "internalType": "bool",
          "name": "",
          "type": "bool"
        }
      ],
      "stateMutability": "nonpayable",
      "type": "function"
    },
    {
      "inputs": [
        {
          "internalType": "address",
          "name": "owner",
          "type": "address"
        },
        {
          "internalType": "address",
          "name": "spender",
          "type": "address"
        }
      ],
      "name": "allowance",
      "outputs": [
        {
          "internalType": "uint256",
          "name": "",
          "type": "uint256"
        }
      ],
      "stateMutability": "view",
      "type": "function"
    },
    {
      "inputs": [
        {
          "internalType": "address",
          "name": "spender",
          "type": "address"
        },
        {
          "internalType": "uint256",
          "name": "amount",
          "type": "uint256"
        }
      ],
      "name": "approve",
      "outputs": [
        {
          "internalType": "bool",
          "name": "",
          "type": "bool"
        }
      ],
      "stateMutability": "nonpayable",
      "type": "function"
    },
    {
      "inputs": [
        {
          "internalType": "address",
          "name": "sender",
          "type": "address"
        },
        {
          "internalType": "address",
          "name": "recipient",
          "type": "address"
        },
        {
          "internalType": "uint256",
          "name": "amount",
          "type": "uint256"
        }
      ],
      "name": "transferFrom",
      "outputs": [
        {
          "internalType": "bool",
          "name": "",
          "type": "bool"
        }
      ],
      "stateMutability": "nonpayable",
      "type": "function"
    },
    {
      "inputs": [
        {
          "internalType": "address",
          "name": "spender",
          "type": "address"
        },
        {
          "internalType": "uint256",
          "name": "addedValue",
          "type": "uint256"
        }
      ],
      "name": "increaseAllowance",
      "outputs": [
        {
          "internalType": "bool",
          "name": "",
          "type": "bool"
        }
      ],
      "stateMutability": "nonpayable",
      "type": "function"
    },
    {
      "inputs": [
        {
          "internalType": "address",
          "name": "spender",
          "type": "address"
        },
        {
          "internalType": "uint256",
          "name": "subtractedValue",
          "type": "uint256"
        }
      ],
      "name": "decreaseAllowance",
      "outputs": [
        {
          "internalType": "bool",
          "name": "",
          "type": "bool"
        }
      ],
      "stateMutability": "nonpayable",
      "type": "function"
    },
    {
      "inputs": [
        {
          "internalType": "address",
          "name": "usr",
          "type": "address"
        },
        {
          "internalType": "uint256",
          "name": "wad",
          "type": "uint256"
        }
      ],
      "name": "mint",
      "outputs": [],
      "stateMutability": "nonpayable",
      "type": "function"
    },
    {
      "inputs": [
        {
          "internalType": "address",
          "name": "usr",
          "type": "address"
        },
        {
          "internalType": "uint256",
          "name": "wad",
          "type": "uint256"
        }
      ],
      "name": "burn",
      "outputs": [],
      "stateMutability": "nonpayable",
      "type": "function"
    },
    {
      "inputs": [
        {
          "internalType": "address",
          "name": "_to",
          "type": "address"
        }
      ],
      "name": "_transferAdmin",
      "outputs": [],
      "stateMutability": "nonpayable",
      "type": "function"
    },
    {
      "inputs": [
        {
          "internalType": "address",
          "name": "newMinter",
          "type": "address"
        }
      ],
      "name": "_setMinter",
      "outputs": [],
      "stateMutability": "nonpayable",
      "type": "function"
    }
  ],
  "bytecode": "0x60806040523480156200001157600080fd5b506040518060400160405280600a81526020017f476f6c6420415552554d00000000000000000000000000000000000000000000815250600790805190602001906200005f92919062000110565b506040518060400160405280600581526020017f415552554d00000000000000000000000000000000000000000000000000000081525060069080519060200190620000ad92919062000110565b506012600560006101000a81548160ff021916908360ff160217905550336000806101000a81548173ffffffffffffffffffffffffffffffffffffffff021916908373ffffffffffffffffffffffffffffffffffffffff16021790555062000225565b8280546200011e90620001ef565b90600052602060002090601f0160209004810192826200014257600085556200018e565b82601f106200015d57805160ff19168380011785556200018e565b828001600101855582156200018e579182015b828111156200018d57825182559160200191906001019062000170565b5b5090506200019d9190620001a1565b5090565b5b80821115620001bc576000816000905550600101620001a2565b5090565b7f4e487b7100000000000000000000000000000000000000000000000000000000600052602260045260246000fd5b600060028204905060018216806200020857607f821691505b602082108114156200021f576200021e620001c0565b5b50919050565b611e2f80620002356000396000f3fe608060405234801561001057600080fd5b506004361061010b5760003560e01c806340c10f19116100a2578063a457c2d711610071578063a457c2d7146102ba578063a9059cbb146102ea578063dd62ed3e1461031a578063e6abb5ae1461034a578063f851a440146103665761010b565b806340c10f191461023457806370a082311461025057806395d89b41146102805780639dc29fac1461029e5761010b565b80632373f091116100de5780632373f0911461019a57806323b872dd146101b6578063313ce567146101e657806339509351146102045761010b565b806306fdde0314610110578063095ea7b31461012e57806318160ddd1461015e57806320cbb93b1461017c575b600080fd5b610118610384565b6040516101259190611746565b60405180910390f35b61014860048036038101906101439190611801565b610416565b604051610155919061185c565b60405180910390f35b61016661042d565b6040516101739190611886565b60405180910390f35b610184610437565b60405161019191906118b0565b60405180910390f35b6101b460048036038101906101af91906118cb565b61045d565b005b6101d060048036038101906101cb91906118f8565b610590565b6040516101dd919061185c565b60405180910390f35b6101ee6109c3565b6040516101fb9190611967565b60405180910390f35b61021e60048036038101906102199190611801565b6109da565b60405161022b919061185c565b60405180910390f35b61024e60048036038101906102499190611801565b610a78565b005b61026a600480360381019061026591906118cb565b610be1565b6040516102779190611886565b60405180910390f35b610288610c2a565b6040516102959190611746565b60405180910390f35b6102b860048036038101906102b39190611801565b610cbc565b005b6102d460048036038101906102cf9190611801565b61102e565b6040516102e1919061185c565b60405180910390f35b61030460048036038101906102ff9190611801565b6110cc565b604051610311919061185c565b60405180910390f35b610334600480360381019061032f9190611982565b6110e3565b6040516103419190611886565b60405180910390f35b610364600480360381019061035f91906118cb565b61116a565b005b61036e61129b565b60405161037b91906118b0565b60405180910390f35b606060078054610393906119f1565b80601f01602080910402602001604051908101604052809291908181526020018280546103bf906119f1565b801561040c5780601f106103e15761010080835404028352916020019161040c565b820191906000526020600020905b8154815290600101906020018083116103ef57829003601f168201915b5050505050905090565b60006104233384846112bf565b6001905092915050565b6000600454905090565b600160009054906101000a900473ffffffffffffffffffffffffffffffffffffffff1681565b60008054906101000a900473ffffffffffffffffffffffffffffffffffffffff1673ffffffffffffffffffffffffffffffffffffffff163373ffffffffffffffffffffffffffffffffffffffff16146104eb576040517f08c379a00000000000000000000000000000000000000000000000000000000081526004016104e290611a6f565b60405180910390fd5b6000600160009054906101000a900473ffffffffffffffffffffffffffffffffffffffff16905081600160006101000a81548173ffffffffffffffffffffffffffffffffffffffff021916908373ffffffffffffffffffffffffffffffffffffffff1602179055507fe490d3138e32f1f66ef3971a3c73c7f7704ba0c1d1000f1e2c3df6fc0376610b8183604051610584929190611a8f565b60405180910390a15050565b600081600260008673ffffffffffffffffffffffffffffffffffffffff1673ffffffffffffffffffffffffffffffffffffffff168152602001908152602001600020541015610614576040517f08c379a000000000000000000000000000000000000000000000000000000000815260040161060b90611b04565b60405180910390fd5b600082600260008773ffffffffffffffffffffffffffffffffffffffff1673ffffffffffffffffffffffffffffffffffffffff168152602001908152602001600020546106619190611b53565b9050600083600260008773ffffffffffffffffffffffffffffffffffffffff1673ffffffffffffffffffffffffffffffffffffffff168152602001908152602001600020546106b09190611b87565b90503373ffffffffffffffffffffffffffffffffffffffff168673ffffffffffffffffffffffffffffffffffffffff161415801561077157506106f161148a565b600360008873ffffffffffffffffffffffffffffffffffffffff1673ffffffffffffffffffffffffffffffffffffffff16815260200190815260200160002060003373ffffffffffffffffffffffffffffffffffffffff1673ffffffffffffffffffffffffffffffffffffffff1681526020019081526020016000205414155b156108c95783600360008873ffffffffffffffffffffffffffffffffffffffff1673ffffffffffffffffffffffffffffffffffffffff16815260200190815260200160002060003373ffffffffffffffffffffffffffffffffffffffff1673ffffffffffffffffffffffffffffffffffffffff168152602001908152602001600020541015610835576040517f08c379a000000000000000000000000000000000000000000000000000000000815260040161082c90611c29565b60405180910390fd5b83600360008873ffffffffffffffffffffffffffffffffffffffff1673ffffffffffffffffffffffffffffffffffffffff16815260200190815260200160002060003373ffffffffffffffffffffffffffffffffffffffff1673ffffffffffffffffffffffffffffffffffffffff16815260200190815260200160002060008282546108c19190611b53565b925050819055505b81600260008873ffffffffffffffffffffffffffffffffffffffff1673ffffffffffffffffffffffffffffffffffffffff1681526020019081526020016000208190555080600260008773ffffffffffffffffffffffffffffffffffffffff1673ffffffffffffffffffffffffffffffffffffffff168152602001908152602001600020819055508473ffffffffffffffffffffffffffffffffffffffff168673ffffffffffffffffffffffffffffffffffffffff167fddf252ad1be2c89b69c2b068fc378daa952ba7f163c4a11628f55a4df523b3ef866040516109ae9190611886565b60405180910390a36001925050509392505050565b6000600560009054906101000a900460ff16905090565b6000610a6e338484600360003373ffffffffffffffffffffffffffffffffffffffff1673ffffffffffffffffffffffffffffffffffffffff16815260200190815260200160002060008873ffffffffffffffffffffffffffffffffffffffff1673ffffffffffffffffffffffffffffffffffffffff16815260200190815260200160002054610a699190611b87565b6112bf565b6001905092915050565b600160009054906101000a900473ffffffffffffffffffffffffffffffffffffffff1673ffffffffffffffffffffffffffffffffffffffff163373ffffffffffffffffffffffffffffffffffffffff1614610b08576040517f08c379a0000000000000000000000000000000000000000000000000000000008152600401610aff90611a6f565b60405180910390fd5b80600260008473ffffffffffffffffffffffffffffffffffffffff1673ffffffffffffffffffffffffffffffffffffffff1681526020019081526020016000206000828254610b579190611b87565b925050819055508060046000828254610b709190611b87565b925050819055508173ffffffffffffffffffffffffffffffffffffffff16600073ffffffffffffffffffffffffffffffffffffffff167fddf252ad1be2c89b69c2b068fc378daa952ba7f163c4a11628f55a4df523b3ef83604051610bd59190611886565b60405180910390a35050565b6000600260008373ffffffffffffffffffffffffffffffffffffffff1673ffffffffffffffffffffffffffffffffffffffff168152602001908152602001600020549050919050565b606060068054610c39906119f1565b80601f0160208091040260200160405190810160405280929190818152602001828054610c65906119f1565b8015610cb25780601f10610c8757610100808354040283529160200191610cb2565b820191906000526020600020905b815481529060010190602001808311610c9557829003601f168201915b5050505050905090565b80600260008473ffffffffffffffffffffffffffffffffffffffff1673ffffffffffffffffffffffffffffffffffffffff168152602001908152602001600020541015610d3e576040517f08c379a0000000000000000000000000000000000000000000000000000000008152600401610d3590611b04565b60405180910390fd5b3373ffffffffffffffffffffffffffffffffffffffff168273ffffffffffffffffffffffffffffffffffffffff1614158015610dfd5750610d7d61148a565b600360008473ffffffffffffffffffffffffffffffffffffffff1673ffffffffffffffffffffffffffffffffffffffff16815260200190815260200160002060003373ffffffffffffffffffffffffffffffffffffffff1673ffffffffffffffffffffffffffffffffffffffff1681526020019081526020016000205414155b15610f555780600360008473ffffffffffffffffffffffffffffffffffffffff1673ffffffffffffffffffffffffffffffffffffffff16815260200190815260200160002060003373ffffffffffffffffffffffffffffffffffffffff1673ffffffffffffffffffffffffffffffffffffffff168152602001908152602001600020541015610ec1576040517f08c379a0000000000000000000000000000000000000000000000000000000008152600401610eb890611c29565b60405180910390fd5b80600360008473ffffffffffffffffffffffffffffffffffffffff1673ffffffffffffffffffffffffffffffffffffffff16815260200190815260200160002060003373ffffffffffffffffffffffffffffffffffffffff1673ffffffffffffffffffffffffffffffffffffffff1681526020019081526020016000206000828254610f4d9190611b53565b925050819055505b80600260008473ffffffffffffffffffffffffffffffffffffffff1673ffffffffffffffffffffffffffffffffffffffff1681526020019081526020016000206000828254610fa49190611b53565b925050819055508060046000828254610fbd9190611b53565b92505081905550600073ffffffffffffffffffffffffffffffffffffffff168273ffffffffffffffffffffffffffffffffffffffff167fddf252ad1be2c89b69c2b068fc378daa952ba7f163c4a11628f55a4df523b3ef836040516110229190611886565b60405180910390a35050565b60006110c2338484600360003373ffffffffffffffffffffffffffffffffffffffff1673ffffffffffffffffffffffffffffffffffffffff16815260200190815260200160002060008873ffffffffffffffffffffffffffffffffffffffff1673ffffffffffffffffffffffffffffffffffffffff168152602001908152602001600020546110bd9190611b53565b6112bf565b6001905092915050565b60006110d93384846114b7565b6001905092915050565b6000600360008473ffffffffffffffffffffffffffffffffffffffff1673ffffffffffffffffffffffffffffffffffffffff16815260200190815260200160002060008373ffffffffffffffffffffffffffffffffffffffff1673ffffffffffffffffffffffffffffffffffffffff16815260200190815260200160002054905092915050565b60008054906101000a900473ffffffffffffffffffffffffffffffffffffffff1673ffffffffffffffffffffffffffffffffffffffff163373ffffffffffffffffffffffffffffffffffffffff16146111f8576040517f08c379a00000000000000000000000000000000000000000000000000000000081526004016111ef90611a6f565b60405180910390fd5b60008060009054906101000a900473ffffffffffffffffffffffffffffffffffffffff169050816000806101000a81548173ffffffffffffffffffffffffffffffffffffffff021916908373ffffffffffffffffffffffffffffffffffffffff1602179055507fbdd36143ee09de60bdefca70680e0f71189b2ed7acee364b53917ad433fdaf80818360405161128f929190611a8f565b60405180910390a15050565b60008054906101000a900473ffffffffffffffffffffffffffffffffffffffff1681565b600073ffffffffffffffffffffffffffffffffffffffff168373ffffffffffffffffffffffffffffffffffffffff16141561132f576040517f08c379a000000000000000000000000000000000000000000000000000000000815260040161132690611c95565b60405180910390fd5b600073ffffffffffffffffffffffffffffffffffffffff168273ffffffffffffffffffffffffffffffffffffffff16141561139f576040517f08c379a000000000000000000000000000000000000000000000000000000000815260040161139690611d01565b60405180910390fd5b80600360008573ffffffffffffffffffffffffffffffffffffffff1673ffffffffffffffffffffffffffffffffffffffff16815260200190815260200160002060008473ffffffffffffffffffffffffffffffffffffffff1673ffffffffffffffffffffffffffffffffffffffff168152602001908152602001600020819055508173ffffffffffffffffffffffffffffffffffffffff168373ffffffffffffffffffffffffffffffffffffffff167f8c5be1e5ebec7d5bd14f71427d1e84f3dd0314c0f7b2291e5b200ac8c7c3b9258360405161147d9190611886565b60405180910390a3505050565b6000807fffffffffffffffffffffffffffffffffffffffffffffffffffffffffffffffff90508091505090565b600073ffffffffffffffffffffffffffffffffffffffff168373ffffffffffffffffffffffffffffffffffffffff161415611527576040517f08c379a000000000000000000000000000000000000000000000000000000000815260040161151e90611d6d565b60405180910390fd5b600073ffffffffffffffffffffffffffffffffffffffff168273ffffffffffffffffffffffffffffffffffffffff161415611597576040517f08c379a000000000000000000000000000000000000000000000000000000000815260040161158e90611dd9565b60405180910390fd5b80600260008573ffffffffffffffffffffffffffffffffffffffff1673ffffffffffffffffffffffffffffffffffffffff16815260200190815260200160002060008282546115e69190611b53565b9250508190555080600260008473ffffffffffffffffffffffffffffffffffffffff1673ffffffffffffffffffffffffffffffffffffffff168152602001908152602001600020600082825461163c9190611b87565b925050819055508173ffffffffffffffffffffffffffffffffffffffff168373ffffffffffffffffffffffffffffffffffffffff167fddf252ad1be2c89b69c2b068fc378daa952ba7f163c4a11628f55a4df523b3ef836040516116a09190611886565b60405180910390a3505050565b600081519050919050565b600082825260208201905092915050565b60005b838110156116e75780820151818401526020810190506116cc565b838111156116f6576000848401525b50505050565b6000601f19601f8301169050919050565b6000611718826116ad565b61172281856116b8565b93506117328185602086016116c9565b61173b816116fc565b840191505092915050565b60006020820190508181036000830152611760818461170d565b905092915050565b600080fd5b600073ffffffffffffffffffffffffffffffffffffffff82169050919050565b60006117988261176d565b9050919050565b6117a88161178d565b81146117b357600080fd5b50565b6000813590506117c58161179f565b92915050565b6000819050919050565b6117de816117cb565b81146117e957600080fd5b50565b6000813590506117fb816117d5565b92915050565b6000806040838503121561181857611817611768565b5b6000611826858286016117b6565b9250506020611837858286016117ec565b9150509250929050565b60008115159050919050565b61185681611841565b82525050565b6000602082019050611871600083018461184d565b92915050565b611880816117cb565b82525050565b600060208201905061189b6000830184611877565b92915050565b6118aa8161178d565b82525050565b60006020820190506118c560008301846118a1565b92915050565b6000602082840312156118e1576118e0611768565b5b60006118ef848285016117b6565b91505092915050565b60008060006060848603121561191157611910611768565b5b600061191f868287016117b6565b9350506020611930868287016117b6565b9250506040611941868287016117ec565b9150509250925092565b600060ff82169050919050565b6119618161194b565b82525050565b600060208201905061197c6000830184611958565b92915050565b6000806040838503121561199957611998611768565b5b60006119a7858286016117b6565b92505060206119b8858286016117b6565b9150509250929050565b7f4e487b7100000000000000000000000000000000000000000000000000000000600052602260045260246000fd5b60006002820490506001821680611a0957607f821691505b60208210811415611a1d57611a1c6119c2565b5b50919050565b7f556e617574686f72697a65640000000000000000000000000000000000000000600082015250565b6000611a59600c836116b8565b9150611a6482611a23565b602082019050919050565b60006020820190508181036000830152611a8881611a4c565b9050919050565b6000604082019050611aa460008301856118a1565b611ab160208301846118a1565b9392505050565b7f415552554d2f696e73756666696369656e742d62616c616e6365000000000000600082015250565b6000611aee601a836116b8565b9150611af982611ab8565b602082019050919050565b60006020820190508181036000830152611b1d81611ae1565b9050919050565b7f4e487b7100000000000000000000000000000000000000000000000000000000600052601160045260246000fd5b6000611b5e826117cb565b9150611b69836117cb565b925082821015611b7c57611b7b611b24565b5b828203905092915050565b6000611b92826117cb565b9150611b9d836117cb565b9250827fffffffffffffffffffffffffffffffffffffffffffffffffffffffffffffffff03821115611bd257611bd1611b24565b5b828201905092915050565b7f415552554d2f696e73756666696369656e742d616c6c6f77616e636500000000600082015250565b6000611c13601c836116b8565b9150611c1e82611bdd565b602082019050919050565b60006020820190508181036000830152611c4281611c06565b9050919050565b7f617070726f76652066726f6d20746865207a65726f2061646472657373000000600082015250565b6000611c7f601d836116b8565b9150611c8a82611c49565b602082019050919050565b60006020820190508181036000830152611cae81611c72565b9050919050565b7f617070726f766520746f20746865207a65726f20616464726573730000000000600082015250565b6000611ceb601b836116b8565b9150611cf682611cb5565b602082019050919050565b60006020820190508181036000830152611d1a81611cde565b9050919050565b7f7472616e736665722066726f6d20746865207a65726f20616464726573730000600082015250565b6000611d57601e836116b8565b9150611d6282611d21565b602082019050919050565b60006020820190508181036000830152611d8681611d4a565b9050919050565b7f7472616e7366657220746f20746865207a65726f206164647265737300000000600082015250565b6000611dc3601c836116b8565b9150611dce82611d8d565b602082019050919050565b60006020820190508181036000830152611df281611db6565b905091905056fea264697066735822122025510ecb5aeb5cec848de9ee3161b256d9b907f96bc808536339944070de28a864736f6c634300080c0033",
  "immutableReferences": {},
  "source": "// SPDX-License-Identifier: MIT\r\npragma solidity 0.8.12;\r\n\r\nimport \"@openzeppelin/contracts/token/ERC20/ERC20.sol\";\r\n\r\ncontract AURUM is IERC20 {\r\n\r\n    // --- Auth -----------------------\r\n    // The original VAI token contract using rely,deny function to add/remove admin address\r\n    // This contract will simplify it using 2 authorized address\r\n    // 1. Admin can set minter but can't mint token\r\n    // 2. Minter can mint token\r\n\r\n\r\n    address public admin;\r\n    address public aurumMinter;\r\n\r\n    modifier onlyAdmin {\r\n      require(msg.sender == admin, \"Unauthorized\");\r\n      _;\r\n    }\r\n\r\n    modifier onlyMinter(){\r\n      require(msg.sender == aurumMinter, \"Unauthorized\");\r\n      _;\r\n    }\r\n    //--------------------------------\r\n\r\n    //ERC20 token standard\r\n    mapping (address => uint256) private _balances;\r\n\r\n    mapping (address => mapping (address => uint256)) private _allowances;\r\n\r\n    uint256 private _totalSupply;\r\n    uint8 private _decimals;\r\n    string private _symbol;\r\n    string private _name;\r\n    \r\n    event TransferAdmin(address from, address to);\r\n    event SetMinter(address oldMinter, address newMinter);\r\n\r\n    constructor() {\r\n      _name = \"Gold AURUM\";\r\n      _symbol = \"AURUM\";\r\n      _decimals = 18;\r\n\r\n      admin = msg.sender;\r\n    }\r\n\r\n    /**\r\n    * @dev Returns the token owner.\r\n    * This function turn off because using wards variable instead\r\n    */\r\n    // function getOwner() external view returns (address) {  //@dev Contract deployer\r\n    //   return _owner;\r\n    // }\r\n\r\n    /**\r\n    * @dev Returns the token decimals.\r\n    */\r\n    function decimals() external view returns (uint8) {\r\n      return _decimals;\r\n    }\r\n\r\n    /**\r\n    * @dev Returns the token symbol.\r\n    */\r\n    function symbol() external view returns (string memory) {\r\n      return _symbol;\r\n    }\r\n\r\n    /**\r\n    * @dev Returns the token name.\r\n    */\r\n    function name() external view returns (string memory) {\r\n      return _name;\r\n    }\r\n\r\n    /**\r\n    * @dev See {BEP20-totalSupply}.\r\n    */\r\n    function totalSupply() external view returns (uint256) {\r\n      return _totalSupply;\r\n    }\r\n\r\n    /**\r\n    * @dev See {BEP20-balanceOf}.\r\n    */\r\n    function balanceOf(address account) external view returns (uint256) {\r\n      return _balances[account];\r\n    }\r\n      //-----------------------\r\n      //----ACTION CONTRACT----\r\n      //-----------------------\r\n    function transfer(address recipient, uint256 amount) external returns (bool) {\r\n      _transfer(msg.sender, recipient, amount);\r\n      return true;\r\n    }\r\n\r\n    function allowance(address owner, address spender) external view returns (uint256) {\r\n      return _allowances[owner][spender];\r\n    }\r\n\r\n    function approve(address spender, uint256 amount) external returns (bool) {\r\n      _approve(msg.sender, spender, amount);\r\n      return true;\r\n    }\r\n\r\n    function transferFrom(address sender, address recipient, uint amount)\r\n        public returns (bool)\r\n    {\r\n        require(_balances[sender] >= amount, \"AURUM/insufficient-balance\");\r\n        uint senderBalance = _balances[sender] - amount;\r\n        uint recipientBalance = _balances[recipient] + amount;\r\n        if (sender != msg.sender && _allowances[sender][msg.sender] != maxUINT()) {\r\n            require(_allowances[sender][msg.sender] >= amount, \"AURUM/insufficient-allowance\");\r\n            _allowances[sender][msg.sender] -= amount;\r\n        }\r\n        _balances[sender] = senderBalance;\r\n        _balances[recipient] = recipientBalance;\r\n        emit Transfer(sender, recipient, amount);\r\n        return true;\r\n    }\r\n\r\n    function increaseAllowance(address spender, uint256 addedValue) public returns (bool) {\r\n      _approve(msg.sender, spender, _allowances[msg.sender][spender] + addedValue);\r\n      return true;\r\n    }\r\n\r\n    /**\r\n    * @dev Atomically decreases the allowance granted to `spender` by the caller.\r\n    *\r\n    * This is an alternative to {approve} that can be used as a mitigation for\r\n    * problems described in {BEP20-approve}.\r\n    *\r\n    * Emits an {Approval} event indicating the updated allowance.\r\n    *\r\n    * Requirements:\r\n    *\r\n    * - `spender` cannot be the zero address.\r\n    * - `spender` must have allowance for the caller of at least\r\n    * `subtractedValue`.\r\n    */\r\n\r\n    // Return maximum number of uint256\r\n    // Compiler 0.8.0 Can't use syntax uint(-1)\r\n      function maxUINT() internal pure returns(uint256){\r\n          uint256 number = type(uint256).max;\r\n          return number;\r\n      }\r\n\r\n    function decreaseAllowance(address spender, uint256 subtractedValue) public returns (bool) {\r\n      _approve(msg.sender, spender, _allowances[msg.sender][spender] - subtractedValue);\r\n      return true;\r\n    }\r\n      // MINT function only `aurumMinter` address is allowed to use\r\n      function mint(address usr, uint wad) external onlyMinter {\r\n          _balances[usr] += wad;\r\n          _totalSupply += wad;\r\n          emit Transfer(address(0), usr, wad);\r\n      }\r\n\r\n      function burn(address usr, uint wad) external {\r\n          require(_balances[usr] >= wad, \"AURUM/insufficient-balance\");\r\n\r\n          //If user allow msg.sender to manipulate AURUM (this case for `wards` address)\r\n          if (usr != msg.sender && _allowances[usr][msg.sender] != maxUINT()) {\r\n              require(_allowances[usr][msg.sender] >= wad, \"AURUM/insufficient-allowance\");\r\n              _allowances[usr][msg.sender] -= wad;\r\n          }\r\n          _balances[usr] -= wad;\r\n          _totalSupply -= wad;\r\n          emit Transfer(usr, address(0), wad);\r\n      }\r\n\r\n    /**\r\n    * @dev Moves tokens `amount` from `sender` to `recipient`.\r\n    *\r\n    * This is internal function is equivalent to {transfer}, and can be used to\r\n    * e.g. implement automatic token fees, slashing mechanisms, etc.\r\n    *\r\n    * Emits a {Transfer} event.\r\n    *\r\n    * Requirements:\r\n    *\r\n    * - `sender` cannot be the zero address.\r\n    * - `recipient` cannot be the zero address.\r\n    * - `sender` must have a balance of at least `amount`.\r\n    */\r\n    function _transfer(address sender, address recipient, uint256 amount) internal {\r\n      require(sender != address(0), \"transfer from the zero address\");\r\n      require(recipient != address(0), \"transfer to the zero address\");\r\n\r\n      _balances[sender] -= amount;\r\n      _balances[recipient] += amount;\r\n      emit Transfer(sender, recipient, amount);\r\n    }\r\n\r\n    /**\r\n    * @dev Sets `amount` as the allowance of `spender` over the `owner`s tokens.\r\n    *\r\n    * This is internal function is equivalent to `approve`, and can be used to\r\n    * e.g. set automatic allowances for certain subsystems, etc.\r\n    *\r\n    * Emits an {Approval} event.\r\n    *\r\n    * Requirements:\r\n    *\r\n    * - `owner` cannot be the zero address.\r\n    * - `spender` cannot be the zero address.\r\n    */\r\n    function _approve(address owner, address spender, uint256 amount) internal {\r\n      require(owner != address(0), \"approve from the zero address\");\r\n      require(spender != address(0), \"approve to the zero address\");\r\n\r\n      _allowances[owner][spender] = amount;\r\n      emit Approval(owner, spender, amount);\r\n    }\r\n\r\n    function _transferAdmin (address _to) onlyAdmin external{\r\n      address _from = admin;\r\n      admin = _to;\r\n\r\n      emit TransferAdmin(_from, _to);\r\n    }\r\n\r\n    function _setMinter (address newMinter) onlyAdmin external{\r\n      address oldMinter = aurumMinter;\r\n      aurumMinter = newMinter;\r\n\r\n      emit SetMinter(oldMinter, newMinter);\r\n    }\r\n}\r\n",
  "sourcePath": "C:\\Users\\chana\\desktop\\aurumdefi\\src\\contracts\\AURUM.sol",
  "compiler": {
    "name": "solc",
    "version": "0.8.12+commit.f00d7308.Emscripten.clang"
  },
  "schemaVersion": "3.4.6",
  "updatedAt": "2022-05-01T10:25:12.605Z",
  "devdoc": {
    "kind": "dev",
    "methods": {
      "allowance(address,address)": {
        "details": "Returns the remaining number of tokens that `spender` will be allowed to spend on behalf of `owner` through {transferFrom}. This is zero by default. This value changes when {approve} or {transferFrom} are called."
      },
      "approve(address,uint256)": {
        "details": "Sets `amount` as the allowance of `spender` over the caller's tokens. Returns a boolean value indicating whether the operation succeeded. IMPORTANT: Beware that changing an allowance with this method brings the risk that someone may use both the old and the new allowance by unfortunate transaction ordering. One possible solution to mitigate this race condition is to first reduce the spender's allowance to 0 and set the desired value afterwards: https://github.com/ethereum/EIPs/issues/20#issuecomment-263524729 Emits an {Approval} event."
      },
      "balanceOf(address)": {
        "details": "See {BEP20-balanceOf}."
      },
      "decimals()": {
        "details": "Returns the token decimals."
      },
      "name()": {
        "details": "Returns the token name."
      },
      "symbol()": {
        "details": "Returns the token symbol."
      },
      "totalSupply()": {
        "details": "See {BEP20-totalSupply}."
      }
    },
    "version": 1
  },
  "userdoc": {
    "kind": "user",
    "methods": {},
    "version": 1
  }
}