{
  "contractName": "AurumSlidingWindowOracle",
  "abi": [
    {
      "inputs": [
        {
          "internalType": "address",
          "name": "factory_",
          "type": "address"
        },
        {
          "internalType": "uint256",
          "name": "windowSize_",
          "type": "uint256"
        },
        {
          "internalType": "uint8",
          "name": "granularity_",
          "type": "uint8"
        }
      ],
      "stateMutability": "nonpayable",
      "type": "constructor"
    },
    {
      "inputs": [],
      "name": "factory",
      "outputs": [
        {
          "internalType": "address",
          "name": "",
          "type": "address"
        }
      ],
      "stateMutability": "view",
      "type": "function",
      "constant": true
    },
    {
      "inputs": [],
      "name": "granularity",
      "outputs": [
        {
          "internalType": "uint8",
          "name": "",
          "type": "uint8"
        }
      ],
      "stateMutability": "view",
      "type": "function",
      "constant": true
    },
    {
      "inputs": [
        {
          "internalType": "address",
          "name": "",
          "type": "address"
        },
        {
          "internalType": "uint256",
          "name": "",
          "type": "uint256"
        }
      ],
      "name": "pairObservations",
      "outputs": [
        {
          "internalType": "uint256",
          "name": "timestamp",
          "type": "uint256"
        },
        {
          "internalType": "uint256",
          "name": "price0Cumulative",
          "type": "uint256"
        },
        {
          "internalType": "uint256",
          "name": "price1Cumulative",
          "type": "uint256"
        }
      ],
      "stateMutability": "view",
      "type": "function",
      "constant": true
    },
    {
      "inputs": [],
      "name": "periodSize",
      "outputs": [
        {
          "internalType": "uint256",
          "name": "",
          "type": "uint256"
        }
      ],
      "stateMutability": "view",
      "type": "function",
      "constant": true
    },
    {
      "inputs": [],
      "name": "windowSize",
      "outputs": [
        {
          "internalType": "uint256",
          "name": "",
          "type": "uint256"
        }
      ],
      "stateMutability": "view",
      "type": "function",
      "constant": true
    },
    {
      "inputs": [
        {
          "internalType": "uint256",
          "name": "timestamp",
          "type": "uint256"
        }
      ],
      "name": "observationIndexOf",
      "outputs": [
        {
          "internalType": "uint8",
          "name": "index",
          "type": "uint8"
        }
      ],
      "stateMutability": "view",
      "type": "function",
      "constant": true
    },
    {
      "inputs": [
        {
          "internalType": "address",
          "name": "tokenA",
          "type": "address"
        },
        {
          "internalType": "address",
          "name": "tokenB",
          "type": "address"
        }
      ],
      "name": "update",
      "outputs": [],
      "stateMutability": "nonpayable",
      "type": "function"
    },
    {
      "inputs": [
        {
          "internalType": "address",
          "name": "tokenIn",
          "type": "address"
        },
        {
          "internalType": "uint256",
          "name": "amountIn",
          "type": "uint256"
        },
        {
          "internalType": "address",
          "name": "tokenOut",
          "type": "address"
        }
      ],
      "name": "consult",
      "outputs": [
        {
          "internalType": "uint256",
          "name": "amountOut",
          "type": "uint256"
        }
      ],
      "stateMutability": "view",
      "type": "function",
      "constant": true
    }
  ],
  "bytecode": "0x61010060405234801561001157600080fd5b506040516117ed3803806117ed8339818101604052606081101561003457600080fd5b8101908080519060200190929190805190602001909291908051906020019092919050505060018160ff16116100d2576040517f08c379a00000000000000000000000000000000000000000000000000000000081526004018080602001828103825260208152602001807f536c6964696e6757696e646f774f7261636c653a204752414e554c415249545981525060200191505060405180910390fd5b818160ff168260ff1684816100e357fe5b0460e0818152500214610141576040517f08c379a00000000000000000000000000000000000000000000000000000000081526004018080602001828103825260308152602001806117bd6030913960400191505060405180910390fd5b8273ffffffffffffffffffffffffffffffffffffffff1660808173ffffffffffffffffffffffffffffffffffffffff1660601b815250508160a081815250508060ff1660c08160ff1660f81b8152505050505060805160601c60a05160c05160f81c60e0516115bc610201600039806104c352806108b8528061091a528061097b5250806102d752806107af528061094652806109af5250806102fb528061044852806104e55250806103225280610634528061065a52506115bc6000f3fe608060405234801561001057600080fd5b50600436106100885760003560e01c8063c45a01551161005b578063c45a0155146101c1578063c640752d1461020b578063dbaad32f1461026f578063e4463eb2146102b757610088565b8063556f0dc71461008d5780638a14117a146100b15780638c86f1e4146100cf578063bfcc8e4214610151575b600080fd5b6100956102d5565b604051808260ff1660ff16815260200191505060405180910390f35b6100b96102f9565b6040518082815260200191505060405180910390f35b61013b600480360360608110156100e557600080fd5b81019080803573ffffffffffffffffffffffffffffffffffffffff16906020019092919080359060200190929190803573ffffffffffffffffffffffffffffffffffffffff16906020019092919050505061031d565b6040518082815260200191505060405180910390f35b61019d6004803603604081101561016757600080fd5b81019080803573ffffffffffffffffffffffffffffffffffffffff169060200190929190803590602001909291905050506105ee565b60405180848152602001838152602001828152602001935050505060405180910390f35b6101c9610632565b604051808273ffffffffffffffffffffffffffffffffffffffff1673ffffffffffffffffffffffffffffffffffffffff16815260200191505060405180910390f35b61026d6004803603604081101561022157600080fd5b81019080803573ffffffffffffffffffffffffffffffffffffffff169060200190929190803573ffffffffffffffffffffffffffffffffffffffff169060200190929190505050610656565b005b61029b6004803603602081101561028557600080fd5b8101908080359060200190929190505050610915565b604051808260ff1660ff16815260200191505060405180910390f35b6102bf610979565b6040518082815260200191505060405180910390f35b7f000000000000000000000000000000000000000000000000000000000000000081565b7f000000000000000000000000000000000000000000000000000000000000000081565b6000807f000000000000000000000000000000000000000000000000000000000000000073ffffffffffffffffffffffffffffffffffffffff1663e6a4390586856040518363ffffffff1660e01b8152600401808373ffffffffffffffffffffffffffffffffffffffff1673ffffffffffffffffffffffffffffffffffffffff1681526020018273ffffffffffffffffffffffffffffffffffffffff1673ffffffffffffffffffffffffffffffffffffffff1681526020019250505060206040518083038186803b1580156103f157600080fd5b505afa158015610405573d6000803e3d6000fd5b505050506040513d602081101561041b57600080fd5b8101908080519060200190929190505050905060006104398261099d565b905060008160000154420390507f00000000000000000000000000000000000000000000000000000000000000008111156104bf576040517f08c379a00000000000000000000000000000000000000000000000000000000081526004018080602001828103825260338152602001806114dd6033913960400191505060405180910390fd5b60027f0000000000000000000000000000000000000000000000000000000000000000027f00000000000000000000000000000000000000000000000000000000000000000381101561055d576040517f08c379a000000000000000000000000000000000000000000000000000000000815260040180806020018281038252602c815260200180611510602c913960400191505060405180910390fd5b60008061056985610a45565b5091509150600061057a8a89610cd0565b5090508973ffffffffffffffffffffffffffffffffffffffff168173ffffffffffffffffffffffffffffffffffffffff1614156105ce576105c1856001015484868c610e47565b96505050505050506105e7565b6105de856002015483868c610e47565b96505050505050505b9392505050565b6000602052816000526040600020818154811061060757fe5b9060005260206000209060030201600091509150508060000154908060010154908060020154905083565b7f000000000000000000000000000000000000000000000000000000000000000081565b60007f000000000000000000000000000000000000000000000000000000000000000073ffffffffffffffffffffffffffffffffffffffff1663e6a4390584846040518363ffffffff1660e01b8152600401808373ffffffffffffffffffffffffffffffffffffffff1673ffffffffffffffffffffffffffffffffffffffff1681526020018273ffffffffffffffffffffffffffffffffffffffff1673ffffffffffffffffffffffffffffffffffffffff1681526020019250505060206040518083038186803b15801561072957600080fd5b505afa15801561073d573d6000803e3d6000fd5b505050506040513d602081101561075357600080fd5b8101908080519060200190929190505050905060008060008373ffffffffffffffffffffffffffffffffffffffff1673ffffffffffffffffffffffffffffffffffffffff1681526020019081526020016000208054905090505b7f000000000000000000000000000000000000000000000000000000000000000060ff1681101561083f576000808373ffffffffffffffffffffffffffffffffffffffff1673ffffffffffffffffffffffffffffffffffffffff1681526020019081526020016000206001816001815401808255809150500390600052602060002090505080806001019150506107ad565b50600061084b42610915565b905060008060008473ffffffffffffffffffffffffffffffffffffffff1673ffffffffffffffffffffffffffffffffffffffff1681526020019081526020016000208260ff168154811061089b57fe5b9060005260206000209060030201905060008160000154420390507f000000000000000000000000000000000000000000000000000000000000000081111561090d576000806108ea86610a45565b509150915042846000018190555081846001018190555080846002018190555050505b505050505050565b6000807f0000000000000000000000000000000000000000000000000000000000000000838161094157fe5b0490507f000000000000000000000000000000000000000000000000000000000000000060ff16818161097057fe5b06915050919050565b7f000000000000000000000000000000000000000000000000000000000000000081565b6000806109a942610915565b905060007f000000000000000000000000000000000000000000000000000000000000000060ff166001830160ff16816109df57fe5b0690506000808573ffffffffffffffffffffffffffffffffffffffff1673ffffffffffffffffffffffffffffffffffffffff1681526020019081526020016000208160ff1681548110610a2e57fe5b906000526020600020906003020192505050919050565b6000806000610a52610ec5565b90508373ffffffffffffffffffffffffffffffffffffffff16635909c0d56040518163ffffffff1660e01b815260040160206040518083038186803b158015610a9a57600080fd5b505afa158015610aae573d6000803e3d6000fd5b505050506040513d6020811015610ac457600080fd5b810190808051906020019092919050505092508373ffffffffffffffffffffffffffffffffffffffff16635a3d54936040518163ffffffff1660e01b815260040160206040518083038186803b158015610b1d57600080fd5b505afa158015610b31573d6000803e3d6000fd5b505050506040513d6020811015610b4757600080fd5b8101908080519060200190929190505050915060008060008673ffffffffffffffffffffffffffffffffffffffff16630902f1ac6040518163ffffffff1660e01b815260040160606040518083038186803b158015610ba557600080fd5b505afa158015610bb9573d6000803e3d6000fd5b505050506040513d6060811015610bcf57600080fd5b810190808051906020019092919080519060200190929190805190602001909291905050509250925092508363ffffffff168163ffffffff1614610cc657600081850390508063ffffffff16610c45846dffffffffffffffffffffffffffff16866dffffffffffffffffffffffffffff16610edb565b600001517bffffffffffffffffffffffffffffffffffffffffffffffffffffffff1602870196508063ffffffff16610c9d856dffffffffffffffffffffffffffff16856dffffffffffffffffffffffffffff16610edb565b600001517bffffffffffffffffffffffffffffffffffffffffffffffffffffffff160286019550505b5050509193909250565b6000808273ffffffffffffffffffffffffffffffffffffffff168473ffffffffffffffffffffffffffffffffffffffff161415610d58576040517f08c379a000000000000000000000000000000000000000000000000000000000815260040180806020018281038252602581526020018061153c6025913960400191505060405180910390fd5b8273ffffffffffffffffffffffffffffffffffffffff168473ffffffffffffffffffffffffffffffffffffffff1610610d92578284610d95565b83835b8092508193505050600073ffffffffffffffffffffffffffffffffffffffff168273ffffffffffffffffffffffffffffffffffffffff161415610e40576040517f08c379a000000000000000000000000000000000000000000000000000000000815260040180806020018281038252601e8152602001807f556e697377617056324c6962726172793a205a45524f5f41444452455353000081525060200191505060405180910390fd5b9250929050565b6000610e51611498565b60405180602001604052808588880381610e6757fe5b047bffffffffffffffffffffffffffffffffffffffffffffffffffffffff168152509050610ea6610ea184836111bc90919063ffffffff16565b6112b3565b71ffffffffffffffffffffffffffffffffffff16915050949350505050565b60006401000000004281610ed557fe5b06905090565b610ee3611498565b60008211610f3c576040517f08c379a00000000000000000000000000000000000000000000000000000000081526004018080602001828103825260268152602001806115616026913960400191505060405180910390fd5b6000831415610f7a57604051806020016040528060007bffffffffffffffffffffffffffffffffffffffffffffffffffffffff1681525090506111b6565b7fffffffffffffffffffffffffffffffffffffffffffffffffffffffffffffffff71ffffffffffffffffffffffffffffffffffff1683116110b357600082607060ff1685901b81610fc757fe5b0490507fffffffffffffffffffffffffffffffffffffffffffffffffffffffffffffffff7bffffffffffffffffffffffffffffffffffffffffffffffffffffffff1681111561107e576040517f08c379a000000000000000000000000000000000000000000000000000000000815260040180806020018281038252601e8152602001807f4669786564506f696e743a3a6672616374696f6e3a206f766572666c6f77000081525060200191505060405180910390fd5b6040518060200160405280827bffffffffffffffffffffffffffffffffffffffffffffffffffffffff168152509150506111b6565b60006110cf846e010000000000000000000000000000856112c8565b90507fffffffffffffffffffffffffffffffffffffffffffffffffffffffffffffffff7bffffffffffffffffffffffffffffffffffffffffffffffffffffffff16811115611185576040517f08c379a000000000000000000000000000000000000000000000000000000000815260040180806020018281038252601e8152602001807f4669786564506f696e743a3a6672616374696f6e3a206f766572666c6f77000081525060200191505060405180910390fd5b6040518060200160405280827bffffffffffffffffffffffffffffffffffffffffffffffffffffffff168152509150505b92915050565b6111c46114c9565b60008090506000831480611229575083600001517bffffffffffffffffffffffffffffffffffffffffffffffffffffffff16838486600001517bffffffffffffffffffffffffffffffffffffffffffffffffffffffff16029250828161122657fe5b04145b61129b576040517f08c379a00000000000000000000000000000000000000000000000000000000081526004018080602001828103825260198152602001807f4669786564506f696e743a3a6d756c3a206f766572666c6f770000000000000081525060200191505060405180910390fd5b60405180602001604052808281525091505092915050565b6000607060ff168260000151901c9050919050565b60008060006112d786866113a8565b91509150600084806112e557fe5b8688099050828111156112f9576001820391505b8083039250600082141561131b5784838161131057fe5b0493505050506113a1565b848210611390576040517f08c379a000000000000000000000000000000000000000000000000000000000815260040180806020018281038252601a8152602001807f46756c6c4d6174683a2046554c4c4449565f4f564552464c4f5700000000000081525060200191505060405180910390fd5b61139b8383876113fb565b93505050505b9392505050565b60008060007fffffffffffffffffffffffffffffffffffffffffffffffffffffffffffffffff806113d557fe5b848609905083850292508281039150828110156113f3576001820391505b509250929050565b600080826000038316905080838161140f57fe5b04925080858161141b57fe5b049450600181826000038161142c57fe5b04018402850194506000600190508084026002038102905080840260020381029050808402600203810290508084026002038102905080840260020381029050808402600203810290508084026002038102905080840260020381029050808602925050509392505050565b604051806020016040528060007bffffffffffffffffffffffffffffffffffffffffffffffffffffffff1681525090565b604051806020016040528060008152509056fe536c6964696e6757696e646f774f7261636c653a204d495353494e475f484953544f524943414c5f4f42534552564154494f4e536c6964696e6757696e646f774f7261636c653a20554e45585045435445445f54494d455f454c4150534544556e697377617056324c6962726172793a204944454e544943414c5f4144445245535345534669786564506f696e743a3a6672616374696f6e3a206469766973696f6e206279207a65726fa2646970667358221220348d4f4d00fe12a5b5f3ba1b847f8120fbdf35f398aeeba49c06022a7017ad7c64736f6c63430006060033536c6964696e6757696e646f774f7261636c653a2057494e444f575f4e4f545f4556454e4c595f444956495349424c45",
  "immutableReferences": {
    "78": [
      {
        "length": 32,
        "start": 802
      },
      {
        "length": 32,
        "start": 1588
      },
      {
        "length": 32,
        "start": 1626
      }
    ],
    "80": [
      {
        "length": 32,
        "start": 763
      },
      {
        "length": 32,
        "start": 1096
      },
      {
        "length": 32,
        "start": 1253
      }
    ],
    "82": [
      {
        "length": 32,
        "start": 727
      },
      {
        "length": 32,
        "start": 1967
      },
      {
        "length": 32,
        "start": 2374
      },
      {
        "length": 32,
        "start": 2479
      }
    ],
    "84": [
      {
        "length": 32,
        "start": 1219
      },
      {
        "length": 32,
        "start": 2232
      },
      {
        "length": 32,
        "start": 2330
      },
      {
        "length": 32,
        "start": 2427
      }
    ]
  },
  "source": "pragma solidity ^0.6.0;\r\n\r\nimport '../interfaces/IUniswapV2Factory.sol';\r\nimport '../interfaces/IUniswapV2Pair.sol';\r\nimport '../libraries/FixedPoint.sol';\r\n\r\nimport '../libraries/SafeMath.sol';\r\nimport '../libraries/UniswapV2Library.sol';\r\nimport '../libraries/UniswapV2OracleLibrary.sol';\r\n\r\n// Original pairFor function from library UniswapV2Library may not compatible to others forked application\r\n// We use function getPair  of UniswapFactory instead...\r\n\r\n\r\n\r\n// sliding window oracle that uses observations collected over a window to provide moving price averages in the past\r\n// `windowSize` with a precision of `windowSize / granularity`\r\n// note this is a singleton oracle and only needs to be deployed once per desired parameters, which\r\n// differs from the simple oracle which must be deployed once per pair.\r\ncontract AurumSlidingWindowOracle {\r\n    using FixedPoint for *;\r\n    using SafeMath for uint;\r\n\r\n    struct Observation {\r\n        uint timestamp;\r\n        uint price0Cumulative;\r\n        uint price1Cumulative;\r\n    }\r\n\r\n    address public immutable factory;\r\n    // the desired amount of time over which the moving average should be computed, e.g. 24 hours\r\n    uint public immutable windowSize;\r\n    // the number of observations stored for each pair, i.e. how many price observations are stored for the window.\r\n    // as granularity increases from 1, more frequent updates are needed, but moving averages become more precise.\r\n    // averages are computed over intervals with sizes in the range:\r\n    //   [windowSize - (windowSize / granularity) * 2, windowSize]\r\n    // e.g. if the window size is 24 hours, and the granularity is 24, the oracle will return the average price for\r\n    //   the period:\r\n    //   [now - [22 hours, 24 hours], now]\r\n    uint8 public immutable granularity;\r\n    // this is redundant with granularity and windowSize, but stored for gas savings & informational purposes.\r\n    uint public immutable periodSize;\r\n\r\n    // mapping from pair address to a list of price observations of that pair\r\n    mapping(address => Observation[]) public pairObservations;\r\n\r\n    constructor(address factory_, uint windowSize_, uint8 granularity_) public {\r\n        require(granularity_ > 1, 'SlidingWindowOracle: GRANULARITY');\r\n        require(\r\n            (periodSize = windowSize_ / granularity_) * granularity_ == windowSize_,\r\n            'SlidingWindowOracle: WINDOW_NOT_EVENLY_DIVISIBLE'\r\n        );\r\n        factory = factory_;\r\n        windowSize = windowSize_;\r\n        granularity = granularity_;\r\n    }\r\n\r\n    // returns the index of the observation corresponding to the given timestamp\r\n    function observationIndexOf(uint timestamp) public view returns (uint8 index) {\r\n        uint epochPeriod = timestamp / periodSize;\r\n        return uint8(epochPeriod % granularity);\r\n    }\r\n\r\n    // returns the observation from the oldest epoch (at the beginning of the window) relative to the current time\r\n    function getFirstObservationInWindow(address pair) private view returns (Observation storage firstObservation) {\r\n        uint8 observationIndex = observationIndexOf(block.timestamp);\r\n        // no overflow issue. if observationIndex + 1 overflows, result is still zero.\r\n        uint8 firstObservationIndex = (observationIndex + 1) % granularity;\r\n        firstObservation = pairObservations[pair][firstObservationIndex];\r\n    }\r\n\r\n    // update the cumulative price for the observation at the current timestamp. each observation is updated at most\r\n    // once per epoch period.\r\n    function update(address tokenA, address tokenB) external {\r\n        address pair = IUniswapV2Factory(factory).getPair(tokenA,tokenB);\r\n\r\n        // populate the array with empty observations (first call only)\r\n        for (uint i = pairObservations[pair].length; i < granularity; i++) {\r\n            pairObservations[pair].push();\r\n        }\r\n\r\n        // get the observation for the current period\r\n        uint8 observationIndex = observationIndexOf(block.timestamp);\r\n        Observation storage observation = pairObservations[pair][observationIndex];\r\n\r\n        // we only want to commit updates once per period (i.e. windowSize / granularity)\r\n        uint timeElapsed = block.timestamp - observation.timestamp;\r\n        if (timeElapsed > periodSize) {\r\n            (uint price0Cumulative, uint price1Cumulative,) = UniswapV2OracleLibrary.currentCumulativePrices(pair);\r\n            observation.timestamp = block.timestamp;\r\n            observation.price0Cumulative = price0Cumulative;\r\n            observation.price1Cumulative = price1Cumulative;\r\n        }\r\n    }\r\n\r\n    // given the cumulative prices of the start and end of a period, and the length of the period, compute the average\r\n    // price in terms of how much amount out is received for the amount in\r\n    function computeAmountOut(\r\n        uint priceCumulativeStart, uint priceCumulativeEnd,\r\n        uint timeElapsed, uint amountIn\r\n    ) private pure returns (uint amountOut) {\r\n        // overflow is desired.\r\n        FixedPoint.uq112x112 memory priceAverage = FixedPoint.uq112x112(\r\n            uint224((priceCumulativeEnd - priceCumulativeStart) / timeElapsed)\r\n        );\r\n        amountOut = priceAverage.mul(amountIn).decode144();\r\n    }\r\n\r\n    // returns the amount out corresponding to the amount in for a given token using the moving average over the time\r\n    // range [now - [windowSize, windowSize - periodSize * 2], now]\r\n    // update must have been called for the bucket corresponding to timestamp `now - windowSize`\r\n    function consult(address tokenIn, uint amountIn, address tokenOut) external view returns (uint amountOut) {\r\n        address pair = IUniswapV2Factory(factory).getPair(tokenIn,tokenOut);\r\n        Observation storage firstObservation = getFirstObservationInWindow(pair);\r\n\r\n        uint timeElapsed = block.timestamp - firstObservation.timestamp;\r\n        require(timeElapsed <= windowSize, 'SlidingWindowOracle: MISSING_HISTORICAL_OBSERVATION');\r\n        // should never happen.\r\n        require(timeElapsed >= windowSize - periodSize * 2, 'SlidingWindowOracle: UNEXPECTED_TIME_ELAPSED');\r\n\r\n        (uint price0Cumulative, uint price1Cumulative,) = UniswapV2OracleLibrary.currentCumulativePrices(pair);\r\n        (address token0,) = UniswapV2Library.sortTokens(tokenIn, tokenOut);\r\n\r\n        if (token0 == tokenIn) {\r\n            return computeAmountOut(firstObservation.price0Cumulative, price0Cumulative, timeElapsed, amountIn);\r\n        } else {\r\n            return computeAmountOut(firstObservation.price1Cumulative, price1Cumulative, timeElapsed, amountIn);\r\n        }\r\n    }\r\n}\r\n",
  "sourcePath": "C:\\Users\\chana\\desktop\\v2-periphery\\contracts\\examples\\AurumSlidingWindowOracle.sol",
  "compiler": {
    "name": "solc",
    "version": "0.6.6+commit.6c089d02.Emscripten.clang"
  },
  "schemaVersion": "3.4.6",
  "updatedAt": "2022-04-03T05:45:12.887Z",
  "networkType": "ethereum",
  "devdoc": {
    "methods": {}
  },
  "userdoc": {
    "methods": {}
  }
}