{
  "contractName": "AurumController",
  "abi": [
    {
      "inputs": [
        {
          "internalType": "address",
          "name": "aurum_",
          "type": "address"
        }
      ],
      "stateMutability": "nonpayable",
      "type": "constructor"
    },
    {
      "anonymous": false,
      "inputs": [
        {
          "indexed": false,
          "internalType": "address",
          "name": "liquidator",
          "type": "address"
        },
        {
          "indexed": false,
          "internalType": "address",
          "name": "borrower",
          "type": "address"
        },
        {
          "indexed": false,
          "internalType": "uint256",
          "name": "repayAmount",
          "type": "uint256"
        },
        {
          "indexed": false,
          "internalType": "address",
          "name": "LendTokenCollateral",
          "type": "address"
        },
        {
          "indexed": false,
          "internalType": "uint256",
          "name": "seizeTokens",
          "type": "uint256"
        }
      ],
      "name": "LiquidateGold",
      "type": "event"
    },
    {
      "anonymous": false,
      "inputs": [
        {
          "indexed": false,
          "internalType": "address",
          "name": "minter",
          "type": "address"
        },
        {
          "indexed": false,
          "internalType": "uint256",
          "name": "feeAmount",
          "type": "uint256"
        }
      ],
      "name": "MintFee",
      "type": "event"
    },
    {
      "anonymous": false,
      "inputs": [
        {
          "indexed": false,
          "internalType": "address",
          "name": "minter",
          "type": "address"
        },
        {
          "indexed": false,
          "internalType": "uint256",
          "name": "mintGoldAmount",
          "type": "uint256"
        }
      ],
      "name": "MintGOLD",
      "type": "event"
    },
    {
      "anonymous": false,
      "inputs": [
        {
          "indexed": false,
          "internalType": "address",
          "name": "oldAURUMAddress",
          "type": "address"
        },
        {
          "indexed": false,
          "internalType": "address",
          "name": "newAURUMAddress",
          "type": "address"
        }
      ],
      "name": "NewAURUMAddress",
      "type": "event"
    },
    {
      "anonymous": false,
      "inputs": [
        {
          "indexed": false,
          "internalType": "contract ComptrollerInterface",
          "name": "oldComptroller",
          "type": "address"
        },
        {
          "indexed": false,
          "internalType": "contract ComptrollerInterface",
          "name": "newComptroller",
          "type": "address"
        }
      ],
      "name": "NewComptroller",
      "type": "event"
    },
    {
      "anonymous": false,
      "inputs": [
        {
          "indexed": false,
          "internalType": "address",
          "name": "oldTreasuryAddress",
          "type": "address"
        },
        {
          "indexed": false,
          "internalType": "address",
          "name": "newTreasuryAddress",
          "type": "address"
        }
      ],
      "name": "NewTreasuryAddress",
      "type": "event"
    },
    {
      "anonymous": false,
      "inputs": [
        {
          "indexed": false,
          "internalType": "address",
          "name": "oldTreasuryGuardian",
          "type": "address"
        },
        {
          "indexed": false,
          "internalType": "address",
          "name": "newTreasuryGuardian",
          "type": "address"
        }
      ],
      "name": "NewTreasuryGuardian",
      "type": "event"
    },
    {
      "anonymous": false,
      "inputs": [
        {
          "indexed": false,
          "internalType": "uint256",
          "name": "oldTreasuryPercent",
          "type": "uint256"
        },
        {
          "indexed": false,
          "internalType": "uint256",
          "name": "newTreasuryPercent",
          "type": "uint256"
        }
      ],
      "name": "NewTreasuryPercent",
      "type": "event"
    },
    {
      "anonymous": false,
      "inputs": [
        {
          "indexed": false,
          "internalType": "address",
          "name": "payer",
          "type": "address"
        },
        {
          "indexed": false,
          "internalType": "address",
          "name": "borrower",
          "type": "address"
        },
        {
          "indexed": false,
          "internalType": "uint256",
          "name": "repayGoldAmount",
          "type": "uint256"
        }
      ],
      "name": "RepayGOLD",
      "type": "event"
    },
    {
      "anonymous": false,
      "inputs": [
        {
          "indexed": false,
          "internalType": "address",
          "name": "oldAdmin",
          "type": "address"
        },
        {
          "indexed": false,
          "internalType": "address",
          "name": "newAdmin",
          "type": "address"
        }
      ],
      "name": "SetNewAdmin",
      "type": "event"
    },
    {
      "inputs": [],
      "name": "admin",
      "outputs": [
        {
          "internalType": "address",
          "name": "",
          "type": "address"
        }
      ],
      "stateMutability": "view",
      "type": "function"
    },
    {
      "inputs": [],
      "name": "aurumAddress",
      "outputs": [
        {
          "internalType": "address",
          "name": "",
          "type": "address"
        }
      ],
      "stateMutability": "view",
      "type": "function"
    },
    {
      "inputs": [
        {
          "internalType": "address",
          "name": "",
          "type": "address"
        }
      ],
      "name": "aurumGOLDMinterIndex",
      "outputs": [
        {
          "internalType": "uint256",
          "name": "",
          "type": "uint256"
        }
      ],
      "stateMutability": "view",
      "type": "function"
    },
    {
      "inputs": [],
      "name": "aurumGOLDState",
      "outputs": [
        {
          "internalType": "uint256",
          "name": "index",
          "type": "uint256"
        },
        {
          "internalType": "uint256",
          "name": "lastTimestamp",
          "type": "uint256"
        }
      ],
      "stateMutability": "view",
      "type": "function"
    },
    {
      "inputs": [],
      "name": "comptroller",
      "outputs": [
        {
          "internalType": "contract ComptrollerInterface",
          "name": "",
          "type": "address"
        }
      ],
      "stateMutability": "view",
      "type": "function"
    },
    {
      "inputs": [],
      "name": "goldInitialIndex",
      "outputs": [
        {
          "internalType": "uint256",
          "name": "",
          "type": "uint256"
        }
      ],
      "stateMutability": "view",
      "type": "function"
    },
    {
      "inputs": [
        {
          "internalType": "uint256",
          "name": "",
          "type": "uint256"
        }
      ],
      "name": "goldMinterAddress",
      "outputs": [
        {
          "internalType": "address",
          "name": "",
          "type": "address"
        }
      ],
      "stateMutability": "view",
      "type": "function"
    },
    {
      "inputs": [],
      "name": "treasuryAddress",
      "outputs": [
        {
          "internalType": "address",
          "name": "",
          "type": "address"
        }
      ],
      "stateMutability": "view",
      "type": "function"
    },
    {
      "inputs": [],
      "name": "treasuryGuardian",
      "outputs": [
        {
          "internalType": "address",
          "name": "",
          "type": "address"
        }
      ],
      "stateMutability": "view",
      "type": "function"
    },
    {
      "inputs": [],
      "name": "treasuryPercent",
      "outputs": [
        {
          "internalType": "uint256",
          "name": "",
          "type": "uint256"
        }
      ],
      "stateMutability": "view",
      "type": "function"
    },
    {
      "inputs": [],
      "name": "getGoldMinter",
      "outputs": [
        {
          "internalType": "address[]",
          "name": "",
          "type": "address[]"
        }
      ],
      "stateMutability": "view",
      "type": "function"
    },
    {
      "inputs": [
        {
          "internalType": "uint256",
          "name": "mintGOLDAmount",
          "type": "uint256"
        }
      ],
      "name": "mintGOLD",
      "outputs": [],
      "stateMutability": "nonpayable",
      "type": "function"
    },
    {
      "inputs": [
        {
          "internalType": "uint256",
          "name": "repayGOLDAmount",
          "type": "uint256"
        }
      ],
      "name": "repayGOLD",
      "outputs": [
        {
          "internalType": "uint256",
          "name": "",
          "type": "uint256"
        }
      ],
      "stateMutability": "nonpayable",
      "type": "function"
    },
    {
      "inputs": [
        {
          "internalType": "address",
          "name": "borrower",
          "type": "address"
        },
        {
          "internalType": "uint256",
          "name": "repayAmount",
          "type": "uint256"
        },
        {
          "internalType": "contract LendTokenInterface",
          "name": "lendTokenCollateral",
          "type": "address"
        }
      ],
      "name": "liquidateGOLD",
      "outputs": [
        {
          "internalType": "uint256",
          "name": "",
          "type": "uint256"
        }
      ],
      "stateMutability": "nonpayable",
      "type": "function"
    },
    {
      "inputs": [
        {
          "internalType": "address",
          "name": "newAdmin",
          "type": "address"
        }
      ],
      "name": "_setAdmin",
      "outputs": [],
      "stateMutability": "nonpayable",
      "type": "function"
    },
    {
      "inputs": [
        {
          "internalType": "contract ComptrollerInterface",
          "name": "comptroller_",
          "type": "address"
        }
      ],
      "name": "_setComptroller",
      "outputs": [],
      "stateMutability": "nonpayable",
      "type": "function"
    },
    {
      "inputs": [
        {
          "internalType": "address",
          "name": "newTreasuryGuardian",
          "type": "address"
        },
        {
          "internalType": "address",
          "name": "newTreasuryAddress",
          "type": "address"
        },
        {
          "internalType": "uint256",
          "name": "newTreasuryPercent",
          "type": "uint256"
        }
      ],
      "name": "_setTreasuryData",
      "outputs": [],
      "stateMutability": "nonpayable",
      "type": "function"
    },
    {
      "inputs": [
        {
          "internalType": "address",
          "name": "newAURUMAddress",
          "type": "address"
        }
      ],
      "name": "_setAURUMAddress",
      "outputs": [],
      "stateMutability": "nonpayable",
      "type": "function"
    },
    {
      "inputs": [
        {
          "internalType": "address",
          "name": "minter",
          "type": "address"
        }
      ],
      "name": "getMintableGOLD",
      "outputs": [
        {
          "internalType": "uint256",
          "name": "",
          "type": "uint256"
        }
      ],
      "stateMutability": "view",
      "type": "function"
    },
    {
      "inputs": [],
      "name": "getTimestamp",
      "outputs": [
        {
          "internalType": "uint256",
          "name": "",
          "type": "uint256"
        }
      ],
      "stateMutability": "view",
      "type": "function"
    },
    {
      "inputs": [],
      "name": "getAURUMAddress",
      "outputs": [
        {
          "internalType": "address",
          "name": "",
          "type": "address"
        }
      ],
      "stateMutability": "view",
      "type": "function"
    }
  ],
  "bytecode": "0x60806040523480156200001157600080fd5b50604051620039753803806200397583398181016040528101906200003791906200019f565b33600160006101000a81548173ffffffffffffffffffffffffffffffffffffffff021916908373ffffffffffffffffffffffffffffffffffffffff16021790555080600260006101000a81548173ffffffffffffffffffffffffffffffffffffffff021916908373ffffffffffffffffffffffffffffffffffffffff1602179055506001600960006101000a81548160ff0219169083151502179055506000620000e66200012d60201b60201c565b905060405180604001604052806ec097ce7bc90715b34b9f1000000000815260200182815250600360008201518160000155602082015181600101559050505050620001d1565b600042905090565b600080fd5b600073ffffffffffffffffffffffffffffffffffffffff82169050919050565b600062000167826200013a565b9050919050565b62000179816200015a565b81146200018557600080fd5b50565b60008151905062000199816200016e565b92915050565b600060208284031215620001b857620001b762000135565b5b6000620001c88482850162000188565b91505092915050565b61379480620001e16000396000f3fe608060405234801561001057600080fd5b50600436106101375760003560e01c80638ae56cff116100b8578063d24febad1161007c578063d24febad14610340578063efdd0bbe1461035c578063f851a4401461037b578063fc3f271414610399578063fc67a3db146103b7578063fcc2e343146103d357610137565b80638ae56cff14610286578063968aed99146102b6578063a71fdc97146102e6578063b2eafc3914610304578063c5f956af1461032257610137565b80633a74a767116100ff5780633a74a767146101f6578063452f5be1146102125780634576b5db146102305780635fe3b5671461024c5780636742d00b1461026a57610137565b80630127b29e1461013c57806303ddf9861461015a57806304ef9d581461018a578063188ec356146101a85780632086e1ee146101c6575b600080fd5b610144610403565b604051610151919061256a565b60405180910390f35b610174600480360381019061016f91906125cf565b61042d565b604051610181919061256a565b60405180910390f35b61019261046c565b60405161019f919061260b565b60405180910390f35b6101b0610472565b6040516101bd919061260b565b60405180910390f35b6101e060048036038101906101db9190612652565b61047a565b6040516101ed919061260b565b60405180910390f35b610210600480360381019061020b9190612652565b610492565b005b61021a6105c7565b604051610227919061260b565b60405180910390f35b61024a600480360381019061024591906126bd565b6105da565b005b61025461070d565b6040516102619190612749565b60405180910390f35b610284600480360381019061027f91906125cf565b610731565b005b6102a0600480360381019061029b9190612652565b610e2b565b6040516102ad919061260b565b60405180910390f35b6102d060048036038101906102cb91906127a2565b611433565b6040516102dd919061260b565b60405180910390f35b6102ee6115fe565b6040516102fb919061256a565b60405180910390f35b61030c611624565b604051610319919061256a565b60405180910390f35b61032a61164a565b604051610337919061256a565b60405180910390f35b61035a600480360381019061035591906127f5565b611670565b005b610364611933565b604051610372929190612848565b60405180910390f35b610383611945565b604051610390919061256a565b60405180910390f35b6103a161196b565b6040516103ae919061292f565b60405180910390f35b6103d160048036038101906103cc9190612652565b6119f9565b005b6103ed60048036038101906103e891906125cf565b611b2e565b6040516103fa919061260b565b60405180910390f35b6000600260009054906101000a900473ffffffffffffffffffffffffffffffffffffffff16905090565b600a818154811061043d57600080fd5b906000526020600020016000915054906101000a900473ffffffffffffffffffffffffffffffffffffffff1681565b60085481565b600042905090565b60056020528060005260406000206000915090505481565b600160009054906101000a900473ffffffffffffffffffffffffffffffffffffffff1673ffffffffffffffffffffffffffffffffffffffff163373ffffffffffffffffffffffffffffffffffffffff1614610522576040517f08c379a0000000000000000000000000000000000000000000000000000000008152600401610519906129ae565b60405180910390fd5b6000600160009054906101000a900473ffffffffffffffffffffffffffffffffffffffff16905081600160006101000a81548173ffffffffffffffffffffffffffffffffffffffff021916908373ffffffffffffffffffffffffffffffffffffffff1602179055507f677255dd8d307c528670cb7cefed4f404c1e92c8729eafcbe702e85ed49292bd81836040516105bb9291906129ce565b60405180910390a15050565b6ec097ce7bc90715b34b9f100000000081565b600160009054906101000a900473ffffffffffffffffffffffffffffffffffffffff1673ffffffffffffffffffffffffffffffffffffffff163373ffffffffffffffffffffffffffffffffffffffff161461066a576040517f08c379a0000000000000000000000000000000000000000000000000000000008152600401610661906129ae565b60405180910390fd5b60008060009054906101000a900473ffffffffffffffffffffffffffffffffffffffff169050816000806101000a81548173ffffffffffffffffffffffffffffffffffffffff021916908373ffffffffffffffffffffffffffffffffffffffff1602179055507f7ac369dbd14fa5ea3f473ed67cc9d598964a77501540ba6751eb0b3decf5870d81836040516107019291906129f7565b60405180910390a15050565b60008054906101000a900473ffffffffffffffffffffffffffffffffffffffff1681565b600960009054906101000a900460ff16610780576040517f08c379a000000000000000000000000000000000000000000000000000000000815260040161077790612a6c565b60405180910390fd5b6000600960006101000a81548160ff021916908315150217905550600073ffffffffffffffffffffffffffffffffffffffff1660008054906101000a900473ffffffffffffffffffffffffffffffffffffffff1673ffffffffffffffffffffffffffffffffffffffff16141561082b576040517f08c379a000000000000000000000000000000000000000000000000000000000815260040161082290612ad8565b60405180910390fd5b6000811161086e576040517f08c379a000000000000000000000000000000000000000000000000000000000815260040161086590612b44565b60405180910390fd5b60008054906101000a900473ffffffffffffffffffffffffffffffffffffffff1673ffffffffffffffffffffffffffffffffffffffff1663dac885616040518163ffffffff1660e01b8152600401602060405180830381865afa1580156108d9573d6000803e3d6000fd5b505050506040513d601f19601f820116820180604052508101906108fd9190612b9c565b1561093d576040517f08c379a000000000000000000000000000000000000000000000000000000000815260040161093490612c15565b60405180910390fd5b6109456124c3565b600033905061095381610e2b565b82604001818152505081604001518311156109a3576040517f08c379a000000000000000000000000000000000000000000000000000000000815260040161099a90612c81565b60405180910390fd5b8260008054906101000a900473ffffffffffffffffffffffffffffffffffffffff1673ffffffffffffffffffffffffffffffffffffffff1663da7983f5836040518263ffffffff1660e01b81526004016109fd919061256a565b602060405180830381865afa158015610a1a573d6000803e3d6000fd5b505050506040513d601f19601f82011682018060405250810190610a3e9190612cb6565b610a489190612d12565b82602001818152505060008054906101000a900473ffffffffffffffffffffffffffffffffffffffff1673ffffffffffffffffffffffffffffffffffffffff1663329a16f48284602001516040518363ffffffff1660e01b8152600401610ab0929190612d68565b600060405180830381600087803b158015610aca57600080fd5b505af1158015610ade573d6000803e3d6000fd5b5050505060008084846000018181525050600060085414610c24576008548460000151610b0b9190612d91565b9150670de0b6b3a764000082610b219190612e1a565b9150818460000151610b339190612e4b565b9050600260009054906101000a900473ffffffffffffffffffffffffffffffffffffffff1673ffffffffffffffffffffffffffffffffffffffff166340c10f19600760009054906101000a900473ffffffffffffffffffffffffffffffffffffffff16846040518363ffffffff1660e01b8152600401610bb4929190612d68565b600060405180830381600087803b158015610bce57600080fd5b505af1158015610be2573d6000803e3d6000fd5b505050507fb0715a6d41a37c1b0672c22c09a31a0642c1fb3f9efa2d5fd5c6d2d891ee78c68383604051610c17929190612d68565b60405180910390a1610c2c565b836000015190505b60001515600b60008573ffffffffffffffffffffffffffffffffffffffff1673ffffffffffffffffffffffffffffffffffffffff16815260200190815260200160002060009054906101000a900460ff1615151415610d41576001600b60008573ffffffffffffffffffffffffffffffffffffffff1673ffffffffffffffffffffffffffffffffffffffff16815260200190815260200160002060006101000a81548160ff021916908315150217905550600a839080600181540180825580915050600190039060005260206000200160009091909190916101000a81548173ffffffffffffffffffffffffffffffffffffffff021916908373ffffffffffffffffffffffffffffffffffffffff1602179055505b600260009054906101000a900473ffffffffffffffffffffffffffffffffffffffff1673ffffffffffffffffffffffffffffffffffffffff166340c10f1984836040518363ffffffff1660e01b8152600401610d9e929190612d68565b600060405180830381600087803b158015610db857600080fd5b505af1158015610dcc573d6000803e3d6000fd5b505050507fdf937c9e1353bbd3150c8884a442790cae0c465e84cf228eda290e91b8e640878382604051610e01929190612d68565b60405180910390a1505050506001600960006101000a81548160ff02191690831515021790555050565b60008060008054906101000a900473ffffffffffffffffffffffffffffffffffffffff1673ffffffffffffffffffffffffffffffffffffffff16638a45dd7d6040518163ffffffff1660e01b8152600401602060405180830381865afa158015610e99573d6000803e3d6000fd5b505050506040513d601f19601f82011682018060405250810190610ebd9190612e94565b9050600081905060008060009054906101000a900473ffffffffffffffffffffffffffffffffffffffff1673ffffffffffffffffffffffffffffffffffffffff1663abfceffc866040518263ffffffff1660e01b8152600401610f20919061256a565b600060405180830381865afa158015610f3d573d6000803e3d6000fd5b505050506040513d6000823e3d601f19601f82011682018060405250810190610f66919061302f565b9050610f706124e4565b6000808473ffffffffffffffffffffffffffffffffffffffff1663da6bae106040518163ffffffff1660e01b8152600401602060405180830381865afa158015610fbe573d6000803e3d6000fd5b505050506040513d601f19601f82011682018060405250810190610fe29190612cb6565b8360c001818152505060008360c001511415611033576040517f08c379a000000000000000000000000000000000000000000000000000000000815260040161102a906130c4565b60405180910390fd5b600090505b835181101561126a57838181518110611054576110536130e4565b5b602002602001015173ffffffffffffffffffffffffffffffffffffffff1663c37f68e2896040518263ffffffff1660e01b8152600401611094919061256a565b606060405180830381865afa1580156110b1573d6000803e3d6000fd5b505050506040513d601f19601f820116820180604052508101906110d59190613113565b8560400186606001876080018381525083815250838152505050508473ffffffffffffffffffffffffffffffffffffffff1663fc57d4df85838151811061111f5761111e6130e4565b5b60200260200101516040518263ffffffff1660e01b81526004016111439190613187565b602060405180830381865afa158015611160573d6000803e3d6000fd5b505050506040513d601f19601f820116820180604052508101906111849190612cb6565b8360a0018181525050670de0b6b3a76400008360a0015184608001516111aa9190612d91565b6111b49190612e1a565b8360e001818152505082604001518360e0018181516111d39190612d91565b91508181525050670de0b6b3a76400008360e0018181516111f49190612e1a565b915081815250508260e00151836000018181516112119190612d12565b915081815250508260200151670de0b6b3a764000084606001518560a0015161123a9190612d91565b6112449190612e1a565b61124e9190612d12565b8360200181815250508080611262906131a2565b915050611038565b8260200151670de0b6b3a764000060008054906101000a900473ffffffffffffffffffffffffffffffffffffffff1673ffffffffffffffffffffffffffffffffffffffff1663da7983f58b6040518263ffffffff1660e01b81526004016112d1919061256a565b602060405180830381865afa1580156112ee573d6000803e3d6000fd5b505050506040513d601f19601f820116820180604052508101906113129190612cb6565b8560c001516113219190612d91565b61132b9190612e1a565b6113359190612d12565b83602001818152505060008054906101000a900473ffffffffffffffffffffffffffffffffffffffff1673ffffffffffffffffffffffffffffffffffffffff1663664ee5a06040518163ffffffff1660e01b8152600401602060405180830381865afa1580156113a9573d6000803e3d6000fd5b505050506040513d601f19601f820116820180604052508101906113cd9190612cb6565b83600001516113dc9190612d91565b9150612710826113ec9190612e1a565b91508260200151826113fe9190612e4b565b91508260c00151670de0b6b3a7640000836114199190612d91565b6114239190612e1a565b9150819650505050505050919050565b6000600960009054906101000a900460ff16611484576040517f08c379a000000000000000000000000000000000000000000000000000000000815260040161147b90612a6c565b60405180910390fd5b6000600960006101000a81548160ff02191690831515021790555060008054906101000a900473ffffffffffffffffffffffffffffffffffffffff1673ffffffffffffffffffffffffffffffffffffffff1663dac885616040518163ffffffff1660e01b8152600401602060405180830381865afa15801561150a573d6000803e3d6000fd5b505050506040513d601f19601f8201168201806040525081019061152e9190612b9c565b1561156e576040517f08c379a000000000000000000000000000000000000000000000000000000000815260040161156590612c15565b60405180910390fd5b8173ffffffffffffffffffffffffffffffffffffffff1663a6afed956040518163ffffffff1660e01b8152600401600060405180830381600087803b1580156115b657600080fd5b505af11580156115ca573d6000803e3d6000fd5b505050506115da33858585611d6f565b90506001600960006101000a81548160ff0219169083151502179055509392505050565b600260009054906101000a900473ffffffffffffffffffffffffffffffffffffffff1681565b600660009054906101000a900473ffffffffffffffffffffffffffffffffffffffff1681565b600760009054906101000a900473ffffffffffffffffffffffffffffffffffffffff1681565b600160009054906101000a900473ffffffffffffffffffffffffffffffffffffffff1673ffffffffffffffffffffffffffffffffffffffff163373ffffffffffffffffffffffffffffffffffffffff1614806117195750600660009054906101000a900473ffffffffffffffffffffffffffffffffffffffff1673ffffffffffffffffffffffffffffffffffffffff163373ffffffffffffffffffffffffffffffffffffffff16145b611758576040517f08c379a000000000000000000000000000000000000000000000000000000000815260040161174f90613237565b60405180910390fd5b670de0b6b3a764000081106117a2576040517f08c379a0000000000000000000000000000000000000000000000000000000008152600401611799906132a3565b60405180910390fd5b6000600660009054906101000a900473ffffffffffffffffffffffffffffffffffffffff1690506000600760009054906101000a900473ffffffffffffffffffffffffffffffffffffffff1690506000600854905085600660006101000a81548173ffffffffffffffffffffffffffffffffffffffff021916908373ffffffffffffffffffffffffffffffffffffffff16021790555084600760006101000a81548173ffffffffffffffffffffffffffffffffffffffff021916908373ffffffffffffffffffffffffffffffffffffffff160217905550836008819055507f29f06ea15931797ebaed313d81d100963dc22cb213cb4ce2737b5a62b1a8b1e883876040516118b19291906129ce565b60405180910390a17f8de763046d7b8f08b6c3d03543de1d615309417842bb5d2d62f110f65809ddac82866040516118ea9291906129ce565b60405180910390a17f0893f8f4101baaabbeb513f96761e7a36eb837403c82cc651c292a4abdc94ed78185604051611923929190612848565b60405180910390a1505050505050565b60038060000154908060010154905082565b600160009054906101000a900473ffffffffffffffffffffffffffffffffffffffff1681565b6060600a8054806020026020016040519081016040528092919081815260200182805480156119ef57602002820191906000526020600020905b8160009054906101000a900473ffffffffffffffffffffffffffffffffffffffff1673ffffffffffffffffffffffffffffffffffffffff16815260200190600101908083116119a5575b5050505050905090565b600160009054906101000a900473ffffffffffffffffffffffffffffffffffffffff1673ffffffffffffffffffffffffffffffffffffffff163373ffffffffffffffffffffffffffffffffffffffff1614611a89576040517f08c379a0000000000000000000000000000000000000000000000000000000008152600401611a809061330f565b60405180910390fd5b6000600260009054906101000a900473ffffffffffffffffffffffffffffffffffffffff16905081600260006101000a81548173ffffffffffffffffffffffffffffffffffffffff021916908373ffffffffffffffffffffffffffffffffffffffff1602179055507ffb5dcb6e3f9ef0d9e067e3901a6b8705565675a4af1429abd5f33ed4874409948183604051611b229291906129ce565b60405180910390a15050565b6000600960009054906101000a900460ff16611b7f576040517f08c379a0000000000000000000000000000000000000000000000000000000008152600401611b7690612a6c565b60405180910390fd5b6000600960006101000a81548160ff021916908315150217905550600073ffffffffffffffffffffffffffffffffffffffff1660008054906101000a900473ffffffffffffffffffffffffffffffffffffffff1673ffffffffffffffffffffffffffffffffffffffff161415611c2a576040517f08c379a0000000000000000000000000000000000000000000000000000000008152600401611c219061337b565b60405180910390fd5b60008211611c6d576040517f08c379a0000000000000000000000000000000000000000000000000000000008152600401611c64906133e7565b60405180910390fd5b60008054906101000a900473ffffffffffffffffffffffffffffffffffffffff1673ffffffffffffffffffffffffffffffffffffffff1663dac885616040518163ffffffff1660e01b8152600401602060405180830381865afa158015611cd8573d6000803e3d6000fd5b505050506040513d601f19601f82011682018060405250810190611cfc9190612b9c565b15611d3c576040517f08c379a0000000000000000000000000000000000000000000000000000000008152600401611d3390613453565b60405180910390fd5b6000611d4933338561226c565b9050809150506001600960006101000a81548160ff021916908315150217905550919050565b60008073ffffffffffffffffffffffffffffffffffffffff1660008054906101000a900473ffffffffffffffffffffffffffffffffffffffff1673ffffffffffffffffffffffffffffffffffffffff161415611e00576040517f08c379a0000000000000000000000000000000000000000000000000000000008152600401611df79061337b565b60405180910390fd5b60008054906101000a900473ffffffffffffffffffffffffffffffffffffffff1673ffffffffffffffffffffffffffffffffffffffff16636e2cf5af308487876040518563ffffffff1660e01b8152600401611e5f9493929190613473565b600060405180830381600087803b158015611e7957600080fd5b505af1158015611e8d573d6000803e3d6000fd5b50505050611e99610472565b8273ffffffffffffffffffffffffffffffffffffffff1663b95b92a36040518163ffffffff1660e01b8152600401602060405180830381865afa158015611ee4573d6000803e3d6000fd5b505050506040513d601f19601f82011682018060405250810190611f089190612cb6565b14611f48576040517f08c379a0000000000000000000000000000000000000000000000000000000008152600401611f3f90613504565b60405180910390fd5b8473ffffffffffffffffffffffffffffffffffffffff168473ffffffffffffffffffffffffffffffffffffffff161415611fb7576040517f08c379a0000000000000000000000000000000000000000000000000000000008152600401611fae90613570565b60405180910390fd5b6000831415611ffb576040517f08c379a0000000000000000000000000000000000000000000000000000000008152600401611ff2906135dc565b60405180910390fd5b612003612496565b831415612045576040517f08c379a000000000000000000000000000000000000000000000000000000000815260040161203c90613648565b60405180910390fd5b600061205286868661226c565b905060008060009054906101000a900473ffffffffffffffffffffffffffffffffffffffff1673ffffffffffffffffffffffffffffffffffffffff1663fe5e828285846040518363ffffffff1660e01b81526004016120b2929190612d68565b602060405180830381865afa1580156120cf573d6000803e3d6000fd5b505050506040513d601f19601f820116820180604052508101906120f39190612cb6565b9050808473ffffffffffffffffffffffffffffffffffffffff166370a08231886040518263ffffffff1660e01b815260040161212f919061256a565b602060405180830381865afa15801561214c573d6000803e3d6000fd5b505050506040513d601f19601f820116820180604052508101906121709190612cb6565b10156121b1576040517f08c379a00000000000000000000000000000000000000000000000000000000081526004016121a8906136b4565b60405180910390fd5b8373ffffffffffffffffffffffffffffffffffffffff1663b2a02ff18888846040518463ffffffff1660e01b81526004016121ee939291906136d4565b600060405180830381600087803b15801561220857600080fd5b505af115801561221c573d6000803e3d6000fd5b505050507ff2609e63463c1f03eac7489d9b3c60b8a9019b90b71a325d080dbefc1c2f1710878784878560405161225795949392919061370b565b60405180910390a18192505050949350505050565b60008060008060009054906101000a900473ffffffffffffffffffffffffffffffffffffffff1673ffffffffffffffffffffffffffffffffffffffff1663da7983f5866040518263ffffffff1660e01b81526004016122cb919061256a565b602060405180830381865afa1580156122e8573d6000803e3d6000fd5b505050506040513d601f19601f8201168201806040525081019061230c9190612cb6565b90508381111561231e57839150612322565b8091505b600260009054906101000a900473ffffffffffffffffffffffffffffffffffffffff1673ffffffffffffffffffffffffffffffffffffffff16639dc29fac87846040518363ffffffff1660e01b815260040161237f929190612d68565b600060405180830381600087803b15801561239957600080fd5b505af11580156123ad573d6000803e3d6000fd5b50505050600082826123bf9190612e4b565b905060008054906101000a900473ffffffffffffffffffffffffffffffffffffffff1673ffffffffffffffffffffffffffffffffffffffff1663329a16f487836040518363ffffffff1660e01b815260040161241c929190612d68565b600060405180830381600087803b15801561243657600080fd5b505af115801561244a573d6000803e3d6000fd5b505050507f5c0f88a0c5b2ce2d209a31fe826b808c6e03c0e0da6aa471df3673e53945e4f0878785604051612481939291906136d4565b60405180910390a18293505050509392505050565b6000807fffffffffffffffffffffffffffffffffffffffffffffffffffffffffffffffff90508091505090565b60405180606001604052806000815260200160008152602001600081525090565b60405180610100016040528060008152602001600081526020016000815260200160008152602001600081526020016000815260200160008152602001600081525090565b600073ffffffffffffffffffffffffffffffffffffffff82169050919050565b600061255482612529565b9050919050565b61256481612549565b82525050565b600060208201905061257f600083018461255b565b92915050565b6000604051905090565b600080fd5b600080fd5b6000819050919050565b6125ac81612599565b81146125b757600080fd5b50565b6000813590506125c9816125a3565b92915050565b6000602082840312156125e5576125e461258f565b5b60006125f3848285016125ba565b91505092915050565b61260581612599565b82525050565b600060208201905061262060008301846125fc565b92915050565b61262f81612549565b811461263a57600080fd5b50565b60008135905061264c81612626565b92915050565b6000602082840312156126685761266761258f565b5b60006126768482850161263d565b91505092915050565b600061268a82612549565b9050919050565b61269a8161267f565b81146126a557600080fd5b50565b6000813590506126b781612691565b92915050565b6000602082840312156126d3576126d261258f565b5b60006126e1848285016126a8565b91505092915050565b6000819050919050565b600061270f61270a61270584612529565b6126ea565b612529565b9050919050565b6000612721826126f4565b9050919050565b600061273382612716565b9050919050565b61274381612728565b82525050565b600060208201905061275e600083018461273a565b92915050565b600061276f82612549565b9050919050565b61277f81612764565b811461278a57600080fd5b50565b60008135905061279c81612776565b92915050565b6000806000606084860312156127bb576127ba61258f565b5b60006127c98682870161263d565b93505060206127da868287016125ba565b92505060406127eb8682870161278d565b9150509250925092565b60008060006060848603121561280e5761280d61258f565b5b600061281c8682870161263d565b935050602061282d8682870161263d565b925050604061283e868287016125ba565b9150509250925092565b600060408201905061285d60008301856125fc565b61286a60208301846125fc565b9392505050565b600081519050919050565b600082825260208201905092915050565b6000819050602082019050919050565b6128a681612549565b82525050565b60006128b8838361289d565b60208301905092915050565b6000602082019050919050565b60006128dc82612871565b6128e6818561287c565b93506128f18361288d565b8060005b8381101561292257815161290988826128ac565b9750612914836128c4565b9250506001810190506128f5565b5085935050505092915050565b6000602082019050818103600083015261294981846128d1565b905092915050565b600082825260208201905092915050565b7f4f6e6c792041646d696e00000000000000000000000000000000000000000000600082015250565b6000612998600a83612951565b91506129a382612962565b602082019050919050565b600060208201905081810360008301526129c78161298b565b9050919050565b60006040820190506129e3600083018561255b565b6129f0602083018461255b565b9392505050565b6000604082019050612a0c600083018561273a565b612a19602083018461273a565b9392505050565b7f72652d656e746572656400000000000000000000000000000000000000000000600082015250565b6000612a56600a83612951565b9150612a6182612a20565b602082019050919050565b60006020820190508181036000830152612a8581612a49565b9050919050565b7f436f6d7074726f6c6c657220646964206e6f7420736574000000000000000000600082015250565b6000612ac2601783612951565b9150612acd82612a8c565b602082019050919050565b60006020820190508181036000830152612af181612ab5565b9050919050565b7f6d696e74474f4c44416d6f756e742063616e206e6f74206265207a65726f0000600082015250565b6000612b2e601e83612951565b9150612b3982612af8565b602082019050919050565b60006020820190508181036000830152612b5d81612b21565b9050919050565b60008115159050919050565b612b7981612b64565b8114612b8457600080fd5b50565b600081519050612b9681612b70565b92915050565b600060208284031215612bb257612bb161258f565b5b6000612bc084828501612b87565b91505092915050565b7f70726f746f636f6c206973207061757365640000000000000000000000000000600082015250565b6000612bff601283612951565b9150612c0a82612bc9565b602082019050919050565b60006020820190508181036000830152612c2e81612bf2565b9050919050565b7f496e73756666696369656e742063726564697473000000000000000000000000600082015250565b6000612c6b601483612951565b9150612c7682612c35565b602082019050919050565b60006020820190508181036000830152612c9a81612c5e565b9050919050565b600081519050612cb0816125a3565b92915050565b600060208284031215612ccc57612ccb61258f565b5b6000612cda84828501612ca1565b91505092915050565b7f4e487b7100000000000000000000000000000000000000000000000000000000600052601160045260246000fd5b6000612d1d82612599565b9150612d2883612599565b9250827fffffffffffffffffffffffffffffffffffffffffffffffffffffffffffffffff03821115612d5d57612d5c612ce3565b5b828201905092915050565b6000604082019050612d7d600083018561255b565b612d8a60208301846125fc565b9392505050565b6000612d9c82612599565b9150612da783612599565b9250817fffffffffffffffffffffffffffffffffffffffffffffffffffffffffffffffff0483118215151615612de057612ddf612ce3565b5b828202905092915050565b7f4e487b7100000000000000000000000000000000000000000000000000000000600052601260045260246000fd5b6000612e2582612599565b9150612e3083612599565b925082612e4057612e3f612deb565b5b828204905092915050565b6000612e5682612599565b9150612e6183612599565b925082821015612e7457612e73612ce3565b5b828203905092915050565b600081519050612e8e81612626565b92915050565b600060208284031215612eaa57612ea961258f565b5b6000612eb884828501612e7f565b91505092915050565b600080fd5b6000601f19601f8301169050919050565b7f4e487b7100000000000000000000000000000000000000000000000000000000600052604160045260246000fd5b612f0f82612ec6565b810181811067ffffffffffffffff82111715612f2e57612f2d612ed7565b5b80604052505050565b6000612f41612585565b9050612f4d8282612f06565b919050565b600067ffffffffffffffff821115612f6d57612f6c612ed7565b5b602082029050602081019050919050565b600080fd5b600081519050612f9281612776565b92915050565b6000612fab612fa684612f52565b612f37565b90508083825260208201905060208402830185811115612fce57612fcd612f7e565b5b835b81811015612ff75780612fe38882612f83565b845260208401935050602081019050612fd0565b5050509392505050565b600082601f83011261301657613015612ec1565b5b8151613026848260208601612f98565b91505092915050565b6000602082840312156130455761304461258f565b5b600082015167ffffffffffffffff81111561306357613062612594565b5b61306f84828501613001565b91505092915050565b7f474f4c44206f7261636c65206973207a65726f00000000000000000000000000600082015250565b60006130ae601383612951565b91506130b982613078565b602082019050919050565b600060208201905081810360008301526130dd816130a1565b9050919050565b7f4e487b7100000000000000000000000000000000000000000000000000000000600052603260045260246000fd5b60008060006060848603121561312c5761312b61258f565b5b600061313a86828701612ca1565b935050602061314b86828701612ca1565b925050604061315c86828701612ca1565b9150509250925092565b600061317182612716565b9050919050565b61318181613166565b82525050565b600060208201905061319c6000830184613178565b92915050565b60006131ad82612599565b91507fffffffffffffffffffffffffffffffffffffffffffffffffffffffffffffffff8214156131e0576131df612ce3565b5b600182019050919050565b7f4f6e6c792061646d696e206f7220747265617375727920677561726469616e00600082015250565b6000613221601f83612951565b915061322c826131eb565b602082019050919050565b6000602082019050818103600083015261325081613214565b9050919050565b7f74726561737572792070657263656e7420636170206f766572666c6f77000000600082015250565b600061328d601d83612951565b915061329882613257565b602082019050919050565b600060208201905081810360008301526132bc81613280565b9050919050565b7f4f6e6c792061646d696e00000000000000000000000000000000000000000000600082015250565b60006132f9600a83612951565b9150613304826132c3565b602082019050919050565b60006020820190508181036000830152613328816132ec565b9050919050565b7f436f6d7074726f6c6c6572206e6f742073657400000000000000000000000000600082015250565b6000613365601383612951565b91506133708261332f565b602082019050919050565b6000602082019050818103600083015261339481613358565b9050919050565b7f416d6f756e74206973205a65726f000000000000000000000000000000000000600082015250565b60006133d1600e83612951565b91506133dc8261339b565b602082019050919050565b60006020820190508181036000830152613400816133c4565b9050919050565b7f50726f746f636f6c207061757365640000000000000000000000000000000000600082015250565b600061343d600f83612951565b915061344882613407565b602082019050919050565b6000602082019050818103600083015261346c81613430565b9050919050565b6000608082019050613488600083018761255b565b613495602083018661255b565b6134a2604083018561255b565b6134af60608301846125fc565b95945050505050565b7f6163637275616c54696d657374616d70206e6f74207570646174650000000000600082015250565b60006134ee601b83612951565b91506134f9826134b8565b602082019050919050565b6000602082019050818103600083015261351d816134e1565b9050919050565b7f426f72726f77657220657175616c204c697175696461746f7200000000000000600082015250565b600061355a601983612951565b915061356582613524565b602082019050919050565b600060208201905081810360008301526135898161354d565b9050919050565b7f526570617920616d6f756e74206973207a65726f000000000000000000000000600082015250565b60006135c6601483612951565b91506135d182613590565b602082019050919050565b600060208201905081810360008301526135f5816135b9565b9050919050565b7f434c4f53455f414d4f554e545f49535f55494e545f4d41580000000000000000600082015250565b6000613632601883612951565b915061363d826135fc565b602082019050919050565b6000602082019050818103600083015261366181613625565b9050919050565b7f546f6f206d756368207365697a6520746f6b656e730000000000000000000000600082015250565b600061369e601583612951565b91506136a982613668565b602082019050919050565b600060208201905081810360008301526136cd81613691565b9050919050565b60006060820190506136e9600083018661255b565b6136f6602083018561255b565b61370360408301846125fc565b949350505050565b600060a082019050613720600083018861255b565b61372d602083018761255b565b61373a60408301866125fc565b613747606083018561255b565b61375460808301846125fc565b969550505050505056fea2646970667358221220c5d2e92499ce70b9bfe7e798fee0710fa193ab8edc88daad65c60b348c29e7d564736f6c634300080c0033",
  "immutableReferences": {},
  "source": "// SPDX-License-Identifier: MIT\r\npragma solidity ^0.8.0;\r\n\r\nimport \"./interface/ComptrollerInterface.sol\";\r\nimport \"./AURUM.sol\";\r\n\r\n/**\r\n * == == == AURUM DeFi == == ==\r\n * these contracts are modified from Venus's Contract\r\n * \r\n */\r\ncontract AurumController is AurumControllerInterface {\r\n\r\n    event NewComptroller(ComptrollerInterface oldComptroller, ComptrollerInterface newComptroller);\r\n    event MintGOLD(address minter, uint mintGoldAmount);\r\n    event RepayGOLD(address payer, address borrower, uint repayGoldAmount);\r\n    event LiquidateGold(address liquidator, address borrower, uint repayAmount, address LendTokenCollateral, uint seizeTokens);\r\n    event NewTreasuryGuardian(address oldTreasuryGuardian, address newTreasuryGuardian);\r\n    event NewTreasuryAddress(address oldTreasuryAddress, address newTreasuryAddress);\r\n    event NewTreasuryPercent(uint oldTreasuryPercent, uint newTreasuryPercent);\r\n    event MintFee(address minter, uint feeAmount);\r\n    event NewAURUMAddress(address oldAURUMAddress, address newAURUMAddress);\r\n    event SetNewAdmin(address oldAdmin, address newAdmin);\r\n\r\n\r\n    uint public constant goldInitialIndex = 1e36;\r\n\r\n    ComptrollerInterface public comptroller;\r\n    address public admin;\r\n    address public aurumAddress;    //Must be set\r\n\r\n    struct AurumGOLDState {\r\n        /// @notice The last updated aurumGOLDMintIndex\r\n        uint index;\r\n        /// @notice The timestamp the index was last updated at\r\n        uint lastTimestamp;\r\n    }\r\n\r\n    AurumGOLDState public aurumGOLDState;\r\n\r\n    mapping(address => uint) public aurumGOLDMinterIndex;\r\n\r\n        /// @notice Treasury Guardian\r\n    address public treasuryGuardian;        //Guardian address\r\n    address public treasuryAddress;         //treasury address\r\n    uint public treasuryPercent;         //Fee percent with decimal 18\r\n\r\n    /// @notice Guard variable for re-entrancy checks\r\n    bool internal _notEntered;\r\n    \r\n    address[] public goldMinterAddress;\r\n    function getGoldMinter() external view returns(address[] memory){\r\n        return goldMinterAddress;\r\n    }\r\n    mapping(address => bool) hasMinted;\r\n\r\n    /*** Main Actions ***/\r\n\r\n    struct MintLocalVars {\r\n        uint mintAmount;\r\n        uint accountMintGOLDNew;\r\n        uint accountMintableGOLD;\r\n    }\r\n\r\n    constructor(address aurum_){\r\n        admin = msg.sender;\r\n        aurumAddress = aurum_;\r\n        _notEntered = true;\r\n        \r\n        uint goldTimestamp = getTimestamp();\r\n        aurumGOLDState = AurumGOLDState({\r\n            index: goldInitialIndex,\r\n            lastTimestamp: goldTimestamp\r\n        });\r\n    }\r\n\r\n    function maxUINT() internal pure returns (uint) {\r\n        uint number = type(uint).max;\r\n        return number;\r\n    }\r\n\r\n    function mintGOLD(uint mintGOLDAmount) external nonReentrant {\r\n        require(address(comptroller) != address(0),\"Comptroller did not set\");\r\n        require(mintGOLDAmount > 0, \"mintGOLDAmount can not be zero\");\r\n        require(!ComptrollerInterface(address(comptroller)).isProtocolPaused(), \"protocol is paused\");\r\n\r\n        MintLocalVars memory vars;\r\n\r\n        address minter = msg.sender;\r\n\r\n        vars.accountMintableGOLD = getMintableGOLD(minter);\r\n\r\n        // check that user have sufficient mintableGOLD balance\r\n        require (mintGOLDAmount <= vars.accountMintableGOLD, \"Insufficient credits\");\r\n\r\n        // accountMintGOLDNew = minted gold + newMinting gold\r\n        vars.accountMintGOLDNew = ComptrollerInterface(address(comptroller)).getMintedGOLDs(minter) + mintGOLDAmount;\r\n\r\n        //Set new Minted GOLD value\r\n        comptroller.setMintedGOLDOf(minter, vars.accountMintGOLDNew);\r\n\r\n        uint feeAmount;\r\n        uint remainedAmount;\r\n        vars.mintAmount = mintGOLDAmount;\r\n        //Fee calculation\r\n        if (treasuryPercent != 0) {\r\n            feeAmount = vars.mintAmount * treasuryPercent;  // feeAmount now in EXP state\r\n            feeAmount = feeAmount / 1e18;                   // feeAmount now in UINT state\r\n            remainedAmount = vars.mintAmount - feeAmount;   // Amount after fee reduction\r\n\r\n            AURUM(aurumAddress).mint(treasuryAddress, feeAmount);\r\n            emit MintFee(minter, feeAmount);\r\n\r\n        } else {\r\n            remainedAmount = vars.mintAmount;\r\n        }\r\n\r\n        if(hasMinted[minter] == false){     // List minter to the ledger.\r\n            hasMinted[minter] = true;\r\n            goldMinterAddress.push(minter);\r\n        }\r\n        AURUM(aurumAddress).mint(minter, remainedAmount);\r\n\r\n        emit MintGOLD(minter, remainedAmount);\r\n    }\r\n\r\n\r\n    /**\r\n     * repayGOLD is to pay debt and burn GOLD token\r\n     */\r\n    function repayGOLD(uint repayGOLDAmount) external nonReentrant returns (uint) {\r\n        require(address(comptroller) != address(0),\"Comptroller not set\");\r\n        require(repayGOLDAmount > 0, \"Amount is Zero\");\r\n        require(!ComptrollerInterface(address(comptroller)).isProtocolPaused(), \"Protocol paused\");\r\n\r\n        uint actualBurnAmount = repayGOLDFresh(msg.sender, msg.sender, repayGOLDAmount);\r\n        return actualBurnAmount;\r\n    }\r\n    // repayGOLD action is executed here\r\n    function repayGOLDFresh(address payer, address borrower, uint repayAmount) internal returns (uint) {\r\n        uint actualBurnAmount;\r\n        uint goldBalanceBorrower = ComptrollerInterface(address(comptroller)).getMintedGOLDs(borrower);\r\n\r\n        if(goldBalanceBorrower > repayAmount) { // Check the debt, if repay more than debt convert value to the actual debt value\r\n            actualBurnAmount = repayAmount;\r\n        } else {\r\n            actualBurnAmount = goldBalanceBorrower;\r\n        }\r\n\r\n        //BURN token, reduce debt of AurumController, set debt of Comptroller\r\n        AURUM(aurumAddress).burn(payer, actualBurnAmount);\r\n\r\n        uint accountGOLDNew = goldBalanceBorrower - actualBurnAmount;\r\n\r\n        comptroller.setMintedGOLDOf(borrower, accountGOLDNew);\r\n\r\n        emit RepayGOLD(payer, borrower, actualBurnAmount);\r\n        return actualBurnAmount;\r\n    }\r\n\r\n\r\n    // To liquidate must check if the borrower is in liquidatable position\r\n    function liquidateGOLD(address borrower, uint repayAmount, LendTokenInterface lendTokenCollateral) external nonReentrant returns (uint) {\r\n        require(!ComptrollerInterface(address(comptroller)).isProtocolPaused(), \"protocol is paused\");\r\n        lendTokenCollateral.accrueInterest();  // Update Interest of collateral lend token to current interest.\r\n\r\n        return liquidateGOLDFresh(msg.sender, borrower, repayAmount, lendTokenCollateral);\r\n    }\r\n    // Liquidate GOLD is executed here\r\n    function liquidateGOLDFresh(address liquidator, address borrower, uint repayAmount, LendTokenInterface lendTokenCollateral) internal returns (uint) {\r\n        require(address(comptroller) != address(0),\"Comptroller not set\");\r\n        /* This function will revert if NOT ALLOWED */\r\n        comptroller.liquidateBorrowAllowed(address(this), address(lendTokenCollateral), borrower, repayAmount);\r\n\r\n        /* Verify lendTokenCollateral market's block number equals current block number */\r\n        // it must be upgraded since external function was run :: accrueInterest()\r\n        require(lendTokenCollateral.accrualTimestamp() == getTimestamp(),\"accrualTimestamp not update\");\r\n        require(borrower != liquidator,\"Borrower equal Liquidator\");\r\n        require(repayAmount != 0,\"Repay amount is zero\");\r\n        /* Fail if repayAmount = -1 */\r\n        if (repayAmount == maxUINT()) {\r\n            revert(\"CLOSE_AMOUNT_IS_UINT_MAX\");\r\n        }\r\n\r\n        // Liquidator should pay the GOLD for the liquidating borrower  then seize the borrower collateral token\r\n        // 1. Liquidator must have GOLD for Repay the liquidating GOLD\r\n        // 2. Borrower collateral will be seize and pay to liquidator (including fee calculation)\r\n\r\n        // repay GOLD\r\n        uint actualRepayAmount = repayGOLDFresh(liquidator, borrower, repayAmount);\r\n\r\n        // Calculate the seize token amount\r\n        uint seizeTokens = comptroller.liquidateGOLDCalculateSeizeTokens(address(lendTokenCollateral), actualRepayAmount);\r\n\r\n        /* Revert if borrower collateral token balance < seizeTokens */\r\n        if(lendTokenCollateral.balanceOf(borrower) < seizeTokens) {\r\n            revert (\"Too much seize tokens\");\r\n        }\r\n\r\n        //Execute token seize\r\n        lendTokenCollateral.seize(liquidator, borrower, seizeTokens);\r\n\r\n        emit LiquidateGold(liquidator, borrower, actualRepayAmount, address(lendTokenCollateral), seizeTokens);\r\n\r\n        return actualRepayAmount;\r\n    }\r\n\r\n\r\n\r\n    /*** Admin Functions ***/\r\n\r\n    function _setAdmin(address newAdmin) external {\r\n        // Check caller is admin\r\n        require(msg.sender == admin, \"Only Admin\");\r\n\r\n        address oldAdmin = admin;\r\n        admin = newAdmin;\r\n        emit SetNewAdmin(oldAdmin, newAdmin);\r\n    }\r\n    /**\r\n      * @notice Sets a new comptroller\r\n      * @dev Admin function to set a new comptroller\r\n      */\r\n    function _setComptroller(ComptrollerInterface comptroller_) external{\r\n        // Check caller is admin\r\n        require(msg.sender == admin, \"Only Admin\");\r\n\r\n        ComptrollerInterface oldComptroller = comptroller;\r\n        comptroller = comptroller_;\r\n        emit NewComptroller(oldComptroller, comptroller_);\r\n    }\r\n    //\r\n    //  set Treasury information\r\n    //  TreasuryPercent is minting 'fee' 1e18 = 100%\r\n    //\r\n    function _setTreasuryData(address newTreasuryGuardian, address newTreasuryAddress, uint newTreasuryPercent) external{\r\n        // Check caller is admin\r\n        require(msg.sender == admin || msg.sender == treasuryGuardian,\"Only admin or treasury guardian\");\r\n        require(newTreasuryPercent < 1e18, \"treasury percent cap overflow\");\r\n\r\n        address oldTreasuryGuardian = treasuryGuardian;\r\n        address oldTreasuryAddress = treasuryAddress;\r\n        uint oldTreasuryPercent = treasuryPercent;\r\n\r\n        treasuryGuardian = newTreasuryGuardian;\r\n        treasuryAddress = newTreasuryAddress;\r\n        treasuryPercent = newTreasuryPercent;\r\n\r\n        emit NewTreasuryGuardian(oldTreasuryGuardian, newTreasuryGuardian);\r\n        emit NewTreasuryAddress(oldTreasuryAddress, newTreasuryAddress);\r\n        emit NewTreasuryPercent(oldTreasuryPercent, newTreasuryPercent);\r\n    }\r\n    function _setAURUMAddress(address newAURUMAddress) external {\r\n        require (msg.sender == admin, \"Only admin\");\r\n        address oldAURUMAddress = aurumAddress;\r\n        aurumAddress = newAURUMAddress;\r\n\r\n        emit NewAURUMAddress(oldAURUMAddress,newAURUMAddress);\r\n    }\r\n\r\n\r\n    /**\r\n     * @dev Local vars for avoiding stack-depth limits in calculating account total supply balance.\r\n     *  Note that `lendTokenBalance` is the number of lendTokens the account owns in the market,\r\n     *  whereas `borrowBalance` is the amount of underlying that the account has borrowed.\r\n     */\r\n    struct AccountAmountLocalVars {\r\n        uint sumSupply;\r\n        uint sumBorrowPlusEffects;\r\n        uint lendTokenBalance;\r\n        uint borrowBalance;\r\n        uint exchangeRateMantissa;\r\n        uint oraclePriceMantissa;\r\n        uint goldPriceMantissa;\r\n        uint tokensToDenom;\r\n    }\r\n\r\n\r\n    //This function determine the mintable GOLD in current position\r\n    function getMintableGOLD(address minter) public view returns (uint) {\r\n        address oracleAddress = ComptrollerInterface(address(comptroller)).getComptrollerOracleAddress();\r\n        PriceOracle oracle = PriceOracle(oracleAddress);\r\n        LendTokenInterface[] memory enteredMarkets = ComptrollerInterface(address(comptroller)).getAssetsIn(minter);\r\n\r\n        AccountAmountLocalVars memory vars;\r\n\r\n        uint accountMintableGOLD;\r\n        uint i;\r\n\r\n        // Get the gold price from oracle stored in var.goldPrice\r\n        vars.goldPriceMantissa = oracle.getGoldPrice();\r\n        if (vars.goldPriceMantissa == 0) {\r\n            revert(\"GOLD oracle is zero\");\r\n        }\r\n\r\n        /**\r\n         * We use this formula to calculate mintable GOLD amount.\r\n         * totalSupplyAmount * GOLDMintRate - (totalBorrowAmount + mintedGOLDOf)\r\n         */\r\n        for (i = 0; i < enteredMarkets.length; i++) {\r\n            //Get snapshot for each entered markets\r\n            (vars.lendTokenBalance, vars.borrowBalance, vars.exchangeRateMantissa) = enteredMarkets[i].getAccountSnapshot(minter);\r\n\r\n            // Get the normalized price of the asset\r\n            vars.oraclePriceMantissa = oracle.getUnderlyingPrice(enteredMarkets[i]);\r\n\r\n            vars.tokensToDenom = vars.exchangeRateMantissa * vars.oraclePriceMantissa / 1e18;   // e18*e18/1e18 => e18\r\n            vars.tokensToDenom *= vars.lendTokenBalance;                                        // e18*e18  => e36\r\n            vars.tokensToDenom /= 1e18;                                                         // e36/e18 => e18\r\n            \r\n            vars.sumSupply += vars.tokensToDenom;\r\n\r\n            // sumBorrowPlusEffects += oraclePrice * borrowBalance\r\n            vars.sumBorrowPlusEffects = (vars.oraclePriceMantissa * vars.borrowBalance / 1e18) + vars.sumBorrowPlusEffects;\r\n        }\r\n\r\n        //---------------------- This formula modified  => GoldMinted * GoldOraclePrice------------------\r\n        // sumBorrowPlusEffects += GoldMinted * GoldOraclePrice\r\n        //\r\n        vars.sumBorrowPlusEffects = (vars.goldPriceMantissa * ComptrollerInterface(address(comptroller)).getMintedGOLDs(minter) /1e18) + vars.sumBorrowPlusEffects;\r\n\r\n        accountMintableGOLD = vars.sumSupply * ComptrollerInterface(address(comptroller)).getGoldMintRate();\r\n        accountMintableGOLD /= 10000; // goldMintRate is percentage of total value, 100 = 1%, 10000 = 100%\r\n        \r\n        accountMintableGOLD -= vars.sumBorrowPlusEffects;\r\n\r\n        accountMintableGOLD = accountMintableGOLD * 1e18 / vars.goldPriceMantissa; // turnn unit USD to GOLD\r\n\r\n        return (accountMintableGOLD);\r\n    }\r\n\r\n\r\n\r\n\r\n    function getTimestamp() public view returns (uint) {\r\n        return block.timestamp;\r\n    }\r\n\r\n    /**\r\n     * @notice Return the address of the AURUM GOLD token\r\n     * @return The address of AURUM GOLD\r\n     */\r\n    function getAURUMAddress() public view returns (address) {\r\n        return aurumAddress;\r\n    }\r\n\r\n    /*** Reentrancy Guard ***/\r\n\r\n    /**\r\n     * @dev Prevents a contract from calling itself, directly or indirectly.\r\n     */\r\n    modifier nonReentrant() {\r\n        require(_notEntered, \"re-entered\");\r\n        _notEntered = false;\r\n        _;\r\n        _notEntered = true; // get a gas-refund post-Istanbul\r\n    }\r\n}",
  "sourcePath": "C:\\Users\\chana\\desktop\\aurumdefi\\src\\contracts\\AurumController.sol",
  "compiler": {
    "name": "solc",
    "version": "0.8.12+commit.f00d7308.Emscripten.clang"
  },
  "schemaVersion": "3.4.6",
  "updatedAt": "2022-04-12T10:16:33.540Z",
  "networkType": "ethereum",
  "devdoc": {
    "kind": "dev",
    "methods": {
      "_setComptroller(address)": {
        "details": "Admin function to set a new comptroller"
      },
      "getAURUMAddress()": {
        "returns": {
          "_0": "The address of AURUM GOLD"
        }
      }
    },
    "version": 1
  },
  "userdoc": {
    "kind": "user",
    "methods": {
      "_setComptroller(address)": {
        "notice": "Sets a new comptroller"
      },
      "getAURUMAddress()": {
        "notice": "Return the address of the AURUM GOLD token"
      },
      "repayGOLD(uint256)": {
        "notice": "repayGOLD is to pay debt and burn GOLD token"
      },
      "treasuryGuardian()": {
        "notice": "Treasury Guardian"
      }
    },
    "notice": "== == == AURUM DeFi == == == these contracts are modified from Venus's Contract ",
    "version": 1
  }
}