{
  "contractName": "AurumOracleCentralized",
  "abi": [
    {
      "inputs": [
        {
          "internalType": "address",
          "name": "WREI_",
          "type": "address"
        },
        {
          "internalType": "address",
          "name": "kuma_",
          "type": "address"
        }
      ],
      "stateMutability": "nonpayable",
      "type": "constructor"
    },
    {
      "anonymous": false,
      "inputs": [
        {
          "indexed": false,
          "internalType": "address",
          "name": "token",
          "type": "address"
        },
        {
          "indexed": false,
          "internalType": "uint128",
          "name": "price",
          "type": "uint128"
        },
        {
          "indexed": false,
          "internalType": "uint128",
          "name": "timestamp",
          "type": "uint128"
        }
      ],
      "name": "Initialized_Asset",
      "type": "event"
    },
    {
      "anonymous": false,
      "inputs": [
        {
          "indexed": false,
          "internalType": "uint128",
          "name": "price",
          "type": "uint128"
        },
        {
          "indexed": false,
          "internalType": "uint128",
          "name": "timestamp",
          "type": "uint128"
        }
      ],
      "name": "Initialized_Gold",
      "type": "event"
    },
    {
      "anonymous": false,
      "inputs": [
        {
          "indexed": false,
          "internalType": "address",
          "name": "oldAdmin",
          "type": "address"
        },
        {
          "indexed": false,
          "internalType": "address",
          "name": "newAdmin",
          "type": "address"
        }
      ],
      "name": "SetNewAdmin",
      "type": "event"
    },
    {
      "anonymous": false,
      "inputs": [
        {
          "indexed": false,
          "internalType": "address",
          "name": "oldManager",
          "type": "address"
        },
        {
          "indexed": false,
          "internalType": "address",
          "name": "newManager",
          "type": "address"
        }
      ],
      "name": "SetNewManager",
      "type": "event"
    },
    {
      "inputs": [],
      "name": "periodRange",
      "outputs": [
        {
          "internalType": "uint256",
          "name": "",
          "type": "uint256"
        }
      ],
      "stateMutability": "view",
      "type": "function",
      "constant": true
    },
    {
      "inputs": [],
      "name": "slidingWindow",
      "outputs": [
        {
          "internalType": "contract ISlidingWindow",
          "name": "",
          "type": "address"
        }
      ],
      "stateMutability": "view",
      "type": "function",
      "constant": true
    },
    {
      "inputs": [],
      "name": "isPriceOracle",
      "outputs": [
        {
          "internalType": "bool",
          "name": "",
          "type": "bool"
        }
      ],
      "stateMutability": "pure",
      "type": "function",
      "constant": true
    },
    {
      "inputs": [
        {
          "internalType": "address",
          "name": "token",
          "type": "address"
        },
        {
          "internalType": "uint128",
          "name": "price",
          "type": "uint128"
        }
      ],
      "name": "initializedAsset",
      "outputs": [],
      "stateMutability": "nonpayable",
      "type": "function"
    },
    {
      "inputs": [
        {
          "internalType": "uint128",
          "name": "price",
          "type": "uint128"
        }
      ],
      "name": "initializedGold",
      "outputs": [],
      "stateMutability": "nonpayable",
      "type": "function"
    },
    {
      "inputs": [
        {
          "internalType": "address",
          "name": "token",
          "type": "address"
        },
        {
          "internalType": "uint128",
          "name": "price",
          "type": "uint128"
        }
      ],
      "name": "updateAssetPrice",
      "outputs": [],
      "stateMutability": "nonpayable",
      "type": "function"
    },
    {
      "inputs": [
        {
          "internalType": "address",
          "name": "token",
          "type": "address"
        }
      ],
      "name": "updateAssetPriceFromWindow",
      "outputs": [],
      "stateMutability": "nonpayable",
      "type": "function"
    },
    {
      "inputs": [
        {
          "internalType": "uint128",
          "name": "price",
          "type": "uint128"
        }
      ],
      "name": "updateGoldPrice",
      "outputs": [],
      "stateMutability": "nonpayable",
      "type": "function"
    },
    {
      "inputs": [],
      "name": "getGoldPrice",
      "outputs": [
        {
          "internalType": "uint256",
          "name": "",
          "type": "uint256"
        }
      ],
      "stateMutability": "view",
      "type": "function",
      "constant": true
    },
    {
      "inputs": [
        {
          "internalType": "contract LendTokenInterface",
          "name": "lendToken",
          "type": "address"
        }
      ],
      "name": "getUnderlyingPrice",
      "outputs": [
        {
          "internalType": "uint256",
          "name": "",
          "type": "uint256"
        }
      ],
      "stateMutability": "view",
      "type": "function",
      "constant": true
    },
    {
      "inputs": [
        {
          "internalType": "address",
          "name": "token",
          "type": "address"
        }
      ],
      "name": "assetPrices",
      "outputs": [
        {
          "internalType": "uint256",
          "name": "",
          "type": "uint256"
        }
      ],
      "stateMutability": "view",
      "type": "function",
      "constant": true
    },
    {
      "inputs": [
        {
          "internalType": "address",
          "name": "newAdmin",
          "type": "address"
        }
      ],
      "name": "_setAdmin",
      "outputs": [],
      "stateMutability": "nonpayable",
      "type": "function"
    },
    {
      "inputs": [
        {
          "internalType": "address",
          "name": "newManager",
          "type": "address"
        }
      ],
      "name": "_setManager",
      "outputs": [],
      "stateMutability": "nonpayable",
      "type": "function"
    }
  ],
  "bytecode": "0x6080604052610bb8601e553480156200001757600080fd5b50604051620028d4380380620028d483398181016040528101906200003d919062000171565b336000806101000a81548173ffffffffffffffffffffffffffffffffffffffff021916908373ffffffffffffffffffffffffffffffffffffffff16021790555080600260006101000a81548173ffffffffffffffffffffffffffffffffffffffff021916908373ffffffffffffffffffffffffffffffffffffffff16021790555081601f60006101000a81548173ffffffffffffffffffffffffffffffffffffffff021916908373ffffffffffffffffffffffffffffffffffffffff1602179055505050620001b8565b600080fd5b600073ffffffffffffffffffffffffffffffffffffffff82169050919050565b600062000139826200010c565b9050919050565b6200014b816200012c565b81146200015757600080fd5b50565b6000815190506200016b8162000140565b92915050565b600080604083850312156200018b576200018a62000107565b5b60006200019b858286016200015a565b9250506020620001ae858286016200015a565b9150509250929050565b61270c80620001c86000396000f3fe608060405234801561001057600080fd5b50600436106100cf5760003560e01c806366331bba1161008c57806371232b1b1161006657806371232b1b146101e857806381546f3f14610204578063da6bae1014610222578063fc57d4df14610240576100cf565b806366331bba14610192578063695bea49146101b05780636b7f0bd7146101cc576100cf565b80630f9e81ee146100d45780633524cf6c146100f05780633a74a7671461010c57806345037b70146101285780634b1386c9146101465780635e9a523c14610162575b600080fd5b6100ee60048036038101906100e99190611c91565b610270565b005b61010a60048036038101906101059190611d1c565b61043d565b005b61012660048036038101906101219190611d5c565b6106c4565b005b6101306107f5565b60405161013d9190611da2565b60405180910390f35b610160600480360381019061015b9190611c91565b6107fb565b005b61017c60048036038101906101779190611d5c565b610c36565b6040516101899190611da2565b60405180910390f35b61019a610d4b565b6040516101a79190611dd8565b60405180910390f35b6101ca60048036038101906101c59190611d5c565b610d54565b005b6101e660048036038101906101e19190611d5c565b610e87565b005b61020260048036038101906101fd9190611d1c565b6112d9565b005b61020c6118b2565b6040516102199190611e52565b60405180910390f35b61022a6118d8565b6040516102379190611da2565b60405180910390f35b61025a60048036038101906102559190611eab565b611971565b6040516102679190611da2565b60405180910390f35b60008054906101000a900473ffffffffffffffffffffffffffffffffffffffff1673ffffffffffffffffffffffffffffffffffffffff163373ffffffffffffffffffffffffffffffffffffffff16146102fe576040517f08c379a00000000000000000000000000000000000000000000000000000000081526004016102f590611f35565b60405180910390fd5b600080429050600091505b60188260ff1610156103e0578260046000018360ff16601881106103305761032f611f55565b5b600291828204019190066010026101000a8154816fffffffffffffffffffffffffffffffff02191690836fffffffffffffffffffffffffffffffff160217905550806004600c018360ff166018811061038c5761038b611f55565b5b600291828204019190066010026101000a8154816fffffffffffffffffffffffffffffffff02191690836fffffffffffffffffffffffffffffffff16021790555081806103d890611fc0565b925050610309565b6000600460180160006101000a81548160ff021916908360ff1602179055507fc66c6a9be0b5931755018ddae096efb20b7b80e636d01ee9bb535584cd06101d8382604051610430929190611ff9565b60405180910390a1505050565b60008054906101000a900473ffffffffffffffffffffffffffffffffffffffff1673ffffffffffffffffffffffffffffffffffffffff163373ffffffffffffffffffffffffffffffffffffffff16146104cb576040517f08c379a00000000000000000000000000000000000000000000000000000000081526004016104c290611f35565b60405180910390fd5b600080429050600091505b60188260ff1610156106275782600360008673ffffffffffffffffffffffffffffffffffffffff1673ffffffffffffffffffffffffffffffffffffffff1681526020019081526020016000206000018360ff166018811061053a57610539611f55565b5b600291828204019190066010026101000a8154816fffffffffffffffffffffffffffffffff02191690836fffffffffffffffffffffffffffffffff16021790555080600360008673ffffffffffffffffffffffffffffffffffffffff1673ffffffffffffffffffffffffffffffffffffffff168152602001908152602001600020600c018360ff16601881106105d3576105d2611f55565b5b600291828204019190066010026101000a8154816fffffffffffffffffffffffffffffffff02191690836fffffffffffffffffffffffffffffffff160217905550818061061f90611fc0565b9250506104d6565b6000600360008673ffffffffffffffffffffffffffffffffffffffff1673ffffffffffffffffffffffffffffffffffffffff16815260200190815260200160002060180160006101000a81548160ff021916908360ff1602179055507fb269f714c40d09fccdca4d2f0b9dfa2a604c8b821f713813fc79824c458b0d908484836040516106b693929190612031565b60405180910390a150505050565b60008054906101000a900473ffffffffffffffffffffffffffffffffffffffff1673ffffffffffffffffffffffffffffffffffffffff163373ffffffffffffffffffffffffffffffffffffffff1614610752576040517f08c379a000000000000000000000000000000000000000000000000000000000815260040161074990611f35565b60405180910390fd5b60008060009054906101000a900473ffffffffffffffffffffffffffffffffffffffff169050816000806101000a81548173ffffffffffffffffffffffffffffffffffffffff021916908373ffffffffffffffffffffffffffffffffffffffff1602179055507f677255dd8d307c528670cb7cefed4f404c1e92c8729eafcbe702e85ed49292bd81836040516107e9929190612068565b60405180910390a15050565b601e5481565b600160009054906101000a900473ffffffffffffffffffffffffffffffffffffffff1673ffffffffffffffffffffffffffffffffffffffff163373ffffffffffffffffffffffffffffffffffffffff161461088b576040517f08c379a0000000000000000000000000000000000000000000000000000000008152600401610882906120dd565b60405180910390fd5b6000600460180160009054906101000a900460ff16905060008060008360ff1614156108ba57601791506108ca565b6001836108c791906120fd565b91505b600060046000018360ff16601881106108e6576108e5611f55565b5b600291828204019190066010029054906101000a90046fffffffffffffffffffffffffffffffff166fffffffffffffffffffffffffffffffff16905060178460ff1614156109375760009150610947565b6001846109449190612131565b91505b60006004600c018460ff166018811061096357610962611f55565b5b600291828204019190066010029054906101000a90046fffffffffffffffffffffffffffffffff166004600c018460ff16601881106109a5576109a4611f55565b5b600291828204019190066010029054906101000a90046fffffffffffffffffffffffffffffffff166109d79190612168565b6fffffffffffffffffffffffffffffffff16905060006004600c018560ff1660188110610a0757610a06611f55565b5b600291828204019190066010029054906101000a90046fffffffffffffffffffffffffffffffff166fffffffffffffffffffffffffffffffff1642610a4c919061219c565b905060008282610a5c91906121d0565b886fffffffffffffffffffffffffffffffff1683610a7a9190612226565b8585610a869190612226565b610a9091906121d0565b610a9a91906122af565b90506fffffffffffffffffffffffffffffffff8016811115610af1576040517f08c379a0000000000000000000000000000000000000000000000000000000008152600401610ae89061232c565b60405180910390fd5b80841115610b3f5760008185610b07919061219c565b9050600a85610b1691906122af565b811115610b3957600a600986610b2c9190612226565b610b3691906122af565b91505b50610b81565b60008482610b4d919061219c565b9050600a85610b5c91906122af565b811115610b7f57600a600b86610b729190612226565b610b7c91906122af565b91505b505b8060046000018860ff1660188110610b9c57610b9b611f55565b5b600291828204019190066010026101000a8154816fffffffffffffffffffffffffffffffff02191690836fffffffffffffffffffffffffffffffff1602179055506004600c018760ff1660188110610bf757610bf6611f55565b5b600291828204019190066010029054906101000a90505084600460180160006101000a81548160ff021916908360ff1602179055505050505050505050565b600080600360008473ffffffffffffffffffffffffffffffffffffffff1673ffffffffffffffffffffffffffffffffffffffff16815260200190815260200160002060180160009054906101000a900460ff1690506000808260ff161415610ca15760179050610cb1565b600182610cae91906120fd565b90505b600360008573ffffffffffffffffffffffffffffffffffffffff1673ffffffffffffffffffffffffffffffffffffffff1681526020019081526020016000206000018160ff1660188110610d0857610d07611f55565b5b600291828204019190066010029054906101000a90046fffffffffffffffffffffffffffffffff166fffffffffffffffffffffffffffffffff1692505050919050565b60006001905090565b60008054906101000a900473ffffffffffffffffffffffffffffffffffffffff1673ffffffffffffffffffffffffffffffffffffffff163373ffffffffffffffffffffffffffffffffffffffff1614610de2576040517f08c379a0000000000000000000000000000000000000000000000000000000008152600401610dd990611f35565b60405180910390fd5b6000600160009054906101000a900473ffffffffffffffffffffffffffffffffffffffff16905081600160006101000a81548173ffffffffffffffffffffffffffffffffffffffff021916908373ffffffffffffffffffffffffffffffffffffffff1602179055507f061c62d73b47f63d86ecde0c69b9ffa4e7eacdcb8b376c5283e78f85b6d4f5758183604051610e7b929190612068565b60405180910390a15050565b600160009054906101000a900473ffffffffffffffffffffffffffffffffffffffff1673ffffffffffffffffffffffffffffffffffffffff163373ffffffffffffffffffffffffffffffffffffffff1614610f17576040517f08c379a0000000000000000000000000000000000000000000000000000000008152600401610f0e906120dd565b60405180910390fd5b6000600360008373ffffffffffffffffffffffffffffffffffffffff1673ffffffffffffffffffffffffffffffffffffffff16815260200190815260200160002060180160009054906101000a900460ff1690506000806000601d60009054906101000a900473ffffffffffffffffffffffffffffffffffffffff16905060008460ff161415610faa5760179250610fba565b600184610fb791906120fd565b92505b60178460ff161415610fcf5760009150610fdf565b600184610fdc9190612131565b91505b8073ffffffffffffffffffffffffffffffffffffffff1663c640752d86600260009054906101000a900473ffffffffffffffffffffffffffffffffffffffff166040518363ffffffff1660e01b815260040161103c929190612068565b600060405180830381600087803b15801561105657600080fd5b505af115801561106a573d6000803e3d6000fd5b5050505060008173ffffffffffffffffffffffffffffffffffffffff16638c86f1e487670de0b6b3a7640000600260009054906101000a900473ffffffffffffffffffffffffffffffffffffffff166040518463ffffffff1660e01b81526004016110d793929190612387565b602060405180830381865afa1580156110f4573d6000803e3d6000fd5b505050506040513d601f19601f8201168201806040525081019061111891906123ea565b90506fffffffffffffffffffffffffffffffff801681111561116f576040517f08c379a00000000000000000000000000000000000000000000000000000000081526004016111669061232c565b60405180910390fd5b80600360008873ffffffffffffffffffffffffffffffffffffffff1673ffffffffffffffffffffffffffffffffffffffff1681526020019081526020016000206000018660ff16601881106111c7576111c6611f55565b5b600291828204019190066010026101000a8154816fffffffffffffffffffffffffffffffff02191690836fffffffffffffffffffffffffffffffff160217905550600360008773ffffffffffffffffffffffffffffffffffffffff1673ffffffffffffffffffffffffffffffffffffffff168152602001908152602001600020600c018560ff166018811061125f5761125e611f55565b5b600291828204019190066010029054906101000a90505082600360008873ffffffffffffffffffffffffffffffffffffffff1673ffffffffffffffffffffffffffffffffffffffff16815260200190815260200160002060180160006101000a81548160ff021916908360ff160217905550505050505050565b600160009054906101000a900473ffffffffffffffffffffffffffffffffffffffff1673ffffffffffffffffffffffffffffffffffffffff163373ffffffffffffffffffffffffffffffffffffffff1614611369576040517f08c379a0000000000000000000000000000000000000000000000000000000008152600401611360906120dd565b60405180910390fd5b6000600360008473ffffffffffffffffffffffffffffffffffffffff1673ffffffffffffffffffffffffffffffffffffffff16815260200190815260200160002060180160009054906101000a900460ff16905060008060008360ff1614156113d557601791506113e5565b6001836113e291906120fd565b91505b6000600360008773ffffffffffffffffffffffffffffffffffffffff1673ffffffffffffffffffffffffffffffffffffffff1681526020019081526020016000206000018360ff166018811061143e5761143d611f55565b5b600291828204019190066010029054906101000a90046fffffffffffffffffffffffffffffffff166fffffffffffffffffffffffffffffffff16905060178460ff16141561148f576000915061149f565b60018461149c9190612131565b91505b6000600360008873ffffffffffffffffffffffffffffffffffffffff1673ffffffffffffffffffffffffffffffffffffffff168152602001908152602001600020600c018460ff16601881106114f8576114f7611f55565b5b600291828204019190066010029054906101000a90046fffffffffffffffffffffffffffffffff166fffffffffffffffffffffffffffffffff164261153d919061219c565b9050601e54811015611584576040517f08c379a000000000000000000000000000000000000000000000000000000000815260040161157b90612463565b60405180910390fd5b6000600360008973ffffffffffffffffffffffffffffffffffffffff1673ffffffffffffffffffffffffffffffffffffffff168152602001908152602001600020600c018560ff16601881106115dd576115dc611f55565b5b600291828204019190066010029054906101000a90046fffffffffffffffffffffffffffffffff16600360008a73ffffffffffffffffffffffffffffffffffffffff1673ffffffffffffffffffffffffffffffffffffffff168152602001908152602001600020600c018560ff166018811061165c5761165b611f55565b5b600291828204019190066010029054906101000a90046fffffffffffffffffffffffffffffffff1661168e9190612168565b6fffffffffffffffffffffffffffffffff169050600081836116b091906121d0565b886fffffffffffffffffffffffffffffffff16846116ce9190612226565b85846116da9190612226565b6116e491906121d0565b6116ee91906122af565b90506fffffffffffffffffffffffffffffffff8016811115611745576040517f08c379a000000000000000000000000000000000000000000000000000000000815260040161173c9061232c565b60405180910390fd5b80600360008b73ffffffffffffffffffffffffffffffffffffffff1673ffffffffffffffffffffffffffffffffffffffff1681526020019081526020016000206000018860ff166018811061179d5761179c611f55565b5b600291828204019190066010026101000a8154816fffffffffffffffffffffffffffffffff02191690836fffffffffffffffffffffffffffffffff160217905550600360008a73ffffffffffffffffffffffffffffffffffffffff1673ffffffffffffffffffffffffffffffffffffffff168152602001908152602001600020600c018760ff166018811061183557611834611f55565b5b600291828204019190066010029054906101000a90505084600360008b73ffffffffffffffffffffffffffffffffffffffff1673ffffffffffffffffffffffffffffffffffffffff16815260200190815260200160002060180160006101000a81548160ff021916908360ff160217905550505050505050505050565b601d60009054906101000a900473ffffffffffffffffffffffffffffffffffffffff1681565b600080600460180160009054906101000a900460ff1690506000808260ff1614156119065760179050611916565b60018261191391906120fd565b90505b60046000018160ff16601881106119305761192f611f55565b5b600291828204019190066010029054906101000a90046fffffffffffffffffffffffffffffffff166fffffffffffffffffffffffffffffffff169250505090565b600080611a268373ffffffffffffffffffffffffffffffffffffffff166395d89b416040518163ffffffff1660e01b8152600401600060405180830381865afa1580156119c2573d6000803e3d6000fd5b505050506040513d6000823e3d601f19601f820116820180604052508101906119eb91906125ed565b6040518060400160405280600781526020017f6c656e6452454900000000000000000000000000000000000000000000000000815250611bdc565b15611a5557601f60009054906101000a900473ffffffffffffffffffffffffffffffffffffffff169050611ac7565b8273ffffffffffffffffffffffffffffffffffffffff16636f307dc36040518163ffffffff1660e01b8152600401602060405180830381865afa158015611aa0573d6000803e3d6000fd5b505050506040513d601f19601f82011682018060405250810190611ac4919061264b565b90505b6000600360008373ffffffffffffffffffffffffffffffffffffffff1673ffffffffffffffffffffffffffffffffffffffff16815260200190815260200160002060180160009054906101000a900460ff1690506000808260ff161415611b315760179050611b41565b600182611b3e91906120fd565b90505b600360008473ffffffffffffffffffffffffffffffffffffffff1673ffffffffffffffffffffffffffffffffffffffff1681526020019081526020016000206000018160ff1660188110611b9857611b97611f55565b5b600291828204019190066010029054906101000a90046fffffffffffffffffffffffffffffffff166fffffffffffffffffffffffffffffffff169350505050919050565b600081604051602001611bef91906126bf565b6040516020818303038152906040528051906020012083604051602001611c1691906126bf565b6040516020818303038152906040528051906020012014905092915050565b6000604051905090565b600080fd5b600080fd5b60006fffffffffffffffffffffffffffffffff82169050919050565b611c6e81611c49565b8114611c7957600080fd5b50565b600081359050611c8b81611c65565b92915050565b600060208284031215611ca757611ca6611c3f565b5b6000611cb584828501611c7c565b91505092915050565b600073ffffffffffffffffffffffffffffffffffffffff82169050919050565b6000611ce982611cbe565b9050919050565b611cf981611cde565b8114611d0457600080fd5b50565b600081359050611d1681611cf0565b92915050565b60008060408385031215611d3357611d32611c3f565b5b6000611d4185828601611d07565b9250506020611d5285828601611c7c565b9150509250929050565b600060208284031215611d7257611d71611c3f565b5b6000611d8084828501611d07565b91505092915050565b6000819050919050565b611d9c81611d89565b82525050565b6000602082019050611db76000830184611d93565b92915050565b60008115159050919050565b611dd281611dbd565b82525050565b6000602082019050611ded6000830184611dc9565b92915050565b6000819050919050565b6000611e18611e13611e0e84611cbe565b611df3565b611cbe565b9050919050565b6000611e2a82611dfd565b9050919050565b6000611e3c82611e1f565b9050919050565b611e4c81611e31565b82525050565b6000602082019050611e676000830184611e43565b92915050565b6000611e7882611cde565b9050919050565b611e8881611e6d565b8114611e9357600080fd5b50565b600081359050611ea581611e7f565b92915050565b600060208284031215611ec157611ec0611c3f565b5b6000611ecf84828501611e96565b91505092915050565b600082825260208201905092915050565b7f4f6e6c792061646d696e00000000000000000000000000000000000000000000600082015250565b6000611f1f600a83611ed8565b9150611f2a82611ee9565b602082019050919050565b60006020820190508181036000830152611f4e81611f12565b9050919050565b7f4e487b7100000000000000000000000000000000000000000000000000000000600052603260045260246000fd5b7f4e487b7100000000000000000000000000000000000000000000000000000000600052601160045260246000fd5b600060ff82169050919050565b6000611fcb82611fb3565b915060ff821415611fdf57611fde611f84565b5b600182019050919050565b611ff381611c49565b82525050565b600060408201905061200e6000830185611fea565b61201b6020830184611fea565b9392505050565b61202b81611cde565b82525050565b60006060820190506120466000830186612022565b6120536020830185611fea565b6120606040830184611fea565b949350505050565b600060408201905061207d6000830185612022565b61208a6020830184612022565b9392505050565b7f4f6e6c79206d616e616765720000000000000000000000000000000000000000600082015250565b60006120c7600c83611ed8565b91506120d282612091565b602082019050919050565b600060208201905081810360008301526120f6816120ba565b9050919050565b600061210882611fb3565b915061211383611fb3565b92508282101561212657612125611f84565b5b828203905092915050565b600061213c82611fb3565b915061214783611fb3565b92508260ff0382111561215d5761215c611f84565b5b828201905092915050565b600061217382611c49565b915061217e83611c49565b92508282101561219157612190611f84565b5b828203905092915050565b60006121a782611d89565b91506121b283611d89565b9250828210156121c5576121c4611f84565b5b828203905092915050565b60006121db82611d89565b91506121e683611d89565b9250827fffffffffffffffffffffffffffffffffffffffffffffffffffffffffffffffff0382111561221b5761221a611f84565b5b828201905092915050565b600061223182611d89565b915061223c83611d89565b9250817fffffffffffffffffffffffffffffffffffffffffffffffffffffffffffffffff048311821515161561227557612274611f84565b5b828202905092915050565b7f4e487b7100000000000000000000000000000000000000000000000000000000600052601260045260246000fd5b60006122ba82611d89565b91506122c583611d89565b9250826122d5576122d4612280565b5b828204905092915050565b7f4f766572666c6f77000000000000000000000000000000000000000000000000600082015250565b6000612316600883611ed8565b9150612321826122e0565b602082019050919050565b6000602082019050818103600083015261234581612309565b9050919050565b6000819050919050565b600061237161236c6123678461234c565b611df3565b611d89565b9050919050565b61238181612356565b82525050565b600060608201905061239c6000830186612022565b6123a96020830185612378565b6123b66040830184612022565b949350505050565b6123c781611d89565b81146123d257600080fd5b50565b6000815190506123e4816123be565b92915050565b600060208284031215612400576123ff611c3f565b5b600061240e848285016123d5565b91505092915050565b7f75706461746520746f6f206561726c7900000000000000000000000000000000600082015250565b600061244d601083611ed8565b915061245882612417565b602082019050919050565b6000602082019050818103600083015261247c81612440565b9050919050565b600080fd5b600080fd5b6000601f19601f8301169050919050565b7f4e487b7100000000000000000000000000000000000000000000000000000000600052604160045260246000fd5b6124d68261248d565b810181811067ffffffffffffffff821117156124f5576124f461249e565b5b80604052505050565b6000612508611c35565b905061251482826124cd565b919050565b600067ffffffffffffffff8211156125345761253361249e565b5b61253d8261248d565b9050602081019050919050565b60005b8381101561256857808201518184015260208101905061254d565b83811115612577576000848401525b50505050565b600061259061258b84612519565b6124fe565b9050828152602081018484840111156125ac576125ab612488565b5b6125b784828561254a565b509392505050565b600082601f8301126125d4576125d3612483565b5b81516125e484826020860161257d565b91505092915050565b60006020828403121561260357612602611c3f565b5b600082015167ffffffffffffffff81111561262157612620611c44565b5b61262d848285016125bf565b91505092915050565b60008151905061264581611cf0565b92915050565b60006020828403121561266157612660611c3f565b5b600061266f84828501612636565b91505092915050565b600081519050919050565b600081905092915050565b600061269982612678565b6126a38185612683565b93506126b381856020860161254a565b80840191505092915050565b60006126cb828461268e565b91508190509291505056fea26469706673582212200af8c3169dae4462de155adaec19ba4199c96600ff564bb278994bfcda0aaec664736f6c634300080c0033",
  "immutableReferences": {},
  "source": "// SPDX-License-Identifier: MIT\r\npragma solidity ^0.8.0;\r\n\r\nimport './interface/ComptrollerInterface.sol';\r\nimport \"./interface/ISlidingWindow.sol\";\r\n\r\ncontract AurumOracleCentralized is PriceOracle {\r\n    //Using TWAP model, using index for looping and re-write the price storage\r\n\r\n    address admin; // Admin can initiate price and set manager (reducing risk of privatekey leak)   Admin private key store in Hardware wallet.\r\n    address manager; // Manager can update the price (bot address), tihs address has some risk of private key leak.\r\n    \r\n    address kuma; //Reference stable coin price.\r\n\r\n    struct PriceList {\r\n        uint128[24] avgPrice;\r\n        uint128[24] timestamp;\r\n        uint8 currentIndex;\r\n    }\r\n    \r\n    mapping (address => PriceList) asset;\r\n    PriceList goldPrice; // gold price TWAP\r\n\r\n    ISlidingWindow public slidingWindow;\r\n\r\n    // Period range will trigger the alarm when someone got the admin private key and try to manipulate prices\r\n    // \r\n    uint public periodRange = 60*50; // 50 minutes\r\n\r\n    function isPriceOracle() external pure returns (bool) {return true;}\r\n\r\n\r\n    address WREI; // Wrapped REI address\r\n\r\n\r\n    constructor (address WREI_, address kuma_) {\r\n        admin = msg.sender;\r\n        kuma = kuma_;\r\n        WREI = WREI_;  // WREI will prevent crash when query the 'lendREI' token\r\n    }\r\n\r\n    modifier onlyAdmin {\r\n        require(msg.sender == admin, \"Only admin\");\r\n        _;\r\n    }\r\n    modifier onlyManager {\r\n        require(msg.sender == manager, \"Only manager\");\r\n        _;\r\n    }\r\n\r\n    event Initialized_Asset(address token, uint128 price, uint128 timestamp);\r\n    event Initialized_Gold(uint128 price, uint128 timestamp);\r\n    event SetNewAdmin(address oldAdmin, address newAdmin);\r\n    event SetNewManager(address oldManager, address newManager);\r\n\r\n    // Initialized Asset before updateAssetPrice, make sure that lastPrice not equal to 0, and Timestamp not equal to 0.\r\n    function initializedAsset(address token, uint128 price) external onlyAdmin{\r\n        uint8 i;\r\n        uint128 currentTime = uint128(block.timestamp);\r\n        for(i=0;i<24;i++){\r\n            asset[token].avgPrice[i] = price;\r\n            asset[token].timestamp[i] = currentTime;\r\n        }\r\n        asset[token].currentIndex = 0;\r\n        emit Initialized_Asset(token, price, currentTime);\r\n    }\r\n    function initializedGold(uint128 price) external onlyAdmin{\r\n        uint8 i;\r\n        uint128 currentTime = uint128(block.timestamp);\r\n        for(i=0;i<24;i++){\r\n            goldPrice.avgPrice[i] = price;\r\n            goldPrice.timestamp[i] = currentTime;\r\n        }\r\n        goldPrice.currentIndex = 0;\r\n        emit Initialized_Gold(price, currentTime);\r\n    }\r\n\r\n\r\n    // Update price with the TWAP model.\r\n    function updateAssetPrice(address token, uint128 price) external onlyManager{\r\n        uint8 index = asset[token].currentIndex;\r\n        uint8 lastIndex;\r\n        uint8 nextIndex;\r\n        if(index == 0){\r\n            lastIndex = 23;\r\n        } else {\r\n            lastIndex = index-1;\r\n        }\r\n        uint lastPrice = asset[token].avgPrice[lastIndex];\r\n\r\n        if(index == 23){\r\n            nextIndex = 0;\r\n        } else {\r\n            nextIndex = index+1;\r\n        }\r\n        //newDeltaTime is the time n - time K  // it must more than period time\r\n        //oldDeltaTime is the time 0 - time K\r\n        uint newDeltaTime = block.timestamp - asset[token].timestamp[lastIndex];\r\n        require(newDeltaTime >= periodRange, \"update too early\");   //If update oracle bot catch this means the privatekey got hacked OR the bot error.\r\n        uint oldDeltaTime = asset[token].timestamp[nextIndex]-asset[token].timestamp[lastIndex]; // This need to be initialized prevent underflow\r\n\r\n        //new AvgPrice is ( price*tk  +  price*tn  ) / tk+tn\r\n        uint newAvgPrice = ((oldDeltaTime*lastPrice) + (newDeltaTime*price)) / (newDeltaTime+oldDeltaTime);\r\n\r\n        if(newAvgPrice > type(uint128).max){\r\n            revert(\"Overflow\");\r\n        }\r\n        asset[token].avgPrice[index] = uint128(newAvgPrice);\r\n        asset[token].timestamp[index];\r\n\r\n        //Set new index to the next;\r\n        asset[token].currentIndex = nextIndex;\r\n    }\r\n    \r\n    // This using sliding window oracle of Uniswap V2 data to update this oracle.\r\n    function updateAssetPriceFromWindow(address token) external onlyManager{\r\n        uint8 index = asset[token].currentIndex;\r\n        uint8 lastIndex;\r\n        uint8 nextIndex;\r\n        ISlidingWindow uniswapOracle = ISlidingWindow(slidingWindow);\r\n        if(index == 0){\r\n            lastIndex = 23;\r\n        } else {\r\n            lastIndex = index-1;\r\n        }\r\n\r\n        if(index == 23){\r\n            nextIndex = 0;\r\n        } else {\r\n            nextIndex = index+1;\r\n        }\r\n        // So.. We helping sliding Window update each time we read parameter.\r\n        uniswapOracle.update(token,kuma);\r\n\r\n        // The price we got already time-weight average price.\r\n        uint newAvgPrice = uniswapOracle.consult(token,1e18,kuma);\r\n\r\n        if(newAvgPrice > type(uint128).max){\r\n            revert(\"Overflow\");\r\n        }\r\n        asset[token].avgPrice[index] = uint128(newAvgPrice);\r\n        asset[token].timestamp[index];\r\n\r\n        //Set new index to the next;\r\n        asset[token].currentIndex = nextIndex;\r\n    }\r\n\r\n\r\n\r\n    function updateGoldPrice(uint128 price) external onlyManager {\r\n        uint8 index = goldPrice.currentIndex;\r\n        uint8 lastIndex;\r\n        uint8 nextIndex;\r\n        if(index == 0){\r\n            lastIndex = 23;\r\n        } else {\r\n            lastIndex = index-1;\r\n        }\r\n        uint lastPrice = goldPrice.avgPrice[lastIndex];\r\n\r\n        if(index == 23){\r\n            nextIndex = 0;\r\n        } else {\r\n            nextIndex = index+1;\r\n        }\r\n        //oldDeltaTime is the time 0 - time K\r\n        //newDeltaTime is the time n - time K\r\n        uint oldDeltaTime = goldPrice.timestamp[nextIndex]-goldPrice.timestamp[lastIndex]; // This need to be initialized prevent underflow\r\n        uint newDeltaTime = block.timestamp - goldPrice.timestamp[lastIndex];\r\n\r\n        //new AvgPrice is ( price*tk  +  price*tn  ) / tk+tn\r\n        uint newAvgPrice = ((oldDeltaTime*lastPrice) + (newDeltaTime*price)) / (newDeltaTime+oldDeltaTime);\r\n\r\n        if(newAvgPrice > type(uint128).max){\r\n            revert(\"Overflow\");\r\n        }\r\n\r\n        //Prevent overvalue / undervalue algorithm, Max change = 10%\r\n        if(lastPrice > newAvgPrice) {\r\n            //new price is less than previous price\r\n            uint dif = lastPrice - newAvgPrice;\r\n            if(dif > lastPrice/10){\r\n                newAvgPrice = lastPrice * 9 / 10;\r\n            }\r\n        } else {\r\n            //new price is greater than previous price\r\n            uint dif = newAvgPrice - lastPrice;\r\n            if(dif > lastPrice/10){\r\n                newAvgPrice = lastPrice * 11 / 10;\r\n            }\r\n        }\r\n\r\n        goldPrice.avgPrice[index] = uint128(newAvgPrice);\r\n        goldPrice.timestamp[index];\r\n\r\n        //Set new index to the next;\r\n        goldPrice.currentIndex = nextIndex;\r\n    }\r\n\r\n    function getGoldPrice() external view returns (uint){\r\n        uint8 index = goldPrice.currentIndex;\r\n        uint8 lastIndex;\r\n        if(index == 0){\r\n            lastIndex = 23;\r\n        } else {\r\n            lastIndex = index-1;\r\n        }\r\n        return uint(goldPrice.avgPrice[lastIndex]);\r\n    }\r\n    function getUnderlyingPrice(LendTokenInterface lendToken) external view returns (uint){\r\n        address underlying;\r\n        if(compareStrings(lendToken.symbol(), \"lendREI\")){\r\n            underlying = WREI;\r\n        } else {\r\n            underlying = lendToken.underlying();\r\n        }\r\n\r\n        //same as  assetPrices function\r\n        uint8 index = asset[underlying].currentIndex;\r\n        uint8 lastIndex;\r\n        if(index == 0){\r\n            lastIndex = 23;\r\n        } else {\r\n            lastIndex = index-1;\r\n        }\r\n        return uint(asset[underlying].avgPrice[lastIndex]);\r\n    }\r\n    //The latest price is where the lastIndex is.\r\n    function assetPrices(address token) external view returns (uint){\r\n        uint8 index = asset[token].currentIndex;\r\n        uint8 lastIndex;\r\n        if(index == 0){\r\n            lastIndex = 23;\r\n        } else {\r\n            lastIndex = index-1;\r\n        }\r\n\r\n        \r\n        return uint(asset[token].avgPrice[lastIndex]);\r\n    }\r\n    \r\n    function compareStrings(string memory a, string memory b) internal pure returns (bool) {\r\n        return (keccak256(abi.encodePacked((a))) == keccak256(abi.encodePacked((b))));\r\n    }\r\n\r\n    function _setAdmin (address newAdmin) external onlyAdmin {\r\n        address oldAdmin = admin;\r\n        admin = newAdmin;\r\n\r\n        emit SetNewAdmin (oldAdmin, newAdmin);\r\n    }\r\n\r\n    function _setManager (address newManager) external onlyAdmin {\r\n        address oldManager = manager;\r\n        manager = newManager;\r\n\r\n        emit SetNewManager(oldManager, newManager);\r\n    }\r\n}",
  "sourcePath": "C:\\Users\\chana\\desktop\\aurumdefi\\src\\contracts\\AurumOracleCentralized.sol",
  "compiler": {
    "name": "solc",
    "version": "0.8.12+commit.f00d7308.Emscripten.clang"
  },
  "schemaVersion": "3.4.6",
  "updatedAt": "2022-04-02T12:12:42.326Z",
  "networkType": "ethereum",
  "devdoc": {
    "kind": "dev",
    "methods": {},
    "version": 1
  },
  "userdoc": {
    "kind": "user",
    "methods": {},
    "version": 1
  }
}