{
  "contractName": "AurumInterestRateModel",
  "abi": [
    {
      "inputs": [
        {
          "internalType": "uint256",
          "name": "_baseRate",
          "type": "uint256"
        },
        {
          "internalType": "uint256",
          "name": "_maxRate",
          "type": "uint256"
        },
        {
          "internalType": "uint256",
          "name": "_trigger",
          "type": "uint256"
        },
        {
          "internalType": "uint256",
          "name": "_peakMax",
          "type": "uint256"
        }
      ],
      "stateMutability": "nonpayable",
      "type": "constructor"
    },
    {
      "inputs": [],
      "name": "isInterestRateModel",
      "outputs": [
        {
          "internalType": "bool",
          "name": "",
          "type": "bool"
        }
      ],
      "stateMutability": "pure",
      "type": "function",
      "constant": true
    },
    {
      "inputs": [
        {
          "internalType": "uint256",
          "name": "cash",
          "type": "uint256"
        },
        {
          "internalType": "uint256",
          "name": "borrows",
          "type": "uint256"
        },
        {
          "internalType": "uint256",
          "name": "reserves",
          "type": "uint256"
        }
      ],
      "name": "utility",
      "outputs": [
        {
          "internalType": "uint256",
          "name": "",
          "type": "uint256"
        }
      ],
      "stateMutability": "pure",
      "type": "function",
      "constant": true
    },
    {
      "inputs": [
        {
          "internalType": "uint256",
          "name": "cash",
          "type": "uint256"
        },
        {
          "internalType": "uint256",
          "name": "borrows",
          "type": "uint256"
        },
        {
          "internalType": "uint256",
          "name": "reserves",
          "type": "uint256"
        }
      ],
      "name": "getBorrowRate",
      "outputs": [
        {
          "internalType": "uint256",
          "name": "",
          "type": "uint256"
        }
      ],
      "stateMutability": "view",
      "type": "function",
      "constant": true
    },
    {
      "inputs": [
        {
          "internalType": "uint256",
          "name": "cash",
          "type": "uint256"
        },
        {
          "internalType": "uint256",
          "name": "borrows",
          "type": "uint256"
        },
        {
          "internalType": "uint256",
          "name": "reserves",
          "type": "uint256"
        },
        {
          "internalType": "uint256",
          "name": "reserveFactorMantissa",
          "type": "uint256"
        }
      ],
      "name": "getSupplyRate",
      "outputs": [
        {
          "internalType": "uint256",
          "name": "",
          "type": "uint256"
        }
      ],
      "stateMutability": "view",
      "type": "function",
      "constant": true
    }
  ],
  "bytecode": "0x608060405234801561001057600080fd5b5060405161086838038061086883398181016040528101906100329190610092565b83600081905550826002819055508160038190555080600481905550505050506100f9565b600080fd5b6000819050919050565b61006f8161005c565b811461007a57600080fd5b50565b60008151905061008c81610066565b92915050565b600080600080608085870312156100ac576100ab610057565b5b60006100ba8782880161007d565b94505060206100cb8782880161007d565b93505060406100dc8782880161007d565b92505060606100ed8782880161007d565b91505092959194509250565b610760806101086000396000f3fe608060405234801561001057600080fd5b506004361061004c5760003560e01c806315f24053146100515780632191f92a14610081578063b81688161461009f578063c1f29963146100cf575b600080fd5b61006b60048036038101906100669190610424565b6100ff565b6040516100789190610486565b60405180910390f35b61008961025e565b60405161009691906104bc565b60405180910390f35b6100b960048036038101906100b491906104d7565b610267565b6040516100c69190610486565b60405180910390f35b6100e960048036038101906100e49190610424565b61037b565b6040516100f69190610486565b60405180910390f35b6000803073ffffffffffffffffffffffffffffffffffffffff1663c1f299638686866040518463ffffffff1660e01b815260040161013f9392919061053e565b602060405180830381865afa15801561015c573d6000803e3d6000fd5b505050506040513d601f19601f82011682018060405250810190610180919061058a565b905060006003548211156101ea57600354670de0b6b3a76400006101a491906105e6565b6002546004546101b491906105e6565b600354846101c291906105e6565b6101cc919061061a565b6101d691906106a3565b6002546101e391906106d4565b9050610222565b600354826000546002546101fe91906105e6565b610208919061061a565b61021291906106a3565b60005461021f91906106d4565b90505b6018603c8061016d8461023591906106a3565b61023f91906106a3565b61024991906106a3565b61025391906106a3565b925050509392505050565b60006001905090565b6000803073ffffffffffffffffffffffffffffffffffffffff166315f240538787876040518463ffffffff1660e01b81526004016102a79392919061053e565b602060405180830381865afa1580156102c4573d6000803e3d6000fd5b505050506040513d601f19601f820116820180604052508101906102e8919061058a565b90506000670de0b6b3a76400008683610301919061061a565b61030b91906106a3565b9050600085878961031c91906106d4565b61032691906105e6565b9050600085670de0b6b3a764000061033e91906105e6565b90506000821461036a57818184610355919061061a565b61035f91906106a3565b945050505050610373565b60009450505050505b949350505050565b60008082848661038b91906106d4565b61039591906105e6565b14156103a457600090506103e2565b60008284866103b391906106d4565b6103bd91906105e6565b670de0b6b3a7640000856103d1919061061a565b6103db91906106a3565b9050809150505b9392505050565b600080fd5b6000819050919050565b610401816103ee565b811461040c57600080fd5b50565b60008135905061041e816103f8565b92915050565b60008060006060848603121561043d5761043c6103e9565b5b600061044b8682870161040f565b935050602061045c8682870161040f565b925050604061046d8682870161040f565b9150509250925092565b610480816103ee565b82525050565b600060208201905061049b6000830184610477565b92915050565b60008115159050919050565b6104b6816104a1565b82525050565b60006020820190506104d160008301846104ad565b92915050565b600080600080608085870312156104f1576104f06103e9565b5b60006104ff8782880161040f565b94505060206105108782880161040f565b93505060406105218782880161040f565b92505060606105328782880161040f565b91505092959194509250565b60006060820190506105536000830186610477565b6105606020830185610477565b61056d6040830184610477565b949350505050565b600081519050610584816103f8565b92915050565b6000602082840312156105a05761059f6103e9565b5b60006105ae84828501610575565b91505092915050565b7f4e487b7100000000000000000000000000000000000000000000000000000000600052601160045260246000fd5b60006105f1826103ee565b91506105fc836103ee565b92508282101561060f5761060e6105b7565b5b828203905092915050565b6000610625826103ee565b9150610630836103ee565b9250817fffffffffffffffffffffffffffffffffffffffffffffffffffffffffffffffff0483118215151615610669576106686105b7565b5b828202905092915050565b7f4e487b7100000000000000000000000000000000000000000000000000000000600052601260045260246000fd5b60006106ae826103ee565b91506106b9836103ee565b9250826106c9576106c8610674565b5b828204905092915050565b60006106df826103ee565b91506106ea836103ee565b9250827fffffffffffffffffffffffffffffffffffffffffffffffffffffffffffffffff0382111561071f5761071e6105b7565b5b82820190509291505056fea2646970667358221220d6d4cc62be7ccdc449eb4fbd201c8972f4bf176eb1288695c44ad9a042d5ed4b64736f6c634300080c0033",
  "immutableReferences": {},
  "source": "// SPDX-License-Identifier: MIT\r\npragma solidity ^0.8.0;\r\n\r\nimport './interface/InterestRateModel.sol';\r\n\r\ncontract AurumInterestRateModel is InterestRateModel{\r\n    function isInterestRateModel() external pure returns(bool) {\r\n        return true;\r\n    }\r\n    uint baseRate;\r\n    uint plateauRange;\r\n    uint maxRate;\r\n    uint trigger;\r\n    uint peakMax;\r\n    constructor (uint _baseRate, uint _maxRate, uint _trigger, uint _peakMax){\r\n        baseRate = _baseRate;\r\n        maxRate = _maxRate;\r\n        trigger = _trigger;\r\n        peakMax = _peakMax;\r\n    }\r\n    function utility(uint cash, uint borrows, uint reserves) external pure returns (uint) {\r\n        if (cash + borrows - reserves == 0){\r\n            return 0;\r\n        }\r\n        //total investor deposit = remaining cash - reserves + borrowed amount\r\n        uint util = borrows * 1e18 / (cash + borrows - reserves);\r\n        return util;\r\n    }\r\n\r\n    function getBorrowRate(uint cash, uint borrows, uint reserves) external view returns (uint){\r\n        uint util = this.utility(cash,borrows,reserves);\r\n        uint borrowRatePerYear;\r\n        if (util > trigger) {\r\n            //Rate beyond maxRate\r\n            borrowRatePerYear = maxRate + ((util - trigger) * (peakMax - maxRate) / (1e18 - trigger)); //e18\r\n        } else {\r\n            borrowRatePerYear = baseRate + ((maxRate - baseRate) * util / trigger);  //e18\r\n        }\r\n        return borrowRatePerYear / 365 / 60 / 60 / 24; //borrowRatePerSeconds\r\n    }\r\n    \r\n    function getSupplyRate(uint cash, uint borrows, uint reserves, uint reserveFactorMantissa) external view returns (uint){\r\n        uint borrowRate = this.getBorrowRate(cash, borrows, reserves);\r\n        //supplyRate = profit / total investor deposit * feeMultiplier\r\n        uint totalProfit = borrowRate * borrows / 1e18; // e18\r\n        uint totalInvestorDeposit = cash + borrows - reserves;  //e18\r\n        uint reducedFeeMultiplier = 1e18 - reserveFactorMantissa; //e18\r\n\r\n        if(totalInvestorDeposit != 0) {\r\n            return totalProfit * reducedFeeMultiplier / totalInvestorDeposit;\r\n        }\r\n        else {\r\n            return 0;\r\n        }\r\n    }\r\n}",
  "sourcePath": "C:\\Users\\chana\\desktop\\aurumdefi\\src\\contracts\\AurumInterestRateModel.sol",
  "compiler": {
    "name": "solc",
    "version": "0.8.12+commit.f00d7308.Emscripten.clang"
  },
  "schemaVersion": "3.4.6",
  "updatedAt": "2022-03-21T13:09:54.692Z",
  "networkType": "ethereum",
  "devdoc": {
    "kind": "dev",
    "methods": {},
    "version": 1
  },
  "userdoc": {
    "kind": "user",
    "methods": {},
    "version": 1
  }
}