{
  "contractName": "AurumOracleCentralized",
  "abi": [
    {
      "inputs": [
        {
          "internalType": "address",
          "name": "WREI_",
          "type": "address"
        },
        {
          "internalType": "address",
          "name": "kuma_",
          "type": "address"
        }
      ],
      "stateMutability": "nonpayable",
      "type": "constructor"
    },
    {
      "anonymous": false,
      "inputs": [
        {
          "indexed": false,
          "internalType": "address",
          "name": "token",
          "type": "address"
        },
        {
          "indexed": false,
          "internalType": "uint128",
          "name": "price",
          "type": "uint128"
        },
        {
          "indexed": false,
          "internalType": "uint128",
          "name": "timestamp",
          "type": "uint128"
        }
      ],
      "name": "Initialized_Asset",
      "type": "event"
    },
    {
      "anonymous": false,
      "inputs": [
        {
          "indexed": false,
          "internalType": "uint128",
          "name": "price",
          "type": "uint128"
        },
        {
          "indexed": false,
          "internalType": "uint128",
          "name": "timestamp",
          "type": "uint128"
        }
      ],
      "name": "Initialized_Gold",
      "type": "event"
    },
    {
      "anonymous": false,
      "inputs": [
        {
          "indexed": false,
          "internalType": "address",
          "name": "oldAdmin",
          "type": "address"
        },
        {
          "indexed": false,
          "internalType": "address",
          "name": "newAdmin",
          "type": "address"
        }
      ],
      "name": "SetNewAdmin",
      "type": "event"
    },
    {
      "anonymous": false,
      "inputs": [
        {
          "indexed": false,
          "internalType": "address",
          "name": "oldManager",
          "type": "address"
        },
        {
          "indexed": false,
          "internalType": "address",
          "name": "newManager",
          "type": "address"
        }
      ],
      "name": "SetNewManager",
      "type": "event"
    },
    {
      "anonymous": false,
      "inputs": [
        {
          "indexed": false,
          "internalType": "address",
          "name": "oldSlidingWindow",
          "type": "address"
        },
        {
          "indexed": false,
          "internalType": "address",
          "name": "newSlidingWindow",
          "type": "address"
        }
      ],
      "name": "SetNewSlidingWindow",
      "type": "event"
    },
    {
      "inputs": [],
      "name": "admin",
      "outputs": [
        {
          "internalType": "address",
          "name": "",
          "type": "address"
        }
      ],
      "stateMutability": "view",
      "type": "function"
    },
    {
      "inputs": [],
      "name": "manager",
      "outputs": [
        {
          "internalType": "address",
          "name": "",
          "type": "address"
        }
      ],
      "stateMutability": "view",
      "type": "function"
    },
    {
      "inputs": [],
      "name": "periodRange",
      "outputs": [
        {
          "internalType": "uint256",
          "name": "",
          "type": "uint256"
        }
      ],
      "stateMutability": "view",
      "type": "function"
    },
    {
      "inputs": [],
      "name": "slidingWindow",
      "outputs": [
        {
          "internalType": "contract ISlidingWindow",
          "name": "",
          "type": "address"
        }
      ],
      "stateMutability": "view",
      "type": "function"
    },
    {
      "inputs": [],
      "name": "isPriceOracle",
      "outputs": [
        {
          "internalType": "bool",
          "name": "",
          "type": "bool"
        }
      ],
      "stateMutability": "pure",
      "type": "function"
    },
    {
      "inputs": [
        {
          "internalType": "address",
          "name": "token",
          "type": "address"
        },
        {
          "internalType": "uint128",
          "name": "price",
          "type": "uint128"
        }
      ],
      "name": "initializedAsset",
      "outputs": [],
      "stateMutability": "nonpayable",
      "type": "function"
    },
    {
      "inputs": [
        {
          "internalType": "uint128",
          "name": "price",
          "type": "uint128"
        }
      ],
      "name": "initializedGold",
      "outputs": [],
      "stateMutability": "nonpayable",
      "type": "function"
    },
    {
      "inputs": [
        {
          "internalType": "address",
          "name": "token",
          "type": "address"
        },
        {
          "internalType": "uint128",
          "name": "price",
          "type": "uint128"
        }
      ],
      "name": "updateAssetPrice",
      "outputs": [],
      "stateMutability": "nonpayable",
      "type": "function"
    },
    {
      "inputs": [
        {
          "internalType": "address",
          "name": "token",
          "type": "address"
        }
      ],
      "name": "updateAssetPriceFromWindow",
      "outputs": [],
      "stateMutability": "nonpayable",
      "type": "function"
    },
    {
      "inputs": [
        {
          "internalType": "uint128",
          "name": "price",
          "type": "uint128"
        }
      ],
      "name": "updateGoldPrice",
      "outputs": [],
      "stateMutability": "nonpayable",
      "type": "function"
    },
    {
      "inputs": [],
      "name": "getGoldPrice",
      "outputs": [
        {
          "internalType": "uint256",
          "name": "",
          "type": "uint256"
        }
      ],
      "stateMutability": "view",
      "type": "function"
    },
    {
      "inputs": [
        {
          "internalType": "contract LendTokenInterface",
          "name": "lendToken",
          "type": "address"
        }
      ],
      "name": "getUnderlyingPrice",
      "outputs": [
        {
          "internalType": "uint256",
          "name": "",
          "type": "uint256"
        }
      ],
      "stateMutability": "view",
      "type": "function"
    },
    {
      "inputs": [
        {
          "internalType": "address",
          "name": "token",
          "type": "address"
        }
      ],
      "name": "assetPrices",
      "outputs": [
        {
          "internalType": "uint256",
          "name": "",
          "type": "uint256"
        }
      ],
      "stateMutability": "view",
      "type": "function"
    },
    {
      "inputs": [
        {
          "internalType": "address",
          "name": "newAdmin",
          "type": "address"
        }
      ],
      "name": "_setAdmin",
      "outputs": [],
      "stateMutability": "nonpayable",
      "type": "function"
    },
    {
      "inputs": [
        {
          "internalType": "address",
          "name": "newManager",
          "type": "address"
        }
      ],
      "name": "_setManager",
      "outputs": [],
      "stateMutability": "nonpayable",
      "type": "function"
    },
    {
      "inputs": [
        {
          "internalType": "address",
          "name": "newSlidingWindow",
          "type": "address"
        }
      ],
      "name": "_setSlidingWindow",
      "outputs": [],
      "stateMutability": "nonpayable",
      "type": "function"
    }
  ],
  "bytecode": "0x6080604052610bb8601e553480156200001757600080fd5b5060405162002bbb38038062002bbb83398181016040528101906200003d919062000171565b336000806101000a81548173ffffffffffffffffffffffffffffffffffffffff021916908373ffffffffffffffffffffffffffffffffffffffff16021790555080600260006101000a81548173ffffffffffffffffffffffffffffffffffffffff021916908373ffffffffffffffffffffffffffffffffffffffff16021790555081601f60006101000a81548173ffffffffffffffffffffffffffffffffffffffff021916908373ffffffffffffffffffffffffffffffffffffffff1602179055505050620001b8565b600080fd5b600073ffffffffffffffffffffffffffffffffffffffff82169050919050565b600062000139826200010c565b9050919050565b6200014b816200012c565b81146200015757600080fd5b50565b6000815190506200016b8162000140565b92915050565b600080604083850312156200018b576200018a62000107565b5b60006200019b858286016200015a565b9250506020620001ae858286016200015a565b9150509250929050565b6129f380620001c86000396000f3fe608060405234801561001057600080fd5b50600436106101005760003560e01c8063695bea4911610097578063bcb66fb711610066578063bcb66fb714610271578063da6bae101461028d578063f851a440146102ab578063fc57d4df146102c957610100565b8063695bea49146101ff5780636b7f0bd71461021b57806371232b1b1461023757806381546f3f1461025357610100565b8063481c6a75116100d3578063481c6a75146101775780634b1386c9146101955780635e9a523c146101b157806366331bba146101e157610100565b80630f9e81ee146101055780633524cf6c146101215780633a74a7671461013d57806345037b7014610159575b600080fd5b61011f600480360381019061011a9190611f5d565b6102f9565b005b61013b60048036038101906101369190611fe8565b6104c6565b005b61015760048036038101906101529190612028565b61074d565b005b61016161087e565b60405161016e919061206e565b60405180910390f35b61017f610884565b60405161018c9190612098565b60405180910390f35b6101af60048036038101906101aa9190611f5d565b6108aa565b005b6101cb60048036038101906101c69190612028565b610d55565b6040516101d8919061206e565b60405180910390f35b6101e9610e6a565b6040516101f691906120ce565b60405180910390f35b61021960048036038101906102149190612028565b610e73565b005b61023560048036038101906102309190612028565b610fa6565b005b610251600480360381019061024c9190611fe8565b611423565b005b61025b611a27565b6040516102689190612148565b60405180910390f35b61028b60048036038101906102869190612028565b611a4d565b005b610295611b80565b6040516102a2919061206e565b60405180910390f35b6102b3611c19565b6040516102c09190612098565b60405180910390f35b6102e360048036038101906102de91906121a1565b611c3d565b6040516102f0919061206e565b60405180910390f35b60008054906101000a900473ffffffffffffffffffffffffffffffffffffffff1673ffffffffffffffffffffffffffffffffffffffff163373ffffffffffffffffffffffffffffffffffffffff1614610387576040517f08c379a000000000000000000000000000000000000000000000000000000000815260040161037e9061222b565b60405180910390fd5b600080429050600091505b60188260ff161015610469578260046000018360ff16601881106103b9576103b861224b565b5b600291828204019190066010026101000a8154816fffffffffffffffffffffffffffffffff02191690836fffffffffffffffffffffffffffffffff160217905550806004600c018360ff16601881106104155761041461224b565b5b600291828204019190066010026101000a8154816fffffffffffffffffffffffffffffffff02191690836fffffffffffffffffffffffffffffffff1602179055508180610461906122b6565b925050610392565b6000600460180160006101000a81548160ff021916908360ff1602179055507fc66c6a9be0b5931755018ddae096efb20b7b80e636d01ee9bb535584cd06101d83826040516104b99291906122ef565b60405180910390a1505050565b60008054906101000a900473ffffffffffffffffffffffffffffffffffffffff1673ffffffffffffffffffffffffffffffffffffffff163373ffffffffffffffffffffffffffffffffffffffff1614610554576040517f08c379a000000000000000000000000000000000000000000000000000000000815260040161054b9061222b565b60405180910390fd5b600080429050600091505b60188260ff1610156106b05782600360008673ffffffffffffffffffffffffffffffffffffffff1673ffffffffffffffffffffffffffffffffffffffff1681526020019081526020016000206000018360ff16601881106105c3576105c261224b565b5b600291828204019190066010026101000a8154816fffffffffffffffffffffffffffffffff02191690836fffffffffffffffffffffffffffffffff16021790555080600360008673ffffffffffffffffffffffffffffffffffffffff1673ffffffffffffffffffffffffffffffffffffffff168152602001908152602001600020600c018360ff166018811061065c5761065b61224b565b5b600291828204019190066010026101000a8154816fffffffffffffffffffffffffffffffff02191690836fffffffffffffffffffffffffffffffff16021790555081806106a8906122b6565b92505061055f565b6000600360008673ffffffffffffffffffffffffffffffffffffffff1673ffffffffffffffffffffffffffffffffffffffff16815260200190815260200160002060180160006101000a81548160ff021916908360ff1602179055507fb269f714c40d09fccdca4d2f0b9dfa2a604c8b821f713813fc79824c458b0d9084848360405161073f93929190612318565b60405180910390a150505050565b60008054906101000a900473ffffffffffffffffffffffffffffffffffffffff1673ffffffffffffffffffffffffffffffffffffffff163373ffffffffffffffffffffffffffffffffffffffff16146107db576040517f08c379a00000000000000000000000000000000000000000000000000000000081526004016107d29061222b565b60405180910390fd5b60008060009054906101000a900473ffffffffffffffffffffffffffffffffffffffff169050816000806101000a81548173ffffffffffffffffffffffffffffffffffffffff021916908373ffffffffffffffffffffffffffffffffffffffff1602179055507f677255dd8d307c528670cb7cefed4f404c1e92c8729eafcbe702e85ed49292bd818360405161087292919061234f565b60405180910390a15050565b601e5481565b600160009054906101000a900473ffffffffffffffffffffffffffffffffffffffff1681565b600160009054906101000a900473ffffffffffffffffffffffffffffffffffffffff1673ffffffffffffffffffffffffffffffffffffffff163373ffffffffffffffffffffffffffffffffffffffff161461093a576040517f08c379a0000000000000000000000000000000000000000000000000000000008152600401610931906123c4565b60405180910390fd5b6000600460180160009054906101000a900460ff16905060008060008360ff1614156109695760179150610979565b60018361097691906123e4565b91505b600060046000018360ff16601881106109955761099461224b565b5b600291828204019190066010029054906101000a90046fffffffffffffffffffffffffffffffff166fffffffffffffffffffffffffffffffff16905060178460ff1614156109e657600091506109f6565b6001846109f39190612418565b91505b60006004600c018460ff1660188110610a1257610a1161224b565b5b600291828204019190066010029054906101000a90046fffffffffffffffffffffffffffffffff166fffffffffffffffffffffffffffffffff1642610a57919061244f565b9050601e54811015610a9e576040517f08c379a0000000000000000000000000000000000000000000000000000000008152600401610a95906124cf565b60405180910390fd5b60006004600c018460ff1660188110610aba57610ab961224b565b5b600291828204019190066010029054906101000a90046fffffffffffffffffffffffffffffffff166004600c018660ff1660188110610afc57610afb61224b565b5b600291828204019190066010029054906101000a90046fffffffffffffffffffffffffffffffff16610b2e91906124ef565b6fffffffffffffffffffffffffffffffff16905060008183610b509190612523565b886fffffffffffffffffffffffffffffffff1684610b6e9190612579565b8584610b7a9190612579565b610b849190612523565b610b8e9190612602565b90506fffffffffffffffffffffffffffffffff8016811115610be5576040517f08c379a0000000000000000000000000000000000000000000000000000000008152600401610bdc9061267f565b60405180910390fd5b80841115610c335760008185610bfb919061244f565b9050600a85610c0a9190612602565b811115610c2d57600a600986610c209190612579565b610c2a9190612602565b91505b50610c75565b60008482610c41919061244f565b9050600a85610c509190612602565b811115610c7357600a600b86610c669190612579565b610c709190612602565b91505b505b8060046000018860ff1660188110610c9057610c8f61224b565b5b600291828204019190066010026101000a8154816fffffffffffffffffffffffffffffffff02191690836fffffffffffffffffffffffffffffffff160217905550426004600c018860ff1660188110610cec57610ceb61224b565b5b600291828204019190066010026101000a8154816fffffffffffffffffffffffffffffffff02191690836fffffffffffffffffffffffffffffffff16021790555084600460180160006101000a81548160ff021916908360ff1602179055505050505050505050565b600080600360008473ffffffffffffffffffffffffffffffffffffffff1673ffffffffffffffffffffffffffffffffffffffff16815260200190815260200160002060180160009054906101000a900460ff1690506000808260ff161415610dc05760179050610dd0565b600182610dcd91906123e4565b90505b600360008573ffffffffffffffffffffffffffffffffffffffff1673ffffffffffffffffffffffffffffffffffffffff1681526020019081526020016000206000018160ff1660188110610e2757610e2661224b565b5b600291828204019190066010029054906101000a90046fffffffffffffffffffffffffffffffff166fffffffffffffffffffffffffffffffff1692505050919050565b60006001905090565b60008054906101000a900473ffffffffffffffffffffffffffffffffffffffff1673ffffffffffffffffffffffffffffffffffffffff163373ffffffffffffffffffffffffffffffffffffffff1614610f01576040517f08c379a0000000000000000000000000000000000000000000000000000000008152600401610ef89061222b565b60405180910390fd5b6000600160009054906101000a900473ffffffffffffffffffffffffffffffffffffffff16905081600160006101000a81548173ffffffffffffffffffffffffffffffffffffffff021916908373ffffffffffffffffffffffffffffffffffffffff1602179055507f061c62d73b47f63d86ecde0c69b9ffa4e7eacdcb8b376c5283e78f85b6d4f5758183604051610f9a92919061234f565b60405180910390a15050565b600160009054906101000a900473ffffffffffffffffffffffffffffffffffffffff1673ffffffffffffffffffffffffffffffffffffffff163373ffffffffffffffffffffffffffffffffffffffff1614611036576040517f08c379a000000000000000000000000000000000000000000000000000000000815260040161102d906123c4565b60405180910390fd5b6000600360008373ffffffffffffffffffffffffffffffffffffffff1673ffffffffffffffffffffffffffffffffffffffff16815260200190815260200160002060180160009054906101000a900460ff1690506000806000601d60009054906101000a900473ffffffffffffffffffffffffffffffffffffffff16905060008460ff1614156110c957601792506110d9565b6001846110d691906123e4565b92505b60178460ff1614156110ee57600091506110fe565b6001846110fb9190612418565b91505b8073ffffffffffffffffffffffffffffffffffffffff1663c640752d86600260009054906101000a900473ffffffffffffffffffffffffffffffffffffffff166040518363ffffffff1660e01b815260040161115b92919061234f565b600060405180830381600087803b15801561117557600080fd5b505af1158015611189573d6000803e3d6000fd5b5050505060008173ffffffffffffffffffffffffffffffffffffffff16638c86f1e487670de0b6b3a7640000600260009054906101000a900473ffffffffffffffffffffffffffffffffffffffff166040518463ffffffff1660e01b81526004016111f6939291906126da565b602060405180830381865afa158015611213573d6000803e3d6000fd5b505050506040513d601f19601f82011682018060405250810190611237919061273d565b90506fffffffffffffffffffffffffffffffff801681111561128e576040517f08c379a00000000000000000000000000000000000000000000000000000000081526004016112859061267f565b60405180910390fd5b80600360008873ffffffffffffffffffffffffffffffffffffffff1673ffffffffffffffffffffffffffffffffffffffff1681526020019081526020016000206000018660ff16601881106112e6576112e561224b565b5b600291828204019190066010026101000a8154816fffffffffffffffffffffffffffffffff02191690836fffffffffffffffffffffffffffffffff16021790555042600360008873ffffffffffffffffffffffffffffffffffffffff1673ffffffffffffffffffffffffffffffffffffffff168152602001908152602001600020600c018660ff166018811061137f5761137e61224b565b5b600291828204019190066010026101000a8154816fffffffffffffffffffffffffffffffff02191690836fffffffffffffffffffffffffffffffff16021790555082600360008873ffffffffffffffffffffffffffffffffffffffff1673ffffffffffffffffffffffffffffffffffffffff16815260200190815260200160002060180160006101000a81548160ff021916908360ff160217905550505050505050565b600160009054906101000a900473ffffffffffffffffffffffffffffffffffffffff1673ffffffffffffffffffffffffffffffffffffffff163373ffffffffffffffffffffffffffffffffffffffff16146114b3576040517f08c379a00000000000000000000000000000000000000000000000000000000081526004016114aa906123c4565b60405180910390fd5b6000600360008473ffffffffffffffffffffffffffffffffffffffff1673ffffffffffffffffffffffffffffffffffffffff16815260200190815260200160002060180160009054906101000a900460ff16905060008060008360ff16141561151f576017915061152f565b60018361152c91906123e4565b91505b6000600360008773ffffffffffffffffffffffffffffffffffffffff1673ffffffffffffffffffffffffffffffffffffffff1681526020019081526020016000206000018360ff16601881106115885761158761224b565b5b600291828204019190066010029054906101000a90046fffffffffffffffffffffffffffffffff166fffffffffffffffffffffffffffffffff16905060178460ff1614156115d957600091506115e9565b6001846115e69190612418565b91505b6000600360008873ffffffffffffffffffffffffffffffffffffffff1673ffffffffffffffffffffffffffffffffffffffff168152602001908152602001600020600c018460ff16601881106116425761164161224b565b5b600291828204019190066010029054906101000a90046fffffffffffffffffffffffffffffffff166fffffffffffffffffffffffffffffffff1642611687919061244f565b9050601e548110156116ce576040517f08c379a00000000000000000000000000000000000000000000000000000000081526004016116c5906124cf565b60405180910390fd5b6000600360008973ffffffffffffffffffffffffffffffffffffffff1673ffffffffffffffffffffffffffffffffffffffff168152602001908152602001600020600c018460ff16601881106117275761172661224b565b5b600291828204019190066010029054906101000a90046fffffffffffffffffffffffffffffffff16600360008a73ffffffffffffffffffffffffffffffffffffffff1673ffffffffffffffffffffffffffffffffffffffff168152602001908152602001600020600c018660ff16601881106117a6576117a561224b565b5b600291828204019190066010029054906101000a90046fffffffffffffffffffffffffffffffff166117d891906124ef565b6fffffffffffffffffffffffffffffffff169050600081836117fa9190612523565b886fffffffffffffffffffffffffffffffff16846118189190612579565b85846118249190612579565b61182e9190612523565b6118389190612602565b90506fffffffffffffffffffffffffffffffff801681111561188f576040517f08c379a00000000000000000000000000000000000000000000000000000000081526004016118869061267f565b60405180910390fd5b80600360008b73ffffffffffffffffffffffffffffffffffffffff1673ffffffffffffffffffffffffffffffffffffffff1681526020019081526020016000206000018860ff16601881106118e7576118e661224b565b5b600291828204019190066010026101000a8154816fffffffffffffffffffffffffffffffff02191690836fffffffffffffffffffffffffffffffff16021790555042600360008b73ffffffffffffffffffffffffffffffffffffffff1673ffffffffffffffffffffffffffffffffffffffff168152602001908152602001600020600c018860ff16601881106119805761197f61224b565b5b600291828204019190066010026101000a8154816fffffffffffffffffffffffffffffffff02191690836fffffffffffffffffffffffffffffffff16021790555084600360008b73ffffffffffffffffffffffffffffffffffffffff1673ffffffffffffffffffffffffffffffffffffffff16815260200190815260200160002060180160006101000a81548160ff021916908360ff160217905550505050505050505050565b601d60009054906101000a900473ffffffffffffffffffffffffffffffffffffffff1681565b60008054906101000a900473ffffffffffffffffffffffffffffffffffffffff1673ffffffffffffffffffffffffffffffffffffffff163373ffffffffffffffffffffffffffffffffffffffff1614611adb576040517f08c379a0000000000000000000000000000000000000000000000000000000008152600401611ad29061222b565b60405180910390fd5b6000601d60009054906101000a900473ffffffffffffffffffffffffffffffffffffffff16905081601d60006101000a81548173ffffffffffffffffffffffffffffffffffffffff021916908373ffffffffffffffffffffffffffffffffffffffff1602179055507f1ccbe9c2ced5a5da9675bff51bd159c972993fe023bf5e9b7473dfec96af57b08183604051611b7492919061234f565b60405180910390a15050565b600080600460180160009054906101000a900460ff1690506000808260ff161415611bae5760179050611bbe565b600182611bbb91906123e4565b90505b60046000018160ff1660188110611bd857611bd761224b565b5b600291828204019190066010029054906101000a90046fffffffffffffffffffffffffffffffff166fffffffffffffffffffffffffffffffff169250505090565b60008054906101000a900473ffffffffffffffffffffffffffffffffffffffff1681565b600080611cf28373ffffffffffffffffffffffffffffffffffffffff166395d89b416040518163ffffffff1660e01b8152600401600060405180830381865afa158015611c8e573d6000803e3d6000fd5b505050506040513d6000823e3d601f19601f82011682018060405250810190611cb791906128d4565b6040518060400160405280600781526020017f6c656e6452454900000000000000000000000000000000000000000000000000815250611ea8565b15611d2157601f60009054906101000a900473ffffffffffffffffffffffffffffffffffffffff169050611d93565b8273ffffffffffffffffffffffffffffffffffffffff16636f307dc36040518163ffffffff1660e01b8152600401602060405180830381865afa158015611d6c573d6000803e3d6000fd5b505050506040513d601f19601f82011682018060405250810190611d909190612932565b90505b6000600360008373ffffffffffffffffffffffffffffffffffffffff1673ffffffffffffffffffffffffffffffffffffffff16815260200190815260200160002060180160009054906101000a900460ff1690506000808260ff161415611dfd5760179050611e0d565b600182611e0a91906123e4565b90505b600360008473ffffffffffffffffffffffffffffffffffffffff1673ffffffffffffffffffffffffffffffffffffffff1681526020019081526020016000206000018160ff1660188110611e6457611e6361224b565b5b600291828204019190066010029054906101000a90046fffffffffffffffffffffffffffffffff166fffffffffffffffffffffffffffffffff169350505050919050565b600081604051602001611ebb91906129a6565b6040516020818303038152906040528051906020012083604051602001611ee291906129a6565b6040516020818303038152906040528051906020012014905092915050565b6000604051905090565b600080fd5b600080fd5b60006fffffffffffffffffffffffffffffffff82169050919050565b611f3a81611f15565b8114611f4557600080fd5b50565b600081359050611f5781611f31565b92915050565b600060208284031215611f7357611f72611f0b565b5b6000611f8184828501611f48565b91505092915050565b600073ffffffffffffffffffffffffffffffffffffffff82169050919050565b6000611fb582611f8a565b9050919050565b611fc581611faa565b8114611fd057600080fd5b50565b600081359050611fe281611fbc565b92915050565b60008060408385031215611fff57611ffe611f0b565b5b600061200d85828601611fd3565b925050602061201e85828601611f48565b9150509250929050565b60006020828403121561203e5761203d611f0b565b5b600061204c84828501611fd3565b91505092915050565b6000819050919050565b61206881612055565b82525050565b6000602082019050612083600083018461205f565b92915050565b61209281611faa565b82525050565b60006020820190506120ad6000830184612089565b92915050565b60008115159050919050565b6120c8816120b3565b82525050565b60006020820190506120e360008301846120bf565b92915050565b6000819050919050565b600061210e61210961210484611f8a565b6120e9565b611f8a565b9050919050565b6000612120826120f3565b9050919050565b600061213282612115565b9050919050565b61214281612127565b82525050565b600060208201905061215d6000830184612139565b92915050565b600061216e82611faa565b9050919050565b61217e81612163565b811461218957600080fd5b50565b60008135905061219b81612175565b92915050565b6000602082840312156121b7576121b6611f0b565b5b60006121c58482850161218c565b91505092915050565b600082825260208201905092915050565b7f4f6e6c792061646d696e00000000000000000000000000000000000000000000600082015250565b6000612215600a836121ce565b9150612220826121df565b602082019050919050565b6000602082019050818103600083015261224481612208565b9050919050565b7f4e487b7100000000000000000000000000000000000000000000000000000000600052603260045260246000fd5b7f4e487b7100000000000000000000000000000000000000000000000000000000600052601160045260246000fd5b600060ff82169050919050565b60006122c1826122a9565b915060ff8214156122d5576122d461227a565b5b600182019050919050565b6122e981611f15565b82525050565b600060408201905061230460008301856122e0565b61231160208301846122e0565b9392505050565b600060608201905061232d6000830186612089565b61233a60208301856122e0565b61234760408301846122e0565b949350505050565b60006040820190506123646000830185612089565b6123716020830184612089565b9392505050565b7f4f6e6c79206d616e616765720000000000000000000000000000000000000000600082015250565b60006123ae600c836121ce565b91506123b982612378565b602082019050919050565b600060208201905081810360008301526123dd816123a1565b9050919050565b60006123ef826122a9565b91506123fa836122a9565b92508282101561240d5761240c61227a565b5b828203905092915050565b6000612423826122a9565b915061242e836122a9565b92508260ff038211156124445761244361227a565b5b828201905092915050565b600061245a82612055565b915061246583612055565b9250828210156124785761247761227a565b5b828203905092915050565b7f75706461746520746f6f206561726c7900000000000000000000000000000000600082015250565b60006124b96010836121ce565b91506124c482612483565b602082019050919050565b600060208201905081810360008301526124e8816124ac565b9050919050565b60006124fa82611f15565b915061250583611f15565b9250828210156125185761251761227a565b5b828203905092915050565b600061252e82612055565b915061253983612055565b9250827fffffffffffffffffffffffffffffffffffffffffffffffffffffffffffffffff0382111561256e5761256d61227a565b5b828201905092915050565b600061258482612055565b915061258f83612055565b9250817fffffffffffffffffffffffffffffffffffffffffffffffffffffffffffffffff04831182151516156125c8576125c761227a565b5b828202905092915050565b7f4e487b7100000000000000000000000000000000000000000000000000000000600052601260045260246000fd5b600061260d82612055565b915061261883612055565b925082612628576126276125d3565b5b828204905092915050565b7f4f766572666c6f77000000000000000000000000000000000000000000000000600082015250565b60006126696008836121ce565b915061267482612633565b602082019050919050565b600060208201905081810360008301526126988161265c565b9050919050565b6000819050919050565b60006126c46126bf6126ba8461269f565b6120e9565b612055565b9050919050565b6126d4816126a9565b82525050565b60006060820190506126ef6000830186612089565b6126fc60208301856126cb565b6127096040830184612089565b949350505050565b61271a81612055565b811461272557600080fd5b50565b60008151905061273781612711565b92915050565b60006020828403121561275357612752611f0b565b5b600061276184828501612728565b91505092915050565b600080fd5b600080fd5b6000601f19601f8301169050919050565b7f4e487b7100000000000000000000000000000000000000000000000000000000600052604160045260246000fd5b6127bd82612774565b810181811067ffffffffffffffff821117156127dc576127db612785565b5b80604052505050565b60006127ef611f01565b90506127fb82826127b4565b919050565b600067ffffffffffffffff82111561281b5761281a612785565b5b61282482612774565b9050602081019050919050565b60005b8381101561284f578082015181840152602081019050612834565b8381111561285e576000848401525b50505050565b600061287761287284612800565b6127e5565b9050828152602081018484840111156128935761289261276f565b5b61289e848285612831565b509392505050565b600082601f8301126128bb576128ba61276a565b5b81516128cb848260208601612864565b91505092915050565b6000602082840312156128ea576128e9611f0b565b5b600082015167ffffffffffffffff81111561290857612907611f10565b5b612914848285016128a6565b91505092915050565b60008151905061292c81611fbc565b92915050565b60006020828403121561294857612947611f0b565b5b60006129568482850161291d565b91505092915050565b600081519050919050565b600081905092915050565b60006129808261295f565b61298a818561296a565b935061299a818560208601612831565b80840191505092915050565b60006129b28284612975565b91508190509291505056fea2646970667358221220242d9feae0b220eea643cc24fca879852a4970a71ce15f851f2d6d7ceac73cb564736f6c634300080c0033",
  "immutableReferences": {},
  "source": "// SPDX-License-Identifier: MIT\r\npragma solidity ^0.8.0;\r\n\r\nimport './interface/ComptrollerInterface.sol';\r\nimport \"./interface/ISlidingWindow.sol\";\r\n\r\ncontract AurumOracleCentralized is PriceOracle {\r\n    //Using TWAP model, using index for looping and re-write the price storage\r\n\r\n    address public admin; // Admin can initiate price and set manager (reducing risk of privatekey leak)   Admin private key store in Hardware wallet.\r\n    address public manager; // Manager can update the price (bot address), tihs address has some risk of private key leak.\r\n    \r\n    address kuma; //Reference stable coin price.\r\n\r\n    struct PriceList {\r\n        uint128[24] avgPrice;\r\n        uint128[24] timestamp;\r\n        uint8 currentIndex;\r\n    }\r\n    \r\n    mapping (address => PriceList) asset;\r\n    PriceList goldPrice; // gold price TWAP\r\n\r\n    ISlidingWindow public slidingWindow;\r\n\r\n    // Period range will trigger the alarm when someone got the admin private key and try to manipulate prices\r\n    // \r\n    uint public periodRange = 60*50; // 50 minutes\r\n\r\n    function isPriceOracle() external pure returns (bool) {return true;}\r\n\r\n\r\n    address WREI; // Wrapped REI address\r\n\r\n\r\n    constructor (address WREI_, address kuma_) {\r\n        admin = msg.sender;\r\n        kuma = kuma_;\r\n        WREI = WREI_;  // WREI will prevent crash when query the 'lendREI' token\r\n    }\r\n\r\n    modifier onlyAdmin {\r\n        require(msg.sender == admin, \"Only admin\");\r\n        _;\r\n    }\r\n    modifier onlyManager {\r\n        require(msg.sender == manager, \"Only manager\");\r\n        _;\r\n    }\r\n\r\n    event Initialized_Asset(address token, uint128 price, uint128 timestamp);\r\n    event Initialized_Gold(uint128 price, uint128 timestamp);\r\n    event SetNewAdmin(address oldAdmin, address newAdmin);\r\n    event SetNewManager(address oldManager, address newManager);\r\n    event SetNewSlidingWindow(address oldSlidingWindow, address newSlidingWindow);\r\n\r\n    // Initialized Asset before updateAssetPrice, make sure that lastPrice not equal to 0, and Timestamp not equal to 0.\r\n    function initializedAsset(address token, uint128 price) external onlyAdmin{\r\n        uint8 i;\r\n        uint128 currentTime = uint128(block.timestamp);\r\n        for(i=0;i<24;i++){\r\n            asset[token].avgPrice[i] = price;\r\n            asset[token].timestamp[i] = currentTime;\r\n        }\r\n        asset[token].currentIndex = 0;\r\n        emit Initialized_Asset(token, price, currentTime);\r\n    }\r\n    function initializedGold(uint128 price) external onlyAdmin{\r\n        uint8 i;\r\n        uint128 currentTime = uint128(block.timestamp);\r\n        for(i=0;i<24;i++){\r\n            goldPrice.avgPrice[i] = price;\r\n            goldPrice.timestamp[i] = currentTime;\r\n        }\r\n        goldPrice.currentIndex = 0;\r\n        emit Initialized_Gold(price, currentTime);\r\n    }\r\n\r\n\r\n    // Update price with the TWAP model.\r\n    function updateAssetPrice(address token, uint128 price) external onlyManager{\r\n        uint8 index = asset[token].currentIndex;\r\n        uint8 lastIndex;\r\n        uint8 nextIndex;\r\n        if(index == 0){\r\n            lastIndex = 23;\r\n        } else {\r\n            lastIndex = index-1;\r\n        }\r\n        uint lastPrice = asset[token].avgPrice[lastIndex];\r\n\r\n        if(index == 23){\r\n            nextIndex = 0;\r\n        } else {\r\n            nextIndex = index+1;\r\n        }\r\n        //newDeltaTime is the time n - time K  // it must more than period time\r\n        //oldDeltaTime is the time K - time 0\r\n        uint newDeltaTime = block.timestamp - asset[token].timestamp[lastIndex];\r\n        require(newDeltaTime >= periodRange, \"update too early\");   //If update oracle bot catch this means the privatekey got hacked OR the bot error.\r\n        uint oldDeltaTime = asset[token].timestamp[lastIndex]-asset[token].timestamp[nextIndex]; // This need to be initialized\r\n\r\n        //new AvgPrice is ( price*tk  +  price*tn  ) / tk+tn\r\n        uint newAvgPrice = ((oldDeltaTime*lastPrice) + (newDeltaTime*price)) / (newDeltaTime+oldDeltaTime);\r\n\r\n        if(newAvgPrice > type(uint128).max){\r\n            revert(\"Overflow\");\r\n        }\r\n        asset[token].avgPrice[index] = uint128(newAvgPrice);\r\n        asset[token].timestamp[index] = uint128(block.timestamp);\r\n\r\n        //Set new index to the next;\r\n        asset[token].currentIndex = nextIndex;\r\n    }\r\n\r\n    // This using sliding window oracle of Uniswap V2 data to update this oracle.\r\n    function updateAssetPriceFromWindow(address token) external onlyManager{\r\n        uint8 index = asset[token].currentIndex;\r\n        uint8 lastIndex;\r\n        uint8 nextIndex;\r\n        ISlidingWindow uniswapOracle = ISlidingWindow(slidingWindow);\r\n        if(index == 0){\r\n            lastIndex = 23;\r\n        } else {\r\n            lastIndex = index-1;\r\n        }\r\n\r\n        if(index == 23){\r\n            nextIndex = 0;\r\n        } else {\r\n            nextIndex = index+1;\r\n        }\r\n        // So.. We helping sliding Window update each time we read parameter.\r\n        uniswapOracle.update(token,kuma);\r\n\r\n        // The price we got already time-weight average price.\r\n        uint newAvgPrice = uniswapOracle.consult(token,1e18,kuma);\r\n\r\n        if(newAvgPrice > type(uint128).max){\r\n            revert(\"Overflow\");\r\n        }\r\n        asset[token].avgPrice[index] = uint128(newAvgPrice);\r\n        asset[token].timestamp[index] = uint128(block.timestamp);\r\n\r\n        //Set new index to the next;\r\n        asset[token].currentIndex = nextIndex;\r\n    }\r\n\r\n\r\n\r\n    function updateGoldPrice(uint128 price) external onlyManager {\r\n        uint8 index = goldPrice.currentIndex;\r\n        uint8 lastIndex;\r\n        uint8 nextIndex;\r\n        if(index == 0){\r\n            lastIndex = 23;\r\n        } else {\r\n            lastIndex = index-1;\r\n        }\r\n        uint lastPrice = goldPrice.avgPrice[lastIndex];\r\n\r\n        if(index == 23){\r\n            nextIndex = 0;\r\n        } else {\r\n            nextIndex = index+1;\r\n        }\r\n        //newDeltaTime is the time n - time K\r\n        //oldDeltaTime is the time K - time 0\r\n        uint newDeltaTime = block.timestamp - goldPrice.timestamp[lastIndex];\r\n        require(newDeltaTime >= periodRange, \"update too early\");   //If update oracle bot catch this means the privatekey got hacked OR the bot error.\r\n        uint oldDeltaTime = goldPrice.timestamp[lastIndex]-goldPrice.timestamp[nextIndex]; // This need to be initialized\r\n\r\n        //new AvgPrice is ( price*tk  +  price*tn  ) / tk+tn\r\n        uint newAvgPrice = ((oldDeltaTime*lastPrice) + (newDeltaTime*price)) / (newDeltaTime+oldDeltaTime);\r\n\r\n        if(newAvgPrice > type(uint128).max){\r\n            revert(\"Overflow\");\r\n        }\r\n\r\n        //Prevent overvalue / undervalue algorithm, Max change = 10%\r\n        if(lastPrice > newAvgPrice) {\r\n            //new price is less than previous price\r\n            uint dif = lastPrice - newAvgPrice;\r\n            if(dif > lastPrice/10){\r\n                newAvgPrice = lastPrice * 9 / 10;\r\n            }\r\n        } else {\r\n            //new price is greater than previous price\r\n            uint dif = newAvgPrice - lastPrice;\r\n            if(dif > lastPrice/10){\r\n                newAvgPrice = lastPrice * 11 / 10;\r\n            }\r\n        }\r\n\r\n        goldPrice.avgPrice[index] = uint128(newAvgPrice);\r\n        goldPrice.timestamp[index] = uint128(block.timestamp);\r\n\r\n        //Set new index to the next;\r\n        goldPrice.currentIndex = nextIndex;\r\n    }\r\n\r\n    function getGoldPrice() external view returns (uint){\r\n        uint8 index = goldPrice.currentIndex;\r\n        uint8 lastIndex;\r\n        if(index == 0){\r\n            lastIndex = 23;\r\n        } else {\r\n            lastIndex = index-1;\r\n        }\r\n        return uint(goldPrice.avgPrice[lastIndex]);\r\n    }\r\n    function getUnderlyingPrice(LendTokenInterface lendToken) external view returns (uint){\r\n        address underlying;\r\n        if(compareStrings(lendToken.symbol(), \"lendREI\")){\r\n            underlying = WREI;\r\n        } else {\r\n            underlying = lendToken.underlying();\r\n        }\r\n\r\n        //same as  assetPrices function\r\n        uint8 index = asset[underlying].currentIndex;\r\n        uint8 lastIndex;\r\n        if(index == 0){\r\n            lastIndex = 23;\r\n        } else {\r\n            lastIndex = index-1;\r\n        }\r\n        return uint(asset[underlying].avgPrice[lastIndex]);\r\n    }\r\n    //The latest price is where the lastIndex is.\r\n    function assetPrices(address token) external view returns (uint){\r\n        uint8 index = asset[token].currentIndex;\r\n        uint8 lastIndex;\r\n        if(index == 0){\r\n            lastIndex = 23;\r\n        } else {\r\n            lastIndex = index-1;\r\n        }\r\n\r\n        \r\n        return uint(asset[token].avgPrice[lastIndex]);\r\n    }\r\n    \r\n    function compareStrings(string memory a, string memory b) internal pure returns (bool) {\r\n        return (keccak256(abi.encodePacked((a))) == keccak256(abi.encodePacked((b))));\r\n    }\r\n\r\n    function _setAdmin (address newAdmin) external onlyAdmin {\r\n        address oldAdmin = admin;\r\n        admin = newAdmin;\r\n\r\n        emit SetNewAdmin (oldAdmin, newAdmin);\r\n    }\r\n\r\n    function _setManager (address newManager) external onlyAdmin {\r\n        address oldManager = manager;\r\n        manager = newManager;\r\n\r\n        emit SetNewManager(oldManager, newManager);\r\n    }\r\n\r\n    function _setSlidingWindow (address newSlidingWindow) external onlyAdmin {\r\n        address oldSlidingWindow = address(slidingWindow);\r\n        slidingWindow = ISlidingWindow(newSlidingWindow);\r\n\r\n        emit SetNewSlidingWindow(oldSlidingWindow, newSlidingWindow);\r\n    }\r\n}",
  "sourcePath": "C:\\Users\\chana\\desktop\\aurumdefi\\src\\contracts\\AurumOracleCentralized.sol",
  "compiler": {
    "name": "solc",
    "version": "0.8.12+commit.f00d7308.Emscripten.clang"
  },
  "schemaVersion": "3.4.6",
  "updatedAt": "2022-04-04T14:04:50.390Z",
  "devdoc": {
    "kind": "dev",
    "methods": {},
    "version": 1
  },
  "userdoc": {
    "kind": "user",
    "methods": {},
    "version": 1
  }
}