{
  "contractName": "AurumPriceOracle",
  "abi": [
    {
      "inputs": [],
      "stateMutability": "nonpayable",
      "type": "constructor"
    },
    {
      "anonymous": false,
      "inputs": [
        {
          "indexed": false,
          "internalType": "uint256",
          "name": "previousGoldPriceMantissa",
          "type": "uint256"
        },
        {
          "indexed": false,
          "internalType": "uint256",
          "name": "requestedGoldPriceMantissa",
          "type": "uint256"
        },
        {
          "indexed": false,
          "internalType": "uint256",
          "name": "newGoldPriceMantissa",
          "type": "uint256"
        }
      ],
      "name": "GoldPricePosted",
      "type": "event"
    },
    {
      "anonymous": false,
      "inputs": [
        {
          "indexed": false,
          "internalType": "address",
          "name": "oldAdmin",
          "type": "address"
        },
        {
          "indexed": false,
          "internalType": "address",
          "name": "newAdmin",
          "type": "address"
        }
      ],
      "name": "NewAdmin",
      "type": "event"
    },
    {
      "anonymous": false,
      "inputs": [
        {
          "indexed": false,
          "internalType": "address",
          "name": "asset",
          "type": "address"
        },
        {
          "indexed": false,
          "internalType": "uint256",
          "name": "previousPriceMantissa",
          "type": "uint256"
        },
        {
          "indexed": false,
          "internalType": "uint256",
          "name": "requestedPriceMantissa",
          "type": "uint256"
        },
        {
          "indexed": false,
          "internalType": "uint256",
          "name": "newPriceMantissa",
          "type": "uint256"
        }
      ],
      "name": "PricePosted",
      "type": "event"
    },
    {
      "inputs": [],
      "name": "admin",
      "outputs": [
        {
          "internalType": "address",
          "name": "",
          "type": "address"
        }
      ],
      "stateMutability": "view",
      "type": "function",
      "constant": true
    },
    {
      "inputs": [],
      "name": "goldPrice",
      "outputs": [
        {
          "internalType": "uint256",
          "name": "",
          "type": "uint256"
        }
      ],
      "stateMutability": "view",
      "type": "function",
      "constant": true
    },
    {
      "inputs": [],
      "name": "isPriceOracle",
      "outputs": [
        {
          "internalType": "bool",
          "name": "",
          "type": "bool"
        }
      ],
      "stateMutability": "pure",
      "type": "function",
      "constant": true
    },
    {
      "inputs": [
        {
          "internalType": "contract LendTokenInterface",
          "name": "lendToken",
          "type": "address"
        }
      ],
      "name": "getUnderlyingPrice",
      "outputs": [
        {
          "internalType": "uint256",
          "name": "",
          "type": "uint256"
        }
      ],
      "stateMutability": "view",
      "type": "function",
      "constant": true
    },
    {
      "inputs": [
        {
          "internalType": "contract LendTokenInterface",
          "name": "lendToken",
          "type": "address"
        },
        {
          "internalType": "uint256",
          "name": "underlyingPriceMantissa",
          "type": "uint256"
        }
      ],
      "name": "setUnderlyingPrice",
      "outputs": [],
      "stateMutability": "nonpayable",
      "type": "function"
    },
    {
      "inputs": [
        {
          "internalType": "address",
          "name": "asset",
          "type": "address"
        },
        {
          "internalType": "uint256",
          "name": "price",
          "type": "uint256"
        }
      ],
      "name": "setDirectPrice",
      "outputs": [],
      "stateMutability": "nonpayable",
      "type": "function"
    },
    {
      "inputs": [],
      "name": "getGoldPrice",
      "outputs": [
        {
          "internalType": "uint256",
          "name": "",
          "type": "uint256"
        }
      ],
      "stateMutability": "view",
      "type": "function",
      "constant": true
    },
    {
      "inputs": [
        {
          "internalType": "uint256",
          "name": "underlyingPriceMantissa",
          "type": "uint256"
        }
      ],
      "name": "setGoldPrice",
      "outputs": [],
      "stateMutability": "nonpayable",
      "type": "function"
    },
    {
      "inputs": [
        {
          "internalType": "address",
          "name": "asset",
          "type": "address"
        }
      ],
      "name": "assetPrices",
      "outputs": [
        {
          "internalType": "uint256",
          "name": "",
          "type": "uint256"
        }
      ],
      "stateMutability": "view",
      "type": "function",
      "constant": true
    },
    {
      "inputs": [
        {
          "internalType": "address",
          "name": "newAdmin",
          "type": "address"
        }
      ],
      "name": "setAdmin",
      "outputs": [],
      "stateMutability": "nonpayable",
      "type": "function"
    }
  ],
  "bytecode": "0x608060405234801561001057600080fd5b50600073da7a001b254cd22e46d3eab04d937489c93174c3905080600360006101000a81548173ffffffffffffffffffffffffffffffffffffffff021916908373ffffffffffffffffffffffffffffffffffffffff160217905550336000806101000a81548173ffffffffffffffffffffffffffffffffffffffff021916908373ffffffffffffffffffffffffffffffffffffffff16021790555050611848806100bb6000396000f3fe608060405234801561001057600080fd5b506004361061009e5760003560e01c806366331bba1161006657806366331bba14610145578063704b6c0214610163578063da6bae101461017f578063f851a4401461019d578063fc57d4df146101bb5761009e565b806309a8acb0146100a3578063127ffda0146100bf5780632d02a5b2146100db57806344501404146100f75780635e9a523c14610115575b600080fd5b6100bd60048036038101906100b89190610d6a565b6101eb565b005b6100d960048036038101906100d49190610de8565b61033d565b005b6100f560048036038101906100f09190610e28565b610503565b005b6100ff6105d8565b60405161010c9190610e64565b60405180910390f35b61012f600480360381019061012a9190610e7f565b6105de565b60405161013c9190610e64565b60405180910390f35b61014d610627565b60405161015a9190610ec7565b60405180910390f35b61017d60048036038101906101789190610e7f565b610630565b005b610187610761565b6040516101949190610e64565b60405180910390f35b6101a561076b565b6040516101b29190610ef1565b60405180910390f35b6101d560048036038101906101d09190610f0c565b61078f565b6040516101e29190610e64565b60405180910390f35b60008054906101000a900473ffffffffffffffffffffffffffffffffffffffff1673ffffffffffffffffffffffffffffffffffffffff163373ffffffffffffffffffffffffffffffffffffffff1614610279576040517f08c379a000000000000000000000000000000000000000000000000000000000815260040161027090610f96565b60405180910390fd5b7fdd71a1d19fcba687442a1d5c58578f1e409af71a79d10fd95a4d66efd8fa9ae782600260008573ffffffffffffffffffffffffffffffffffffffff1673ffffffffffffffffffffffffffffffffffffffff1681526020019081526020016000205483846040516102ed9493929190610fb6565b60405180910390a180600260008473ffffffffffffffffffffffffffffffffffffffff1673ffffffffffffffffffffffffffffffffffffffff168152602001908152602001600020819055505050565b60008054906101000a900473ffffffffffffffffffffffffffffffffffffffff1673ffffffffffffffffffffffffffffffffffffffff163373ffffffffffffffffffffffffffffffffffffffff16146103cb576040517f08c379a00000000000000000000000000000000000000000000000000000000081526004016103c29061106d565b60405180910390fd5b60008273ffffffffffffffffffffffffffffffffffffffff16636f307dc36040518163ffffffff1660e01b8152600401602060405180830381865afa158015610418573d6000803e3d6000fd5b505050506040513d601f19601f8201168201806040525081019061043c91906110a2565b90507fdd71a1d19fcba687442a1d5c58578f1e409af71a79d10fd95a4d66efd8fa9ae781600260008473ffffffffffffffffffffffffffffffffffffffff1673ffffffffffffffffffffffffffffffffffffffff1681526020019081526020016000205484856040516104b29493929190610fb6565b60405180910390a181600260008373ffffffffffffffffffffffffffffffffffffffff1673ffffffffffffffffffffffffffffffffffffffff16815260200190815260200160002081905550505050565b60008054906101000a900473ffffffffffffffffffffffffffffffffffffffff1673ffffffffffffffffffffffffffffffffffffffff163373ffffffffffffffffffffffffffffffffffffffff1614610591576040517f08c379a00000000000000000000000000000000000000000000000000000000081526004016105889061111b565b60405180910390fd5b806001819055507fe648fc41c2dd51fe241f1f2d3778d817ec78d4e455a664a1d27af9c640f6f33d60015482836040516105cd9392919061113b565b60405180910390a150565b60015481565b6000600260008373ffffffffffffffffffffffffffffffffffffffff1673ffffffffffffffffffffffffffffffffffffffff168152602001908152602001600020549050919050565b60006001905090565b60008054906101000a900473ffffffffffffffffffffffffffffffffffffffff1673ffffffffffffffffffffffffffffffffffffffff163373ffffffffffffffffffffffffffffffffffffffff16146106be576040517f08c379a00000000000000000000000000000000000000000000000000000000081526004016106b59061111b565b60405180910390fd5b60008060009054906101000a900473ffffffffffffffffffffffffffffffffffffffff169050816000806101000a81548173ffffffffffffffffffffffffffffffffffffffff021916908373ffffffffffffffffffffffffffffffffffffffff1602179055507ff9ffabca9c8276e99321725bcb43fb076a6c66a54b7f21c4e8146d8519b417dc8183604051610755929190611172565b60405180910390a15050565b6000600154905090565b60008054906101000a900473ffffffffffffffffffffffffffffffffffffffff1681565b60006108438273ffffffffffffffffffffffffffffffffffffffff166395d89b416040518163ffffffff1660e01b8152600401600060405180830381865afa1580156107df573d6000803e3d6000fd5b505050506040513d6000823e3d601f19601f820116820180604052508101906108089190611305565b6040518060400160405280600781526020017f6c656e6452454900000000000000000000000000000000000000000000000000815250610c69565b15610858576714d1120d7b1600009050610c64565b61090a8273ffffffffffffffffffffffffffffffffffffffff166395d89b416040518163ffffffff1660e01b8152600401600060405180830381865afa1580156108a6573d6000803e3d6000fd5b505050506040513d6000823e3d601f19601f820116820180604052508101906108cf9190611305565b6040518060400160405280600381526020017f41524d0000000000000000000000000000000000000000000000000000000000815250610c69565b1561095657600260008373ffffffffffffffffffffffffffffffffffffffff1673ffffffffffffffffffffffffffffffffffffffff168152602001908152602001600020549050610c64565b6000808373ffffffffffffffffffffffffffffffffffffffff16636f307dc36040518163ffffffff1660e01b8152600401602060405180830381865afa1580156109a4573d6000803e3d6000fd5b505050506040513d601f19601f820116820180604052508101906109c891906110a2565b90506000600260008373ffffffffffffffffffffffffffffffffffffffff1673ffffffffffffffffffffffffffffffffffffffff1681526020019081526020016000205414610a5857600260008273ffffffffffffffffffffffffffffffffffffffff1673ffffffffffffffffffffffffffffffffffffffff168152602001908152602001600020549150610b74565b6000600360009054906101000a900473ffffffffffffffffffffffffffffffffffffffff1673ffffffffffffffffffffffffffffffffffffffff166365555bcc8373ffffffffffffffffffffffffffffffffffffffff166395d89b416040518163ffffffff1660e01b8152600401600060405180830381865afa158015610ae3573d6000803e3d6000fd5b505050506040513d6000823e3d601f19601f82011682018060405250810190610b0c9190611305565b6040518263ffffffff1660e01b8152600401610b2891906113de565b606060405180830381865afa158015610b45573d6000803e3d6000fd5b505050506040513d601f19601f82011682018060405250810190610b699190611491565b905080600001519250505b60006012905060008273ffffffffffffffffffffffffffffffffffffffff1663313ce5676040518163ffffffff1660e01b8152600401602060405180830381865afa158015610bc7573d6000803e3d6000fd5b505050506040513d601f19601f82011682018060405250810190610beb91906114f7565b60ff16905080821415610c045783945050505050610c64565b80821115610c3a578082610c189190611553565b600a610c2491906116ba565b84610c2f9190611705565b945050505050610c64565b8181610c469190611553565b600a610c5291906116ba565b84610c5d919061178e565b9450505050505b919050565b600081604051602001610c7c91906117fb565b6040516020818303038152906040528051906020012083604051602001610ca391906117fb565b6040516020818303038152906040528051906020012014905092915050565b6000604051905090565b600080fd5b600080fd5b600073ffffffffffffffffffffffffffffffffffffffff82169050919050565b6000610d0182610cd6565b9050919050565b610d1181610cf6565b8114610d1c57600080fd5b50565b600081359050610d2e81610d08565b92915050565b6000819050919050565b610d4781610d34565b8114610d5257600080fd5b50565b600081359050610d6481610d3e565b92915050565b60008060408385031215610d8157610d80610ccc565b5b6000610d8f85828601610d1f565b9250506020610da085828601610d55565b9150509250929050565b6000610db582610cf6565b9050919050565b610dc581610daa565b8114610dd057600080fd5b50565b600081359050610de281610dbc565b92915050565b60008060408385031215610dff57610dfe610ccc565b5b6000610e0d85828601610dd3565b9250506020610e1e85828601610d55565b9150509250929050565b600060208284031215610e3e57610e3d610ccc565b5b6000610e4c84828501610d55565b91505092915050565b610e5e81610d34565b82525050565b6000602082019050610e796000830184610e55565b92915050565b600060208284031215610e9557610e94610ccc565b5b6000610ea384828501610d1f565b91505092915050565b60008115159050919050565b610ec181610eac565b82525050565b6000602082019050610edc6000830184610eb8565b92915050565b610eeb81610cf6565b82525050565b6000602082019050610f066000830184610ee2565b92915050565b600060208284031215610f2257610f21610ccc565b5b6000610f3084828501610dd3565b91505092915050565b600082825260208201905092915050565b7f6f6e6c792061646d696e2063616e207365742070726963650000000000000000600082015250565b6000610f80601883610f39565b9150610f8b82610f4a565b602082019050919050565b60006020820190508181036000830152610faf81610f73565b9050919050565b6000608082019050610fcb6000830187610ee2565b610fd86020830186610e55565b610fe56040830185610e55565b610ff26060830184610e55565b95945050505050565b7f6f6e6c792061646d696e2063616e2073657420756e6465726c79696e6720707260008201527f6963650000000000000000000000000000000000000000000000000000000000602082015250565b6000611057602383610f39565b915061106282610ffb565b604082019050919050565b600060208201905081810360008301526110868161104a565b9050919050565b60008151905061109c81610d08565b92915050565b6000602082840312156110b8576110b7610ccc565b5b60006110c68482850161108d565b91505092915050565b7f6f6e6c792061646d696e2063616e20736574206e65772061646d696e00000000600082015250565b6000611105601c83610f39565b9150611110826110cf565b602082019050919050565b60006020820190508181036000830152611134816110f8565b9050919050565b60006060820190506111506000830186610e55565b61115d6020830185610e55565b61116a6040830184610e55565b949350505050565b60006040820190506111876000830185610ee2565b6111946020830184610ee2565b9392505050565b600080fd5b600080fd5b6000601f19601f8301169050919050565b7f4e487b7100000000000000000000000000000000000000000000000000000000600052604160045260246000fd5b6111ee826111a5565b810181811067ffffffffffffffff8211171561120d5761120c6111b6565b5b80604052505050565b6000611220610cc2565b905061122c82826111e5565b919050565b600067ffffffffffffffff82111561124c5761124b6111b6565b5b611255826111a5565b9050602081019050919050565b60005b83811015611280578082015181840152602081019050611265565b8381111561128f576000848401525b50505050565b60006112a86112a384611231565b611216565b9050828152602081018484840111156112c4576112c36111a0565b5b6112cf848285611262565b509392505050565b600082601f8301126112ec576112eb61119b565b5b81516112fc848260208601611295565b91505092915050565b60006020828403121561131b5761131a610ccc565b5b600082015167ffffffffffffffff81111561133957611338610cd1565b5b611345848285016112d7565b91505092915050565b600081519050919050565b60006113648261134e565b61136e8185610f39565b935061137e818560208601611262565b611387816111a5565b840191505092915050565b7f5553440000000000000000000000000000000000000000000000000000000000600082015250565b60006113c8600383610f39565b91506113d382611392565b602082019050919050565b600060408201905081810360008301526113f88184611359565b9050818103602083015261140b816113bb565b905092915050565b600080fd5b60008151905061142781610d3e565b92915050565b60006060828403121561144357611442611413565b5b61144d6060611216565b9050600061145d84828501611418565b600083015250602061147184828501611418565b602083015250604061148584828501611418565b60408301525092915050565b6000606082840312156114a7576114a6610ccc565b5b60006114b58482850161142d565b91505092915050565b600060ff82169050919050565b6114d4816114be565b81146114df57600080fd5b50565b6000815190506114f1816114cb565b92915050565b60006020828403121561150d5761150c610ccc565b5b600061151b848285016114e2565b91505092915050565b7f4e487b7100000000000000000000000000000000000000000000000000000000600052601160045260246000fd5b600061155e82610d34565b915061156983610d34565b92508282101561157c5761157b611524565b5b828203905092915050565b60008160011c9050919050565b6000808291508390505b60018511156115de578086048111156115ba576115b9611524565b5b60018516156115c95780820291505b80810290506115d785611587565b945061159e565b94509492505050565b6000826115f757600190506116b3565b8161160557600090506116b3565b816001811461161b576002811461162557611654565b60019150506116b3565b60ff84111561163757611636611524565b5b8360020a91508482111561164e5761164d611524565b5b506116b3565b5060208310610133831016604e8410600b84101617156116895782820a90508381111561168457611683611524565b5b6116b3565b6116968484846001611594565b925090508184048111156116ad576116ac611524565b5b81810290505b9392505050565b60006116c582610d34565b91506116d083610d34565b92506116fd7fffffffffffffffffffffffffffffffffffffffffffffffffffffffffffffffff84846115e7565b905092915050565b600061171082610d34565b915061171b83610d34565b9250817fffffffffffffffffffffffffffffffffffffffffffffffffffffffffffffffff048311821515161561175457611753611524565b5b828202905092915050565b7f4e487b7100000000000000000000000000000000000000000000000000000000600052601260045260246000fd5b600061179982610d34565b91506117a483610d34565b9250826117b4576117b361175f565b5b828204905092915050565b600081905092915050565b60006117d58261134e565b6117df81856117bf565b93506117ef818560208601611262565b80840191505092915050565b600061180782846117ca565b91508190509291505056fea264697066735822122087c700f246885b43ca636cff631fe0948c9a892ace0ffdfe2d1b83d8da127aca64736f6c634300080c0033",
  "immutableReferences": {},
  "source": "// SPDX-License-Identifier: MIT\r\npragma solidity ^0.8.0;\r\npragma experimental ABIEncoderV2;\r\n\r\nimport \"./interface/ComptrollerInterface.sol\";\r\nimport \"@openzeppelin/contracts/token/ERC20/ERC20.sol\";\r\n\r\nabstract contract IStdReference {\r\n    struct ReferenceData {\r\n        uint256 rate; // base/quote exchange rate, multiplied by 1e18.\r\n        uint256 lastUpdatedBase; // UNIX epoch of the last time when base price gets updated.\r\n        uint256 lastUpdatedQuote; // UNIX epoch of the last time when quote price gets updated.\r\n    }\r\n    function getReferenceData(string calldata _base, string calldata _quote) virtual external view returns (ReferenceData memory);\r\n    function getReferenceDataBulk(string[] calldata _bases, string[] calldata _quotes) virtual external view returns (ReferenceData[] memory);\r\n}\r\n\r\ncontract AurumPriceOracle is PriceOracle {\r\n    address public admin;\r\n\r\n    uint public goldPrice;\r\n    mapping(address => uint) prices;\r\n    event PricePosted(address asset, uint previousPriceMantissa, uint requestedPriceMantissa, uint newPriceMantissa);\r\n    event GoldPricePosted(uint previousGoldPriceMantissa, uint requestedGoldPriceMantissa, uint newGoldPriceMantissa);\r\n    event NewAdmin(address oldAdmin, address newAdmin);\r\n\r\n    IStdReference ref;\r\n\r\n    constructor() {\r\n        address bandAddress = 0xDA7a001b254CD22e46d3eAB04d937489c93174C3;   //BAND protocol oracle\r\n        ref = IStdReference(bandAddress);\r\n        admin = msg.sender;\r\n    }\r\n    function isPriceOracle() external pure returns(bool) {\r\n        return true;\r\n    }\r\n\r\n    function getUnderlyingPrice(LendTokenInterface lendToken) external view returns (uint) {\r\n        if (compareStrings(lendToken.symbol(), \"lendREI\")) {\r\n            return 1.5*1e18; //Test\r\n            //IStdReference.ReferenceData memory data = ref.getReferenceData(\"BNB\", \"USD\");\r\n            //return data.rate;\r\n        }else if (compareStrings(lendToken.symbol(), \"ARM\")) {\r\n            return prices[address(lendToken)];\r\n        } else {\r\n            uint256 price;\r\n            ERC20 token = ERC20(LendTokenInterface(address(lendToken)).underlying());\r\n\r\n            if(prices[address(token)] != 0) {\r\n                price = prices[address(token)];\r\n            } else {\r\n                IStdReference.ReferenceData memory data = ref.getReferenceData(token.symbol(), \"USD\");\r\n                price = data.rate;\r\n            }\r\n\r\n            uint256 defaultDecimal = 18;\r\n            uint256 tokenDecimal = uint256(token.decimals());\r\n\r\n            if(defaultDecimal == tokenDecimal) {\r\n                return price;\r\n            } else if(defaultDecimal > tokenDecimal) {\r\n                return price * (10**(defaultDecimal-tokenDecimal));\r\n            } else {\r\n                return price / (10**(tokenDecimal-defaultDecimal));\r\n            }\r\n        }\r\n    }\r\n\r\n    function setUnderlyingPrice(LendTokenInterface lendToken, uint underlyingPriceMantissa) external {\r\n        require(msg.sender == admin, \"only admin can set underlying price\");\r\n        address asset = address(LendTokenInterface(address(lendToken)).underlying());\r\n        emit PricePosted(asset, prices[asset], underlyingPriceMantissa, underlyingPriceMantissa);\r\n        prices[asset] = underlyingPriceMantissa;\r\n    }\r\n\r\n    function setDirectPrice(address asset, uint price) external {\r\n        require(msg.sender == admin, \"only admin can set price\");\r\n        emit PricePosted(asset, prices[asset], price, price);\r\n        prices[asset] = price;\r\n    }\r\n\r\n    function getGoldPrice() external view returns(uint){\r\n        return goldPrice;\r\n    }\r\n    \r\n    function setGoldPrice(uint underlyingPriceMantissa) external {      //Manually set gold price\r\n        require(msg.sender == admin, \"only admin can set new admin\");\r\n        goldPrice = underlyingPriceMantissa;\r\n        emit GoldPricePosted(goldPrice, underlyingPriceMantissa, underlyingPriceMantissa);\r\n    }\r\n\r\n    function assetPrices(address asset) external view returns (uint) {\r\n        return prices[asset];\r\n    }\r\n\r\n    function compareStrings(string memory a, string memory b) internal pure returns (bool) {\r\n        return (keccak256(abi.encodePacked((a))) == keccak256(abi.encodePacked((b))));\r\n    }\r\n\r\n    function setAdmin(address newAdmin) external {\r\n        require(msg.sender == admin, \"only admin can set new admin\");\r\n        address oldAdmin = admin;\r\n        admin = newAdmin;\r\n\r\n        emit NewAdmin(oldAdmin, newAdmin);\r\n    }\r\n}",
  "sourcePath": "C:\\Users\\chana\\desktop\\aurumdefi\\src\\contracts\\AurumPriceOracle.sol",
  "compiler": {
    "name": "solc",
    "version": "0.8.12+commit.f00d7308.Emscripten.clang"
  },
  "schemaVersion": "3.4.6",
  "updatedAt": "2022-03-23T14:09:31.150Z",
  "networkType": "ethereum",
  "devdoc": {
    "kind": "dev",
    "methods": {},
    "version": 1
  },
  "userdoc": {
    "kind": "user",
    "methods": {},
    "version": 1
  }
}