{
  "contractName": "LendToken",
  "abi": [
    {
      "inputs": [
        {
          "internalType": "string",
          "name": "name_",
          "type": "string"
        },
        {
          "internalType": "string",
          "name": "symbol_",
          "type": "string"
        },
        {
          "internalType": "uint8",
          "name": "decimals_",
          "type": "uint8"
        },
        {
          "internalType": "address",
          "name": "underlying_",
          "type": "address"
        },
        {
          "internalType": "address",
          "name": "interestRateModel_",
          "type": "address"
        },
        {
          "internalType": "address",
          "name": "comptroller_",
          "type": "address"
        }
      ],
      "stateMutability": "nonpayable",
      "type": "constructor"
    },
    {
      "inputs": [],
      "name": "BadInput",
      "type": "error"
    },
    {
      "inputs": [],
      "name": "NotAllowed",
      "type": "error"
    },
    {
      "anonymous": false,
      "inputs": [
        {
          "indexed": false,
          "internalType": "uint256",
          "name": "cashPrior",
          "type": "uint256"
        },
        {
          "indexed": false,
          "internalType": "uint256",
          "name": "interestAccumulated",
          "type": "uint256"
        },
        {
          "indexed": false,
          "internalType": "uint256",
          "name": "borrowIndex",
          "type": "uint256"
        },
        {
          "indexed": false,
          "internalType": "uint256",
          "name": "totalBorrows",
          "type": "uint256"
        }
      ],
      "name": "AccrueInterest",
      "type": "event"
    },
    {
      "anonymous": false,
      "inputs": [
        {
          "indexed": true,
          "internalType": "address",
          "name": "owner",
          "type": "address"
        },
        {
          "indexed": true,
          "internalType": "address",
          "name": "spender",
          "type": "address"
        },
        {
          "indexed": false,
          "internalType": "uint256",
          "name": "amount",
          "type": "uint256"
        }
      ],
      "name": "Approval",
      "type": "event"
    },
    {
      "anonymous": false,
      "inputs": [
        {
          "indexed": false,
          "internalType": "address",
          "name": "borrower",
          "type": "address"
        },
        {
          "indexed": false,
          "internalType": "uint256",
          "name": "borrowAmount",
          "type": "uint256"
        },
        {
          "indexed": false,
          "internalType": "uint256",
          "name": "accountBorrows",
          "type": "uint256"
        },
        {
          "indexed": false,
          "internalType": "uint256",
          "name": "totalBorrows",
          "type": "uint256"
        }
      ],
      "name": "Borrow",
      "type": "event"
    },
    {
      "anonymous": false,
      "inputs": [
        {
          "indexed": false,
          "internalType": "address",
          "name": "liquidator",
          "type": "address"
        },
        {
          "indexed": false,
          "internalType": "address",
          "name": "borrower",
          "type": "address"
        },
        {
          "indexed": false,
          "internalType": "uint256",
          "name": "repayAmount",
          "type": "uint256"
        },
        {
          "indexed": false,
          "internalType": "address",
          "name": "LendTokenCollateral",
          "type": "address"
        },
        {
          "indexed": false,
          "internalType": "uint256",
          "name": "seizeTokens",
          "type": "uint256"
        }
      ],
      "name": "LiquidateBorrow",
      "type": "event"
    },
    {
      "anonymous": false,
      "inputs": [
        {
          "indexed": false,
          "internalType": "address",
          "name": "minter",
          "type": "address"
        },
        {
          "indexed": false,
          "internalType": "uint256",
          "name": "mintAmount",
          "type": "uint256"
        },
        {
          "indexed": false,
          "internalType": "uint256",
          "name": "mintTokens",
          "type": "uint256"
        }
      ],
      "name": "Mint",
      "type": "event"
    },
    {
      "anonymous": false,
      "inputs": [
        {
          "indexed": false,
          "internalType": "address",
          "name": "oldAdmin",
          "type": "address"
        },
        {
          "indexed": false,
          "internalType": "address",
          "name": "newAdmin",
          "type": "address"
        }
      ],
      "name": "NewAdmin",
      "type": "event"
    },
    {
      "anonymous": false,
      "inputs": [
        {
          "indexed": false,
          "internalType": "contract ComptrollerInterface",
          "name": "oldComptroller",
          "type": "address"
        },
        {
          "indexed": false,
          "internalType": "contract ComptrollerInterface",
          "name": "newComptroller",
          "type": "address"
        }
      ],
      "name": "NewComptroller",
      "type": "event"
    },
    {
      "anonymous": false,
      "inputs": [
        {
          "indexed": false,
          "internalType": "address",
          "name": "oldLendTokenStorage",
          "type": "address"
        },
        {
          "indexed": false,
          "internalType": "address",
          "name": "newLendTokenStorage",
          "type": "address"
        }
      ],
      "name": "NewLendTokenStorage",
      "type": "event"
    },
    {
      "anonymous": false,
      "inputs": [
        {
          "indexed": false,
          "internalType": "contract InterestRateModel",
          "name": "oldInterestRateModel",
          "type": "address"
        },
        {
          "indexed": false,
          "internalType": "contract InterestRateModel",
          "name": "newInterestRateModel",
          "type": "address"
        }
      ],
      "name": "NewMarketInterestRateModel",
      "type": "event"
    },
    {
      "anonymous": false,
      "inputs": [
        {
          "indexed": false,
          "internalType": "uint256",
          "name": "oldReserveFactorMantissa",
          "type": "uint256"
        },
        {
          "indexed": false,
          "internalType": "uint256",
          "name": "newReserveFactorMantissa",
          "type": "uint256"
        }
      ],
      "name": "NewReserveFactor",
      "type": "event"
    },
    {
      "anonymous": false,
      "inputs": [
        {
          "indexed": false,
          "internalType": "address",
          "name": "redeemer",
          "type": "address"
        },
        {
          "indexed": false,
          "internalType": "uint256",
          "name": "redeemAmount",
          "type": "uint256"
        },
        {
          "indexed": false,
          "internalType": "uint256",
          "name": "redeemTokens",
          "type": "uint256"
        }
      ],
      "name": "Redeem",
      "type": "event"
    },
    {
      "anonymous": false,
      "inputs": [
        {
          "indexed": false,
          "internalType": "address",
          "name": "redeemer",
          "type": "address"
        },
        {
          "indexed": false,
          "internalType": "uint256",
          "name": "feeAmount",
          "type": "uint256"
        },
        {
          "indexed": false,
          "internalType": "uint256",
          "name": "redeemTokens",
          "type": "uint256"
        }
      ],
      "name": "RedeemFee",
      "type": "event"
    },
    {
      "anonymous": false,
      "inputs": [
        {
          "indexed": false,
          "internalType": "address",
          "name": "payer",
          "type": "address"
        },
        {
          "indexed": false,
          "internalType": "address",
          "name": "borrower",
          "type": "address"
        },
        {
          "indexed": false,
          "internalType": "uint256",
          "name": "repayAmount",
          "type": "uint256"
        },
        {
          "indexed": false,
          "internalType": "uint256",
          "name": "accountBorrows",
          "type": "uint256"
        },
        {
          "indexed": false,
          "internalType": "uint256",
          "name": "totalBorrows",
          "type": "uint256"
        }
      ],
      "name": "RepayBorrow",
      "type": "event"
    },
    {
      "anonymous": false,
      "inputs": [
        {
          "indexed": false,
          "internalType": "address",
          "name": "benefactor",
          "type": "address"
        },
        {
          "indexed": false,
          "internalType": "uint256",
          "name": "addAmount",
          "type": "uint256"
        },
        {
          "indexed": false,
          "internalType": "uint256",
          "name": "newTotalReserves",
          "type": "uint256"
        }
      ],
      "name": "ReservesAdded",
      "type": "event"
    },
    {
      "anonymous": false,
      "inputs": [
        {
          "indexed": false,
          "internalType": "address",
          "name": "admin",
          "type": "address"
        },
        {
          "indexed": false,
          "internalType": "uint256",
          "name": "reduceAmount",
          "type": "uint256"
        },
        {
          "indexed": false,
          "internalType": "uint256",
          "name": "newTotalReserves",
          "type": "uint256"
        }
      ],
      "name": "ReservesReduced",
      "type": "event"
    },
    {
      "anonymous": false,
      "inputs": [
        {
          "indexed": true,
          "internalType": "address",
          "name": "from",
          "type": "address"
        },
        {
          "indexed": true,
          "internalType": "address",
          "name": "to",
          "type": "address"
        },
        {
          "indexed": false,
          "internalType": "uint256",
          "name": "amount",
          "type": "uint256"
        }
      ],
      "name": "Transfer",
      "type": "event"
    },
    {
      "inputs": [
        {
          "internalType": "address",
          "name": "",
          "type": "address"
        }
      ],
      "name": "accountBorrows",
      "outputs": [
        {
          "internalType": "uint256",
          "name": "principal",
          "type": "uint256"
        },
        {
          "internalType": "uint256",
          "name": "interestIndex",
          "type": "uint256"
        }
      ],
      "stateMutability": "view",
      "type": "function"
    },
    {
      "inputs": [],
      "name": "accrualTimestamp",
      "outputs": [
        {
          "internalType": "uint256",
          "name": "",
          "type": "uint256"
        }
      ],
      "stateMutability": "view",
      "type": "function"
    },
    {
      "inputs": [],
      "name": "admin",
      "outputs": [
        {
          "internalType": "address",
          "name": "",
          "type": "address"
        }
      ],
      "stateMutability": "view",
      "type": "function"
    },
    {
      "inputs": [
        {
          "internalType": "uint256",
          "name": "",
          "type": "uint256"
        }
      ],
      "name": "borrowAddress",
      "outputs": [
        {
          "internalType": "address",
          "name": "",
          "type": "address"
        }
      ],
      "stateMutability": "view",
      "type": "function"
    },
    {
      "inputs": [],
      "name": "borrowIndex",
      "outputs": [
        {
          "internalType": "uint256",
          "name": "",
          "type": "uint256"
        }
      ],
      "stateMutability": "view",
      "type": "function"
    },
    {
      "inputs": [],
      "name": "borrowRateMaxMantissa",
      "outputs": [
        {
          "internalType": "uint256",
          "name": "",
          "type": "uint256"
        }
      ],
      "stateMutability": "view",
      "type": "function"
    },
    {
      "inputs": [],
      "name": "comptroller",
      "outputs": [
        {
          "internalType": "contract ComptrollerInterface",
          "name": "",
          "type": "address"
        }
      ],
      "stateMutability": "view",
      "type": "function"
    },
    {
      "inputs": [],
      "name": "decimals",
      "outputs": [
        {
          "internalType": "uint8",
          "name": "",
          "type": "uint8"
        }
      ],
      "stateMutability": "view",
      "type": "function"
    },
    {
      "inputs": [],
      "name": "initialExchangeRateMantissa",
      "outputs": [
        {
          "internalType": "uint256",
          "name": "",
          "type": "uint256"
        }
      ],
      "stateMutability": "view",
      "type": "function"
    },
    {
      "inputs": [],
      "name": "interestRateModel",
      "outputs": [
        {
          "internalType": "contract InterestRateModel",
          "name": "",
          "type": "address"
        }
      ],
      "stateMutability": "view",
      "type": "function"
    },
    {
      "inputs": [],
      "name": "name",
      "outputs": [
        {
          "internalType": "string",
          "name": "",
          "type": "string"
        }
      ],
      "stateMutability": "view",
      "type": "function"
    },
    {
      "inputs": [],
      "name": "reserveFactorMantissa",
      "outputs": [
        {
          "internalType": "uint256",
          "name": "",
          "type": "uint256"
        }
      ],
      "stateMutability": "view",
      "type": "function"
    },
    {
      "inputs": [],
      "name": "reserveFactorMaxMantissa",
      "outputs": [
        {
          "internalType": "uint256",
          "name": "",
          "type": "uint256"
        }
      ],
      "stateMutability": "view",
      "type": "function"
    },
    {
      "inputs": [],
      "name": "symbol",
      "outputs": [
        {
          "internalType": "string",
          "name": "",
          "type": "string"
        }
      ],
      "stateMutability": "view",
      "type": "function"
    },
    {
      "inputs": [],
      "name": "totalBorrows",
      "outputs": [
        {
          "internalType": "uint256",
          "name": "",
          "type": "uint256"
        }
      ],
      "stateMutability": "view",
      "type": "function"
    },
    {
      "inputs": [],
      "name": "totalReserves",
      "outputs": [
        {
          "internalType": "uint256",
          "name": "",
          "type": "uint256"
        }
      ],
      "stateMutability": "view",
      "type": "function"
    },
    {
      "inputs": [],
      "name": "totalSupply",
      "outputs": [
        {
          "internalType": "uint256",
          "name": "",
          "type": "uint256"
        }
      ],
      "stateMutability": "view",
      "type": "function"
    },
    {
      "inputs": [],
      "name": "underlying",
      "outputs": [
        {
          "internalType": "address",
          "name": "",
          "type": "address"
        }
      ],
      "stateMutability": "view",
      "type": "function"
    },
    {
      "inputs": [],
      "name": "isLendToken",
      "outputs": [
        {
          "internalType": "bool",
          "name": "",
          "type": "bool"
        }
      ],
      "stateMutability": "pure",
      "type": "function"
    },
    {
      "inputs": [
        {
          "internalType": "address",
          "name": "user",
          "type": "address"
        }
      ],
      "name": "getAccountBorrows",
      "outputs": [
        {
          "internalType": "uint256",
          "name": "",
          "type": "uint256"
        },
        {
          "internalType": "uint256",
          "name": "",
          "type": "uint256"
        }
      ],
      "stateMutability": "view",
      "type": "function"
    },
    {
      "inputs": [],
      "name": "getBorrowAddress",
      "outputs": [
        {
          "internalType": "address[]",
          "name": "",
          "type": "address[]"
        }
      ],
      "stateMutability": "view",
      "type": "function"
    },
    {
      "inputs": [
        {
          "internalType": "address",
          "name": "dst",
          "type": "address"
        },
        {
          "internalType": "uint256",
          "name": "amount",
          "type": "uint256"
        }
      ],
      "name": "transfer",
      "outputs": [],
      "stateMutability": "nonpayable",
      "type": "function"
    },
    {
      "inputs": [
        {
          "internalType": "address",
          "name": "src",
          "type": "address"
        },
        {
          "internalType": "address",
          "name": "dst",
          "type": "address"
        },
        {
          "internalType": "uint256",
          "name": "amount",
          "type": "uint256"
        }
      ],
      "name": "transferFrom",
      "outputs": [],
      "stateMutability": "nonpayable",
      "type": "function"
    },
    {
      "inputs": [
        {
          "internalType": "address",
          "name": "spender",
          "type": "address"
        },
        {
          "internalType": "uint256",
          "name": "amount",
          "type": "uint256"
        }
      ],
      "name": "approve",
      "outputs": [],
      "stateMutability": "nonpayable",
      "type": "function"
    },
    {
      "inputs": [
        {
          "internalType": "address",
          "name": "owner",
          "type": "address"
        },
        {
          "internalType": "address",
          "name": "spender",
          "type": "address"
        }
      ],
      "name": "allowance",
      "outputs": [
        {
          "internalType": "uint256",
          "name": "",
          "type": "uint256"
        }
      ],
      "stateMutability": "view",
      "type": "function"
    },
    {
      "inputs": [
        {
          "internalType": "address",
          "name": "owner",
          "type": "address"
        }
      ],
      "name": "balanceOf",
      "outputs": [
        {
          "internalType": "uint256",
          "name": "",
          "type": "uint256"
        }
      ],
      "stateMutability": "view",
      "type": "function"
    },
    {
      "inputs": [
        {
          "internalType": "address",
          "name": "owner",
          "type": "address"
        }
      ],
      "name": "balanceOfUnderlying",
      "outputs": [
        {
          "internalType": "uint256",
          "name": "",
          "type": "uint256"
        }
      ],
      "stateMutability": "nonpayable",
      "type": "function"
    },
    {
      "inputs": [
        {
          "internalType": "address",
          "name": "account",
          "type": "address"
        }
      ],
      "name": "getAccountSnapshot",
      "outputs": [
        {
          "internalType": "uint256",
          "name": "",
          "type": "uint256"
        },
        {
          "internalType": "uint256",
          "name": "",
          "type": "uint256"
        },
        {
          "internalType": "uint256",
          "name": "",
          "type": "uint256"
        }
      ],
      "stateMutability": "view",
      "type": "function"
    },
    {
      "inputs": [
        {
          "internalType": "address",
          "name": "account",
          "type": "address"
        }
      ],
      "name": "borrowBalanceStored",
      "outputs": [
        {
          "internalType": "uint256",
          "name": "",
          "type": "uint256"
        }
      ],
      "stateMutability": "view",
      "type": "function"
    },
    {
      "inputs": [],
      "name": "exchangeRateStored",
      "outputs": [
        {
          "internalType": "uint256",
          "name": "",
          "type": "uint256"
        }
      ],
      "stateMutability": "view",
      "type": "function"
    },
    {
      "inputs": [],
      "name": "getCash",
      "outputs": [
        {
          "internalType": "uint256",
          "name": "",
          "type": "uint256"
        }
      ],
      "stateMutability": "view",
      "type": "function"
    },
    {
      "inputs": [],
      "name": "accrueInterest",
      "outputs": [],
      "stateMutability": "nonpayable",
      "type": "function"
    },
    {
      "inputs": [],
      "name": "borrowRatePerSeconds",
      "outputs": [
        {
          "internalType": "uint256",
          "name": "",
          "type": "uint256"
        }
      ],
      "stateMutability": "view",
      "type": "function"
    },
    {
      "inputs": [],
      "name": "supplyRatePerSeconds",
      "outputs": [
        {
          "internalType": "uint256",
          "name": "",
          "type": "uint256"
        }
      ],
      "stateMutability": "view",
      "type": "function"
    },
    {
      "inputs": [],
      "name": "exchangeRateCurrent",
      "outputs": [
        {
          "internalType": "uint256",
          "name": "",
          "type": "uint256"
        }
      ],
      "stateMutability": "nonpayable",
      "type": "function"
    },
    {
      "inputs": [
        {
          "internalType": "uint256",
          "name": "mintAmount",
          "type": "uint256"
        }
      ],
      "name": "mint",
      "outputs": [
        {
          "internalType": "uint256",
          "name": "",
          "type": "uint256"
        }
      ],
      "stateMutability": "nonpayable",
      "type": "function"
    },
    {
      "inputs": [
        {
          "internalType": "uint256",
          "name": "redeemTokens",
          "type": "uint256"
        }
      ],
      "name": "redeem",
      "outputs": [],
      "stateMutability": "nonpayable",
      "type": "function"
    },
    {
      "inputs": [
        {
          "internalType": "uint256",
          "name": "redeemAmount",
          "type": "uint256"
        }
      ],
      "name": "redeemUnderlying",
      "outputs": [],
      "stateMutability": "nonpayable",
      "type": "function"
    },
    {
      "inputs": [
        {
          "internalType": "uint256",
          "name": "borrowAmount",
          "type": "uint256"
        }
      ],
      "name": "borrow",
      "outputs": [],
      "stateMutability": "nonpayable",
      "type": "function"
    },
    {
      "inputs": [
        {
          "internalType": "uint256",
          "name": "repayAmount",
          "type": "uint256"
        }
      ],
      "name": "repayBorrow",
      "outputs": [
        {
          "internalType": "uint256",
          "name": "",
          "type": "uint256"
        }
      ],
      "stateMutability": "nonpayable",
      "type": "function"
    },
    {
      "inputs": [
        {
          "internalType": "address",
          "name": "borrower",
          "type": "address"
        },
        {
          "internalType": "uint256",
          "name": "repayAmount",
          "type": "uint256"
        },
        {
          "internalType": "contract LendTokenInterface",
          "name": "lendTokenCollateral",
          "type": "address"
        }
      ],
      "name": "liquidateBorrow",
      "outputs": [
        {
          "internalType": "uint256",
          "name": "",
          "type": "uint256"
        }
      ],
      "stateMutability": "nonpayable",
      "type": "function"
    },
    {
      "inputs": [
        {
          "internalType": "address",
          "name": "liquidator",
          "type": "address"
        },
        {
          "internalType": "address",
          "name": "borrower",
          "type": "address"
        },
        {
          "internalType": "uint256",
          "name": "seizeTokens",
          "type": "uint256"
        }
      ],
      "name": "seize",
      "outputs": [],
      "stateMutability": "nonpayable",
      "type": "function"
    },
    {
      "inputs": [
        {
          "internalType": "address",
          "name": "newAdmin",
          "type": "address"
        }
      ],
      "name": "_setAdmin",
      "outputs": [],
      "stateMutability": "nonpayable",
      "type": "function"
    },
    {
      "inputs": [
        {
          "internalType": "uint256",
          "name": "reduceAmount",
          "type": "uint256"
        }
      ],
      "name": "_reduceReserves",
      "outputs": [],
      "stateMutability": "nonpayable",
      "type": "function"
    },
    {
      "inputs": [
        {
          "internalType": "uint256",
          "name": "newReserveFactorMantissa",
          "type": "uint256"
        }
      ],
      "name": "_setReserveFactor",
      "outputs": [],
      "stateMutability": "nonpayable",
      "type": "function"
    },
    {
      "inputs": [
        {
          "internalType": "contract InterestRateModel",
          "name": "newInterestRateModel",
          "type": "address"
        }
      ],
      "name": "_setInterestRateModel",
      "outputs": [],
      "stateMutability": "nonpayable",
      "type": "function"
    },
    {
      "inputs": [
        {
          "internalType": "contract ComptrollerInterface",
          "name": "newComptroller",
          "type": "address"
        }
      ],
      "name": "_setComptroller",
      "outputs": [],
      "stateMutability": "nonpayable",
      "type": "function"
    }
  ],
  "bytecode": "0x60806040523480156200001157600080fd5b5060405162005bf038038062005bf08339818101604052810190620000379190620004c3565b85600190805190602001906200004f929190620001d3565b50846002908051906020019062000068929190620001d3565b5083600360006101000a81548160ff021916908360ff16021790555082600960006101000a81548173ffffffffffffffffffffffffffffffffffffffff021916908373ffffffffffffffffffffffffffffffffffffffff16021790555081600b60006101000a81548173ffffffffffffffffffffffffffffffffffffffff021916908373ffffffffffffffffffffffffffffffffffffffff16021790555080600a60006101000a81548173ffffffffffffffffffffffffffffffffffffffff021916908373ffffffffffffffffffffffffffffffffffffffff160217905550670de0b6b3a76400006010819055506702c68af0bb140000600e8190555042600f8190555033600760006101000a81548173ffffffffffffffffffffffffffffffffffffffff021916908373ffffffffffffffffffffffffffffffffffffffff16021790555060016000806101000a81548160ff02191690831515021790555050505050505062000602565b828054620001e190620005cc565b90600052602060002090601f01602090048101928262000205576000855562000251565b82601f106200022057805160ff191683800117855562000251565b8280016001018555821562000251579182015b828111156200025057825182559160200191906001019062000233565b5b50905062000260919062000264565b5090565b5b808211156200027f57600081600090555060010162000265565b5090565b6000604051905090565b600080fd5b600080fd5b600080fd5b600080fd5b6000601f19601f8301169050919050565b7f4e487b7100000000000000000000000000000000000000000000000000000000600052604160045260246000fd5b620002ec82620002a1565b810181811067ffffffffffffffff821117156200030e576200030d620002b2565b5b80604052505050565b60006200032362000283565b9050620003318282620002e1565b919050565b600067ffffffffffffffff821115620003545762000353620002b2565b5b6200035f82620002a1565b9050602081019050919050565b60005b838110156200038c5780820151818401526020810190506200036f565b838111156200039c576000848401525b50505050565b6000620003b9620003b38462000336565b62000317565b905082815260208101848484011115620003d857620003d76200029c565b5b620003e58482856200036c565b509392505050565b600082601f83011262000405576200040462000297565b5b815162000417848260208601620003a2565b91505092915050565b600060ff82169050919050565b620004388162000420565b81146200044457600080fd5b50565b60008151905062000458816200042d565b92915050565b600073ffffffffffffffffffffffffffffffffffffffff82169050919050565b60006200048b826200045e565b9050919050565b6200049d816200047e565b8114620004a957600080fd5b50565b600081519050620004bd8162000492565b92915050565b60008060008060008060c08789031215620004e357620004e26200028d565b5b600087015167ffffffffffffffff81111562000504576200050362000292565b5b6200051289828a01620003ed565b965050602087015167ffffffffffffffff81111562000536576200053562000292565b5b6200054489828a01620003ed565b95505060406200055789828a0162000447565b94505060606200056a89828a01620004ac565b93505060806200057d89828a01620004ac565b92505060a06200059089828a01620004ac565b9150509295509295509295565b7f4e487b7100000000000000000000000000000000000000000000000000000000600052602260045260246000fd5b60006002820490506001821680620005e557607f821691505b60208210811415620005fc57620005fb6200059d565b5b50919050565b6155de80620006126000396000f3fe608060405234801561001057600080fd5b50600436106102955760003560e01c806395dd919311610167578063c37f68e2116100ce578063ee27a2f211610087578063ee27a2f2146107f8578063f2b3abbd14610816578063f3fdb15a14610832578063f5e3c46214610850578063f851a44014610880578063fca7820b1461089e57610295565b8063c37f68e21461070f578063c5ebeaec14610741578063cef12f081461075d578063d40e8f4a1461077b578063db006a75146107ac578063dd62ed3e146107c857610295565b8063aa5af0fd11610120578063aa5af0fd1461065d578063b2a02ff11461067b578063b360507614610697578063b95b92a3146106b5578063bd6d894d146106d3578063c156b1ff146106f157610295565b806395dd91931461059b578063969dedb2146105cb578063a0712d68146105e9578063a275370d14610619578063a6afed9514610637578063a9059cbb1461064157610295565b80634576b5db1161020b5780636f307dc3116101c45780636f307dc3146104c457806370a08231146104e25780637fe4c22514610512578063852a12e3146105435780638f840ddd1461055f57806395d89b411461057d57610295565b80634576b5db1461040257806347bd37181461041e5780635800e2de1461043c5780635fe3b5671461046c578063601a0bf11461048a578063675d972c146104a657610295565b8063182df0f51161025d578063182df0f51461034057806323b872dd1461035e578063313ce5671461037a5780633a74a767146103985780633af9e669146103b45780633b1d21a2146103e457610295565b806306fdde031461029a578063095ea7b3146102b85780630e752702146102d4578063173b99041461030457806318160ddd14610322575b600080fd5b6102a26108ba565b6040516102af9190614149565b60405180910390f35b6102d260048036038101906102cd9190614204565b610948565b005b6102ee60048036038101906102e99190614244565b610a38565b6040516102fb9190614280565b60405180910390f35b61030c610a4a565b6040516103199190614280565b60405180910390f35b61032a610a50565b6040516103379190614280565b60405180910390f35b610348610a56565b6040516103559190614280565b60405180910390f35b6103786004803603810190610373919061429b565b610ad2565b005b610382610b64565b60405161038f919061430a565b60405180910390f35b6103b260048036038101906103ad9190614325565b610b77565b005b6103ce60048036038101906103c99190614325565b610cac565b6040516103db9190614280565b60405180910390f35b6103ec610d25565b6040516103f99190614280565b60405180910390f35b61041c60048036038101906104179190614390565b610dc8565b005b610426610faa565b6040516104339190614280565b60405180910390f35b61045660048036038101906104519190614244565b610fb0565b60405161046391906143cc565b60405180910390f35b610474610fef565b6040516104819190614446565b60405180910390f35b6104a4600480360381019061049f9190614244565b611015565b005b6104ae6111e2565b6040516104bb9190614280565b60405180910390f35b6104cc6111ee565b6040516104d991906143cc565b60405180910390f35b6104fc60048036038101906104f79190614325565b611214565b6040516105099190614280565b60405180910390f35b61052c60048036038101906105279190614325565b61125d565b60405161053a929190614461565b60405180910390f35b61055d60048036038101906105589190614244565b6112ef565b005b6105676112fb565b6040516105749190614280565b60405180910390f35b610585611301565b6040516105929190614149565b60405180910390f35b6105b560048036038101906105b09190614325565b61138f565b6040516105c29190614280565b60405180910390f35b6105d36113e5565b6040516105e09190614548565b60405180910390f35b61060360048036038101906105fe9190614244565b611473565b6040516106109190614280565b60405180910390f35b610621611485565b60405161062e9190614280565b60405180910390f35b61063f611491565b005b61065b60048036038101906106569190614204565b6116d1565b005b610665611762565b6040516106729190614280565b60405180910390f35b6106956004803603810190610690919061429b565b611768565b005b61069f6117fa565b6040516106ac9190614280565b60405180910390f35b6106bd6118b0565b6040516106ca9190614280565b60405180910390f35b6106db6118b6565b6040516106e89190614280565b60405180910390f35b6106f96118cd565b6040516107069190614280565b60405180910390f35b61072960048036038101906107249190614325565b61197f565b6040516107389392919061456a565b60405180910390f35b61075b60048036038101906107569190614244565b6119ed565b005b6107656119f9565b60405161077291906145bc565b60405180910390f35b61079560048036038101906107909190614325565b611a02565b6040516107a3929190614461565b60405180910390f35b6107c660048036038101906107c19190614244565b611a26565b005b6107e260048036038101906107dd91906145d7565b611a32565b6040516107ef9190614280565b60405180910390f35b610800611ab9565b60405161080d9190614280565b60405180910390f35b610830600480360381019061082b9190614655565b611ac2565b005b61083a611cad565b60405161084791906146a3565b60405180910390f35b61086a600480360381019061086591906146fc565b611cd3565b6040516108779190614280565b60405180910390f35b610888611ce9565b60405161089591906143cc565b60405180910390f35b6108b860048036038101906108b39190614244565b611d0f565b005b600180546108c79061477e565b80601f01602080910402602001604051908101604052809291908181526020018280546108f39061477e565b80156109405780601f1061091557610100808354040283529160200191610940565b820191906000526020600020905b81548152906001019060200180831161092357829003601f168201915b505050505081565b600033905081600660008373ffffffffffffffffffffffffffffffffffffffff1673ffffffffffffffffffffffffffffffffffffffff16815260200190815260200160002060008573ffffffffffffffffffffffffffffffffffffffff1673ffffffffffffffffffffffffffffffffffffffff168152602001908152602001600020819055508273ffffffffffffffffffffffffffffffffffffffff168173ffffffffffffffffffffffffffffffffffffffff167f8c5be1e5ebec7d5bd14f71427d1e84f3dd0314c0f7b2291e5b200ac8c7c3b92584604051610a2b9190614280565b60405180910390a3505050565b6000610a4382611e3d565b9050919050565b600e5481565b60045481565b60008060045490506000610a68610d25565b9050600080831415610a8757670de0b6b3a76400009350505050610acf565b60125460115483610a9891906147df565b610aa29190614835565b9050600083670de0b6b3a764000083610abb9190614869565b610ac591906148f2565b9050809450505050505b90565b60008054906101000a900460ff16610b1f576040517f08c379a0000000000000000000000000000000000000000000000000000000008152600401610b169061496f565b60405180910390fd5b60008060006101000a81548160ff021916908315150217905550610b4533848484611edb565b60016000806101000a81548160ff021916908315150217905550505050565b600360009054906101000a900460ff1681565b600760009054906101000a900473ffffffffffffffffffffffffffffffffffffffff1673ffffffffffffffffffffffffffffffffffffffff163373ffffffffffffffffffffffffffffffffffffffff1614610c07576040517f08c379a0000000000000000000000000000000000000000000000000000000008152600401610bfe906149db565b60405180910390fd5b6000600760009054906101000a900473ffffffffffffffffffffffffffffffffffffffff16905081600760006101000a81548173ffffffffffffffffffffffffffffffffffffffff021916908373ffffffffffffffffffffffffffffffffffffffff1602179055507ff9ffabca9c8276e99321725bcb43fb076a6c66a54b7f21c4e8146d8519b417dc8183604051610ca09291906149fb565b60405180910390a15050565b600080610cb76118b6565b90506000670de0b6b3a7640000600560008673ffffffffffffffffffffffffffffffffffffffff1673ffffffffffffffffffffffffffffffffffffffff1681526020019081526020016000205483610d0f9190614869565b610d1991906148f2565b90508092505050919050565b6000600960009054906101000a900473ffffffffffffffffffffffffffffffffffffffff1673ffffffffffffffffffffffffffffffffffffffff166370a08231306040518263ffffffff1660e01b8152600401610d8291906143cc565b602060405180830381865afa158015610d9f573d6000803e3d6000fd5b505050506040513d601f19601f82011682018060405250810190610dc39190614a39565b905090565b600760009054906101000a900473ffffffffffffffffffffffffffffffffffffffff1673ffffffffffffffffffffffffffffffffffffffff163373ffffffffffffffffffffffffffffffffffffffff1614610e58576040517f08c379a0000000000000000000000000000000000000000000000000000000008152600401610e4f90614ab2565b60405180910390fd5b6000600a60009054906101000a900473ffffffffffffffffffffffffffffffffffffffff1690508173ffffffffffffffffffffffffffffffffffffffff16627e3dd26040518163ffffffff1660e01b8152600401602060405180830381865afa158015610ec9573d6000803e3d6000fd5b505050506040513d601f19601f82011682018060405250810190610eed9190614afe565b610f2c576040517f08c379a0000000000000000000000000000000000000000000000000000000008152600401610f2390614b77565b60405180910390fd5b81600a60006101000a81548173ffffffffffffffffffffffffffffffffffffffff021916908373ffffffffffffffffffffffffffffffffffffffff1602179055507f7ac369dbd14fa5ea3f473ed67cc9d598964a77501540ba6751eb0b3decf5870d8183604051610f9e929190614b97565b60405180910390a15050565b60115481565b600c8181548110610fc057600080fd5b906000526020600020016000915054906101000a900473ffffffffffffffffffffffffffffffffffffffff1681565b600a60009054906101000a900473ffffffffffffffffffffffffffffffffffffffff1681565b600760009054906101000a900473ffffffffffffffffffffffffffffffffffffffff1673ffffffffffffffffffffffffffffffffffffffff163373ffffffffffffffffffffffffffffffffffffffff16146110a5576040517f08c379a000000000000000000000000000000000000000000000000000000000815260040161109c906149db565b60405180910390fd5b6110ad611491565b806110b6610d25565b10156110f7576040517f08c379a00000000000000000000000000000000000000000000000000000000081526004016110ee90614c0c565b60405180910390fd5b60125481111561113c576040517f08c379a000000000000000000000000000000000000000000000000000000000815260040161113390614c78565b60405180910390fd5b60008160125461114c9190614835565b905080601281905550611181600760009054906101000a900473ffffffffffffffffffffffffffffffffffffffff168361234c565b7f3bad0c59cf2f06e7314077049f48a93578cd16f5ef92329f1dab1420a99c177e600760009054906101000a900473ffffffffffffffffffffffffffffffffffffffff1683836040516111d693929190614c98565b60405180910390a15050565b670de0b6b3a764000081565b600960009054906101000a900473ffffffffffffffffffffffffffffffffffffffff1681565b6000600560008373ffffffffffffffffffffffffffffffffffffffff1673ffffffffffffffffffffffffffffffffffffffff168152602001908152602001600020549050919050565b600080600860008473ffffffffffffffffffffffffffffffffffffffff1673ffffffffffffffffffffffffffffffffffffffff16815260200190815260200160002060000154600860008573ffffffffffffffffffffffffffffffffffffffff1673ffffffffffffffffffffffffffffffffffffffff1681526020019081526020016000206001015491509150915091565b6112f881612455565b50565b60125481565b6002805461130e9061477e565b80601f016020809104026020016040519081016040528092919081815260200182805461133a9061477e565b80156113875780601f1061135c57610100808354040283529160200191611387565b820191906000526020600020905b81548152906001019060200180831161136a57829003601f168201915b505050505081565b60008060008060006113a08661125d565b9150915060008214156113ba5760009450505050506113e0565b601054826113c89190614869565b935080846113d691906148f2565b9250829450505050505b919050565b6060600c80548060200260200160405190810160405280929190818152602001828054801561146957602002820191906000526020600020905b8160009054906101000a900473ffffffffffffffffffffffffffffffffffffffff1673ffffffffffffffffffffffffffffffffffffffff168152602001906001019080831161141f575b5050505050905090565b600061147e826124ed565b9050919050565b670de0b6b3a764000081565b60004290506000600f549050818114156114ac5750506116cf565b60006114b6610d25565b90506000601154905060006012549050600060105490506000600b60009054906101000a900473ffffffffffffffffffffffffffffffffffffffff1673ffffffffffffffffffffffffffffffffffffffff166315f240538686866040518463ffffffff1660e01b815260040161152e9392919061456a565b602060405180830381865afa15801561154b573d6000803e3d6000fd5b505050506040513d601f19601f8201168201806040525081019061156f9190614a39565b90506409502f90008111156115b9576040517f08c379a00000000000000000000000000000000000000000000000000000000081526004016115b090614d1b565b60405180910390fd5b600086886115c79190614835565b9050600080600080600085876115dd9190614869565b9450670de0b6b3a76400008a866115f49190614869565b6115fe91906148f2565b9350898461160c91906147df565b925088670de0b6b3a764000085600e546116269190614869565b61163091906148f2565b61163a91906147df565b915087670de0b6b3a764000089876116529190614869565b61165c91906148f2565b61166691906147df565b90508c600f819055508060108190555082601181905550816012819055507f4dec04e750ca11537cabcd8a9eab06494de08da3735bc8871cd41250e190bc048b8583866040516116b99493929190614d3b565b60405180910390a1505050505050505050505050505b565b60008054906101000a900460ff1661171e576040517f08c379a00000000000000000000000000000000000000000000000000000000081526004016117159061496f565b60405180910390fd5b60008060006101000a81548160ff02191690831515021790555061174433338484611edb565b60016000806101000a81548160ff0219169083151502179055505050565b60105481565b60008054906101000a900460ff166117b5576040517f08c379a00000000000000000000000000000000000000000000000000000000081526004016117ac9061496f565b60405180910390fd5b60008060006101000a81548160ff0219169083151502179055506117db3384848461258a565b60016000806101000a81548160ff021916908315150217905550505050565b6000600b60009054906101000a900473ffffffffffffffffffffffffffffffffffffffff1673ffffffffffffffffffffffffffffffffffffffff1663b8168816611842610d25565b601154601254600e546040518563ffffffff1660e01b815260040161186a9493929190614d3b565b602060405180830381865afa158015611887573d6000803e3d6000fd5b505050506040513d601f19601f820116820180604052508101906118ab9190614a39565b905090565b600f5481565b60006118c0611491565b6118c8610a56565b905090565b6000600b60009054906101000a900473ffffffffffffffffffffffffffffffffffffffff1673ffffffffffffffffffffffffffffffffffffffff166315f24053611915610d25565b6011546012546040518463ffffffff1660e01b81526004016119399392919061456a565b602060405180830381865afa158015611956573d6000803e3d6000fd5b505050506040513d601f19601f8201168201806040525081019061197a9190614a39565b905090565b60008060008060006119908661138f565b915061199a610a56565b9050600560008773ffffffffffffffffffffffffffffffffffffffff1673ffffffffffffffffffffffffffffffffffffffff16815260200190815260200160002054828294509450945050509193909250565b6119f68161286b565b50565b60006001905090565b60086020528060005260406000206000915090508060000154908060010154905082565b611a2f81612901565b50565b6000600660008473ffffffffffffffffffffffffffffffffffffffff1673ffffffffffffffffffffffffffffffffffffffff16815260200190815260200160002060008373ffffffffffffffffffffffffffffffffffffffff1673ffffffffffffffffffffffffffffffffffffffff16815260200190815260200160002054905092915050565b6409502f900081565b600760009054906101000a900473ffffffffffffffffffffffffffffffffffffffff1673ffffffffffffffffffffffffffffffffffffffff163373ffffffffffffffffffffffffffffffffffffffff1614611b52576040517f08c379a0000000000000000000000000000000000000000000000000000000008152600401611b4990614ab2565b60405180910390fd5b611b5a611491565b6000600b60009054906101000a900473ffffffffffffffffffffffffffffffffffffffff1690508173ffffffffffffffffffffffffffffffffffffffff16632191f92a6040518163ffffffff1660e01b8152600401602060405180830381865afa158015611bcc573d6000803e3d6000fd5b505050506040513d601f19601f82011682018060405250810190611bf09190614afe565b611c2f576040517f08c379a0000000000000000000000000000000000000000000000000000000008152600401611c2690614b77565b60405180910390fd5b81600b60006101000a81548173ffffffffffffffffffffffffffffffffffffffff021916908373ffffffffffffffffffffffffffffffffffffffff1602179055507fedffc32e068c7c95dfd4bdfd5c4d939a084d6b11c4199eac8436ed234d72f9268183604051611ca1929190614d80565b60405180910390a15050565b600b60009054906101000a900473ffffffffffffffffffffffffffffffffffffffff1681565b6000611ce0848484612999565b90509392505050565b600760009054906101000a900473ffffffffffffffffffffffffffffffffffffffff1681565b600760009054906101000a900473ffffffffffffffffffffffffffffffffffffffff1673ffffffffffffffffffffffffffffffffffffffff163373ffffffffffffffffffffffffffffffffffffffff1614611d9f576040517f08c379a0000000000000000000000000000000000000000000000000000000008152600401611d9690614df5565b60405180910390fd5b611da7611491565b670de0b6b3a7640000811115611df2576040517f08c379a0000000000000000000000000000000000000000000000000000000008152600401611de990614e61565b60405180910390fd5b6000600e54905081600e819055507faaa68312e2ea9d50e16af5068410ab56e1a1fd06037b1a35664812c30f8214608183604051611e31929190614461565b60405180910390a15050565b60008060009054906101000a900460ff16611e8d576040517f08c379a0000000000000000000000000000000000000000000000000000000008152600401611e849061496f565b60405180910390fd5b60008060006101000a81548160ff021916908315150217905550611eaf611491565b611eba333384612fa0565b905060016000806101000a81548160ff021916908315150217905550919050565b6000600a60009054906101000a900473ffffffffffffffffffffffffffffffffffffffff1673ffffffffffffffffffffffffffffffffffffffff1663bdcdc258308686866040518563ffffffff1660e01b8152600401611f3e9493929190614e81565b6020604051808303816000875af1158015611f5d573d6000803e3d6000fd5b505050506040513d601f19601f82011682018060405250810190611f819190614afe565b905080611fba576040517f3d693ada00000000000000000000000000000000000000000000000000000000815260040160405180910390fd5b8273ffffffffffffffffffffffffffffffffffffffff168473ffffffffffffffffffffffffffffffffffffffff161415612020576040517f2bb9acf700000000000000000000000000000000000000000000000000000000815260040160405180910390fd5b60008473ffffffffffffffffffffffffffffffffffffffff168673ffffffffffffffffffffffffffffffffffffffff16141561207e577fffffffffffffffffffffffffffffffffffffffffffffffffffffffffffffffff90506120fe565b600660008673ffffffffffffffffffffffffffffffffffffffff1673ffffffffffffffffffffffffffffffffffffffff16815260200190815260200160002060008773ffffffffffffffffffffffffffffffffffffffff1673ffffffffffffffffffffffffffffffffffffffff1681526020019081526020016000205490505b6000806000858461210f9190614835565b925085600560008a73ffffffffffffffffffffffffffffffffffffffff1673ffffffffffffffffffffffffffffffffffffffff1681526020019081526020016000205461215c9190614835565b915085600560008973ffffffffffffffffffffffffffffffffffffffff1673ffffffffffffffffffffffffffffffffffffffff168152602001908152602001600020546121a991906147df565b905081600560008a73ffffffffffffffffffffffffffffffffffffffff1673ffffffffffffffffffffffffffffffffffffffff1681526020019081526020016000208190555080600560008973ffffffffffffffffffffffffffffffffffffffff1673ffffffffffffffffffffffffffffffffffffffff168152602001908152602001600020819055507fffffffffffffffffffffffffffffffffffffffffffffffffffffffffffffffff84146122dc5782600660008a73ffffffffffffffffffffffffffffffffffffffff1673ffffffffffffffffffffffffffffffffffffffff16815260200190815260200160002060008b73ffffffffffffffffffffffffffffffffffffffff1673ffffffffffffffffffffffffffffffffffffffff168152602001908152602001600020819055505b8673ffffffffffffffffffffffffffffffffffffffff168873ffffffffffffffffffffffffffffffffffffffff167fddf252ad1be2c89b69c2b068fc378daa952ba7f163c4a11628f55a4df523b3ef886040516123399190614280565b60405180910390a3505050505050505050565b6000600960009054906101000a900473ffffffffffffffffffffffffffffffffffffffff1690508073ffffffffffffffffffffffffffffffffffffffff1663a9059cbb84846040518363ffffffff1660e01b81526004016123ae929190614ec6565b600060405180830381600087803b1580156123c857600080fd5b505af11580156123dc573d6000803e3d6000fd5b5050505060003d600081146123f8576020811461240257600080fd5b600019915061240e565b60206000803e60005191505b508061244f576040517f08c379a000000000000000000000000000000000000000000000000000000000815260040161244690614f3b565b60405180910390fd5b50505050565b60008054906101000a900460ff166124a2576040517f08c379a00000000000000000000000000000000000000000000000000000000081526004016124999061496f565b60405180910390fd5b60008060006101000a81548160ff0219169083151502179055506124c4611491565b6124d0336000836131f9565b60016000806101000a81548160ff02191690831515021790555050565b60008060009054906101000a900460ff1661253d576040517f08c379a00000000000000000000000000000000000000000000000000000000081526004016125349061496f565b60405180910390fd5b60008060006101000a81548160ff02191690831515021790555061255f611491565b6125693383613824565b905060016000806101000a81548160ff021916908315150217905550919050565b6000600a60009054906101000a900473ffffffffffffffffffffffffffffffffffffffff1673ffffffffffffffffffffffffffffffffffffffff1663eafe967b308787876040518563ffffffff1660e01b81526004016125ed9493929190614f5b565b6020604051808303816000875af115801561260c573d6000803e3d6000fd5b505050506040513d601f19601f820116820180604052508101906126309190614afe565b905080612669576040517f3d693ada00000000000000000000000000000000000000000000000000000000815260040160405180910390fd5b8373ffffffffffffffffffffffffffffffffffffffff168373ffffffffffffffffffffffffffffffffffffffff1614156126d8576040517f08c379a00000000000000000000000000000000000000000000000000000000081526004016126cf90614fec565b60405180910390fd5b60008083600560008773ffffffffffffffffffffffffffffffffffffffff1673ffffffffffffffffffffffffffffffffffffffff168152602001908152602001600020546127269190614835565b915083600560008873ffffffffffffffffffffffffffffffffffffffff1673ffffffffffffffffffffffffffffffffffffffff1681526020019081526020016000205461277391906147df565b905081600560008773ffffffffffffffffffffffffffffffffffffffff1673ffffffffffffffffffffffffffffffffffffffff1681526020019081526020016000208190555080600560008873ffffffffffffffffffffffffffffffffffffffff1673ffffffffffffffffffffffffffffffffffffffff168152602001908152602001600020819055508573ffffffffffffffffffffffffffffffffffffffff168573ffffffffffffffffffffffffffffffffffffffff167fddf252ad1be2c89b69c2b068fc378daa952ba7f163c4a11628f55a4df523b3ef8660405161285a9190614280565b60405180910390a350505050505050565b60008054906101000a900460ff166128b8576040517f08c379a00000000000000000000000000000000000000000000000000000000081526004016128af9061496f565b60405180910390fd5b60008060006101000a81548160ff0219169083151502179055506128da611491565b6128e43382613a96565b60016000806101000a81548160ff02191690831515021790555050565b60008054906101000a900460ff1661294e576040517f08c379a00000000000000000000000000000000000000000000000000000000081526004016129459061496f565b60405180910390fd5b60008060006101000a81548160ff021916908315150217905550612970611491565b61297c338260006131f9565b60016000806101000a81548160ff02191690831515021790555050565b60008060009054906101000a900460ff166129e9576040517f08c379a00000000000000000000000000000000000000000000000000000000081526004016129e09061496f565b60405180910390fd5b60008060006101000a81548160ff021916908315150217905550612a0b611491565b8173ffffffffffffffffffffffffffffffffffffffff1663a6afed956040518163ffffffff1660e01b8152600401600060405180830381600087803b158015612a5357600080fd5b505af1158015612a67573d6000803e3d6000fd5b5050505060003390506000600a60009054906101000a900473ffffffffffffffffffffffffffffffffffffffff1673ffffffffffffffffffffffffffffffffffffffff16636e2cf5af308689896040518563ffffffff1660e01b8152600401612ad39493929190614e81565b6020604051808303816000875af1158015612af2573d6000803e3d6000fd5b505050506040513d601f19601f82011682018060405250810190612b169190614afe565b905080612b4f576040517f3d693ada00000000000000000000000000000000000000000000000000000000815260040160405180910390fd5b428473ffffffffffffffffffffffffffffffffffffffff1663b95b92a36040518163ffffffff1660e01b8152600401602060405180830381865afa158015612b9b573d6000803e3d6000fd5b505050506040513d601f19601f82011682018060405250810190612bbf9190614a39565b14612bff576040517f08c379a0000000000000000000000000000000000000000000000000000000008152600401612bf690615058565b60405180910390fd5b8173ffffffffffffffffffffffffffffffffffffffff168673ffffffffffffffffffffffffffffffffffffffff161415612c6e576040517f08c379a0000000000000000000000000000000000000000000000000000000008152600401612c6590614fec565b60405180910390fd5b6000851415612cb2576040517f08c379a0000000000000000000000000000000000000000000000000000000008152600401612ca9906150c4565b60405180910390fd5b7fffffffffffffffffffffffffffffffffffffffffffffffffffffffffffffffff851415612d15576040517f08c379a0000000000000000000000000000000000000000000000000000000008152600401612d0c90615130565b60405180910390fd5b6000612d22838888612fa0565b90506000600a60009054906101000a900473ffffffffffffffffffffffffffffffffffffffff1673ffffffffffffffffffffffffffffffffffffffff1663c488847b3088856040518463ffffffff1660e01b8152600401612d8593929190615150565b602060405180830381865afa158015612da2573d6000803e3d6000fd5b505050506040513d601f19601f82011682018060405250810190612dc69190614a39565b9050808673ffffffffffffffffffffffffffffffffffffffff166370a082318a6040518263ffffffff1660e01b8152600401612e0291906143cc565b602060405180830381865afa158015612e1f573d6000803e3d6000fd5b505050506040513d601f19601f82011682018060405250810190612e439190614a39565b1015612e84576040517f08c379a0000000000000000000000000000000000000000000000000000000008152600401612e7b906151d3565b60405180910390fd5b3073ffffffffffffffffffffffffffffffffffffffff168673ffffffffffffffffffffffffffffffffffffffff161415612ec957612ec430858a8461258a565b612f39565b8573ffffffffffffffffffffffffffffffffffffffff1663b2a02ff1858a846040518463ffffffff1660e01b8152600401612f0693929190615150565b600060405180830381600087803b158015612f2057600080fd5b505af1158015612f34573d6000803e3d6000fd5b505050505b7f298637f684da70674f26509b10f07ec2fbc77a335ab1e7d6215a4b2484d8bb528489848985604051612f709594939291906151f3565b60405180910390a18194505050505060016000806101000a81548160ff0219169083151502179055509392505050565b600080600a60009054906101000a900473ffffffffffffffffffffffffffffffffffffffff1673ffffffffffffffffffffffffffffffffffffffff16633205e01730866040518363ffffffff1660e01b81526004016130009291906149fb565b6020604051808303816000875af115801561301f573d6000803e3d6000fd5b505050506040513d601f19601f820116820180604052508101906130439190614afe565b90508061307c576040517f3d693ada00000000000000000000000000000000000000000000000000000000815260040160405180910390fd5b600080600080600080600860008b73ffffffffffffffffffffffffffffffffffffffff1673ffffffffffffffffffffffffffffffffffffffff1681526020019081526020016000206001015494506130d38a61138f565b93508389106130e4578395506130e8565b8895505b6130f28b87613de0565b905080846131009190614835565b9250806011546131109190614835565b915082600860008c73ffffffffffffffffffffffffffffffffffffffff1673ffffffffffffffffffffffffffffffffffffffff16815260200190815260200160002060000181905550601054600860008c73ffffffffffffffffffffffffffffffffffffffff1673ffffffffffffffffffffffffffffffffffffffff16815260200190815260200160002060010181905550816011819055507f1a2a22cb034d26d1854bdc6666a5b91fe25efbbb5dcad3b0355478d6f5c362a18b8b8386866040516131e0959493929190615246565b60405180910390a1809750505050505050509392505050565b60008214806132085750600081145b613247576040517f08c379a000000000000000000000000000000000000000000000000000000000815260040161323e906152e5565b60405180910390fd5b61324f614081565b613257610a56565b8160000181815250506000816000015114156132a8576040517f08c379a000000000000000000000000000000000000000000000000000000000815260040161329f90615351565b60405180910390fd5b60008311156132ec5782816020018181525050670de0b6b3a76400008382600001516132d49190614869565b6132de91906148f2565b816040018181525050613323565b8060000151670de0b6b3a7640000836133059190614869565b61330f91906148f2565b816020018181525050818160400181815250505b6000600a60009054906101000a900473ffffffffffffffffffffffffffffffffffffffff1673ffffffffffffffffffffffffffffffffffffffff1663eabe7d91308785602001516040518463ffffffff1660e01b815260040161338893929190615150565b6020604051808303816000875af11580156133a7573d6000803e3d6000fd5b505050506040513d601f19601f820116820180604052508101906133cb9190614afe565b905080613404576040517f3d693ada00000000000000000000000000000000000000000000000000000000815260040160405180910390fd5b81602001516004546134169190614835565b8260600181815250508160200151600560008773ffffffffffffffffffffffffffffffffffffffff1673ffffffffffffffffffffffffffffffffffffffff1681526020019081526020016000205461346e9190614835565b8260800181815250508160400151613484610d25565b10156134c5576040517f08c379a00000000000000000000000000000000000000000000000000000000081526004016134bc906153bd565b60405180910390fd5b6000806000600a60009054906101000a900473ffffffffffffffffffffffffffffffffffffffff1673ffffffffffffffffffffffffffffffffffffffff166304ef9d586040518163ffffffff1660e01b8152600401602060405180830381865afa158015613537573d6000803e3d6000fd5b505050506040513d601f19601f8201168201806040525081019061355b9190614a39565b1461362c57670de0b6b3a7640000600a60009054906101000a900473ffffffffffffffffffffffffffffffffffffffff1673ffffffffffffffffffffffffffffffffffffffff166304ef9d586040518163ffffffff1660e01b8152600401602060405180830381865afa1580156135d6573d6000803e3d6000fd5b505050506040513d601f19601f820116820180604052508101906135fa9190614a39565b85604001516136099190614869565b61361391906148f2565b91508184604001516136259190614835565b9050613634565b836040015190505b60008214613716576136d6600a60009054906101000a900473ffffffffffffffffffffffffffffffffffffffff1673ffffffffffffffffffffffffffffffffffffffff1663c5f956af6040518163ffffffff1660e01b8152600401602060405180830381865afa1580156136ac573d6000803e3d6000fd5b505050506040513d601f19601f820116820180604052508101906136d091906153f2565b8361234c565b7fccf8e53b86a99b7e9ecf796342c165764d66154780f638c08e6241d711fba6d48783866020015160405161370d93929190614c98565b60405180910390a15b613720878261234c565b83606001516004819055508360800151600560008973ffffffffffffffffffffffffffffffffffffffff1673ffffffffffffffffffffffffffffffffffffffff168152602001908152602001600020819055503073ffffffffffffffffffffffffffffffffffffffff168773ffffffffffffffffffffffffffffffffffffffff167fddf252ad1be2c89b69c2b068fc378daa952ba7f163c4a11628f55a4df523b3ef86602001516040516137d49190614280565b60405180910390a37fe5b754fb1abb7f01b499791d0b820ae3b6af3424ac1c59768edb53f4ec31a9298782866020015160405161381393929190614c98565b60405180910390a150505050505050565b600080600a60009054906101000a900473ffffffffffffffffffffffffffffffffffffffff1673ffffffffffffffffffffffffffffffffffffffff1663f196980a30866040518363ffffffff1660e01b81526004016138849291906149fb565b6020604051808303816000875af11580156138a3573d6000803e3d6000fd5b505050506040513d601f19601f820116820180604052508101906138c79190614afe565b905080613900576040517f3d693ada00000000000000000000000000000000000000000000000000000000815260040160405180910390fd5b6000806000806000613910610a56565b945061391c8989613de0565b905084670de0b6b3a7640000826139339190614869565b61393d91906148f2565b93508360045461394d91906147df565b925083600560008b73ffffffffffffffffffffffffffffffffffffffff1673ffffffffffffffffffffffffffffffffffffffff1681526020019081526020016000205461399a91906147df565b91508260048190555081600560008b73ffffffffffffffffffffffffffffffffffffffff1673ffffffffffffffffffffffffffffffffffffffff168152602001908152602001600020819055507f4c209b5fc8ad50758f13e2e1088ba56a560dff690a1c6fef26394f4c03821c4f898286604051613a1a93929190614c98565b60405180910390a18873ffffffffffffffffffffffffffffffffffffffff163073ffffffffffffffffffffffffffffffffffffffff167fddf252ad1be2c89b69c2b068fc378daa952ba7f163c4a11628f55a4df523b3ef86604051613a7f9190614280565b60405180910390a380965050505050505092915050565b6000600a60009054906101000a900473ffffffffffffffffffffffffffffffffffffffff1673ffffffffffffffffffffffffffffffffffffffff1663da3d454c3085856040518463ffffffff1660e01b8152600401613af793929190615150565b6020604051808303816000875af1158015613b16573d6000803e3d6000fd5b505050506040513d601f19601f82011682018060405250810190613b3a9190614afe565b905080613b73576040517f3d693ada00000000000000000000000000000000000000000000000000000000815260040160405180910390fd5b81613b7c610d25565b1015613bbd576040517f08c379a0000000000000000000000000000000000000000000000000000000008152600401613bb49061546b565b60405180910390fd5b60008083613bca8661138f565b613bd491906147df565b915083601154613be491906147df565b905060001515600d60008773ffffffffffffffffffffffffffffffffffffffff1673ffffffffffffffffffffffffffffffffffffffff16815260200190815260200160002060009054906101000a900460ff1615151415613cfb576001600d60008773ffffffffffffffffffffffffffffffffffffffff1673ffffffffffffffffffffffffffffffffffffffff16815260200190815260200160002060006101000a81548160ff021916908315150217905550600c859080600181540180825580915050600190039060005260206000200160009091909190916101000a81548173ffffffffffffffffffffffffffffffffffffffff021916908373ffffffffffffffffffffffffffffffffffffffff1602179055505b613d05858561234c565b81600860008773ffffffffffffffffffffffffffffffffffffffff1673ffffffffffffffffffffffffffffffffffffffff16815260200190815260200160002060000181905550601054600860008773ffffffffffffffffffffffffffffffffffffffff1673ffffffffffffffffffffffffffffffffffffffff16815260200190815260200160002060010181905550806011819055507f13ed6866d4e1ee6da46f845c46d7e54120883d75c5ea9a2dacc1c4ca8984ab8085858484604051613dd1949392919061548b565b60405180910390a15050505050565b600080600960009054906101000a900473ffffffffffffffffffffffffffffffffffffffff1690506000600960009054906101000a900473ffffffffffffffffffffffffffffffffffffffff1673ffffffffffffffffffffffffffffffffffffffff166370a08231306040518263ffffffff1660e01b8152600401613e6591906143cc565b602060405180830381865afa158015613e82573d6000803e3d6000fd5b505050506040513d601f19601f82011682018060405250810190613ea69190614a39565b90508173ffffffffffffffffffffffffffffffffffffffff166323b872dd8630876040518463ffffffff1660e01b8152600401613ee593929190615150565b600060405180830381600087803b158015613eff57600080fd5b505af1158015613f13573d6000803e3d6000fd5b5050505060003d60008114613f2f5760208114613f3957600080fd5b6000199150613f45565b60206000803e60005191505b5080613f86576040517f08c379a0000000000000000000000000000000000000000000000000000000008152600401613f7d9061551c565b60405180910390fd5b6000600960009054906101000a900473ffffffffffffffffffffffffffffffffffffffff1673ffffffffffffffffffffffffffffffffffffffff166370a08231306040518263ffffffff1660e01b8152600401613fe391906143cc565b602060405180830381865afa158015614000573d6000803e3d6000fd5b505050506040513d601f19601f820116820180604052508101906140249190614a39565b905082811015614069576040517f08c379a000000000000000000000000000000000000000000000000000000000815260040161406090615588565b60405180910390fd5b82816140759190614835565b94505050505092915050565b6040518060a0016040528060008152602001600081526020016000815260200160008152602001600081525090565b600081519050919050565b600082825260208201905092915050565b60005b838110156140ea5780820151818401526020810190506140cf565b838111156140f9576000848401525b50505050565b6000601f19601f8301169050919050565b600061411b826140b0565b61412581856140bb565b93506141358185602086016140cc565b61413e816140ff565b840191505092915050565b600060208201905081810360008301526141638184614110565b905092915050565b600080fd5b600073ffffffffffffffffffffffffffffffffffffffff82169050919050565b600061419b82614170565b9050919050565b6141ab81614190565b81146141b657600080fd5b50565b6000813590506141c8816141a2565b92915050565b6000819050919050565b6141e1816141ce565b81146141ec57600080fd5b50565b6000813590506141fe816141d8565b92915050565b6000806040838503121561421b5761421a61416b565b5b6000614229858286016141b9565b925050602061423a858286016141ef565b9150509250929050565b60006020828403121561425a5761425961416b565b5b6000614268848285016141ef565b91505092915050565b61427a816141ce565b82525050565b60006020820190506142956000830184614271565b92915050565b6000806000606084860312156142b4576142b361416b565b5b60006142c2868287016141b9565b93505060206142d3868287016141b9565b92505060406142e4868287016141ef565b9150509250925092565b600060ff82169050919050565b614304816142ee565b82525050565b600060208201905061431f60008301846142fb565b92915050565b60006020828403121561433b5761433a61416b565b5b6000614349848285016141b9565b91505092915050565b600061435d82614190565b9050919050565b61436d81614352565b811461437857600080fd5b50565b60008135905061438a81614364565b92915050565b6000602082840312156143a6576143a561416b565b5b60006143b48482850161437b565b91505092915050565b6143c681614190565b82525050565b60006020820190506143e160008301846143bd565b92915050565b6000819050919050565b600061440c61440761440284614170565b6143e7565b614170565b9050919050565b600061441e826143f1565b9050919050565b600061443082614413565b9050919050565b61444081614425565b82525050565b600060208201905061445b6000830184614437565b92915050565b60006040820190506144766000830185614271565b6144836020830184614271565b9392505050565b600081519050919050565b600082825260208201905092915050565b6000819050602082019050919050565b6144bf81614190565b82525050565b60006144d183836144b6565b60208301905092915050565b6000602082019050919050565b60006144f58261448a565b6144ff8185614495565b935061450a836144a6565b8060005b8381101561453b57815161452288826144c5565b975061452d836144dd565b92505060018101905061450e565b5085935050505092915050565b6000602082019050818103600083015261456281846144ea565b905092915050565b600060608201905061457f6000830186614271565b61458c6020830185614271565b6145996040830184614271565b949350505050565b60008115159050919050565b6145b6816145a1565b82525050565b60006020820190506145d160008301846145ad565b92915050565b600080604083850312156145ee576145ed61416b565b5b60006145fc858286016141b9565b925050602061460d858286016141b9565b9150509250929050565b600061462282614190565b9050919050565b61463281614617565b811461463d57600080fd5b50565b60008135905061464f81614629565b92915050565b60006020828403121561466b5761466a61416b565b5b600061467984828501614640565b91505092915050565b600061468d82614413565b9050919050565b61469d81614682565b82525050565b60006020820190506146b86000830184614694565b92915050565b60006146c982614190565b9050919050565b6146d9816146be565b81146146e457600080fd5b50565b6000813590506146f6816146d0565b92915050565b6000806000606084860312156147155761471461416b565b5b6000614723868287016141b9565b9350506020614734868287016141ef565b9250506040614745868287016146e7565b9150509250925092565b7f4e487b7100000000000000000000000000000000000000000000000000000000600052602260045260246000fd5b6000600282049050600182168061479657607f821691505b602082108114156147aa576147a961474f565b5b50919050565b7f4e487b7100000000000000000000000000000000000000000000000000000000600052601160045260246000fd5b60006147ea826141ce565b91506147f5836141ce565b9250827fffffffffffffffffffffffffffffffffffffffffffffffffffffffffffffffff0382111561482a576148296147b0565b5b828201905092915050565b6000614840826141ce565b915061484b836141ce565b92508282101561485e5761485d6147b0565b5b828203905092915050565b6000614874826141ce565b915061487f836141ce565b9250817fffffffffffffffffffffffffffffffffffffffffffffffffffffffffffffffff04831182151516156148b8576148b76147b0565b5b828202905092915050565b7f4e487b7100000000000000000000000000000000000000000000000000000000600052601260045260246000fd5b60006148fd826141ce565b9150614908836141ce565b925082614918576149176148c3565b5b828204905092915050565b7f72652d656e746572656400000000000000000000000000000000000000000000600082015250565b6000614959600a836140bb565b915061496482614923565b602082019050919050565b600060208201905081810360008301526149888161494c565b9050919050565b7f554e415554484f52495a45440000000000000000000000000000000000000000600082015250565b60006149c5600c836140bb565b91506149d08261498f565b602082019050919050565b600060208201905081810360008301526149f4816149b8565b9050919050565b6000604082019050614a1060008301856143bd565b614a1d60208301846143bd565b9392505050565b600081519050614a33816141d8565b92915050565b600060208284031215614a4f57614a4e61416b565b5b6000614a5d84828501614a24565b91505092915050565b7f4f6e6c792061646d696e00000000000000000000000000000000000000000000600082015250565b6000614a9c600a836140bb565b9150614aa782614a66565b602082019050919050565b60006020820190508181036000830152614acb81614a8f565b9050919050565b614adb816145a1565b8114614ae657600080fd5b50565b600081519050614af881614ad2565b92915050565b600060208284031215614b1457614b1361416b565b5b6000614b2284828501614ae9565b91505092915050565b7f6d61726b6572206d6574686f642072657475726e65642066616c736500000000600082015250565b6000614b61601c836140bb565b9150614b6c82614b2b565b602082019050919050565b60006020820190508181036000830152614b9081614b54565b9050919050565b6000604082019050614bac6000830185614437565b614bb96020830184614437565b9392505050565b7f494e53554646494349454e542043415348000000000000000000000000000000600082015250565b6000614bf66011836140bb565b9150614c0182614bc0565b602082019050919050565b60006020820190508181036000830152614c2581614be9565b9050919050565b7f494e53554646494349454e542052455345525645530000000000000000000000600082015250565b6000614c626015836140bb565b9150614c6d82614c2c565b602082019050919050565b60006020820190508181036000830152614c9181614c55565b9050919050565b6000606082019050614cad60008301866143bd565b614cba6020830185614271565b614cc76040830184614271565b949350505050565b7f626f72726f772072617465206973206162737572646c79206869676800000000600082015250565b6000614d05601c836140bb565b9150614d1082614ccf565b602082019050919050565b60006020820190508181036000830152614d3481614cf8565b9050919050565b6000608082019050614d506000830187614271565b614d5d6020830186614271565b614d6a6040830185614271565b614d776060830184614271565b95945050505050565b6000604082019050614d956000830185614694565b614da26020830184614694565b9392505050565b7f4f6e6c792061646d696e2066756e6374696f6e00000000000000000000000000600082015250565b6000614ddf6013836140bb565b9150614dea82614da9565b602082019050919050565b60006020820190508181036000830152614e0e81614dd2565b9050919050565b7f56616c75652067726561746572207468616e206d617800000000000000000000600082015250565b6000614e4b6016836140bb565b9150614e5682614e15565b602082019050919050565b60006020820190508181036000830152614e7a81614e3e565b9050919050565b6000608082019050614e9660008301876143bd565b614ea360208301866143bd565b614eb060408301856143bd565b614ebd6060830184614271565b95945050505050565b6000604082019050614edb60008301856143bd565b614ee86020830184614271565b9392505050565b7f544f4b454e5f5452414e534645525f4f55545f4641494c454400000000000000600082015250565b6000614f256019836140bb565b9150614f3082614eef565b602082019050919050565b60006020820190508181036000830152614f5481614f18565b9050919050565b6000608082019050614f7060008301876143bd565b614f7d60208301866143bd565b614f8a60408301856143bd565b614f9760608301846143bd565b95945050505050565b7f43414e27542053454c46204c4951554944415445000000000000000000000000600082015250565b6000614fd66014836140bb565b9150614fe182614fa0565b602082019050919050565b6000602082019050818103600083015261500581614fc9565b9050919050565b7f54494d45204d49534d4154434800000000000000000000000000000000000000600082015250565b6000615042600d836140bb565b915061504d8261500c565b602082019050919050565b6000602082019050818103600083015261507181615035565b9050919050565b7f416d6f756e74203d203000000000000000000000000000000000000000000000600082015250565b60006150ae600a836140bb565b91506150b982615078565b602082019050919050565b600060208201905081810360008301526150dd816150a1565b9050919050565b7f414d4f554e54206973204d41582076616c756500000000000000000000000000600082015250565b600061511a6013836140bb565b9150615125826150e4565b602082019050919050565b600060208201905081810360008301526151498161510d565b9050919050565b600060608201905061516560008301866143bd565b61517260208301856143bd565b61517f6040830184614271565b949350505050565b7f4c49515549444154455f5345495a455f544f4f5f4d5543480000000000000000600082015250565b60006151bd6018836140bb565b91506151c882615187565b602082019050919050565b600060208201905081810360008301526151ec816151b0565b9050919050565b600060a08201905061520860008301886143bd565b61521560208301876143bd565b6152226040830186614271565b61522f60608301856143bd565b61523c6080830184614271565b9695505050505050565b600060a08201905061525b60008301886143bd565b61526860208301876143bd565b6152756040830186614271565b6152826060830185614271565b61528f6080830184614271565b9695505050505050565b7f4241445f494e5055540000000000000000000000000000000000000000000000600082015250565b60006152cf6009836140bb565b91506152da82615299565b602082019050919050565b600060208201905081810360008301526152fe816152c2565b9050919050565b7f4661696c2065786368616e676520726174650000000000000000000000000000600082015250565b600061533b6012836140bb565b915061534682615305565b602082019050919050565b6000602082019050818103600083015261536a8161532e565b9050919050565b7f496e73756666696369656e742063617368000000000000000000000000000000600082015250565b60006153a76011836140bb565b91506153b282615371565b602082019050919050565b600060208201905081810360008301526153d68161539a565b9050919050565b6000815190506153ec816141a2565b92915050565b6000602082840312156154085761540761416b565b5b6000615416848285016153dd565b91505092915050565b7f544f4b454e5f494e53554646494349454e545f43415348000000000000000000600082015250565b60006154556017836140bb565b91506154608261541f565b602082019050919050565b6000602082019050818103600083015261548481615448565b9050919050565b60006080820190506154a060008301876143bd565b6154ad6020830186614271565b6154ba6040830185614271565b6154c76060830184614271565b95945050505050565b7f544f4b454e5f5452414e534645525f494e5f4641494c45440000000000000000600082015250565b60006155066018836140bb565b9150615511826154d0565b602082019050919050565b60006020820190508181036000830152615535816154f9565b9050919050565b7f544f4b454e5f5452414e534645525f494e5f4f564552464c4f57000000000000600082015250565b6000615572601a836140bb565b915061557d8261553c565b602082019050919050565b600060208201905081810360008301526155a181615565565b905091905056fea2646970667358221220254e0de44584337186cdf030ca74f28c657d6be46e12ea7645560c54c468ec7e64736f6c634300080c0033",
  "immutableReferences": {},
  "source": "// SPDX-License-Identifier: MIT\r\npragma solidity 0.8.12;\r\n\r\nimport './interface/ComptrollerInterface.sol';\r\nimport './interface/EIP20NonStandardInterface.sol';\r\nimport \"@openzeppelin/contracts/token/ERC20/ERC20.sol\";\r\n\r\n//\r\n//  Lend token contract is forked and modified from venus' VToken contract\r\n// !! WARNING  LendToken is NOT ERC20 standard (transfer, transferFrom, approve :: don't have returns bool)\r\n//\r\n\r\ncontract LendToken is LendTokenInterface{\r\n\r\n    function isLendToken() external pure returns(bool) {return true;} // Indicator that this is the lend token\r\n\r\n    bool internal _notEntered; // re-entrancy guarding check\r\n    // -----------------------------\r\n    // Standard variables for tokens\r\n    // -----------------------------\r\n    string public name;\r\n    string public symbol;\r\n    uint8 public decimals;\r\n    uint256 public totalSupply;\r\n\r\n    mapping (address => uint256) accountTokens;\r\n    mapping (address => mapping (address => uint256)) transferAllowances;\r\n    address public admin;                                   //owner of this contract\r\n    // ----------------\r\n    // Market parameter\r\n    // ----------------\r\n    struct BorrowSnapshot {\r\n        uint principal;\r\n        uint interestIndex;\r\n    }\r\n    mapping (address => BorrowSnapshot) public accountBorrows;    //Outstanding borrow balances for each account\r\n    function getAccountBorrows(address user) public view returns(uint, uint) { \r\n        return (accountBorrows[user].principal, accountBorrows[user].interestIndex);\r\n    }\r\n\r\n    address public underlying;                      //Underlying asset address\r\n    ComptrollerInterface public comptroller;                //get the comptroller\r\n    InterestRateModel public interestRateModel;\r\n\r\n    address[] public borrowAddress;         //Stored all borrow address\r\n    mapping(address => bool) hasBorrowed;  \r\n    function getBorrowAddress() external view returns(address[] memory){\r\n        return borrowAddress;\r\n    }\r\n    \r\n    // -----------------\r\n    // Lending parameter\r\n    // -----------------\r\n    uint constant public borrowRateMaxMantissa = 0.0004e14;        //Maximum borrow rate (0.000004% / sec) or 126.14% /year\r\n    uint constant public reserveFactorMaxMantissa = 1e18;          //Maximum fraction of interest that can be set aside for reserves\r\n    uint constant public initialExchangeRateMantissa = 1e18;       //Initial exchange rate, Used when minting first Lend token (totalSupply = 0)\r\n    uint256 public reserveFactorMantissa;                          //Current fraction of interest\r\n\r\n    // AccrueInterest update parameter\r\n    uint256 public accrualTimestamp;                                //Last accrued timestamp\r\n    uint public borrowIndex;                                       //Accumulate total earned interest rate\r\n    uint public totalBorrows;                                      //Total amount of borrowed underlying asset\r\n    uint public totalReserves;                                     //Total amount of underlying asset\r\n\r\n    modifier nonReentrant() {\r\n        require(_notEntered, \"re-entered\");\r\n        _notEntered = false;\r\n        _;\r\n        _notEntered = true; // get a gas-refund post-Istanbul\r\n    }\r\n\r\n\r\n    // ------------------\r\n    // Initiate parameter\r\n    // ------------------\r\n\r\n    constructor (string memory name_, string memory symbol_, uint8 decimals_, address underlying_, address interestRateModel_, address comptroller_) {\r\n\r\n        name = name_;\r\n        symbol = symbol_;\r\n        decimals = decimals_;\r\n        underlying = underlying_;\r\n\r\n        interestRateModel = InterestRateModel(interestRateModel_);\r\n        comptroller = ComptrollerInterface(comptroller_);\r\n\r\n        borrowIndex = 1e18;\r\n        reserveFactorMantissa = 0.2e18; //default reserveFactor = 20%\r\n        \r\n        accrualTimestamp = block.timestamp;\r\n        admin = msg.sender;\r\n        _notEntered = true;\r\n    }\r\n\r\n    // -------------\r\n    // Market Events\r\n    // -------------\r\n\r\n    error NotAllowed();\r\n    error BadInput();\r\n\r\n    event Mint(address minter, uint mintAmount, uint mintTokens);                                                               //Emit when tokens are minted\r\n    event Redeem(address redeemer, uint redeemAmount, uint redeemTokens);                                                       //Emit when tokens are redeemed\r\n    event RedeemFee(address redeemer, uint feeAmount, uint redeemTokens);                                                       //Emit when tokens are redeemed and fee are transferred\r\n    event Borrow(address borrower, uint borrowAmount, uint accountBorrows, uint totalBorrows);                                  //Emit when underlying is borrowed\r\n    event RepayBorrow(address payer, address borrower, uint repayAmount, uint accountBorrows, uint totalBorrows);               //Emit when a borrow is repaid\r\n    event LiquidateBorrow(address liquidator, address borrower, uint repayAmount, address LendTokenCollateral, uint seizeTokens);  //Emit when a borrow is liquidated\r\n    event NewLendTokenStorage(address oldLendTokenStorage, address newLendTokenStorage);\r\n\r\n    event AccrueInterest(uint cashPrior, uint interestAccumulated, uint borrowIndex, uint totalBorrows);                        //Emit when interest is accrued\r\n    event NewMarketInterestRateModel(InterestRateModel oldInterestRateModel, InterestRateModel newInterestRateModel);           //Emit when changing interestRateModel\r\n    event NewReserveFactor(uint oldReserveFactorMantissa, uint newReserveFactorMantissa);                                       //Emit when changing reserve factor\r\n    event ReservesAdded(address benefactor, uint addAmount, uint newTotalReserves);                                             //Emit when adding reserves\r\n    event ReservesReduced(address admin, uint reduceAmount, uint newTotalReserves);                                             //Emit when reducing reserves\r\n    event NewComptroller(ComptrollerInterface oldComptroller, ComptrollerInterface newComptroller);                             //Emit when changing comptroller\r\n\r\n    // ------------\r\n    // Admin Events\r\n    // ------------\r\n\r\n    event NewAdmin(address oldAdmin, address newAdmin);    \r\n\r\n    /**\r\n        * @notice EIP20 Transfer event\r\n    */\r\n    event Transfer(address indexed from, address indexed to, uint amount);\r\n\r\n    /**\r\n      * @notice EIP20 Approval event\r\n    */\r\n    event Approval(address indexed owner, address indexed spender, uint amount);\r\n\r\n\r\n    /**\r\n     * @notice Transfer `tokens` tokens from `src` to `dst` by `spender`\r\n     * @dev Called by both `transfer` and `transferFrom` internally\r\n     * @param spender The address of the account performing the transfer\r\n     * @param src The address of the source account\r\n     * @param dst The address of the destination account\r\n     * @param tokens The number of tokens to transfer\r\n     */\r\n    function transferTokens(address spender, address src, address dst, uint tokens) internal{\r\n        /* Fail if transfer not allowed */\r\n        bool allowed = comptroller.transferAllowed(address(this), src, dst, tokens);\r\n        if(!allowed){\r\n            revert NotAllowed();\r\n        }\r\n\r\n        /* Do not allow self-transfers */\r\n        if (src == dst) {\r\n            revert BadInput();\r\n        }\r\n\r\n        /* Get the allowance, infinite for the account owner */\r\n        uint startingAllowance = 0;\r\n        if (spender == src) {\r\n            startingAllowance = type(uint).max;\r\n        } else {\r\n            startingAllowance = transferAllowances[src][spender];\r\n        }\r\n\r\n        uint allowanceNew;\r\n        uint srvTokensNew;\r\n        uint dstTokensNew;\r\n\r\n        allowanceNew = startingAllowance - tokens;\r\n        srvTokensNew = accountTokens[src] - tokens;\r\n        dstTokensNew = accountTokens[dst] + tokens;\r\n\r\n        /////////////////////////\r\n        // EFFECTS & INTERACTIONS\r\n        // (No safe failures beyond this point)\r\n\r\n        accountTokens[src] = srvTokensNew;\r\n        accountTokens[dst] = dstTokensNew;\r\n\r\n        /* Eat some of the allowance (if necessary) */\r\n        if (startingAllowance != type(uint).max) {\r\n            transferAllowances[src][spender] = allowanceNew;\r\n        }\r\n\r\n        /* We emit a Transfer event */\r\n        emit Transfer(src, dst, tokens);\r\n    }\r\n\r\n    /**\r\n     * @notice Transfer `amount` tokens from `msg.sender` to `dst`\r\n     * @param dst The address of the destination account\r\n     * @param amount The number of tokens to transfer\r\n     */\r\n    function transfer(address dst, uint256 amount) external nonReentrant {\r\n        transferTokens(msg.sender, msg.sender, dst, amount);\r\n    }\r\n\r\n    /**\r\n     * @notice Transfer `amount` tokens from `src` to `dst`\r\n     * @param src The address of the source account\r\n     * @param dst The address of the destination account\r\n     * @param amount The number of tokens to transfer\r\n     */\r\n    function transferFrom(address src, address dst, uint256 amount) external nonReentrant{\r\n        transferTokens(msg.sender, src, dst, amount);\r\n    }\r\n\r\n    /**\r\n     * @notice Approve `spender` to transfer up to `amount` from `src`\r\n     * @dev This will overwrite the approval amount for `spender`\r\n     *  and is subject to issues noted [here](https://eips.ethereum.org/EIPS/eip-20#approve)\r\n     * @param spender The address of the account which may transfer tokens\r\n     * @param amount The number of tokens that are approved\r\n     */\r\n    function approve(address spender, uint256 amount) external{\r\n        address src = msg.sender;\r\n        transferAllowances[src][spender] = amount;\r\n        emit Approval(src, spender, amount);\r\n    }\r\n\r\n    /**\r\n     * @notice Get the current allowance from `owner` for `spender`\r\n     * @param owner The address of the account which owns the tokens to be spent\r\n     * @param spender The address of the account which may transfer tokens\r\n     * @return The number of tokens allowed to be spent\r\n     */\r\n    function allowance(address owner, address spender) external view returns (uint256) {\r\n        return transferAllowances[owner][spender];\r\n    }\r\n\r\n    /**\r\n     * @notice Get the token balance of the `owner`\r\n     * @param owner The address of the account to query\r\n     * @return The number of tokens owned by `owner`\r\n     */\r\n    function balanceOf(address owner) external view returns (uint256) {\r\n        return accountTokens[owner];\r\n    }\r\n\r\n    /**\r\n     * @notice Get the underlying balance of the `owner`\r\n     * @dev This also accrues interest in a transaction\r\n     * @param owner The address of the account to query\r\n     * @return The amount of underlying owned by `owner`\r\n     */\r\n    function balanceOfUnderlying(address owner) external returns (uint) {\r\n        uint exchangeRate = exchangeRateCurrent();\r\n        uint balance = exchangeRate * accountTokens[owner] / 1e18;\r\n        return balance;\r\n    }\r\n\r\n    /**\r\n     * @notice Get a snapshot of the account's balances, and the cached exchange rate\r\n     * @dev This is used by comptroller to more efficiently perform liquidity checks.\r\n     * @param account Address of the account to snapshot\r\n     * @return (possible error, token balance, borrow balance, exchange rate mantissa)\r\n     */\r\n    function getAccountSnapshot(address account) external view returns (uint, uint, uint) {\r\n        uint borrowBalance;\r\n        uint exchangeRateMantissa;\r\n\r\n        borrowBalance = borrowBalanceStored(account);\r\n\r\n        exchangeRateMantissa = exchangeRateStored();\r\n\r\n        return (accountTokens[account], borrowBalance, exchangeRateMantissa);\r\n    }\r\n\r\n\r\n    /**\r\n     * @notice Return the borrow balance of account based on stored data\r\n     * @param account The address whose balance should be calculated\r\n     * @return The principal * market borrow index / recorded borrowIndex\r\n     */\r\n    function borrowBalanceStored(address account) public view returns (uint) {\r\n        uint principalTimesIndex;\r\n        uint result;\r\n\r\n        /* Get borrowBalance and borrowIndex */\r\n        (uint principal, uint interestIndex) = getAccountBorrows(account);\r\n\r\n        if (principal == 0) {\r\n            return 0;\r\n        }\r\n\r\n        /* Calculate new borrow balance using the interest index:\r\n         *  recentBorrowBalance = borrower.borrowBalance * market.borrowIndex / borrower.borrowIndex\r\n         */\r\n\r\n        // principalTimesIndex is now 1e36  :: e18 * e18 = e36\r\n        principalTimesIndex = principal * borrowIndex;\r\n\r\n        // result is 1e18  :: e36 / e18 = e18\r\n        result = principalTimesIndex / interestIndex;\r\n\r\n        return result;\r\n    }\r\n    /**\r\n     * @notice Calculates the exchange rate from the underlying to the lendToken\r\n     * @dev This function does not accrue interest before calculating the exchange rate\r\n     *      \r\n     * @return Calculated exchange rate scaled by 1e18\r\n     */\r\n    function exchangeRateStored() public view returns (uint) {\r\n        uint _totalSupply = totalSupply;\r\n        uint totalCash = getCash();\r\n        uint cashPlusBorrowsMinusReserves;\r\n\r\n        if (_totalSupply == 0) {\r\n            /*\r\n             * If there are no tokens minted:\r\n             *  exchangeRate = initialExchangeRate\r\n             */\r\n            return (initialExchangeRateMantissa);   //default is 1e18  ( 1 LendToken to 1 underlyingToken ) \r\n        } else {\r\n            /*\r\n             * Otherwise:\r\n             *  exchangeRate = (totalCash + totalBorrows - totalReserves) / totalSupply\r\n             */\r\n\r\n            // cashPlusBorrows is in 1e18\r\n            cashPlusBorrowsMinusReserves = totalCash + totalBorrows - totalReserves;\r\n\r\n            // exchangeRate mantissa is in 1e18 :: e18 * 1e18 / e18\r\n            uint exchangeRateMantissa = cashPlusBorrowsMinusReserves * 1e18 / _totalSupply;\r\n\r\n            return exchangeRateMantissa;\r\n        }\r\n    }\r\n    /**\r\n     * @notice Get cash balance of this lendToken in the underlying asset\r\n     * @return The quantity of underlying asset owned by this contract\r\n     */\r\n    function getCash() public view returns (uint) {\r\n        return IERC20(underlying).balanceOf(address(this));\r\n    }\r\n    /**\r\n     * @notice Applies accrued interest to total borrows and reserves\r\n     * @dev This calculates interest accrued from the last checkpointed timestamp\r\n     *   up to the current timestamp and writes new checkpoint to storage.\r\n     */\r\n    function accrueInterest() public {\r\n        /* Remember the initial block timestamp */\r\n        uint currentTimestamp = block.timestamp;\r\n        uint accrualTimestampPrior = accrualTimestamp;\r\n\r\n        /* Short-circuit accumulating 0 interest */\r\n        if (accrualTimestampPrior == currentTimestamp) {\r\n            return ;\r\n        }\r\n\r\n        /* Read the previous values out of storage */\r\n        uint cashPrior = getCash();\r\n        uint borrowsPrior = totalBorrows;\r\n        uint reservesPrior = totalReserves;\r\n        uint borrowIndexPrior = borrowIndex;\r\n\r\n        /* Calculate the current borrow interest rate */\r\n        uint borrowRateMantissa = interestRateModel.getBorrowRate(cashPrior, borrowsPrior, reservesPrior);\r\n        require(borrowRateMantissa <= borrowRateMaxMantissa, \"borrow rate is absurdly high\");\r\n\r\n        /* Calculate the elapsed time (seconds) since the last accrual */\r\n        uint timeDelta = currentTimestamp - accrualTimestampPrior;\r\n\r\n        /*\r\n         * Calculate the interest accumulated into borrows and reserves and the new index:\r\n         *  simpleInterestFactor = borrowRate * timeDelta\r\n         *  interestAccumulated = simpleInterestFactor * totalBorrows\r\n         *  totalBorrowsNew = interestAccumulated + totalBorrows\r\n         *  totalReservesNew = interestAccumulated * reserveFactor + totalReserves\r\n         *  borrowIndexNew = simpleInterestFactor * borrowIndex + borrowIndex\r\n         */\r\n\r\n        uint simpleInterestFactor;\r\n        uint interestAccumulated;\r\n        uint totalBorrowsNew;\r\n        uint totalReservesNew;\r\n        uint borrowIndexNew;\r\n\r\n        // simpleInterestFactor is 1e18 :: e18 * e1\r\n        simpleInterestFactor = borrowRateMantissa * timeDelta;\r\n        // interestAccumulated is 1e18 :: e18 * e18 /1e18\r\n        interestAccumulated = simpleInterestFactor * borrowsPrior / 1e18;\r\n        // totalBorrowsNew is 1e18\r\n        totalBorrowsNew = interestAccumulated + borrowsPrior;\r\n        // totalReservesNew is 1e18  :: (e18 * e18 / e18) + e18\r\n        totalReservesNew = (reserveFactorMantissa * interestAccumulated) / 1e18 + reservesPrior;\r\n        // borrowIndexNew is 1e18 :: (e18 * e18 / e18) + e18\r\n        borrowIndexNew = (simpleInterestFactor * borrowIndexPrior) / 1e18 + borrowIndexPrior;\r\n\r\n        /////////////////////////\r\n        // EFFECTS & INTERACTIONS\r\n        // (No safe failures beyond this point)\r\n\r\n        /* We write the previously calculated values into storage */\r\n        accrualTimestamp = currentTimestamp;\r\n        borrowIndex = borrowIndexNew;\r\n        totalBorrows = totalBorrowsNew;\r\n        totalReserves = totalReservesNew;\r\n\r\n        /* We emit an AccrueInterest event */\r\n        emit AccrueInterest(cashPrior, interestAccumulated, borrowIndexNew, totalBorrowsNew);\r\n    }\r\n    /**\r\n     * @notice Returns the current per-seconds borrow interest rate for this LendToken\r\n     * @return The borrow interest rate per seconds, scaled by 1e18\r\n     */\r\n    function borrowRatePerSeconds() external view returns (uint) {\r\n        return interestRateModel.getBorrowRate(getCash(), totalBorrows, totalReserves);\r\n    }\r\n\r\n    /**\r\n     * @notice Returns the current per-seconds supply interest rate for this lendToken\r\n     * @return The supply interest rate per seconds, scaled by 1e18\r\n     */\r\n    function supplyRatePerSeconds() external view returns (uint) {\r\n        return interestRateModel.getSupplyRate(getCash(), totalBorrows, totalReserves, reserveFactorMantissa);\r\n    }\r\n\r\n\r\n    /**\r\n     * @notice Accrue interest then return the up-to-date exchange rate\r\n     * @return Calculated exchange rate scaled by 1e18\r\n     */\r\n    function exchangeRateCurrent() public returns (uint) {\r\n        accrueInterest();\r\n        return exchangeRateStored();\r\n    }\r\n\r\n\r\n\r\n\r\n    /**\r\n     * @notice Sender supplies assets into the market and receives lendTokens in exchange\r\n     * @dev Accrues interest whether or not the operation succeeds, unless reverted\r\n     * @param mintAmount The amount of the underlying asset to supply\r\n     * @return (uint) the actual mint amount.\r\n     */\r\n    function mint(uint mintAmount) external returns(uint) {\r\n        return mintInternal(mintAmount);\r\n    }\r\n    function mintInternal(uint mintAmount) internal nonReentrant returns (uint) {\r\n        accrueInterest();\r\n        // mintFresh emits the actual Mint event if successful and logs on errors, so we don't need to\r\n        return mintFresh(msg.sender, mintAmount);\r\n    }\r\n\r\n\r\n    /**\r\n     * @notice User supplies assets into the market and receives lendTokens in exchange\r\n     * @dev Assumes interest has already been accrued up to the current timestamp\r\n     * @param minter The address of the account which is supplying the assets\r\n     * @param mintAmount The amount of the underlying asset to supply\r\n     * @return (uint) the actual mint amount.\r\n     */\r\n    function mintFresh(address minter, uint mintAmount) internal returns (uint) {\r\n        /* Fail if mint not allowed */\r\n        bool allowed = comptroller.mintAllowed(address(this), minter);\r\n        if(!allowed){\r\n            revert NotAllowed();\r\n        }\r\n\r\n        uint exchangeRateMantissa;\r\n        uint mintTokens;\r\n        uint totalSupplyNew;\r\n        uint accountTokensNew;\r\n        uint actualMintAmount;\r\n\r\n        exchangeRateMantissa = exchangeRateStored();\r\n\r\n        /////////////////////////\r\n        // EFFECTS & INTERACTIONS\r\n        // (No safe failures beyond this point)\r\n\r\n        /*\r\n         *  We call `doTransferIn` for the minter and the mintAmount.\r\n         *  Note: The lendToken must handle variations between ERC-20 and REI underlying.\r\n         *  `doTransferIn` reverts if anything goes wrong, since we can't be sure if\r\n         *  side-effects occurred. The function returns the amount actually transferred,\r\n         *  in case of a fee. On success, the lendToken holds an additional `actualMintAmount`\r\n         *  of cash.\r\n         */\r\n        actualMintAmount = doTransferIn(minter, mintAmount);\r\n\r\n        /*\r\n         * We get the current exchange rate and calculate the number of lendTokens to be minted:\r\n         *  mintTokens = actualMintAmount / exchangeRate\r\n         */\r\n\r\n        mintTokens = actualMintAmount * 1e18 / exchangeRateMantissa;\r\n\r\n        /*\r\n         * We calculate the new total supply of lendTokens and minter token balance, checking for overflow:\r\n         *  totalSupplyNew = totalSupply + mintTokens\r\n         *  accountTokensNew = accountTokens[minter] + mintTokens\r\n         */\r\n        totalSupplyNew = totalSupply + mintTokens;\r\n        accountTokensNew = accountTokens[minter] + mintTokens;\r\n\r\n\r\n        /* We write previously calculated values into storage */\r\n        totalSupply = totalSupplyNew;\r\n        accountTokens[minter] = accountTokensNew;\r\n\r\n        /* We emit a Mint event, and a Transfer event */\r\n        emit Mint(minter, actualMintAmount, mintTokens);\r\n        emit Transfer(address(this), minter, mintTokens);\r\n\r\n        return (actualMintAmount);\r\n    }\r\n\r\n    /**\r\n     * @notice Sender redeems lendTokens in exchange for the underlying asset\r\n     * @dev Accrues interest whether or not the operation succeeds, unless reverted\r\n     * @param redeemTokens The number of lendTokens to redeem into underlying\r\n     */\r\n    function redeem(uint redeemTokens) external{\r\n        redeemInternal(redeemTokens);\r\n    }\r\n    function redeemInternal(uint redeemTokens) internal nonReentrant {\r\n        accrueInterest();\r\n        redeemFresh(msg.sender, redeemTokens, 0);\r\n    }\r\n\r\n    /**\r\n     * @notice Sender redeems lendTokens in exchange for a specified amount of underlying asset\r\n     * @dev Accrues interest whether or not the operation succeeds, unless reverted\r\n     * @param redeemAmount The amount of underlying to receive from redeeming lendTokens\r\n     */\r\n    function redeemUnderlying(uint redeemAmount) external{\r\n        redeemUnderlyingInternal(redeemAmount);\r\n    }\r\n    function redeemUnderlyingInternal(uint redeemAmount) internal nonReentrant{\r\n        accrueInterest();\r\n        redeemFresh(msg.sender, 0, redeemAmount);\r\n    }\r\n\r\n\r\n    struct RedeemVars {\r\n        uint exchangeRateMantissa;\r\n        uint redeemTokens;\r\n        uint redeemAmount;\r\n        uint totalSupplyNew;\r\n        uint accountTokensNew;\r\n    }\r\n    /**\r\n     * @notice User redeems lendTokens in exchange for the underlying asset\r\n     * @dev Assumes interest has already been accrued up to the current timestamp\r\n     * @param redeemer The address of the account which is redeeming the tokens\r\n     * @param redeemTokensIn The number of lendTokens to redeem into underlying (only one of redeemTokensIn or redeemAmountIn may be non-zero)\r\n     * @param redeemAmountIn The number of underlying tokens to receive from redeeming lendTokens (only one of redeemTokensIn or redeemAmountIn may be non-zero)\r\n     */\r\n    function redeemFresh(address redeemer, uint redeemTokensIn, uint redeemAmountIn) internal{\r\n        require(redeemTokensIn == 0 || redeemAmountIn == 0, \"BAD_INPUT\");\r\n\r\n        RedeemVars memory vars;\r\n\r\n        \r\n        /* exchangeRate = invoke Exchange Rate Stored() */\r\n        vars.exchangeRateMantissa = exchangeRateStored();\r\n        if (vars.exchangeRateMantissa == 0) {\r\n            revert (\"Fail exchange rate\");\r\n        }\r\n\r\n        /* If redeemTokensIn > 0: */\r\n        if (redeemTokensIn > 0) {\r\n            /*\r\n             * We calculate the exchange rate and the amount of underlying to be redeemed:\r\n             *  redeemTokens = redeemTokensIn\r\n             *  redeemAmount = redeemTokensIn x exchangeRateCurrent\r\n             */\r\n            vars.redeemTokens = redeemTokensIn;\r\n\r\n            // redeemAmount is 1e18 :: e18*e18 / 1e18\r\n            vars.redeemAmount = vars.exchangeRateMantissa * redeemTokensIn / 1e18;\r\n        } else {\r\n            /*\r\n             * We get the current exchange rate and calculate the amount to be redeemed:\r\n             *  redeemTokens = redeemAmountIn / exchangeRate\r\n             *  redeemAmount = redeemAmountIn\r\n             */\r\n\r\n            // redeemTokens is 1e18 :: e18 * 1e18 / e18\r\n            vars.redeemTokens = redeemAmountIn * 1e18 / vars.exchangeRateMantissa;\r\n\r\n            vars.redeemAmount = redeemAmountIn;\r\n        }\r\n\r\n        /* Fail if redeem not allowed */\r\n        bool allowed = comptroller.redeemAllowed(address(this), redeemer, vars.redeemTokens);\r\n        if(!allowed){\r\n            revert NotAllowed();\r\n        }\r\n\r\n\r\n        /*\r\n         * We calculate the new total supply and redeemer balance, checking for underflow:\r\n         *  totalSupplyNew = totalSupply - redeemTokens\r\n         *  accountTokensNew = accountTokens[redeemer] - redeemTokens\r\n         */\r\n\r\n        vars.totalSupplyNew = totalSupply - vars.redeemTokens;\r\n\r\n        vars.accountTokensNew = accountTokens[redeemer] - vars.redeemTokens;\r\n\r\n        /* Fail gracefully if protocol has insufficient cash */\r\n        if (getCash() < vars.redeemAmount) {\r\n            revert (\"Insufficient cash\");\r\n        }\r\n\r\n        /////////////////////////\r\n        // EFFECTS & INTERACTIONS\r\n        // (No safe failures beyond this point)\r\n\r\n        /*\r\n         * We invoke doTransferOut for the redeemer and the redeemAmount.\r\n         *  Note: The lendToken must handle variations between ERC-20 and REI underlying.\r\n         *  On success, the lendToken has redeemAmount less of cash.\r\n         *  doTransferOut reverts if anything goes wrong, since we can't be sure if side effects occurred.\r\n         */\r\n\r\n        uint feeAmount;\r\n        uint remainedAmount;\r\n        if (IComptroller(address(comptroller)).treasuryPercent() != 0) {\r\n            //feeAmount is 1e18 :: e18 * e18 /1e18\r\n            feeAmount = vars.redeemAmount * IComptroller(address(comptroller)).treasuryPercent() /1e18;\r\n            remainedAmount = vars.redeemAmount - feeAmount;\r\n\r\n        } else {\r\n            remainedAmount = vars.redeemAmount;\r\n        }\r\n\r\n\r\n        if(feeAmount != 0) {\r\n            //Transfer to address treasury\r\n            doTransferOut(IComptroller(address(comptroller)).treasuryAddress() , feeAmount);\r\n            emit RedeemFee(redeemer, feeAmount, vars.redeemTokens);\r\n        }\r\n        doTransferOut(redeemer, remainedAmount);\r\n\r\n        /* We write previously calculated values into storage */\r\n        totalSupply = vars.totalSupplyNew;\r\n        accountTokens[redeemer] = vars.accountTokensNew;\r\n\r\n        /* We emit a Transfer event, and a Redeem event */\r\n        emit Transfer(redeemer, address(this), vars.redeemTokens);\r\n        emit Redeem(redeemer, remainedAmount, vars.redeemTokens);\r\n    }\r\n\r\n    /**\r\n      * @notice Sender borrows assets from the protocol to their own address\r\n      * @param borrowAmount The amount of the underlying asset to borrow\r\n      */\r\n    function borrow(uint borrowAmount) external {\r\n        borrowInternal(borrowAmount);\r\n    }\r\n    function borrowInternal(uint borrowAmount) internal nonReentrant {\r\n        accrueInterest();\r\n        // borrowFresh emits borrow-specific logs on errors, so we don't need to\r\n        borrowFresh(msg.sender, borrowAmount);\r\n    }\r\n\r\n\r\n    /*\r\n      * @notice Users borrow assets from the protocol to their own address\r\n      * @param borrowAmount The amount of the underlying asset to borrow\r\n    */\r\n    function borrowFresh(address  borrower, uint borrowAmount) internal {\r\n        /* Fail if borrow not allowed */\r\n        bool allowed = comptroller.borrowAllowed(address(this), borrower, borrowAmount);\r\n        if(!allowed){\r\n            revert NotAllowed();\r\n        }\r\n\r\n        /* Fail gracefully if protocol has insufficient underlying cash */\r\n        if (getCash() < borrowAmount) {\r\n            revert(\"TOKEN_INSUFFICIENT_CASH\");\r\n        }\r\n\r\n        uint accountBorrowsNew;\r\n        uint totalBorrowsNew;\r\n\r\n        /*\r\n         * We calculate the new borrower and total borrow balances, failing on overflow:\r\n         *  accountBorrowsNew = accountBorrows + borrowAmount\r\n         *  totalBorrowsNew = totalBorrows + borrowAmount\r\n         */\r\n\r\n        accountBorrowsNew = borrowBalanceStored(borrower) + borrowAmount;\r\n        totalBorrowsNew = totalBorrows + borrowAmount;\r\n\r\n        /////////////////////////\r\n        // EFFECTS & INTERACTIONS\r\n        // (No safe failures beyond this point)\r\n\r\n        /*\r\n         * We invoke doTransferOut for the borrower and the borrowAmount.\r\n         *  Note: The lendToken must handle variations between ERC-20 and REI underlying.\r\n         *  On success, the lendToken borrowAmount less of cash.\r\n         *  doTransferOut reverts if anything goes wrong, since we can't be sure if side effects occurred.\r\n         */\r\n        \r\n        // Verify borrow to ledger\r\n        if (hasBorrowed[borrower] == false){\r\n            hasBorrowed[borrower] = true;\r\n            borrowAddress.push(borrower);\r\n        }\r\n        \r\n            // List borrower to the ledger\r\n        doTransferOut(borrower, borrowAmount);\r\n\r\n        /* We write the previously calculated values into storage */\r\n        accountBorrows[borrower].principal = accountBorrowsNew;\r\n        accountBorrows[borrower].interestIndex = borrowIndex;\r\n        totalBorrows = totalBorrowsNew;\r\n\r\n        /* We emit a Borrow event */\r\n        emit Borrow(borrower, borrowAmount, accountBorrowsNew, totalBorrowsNew);\r\n    }\r\n\r\n    /**\r\n     * @notice Sender repays their own borrow\r\n     * @param repayAmount The amount to repay\r\n     */\r\n    function repayBorrow(uint repayAmount) external returns (uint) {\r\n        return repayBorrowInternal(repayAmount);\r\n    }\r\n    function repayBorrowInternal(uint repayAmount) internal nonReentrant returns (uint) {\r\n        accrueInterest();\r\n        // repayBorrowFresh emits repay-borrow-specific logs on errors, so we don't need to\r\n        return repayBorrowFresh(msg.sender, msg.sender, repayAmount);\r\n    }\r\n\r\n\r\n    /**\r\n     * @notice Borrows are repaid by another user (possibly the borrower).\r\n     * @param payer the account paying off the borrow\r\n     * @param borrower the account with the debt being payed off\r\n     * @param repayAmount the amount of undelrying tokens being returned\r\n     */\r\n    function repayBorrowFresh(address payer, address borrower, uint repayAmount) internal returns (uint) {\r\n        /* Fail if repayBorrow not allowed */\r\n        bool allowed = comptroller.repayBorrowAllowed(address(this), borrower);\r\n        if(!allowed){\r\n            revert NotAllowed();\r\n        }\r\n\r\n        uint localvarsRepayAmount;\r\n        uint borrowerIndex;\r\n        uint localvarsAccountBorrows;\r\n        uint accountBorrowsNew;\r\n        uint totalBorrowsNew;\r\n        uint actualRepayAmount;\r\n\r\n        /* We remember the original borrowerIndex for verification purposes */\r\n        borrowerIndex = accountBorrows[borrower].interestIndex;\r\n\r\n        /* We fetch the amount the borrower owes, with accumulated interest */\r\n        localvarsAccountBorrows = borrowBalanceStored(borrower);\r\n\r\n        /* this part is modified from venus vToken contract,  */\r\n        // prevent over repay by change repayAmount to maximum repay (total borrowed amount)\r\n        if (repayAmount >= localvarsAccountBorrows) {\r\n            localvarsRepayAmount = localvarsAccountBorrows;\r\n        } else {\r\n            localvarsRepayAmount = repayAmount;\r\n        }\r\n\r\n        /////////////////////////\r\n        // EFFECTS & INTERACTIONS\r\n        // (No safe failures beyond this point)\r\n\r\n        /*\r\n         * We call doTransferIn for the payer and the repayAmount\r\n         *  Note: The lendToken must handle variations between ERC-20 and REI underlying.\r\n         *  On success, the lendToken holds an additional repayAmount of cash.\r\n         *  doTransferIn reverts if anything goes wrong, since we can't be sure if side effects occurred.\r\n         *   it returns the amount actually transferred, in case of a fee.\r\n         */\r\n        actualRepayAmount = doTransferIn(payer, localvarsRepayAmount);\r\n\r\n        /*\r\n         * We calculate the new borrower and total borrow balances, failing on underflow:\r\n         *  accountBorrowsNew = accountBorrows - actualRepayAmount\r\n         *  totalBorrowsNew = totalBorrows - actualRepayAmount\r\n         */\r\n        accountBorrowsNew = localvarsAccountBorrows - actualRepayAmount;\r\n\r\n        totalBorrowsNew = totalBorrows - actualRepayAmount;\r\n\r\n        /* We write the previously calculated values into storage */\r\n        accountBorrows[borrower].principal = accountBorrowsNew;\r\n        accountBorrows[borrower].interestIndex = borrowIndex;\r\n        totalBorrows = totalBorrowsNew;\r\n\r\n        /* We emit a RepayBorrow event */\r\n        emit RepayBorrow(payer, borrower, actualRepayAmount, accountBorrowsNew, totalBorrowsNew);\r\n\r\n        return actualRepayAmount;\r\n    }\r\n\r\n    function liquidateBorrow(address borrower, uint repayAmount, LendTokenInterface lendTokenCollateral) external returns (uint) {\r\n        return liquidateBorrowInternal(borrower, repayAmount, lendTokenCollateral);\r\n    }\r\n    /**\r\n     * @notice The sender liquidates the borrowers collateral.\r\n     *  The collateral seized is transferred to the liquidator.\r\n     * @param borrower The borrower of this lendToken to be liquidated\r\n     * @param lendTokenCollateral The market in which to seize collateral from the borrower\r\n     * @param repayAmount The amount of the underlying borrowed asset to repay\r\n     */\r\n    function liquidateBorrowInternal(address borrower, uint repayAmount, LendTokenInterface lendTokenCollateral) internal nonReentrant returns (uint) {\r\n        //Interest must be update in this and Collateral lendToken\r\n        accrueInterest();\r\n        lendTokenCollateral.accrueInterest();\r\n\r\n        address liquidator = msg.sender;\r\n\r\n        /* Fail if liquidate not allowed */\r\n        bool allowed = comptroller.liquidateBorrowAllowed(address(this), address(lendTokenCollateral), borrower, repayAmount);\r\n        if(!allowed){\r\n            revert NotAllowed();\r\n        }\r\n\r\n        /* Verify lendTokenCollateral market's lastTimestamp equals current timestamp */\r\n        if (lendTokenCollateral.accrualTimestamp() != block.timestamp) {\r\n            revert (\"TIME MISMATCH\");\r\n        }\r\n\r\n        /* Fail if borrower = liquidator */\r\n        if (borrower == liquidator) {\r\n            revert (\"CAN'T SELF LIQUIDATE\");\r\n        }\r\n\r\n        /* Fail if repayAmount = 0 */\r\n        if (repayAmount == 0) {\r\n            revert (\"Amount = 0\");\r\n        }\r\n\r\n        /* Fail if repayAmount = -1 */\r\n        if (repayAmount == type(uint).max) {\r\n            revert (\"AMOUNT is MAX value\");\r\n        }\r\n\r\n        /* Fail if repayBorrow fails */\r\n        uint actualRepayAmount = repayBorrowFresh(liquidator, borrower, repayAmount);\r\n\r\n        /////////////////////////\r\n        // EFFECTS & INTERACTIONS\r\n        // (No safe failures beyond this point)\r\n\r\n        /* We calculate the number of collateral tokens that will be seized */\r\n        uint seizeTokens = comptroller.liquidateCalculateSeizeTokens(address(this), address(lendTokenCollateral), actualRepayAmount);\r\n\r\n        /* Revert if borrower collateral token balance < seizeTokens */\r\n        require(lendTokenCollateral.balanceOf(borrower) >= seizeTokens, \"LIQUIDATE_SEIZE_TOO_MUCH\");\r\n\r\n        // If this is also the collateral, run seizeInternal to avoid re-entrancy, otherwise make an external call\r\n        if (address(lendTokenCollateral) == address(this)) {\r\n            seizeInternal(address(this), liquidator, borrower, seizeTokens);\r\n        } else {\r\n            lendTokenCollateral.seize(liquidator, borrower, seizeTokens);\r\n        }\r\n\r\n\r\n        /* We emit a LiquidateBorrow event */\r\n        emit LiquidateBorrow(liquidator, borrower, actualRepayAmount, address(lendTokenCollateral), seizeTokens);\r\n\r\n        return actualRepayAmount;\r\n    }\r\n\r\n\r\n\r\n    /**\r\n     * @notice Transfers collateral tokens (this market) to the liquidator.\r\n     * @dev Will fail unless called by another lendToken during the process of liquidation.\r\n     *  Its absolutely critical to use msg.sender as the borrowed lendToken and not a parameter.\r\n     * @param liquidator The account receiving seized collateral\r\n     * @param borrower The account having collateral seized\r\n     * @param seizeTokens The number of lendTokens to seize\r\n     */\r\n    function seize(address liquidator, address borrower, uint seizeTokens) external nonReentrant{\r\n        // msg.sender pass the contract caller address to get allowance.\r\n        // only Collateral LendToken OR aurumController which are listed in market can call and got allowed.\r\n        seizeInternal(msg.sender, liquidator, borrower, seizeTokens);\r\n    }\r\n\r\n    /**\r\n     * @notice Transfers collateral tokens (this market) to the liquidator.\r\n     * @dev Called only during an in-kind liquidation, or by liquidateBorrow during the liquidation of another lendToken.\r\n     *  Its absolutely critical to use msg.sender as the seizer lendToken and not a parameter.\r\n     * @param seizerToken The contract seizing the collateral (i.e. borrowed lendToken)\r\n     * @param liquidator The account receiving seized collateral\r\n     * @param borrower The account having collateral seized\r\n     * @param seizeTokens The number of lendTokens to seize\r\n     */\r\n    function seizeInternal(address seizerToken, address liquidator, address borrower, uint seizeTokens) internal{\r\n        /* Fail if seize not allowed */\r\n        bool allowed = comptroller.seizeAllowed(address(this), seizerToken, liquidator, borrower);\r\n        if(!allowed){\r\n            revert NotAllowed();\r\n        }\r\n\r\n        /* Fail if borrower = liquidator */\r\n        if (borrower == liquidator) {\r\n            revert (\"CAN'T SELF LIQUIDATE\");\r\n        }\r\n\r\n        uint borrowerTokensNew;\r\n        uint liquidatorTokensNew;\r\n\r\n        /*\r\n         * We calculate the new borrower and liquidator token balances, failing on underflow/overflow:\r\n         *  borrowerTokensNew = accountTokens[borrower] - seizeTokens\r\n         *  liquidatorTokensNew = accountTokens[liquidator] + seizeTokens\r\n         */\r\n        borrowerTokensNew = accountTokens[borrower] - seizeTokens;\r\n\r\n        liquidatorTokensNew = accountTokens[liquidator] + seizeTokens;\r\n\r\n        /////////////////////////\r\n        // EFFECTS & INTERACTIONS\r\n        // (No safe failures beyond this point)\r\n\r\n        /* We write the previously calculated values into storage */\r\n        accountTokens[borrower] = borrowerTokensNew;\r\n        accountTokens[liquidator] = liquidatorTokensNew;\r\n\r\n        /* Emit a Transfer event */\r\n        emit Transfer(borrower, liquidator, seizeTokens);\r\n    }\r\n\r\n\r\n    /*** Admin Functions ***/\r\n\r\n\r\n    function _setAdmin(address newAdmin) external{\r\n        // Check caller = admin\r\n        if (msg.sender != admin) {\r\n            revert(\"UNAUTHORIZED\");\r\n        }\r\n\r\n        address oldAdmin = admin;\r\n        admin = newAdmin;\r\n\r\n        emit NewAdmin(oldAdmin, newAdmin);\r\n    }\r\n\r\n    //Collect fee to admin\r\n    function _reduceReserves(uint reduceAmount) external {\r\n        if (msg.sender != admin) {\r\n            revert(\"UNAUTHORIZED\");\r\n        }\r\n        accrueInterest();\r\n        // Fail gracefully if protocol has insufficient underlying cash\r\n        if (getCash() < reduceAmount) {\r\n            revert (\"INSUFFICIENT CASH\");\r\n        }\r\n\r\n        // Check reduceAmount  reserves[n] (totalReserves)\r\n        if (reduceAmount > totalReserves) {\r\n            revert (\"INSUFFICIENT RESERVES\");\r\n        }\r\n\r\n        // totalReserves - reduceAmount\r\n        uint totalReservesNew;\r\n\r\n        /////////////////////////\r\n        // EFFECTS & INTERACTIONS\r\n        // (No safe failures beyond this point)\r\n\r\n        totalReservesNew = totalReserves - reduceAmount;\r\n\r\n        // Store reserves[n+1] = reserves[n] - reduceAmount\r\n        totalReserves = totalReservesNew;\r\n\r\n        doTransferOut(admin, reduceAmount);\r\n\r\n        emit ReservesReduced(admin, reduceAmount, totalReservesNew);\r\n        // doTransferOut reverts if anything goes wrong, since we can't be sure if side effects occurred.\r\n    }\r\n\r\n    function _setReserveFactor(uint newReserveFactorMantissa) external {\r\n        //Only admin function\r\n        require (msg.sender == admin,\"Only admin function\");\r\n        accrueInterest();\r\n\r\n        // Check newReserveFactor  maxReserveFactor\r\n        if (newReserveFactorMantissa > reserveFactorMaxMantissa) {\r\n            revert (\"Value greater than max\");\r\n        }\r\n\r\n        uint oldReserveFactorMantissa = reserveFactorMantissa;\r\n        reserveFactorMantissa = newReserveFactorMantissa;\r\n\r\n        emit NewReserveFactor(oldReserveFactorMantissa, newReserveFactorMantissa);\r\n    }\r\n\r\n    function _setInterestRateModel(InterestRateModel newInterestRateModel) external {\r\n        require (msg.sender == admin, \"Only admin\");\r\n\r\n        accrueInterest();\r\n\r\n        // _setInterestRateModelFresh emits interest-rate-model-update-specific logs on errors, so we don't need to.\r\n        // Used to store old model for use in the event that is emitted on success\r\n        InterestRateModel oldInterestRateModel;\r\n\r\n        // Track the market's current interest rate model\r\n        oldInterestRateModel = interestRateModel;\r\n\r\n        // Ensure invoke newInterestRateModel.isInterestRateModel() returns true\r\n        require(newInterestRateModel.isInterestRateModel(), \"marker method returned false\");\r\n\r\n        // Set the interest rate model to newInterestRateModel\r\n        interestRateModel = newInterestRateModel;\r\n\r\n        // Emit NewMarketInterestRateModel(oldInterestRateModel, newInterestRateModel)\r\n        emit NewMarketInterestRateModel(oldInterestRateModel, newInterestRateModel);\r\n    }\r\n\r\n    function _setComptroller(ComptrollerInterface newComptroller) external{\r\n        require (msg.sender == admin, \"Only admin\");\r\n\r\n        ComptrollerInterface oldComptroller = comptroller;\r\n        // Ensure invoke comptroller.isComptroller() returns true\r\n        require(newComptroller.isComptroller(), \"marker method returned false\");\r\n\r\n        // Set market's comptroller to newComptroller\r\n        comptroller = newComptroller;\r\n\r\n        // Emit NewComptroller(oldComptroller, newComptroller)\r\n        emit NewComptroller(oldComptroller, newComptroller);\r\n\r\n    }\r\n\r\n    /*** Safe Token ***/\r\n\r\n    /**\r\n     * @dev Similar to EIP20 transfer, except it handles a False result from `transferFrom` and reverts in that case.\r\n     *      This will revert due to insufficient balance or insufficient allowance.\r\n     *      This function returns the actual amount received,\r\n     *      which may be less than `amount` if there is a fee attached to the transfer.\r\n     *\r\n     *      Note: This wrapper safely handles non-standard ERC-20 tokens that do not return a value.\r\n     *            See here: https://medium.com/coinmonks/missing-return-value-bug-at-least-130-tokens-affected-d67bf08521ca\r\n     */\r\n    function doTransferIn(address from, uint amount) internal returns (uint) {\r\n        EIP20NonStandardInterface token = EIP20NonStandardInterface(underlying);\r\n        uint balanceBefore = IERC20(underlying).balanceOf(address(this));\r\n        token.transferFrom(from, address(this), amount);\r\n\r\n        bool success;\r\n        assembly {\r\n            switch returndatasize()\r\n                case 0 {                       // This is a non-standard ERC-20\r\n                    success := not(0)          // set success to true\r\n                }\r\n                case 32 {                      // This is a compliant ERC-20\r\n                    returndatacopy(0, 0, 32)\r\n                    success := mload(0)        // Set `success = returndata` of external call\r\n                }\r\n                default {                      // This is an excessively non-compliant ERC-20, revert.\r\n                    revert(0, 0)\r\n                }\r\n        }\r\n        require(success, \"TOKEN_TRANSFER_IN_FAILED\");\r\n\r\n        // Calculate the amount that was *actually* transferred\r\n        uint balanceAfter = IERC20(underlying).balanceOf(address(this));\r\n        require(balanceAfter >= balanceBefore, \"TOKEN_TRANSFER_IN_OVERFLOW\");\r\n        return balanceAfter - balanceBefore;   // underflow already checked above, just subtract\r\n    }\r\n\r\n\r\n    /**\r\n     * @dev Similar to EIP20 transfer, except it handles a False success from `transfer` and returns an explanatory\r\n     *      error code rather than reverting. If caller has not called checked protocol's balance, this may revert due to\r\n     *      insufficient cash held in this contract. If caller has checked protocol's balance prior to this call, and verified\r\n     *      it is >= amount, this should not revert in normal conditions.\r\n     *\r\n     *      Note: This wrapper safely handles non-standard ERC-20 tokens that do not return a value.\r\n     *            See here: https://medium.com/coinmonks/missing-return-value-bug-at-least-130-tokens-affected-d67bf08521ca\r\n     */\r\n    function doTransferOut(address to, uint amount) internal {\r\n        EIP20NonStandardInterface token = EIP20NonStandardInterface(underlying);\r\n        token.transfer(to, amount);\r\n\r\n        bool success;\r\n        assembly {\r\n            switch returndatasize()\r\n                case 0 {                      // This is a non-standard ERC-20\r\n                    success := not(0)          // set success to true\r\n                }\r\n                case 32 {                     // This is a complaint ERC-20\r\n                    returndatacopy(0, 0, 32)\r\n                    success := mload(0)        // Set `success = returndata` of external call\r\n                }\r\n                default {                     // This is an excessively non-compliant ERC-20, revert.\r\n                    revert(0, 0)\r\n                }\r\n        }\r\n        require(success, \"TOKEN_TRANSFER_OUT_FAILED\");\r\n    }\r\n}",
  "sourcePath": "C:\\Users\\chana\\desktop\\aurumdefi\\src\\contracts\\LendToken.sol",
  "compiler": {
    "name": "solc",
    "version": "0.8.12+commit.f00d7308.Emscripten.clang"
  },
  "schemaVersion": "3.4.6",
  "updatedAt": "2022-04-28T14:57:08.983Z",
  "devdoc": {
    "kind": "dev",
    "methods": {
      "accrueInterest()": {
        "details": "This calculates interest accrued from the last checkpointed timestamp   up to the current timestamp and writes new checkpoint to storage."
      },
      "allowance(address,address)": {
        "params": {
          "owner": "The address of the account which owns the tokens to be spent",
          "spender": "The address of the account which may transfer tokens"
        },
        "returns": {
          "_0": "The number of tokens allowed to be spent"
        }
      },
      "approve(address,uint256)": {
        "details": "This will overwrite the approval amount for `spender`  and is subject to issues noted [here](https://eips.ethereum.org/EIPS/eip-20#approve)",
        "params": {
          "amount": "The number of tokens that are approved",
          "spender": "The address of the account which may transfer tokens"
        }
      },
      "balanceOf(address)": {
        "params": {
          "owner": "The address of the account to query"
        },
        "returns": {
          "_0": "The number of tokens owned by `owner`"
        }
      },
      "balanceOfUnderlying(address)": {
        "details": "This also accrues interest in a transaction",
        "params": {
          "owner": "The address of the account to query"
        },
        "returns": {
          "_0": "The amount of underlying owned by `owner`"
        }
      },
      "borrow(uint256)": {
        "params": {
          "borrowAmount": "The amount of the underlying asset to borrow"
        }
      },
      "borrowBalanceStored(address)": {
        "params": {
          "account": "The address whose balance should be calculated"
        },
        "returns": {
          "_0": "The principal * market borrow index / recorded borrowIndex"
        }
      },
      "borrowRatePerSeconds()": {
        "returns": {
          "_0": "The borrow interest rate per seconds, scaled by 1e18"
        }
      },
      "exchangeRateCurrent()": {
        "returns": {
          "_0": "Calculated exchange rate scaled by 1e18"
        }
      },
      "exchangeRateStored()": {
        "details": "This function does not accrue interest before calculating the exchange rate      ",
        "returns": {
          "_0": "Calculated exchange rate scaled by 1e18"
        }
      },
      "getAccountSnapshot(address)": {
        "details": "This is used by comptroller to more efficiently perform liquidity checks.",
        "params": {
          "account": "Address of the account to snapshot"
        },
        "returns": {
          "_0": "(possible error, token balance, borrow balance, exchange rate mantissa)"
        }
      },
      "getCash()": {
        "returns": {
          "_0": "The quantity of underlying asset owned by this contract"
        }
      },
      "mint(uint256)": {
        "details": "Accrues interest whether or not the operation succeeds, unless reverted",
        "params": {
          "mintAmount": "The amount of the underlying asset to supply"
        },
        "returns": {
          "_0": "(uint) the actual mint amount."
        }
      },
      "redeem(uint256)": {
        "details": "Accrues interest whether or not the operation succeeds, unless reverted",
        "params": {
          "redeemTokens": "The number of lendTokens to redeem into underlying"
        }
      },
      "redeemUnderlying(uint256)": {
        "details": "Accrues interest whether or not the operation succeeds, unless reverted",
        "params": {
          "redeemAmount": "The amount of underlying to receive from redeeming lendTokens"
        }
      },
      "repayBorrow(uint256)": {
        "params": {
          "repayAmount": "The amount to repay"
        }
      },
      "seize(address,address,uint256)": {
        "details": "Will fail unless called by another lendToken during the process of liquidation.  Its absolutely critical to use msg.sender as the borrowed lendToken and not a parameter.",
        "params": {
          "borrower": "The account having collateral seized",
          "liquidator": "The account receiving seized collateral",
          "seizeTokens": "The number of lendTokens to seize"
        }
      },
      "supplyRatePerSeconds()": {
        "returns": {
          "_0": "The supply interest rate per seconds, scaled by 1e18"
        }
      },
      "transfer(address,uint256)": {
        "params": {
          "amount": "The number of tokens to transfer",
          "dst": "The address of the destination account"
        }
      },
      "transferFrom(address,address,uint256)": {
        "params": {
          "amount": "The number of tokens to transfer",
          "dst": "The address of the destination account",
          "src": "The address of the source account"
        }
      }
    },
    "version": 1
  },
  "userdoc": {
    "events": {
      "Approval(address,address,uint256)": {
        "notice": "EIP20 Approval event"
      },
      "Transfer(address,address,uint256)": {
        "notice": "EIP20 Transfer event"
      }
    },
    "kind": "user",
    "methods": {
      "accrueInterest()": {
        "notice": "Applies accrued interest to total borrows and reserves"
      },
      "allowance(address,address)": {
        "notice": "Get the current allowance from `owner` for `spender`"
      },
      "approve(address,uint256)": {
        "notice": "Approve `spender` to transfer up to `amount` from `src`"
      },
      "balanceOf(address)": {
        "notice": "Get the token balance of the `owner`"
      },
      "balanceOfUnderlying(address)": {
        "notice": "Get the underlying balance of the `owner`"
      },
      "borrow(uint256)": {
        "notice": "Sender borrows assets from the protocol to their own address"
      },
      "borrowBalanceStored(address)": {
        "notice": "Return the borrow balance of account based on stored data"
      },
      "borrowRatePerSeconds()": {
        "notice": "Returns the current per-seconds borrow interest rate for this LendToken"
      },
      "exchangeRateCurrent()": {
        "notice": "Accrue interest then return the up-to-date exchange rate"
      },
      "exchangeRateStored()": {
        "notice": "Calculates the exchange rate from the underlying to the lendToken"
      },
      "getAccountSnapshot(address)": {
        "notice": "Get a snapshot of the account's balances, and the cached exchange rate"
      },
      "getCash()": {
        "notice": "Get cash balance of this lendToken in the underlying asset"
      },
      "mint(uint256)": {
        "notice": "Sender supplies assets into the market and receives lendTokens in exchange"
      },
      "redeem(uint256)": {
        "notice": "Sender redeems lendTokens in exchange for the underlying asset"
      },
      "redeemUnderlying(uint256)": {
        "notice": "Sender redeems lendTokens in exchange for a specified amount of underlying asset"
      },
      "repayBorrow(uint256)": {
        "notice": "Sender repays their own borrow"
      },
      "seize(address,address,uint256)": {
        "notice": "Transfers collateral tokens (this market) to the liquidator."
      },
      "supplyRatePerSeconds()": {
        "notice": "Returns the current per-seconds supply interest rate for this lendToken"
      },
      "transfer(address,uint256)": {
        "notice": "Transfer `amount` tokens from `msg.sender` to `dst`"
      },
      "transferFrom(address,address,uint256)": {
        "notice": "Transfer `amount` tokens from `src` to `dst`"
      }
    },
    "version": 1
  }
}