{
  "contractName": "LendREI",
  "abi": [
    {
      "inputs": [
        {
          "internalType": "string",
          "name": "name_",
          "type": "string"
        },
        {
          "internalType": "string",
          "name": "symbol_",
          "type": "string"
        },
        {
          "internalType": "uint8",
          "name": "decimals_",
          "type": "uint8"
        },
        {
          "internalType": "address",
          "name": "interestRateModel_",
          "type": "address"
        },
        {
          "internalType": "address",
          "name": "comptroller_",
          "type": "address"
        }
      ],
      "stateMutability": "nonpayable",
      "type": "constructor"
    },
    {
      "anonymous": false,
      "inputs": [
        {
          "indexed": false,
          "internalType": "uint256",
          "name": "cashPrior",
          "type": "uint256"
        },
        {
          "indexed": false,
          "internalType": "uint256",
          "name": "interestAccumulated",
          "type": "uint256"
        },
        {
          "indexed": false,
          "internalType": "uint256",
          "name": "borrowIndex",
          "type": "uint256"
        },
        {
          "indexed": false,
          "internalType": "uint256",
          "name": "totalBorrows",
          "type": "uint256"
        }
      ],
      "name": "AccrueInterest",
      "type": "event"
    },
    {
      "anonymous": false,
      "inputs": [
        {
          "indexed": true,
          "internalType": "address",
          "name": "owner",
          "type": "address"
        },
        {
          "indexed": true,
          "internalType": "address",
          "name": "spender",
          "type": "address"
        },
        {
          "indexed": false,
          "internalType": "uint256",
          "name": "amount",
          "type": "uint256"
        }
      ],
      "name": "Approval",
      "type": "event"
    },
    {
      "anonymous": false,
      "inputs": [
        {
          "indexed": false,
          "internalType": "address",
          "name": "borrower",
          "type": "address"
        },
        {
          "indexed": false,
          "internalType": "uint256",
          "name": "borrowAmount",
          "type": "uint256"
        },
        {
          "indexed": false,
          "internalType": "uint256",
          "name": "accountBorrows",
          "type": "uint256"
        },
        {
          "indexed": false,
          "internalType": "uint256",
          "name": "totalBorrows",
          "type": "uint256"
        }
      ],
      "name": "Borrow",
      "type": "event"
    },
    {
      "anonymous": false,
      "inputs": [
        {
          "indexed": false,
          "internalType": "address",
          "name": "liquidator",
          "type": "address"
        },
        {
          "indexed": false,
          "internalType": "address",
          "name": "borrower",
          "type": "address"
        },
        {
          "indexed": false,
          "internalType": "uint256",
          "name": "repayAmount",
          "type": "uint256"
        },
        {
          "indexed": false,
          "internalType": "address",
          "name": "LendTokenCollateral",
          "type": "address"
        },
        {
          "indexed": false,
          "internalType": "uint256",
          "name": "seizeTokens",
          "type": "uint256"
        }
      ],
      "name": "LiquidateBorrow",
      "type": "event"
    },
    {
      "anonymous": false,
      "inputs": [
        {
          "indexed": false,
          "internalType": "address",
          "name": "minter",
          "type": "address"
        },
        {
          "indexed": false,
          "internalType": "uint256",
          "name": "mintAmount",
          "type": "uint256"
        },
        {
          "indexed": false,
          "internalType": "uint256",
          "name": "mintTokens",
          "type": "uint256"
        }
      ],
      "name": "Mint",
      "type": "event"
    },
    {
      "anonymous": false,
      "inputs": [
        {
          "indexed": false,
          "internalType": "address",
          "name": "oldLendToken",
          "type": "address"
        },
        {
          "indexed": false,
          "internalType": "address",
          "name": "newLendToken",
          "type": "address"
        }
      ],
      "name": "NEW_SUPERVISE_TOKEN",
      "type": "event"
    },
    {
      "anonymous": false,
      "inputs": [
        {
          "indexed": false,
          "internalType": "address",
          "name": "oldAdmin",
          "type": "address"
        },
        {
          "indexed": false,
          "internalType": "address",
          "name": "newAdmin",
          "type": "address"
        }
      ],
      "name": "NewAdmin",
      "type": "event"
    },
    {
      "anonymous": false,
      "inputs": [
        {
          "indexed": false,
          "internalType": "contract ComptrollerInterface",
          "name": "oldComptroller",
          "type": "address"
        },
        {
          "indexed": false,
          "internalType": "contract ComptrollerInterface",
          "name": "newComptroller",
          "type": "address"
        }
      ],
      "name": "NewComptroller",
      "type": "event"
    },
    {
      "anonymous": false,
      "inputs": [
        {
          "indexed": false,
          "internalType": "address",
          "name": "oldLendTokenStorage",
          "type": "address"
        },
        {
          "indexed": false,
          "internalType": "address",
          "name": "newLendTokenStorage",
          "type": "address"
        }
      ],
      "name": "NewLendTokenStorage",
      "type": "event"
    },
    {
      "anonymous": false,
      "inputs": [
        {
          "indexed": false,
          "internalType": "contract InterestRateModel",
          "name": "oldInterestRateModel",
          "type": "address"
        },
        {
          "indexed": false,
          "internalType": "contract InterestRateModel",
          "name": "newInterestRateModel",
          "type": "address"
        }
      ],
      "name": "NewMarketInterestRateModel",
      "type": "event"
    },
    {
      "anonymous": false,
      "inputs": [
        {
          "indexed": false,
          "internalType": "uint256",
          "name": "oldReserveFactorMantissa",
          "type": "uint256"
        },
        {
          "indexed": false,
          "internalType": "uint256",
          "name": "newReserveFactorMantissa",
          "type": "uint256"
        }
      ],
      "name": "NewReserveFactor",
      "type": "event"
    },
    {
      "anonymous": false,
      "inputs": [
        {
          "indexed": false,
          "internalType": "address",
          "name": "redeemer",
          "type": "address"
        },
        {
          "indexed": false,
          "internalType": "uint256",
          "name": "redeemAmount",
          "type": "uint256"
        },
        {
          "indexed": false,
          "internalType": "uint256",
          "name": "redeemTokens",
          "type": "uint256"
        }
      ],
      "name": "Redeem",
      "type": "event"
    },
    {
      "anonymous": false,
      "inputs": [
        {
          "indexed": false,
          "internalType": "address",
          "name": "redeemer",
          "type": "address"
        },
        {
          "indexed": false,
          "internalType": "uint256",
          "name": "feeAmount",
          "type": "uint256"
        },
        {
          "indexed": false,
          "internalType": "uint256",
          "name": "redeemTokens",
          "type": "uint256"
        }
      ],
      "name": "RedeemFee",
      "type": "event"
    },
    {
      "anonymous": false,
      "inputs": [
        {
          "indexed": false,
          "internalType": "address",
          "name": "payer",
          "type": "address"
        },
        {
          "indexed": false,
          "internalType": "address",
          "name": "borrower",
          "type": "address"
        },
        {
          "indexed": false,
          "internalType": "uint256",
          "name": "repayAmount",
          "type": "uint256"
        },
        {
          "indexed": false,
          "internalType": "uint256",
          "name": "accountBorrows",
          "type": "uint256"
        },
        {
          "indexed": false,
          "internalType": "uint256",
          "name": "totalBorrows",
          "type": "uint256"
        }
      ],
      "name": "RepayBorrow",
      "type": "event"
    },
    {
      "anonymous": false,
      "inputs": [
        {
          "indexed": false,
          "internalType": "address",
          "name": "benefactor",
          "type": "address"
        },
        {
          "indexed": false,
          "internalType": "uint256",
          "name": "addAmount",
          "type": "uint256"
        },
        {
          "indexed": false,
          "internalType": "uint256",
          "name": "newTotalReserves",
          "type": "uint256"
        }
      ],
      "name": "ReservesAdded",
      "type": "event"
    },
    {
      "anonymous": false,
      "inputs": [
        {
          "indexed": false,
          "internalType": "address",
          "name": "admin",
          "type": "address"
        },
        {
          "indexed": false,
          "internalType": "uint256",
          "name": "reduceAmount",
          "type": "uint256"
        },
        {
          "indexed": false,
          "internalType": "uint256",
          "name": "newTotalReserves",
          "type": "uint256"
        }
      ],
      "name": "ReservesReduced",
      "type": "event"
    },
    {
      "anonymous": false,
      "inputs": [
        {
          "indexed": true,
          "internalType": "address",
          "name": "from",
          "type": "address"
        },
        {
          "indexed": true,
          "internalType": "address",
          "name": "to",
          "type": "address"
        },
        {
          "indexed": false,
          "internalType": "uint256",
          "name": "amount",
          "type": "uint256"
        }
      ],
      "name": "Transfer",
      "type": "event"
    },
    {
      "inputs": [
        {
          "internalType": "address",
          "name": "",
          "type": "address"
        }
      ],
      "name": "accountBorrows",
      "outputs": [
        {
          "internalType": "uint256",
          "name": "principal",
          "type": "uint256"
        },
        {
          "internalType": "uint256",
          "name": "interestIndex",
          "type": "uint256"
        }
      ],
      "stateMutability": "view",
      "type": "function"
    },
    {
      "inputs": [],
      "name": "accrualTimestamp",
      "outputs": [
        {
          "internalType": "uint256",
          "name": "",
          "type": "uint256"
        }
      ],
      "stateMutability": "view",
      "type": "function"
    },
    {
      "inputs": [],
      "name": "admin",
      "outputs": [
        {
          "internalType": "address",
          "name": "",
          "type": "address"
        }
      ],
      "stateMutability": "view",
      "type": "function"
    },
    {
      "inputs": [
        {
          "internalType": "uint256",
          "name": "",
          "type": "uint256"
        }
      ],
      "name": "borrowAddress",
      "outputs": [
        {
          "internalType": "address",
          "name": "",
          "type": "address"
        }
      ],
      "stateMutability": "view",
      "type": "function"
    },
    {
      "inputs": [],
      "name": "borrowIndex",
      "outputs": [
        {
          "internalType": "uint256",
          "name": "",
          "type": "uint256"
        }
      ],
      "stateMutability": "view",
      "type": "function"
    },
    {
      "inputs": [],
      "name": "borrowRateMaxMantissa",
      "outputs": [
        {
          "internalType": "uint256",
          "name": "",
          "type": "uint256"
        }
      ],
      "stateMutability": "view",
      "type": "function"
    },
    {
      "inputs": [],
      "name": "comptroller",
      "outputs": [
        {
          "internalType": "contract ComptrollerInterface",
          "name": "",
          "type": "address"
        }
      ],
      "stateMutability": "view",
      "type": "function"
    },
    {
      "inputs": [],
      "name": "decimals",
      "outputs": [
        {
          "internalType": "uint8",
          "name": "",
          "type": "uint8"
        }
      ],
      "stateMutability": "view",
      "type": "function"
    },
    {
      "inputs": [],
      "name": "initialExchangeRateMantissa",
      "outputs": [
        {
          "internalType": "uint256",
          "name": "",
          "type": "uint256"
        }
      ],
      "stateMutability": "view",
      "type": "function"
    },
    {
      "inputs": [],
      "name": "interestRateModel",
      "outputs": [
        {
          "internalType": "contract InterestRateModel",
          "name": "",
          "type": "address"
        }
      ],
      "stateMutability": "view",
      "type": "function"
    },
    {
      "inputs": [],
      "name": "name",
      "outputs": [
        {
          "internalType": "string",
          "name": "",
          "type": "string"
        }
      ],
      "stateMutability": "view",
      "type": "function"
    },
    {
      "inputs": [],
      "name": "reserveFactorMantissa",
      "outputs": [
        {
          "internalType": "uint256",
          "name": "",
          "type": "uint256"
        }
      ],
      "stateMutability": "view",
      "type": "function"
    },
    {
      "inputs": [],
      "name": "reserveFactorMaxMantissa",
      "outputs": [
        {
          "internalType": "uint256",
          "name": "",
          "type": "uint256"
        }
      ],
      "stateMutability": "view",
      "type": "function"
    },
    {
      "inputs": [],
      "name": "symbol",
      "outputs": [
        {
          "internalType": "string",
          "name": "",
          "type": "string"
        }
      ],
      "stateMutability": "view",
      "type": "function"
    },
    {
      "inputs": [],
      "name": "totalBorrows",
      "outputs": [
        {
          "internalType": "uint256",
          "name": "",
          "type": "uint256"
        }
      ],
      "stateMutability": "view",
      "type": "function"
    },
    {
      "inputs": [],
      "name": "totalReserves",
      "outputs": [
        {
          "internalType": "uint256",
          "name": "",
          "type": "uint256"
        }
      ],
      "stateMutability": "view",
      "type": "function"
    },
    {
      "inputs": [],
      "name": "totalSupply",
      "outputs": [
        {
          "internalType": "uint256",
          "name": "",
          "type": "uint256"
        }
      ],
      "stateMutability": "view",
      "type": "function"
    },
    {
      "stateMutability": "payable",
      "type": "receive"
    },
    {
      "inputs": [],
      "name": "isLendToken",
      "outputs": [
        {
          "internalType": "bool",
          "name": "",
          "type": "bool"
        }
      ],
      "stateMutability": "pure",
      "type": "function"
    },
    {
      "inputs": [
        {
          "internalType": "address",
          "name": "user",
          "type": "address"
        }
      ],
      "name": "getAccountBorrows",
      "outputs": [
        {
          "internalType": "uint256",
          "name": "",
          "type": "uint256"
        },
        {
          "internalType": "uint256",
          "name": "",
          "type": "uint256"
        }
      ],
      "stateMutability": "view",
      "type": "function"
    },
    {
      "inputs": [],
      "name": "getBorrowAddress",
      "outputs": [
        {
          "internalType": "address[]",
          "name": "",
          "type": "address[]"
        }
      ],
      "stateMutability": "view",
      "type": "function"
    },
    {
      "inputs": [
        {
          "internalType": "address",
          "name": "dst",
          "type": "address"
        },
        {
          "internalType": "uint256",
          "name": "amount",
          "type": "uint256"
        }
      ],
      "name": "transfer",
      "outputs": [],
      "stateMutability": "nonpayable",
      "type": "function"
    },
    {
      "inputs": [
        {
          "internalType": "address",
          "name": "src",
          "type": "address"
        },
        {
          "internalType": "address",
          "name": "dst",
          "type": "address"
        },
        {
          "internalType": "uint256",
          "name": "amount",
          "type": "uint256"
        }
      ],
      "name": "transferFrom",
      "outputs": [],
      "stateMutability": "nonpayable",
      "type": "function"
    },
    {
      "inputs": [
        {
          "internalType": "address",
          "name": "spender",
          "type": "address"
        },
        {
          "internalType": "uint256",
          "name": "amount",
          "type": "uint256"
        }
      ],
      "name": "approve",
      "outputs": [],
      "stateMutability": "nonpayable",
      "type": "function"
    },
    {
      "inputs": [
        {
          "internalType": "address",
          "name": "owner",
          "type": "address"
        },
        {
          "internalType": "address",
          "name": "spender",
          "type": "address"
        }
      ],
      "name": "allowance",
      "outputs": [
        {
          "internalType": "uint256",
          "name": "",
          "type": "uint256"
        }
      ],
      "stateMutability": "view",
      "type": "function"
    },
    {
      "inputs": [
        {
          "internalType": "address",
          "name": "owner",
          "type": "address"
        }
      ],
      "name": "balanceOf",
      "outputs": [
        {
          "internalType": "uint256",
          "name": "",
          "type": "uint256"
        }
      ],
      "stateMutability": "view",
      "type": "function"
    },
    {
      "inputs": [
        {
          "internalType": "address",
          "name": "owner",
          "type": "address"
        }
      ],
      "name": "balanceOfUnderlying",
      "outputs": [
        {
          "internalType": "uint256",
          "name": "",
          "type": "uint256"
        }
      ],
      "stateMutability": "nonpayable",
      "type": "function"
    },
    {
      "inputs": [
        {
          "internalType": "address",
          "name": "account",
          "type": "address"
        }
      ],
      "name": "getAccountSnapshot",
      "outputs": [
        {
          "internalType": "uint256",
          "name": "",
          "type": "uint256"
        },
        {
          "internalType": "uint256",
          "name": "",
          "type": "uint256"
        },
        {
          "internalType": "uint256",
          "name": "",
          "type": "uint256"
        }
      ],
      "stateMutability": "view",
      "type": "function"
    },
    {
      "inputs": [
        {
          "internalType": "address",
          "name": "account",
          "type": "address"
        }
      ],
      "name": "borrowBalanceStored",
      "outputs": [
        {
          "internalType": "uint256",
          "name": "",
          "type": "uint256"
        }
      ],
      "stateMutability": "view",
      "type": "function"
    },
    {
      "inputs": [],
      "name": "exchangeRateStored",
      "outputs": [
        {
          "internalType": "uint256",
          "name": "",
          "type": "uint256"
        }
      ],
      "stateMutability": "view",
      "type": "function"
    },
    {
      "inputs": [],
      "name": "getCash",
      "outputs": [
        {
          "internalType": "uint256",
          "name": "",
          "type": "uint256"
        }
      ],
      "stateMutability": "view",
      "type": "function"
    },
    {
      "inputs": [],
      "name": "accrueInterest",
      "outputs": [],
      "stateMutability": "nonpayable",
      "type": "function"
    },
    {
      "inputs": [],
      "name": "borrowRatePerSeconds",
      "outputs": [
        {
          "internalType": "uint256",
          "name": "",
          "type": "uint256"
        }
      ],
      "stateMutability": "view",
      "type": "function"
    },
    {
      "inputs": [],
      "name": "supplyRatePerSeconds",
      "outputs": [
        {
          "internalType": "uint256",
          "name": "",
          "type": "uint256"
        }
      ],
      "stateMutability": "view",
      "type": "function"
    },
    {
      "inputs": [],
      "name": "exchangeRateCurrent",
      "outputs": [
        {
          "internalType": "uint256",
          "name": "",
          "type": "uint256"
        }
      ],
      "stateMutability": "nonpayable",
      "type": "function"
    },
    {
      "inputs": [],
      "name": "mint",
      "outputs": [
        {
          "internalType": "uint256",
          "name": "",
          "type": "uint256"
        }
      ],
      "stateMutability": "payable",
      "type": "function"
    },
    {
      "inputs": [
        {
          "internalType": "uint256",
          "name": "redeemTokens",
          "type": "uint256"
        }
      ],
      "name": "redeem",
      "outputs": [],
      "stateMutability": "nonpayable",
      "type": "function"
    },
    {
      "inputs": [
        {
          "internalType": "uint256",
          "name": "redeemAmount",
          "type": "uint256"
        }
      ],
      "name": "redeemUnderlying",
      "outputs": [],
      "stateMutability": "nonpayable",
      "type": "function"
    },
    {
      "inputs": [
        {
          "internalType": "uint256",
          "name": "borrowAmount",
          "type": "uint256"
        }
      ],
      "name": "borrow",
      "outputs": [],
      "stateMutability": "nonpayable",
      "type": "function"
    },
    {
      "inputs": [],
      "name": "repayBorrow",
      "outputs": [
        {
          "internalType": "uint256",
          "name": "",
          "type": "uint256"
        }
      ],
      "stateMutability": "payable",
      "type": "function"
    },
    {
      "inputs": [
        {
          "internalType": "address",
          "name": "borrower",
          "type": "address"
        },
        {
          "internalType": "contract LendTokenInterface",
          "name": "lendTokenCollateral",
          "type": "address"
        }
      ],
      "name": "liquidateBorrow",
      "outputs": [
        {
          "internalType": "uint256",
          "name": "",
          "type": "uint256"
        }
      ],
      "stateMutability": "payable",
      "type": "function"
    },
    {
      "inputs": [
        {
          "internalType": "address",
          "name": "liquidator",
          "type": "address"
        },
        {
          "internalType": "address",
          "name": "borrower",
          "type": "address"
        },
        {
          "internalType": "uint256",
          "name": "seizeTokens",
          "type": "uint256"
        }
      ],
      "name": "seize",
      "outputs": [],
      "stateMutability": "nonpayable",
      "type": "function"
    },
    {
      "inputs": [
        {
          "internalType": "address",
          "name": "newAdmin",
          "type": "address"
        }
      ],
      "name": "_setAdmin",
      "outputs": [],
      "stateMutability": "nonpayable",
      "type": "function"
    },
    {
      "inputs": [
        {
          "internalType": "uint256",
          "name": "newReserveFactorMantissa",
          "type": "uint256"
        }
      ],
      "name": "_setReserveFactor",
      "outputs": [],
      "stateMutability": "nonpayable",
      "type": "function"
    },
    {
      "inputs": [
        {
          "internalType": "contract InterestRateModel",
          "name": "newInterestRateModel",
          "type": "address"
        }
      ],
      "name": "_setInterestRateModel",
      "outputs": [],
      "stateMutability": "nonpayable",
      "type": "function"
    },
    {
      "inputs": [
        {
          "internalType": "contract ComptrollerInterface",
          "name": "newComptroller",
          "type": "address"
        }
      ],
      "name": "_setComptroller",
      "outputs": [],
      "stateMutability": "nonpayable",
      "type": "function"
    },
    {
      "inputs": [
        {
          "internalType": "uint256",
          "name": "reduceAmount",
          "type": "uint256"
        }
      ],
      "name": "_reduceReserves",
      "outputs": [],
      "stateMutability": "nonpayable",
      "type": "function"
    }
  ],
  "bytecode": "0x60806040523480156200001157600080fd5b506040516200598838038062005988833981810160405281019062000037919062000481565b84600190805190602001906200004f92919062000191565b5083600290805190602001906200006892919062000191565b5082600360006101000a81548160ff021916908360ff16021790555081600a60006101000a81548173ffffffffffffffffffffffffffffffffffffffff021916908373ffffffffffffffffffffffffffffffffffffffff16021790555080600960006101000a81548173ffffffffffffffffffffffffffffffffffffffff021916908373ffffffffffffffffffffffffffffffffffffffff160217905550670de0b6b3a7640000600f819055506702c68af0bb140000600d8190555042600e8190555033600760006101000a81548173ffffffffffffffffffffffffffffffffffffffff021916908373ffffffffffffffffffffffffffffffffffffffff16021790555060016000806101000a81548160ff0219169083151502179055505050505050620005ac565b8280546200019f9062000576565b90600052602060002090601f016020900481019282620001c357600085556200020f565b82601f10620001de57805160ff19168380011785556200020f565b828001600101855582156200020f579182015b828111156200020e578251825591602001919060010190620001f1565b5b5090506200021e919062000222565b5090565b5b808211156200023d57600081600090555060010162000223565b5090565b6000604051905090565b600080fd5b600080fd5b600080fd5b600080fd5b6000601f19601f8301169050919050565b7f4e487b7100000000000000000000000000000000000000000000000000000000600052604160045260246000fd5b620002aa826200025f565b810181811067ffffffffffffffff82111715620002cc57620002cb62000270565b5b80604052505050565b6000620002e162000241565b9050620002ef82826200029f565b919050565b600067ffffffffffffffff82111562000312576200031162000270565b5b6200031d826200025f565b9050602081019050919050565b60005b838110156200034a5780820151818401526020810190506200032d565b838111156200035a576000848401525b50505050565b6000620003776200037184620002f4565b620002d5565b9050828152602081018484840111156200039657620003956200025a565b5b620003a38482856200032a565b509392505050565b600082601f830112620003c357620003c262000255565b5b8151620003d584826020860162000360565b91505092915050565b600060ff82169050919050565b620003f681620003de565b81146200040257600080fd5b50565b6000815190506200041681620003eb565b92915050565b600073ffffffffffffffffffffffffffffffffffffffff82169050919050565b600062000449826200041c565b9050919050565b6200045b816200043c565b81146200046757600080fd5b50565b6000815190506200047b8162000450565b92915050565b600080600080600060a08688031215620004a0576200049f6200024b565b5b600086015167ffffffffffffffff811115620004c157620004c062000250565b5b620004cf88828901620003ab565b955050602086015167ffffffffffffffff811115620004f357620004f262000250565b5b6200050188828901620003ab565b9450506040620005148882890162000405565b935050606062000527888289016200046a565b92505060806200053a888289016200046a565b9150509295509295909350565b7f4e487b7100000000000000000000000000000000000000000000000000000000600052602260045260246000fd5b600060028204905060018216806200058f57607f821691505b60208210811415620005a657620005a562000547565b5b50919050565b6153cc80620005bc6000396000f3fe6080604052600436106102815760003560e01c806395dd91931161014f578063c156b1ff116100c1578063dd62ed3e1161007a578063dd62ed3e14610994578063ee27a2f2146109d1578063f2b3abbd146109fc578063f3fdb15a14610a25578063f851a44014610a50578063fca7820b14610a7b57610292565b8063c156b1ff1461086f578063c37f68e21461089a578063c5ebeaec146108d9578063cef12f0814610902578063d40e8f4a1461092d578063db006a751461096b57610292565b8063aa5af0fd11610113578063aa5af0fd1461076a578063aae40a2a14610795578063b2a02ff1146107c5578063b3605076146107ee578063b95b92a314610819578063bd6d894d1461084457610292565b806395dd919314610697578063969dedb2146106d4578063a275370d146106ff578063a6afed951461072a578063a9059cbb1461074157610292565b80634576b5db116101f3578063675d972c116101ac578063675d972c1461057257806370a082311461059d5780637fe4c225146105da578063852a12e3146106185780638f840ddd1461064157806395d89b411461066c57610292565b80634576b5db1461046f57806347bd3718146104985780634e4d9fea146104c35780635800e2de146104e15780635fe3b5671461051e578063601a0bf11461054957610292565b8063182df0f511610245578063182df0f51461035f57806323b872dd1461038a578063313ce567146103b35780633a74a767146103de5780633af9e669146104075780633b1d21a21461044457610292565b806306fdde0314610297578063095ea7b3146102c25780631249c58b146102eb578063173b99041461030957806318160ddd1461033457610292565b366102925761028f34610aa4565b50005b600080fd5b3480156102a357600080fd5b506102ac610b41565b6040516102b99190613f33565b60405180910390f35b3480156102ce57600080fd5b506102e960048036038101906102e49190613fee565b610bcf565b005b6102f3610cbf565b604051610300919061403d565b60405180910390f35b34801561031557600080fd5b5061031e610ccf565b60405161032b919061403d565b60405180910390f35b34801561034057600080fd5b50610349610cd5565b604051610356919061403d565b60405180910390f35b34801561036b57600080fd5b50610374610cdb565b604051610381919061403d565b60405180910390f35b34801561039657600080fd5b506103b160048036038101906103ac9190614058565b610d57565b005b3480156103bf57600080fd5b506103c8610de9565b6040516103d591906140c7565b60405180910390f35b3480156103ea57600080fd5b50610405600480360381019061040091906140e2565b610dfc565b005b34801561041357600080fd5b5061042e600480360381019061042991906140e2565b610f31565b60405161043b919061403d565b60405180910390f35b34801561045057600080fd5b50610459610faa565b604051610466919061403d565b60405180910390f35b34801561047b57600080fd5b506104966004803603810190610491919061414d565b610fc9565b005b3480156104a457600080fd5b506104ad6111ab565b6040516104ba919061403d565b60405180910390f35b6104cb6111b1565b6040516104d8919061403d565b60405180910390f35b3480156104ed57600080fd5b506105086004803603810190610503919061417a565b6111c1565b60405161051591906141b6565b60405180910390f35b34801561052a57600080fd5b50610533611200565b6040516105409190614230565b60405180910390f35b34801561055557600080fd5b50610570600480360381019061056b919061417a565b611226565b005b34801561057e57600080fd5b50610587611474565b604051610594919061403d565b60405180910390f35b3480156105a957600080fd5b506105c460048036038101906105bf91906140e2565b611480565b6040516105d1919061403d565b60405180910390f35b3480156105e657600080fd5b5061060160048036038101906105fc91906140e2565b6114c9565b60405161060f92919061424b565b60405180910390f35b34801561062457600080fd5b5061063f600480360381019061063a919061417a565b61155b565b005b34801561064d57600080fd5b50610656611567565b604051610663919061403d565b60405180910390f35b34801561067857600080fd5b5061068161156d565b60405161068e9190613f33565b60405180910390f35b3480156106a357600080fd5b506106be60048036038101906106b991906140e2565b6115fb565b6040516106cb919061403d565b60405180910390f35b3480156106e057600080fd5b506106e96116c1565b6040516106f69190614332565b60405180910390f35b34801561070b57600080fd5b5061071461174f565b604051610721919061403d565b60405180910390f35b34801561073657600080fd5b5061073f61175b565b005b34801561074d57600080fd5b5061076860048036038101906107639190613fee565b61199b565b005b34801561077657600080fd5b5061077f611a2c565b60405161078c919061403d565b60405180910390f35b6107af60048036038101906107aa9190614392565b611a32565b6040516107bc919061403d565b60405180910390f35b3480156107d157600080fd5b506107ec60048036038101906107e79190614058565b611a47565b005b3480156107fa57600080fd5b50610803611ad9565b604051610810919061403d565b60405180910390f35b34801561082557600080fd5b5061082e611b8f565b60405161083b919061403d565b60405180910390f35b34801561085057600080fd5b50610859611b95565b604051610866919061403d565b60405180910390f35b34801561087b57600080fd5b50610884611bac565b604051610891919061403d565b60405180910390f35b3480156108a657600080fd5b506108c160048036038101906108bc91906140e2565b611c5e565b6040516108d0939291906143d2565b60405180910390f35b3480156108e557600080fd5b5061090060048036038101906108fb919061417a565b611cd1565b005b34801561090e57600080fd5b50610917611cdd565b6040516109249190614424565b60405180910390f35b34801561093957600080fd5b50610954600480360381019061094f91906140e2565b611ce6565b60405161096292919061424b565b60405180910390f35b34801561097757600080fd5b50610992600480360381019061098d919061417a565b611d0a565b005b3480156109a057600080fd5b506109bb60048036038101906109b6919061443f565b611d16565b6040516109c8919061403d565b60405180910390f35b3480156109dd57600080fd5b506109e6611d9d565b6040516109f3919061403d565b60405180910390f35b348015610a0857600080fd5b50610a236004803603810190610a1e91906144bd565b611da6565b005b348015610a3157600080fd5b50610a3a611f91565b604051610a47919061450b565b60405180910390f35b348015610a5c57600080fd5b50610a65611fb7565b604051610a7291906141b6565b60405180910390f35b348015610a8757600080fd5b50610aa26004803603810190610a9d919061417a565b611fdd565b005b60008060009054906101000a900460ff16610af4576040517f08c379a0000000000000000000000000000000000000000000000000000000008152600401610aeb90614572565b60405180910390fd5b60008060006101000a81548160ff021916908315150217905550610b1661175b565b610b20338361210b565b905060016000806101000a81548160ff021916908315150217905550919050565b60018054610b4e906145c1565b80601f0160208091040260200160405190810160405280929190818152602001828054610b7a906145c1565b8015610bc75780601f10610b9c57610100808354040283529160200191610bc7565b820191906000526020600020905b815481529060010190602001808311610baa57829003601f168201915b505050505081565b600033905081600660008373ffffffffffffffffffffffffffffffffffffffff1673ffffffffffffffffffffffffffffffffffffffff16815260200190815260200160002060008573ffffffffffffffffffffffffffffffffffffffff1673ffffffffffffffffffffffffffffffffffffffff168152602001908152602001600020819055508273ffffffffffffffffffffffffffffffffffffffff168173ffffffffffffffffffffffffffffffffffffffff167f8c5be1e5ebec7d5bd14f71427d1e84f3dd0314c0f7b2291e5b200ac8c7c3b92584604051610cb2919061403d565b60405180910390a3505050565b6000610cca34610aa4565b905090565b600d5481565b60045481565b60008060045490506000610ced612331565b9050600080831415610d0c57670de0b6b3a76400009350505050610d54565b60115460105483610d1d9190614622565b610d279190614678565b9050600083670de0b6b3a764000083610d4091906146ac565b610d4a9190614735565b9050809450505050505b90565b60008054906101000a900460ff16610da4576040517f08c379a0000000000000000000000000000000000000000000000000000000008152600401610d9b90614572565b60405180910390fd5b60008060006101000a81548160ff021916908315150217905550610dca33848484612366565b60016000806101000a81548160ff021916908315150217905550505050565b600360009054906101000a900460ff1681565b600760009054906101000a900473ffffffffffffffffffffffffffffffffffffffff1673ffffffffffffffffffffffffffffffffffffffff163373ffffffffffffffffffffffffffffffffffffffff1614610e8c576040517f08c379a0000000000000000000000000000000000000000000000000000000008152600401610e83906147b2565b60405180910390fd5b6000600760009054906101000a900473ffffffffffffffffffffffffffffffffffffffff16905081600760006101000a81548173ffffffffffffffffffffffffffffffffffffffff021916908373ffffffffffffffffffffffffffffffffffffffff1602179055507ff9ffabca9c8276e99321725bcb43fb076a6c66a54b7f21c4e8146d8519b417dc8183604051610f259291906147d2565b60405180910390a15050565b600080610f3c611b95565b90506000670de0b6b3a7640000600560008673ffffffffffffffffffffffffffffffffffffffff1673ffffffffffffffffffffffffffffffffffffffff1681526020019081526020016000205483610f9491906146ac565b610f9e9190614735565b90508092505050919050565b60003073ffffffffffffffffffffffffffffffffffffffff1631905090565b600760009054906101000a900473ffffffffffffffffffffffffffffffffffffffff1673ffffffffffffffffffffffffffffffffffffffff163373ffffffffffffffffffffffffffffffffffffffff1614611059576040517f08c379a000000000000000000000000000000000000000000000000000000000815260040161105090614847565b60405180910390fd5b6000600960009054906101000a900473ffffffffffffffffffffffffffffffffffffffff1690508173ffffffffffffffffffffffffffffffffffffffff16627e3dd26040518163ffffffff1660e01b8152600401602060405180830381865afa1580156110ca573d6000803e3d6000fd5b505050506040513d601f19601f820116820180604052508101906110ee9190614893565b61112d576040517f08c379a00000000000000000000000000000000000000000000000000000000081526004016111249061490c565b60405180910390fd5b81600960006101000a81548173ffffffffffffffffffffffffffffffffffffffff021916908373ffffffffffffffffffffffffffffffffffffffff1602179055507f7ac369dbd14fa5ea3f473ed67cc9d598964a77501540ba6751eb0b3decf5870d818360405161119f92919061492c565b60405180910390a15050565b60105481565b60006111bc34612793565b905090565b600b81815481106111d157600080fd5b906000526020600020016000915054906101000a900473ffffffffffffffffffffffffffffffffffffffff1681565b600960009054906101000a900473ffffffffffffffffffffffffffffffffffffffff1681565b60008054906101000a900460ff16611273576040517f08c379a000000000000000000000000000000000000000000000000000000000815260040161126a90614572565b60405180910390fd5b60008060006101000a81548160ff021916908315150217905550600760009054906101000a900473ffffffffffffffffffffffffffffffffffffffff1673ffffffffffffffffffffffffffffffffffffffff163373ffffffffffffffffffffffffffffffffffffffff161461131d576040517f08c379a0000000000000000000000000000000000000000000000000000000008152600401611314906147b2565b60405180910390fd5b61132561175b565b8061132e612331565b101561136f576040517f08c379a0000000000000000000000000000000000000000000000000000000008152600401611366906149a1565b60405180910390fd5b6011548111156113b4576040517f08c379a00000000000000000000000000000000000000000000000000000000081526004016113ab90614a0d565b60405180910390fd5b6000816011546113c49190614678565b9050806011819055507f3bad0c59cf2f06e7314077049f48a93578cd16f5ef92329f1dab1420a99c177e600760009054906101000a900473ffffffffffffffffffffffffffffffffffffffff16838360405161142293929190614a2d565b60405180910390a1611456600760009054906101000a900473ffffffffffffffffffffffffffffffffffffffff1683612831565b5060016000806101000a81548160ff02191690831515021790555050565b670de0b6b3a764000081565b6000600560008373ffffffffffffffffffffffffffffffffffffffff1673ffffffffffffffffffffffffffffffffffffffff168152602001908152602001600020549050919050565b600080600860008473ffffffffffffffffffffffffffffffffffffffff1673ffffffffffffffffffffffffffffffffffffffff16815260200190815260200160002060000154600860008573ffffffffffffffffffffffffffffffffffffffff1673ffffffffffffffffffffffffffffffffffffffff1681526020019081526020016000206001015491509150915091565b6115648161287c565b50565b60115481565b6002805461157a906145c1565b80601f01602080910402602001604051908101604052809291908181526020018280546115a6906145c1565b80156115f35780601f106115c8576101008083540402835291602001916115f3565b820191906000526020600020905b8154815290600101906020018083116115d657829003601f168201915b505050505081565b60008060008060003073ffffffffffffffffffffffffffffffffffffffff16637fe4c225876040518263ffffffff1660e01b815260040161163c91906141b6565b6040805180830381865afa158015611658573d6000803e3d6000fd5b505050506040513d601f19601f8201168201806040525081019061167c9190614a79565b9150915060008214156116965760009450505050506116bc565b600f54826116a491906146ac565b935080846116b29190614735565b9250829450505050505b919050565b6060600b80548060200260200160405190810160405280929190818152602001828054801561174557602002820191906000526020600020905b8160009054906101000a900473ffffffffffffffffffffffffffffffffffffffff1673ffffffffffffffffffffffffffffffffffffffff16815260200190600101908083116116fb575b5050505050905090565b670de0b6b3a764000081565b60004290506000600e54905081811415611776575050611999565b6000611780612331565b905060006010549050600060115490506000600f5490506000600a60009054906101000a900473ffffffffffffffffffffffffffffffffffffffff1673ffffffffffffffffffffffffffffffffffffffff166315f240538686866040518463ffffffff1660e01b81526004016117f8939291906143d2565b602060405180830381865afa158015611815573d6000803e3d6000fd5b505050506040513d601f19601f820116820180604052508101906118399190614ab9565b90506409502f9000811115611883576040517f08c379a000000000000000000000000000000000000000000000000000000000815260040161187a90614b32565b60405180910390fd5b600086886118919190614678565b9050600080600080600085876118a791906146ac565b9450670de0b6b3a76400008a866118be91906146ac565b6118c89190614735565b935089846118d69190614622565b925088670de0b6b3a764000085600d546118f091906146ac565b6118fa9190614735565b6119049190614622565b915087670de0b6b3a7640000898761191c91906146ac565b6119269190614735565b6119309190614622565b90508c600e8190555080600f8190555082601081905550816011819055507f4dec04e750ca11537cabcd8a9eab06494de08da3735bc8871cd41250e190bc048b8583866040516119839493929190614b52565b60405180910390a1505050505050505050505050505b565b60008054906101000a900460ff166119e8576040517f08c379a00000000000000000000000000000000000000000000000000000000081526004016119df90614572565b60405180910390fd5b60008060006101000a81548160ff021916908315150217905550611a0e33338484612366565b60016000806101000a81548160ff0219169083151502179055505050565b600f5481565b6000611a3f833484612914565b905092915050565b60008054906101000a900460ff16611a94576040517f08c379a0000000000000000000000000000000000000000000000000000000008152600401611a8b90614572565b60405180910390fd5b60008060006101000a81548160ff021916908315150217905550611aba33848484612ece565b60016000806101000a81548160ff021916908315150217905550505050565b6000600a60009054906101000a900473ffffffffffffffffffffffffffffffffffffffff1673ffffffffffffffffffffffffffffffffffffffff1663b8168816611b21612331565b601054601154600d546040518563ffffffff1660e01b8152600401611b499493929190614b52565b602060405180830381865afa158015611b66573d6000803e3d6000fd5b505050506040513d601f19601f82011682018060405250810190611b8a9190614ab9565b905090565b600e5481565b6000611b9f61175b565b611ba7610cdb565b905090565b6000600a60009054906101000a900473ffffffffffffffffffffffffffffffffffffffff1673ffffffffffffffffffffffffffffffffffffffff166315f24053611bf4612331565b6010546011546040518463ffffffff1660e01b8152600401611c18939291906143d2565b602060405180830381865afa158015611c35573d6000803e3d6000fd5b505050506040513d601f19601f82011682018060405250810190611c599190614ab9565b905090565b600080600080600560008673ffffffffffffffffffffffffffffffffffffffff1673ffffffffffffffffffffffffffffffffffffffff168152602001908152602001600020549050600080611cb2876115fb565b9150611cbc610cdb565b90508282829550955095505050509193909250565b611cda81613162565b50565b60006001905090565b60086020528060005260406000206000915090508060000154908060010154905082565b611d13816131f8565b50565b6000600660008473ffffffffffffffffffffffffffffffffffffffff1673ffffffffffffffffffffffffffffffffffffffff16815260200190815260200160002060008373ffffffffffffffffffffffffffffffffffffffff1673ffffffffffffffffffffffffffffffffffffffff16815260200190815260200160002054905092915050565b6409502f900081565b600760009054906101000a900473ffffffffffffffffffffffffffffffffffffffff1673ffffffffffffffffffffffffffffffffffffffff163373ffffffffffffffffffffffffffffffffffffffff1614611e36576040517f08c379a0000000000000000000000000000000000000000000000000000000008152600401611e2d90614847565b60405180910390fd5b611e3e61175b565b6000600a60009054906101000a900473ffffffffffffffffffffffffffffffffffffffff1690508173ffffffffffffffffffffffffffffffffffffffff16632191f92a6040518163ffffffff1660e01b8152600401602060405180830381865afa158015611eb0573d6000803e3d6000fd5b505050506040513d601f19601f82011682018060405250810190611ed49190614893565b611f13576040517f08c379a0000000000000000000000000000000000000000000000000000000008152600401611f0a9061490c565b60405180910390fd5b81600a60006101000a81548173ffffffffffffffffffffffffffffffffffffffff021916908373ffffffffffffffffffffffffffffffffffffffff1602179055507fedffc32e068c7c95dfd4bdfd5c4d939a084d6b11c4199eac8436ed234d72f9268183604051611f85929190614b97565b60405180910390a15050565b600a60009054906101000a900473ffffffffffffffffffffffffffffffffffffffff1681565b600760009054906101000a900473ffffffffffffffffffffffffffffffffffffffff1681565b600760009054906101000a900473ffffffffffffffffffffffffffffffffffffffff1673ffffffffffffffffffffffffffffffffffffffff163373ffffffffffffffffffffffffffffffffffffffff161461206d576040517f08c379a000000000000000000000000000000000000000000000000000000000815260040161206490614c0c565b60405180910390fd5b61207561175b565b670de0b6b3a76400008111156120c0576040517f08c379a00000000000000000000000000000000000000000000000000000000081526004016120b790614c78565b60405180910390fd5b6000600d54905081600d819055507faaa68312e2ea9d50e16af5068410ab56e1a1fd06037b1a35664812c30f82146081836040516120ff92919061424b565b60405180910390a15050565b6000600960009054906101000a900473ffffffffffffffffffffffffffffffffffffffff1673ffffffffffffffffffffffffffffffffffffffff1663f196980a30856040518363ffffffff1660e01b815260040161216a9291906147d2565b600060405180830381600087803b15801561218457600080fd5b505af1158015612198573d6000803e3d6000fd5b5050505060008060008060006121ac610cdb565b94506121b88888613290565b905084670de0b6b3a7640000826121cf91906146ac565b6121d99190614735565b9350836004546121e99190614622565b925083600560008a73ffffffffffffffffffffffffffffffffffffffff1673ffffffffffffffffffffffffffffffffffffffff168152602001908152602001600020546122369190614622565b91508260048190555081600560008a73ffffffffffffffffffffffffffffffffffffffff1673ffffffffffffffffffffffffffffffffffffffff168152602001908152602001600020819055507f4c209b5fc8ad50758f13e2e1088ba56a560dff690a1c6fef26394f4c03821c4f8882866040516122b693929190614a2d565b60405180910390a18773ffffffffffffffffffffffffffffffffffffffff163073ffffffffffffffffffffffffffffffffffffffff167fddf252ad1be2c89b69c2b068fc378daa952ba7f163c4a11628f55a4df523b3ef8660405161231b919061403d565b60405180910390a3809550505050505092915050565b6000803073ffffffffffffffffffffffffffffffffffffffff163190506000348261235c9190614678565b9050809250505090565b600960009054906101000a900473ffffffffffffffffffffffffffffffffffffffff1673ffffffffffffffffffffffffffffffffffffffff1663bdcdc258308585856040518563ffffffff1660e01b81526004016123c79493929190614c98565b600060405180830381600087803b1580156123e157600080fd5b505af11580156123f5573d6000803e3d6000fd5b505050508173ffffffffffffffffffffffffffffffffffffffff168373ffffffffffffffffffffffffffffffffffffffff161415612468576040517f08c379a000000000000000000000000000000000000000000000000000000000815260040161245f90614d29565b60405180910390fd5b60008373ffffffffffffffffffffffffffffffffffffffff168573ffffffffffffffffffffffffffffffffffffffff1614156124c6577fffffffffffffffffffffffffffffffffffffffffffffffffffffffffffffffff9050612546565b600660008573ffffffffffffffffffffffffffffffffffffffff1673ffffffffffffffffffffffffffffffffffffffff16815260200190815260200160002060008673ffffffffffffffffffffffffffffffffffffffff1673ffffffffffffffffffffffffffffffffffffffff1681526020019081526020016000205490505b600080600084846125579190614678565b925084600560008973ffffffffffffffffffffffffffffffffffffffff1673ffffffffffffffffffffffffffffffffffffffff168152602001908152602001600020546125a49190614678565b915084600560008873ffffffffffffffffffffffffffffffffffffffff1673ffffffffffffffffffffffffffffffffffffffff168152602001908152602001600020546125f19190614622565b905081600560008973ffffffffffffffffffffffffffffffffffffffff1673ffffffffffffffffffffffffffffffffffffffff1681526020019081526020016000208190555080600560008873ffffffffffffffffffffffffffffffffffffffff1673ffffffffffffffffffffffffffffffffffffffff168152602001908152602001600020819055507fffffffffffffffffffffffffffffffffffffffffffffffffffffffffffffffff84146127245782600660008973ffffffffffffffffffffffffffffffffffffffff1673ffffffffffffffffffffffffffffffffffffffff16815260200190815260200160002060008a73ffffffffffffffffffffffffffffffffffffffff1673ffffffffffffffffffffffffffffffffffffffff168152602001908152602001600020819055505b8573ffffffffffffffffffffffffffffffffffffffff168773ffffffffffffffffffffffffffffffffffffffff167fddf252ad1be2c89b69c2b068fc378daa952ba7f163c4a11628f55a4df523b3ef87604051612781919061403d565b60405180910390a35050505050505050565b60008060009054906101000a900460ff166127e3576040517f08c379a00000000000000000000000000000000000000000000000000000000081526004016127da90614572565b60405180910390fd5b60008060006101000a81548160ff02191690831515021790555061280561175b565b61281033338461334b565b905060016000806101000a81548160ff021916908315150217905550919050565b8173ffffffffffffffffffffffffffffffffffffffff166108fc829081150290604051600060405180830381858888f19350505050158015612877573d6000803e3d6000fd5b505050565b60008054906101000a900460ff166128c9576040517f08c379a00000000000000000000000000000000000000000000000000000000081526004016128c090614572565b60405180910390fd5b60008060006101000a81548160ff0219169083151502179055506128eb61175b565b6128f73360008361358a565b60016000806101000a81548160ff02191690831515021790555050565b60008060009054906101000a900460ff16612964576040517f08c379a000000000000000000000000000000000000000000000000000000000815260040161295b90614572565b60405180910390fd5b60008060006101000a81548160ff02191690831515021790555061298661175b565b8173ffffffffffffffffffffffffffffffffffffffff1663a6afed956040518163ffffffff1660e01b8152600401600060405180830381600087803b1580156129ce57600080fd5b505af11580156129e2573d6000803e3d6000fd5b505050506000339050600960009054906101000a900473ffffffffffffffffffffffffffffffffffffffff1673ffffffffffffffffffffffffffffffffffffffff16636e2cf5af308588886040518563ffffffff1660e01b8152600401612a4c9493929190614c98565b600060405180830381600087803b158015612a6657600080fd5b505af1158015612a7a573d6000803e3d6000fd5b50505050428373ffffffffffffffffffffffffffffffffffffffff1663b95b92a36040518163ffffffff1660e01b8152600401602060405180830381865afa158015612aca573d6000803e3d6000fd5b505050506040513d601f19601f82011682018060405250810190612aee9190614ab9565b14612b2e576040517f08c379a0000000000000000000000000000000000000000000000000000000008152600401612b2590614d95565b60405180910390fd5b8073ffffffffffffffffffffffffffffffffffffffff168573ffffffffffffffffffffffffffffffffffffffff161415612b9d576040517f08c379a0000000000000000000000000000000000000000000000000000000008152600401612b9490614e01565b60405180910390fd5b6000841415612be1576040517f08c379a0000000000000000000000000000000000000000000000000000000008152600401612bd890614e6d565b60405180910390fd5b7fffffffffffffffffffffffffffffffffffffffffffffffffffffffffffffffff841415612c44576040517f08c379a0000000000000000000000000000000000000000000000000000000008152600401612c3b90614ed9565b60405180910390fd5b6000612c5182878761334b565b90506000600960009054906101000a900473ffffffffffffffffffffffffffffffffffffffff1673ffffffffffffffffffffffffffffffffffffffff1663c488847b3087856040518463ffffffff1660e01b8152600401612cb493929190614ef9565b602060405180830381865afa158015612cd1573d6000803e3d6000fd5b505050506040513d601f19601f82011682018060405250810190612cf59190614ab9565b9050808573ffffffffffffffffffffffffffffffffffffffff166370a08231896040518263ffffffff1660e01b8152600401612d3191906141b6565b602060405180830381865afa158015612d4e573d6000803e3d6000fd5b505050506040513d601f19601f82011682018060405250810190612d729190614ab9565b1015612db3576040517f08c379a0000000000000000000000000000000000000000000000000000000008152600401612daa90614f7c565b60405180910390fd5b3073ffffffffffffffffffffffffffffffffffffffff168573ffffffffffffffffffffffffffffffffffffffff161415612df857612df330848984612ece565b612e68565b8473ffffffffffffffffffffffffffffffffffffffff1663b2a02ff18489846040518463ffffffff1660e01b8152600401612e3593929190614ef9565b600060405180830381600087803b158015612e4f57600080fd5b505af1158015612e63573d6000803e3d6000fd5b505050505b7f298637f684da70674f26509b10f07ec2fbc77a335ab1e7d6215a4b2484d8bb528388848885604051612e9f959493929190614f9c565b60405180910390a181935050505060016000806101000a81548160ff0219169083151502179055509392505050565b600960009054906101000a900473ffffffffffffffffffffffffffffffffffffffff1673ffffffffffffffffffffffffffffffffffffffff1663eafe967b308686866040518563ffffffff1660e01b8152600401612f2f9493929190614fef565b600060405180830381600087803b158015612f4957600080fd5b505af1158015612f5d573d6000803e3d6000fd5b505050508273ffffffffffffffffffffffffffffffffffffffff168273ffffffffffffffffffffffffffffffffffffffff161415612fd0576040517f08c379a0000000000000000000000000000000000000000000000000000000008152600401612fc790614e01565b60405180910390fd5b60008082600560008673ffffffffffffffffffffffffffffffffffffffff1673ffffffffffffffffffffffffffffffffffffffff1681526020019081526020016000205461301e9190614678565b915082600560008773ffffffffffffffffffffffffffffffffffffffff1673ffffffffffffffffffffffffffffffffffffffff1681526020019081526020016000205461306b9190614622565b905081600560008673ffffffffffffffffffffffffffffffffffffffff1673ffffffffffffffffffffffffffffffffffffffff1681526020019081526020016000208190555080600560008773ffffffffffffffffffffffffffffffffffffffff1673ffffffffffffffffffffffffffffffffffffffff168152602001908152602001600020819055508473ffffffffffffffffffffffffffffffffffffffff168473ffffffffffffffffffffffffffffffffffffffff167fddf252ad1be2c89b69c2b068fc378daa952ba7f163c4a11628f55a4df523b3ef85604051613152919061403d565b60405180910390a3505050505050565b60008054906101000a900460ff166131af576040517f08c379a00000000000000000000000000000000000000000000000000000000081526004016131a690614572565b60405180910390fd5b60008060006101000a81548160ff0219169083151502179055506131d161175b565b6131db3382613b68565b60016000806101000a81548160ff02191690831515021790555050565b60008054906101000a900460ff16613245576040517f08c379a000000000000000000000000000000000000000000000000000000000815260040161323c90614572565b60405180910390fd5b60008060006101000a81548160ff02191690831515021790555061326761175b565b6132733382600061358a565b60016000806101000a81548160ff02191690831515021790555050565b60008273ffffffffffffffffffffffffffffffffffffffff163373ffffffffffffffffffffffffffffffffffffffff1614613300576040517f08c379a00000000000000000000000000000000000000000000000000000000081526004016132f790615080565b60405180910390fd5b813414613342576040517f08c379a0000000000000000000000000000000000000000000000000000000008152600401613339906150ec565b60405180910390fd5b81905092915050565b6000600960009054906101000a900473ffffffffffffffffffffffffffffffffffffffff1673ffffffffffffffffffffffffffffffffffffffff16633205e01730856040518363ffffffff1660e01b81526004016133aa9291906147d2565b600060405180830381600087803b1580156133c457600080fd5b505af11580156133d8573d6000803e3d6000fd5b50505050600080600080600080600860008a73ffffffffffffffffffffffffffffffffffffffff1673ffffffffffffffffffffffffffffffffffffffff168152602001908152602001600020600101549450613433896115fb565b9350838810613477576040517f08c379a000000000000000000000000000000000000000000000000000000000815260040161346e90615158565b60405180910390fd5b8795506134848a87613290565b905080846134929190614678565b9250806010546134a29190614678565b915082600860008b73ffffffffffffffffffffffffffffffffffffffff1673ffffffffffffffffffffffffffffffffffffffff16815260200190815260200160002060000181905550600f54600860008b73ffffffffffffffffffffffffffffffffffffffff1673ffffffffffffffffffffffffffffffffffffffff16815260200190815260200160002060010181905550816010819055507f1a2a22cb034d26d1854bdc6666a5b91fe25efbbb5dcad3b0355478d6f5c362a18a8a838686604051613572959493929190615178565b60405180910390a18096505050505050509392505050565b60008214806135995750600081145b6135d8576040517f08c379a00000000000000000000000000000000000000000000000000000000081526004016135cf90614d29565b60405180910390fd5b6135e0613e6b565b6135e8610cdb565b816000018181525050600081600001511415613639576040517f08c379a000000000000000000000000000000000000000000000000000000000815260040161363090615217565b60405180910390fd5b600083111561367d5782816020018181525050670de0b6b3a764000083826000015161366591906146ac565b61366f9190614735565b8160400181815250506136b4565b8060000151670de0b6b3a76400008361369691906146ac565b6136a09190614735565b816020018181525050818160400181815250505b600960009054906101000a900473ffffffffffffffffffffffffffffffffffffffff1673ffffffffffffffffffffffffffffffffffffffff1663eabe7d91308684602001516040518463ffffffff1660e01b815260040161371793929190614ef9565b600060405180830381600087803b15801561373157600080fd5b505af1158015613745573d6000803e3d6000fd5b50505050806020015160045461375b9190614678565b8160600181815250508060200151600560008673ffffffffffffffffffffffffffffffffffffffff1673ffffffffffffffffffffffffffffffffffffffff168152602001908152602001600020546137b39190614678565b81608001818152505080604001516137c9612331565b101561380a576040517f08c379a000000000000000000000000000000000000000000000000000000000815260040161380190615283565b60405180910390fd5b6000806000600960009054906101000a900473ffffffffffffffffffffffffffffffffffffffff1673ffffffffffffffffffffffffffffffffffffffff166304ef9d586040518163ffffffff1660e01b8152600401602060405180830381865afa15801561387c573d6000803e3d6000fd5b505050506040513d601f19601f820116820180604052508101906138a09190614ab9565b1461397157670de0b6b3a7640000600960009054906101000a900473ffffffffffffffffffffffffffffffffffffffff1673ffffffffffffffffffffffffffffffffffffffff166304ef9d586040518163ffffffff1660e01b8152600401602060405180830381865afa15801561391b573d6000803e3d6000fd5b505050506040513d601f19601f8201168201806040525081019061393f9190614ab9565b846040015161394e91906146ac565b6139589190614735565b915081836040015161396a9190614678565b9050613979565b826040015190505b60008214613a5b57613a1b600960009054906101000a900473ffffffffffffffffffffffffffffffffffffffff1673ffffffffffffffffffffffffffffffffffffffff1663c5f956af6040518163ffffffff1660e01b8152600401602060405180830381865afa1580156139f1573d6000803e3d6000fd5b505050506040513d601f19601f82011682018060405250810190613a1591906152b8565b83612831565b7fccf8e53b86a99b7e9ecf796342c165764d66154780f638c08e6241d711fba6d486838560200151604051613a5293929190614a2d565b60405180910390a15b613a658682612831565b82606001516004819055508260800151600560008873ffffffffffffffffffffffffffffffffffffffff1673ffffffffffffffffffffffffffffffffffffffff168152602001908152602001600020819055503073ffffffffffffffffffffffffffffffffffffffff168673ffffffffffffffffffffffffffffffffffffffff167fddf252ad1be2c89b69c2b068fc378daa952ba7f163c4a11628f55a4df523b3ef8560200151604051613b19919061403d565b60405180910390a37fe5b754fb1abb7f01b499791d0b820ae3b6af3424ac1c59768edb53f4ec31a92986828560200151604051613b5893929190614a2d565b60405180910390a1505050505050565b600960009054906101000a900473ffffffffffffffffffffffffffffffffffffffff1673ffffffffffffffffffffffffffffffffffffffff1663da3d454c3084846040518463ffffffff1660e01b8152600401613bc793929190614ef9565b600060405180830381600087803b158015613be157600080fd5b505af1158015613bf5573d6000803e3d6000fd5b5050505080613c02612331565b1015613c43576040517f08c379a0000000000000000000000000000000000000000000000000000000008152600401613c3a90615331565b60405180910390fd5b6000806000613c51856115fb565b92508383613c5f9190614622565b915083601054613c6f9190614622565b905060001515600c60008773ffffffffffffffffffffffffffffffffffffffff1673ffffffffffffffffffffffffffffffffffffffff16815260200190815260200160002060009054906101000a900460ff1615151415613d86576001600c60008773ffffffffffffffffffffffffffffffffffffffff1673ffffffffffffffffffffffffffffffffffffffff16815260200190815260200160002060006101000a81548160ff021916908315150217905550600b859080600181540180825580915050600190039060005260206000200160009091909190916101000a81548173ffffffffffffffffffffffffffffffffffffffff021916908373ffffffffffffffffffffffffffffffffffffffff1602179055505b613d908585612831565b81600860008773ffffffffffffffffffffffffffffffffffffffff1673ffffffffffffffffffffffffffffffffffffffff16815260200190815260200160002060000181905550600f54600860008773ffffffffffffffffffffffffffffffffffffffff1673ffffffffffffffffffffffffffffffffffffffff16815260200190815260200160002060010181905550806010819055507f13ed6866d4e1ee6da46f845c46d7e54120883d75c5ea9a2dacc1c4ca8984ab8085858484604051613e5c9493929190615351565b60405180910390a15050505050565b6040518060a0016040528060008152602001600081526020016000815260200160008152602001600081525090565b600081519050919050565b600082825260208201905092915050565b60005b83811015613ed4578082015181840152602081019050613eb9565b83811115613ee3576000848401525b50505050565b6000601f19601f8301169050919050565b6000613f0582613e9a565b613f0f8185613ea5565b9350613f1f818560208601613eb6565b613f2881613ee9565b840191505092915050565b60006020820190508181036000830152613f4d8184613efa565b905092915050565b600080fd5b600073ffffffffffffffffffffffffffffffffffffffff82169050919050565b6000613f8582613f5a565b9050919050565b613f9581613f7a565b8114613fa057600080fd5b50565b600081359050613fb281613f8c565b92915050565b6000819050919050565b613fcb81613fb8565b8114613fd657600080fd5b50565b600081359050613fe881613fc2565b92915050565b6000806040838503121561400557614004613f55565b5b600061401385828601613fa3565b925050602061402485828601613fd9565b9150509250929050565b61403781613fb8565b82525050565b6000602082019050614052600083018461402e565b92915050565b60008060006060848603121561407157614070613f55565b5b600061407f86828701613fa3565b935050602061409086828701613fa3565b92505060406140a186828701613fd9565b9150509250925092565b600060ff82169050919050565b6140c1816140ab565b82525050565b60006020820190506140dc60008301846140b8565b92915050565b6000602082840312156140f8576140f7613f55565b5b600061410684828501613fa3565b91505092915050565b600061411a82613f7a565b9050919050565b61412a8161410f565b811461413557600080fd5b50565b60008135905061414781614121565b92915050565b60006020828403121561416357614162613f55565b5b600061417184828501614138565b91505092915050565b6000602082840312156141905761418f613f55565b5b600061419e84828501613fd9565b91505092915050565b6141b081613f7a565b82525050565b60006020820190506141cb60008301846141a7565b92915050565b6000819050919050565b60006141f66141f16141ec84613f5a565b6141d1565b613f5a565b9050919050565b6000614208826141db565b9050919050565b600061421a826141fd565b9050919050565b61422a8161420f565b82525050565b60006020820190506142456000830184614221565b92915050565b6000604082019050614260600083018561402e565b61426d602083018461402e565b9392505050565b600081519050919050565b600082825260208201905092915050565b6000819050602082019050919050565b6142a981613f7a565b82525050565b60006142bb83836142a0565b60208301905092915050565b6000602082019050919050565b60006142df82614274565b6142e9818561427f565b93506142f483614290565b8060005b8381101561432557815161430c88826142af565b9750614317836142c7565b9250506001810190506142f8565b5085935050505092915050565b6000602082019050818103600083015261434c81846142d4565b905092915050565b600061435f82613f7a565b9050919050565b61436f81614354565b811461437a57600080fd5b50565b60008135905061438c81614366565b92915050565b600080604083850312156143a9576143a8613f55565b5b60006143b785828601613fa3565b92505060206143c88582860161437d565b9150509250929050565b60006060820190506143e7600083018661402e565b6143f4602083018561402e565b614401604083018461402e565b949350505050565b60008115159050919050565b61441e81614409565b82525050565b60006020820190506144396000830184614415565b92915050565b6000806040838503121561445657614455613f55565b5b600061446485828601613fa3565b925050602061447585828601613fa3565b9150509250929050565b600061448a82613f7a565b9050919050565b61449a8161447f565b81146144a557600080fd5b50565b6000813590506144b781614491565b92915050565b6000602082840312156144d3576144d2613f55565b5b60006144e1848285016144a8565b91505092915050565b60006144f5826141fd565b9050919050565b614505816144ea565b82525050565b600060208201905061452060008301846144fc565b92915050565b7f72652d656e746572656400000000000000000000000000000000000000000000600082015250565b600061455c600a83613ea5565b915061456782614526565b602082019050919050565b6000602082019050818103600083015261458b8161454f565b9050919050565b7f4e487b7100000000000000000000000000000000000000000000000000000000600052602260045260246000fd5b600060028204905060018216806145d957607f821691505b602082108114156145ed576145ec614592565b5b50919050565b7f4e487b7100000000000000000000000000000000000000000000000000000000600052601160045260246000fd5b600061462d82613fb8565b915061463883613fb8565b9250827fffffffffffffffffffffffffffffffffffffffffffffffffffffffffffffffff0382111561466d5761466c6145f3565b5b828201905092915050565b600061468382613fb8565b915061468e83613fb8565b9250828210156146a1576146a06145f3565b5b828203905092915050565b60006146b782613fb8565b91506146c283613fb8565b9250817fffffffffffffffffffffffffffffffffffffffffffffffffffffffffffffffff04831182151516156146fb576146fa6145f3565b5b828202905092915050565b7f4e487b7100000000000000000000000000000000000000000000000000000000600052601260045260246000fd5b600061474082613fb8565b915061474b83613fb8565b92508261475b5761475a614706565b5b828204905092915050565b7f554e415554484f52495a45440000000000000000000000000000000000000000600082015250565b600061479c600c83613ea5565b91506147a782614766565b602082019050919050565b600060208201905081810360008301526147cb8161478f565b9050919050565b60006040820190506147e760008301856141a7565b6147f460208301846141a7565b9392505050565b7f4f6e6c792061646d696e00000000000000000000000000000000000000000000600082015250565b6000614831600a83613ea5565b915061483c826147fb565b602082019050919050565b6000602082019050818103600083015261486081614824565b9050919050565b61487081614409565b811461487b57600080fd5b50565b60008151905061488d81614867565b92915050565b6000602082840312156148a9576148a8613f55565b5b60006148b78482850161487e565b91505092915050565b7f6d61726b6572206d6574686f642072657475726e65642066616c736500000000600082015250565b60006148f6601c83613ea5565b9150614901826148c0565b602082019050919050565b60006020820190508181036000830152614925816148e9565b9050919050565b60006040820190506149416000830185614221565b61494e6020830184614221565b9392505050565b7f494e53554646494349454e542043415348000000000000000000000000000000600082015250565b600061498b601183613ea5565b915061499682614955565b602082019050919050565b600060208201905081810360008301526149ba8161497e565b9050919050565b7f494e53554646494349454e542052455345525645530000000000000000000000600082015250565b60006149f7601583613ea5565b9150614a02826149c1565b602082019050919050565b60006020820190508181036000830152614a26816149ea565b9050919050565b6000606082019050614a4260008301866141a7565b614a4f602083018561402e565b614a5c604083018461402e565b949350505050565b600081519050614a7381613fc2565b92915050565b60008060408385031215614a9057614a8f613f55565b5b6000614a9e85828601614a64565b9250506020614aaf85828601614a64565b9150509250929050565b600060208284031215614acf57614ace613f55565b5b6000614add84828501614a64565b91505092915050565b7f626f72726f772072617465206973206162737572646c79206869676800000000600082015250565b6000614b1c601c83613ea5565b9150614b2782614ae6565b602082019050919050565b60006020820190508181036000830152614b4b81614b0f565b9050919050565b6000608082019050614b67600083018761402e565b614b74602083018661402e565b614b81604083018561402e565b614b8e606083018461402e565b95945050505050565b6000604082019050614bac60008301856144fc565b614bb960208301846144fc565b9392505050565b7f4f6e6c792061646d696e2066756e6374696f6e00000000000000000000000000600082015250565b6000614bf6601383613ea5565b9150614c0182614bc0565b602082019050919050565b60006020820190508181036000830152614c2581614be9565b9050919050565b7f56616c75652067726561746572207468616e206d617800000000000000000000600082015250565b6000614c62601683613ea5565b9150614c6d82614c2c565b602082019050919050565b60006020820190508181036000830152614c9181614c55565b9050919050565b6000608082019050614cad60008301876141a7565b614cba60208301866141a7565b614cc760408301856141a7565b614cd4606083018461402e565b95945050505050565b7f4241445f494e5055540000000000000000000000000000000000000000000000600082015250565b6000614d13600983613ea5565b9150614d1e82614cdd565b602082019050919050565b60006020820190508181036000830152614d4281614d06565b9050919050565b7f54494d45204d49534d4154434800000000000000000000000000000000000000600082015250565b6000614d7f600d83613ea5565b9150614d8a82614d49565b602082019050919050565b60006020820190508181036000830152614dae81614d72565b9050919050565b7f43414e27542053454c46204c4951554944415445000000000000000000000000600082015250565b6000614deb601483613ea5565b9150614df682614db5565b602082019050919050565b60006020820190508181036000830152614e1a81614dde565b9050919050565b7f416d6f756e74203d203000000000000000000000000000000000000000000000600082015250565b6000614e57600a83613ea5565b9150614e6282614e21565b602082019050919050565b60006020820190508181036000830152614e8681614e4a565b9050919050565b7f414d4f554e54206973204d41582076616c756500000000000000000000000000600082015250565b6000614ec3601383613ea5565b9150614ece82614e8d565b602082019050919050565b60006020820190508181036000830152614ef281614eb6565b9050919050565b6000606082019050614f0e60008301866141a7565b614f1b60208301856141a7565b614f28604083018461402e565b949350505050565b7f4c49515549444154455f5345495a455f544f4f5f4d5543480000000000000000600082015250565b6000614f66601883613ea5565b9150614f7182614f30565b602082019050919050565b60006020820190508181036000830152614f9581614f59565b9050919050565b600060a082019050614fb160008301886141a7565b614fbe60208301876141a7565b614fcb604083018661402e565b614fd860608301856141a7565b614fe5608083018461402e565b9695505050505050565b600060808201905061500460008301876141a7565b61501160208301866141a7565b61501e60408301856141a7565b61502b60608301846141a7565b95945050505050565b7f73656e646572206d69736d617463680000000000000000000000000000000000600082015250565b600061506a600f83613ea5565b915061507582615034565b602082019050919050565b600060208201905081810360008301526150998161505d565b9050919050565b7f76616c7565206d69736d61746368000000000000000000000000000000000000600082015250565b60006150d6600e83613ea5565b91506150e1826150a0565b602082019050919050565b60006020820190508181036000830152615105816150c9565b9050919050565b7f4f76657220726570617900000000000000000000000000000000000000000000600082015250565b6000615142600a83613ea5565b915061514d8261510c565b602082019050919050565b6000602082019050818103600083015261517181615135565b9050919050565b600060a08201905061518d60008301886141a7565b61519a60208301876141a7565b6151a7604083018661402e565b6151b4606083018561402e565b6151c1608083018461402e565b9695505050505050565b7f4661696c2065786368616e676520726174650000000000000000000000000000600082015250565b6000615201601283613ea5565b915061520c826151cb565b602082019050919050565b60006020820190508181036000830152615230816151f4565b9050919050565b7f496e73756666696369656e742063617368000000000000000000000000000000600082015250565b600061526d601183613ea5565b915061527882615237565b602082019050919050565b6000602082019050818103600083015261529c81615260565b9050919050565b6000815190506152b281613f8c565b92915050565b6000602082840312156152ce576152cd613f55565b5b60006152dc848285016152a3565b91505092915050565b7f544f4b454e5f494e53554646494349454e545f43415348000000000000000000600082015250565b600061531b601783613ea5565b9150615326826152e5565b602082019050919050565b6000602082019050818103600083015261534a8161530e565b9050919050565b600060808201905061536660008301876141a7565b615373602083018661402e565b615380604083018561402e565b61538d606083018461402e565b9594505050505056fea2646970667358221220684d1e2943e56ed63a6facd63793039ddcf8b88b0230754dac7f8901ee233eab64736f6c634300080c0033",
  "immutableReferences": {},
  "source": "// SPDX-License-Identifier: MIT\r\npragma solidity ^0.8.0;\r\n\r\nimport './interface/ComptrollerInterface.sol';\r\n//\r\n//  Lend token contract is forked and modified from venus' VToken contract\r\n//  LendREI is not ERC20 standard !!\r\n//\r\n\r\ncontract LendREI{\r\n\r\n    function isLendToken() external pure returns(bool) {return true;} // Indicator that this is the lend token\r\n\r\n    bool internal _notEntered; // re-entrancy guarding check\r\n    // -----------------------------\r\n    // Standard variables for tokens\r\n    // -----------------------------\r\n    string public name;\r\n    string public symbol;\r\n    uint8 public decimals;\r\n    uint public totalSupply;\r\n\r\n    mapping (address => uint256) accountTokens;\r\n    mapping (address => mapping (address => uint256)) transferAllowances;\r\n    address public admin;                                   //owner of this contract\r\n    // ----------------\r\n    // Market parameter\r\n    // ----------------\r\n    struct BorrowSnapshot {\r\n        uint principal;\r\n        uint interestIndex;\r\n    }\r\n    mapping (address => BorrowSnapshot) public accountBorrows;    //Outstanding borrow balances for each account\r\n    function getAccountBorrows(address user) external view returns(uint, uint) { \r\n        return (accountBorrows[user].principal, accountBorrows[user].interestIndex);\r\n    }\r\n\r\n    ComptrollerInterface public comptroller;                //get the comptroller\r\n    InterestRateModel public interestRateModel;\r\n\r\n    address[] public borrowAddress;         //Stored all borrow address\r\n    mapping(address => bool) hasBorrowed;  \r\n    function getBorrowAddress() external view returns(address[] memory){\r\n        return borrowAddress;\r\n    }\r\n\r\n    // -----------------\r\n    // Lending parameter\r\n    // -----------------\r\n    uint constant public borrowRateMaxMantissa = 0.0004e14;        //Maximum borrow rate (0.000004% / sec) or 126.14% /year\r\n    uint constant public reserveFactorMaxMantissa = 1e18;          //Maximum fraction of interest that can be set aside for reserves\r\n    uint constant public initialExchangeRateMantissa = 1e18;       //Initial exchange rate, Used when minting first Lend token (totalSupply = 0)\r\n    uint public reserveFactorMantissa;                          //Current fraction of interest\r\n\r\n    // AccrueInterest update parameter\r\n    uint public accrualTimestamp;                                //Last accrued block timestamp\r\n    uint public borrowIndex;                                       //Accumulate total earned interest rate\r\n    uint public totalBorrows;                                      //Total amount of borrowed underlying asset\r\n    uint public totalReserves;                                     //Total amount of underlying asset\r\n\r\n    modifier nonReentrant() {\r\n        require(_notEntered, \"re-entered\");\r\n        _notEntered = false;\r\n        _;\r\n        _notEntered = true; // get a gas-refund post-Istanbul\r\n    }\r\n\r\n\r\n    // ------------------\r\n    // Initiate parameter\r\n    // ------------------\r\n\r\n    constructor (string memory name_, string memory symbol_, uint8 decimals_, address interestRateModel_, address comptroller_) {\r\n\r\n        name = name_;\r\n        symbol = symbol_;\r\n        decimals = decimals_;\r\n\r\n        interestRateModel = InterestRateModel(interestRateModel_);\r\n        comptroller = ComptrollerInterface(comptroller_);\r\n        borrowIndex = 1e18;\r\n        reserveFactorMantissa = 0.2e18; //default reserveFactor = 20%\r\n        \r\n        accrualTimestamp = block.timestamp;\r\n        admin = msg.sender;\r\n        _notEntered = true;\r\n    }\r\n\r\n    // -------------\r\n    // Market Events\r\n    // -------------\r\n\r\n    event Mint(address minter, uint mintAmount, uint mintTokens);                                                               //Emit when tokens are minted\r\n    event Redeem(address redeemer, uint redeemAmount, uint redeemTokens);                                                       //Emit when tokens are redeemed\r\n    event RedeemFee(address redeemer, uint feeAmount, uint redeemTokens);                                                       //Emit when tokens are redeemed and fee are transferred\r\n    event Borrow(address borrower, uint borrowAmount, uint accountBorrows, uint totalBorrows);                                  //Emit when underlying is borrowed\r\n    event RepayBorrow(address payer, address borrower, uint repayAmount, uint accountBorrows, uint totalBorrows);               //Emit when a borrow is repaid\r\n    event LiquidateBorrow(address liquidator, address borrower, uint repayAmount, address LendTokenCollateral, uint seizeTokens);  //Emit when a borrow is liquidated\r\n    event NewLendTokenStorage(address oldLendTokenStorage, address newLendTokenStorage);\r\n\r\n    event AccrueInterest(uint cashPrior, uint interestAccumulated, uint borrowIndex, uint totalBorrows);                        //Emit when interest is accrued\r\n    event NEW_SUPERVISE_TOKEN(address oldLendToken, address newLendToken);                                                      //Emit when change the bind token\r\n    event NewMarketInterestRateModel(InterestRateModel oldInterestRateModel, InterestRateModel newInterestRateModel);           //Emit when changing interestRateModel\r\n    event NewReserveFactor(uint oldReserveFactorMantissa, uint newReserveFactorMantissa);                                       //Emit when changing reserve factor\r\n    event ReservesAdded(address benefactor, uint addAmount, uint newTotalReserves);                                             //Emit when adding reserves\r\n    event ReservesReduced(address admin, uint reduceAmount, uint newTotalReserves);                                             //Emit when reducing reserves\r\n    event NewComptroller(ComptrollerInterface oldComptroller, ComptrollerInterface newComptroller);                             //Emit when changing comptroller\r\n\r\n    // ------------\r\n    // Admin Events\r\n    // ------------\r\n\r\n    event NewAdmin(address oldAdmin, address newAdmin);    \r\n\r\n    /**\r\n        * @notice EIP20 Transfer event\r\n    */\r\n    event Transfer(address indexed from, address indexed to, uint amount);\r\n\r\n    /**\r\n      * @notice EIP20 Approval event\r\n    */\r\n    event Approval(address indexed owner, address indexed spender, uint amount);\r\n\r\n    /**\r\n     * @notice Transfer `tokens` tokens from `src` to `dst` by `spender`\r\n     * @dev Called by both `transfer` and `transferFrom` internally\r\n     * @param spender The address of the account performing the transfer\r\n     * @param src The address of the source account\r\n     * @param dst The address of the destination account\r\n     * @param tokens The number of tokens to transfer\r\n     */\r\n    function transferTokens(address spender, address src, address dst, uint tokens) internal{\r\n        /* Fail if transfer not allowed */\r\n        comptroller.transferAllowed(address(this), src, dst, tokens);\r\n\r\n        /* Do not allow self-transfers */\r\n        if (src == dst) {\r\n            revert (\"BAD_INPUT\");\r\n        }\r\n\r\n        /* Get the allowance, infinite for the account owner */\r\n        uint startingAllowance = 0;\r\n        if (spender == src) {\r\n            startingAllowance = type(uint).max;\r\n        } else {\r\n            startingAllowance = transferAllowances[src][spender];\r\n        }\r\n\r\n        uint allowanceNew;\r\n        uint srvTokensNew;\r\n        uint dstTokensNew;\r\n\r\n        allowanceNew = startingAllowance - tokens;\r\n        srvTokensNew = accountTokens[src] - tokens;\r\n        dstTokensNew = accountTokens[dst] + tokens;\r\n\r\n        /////////////////////////\r\n        // EFFECTS & INTERACTIONS\r\n        // (No safe failures beyond this point)\r\n\r\n        accountTokens[src] = srvTokensNew;\r\n        accountTokens[dst] = dstTokensNew;\r\n\r\n        /* Eat some of the allowance (if necessary) */\r\n        if (startingAllowance != type(uint).max) {\r\n            transferAllowances[src][spender] = allowanceNew;\r\n        }\r\n\r\n        /* We emit a Transfer event */\r\n        emit Transfer(src, dst, tokens);\r\n    }\r\n\r\n    /**\r\n     * @notice Transfer `amount` tokens from `msg.sender` to `dst`\r\n     * @param dst The address of the destination account\r\n     * @param amount The number of tokens to transfer\r\n     */\r\n    function transfer(address dst, uint256 amount) external nonReentrant {\r\n        transferTokens(msg.sender, msg.sender, dst, amount);\r\n    }\r\n\r\n    /**\r\n     * @notice Transfer `amount` tokens from `src` to `dst`\r\n     * @param src The address of the source account\r\n     * @param dst The address of the destination account\r\n     * @param amount The number of tokens to transfer\r\n     */\r\n    function transferFrom(address src, address dst, uint256 amount) external nonReentrant{\r\n        transferTokens(msg.sender, src, dst, amount);\r\n    }\r\n\r\n    /**\r\n     * @notice Approve `spender` to transfer up to `amount` from `src`\r\n     * @dev This will overwrite the approval amount for `spender`\r\n     *  and is subject to issues noted [here](https://eips.ethereum.org/EIPS/eip-20#approve)\r\n     * @param spender The address of the account which may transfer tokens\r\n     * @param amount The number of tokens that are approved\r\n     */\r\n    function approve(address spender, uint256 amount) external{\r\n        address src = msg.sender;\r\n        transferAllowances[src][spender] = amount;\r\n        emit Approval(src, spender, amount);\r\n    }\r\n\r\n    /**\r\n     * @notice Get the current allowance from `owner` for `spender`\r\n     * @param owner The address of the account which owns the tokens to be spent\r\n     * @param spender The address of the account which may transfer tokens\r\n     * @return The number of tokens allowed to be spent\r\n     */\r\n    function allowance(address owner, address spender) external view returns (uint256) {\r\n        return transferAllowances[owner][spender];\r\n    }\r\n\r\n    /**\r\n     * @notice Get the token balance of the `owner`\r\n     * @param owner The address of the account to query\r\n     * @return The number of tokens owned by `owner`\r\n     */\r\n    function balanceOf(address owner) external view returns (uint256) {\r\n        return accountTokens[owner];\r\n    }\r\n\r\n    /**\r\n     * @notice Get the underlying balance of the `owner`\r\n     * @dev This also accrues interest in a transaction\r\n     * @param owner The address of the account to query\r\n     * @return The amount of underlying owned by `owner`\r\n     */\r\n    function balanceOfUnderlying(address owner) external returns (uint) {\r\n        uint exchangeRate = exchangeRateCurrent();\r\n        uint balance = exchangeRate * accountTokens[owner] / 1e18;\r\n        return balance;\r\n    }\r\n\r\n    /**\r\n     * @notice Get a snapshot of the account's balances, and the cached exchange rate\r\n     * @dev This is used by comptroller to more efficiently perform liquidity checks.\r\n     * @param account Address of the account to snapshot\r\n     * @return (token balance, borrow balance, exchange rate mantissa)\r\n     */\r\n    function getAccountSnapshot(address account) external view returns (uint, uint, uint) {\r\n        uint LendTokenBalance = accountTokens[account];\r\n        uint borrowBalance;\r\n        uint exchangeRateMantissa;\r\n\r\n        borrowBalance = borrowBalanceStored(account);\r\n\r\n        exchangeRateMantissa = exchangeRateStored();\r\n\r\n        return (LendTokenBalance, borrowBalance, exchangeRateMantissa);\r\n    }\r\n\r\n\r\n    /**\r\n     * @notice Return the borrow balance of account based on stored data\r\n     * @param account The address whose balance should be calculated\r\n     * @return The principal * market borrow index / recorded borrowIndex\r\n     */\r\n    function borrowBalanceStored(address account) public view returns (uint) {\r\n        uint principalTimesIndex;\r\n        uint result;\r\n\r\n        /* Get borrowBalance and borrowIndex */\r\n        (uint principal, uint interestIndex) = this.getAccountBorrows(account);\r\n\r\n        if (principal == 0) {\r\n            return 0;\r\n        }\r\n\r\n        /* Calculate new borrow balance using the interest index:\r\n         *  recentBorrowBalance = borrower.borrowBalance * market.borrowIndex / borrower.borrowIndex\r\n         */\r\n\r\n        // principalTimesIndex is now 1e36  :: e18 * e18 = e36\r\n        principalTimesIndex = principal * borrowIndex;\r\n\r\n        // result is 1e18  :: e36 / e18 = e18\r\n        result = principalTimesIndex / interestIndex;\r\n\r\n        return result;\r\n    }\r\n    /**\r\n     * @notice Calculates the exchange rate from the underlying to the lendToken\r\n     * @dev This function does not accrue interest before calculating the exchange rate\r\n     * @return Calculated exchange rate scaled by 1e18\r\n     */\r\n    function exchangeRateStored() public view returns (uint) {\r\n        uint _totalSupply = totalSupply;\r\n        uint totalCash = getCashPrior();\r\n        uint cashPlusBorrowsMinusReserves;\r\n\r\n        if (_totalSupply == 0) {\r\n            /*\r\n             * If there are no tokens minted:\r\n             *  exchangeRate = initialExchangeRate\r\n             */\r\n            return (initialExchangeRateMantissa);\r\n        } else {\r\n            /*\r\n             * Otherwise:\r\n             *  exchangeRate = (totalCash + totalBorrows - totalReserves) / totalSupply\r\n             */\r\n\r\n            // cashPlusBorrows is in 1e18\r\n            cashPlusBorrowsMinusReserves = totalCash + totalBorrows - totalReserves;\r\n\r\n            // exchangeRate mantissa is in 1e18 :: e18 * 1e18 / e18\r\n            uint exchangeRateMantissa = cashPlusBorrowsMinusReserves * 1e18 / _totalSupply;\r\n\r\n            return exchangeRateMantissa;\r\n        }\r\n    }\r\n    function getCash() public view returns (uint) {\r\n        return payable(address(this)).balance;\r\n    }\r\n\r\n    function getCashPrior() internal view returns (uint) {\r\n        uint contractBalance = payable(address(this)).balance;\r\n        uint startingBalance = contractBalance - msg.value;\r\n        return startingBalance;\r\n    }\r\n    /**\r\n     * @notice Applies accrued interest to total borrows and reserves\r\n     * @dev This calculates interest accrued from the last checkpointed timestamp\r\n     *   up to the current timestamp and writes new checkpoint to storage.\r\n     */\r\n    function accrueInterest() public {\r\n        /* Remember the initial block timestamp */\r\n        uint currentTimestamp = block.timestamp;\r\n        uint accrualTimestampPrior = accrualTimestamp;\r\n\r\n        /* Short-circuit accumulating 0 interest */\r\n        if (accrualTimestampPrior == currentTimestamp) {\r\n            return ;\r\n        }\r\n\r\n        /* Read the previous values out of storage */\r\n        uint cashPrior = getCashPrior();\r\n        uint borrowsPrior = totalBorrows;\r\n        uint reservesPrior = totalReserves;\r\n        uint borrowIndexPrior = borrowIndex;\r\n\r\n        /* Calculate the current borrow interest rate */\r\n        uint borrowRateMantissa = interestRateModel.getBorrowRate(cashPrior, borrowsPrior, reservesPrior);\r\n        require(borrowRateMantissa <= borrowRateMaxMantissa, \"borrow rate is absurdly high\");\r\n\r\n        /* Calculate the time elapsed since the last accrual */\r\n        uint timeDelta = currentTimestamp - accrualTimestampPrior;\r\n\r\n        /*\r\n         * Calculate the interest accumulated into borrows and reserves and the new index:\r\n         *  simpleInterestFactor = borrowRate * timeDelta\r\n         *  interestAccumulated = simpleInterestFactor * totalBorrows\r\n         *  totalBorrowsNew = interestAccumulated + totalBorrows\r\n         *  totalReservesNew = interestAccumulated * reserveFactor + totalReserves\r\n         *  borrowIndexNew = simpleInterestFactor * borrowIndex + borrowIndex\r\n         */\r\n\r\n        uint simpleInterestFactor;\r\n        uint interestAccumulated;\r\n        uint totalBorrowsNew;\r\n        uint totalReservesNew;\r\n        uint borrowIndexNew;\r\n\r\n        // simpleInterestFactor is 1e18 :: e18 * e1\r\n        simpleInterestFactor = borrowRateMantissa * timeDelta;\r\n        // interestAccumulated is 1e18 :: e18 * e18 /1e18\r\n        interestAccumulated = simpleInterestFactor * borrowsPrior / 1e18;\r\n        // totalBorrowsNew is 1e18\r\n        totalBorrowsNew = interestAccumulated + borrowsPrior;\r\n        // totalReservesNew is 1e18  :: (e18 * e18 / e18) + e18\r\n        totalReservesNew = (reserveFactorMantissa * interestAccumulated / 1e18) + reservesPrior;\r\n        // borrowIndexNew is 1e18 :: (e18 * e18 / e18) + e18\r\n        borrowIndexNew = (simpleInterestFactor * borrowIndexPrior / 1e18) + borrowIndexPrior;\r\n\r\n        /////////////////////////\r\n        // EFFECTS & INTERACTIONS\r\n        // (No safe failures beyond this point)\r\n\r\n        /* We write the previously calculated values into storage */\r\n        accrualTimestamp = currentTimestamp;\r\n        borrowIndex = borrowIndexNew;\r\n        totalBorrows = totalBorrowsNew;\r\n        totalReserves = totalReservesNew;\r\n\r\n        /* We emit an AccrueInterest event */\r\n        emit AccrueInterest(cashPrior, interestAccumulated, borrowIndexNew, totalBorrowsNew);\r\n    }\r\n    /**\r\n     * @notice Returns the current per-seconds borrow interest rate for this LendToken\r\n     * @return The borrow interest rate per seconds, scaled by 1e18\r\n     */\r\n    function borrowRatePerSeconds() external view returns (uint) {\r\n        return interestRateModel.getBorrowRate(getCashPrior(), totalBorrows, totalReserves);\r\n    }\r\n\r\n    /**\r\n     * @notice Returns the current per-seconds supply interest rate for this lendToken\r\n     * @return The supply interest rate per seconds, scaled by 1e18\r\n     */\r\n    function supplyRatePerSeconds() external view returns (uint) {\r\n        return interestRateModel.getSupplyRate(getCashPrior(), totalBorrows, totalReserves, reserveFactorMantissa);\r\n    }\r\n\r\n\r\n    /**\r\n     * @notice Accrue interest then return the up-to-date exchange rate\r\n     * @return Calculated exchange rate scaled by 1e18\r\n     */\r\n    function exchangeRateCurrent() public returns (uint) {\r\n        accrueInterest();\r\n        return exchangeRateStored();\r\n    }\r\n\r\n    /**\r\n     * @notice Sender supplies assets into the market and receives lendTokens in exchange\r\n     * @dev Accrues interest whether or not the operation succeeds, unless reverted\r\n     * @return (uint) the actual mint amount.\r\n     */\r\n    function mint() external payable returns(uint) {\r\n        return mintInternal(msg.value);\r\n    }\r\n    function mintInternal(uint mintAmount) internal nonReentrant returns (uint) {\r\n        accrueInterest();\r\n        // mintFresh emits the actual Mint event if successful and logs on errors, so we don't need to\r\n        return mintFresh(msg.sender, mintAmount);\r\n    }\r\n\r\n\r\n    /**\r\n     * @notice User supplies assets into the market and receives lendTokens in exchange\r\n     * @dev Assumes interest has already been accrued up to the current timestamp\r\n     * @param minter The address of the account which is supplying the assets\r\n     * @param mintAmount The amount of the underlying asset to supply\r\n     * @return (uint) the actual mint amount.\r\n     */\r\n    function mintFresh(address minter, uint mintAmount) internal returns (uint) {\r\n        /* Fail if mint not allowed */\r\n        comptroller.mintAllowed(address(this), minter);\r\n\r\n        uint exchangeRateMantissa;\r\n        uint mintTokens;\r\n        uint totalSupplyNew;\r\n        uint accountTokensNew;\r\n        uint actualMintAmount;\r\n\r\n        exchangeRateMantissa = exchangeRateStored();\r\n\r\n        /////////////////////////\r\n        // EFFECTS & INTERACTIONS\r\n        // (No safe failures beyond this point)\r\n\r\n        actualMintAmount = doTransferIn(minter, mintAmount);\r\n\r\n        /*\r\n         * We get the current exchange rate and calculate the number of lendTokens to be minted:\r\n         *  mintTokens = actualMintAmount / exchangeRate\r\n         */\r\n\r\n        mintTokens = actualMintAmount * 1e18 / exchangeRateMantissa;\r\n\r\n        /*\r\n         * We calculate the new total supply of lendTokens and minter token balance, checking for overflow:\r\n         *  totalSupplyNew = totalSupply + mintTokens\r\n         *  accountTokensNew = accountTokens[minter] + mintTokens\r\n         */\r\n        totalSupplyNew = totalSupply + mintTokens;\r\n        accountTokensNew = accountTokens[minter] + mintTokens;\r\n\r\n\r\n        /* We write previously calculated values into storage */\r\n        totalSupply = totalSupplyNew;\r\n        accountTokens[minter] = accountTokensNew;\r\n\r\n        /* We emit a Mint event, and a Transfer event */\r\n        emit Mint(minter, actualMintAmount, mintTokens);\r\n        emit Transfer(address(this), minter, mintTokens);\r\n\r\n        return (actualMintAmount);\r\n    }\r\n\r\n    /**\r\n     * @notice Sender redeems lendTokens in exchange for the underlying asset\r\n     * @dev Accrues interest whether or not the operation succeeds, unless reverted\r\n     * @param redeemTokens The number of lendTokens to redeem into underlying\r\n     */\r\n    function redeem(uint redeemTokens) external{\r\n        redeemInternal(redeemTokens);\r\n    }\r\n    function redeemInternal(uint redeemTokens) internal nonReentrant {\r\n        accrueInterest();\r\n        redeemFresh(msg.sender, redeemTokens, 0);\r\n    }\r\n\r\n    /**\r\n     * @notice Sender redeems lendTokens in exchange for a specified amount of underlying asset\r\n     * @dev Accrues interest whether or not the operation succeeds, unless reverted\r\n     * @param redeemAmount The amount of underlying to receive from redeeming lendTokens\r\n     */\r\n    function redeemUnderlying(uint redeemAmount) external{\r\n        redeemUnderlyingInternal(redeemAmount);\r\n    }\r\n    function redeemUnderlyingInternal(uint redeemAmount) internal nonReentrant{\r\n        accrueInterest();\r\n        redeemFresh(msg.sender, 0, redeemAmount);\r\n    }\r\n\r\n\r\n    /**\r\n     * @notice User redeems lendTokens in exchange for the underlying asset\r\n     * @dev Assumes interest has already been accrued up to the current timestamp\r\n     * @param redeemer The address of the account which is redeeming the tokens\r\n     * @param redeemTokensIn The number of lendTokens to redeem into underlying (only one of redeemTokensIn or redeemAmountIn may be non-zero)\r\n     * @param redeemAmountIn The number of underlying tokens to receive from redeeming lendTokens (only one of redeemTokensIn or redeemAmountIn may be non-zero)\r\n     */\r\n    struct RedeemVars {\r\n        uint exchangeRateMantissa;\r\n        uint redeemTokens;\r\n        uint redeemAmount;\r\n        uint totalSupplyNew;\r\n        uint accountTokensNew;\r\n    }\r\n    function redeemFresh(address redeemer, uint redeemTokensIn, uint redeemAmountIn) internal{\r\n        require(redeemTokensIn == 0 || redeemAmountIn == 0, \"BAD_INPUT\");\r\n\r\n\r\n        RedeemVars memory vars;\r\n\r\n        \r\n        /* exchangeRate = invoke Exchange Rate Stored() */\r\n        vars.exchangeRateMantissa = exchangeRateStored();\r\n        if (vars.exchangeRateMantissa == 0) {\r\n            revert (\"Fail exchange rate\");\r\n        }\r\n\r\n        /* If redeemTokensIn > 0: */\r\n        if (redeemTokensIn > 0) {\r\n            /*\r\n             * We calculate the exchange rate and the amount of underlying to be redeemed:\r\n             *  redeemTokens = redeemTokensIn\r\n             *  redeemAmount = redeemTokensIn x exchangeRateCurrent\r\n             */\r\n            vars.redeemTokens = redeemTokensIn;\r\n\r\n            // redeemAmount is 1e18 :: e18*e18 / 1e18\r\n            vars.redeemAmount = vars.exchangeRateMantissa * redeemTokensIn / 1e18;\r\n        } else {\r\n            /*\r\n             * We get the current exchange rate and calculate the amount to be redeemed:\r\n             *  redeemTokens = redeemAmountIn / exchangeRate\r\n             *  redeemAmount = redeemAmountIn\r\n             */\r\n\r\n            // redeemTokens is 1e18 :: e18 * 1e18 / e18\r\n            vars.redeemTokens = redeemAmountIn * 1e18 / vars.exchangeRateMantissa;\r\n\r\n            vars.redeemAmount = redeemAmountIn;\r\n        }\r\n\r\n            /* Fail if redeem not allowed */\r\n        comptroller.redeemAllowed(address(this), redeemer, vars.redeemTokens);\r\n\r\n\r\n        /*\r\n         * We calculate the new total supply and redeemer balance, checking for underflow:\r\n         *  totalSupplyNew = totalSupply - redeemTokens\r\n         *  accountTokensNew = accountTokens[redeemer] - redeemTokens\r\n         */\r\n\r\n        vars.totalSupplyNew = totalSupply - vars.redeemTokens;\r\n\r\n        vars.accountTokensNew = accountTokens[redeemer] - vars.redeemTokens;\r\n\r\n        /* Fail gracefully if protocol has insufficient cash */\r\n        if (getCashPrior() < vars.redeemAmount) {\r\n            revert (\"Insufficient cash\");\r\n        }\r\n\r\n        /////////////////////////\r\n        // EFFECTS & INTERACTIONS\r\n        // (No safe failures beyond this point)\r\n\r\n        uint feeAmount;\r\n        uint remainedAmount;\r\n        if (IComptroller(address(comptroller)).treasuryPercent() != 0) {\r\n            //feeAmount is 1e18 :: e18 * e18 /1e18\r\n            feeAmount = vars.redeemAmount * IComptroller(address(comptroller)).treasuryPercent() /1e18;\r\n            remainedAmount = vars.redeemAmount - feeAmount;\r\n\r\n        } else {\r\n            remainedAmount = vars.redeemAmount;\r\n        }\r\n        \r\n\r\n        if(feeAmount != 0) {\r\n            doTransferOut(IComptroller(address(comptroller)).treasuryAddress(), feeAmount);\r\n            emit RedeemFee(redeemer, feeAmount, vars.redeemTokens);\r\n        }\r\n        doTransferOut(redeemer, remainedAmount);\r\n\r\n        /* We write previously calculated values into storage */\r\n        totalSupply = vars.totalSupplyNew;\r\n        accountTokens[redeemer] = vars.accountTokensNew;\r\n\r\n        /* We emit a Transfer event, and a Redeem event */\r\n        emit Transfer(redeemer, address(this), vars.redeemTokens);\r\n        emit Redeem(redeemer, remainedAmount, vars.redeemTokens);\r\n    }\r\n    /**\r\n      * @notice Sender borrows assets from the protocol to their own address\r\n      * @param borrowAmount The amount of the underlying asset to borrow\r\n      */\r\n    function borrow(uint borrowAmount) external {\r\n        borrowInternal(borrowAmount);\r\n    }\r\n    function borrowInternal(uint borrowAmount) internal nonReentrant {\r\n        accrueInterest();\r\n        // borrowFresh emits borrow-specific logs on errors, so we don't need to\r\n        borrowFresh(msg.sender, borrowAmount);\r\n    }\r\n\r\n\r\n    /*\r\n      * @notice Users borrow assets from the protocol to their own address\r\n      * @param borrowAmount The amount of the underlying asset to borrow\r\n      */\r\n    function borrowFresh(address  borrower, uint borrowAmount) internal {\r\n        /* Fail if borrow not allowed */\r\n        comptroller.borrowAllowed(address(this), borrower, borrowAmount);\r\n\r\n        /* Fail gracefully if protocol has insufficient underlying cash */\r\n        if (getCashPrior() < borrowAmount) {\r\n            revert(\"TOKEN_INSUFFICIENT_CASH\");\r\n        }\r\n\r\n        uint localvarsAccountBorrows;\r\n        uint accountBorrowsNew;\r\n        uint totalBorrowsNew;\r\n\r\n        /*\r\n         * We calculate the new borrower and total borrow balances, failing on overflow:\r\n         *  accountBorrowsNew = accountBorrows + borrowAmount\r\n         *  totalBorrowsNew = totalBorrows + borrowAmount\r\n         */\r\n        localvarsAccountBorrows = borrowBalanceStored(borrower);\r\n\r\n        accountBorrowsNew = localvarsAccountBorrows + borrowAmount;\r\n        totalBorrowsNew = totalBorrows + borrowAmount;\r\n\r\n        /////////////////////////\r\n        // EFFECTS & INTERACTIONS\r\n        // (No safe failures beyond this point)\r\n\r\n        // List borrower to the ledger\r\n        if (hasBorrowed[borrower] == false){\r\n            hasBorrowed[borrower] = true;\r\n            borrowAddress.push(borrower);\r\n        }   \r\n        doTransferOut(borrower, borrowAmount);\r\n\r\n        /* We write the previously calculated values into storage */\r\n        accountBorrows[borrower].principal = accountBorrowsNew;\r\n        accountBorrows[borrower].interestIndex = borrowIndex;\r\n        \r\n        totalBorrows = totalBorrowsNew;\r\n\r\n        /* We emit a Borrow event */\r\n        emit Borrow(borrower, borrowAmount, accountBorrowsNew, totalBorrowsNew);\r\n    }\r\n\r\n    /**\r\n     * @notice Sender repays their own borrow\r\n     * @return actualRepayAmount\r\n     */\r\n    function repayBorrow() external payable returns (uint) {\r\n        return repayBorrowInternal(msg.value);\r\n    }\r\n    function repayBorrowInternal(uint repayAmount) internal nonReentrant returns (uint) {\r\n        accrueInterest();\r\n        // repayBorrowFresh emits repay-borrow-specific logs on errors, so we don't need to\r\n        return repayBorrowFresh(msg.sender, msg.sender, repayAmount);\r\n    }\r\n\r\n\r\n    /**\r\n     * @notice Borrows are repaid by another user (possibly the borrower).\r\n     * @param payer the account paying off the borrow\r\n     * @param borrower the account with the debt being payed off\r\n     * @param repayAmount the amount of undelrying tokens being returned\r\n     */\r\n    function repayBorrowFresh(address payer, address borrower, uint repayAmount) internal returns (uint) {\r\n        /* Fail if repayBorrow not allowed */\r\n        comptroller.repayBorrowAllowed(address(this), borrower);\r\n\r\n        uint localvarsRepayAmount;\r\n        uint borrowerIndex;\r\n        uint localvarsAccountBorrows;\r\n        uint accountBorrowsNew;\r\n        uint totalBorrowsNew;\r\n        uint actualRepayAmount;\r\n\r\n        /* We remember the original borrowerIndex for verification purposes */\r\n        borrowerIndex = accountBorrows[borrower].interestIndex;\r\n\r\n        /* We fetch the amount the borrower owes, with accumulated interest */\r\n        localvarsAccountBorrows = borrowBalanceStored(borrower);\r\n\r\n        /* this part is modified from venus vToken contract,  */\r\n        // prevent over repay by change repayAmount to maximum repay (total borrowed amount)\r\n        if (repayAmount >= localvarsAccountBorrows) {\r\n            // Could 'not allowed' to over repay in LendREI because the use of payable function\r\n            // if this happen the transaction will revert in 'doTransferIn' function\r\n                // localvarsRepayAmount = localvarsAccountBorrows;\r\n            // We revert here to prevent over gas cost\r\n            revert('Over repay');\r\n        } else {\r\n            localvarsRepayAmount = repayAmount;\r\n        }\r\n\r\n        /////////////////////////\r\n        // EFFECTS & INTERACTIONS\r\n        // (No safe failures beyond this point)\r\n\r\n        actualRepayAmount = doTransferIn(payer, localvarsRepayAmount);\r\n\r\n        /*\r\n         * We calculate the new borrower and total borrow balances, failing on underflow:\r\n         *  accountBorrowsNew = accountBorrows - actualRepayAmount\r\n         *  totalBorrowsNew = totalBorrows - actualRepayAmount\r\n         */\r\n        accountBorrowsNew = localvarsAccountBorrows - actualRepayAmount;\r\n\r\n        totalBorrowsNew = totalBorrows - actualRepayAmount;\r\n\r\n        /* We write the previously calculated values into storage */\r\n        accountBorrows[borrower].principal = accountBorrowsNew;\r\n        accountBorrows[borrower].interestIndex = borrowIndex;\r\n        \r\n        totalBorrows = totalBorrowsNew;\r\n\r\n        /* We emit a RepayBorrow event */\r\n        emit RepayBorrow(payer, borrower, actualRepayAmount, accountBorrowsNew, totalBorrowsNew);\r\n\r\n        return actualRepayAmount;\r\n    }\r\n\r\n    function liquidateBorrow(address borrower, LendTokenInterface lendTokenCollateral) external payable returns (uint) {\r\n        return liquidateBorrowInternal(borrower, msg.value, lendTokenCollateral);\r\n    }\r\n    // Fallback function, sending Rei to contract will mint tokens\r\n    receive() external payable {\r\n        mintInternal(msg.value);\r\n    }\r\n    /**\r\n     * @notice The sender liquidates the borrowers collateral.\r\n     *  The collateral seized is transferred to the liquidator.\r\n     * @param borrower The borrower of this lendToken to be liquidated\r\n     * @param lendTokenCollateral The market in which to seize collateral from the borrower\r\n     * @param repayAmount The amount of the underlying borrowed asset to repay\r\n     */\r\n    function liquidateBorrowInternal(address borrower, uint repayAmount, LendTokenInterface lendTokenCollateral) internal nonReentrant returns (uint) {\r\n        //Interest must be update in this and Collateral lendToken\r\n        accrueInterest();\r\n        lendTokenCollateral.accrueInterest();\r\n\r\n        address liquidator = msg.sender;\r\n\r\n        /* Fail if liquidate not allowed */\r\n        comptroller.liquidateBorrowAllowed(address(this), address(lendTokenCollateral), borrower, repayAmount);\r\n\r\n        /* Verify lendTokenCollateral market's lastTimestamp equals current timestamp */\r\n        if (lendTokenCollateral.accrualTimestamp() != block.timestamp) {\r\n            revert (\"TIME MISMATCH\");\r\n        }\r\n\r\n        /* Fail if borrower = liquidator */\r\n        if (borrower == liquidator) {\r\n            revert (\"CAN'T SELF LIQUIDATE\");\r\n        }\r\n\r\n        /* Fail if repayAmount = 0 */\r\n        if (repayAmount == 0) {\r\n            revert (\"Amount = 0\");\r\n        }\r\n\r\n        /* Fail if repayAmount = -1 */\r\n        if (repayAmount == type(uint).max) {\r\n            revert (\"AMOUNT is MAX value\");\r\n        }\r\n\r\n        /* Fail if repayBorrow fails */\r\n        uint actualRepayAmount = repayBorrowFresh(liquidator, borrower, repayAmount);\r\n\r\n        /////////////////////////\r\n        // EFFECTS & INTERACTIONS\r\n        // (No safe failures beyond this point)\r\n\r\n        /* We calculate the number of collateral tokens that will be seized */\r\n        uint seizeTokens = comptroller.liquidateCalculateSeizeTokens(address(this), address(lendTokenCollateral), actualRepayAmount);\r\n\r\n        /* Revert if borrower collateral token balance < seizeTokens */\r\n        require(lendTokenCollateral.balanceOf(borrower) >= seizeTokens, \"LIQUIDATE_SEIZE_TOO_MUCH\");\r\n\r\n        // If this is also the collateral, run seizeInternal to avoid re-entrancy, otherwise make an external call\r\n        if (address(lendTokenCollateral) == address(this)) {\r\n            seizeInternal(address(this), liquidator, borrower, seizeTokens);\r\n        } else {\r\n            lendTokenCollateral.seize(liquidator, borrower, seizeTokens);\r\n        }\r\n\r\n\r\n        /* We emit a LiquidateBorrow event */\r\n        emit LiquidateBorrow(liquidator, borrower, actualRepayAmount, address(lendTokenCollateral), seizeTokens);\r\n\r\n        return actualRepayAmount;\r\n    }\r\n\r\n\r\n\r\n    /**\r\n     * @notice Transfers collateral tokens (this market) to the liquidator.\r\n     * @dev Will fail unless called by another lendToken during the process of liquidation.\r\n     *  Its absolutely critical to use msg.sender as the borrowed lendToken and not a parameter.\r\n     * @param liquidator The account receiving seized collateral\r\n     * @param borrower The account having collateral seized\r\n     * @param seizeTokens The number of lendTokens to seize\r\n     */\r\n    function seize(address liquidator, address borrower, uint seizeTokens) external nonReentrant{\r\n        // msg.sender pass the contract caller address to get allowance.\r\n        // only Collateral LendToken OR aurumController which are listed in market can call and got allowed.\r\n        seizeInternal(msg.sender, liquidator, borrower, seizeTokens);\r\n    }\r\n\r\n    /**\r\n     * @notice Transfers collateral tokens (this market) to the liquidator.\r\n     * @dev Called only during an in-kind liquidation, or by liquidateBorrow during the liquidation of another lendToken.\r\n     *  Its absolutely critical to use msg.sender as the seizer lendToken and not a parameter.\r\n     * @param seizerToken The contract seizing the collateral (i.e. borrowed lendToken)\r\n     * @param liquidator The account receiving seized collateral\r\n     * @param borrower The account having collateral seized\r\n     * @param seizeTokens The number of lendTokens to seize\r\n     */\r\n    function seizeInternal(address seizerToken, address liquidator, address borrower, uint seizeTokens) internal{\r\n        /* Fail if seize not allowed */\r\n        comptroller.seizeAllowed(address(this), seizerToken, liquidator, borrower);\r\n\r\n        /* Fail if borrower = liquidator */\r\n        if (borrower == liquidator) {\r\n            revert (\"CAN'T SELF LIQUIDATE\");\r\n        }\r\n\r\n        uint borrowerTokensNew;\r\n        uint liquidatorTokensNew;\r\n\r\n        /*\r\n         * We calculate the new borrower and liquidator token balances, failing on underflow/overflow:\r\n         *  borrowerTokensNew = accountTokens[borrower] - seizeTokens\r\n         *  liquidatorTokensNew = accountTokens[liquidator] + seizeTokens\r\n         */\r\n        borrowerTokensNew = accountTokens[borrower] - seizeTokens;\r\n\r\n        liquidatorTokensNew = accountTokens[liquidator] + seizeTokens;\r\n\r\n        /////////////////////////\r\n        // EFFECTS & INTERACTIONS\r\n        // (No safe failures beyond this point)\r\n\r\n        /* We write the previously calculated values into storage */\r\n        accountTokens[borrower] = borrowerTokensNew;\r\n        accountTokens[liquidator] = liquidatorTokensNew;\r\n\r\n        /* Emit a Transfer event */\r\n        emit Transfer(borrower, liquidator, seizeTokens);\r\n    }\r\n\r\n/*** Admin Functions ***/\r\n\r\n    function _setAdmin(address newAdmin) external{\r\n        // Check caller = admin\r\n        if (msg.sender != admin) {\r\n            revert(\"UNAUTHORIZED\");\r\n        }\r\n\r\n        address oldAdmin = admin;\r\n        admin = newAdmin;\r\n\r\n        emit NewAdmin(oldAdmin, newAdmin);\r\n    }\r\n\r\n    // Fee rate\r\n    function _setReserveFactor(uint newReserveFactorMantissa) external {\r\n        //Only admin function\r\n        require (msg.sender == admin,\"Only admin function\");\r\n        accrueInterest();\r\n\r\n        // Check newReserveFactor  maxReserveFactor\r\n        if (newReserveFactorMantissa > reserveFactorMaxMantissa) {\r\n            revert (\"Value greater than max\");\r\n        }\r\n\r\n        uint oldReserveFactorMantissa = reserveFactorMantissa;\r\n        reserveFactorMantissa = newReserveFactorMantissa;\r\n\r\n        emit NewReserveFactor(oldReserveFactorMantissa, newReserveFactorMantissa);\r\n    }\r\n\r\n    function _setInterestRateModel(InterestRateModel newInterestRateModel) external {\r\n        require (msg.sender == admin, \"Only admin\");\r\n\r\n        accrueInterest();\r\n\r\n        // _setInterestRateModelFresh emits interest-rate-model-update-specific logs on errors, so we don't need to.\r\n        // Used to store old model for use in the event that is emitted on success\r\n        InterestRateModel oldInterestRateModel;\r\n\r\n        // Track the market's current interest rate model\r\n        oldInterestRateModel = interestRateModel;\r\n\r\n        // Ensure invoke newInterestRateModel.isInterestRateModel() returns true\r\n        require(newInterestRateModel.isInterestRateModel(), \"marker method returned false\");\r\n\r\n        // Set the interest rate model to newInterestRateModel\r\n        interestRateModel = newInterestRateModel;\r\n\r\n        // Emit NewMarketInterestRateModel(oldInterestRateModel, newInterestRateModel)\r\n        emit NewMarketInterestRateModel(oldInterestRateModel, newInterestRateModel);\r\n    }\r\n\r\n    function _setComptroller(ComptrollerInterface newComptroller) external{\r\n        require (msg.sender == admin, \"Only admin\");\r\n\r\n        ComptrollerInterface oldComptroller = comptroller;\r\n        // Ensure invoke comptroller.isComptroller() returns true\r\n        require(newComptroller.isComptroller(), \"marker method returned false\");\r\n\r\n        // Set market's comptroller to newComptroller\r\n        comptroller = newComptroller;\r\n\r\n        // Emit NewComptroller(oldComptroller, newComptroller)\r\n        emit NewComptroller(oldComptroller, newComptroller);\r\n\r\n    }\r\n\r\n    function _reduceReserves(uint reduceAmount) external nonReentrant{\r\n        if (msg.sender != admin) {\r\n            revert(\"UNAUTHORIZED\");\r\n        }\r\n        accrueInterest();\r\n        // Fail gracefully if protocol has insufficient underlying cash\r\n        if (getCashPrior() < reduceAmount) {\r\n            revert (\"INSUFFICIENT CASH\");\r\n        }\r\n\r\n        // Check reduceAmount  reserves[n] (totalReserves)\r\n        if (reduceAmount > totalReserves) {\r\n            revert (\"INSUFFICIENT RESERVES\");\r\n        }\r\n\r\n        // totalReserves - reduceAmount\r\n        uint totalReservesNew;\r\n\r\n        /////////////////////////\r\n        // EFFECTS & INTERACTIONS\r\n        // (No safe failures beyond this point)\r\n\r\n        totalReservesNew = totalReserves - reduceAmount;\r\n\r\n        // Store reserves[n+1] = reserves[n] - reduceAmount\r\n        totalReserves = totalReservesNew;\r\n\r\n        emit ReservesReduced(admin, reduceAmount, totalReservesNew);\r\n        // doTransferOut reverts if anything goes wrong, since we can't be sure if side effects occurred.\r\n        doTransferOut(admin, reduceAmount);\r\n    }\r\n\r\n\r\n/*** Safe Token ***/\r\n\r\n    /**\r\n     * @dev Similar to EIP20 transfer, except it handles a False result from `transferFrom` and reverts in that case.\r\n     *      This will revert due to insufficient balance or insufficient allowance.\r\n     *      This function returns the actual amount received,\r\n     *      which may be less than `amount` if there is a fee attached to the transfer.\r\n     *\r\n     *      Note: This wrapper safely handles non-standard ERC-20 tokens that do not return a value.\r\n     *            See here: https://medium.com/coinmonks/missing-return-value-bug-at-least-130-tokens-affected-d67bf08521ca\r\n     */\r\n    function doTransferIn(address from, uint amount) internal returns (uint) {\r\n        // Sanity checks\r\n        require(msg.sender == from, \"sender mismatch\");\r\n        require(msg.value == amount, \"value mismatch\");\r\n        return amount;\r\n    }\r\n\r\n    /**\r\n     * @dev Similar to EIP20 transfer, except it handles a False success from `transfer` and returns an explanatory\r\n     *      error code rather than reverting. If caller has not called checked protocol's balance, this may revert due to\r\n     *      insufficient cash held in this contract. If caller has checked protocol's balance prior to this call, and verified\r\n     *      it is >= amount, this should not revert in normal conditions.\r\n     *\r\n     *      Note: This wrapper safely handles non-standard ERC-20 tokens that do not return a value.\r\n     *            See here: https://medium.com/coinmonks/missing-return-value-bug-at-least-130-tokens-affected-d67bf08521ca\r\n     */\r\n    function doTransferOut(address to, uint amount) internal {\r\n        payable(to).transfer(amount);\r\n    }\r\n\r\n\r\n}",
  "sourcePath": "C:\\Users\\chana\\desktop\\aurumdefi\\src\\contracts\\LendREI.sol",
  "compiler": {
    "name": "solc",
    "version": "0.8.12+commit.f00d7308.Emscripten.clang"
  },
  "schemaVersion": "3.4.6",
  "updatedAt": "2022-04-12T10:16:33.948Z",
  "networkType": "ethereum",
  "devdoc": {
    "kind": "dev",
    "methods": {
      "accrueInterest()": {
        "details": "This calculates interest accrued from the last checkpointed timestamp   up to the current timestamp and writes new checkpoint to storage."
      },
      "allowance(address,address)": {
        "params": {
          "owner": "The address of the account which owns the tokens to be spent",
          "spender": "The address of the account which may transfer tokens"
        },
        "returns": {
          "_0": "The number of tokens allowed to be spent"
        }
      },
      "approve(address,uint256)": {
        "details": "This will overwrite the approval amount for `spender`  and is subject to issues noted [here](https://eips.ethereum.org/EIPS/eip-20#approve)",
        "params": {
          "amount": "The number of tokens that are approved",
          "spender": "The address of the account which may transfer tokens"
        }
      },
      "balanceOf(address)": {
        "params": {
          "owner": "The address of the account to query"
        },
        "returns": {
          "_0": "The number of tokens owned by `owner`"
        }
      },
      "balanceOfUnderlying(address)": {
        "details": "This also accrues interest in a transaction",
        "params": {
          "owner": "The address of the account to query"
        },
        "returns": {
          "_0": "The amount of underlying owned by `owner`"
        }
      },
      "borrow(uint256)": {
        "params": {
          "borrowAmount": "The amount of the underlying asset to borrow"
        }
      },
      "borrowBalanceStored(address)": {
        "params": {
          "account": "The address whose balance should be calculated"
        },
        "returns": {
          "_0": "The principal * market borrow index / recorded borrowIndex"
        }
      },
      "borrowRatePerSeconds()": {
        "returns": {
          "_0": "The borrow interest rate per seconds, scaled by 1e18"
        }
      },
      "exchangeRateCurrent()": {
        "returns": {
          "_0": "Calculated exchange rate scaled by 1e18"
        }
      },
      "exchangeRateStored()": {
        "details": "This function does not accrue interest before calculating the exchange rate",
        "returns": {
          "_0": "Calculated exchange rate scaled by 1e18"
        }
      },
      "getAccountSnapshot(address)": {
        "details": "This is used by comptroller to more efficiently perform liquidity checks.",
        "params": {
          "account": "Address of the account to snapshot"
        },
        "returns": {
          "_0": "(token balance, borrow balance, exchange rate mantissa)"
        }
      },
      "mint()": {
        "details": "Accrues interest whether or not the operation succeeds, unless reverted",
        "returns": {
          "_0": "(uint) the actual mint amount."
        }
      },
      "redeem(uint256)": {
        "details": "Accrues interest whether or not the operation succeeds, unless reverted",
        "params": {
          "redeemTokens": "The number of lendTokens to redeem into underlying"
        }
      },
      "redeemUnderlying(uint256)": {
        "details": "Accrues interest whether or not the operation succeeds, unless reverted",
        "params": {
          "redeemAmount": "The amount of underlying to receive from redeeming lendTokens"
        }
      },
      "repayBorrow()": {
        "returns": {
          "_0": "actualRepayAmount"
        }
      },
      "seize(address,address,uint256)": {
        "details": "Will fail unless called by another lendToken during the process of liquidation.  Its absolutely critical to use msg.sender as the borrowed lendToken and not a parameter.",
        "params": {
          "borrower": "The account having collateral seized",
          "liquidator": "The account receiving seized collateral",
          "seizeTokens": "The number of lendTokens to seize"
        }
      },
      "supplyRatePerSeconds()": {
        "returns": {
          "_0": "The supply interest rate per seconds, scaled by 1e18"
        }
      },
      "transfer(address,uint256)": {
        "params": {
          "amount": "The number of tokens to transfer",
          "dst": "The address of the destination account"
        }
      },
      "transferFrom(address,address,uint256)": {
        "params": {
          "amount": "The number of tokens to transfer",
          "dst": "The address of the destination account",
          "src": "The address of the source account"
        }
      }
    },
    "version": 1
  },
  "userdoc": {
    "events": {
      "Approval(address,address,uint256)": {
        "notice": "EIP20 Approval event"
      },
      "Transfer(address,address,uint256)": {
        "notice": "EIP20 Transfer event"
      }
    },
    "kind": "user",
    "methods": {
      "accrueInterest()": {
        "notice": "Applies accrued interest to total borrows and reserves"
      },
      "allowance(address,address)": {
        "notice": "Get the current allowance from `owner` for `spender`"
      },
      "approve(address,uint256)": {
        "notice": "Approve `spender` to transfer up to `amount` from `src`"
      },
      "balanceOf(address)": {
        "notice": "Get the token balance of the `owner`"
      },
      "balanceOfUnderlying(address)": {
        "notice": "Get the underlying balance of the `owner`"
      },
      "borrow(uint256)": {
        "notice": "Sender borrows assets from the protocol to their own address"
      },
      "borrowBalanceStored(address)": {
        "notice": "Return the borrow balance of account based on stored data"
      },
      "borrowRatePerSeconds()": {
        "notice": "Returns the current per-seconds borrow interest rate for this LendToken"
      },
      "exchangeRateCurrent()": {
        "notice": "Accrue interest then return the up-to-date exchange rate"
      },
      "exchangeRateStored()": {
        "notice": "Calculates the exchange rate from the underlying to the lendToken"
      },
      "getAccountSnapshot(address)": {
        "notice": "Get a snapshot of the account's balances, and the cached exchange rate"
      },
      "mint()": {
        "notice": "Sender supplies assets into the market and receives lendTokens in exchange"
      },
      "redeem(uint256)": {
        "notice": "Sender redeems lendTokens in exchange for the underlying asset"
      },
      "redeemUnderlying(uint256)": {
        "notice": "Sender redeems lendTokens in exchange for a specified amount of underlying asset"
      },
      "repayBorrow()": {
        "notice": "Sender repays their own borrow"
      },
      "seize(address,address,uint256)": {
        "notice": "Transfers collateral tokens (this market) to the liquidator."
      },
      "supplyRatePerSeconds()": {
        "notice": "Returns the current per-seconds supply interest rate for this lendToken"
      },
      "transfer(address,uint256)": {
        "notice": "Transfer `amount` tokens from `msg.sender` to `dst`"
      },
      "transferFrom(address,address,uint256)": {
        "notice": "Transfer `amount` tokens from `src` to `dst`"
      }
    },
    "version": 1
  }
}