{
  "contractName": "LendToken",
  "abi": [
    {
      "inputs": [
        {
          "internalType": "string",
          "name": "name_",
          "type": "string"
        },
        {
          "internalType": "string",
          "name": "symbol_",
          "type": "string"
        },
        {
          "internalType": "uint8",
          "name": "decimals_",
          "type": "uint8"
        },
        {
          "internalType": "address",
          "name": "underlying_",
          "type": "address"
        },
        {
          "internalType": "address",
          "name": "interestRateModel_",
          "type": "address"
        },
        {
          "internalType": "address",
          "name": "comptroller_",
          "type": "address"
        }
      ],
      "stateMutability": "nonpayable",
      "type": "constructor"
    },
    {
      "anonymous": false,
      "inputs": [
        {
          "indexed": false,
          "internalType": "uint256",
          "name": "cashPrior",
          "type": "uint256"
        },
        {
          "indexed": false,
          "internalType": "uint256",
          "name": "interestAccumulated",
          "type": "uint256"
        },
        {
          "indexed": false,
          "internalType": "uint256",
          "name": "borrowIndex",
          "type": "uint256"
        },
        {
          "indexed": false,
          "internalType": "uint256",
          "name": "totalBorrows",
          "type": "uint256"
        }
      ],
      "name": "AccrueInterest",
      "type": "event"
    },
    {
      "anonymous": false,
      "inputs": [
        {
          "indexed": true,
          "internalType": "address",
          "name": "owner",
          "type": "address"
        },
        {
          "indexed": true,
          "internalType": "address",
          "name": "spender",
          "type": "address"
        },
        {
          "indexed": false,
          "internalType": "uint256",
          "name": "amount",
          "type": "uint256"
        }
      ],
      "name": "Approval",
      "type": "event"
    },
    {
      "anonymous": false,
      "inputs": [
        {
          "indexed": false,
          "internalType": "address",
          "name": "borrower",
          "type": "address"
        },
        {
          "indexed": false,
          "internalType": "uint256",
          "name": "borrowAmount",
          "type": "uint256"
        },
        {
          "indexed": false,
          "internalType": "uint256",
          "name": "accountBorrows",
          "type": "uint256"
        },
        {
          "indexed": false,
          "internalType": "uint256",
          "name": "totalBorrows",
          "type": "uint256"
        }
      ],
      "name": "Borrow",
      "type": "event"
    },
    {
      "anonymous": false,
      "inputs": [
        {
          "indexed": false,
          "internalType": "address",
          "name": "liquidator",
          "type": "address"
        },
        {
          "indexed": false,
          "internalType": "address",
          "name": "borrower",
          "type": "address"
        },
        {
          "indexed": false,
          "internalType": "uint256",
          "name": "repayAmount",
          "type": "uint256"
        },
        {
          "indexed": false,
          "internalType": "address",
          "name": "LendTokenCollateral",
          "type": "address"
        },
        {
          "indexed": false,
          "internalType": "uint256",
          "name": "seizeTokens",
          "type": "uint256"
        }
      ],
      "name": "LiquidateBorrow",
      "type": "event"
    },
    {
      "anonymous": false,
      "inputs": [
        {
          "indexed": false,
          "internalType": "address",
          "name": "minter",
          "type": "address"
        },
        {
          "indexed": false,
          "internalType": "uint256",
          "name": "mintAmount",
          "type": "uint256"
        },
        {
          "indexed": false,
          "internalType": "uint256",
          "name": "mintTokens",
          "type": "uint256"
        }
      ],
      "name": "Mint",
      "type": "event"
    },
    {
      "anonymous": false,
      "inputs": [
        {
          "indexed": false,
          "internalType": "address",
          "name": "oldAdmin",
          "type": "address"
        },
        {
          "indexed": false,
          "internalType": "address",
          "name": "newAdmin",
          "type": "address"
        }
      ],
      "name": "NewAdmin",
      "type": "event"
    },
    {
      "anonymous": false,
      "inputs": [
        {
          "indexed": false,
          "internalType": "contract ComptrollerInterface",
          "name": "oldComptroller",
          "type": "address"
        },
        {
          "indexed": false,
          "internalType": "contract ComptrollerInterface",
          "name": "newComptroller",
          "type": "address"
        }
      ],
      "name": "NewComptroller",
      "type": "event"
    },
    {
      "anonymous": false,
      "inputs": [
        {
          "indexed": false,
          "internalType": "address",
          "name": "oldLendTokenStorage",
          "type": "address"
        },
        {
          "indexed": false,
          "internalType": "address",
          "name": "newLendTokenStorage",
          "type": "address"
        }
      ],
      "name": "NewLendTokenStorage",
      "type": "event"
    },
    {
      "anonymous": false,
      "inputs": [
        {
          "indexed": false,
          "internalType": "contract InterestRateModel",
          "name": "oldInterestRateModel",
          "type": "address"
        },
        {
          "indexed": false,
          "internalType": "contract InterestRateModel",
          "name": "newInterestRateModel",
          "type": "address"
        }
      ],
      "name": "NewMarketInterestRateModel",
      "type": "event"
    },
    {
      "anonymous": false,
      "inputs": [
        {
          "indexed": false,
          "internalType": "uint256",
          "name": "oldReserveFactorMantissa",
          "type": "uint256"
        },
        {
          "indexed": false,
          "internalType": "uint256",
          "name": "newReserveFactorMantissa",
          "type": "uint256"
        }
      ],
      "name": "NewReserveFactor",
      "type": "event"
    },
    {
      "anonymous": false,
      "inputs": [
        {
          "indexed": false,
          "internalType": "address",
          "name": "redeemer",
          "type": "address"
        },
        {
          "indexed": false,
          "internalType": "uint256",
          "name": "redeemAmount",
          "type": "uint256"
        },
        {
          "indexed": false,
          "internalType": "uint256",
          "name": "redeemTokens",
          "type": "uint256"
        }
      ],
      "name": "Redeem",
      "type": "event"
    },
    {
      "anonymous": false,
      "inputs": [
        {
          "indexed": false,
          "internalType": "address",
          "name": "redeemer",
          "type": "address"
        },
        {
          "indexed": false,
          "internalType": "uint256",
          "name": "feeAmount",
          "type": "uint256"
        },
        {
          "indexed": false,
          "internalType": "uint256",
          "name": "redeemTokens",
          "type": "uint256"
        }
      ],
      "name": "RedeemFee",
      "type": "event"
    },
    {
      "anonymous": false,
      "inputs": [
        {
          "indexed": false,
          "internalType": "address",
          "name": "payer",
          "type": "address"
        },
        {
          "indexed": false,
          "internalType": "address",
          "name": "borrower",
          "type": "address"
        },
        {
          "indexed": false,
          "internalType": "uint256",
          "name": "repayAmount",
          "type": "uint256"
        },
        {
          "indexed": false,
          "internalType": "uint256",
          "name": "accountBorrows",
          "type": "uint256"
        },
        {
          "indexed": false,
          "internalType": "uint256",
          "name": "totalBorrows",
          "type": "uint256"
        }
      ],
      "name": "RepayBorrow",
      "type": "event"
    },
    {
      "anonymous": false,
      "inputs": [
        {
          "indexed": false,
          "internalType": "address",
          "name": "benefactor",
          "type": "address"
        },
        {
          "indexed": false,
          "internalType": "uint256",
          "name": "addAmount",
          "type": "uint256"
        },
        {
          "indexed": false,
          "internalType": "uint256",
          "name": "newTotalReserves",
          "type": "uint256"
        }
      ],
      "name": "ReservesAdded",
      "type": "event"
    },
    {
      "anonymous": false,
      "inputs": [
        {
          "indexed": false,
          "internalType": "address",
          "name": "admin",
          "type": "address"
        },
        {
          "indexed": false,
          "internalType": "uint256",
          "name": "reduceAmount",
          "type": "uint256"
        },
        {
          "indexed": false,
          "internalType": "uint256",
          "name": "newTotalReserves",
          "type": "uint256"
        }
      ],
      "name": "ReservesReduced",
      "type": "event"
    },
    {
      "anonymous": false,
      "inputs": [
        {
          "indexed": true,
          "internalType": "address",
          "name": "from",
          "type": "address"
        },
        {
          "indexed": true,
          "internalType": "address",
          "name": "to",
          "type": "address"
        },
        {
          "indexed": false,
          "internalType": "uint256",
          "name": "amount",
          "type": "uint256"
        }
      ],
      "name": "Transfer",
      "type": "event"
    },
    {
      "inputs": [
        {
          "internalType": "address",
          "name": "",
          "type": "address"
        }
      ],
      "name": "accountBorrows",
      "outputs": [
        {
          "internalType": "uint256",
          "name": "principal",
          "type": "uint256"
        },
        {
          "internalType": "uint256",
          "name": "interestIndex",
          "type": "uint256"
        }
      ],
      "stateMutability": "view",
      "type": "function",
      "constant": true
    },
    {
      "inputs": [],
      "name": "accrualTimestamp",
      "outputs": [
        {
          "internalType": "uint256",
          "name": "",
          "type": "uint256"
        }
      ],
      "stateMutability": "view",
      "type": "function",
      "constant": true
    },
    {
      "inputs": [],
      "name": "admin",
      "outputs": [
        {
          "internalType": "address",
          "name": "",
          "type": "address"
        }
      ],
      "stateMutability": "view",
      "type": "function",
      "constant": true
    },
    {
      "inputs": [
        {
          "internalType": "uint256",
          "name": "",
          "type": "uint256"
        }
      ],
      "name": "borrowAddress",
      "outputs": [
        {
          "internalType": "address",
          "name": "",
          "type": "address"
        }
      ],
      "stateMutability": "view",
      "type": "function",
      "constant": true
    },
    {
      "inputs": [],
      "name": "borrowIndex",
      "outputs": [
        {
          "internalType": "uint256",
          "name": "",
          "type": "uint256"
        }
      ],
      "stateMutability": "view",
      "type": "function",
      "constant": true
    },
    {
      "inputs": [],
      "name": "borrowRateMaxMantissa",
      "outputs": [
        {
          "internalType": "uint256",
          "name": "",
          "type": "uint256"
        }
      ],
      "stateMutability": "view",
      "type": "function",
      "constant": true
    },
    {
      "inputs": [],
      "name": "comptroller",
      "outputs": [
        {
          "internalType": "contract ComptrollerInterface",
          "name": "",
          "type": "address"
        }
      ],
      "stateMutability": "view",
      "type": "function",
      "constant": true
    },
    {
      "inputs": [],
      "name": "decimals",
      "outputs": [
        {
          "internalType": "uint8",
          "name": "",
          "type": "uint8"
        }
      ],
      "stateMutability": "view",
      "type": "function",
      "constant": true
    },
    {
      "inputs": [],
      "name": "initialExchangeRateMantissa",
      "outputs": [
        {
          "internalType": "uint256",
          "name": "",
          "type": "uint256"
        }
      ],
      "stateMutability": "view",
      "type": "function",
      "constant": true
    },
    {
      "inputs": [],
      "name": "interestRateModel",
      "outputs": [
        {
          "internalType": "contract InterestRateModel",
          "name": "",
          "type": "address"
        }
      ],
      "stateMutability": "view",
      "type": "function",
      "constant": true
    },
    {
      "inputs": [],
      "name": "name",
      "outputs": [
        {
          "internalType": "string",
          "name": "",
          "type": "string"
        }
      ],
      "stateMutability": "view",
      "type": "function",
      "constant": true
    },
    {
      "inputs": [],
      "name": "reserveFactorMantissa",
      "outputs": [
        {
          "internalType": "uint256",
          "name": "",
          "type": "uint256"
        }
      ],
      "stateMutability": "view",
      "type": "function",
      "constant": true
    },
    {
      "inputs": [],
      "name": "reserveFactorMaxMantissa",
      "outputs": [
        {
          "internalType": "uint256",
          "name": "",
          "type": "uint256"
        }
      ],
      "stateMutability": "view",
      "type": "function",
      "constant": true
    },
    {
      "inputs": [],
      "name": "symbol",
      "outputs": [
        {
          "internalType": "string",
          "name": "",
          "type": "string"
        }
      ],
      "stateMutability": "view",
      "type": "function",
      "constant": true
    },
    {
      "inputs": [],
      "name": "totalBorrows",
      "outputs": [
        {
          "internalType": "uint256",
          "name": "",
          "type": "uint256"
        }
      ],
      "stateMutability": "view",
      "type": "function",
      "constant": true
    },
    {
      "inputs": [],
      "name": "totalReserves",
      "outputs": [
        {
          "internalType": "uint256",
          "name": "",
          "type": "uint256"
        }
      ],
      "stateMutability": "view",
      "type": "function",
      "constant": true
    },
    {
      "inputs": [],
      "name": "totalSupply",
      "outputs": [
        {
          "internalType": "uint256",
          "name": "",
          "type": "uint256"
        }
      ],
      "stateMutability": "view",
      "type": "function",
      "constant": true
    },
    {
      "inputs": [],
      "name": "underlying",
      "outputs": [
        {
          "internalType": "address",
          "name": "",
          "type": "address"
        }
      ],
      "stateMutability": "view",
      "type": "function",
      "constant": true
    },
    {
      "inputs": [],
      "name": "isLendToken",
      "outputs": [
        {
          "internalType": "bool",
          "name": "",
          "type": "bool"
        }
      ],
      "stateMutability": "pure",
      "type": "function",
      "constant": true
    },
    {
      "inputs": [
        {
          "internalType": "address",
          "name": "user",
          "type": "address"
        }
      ],
      "name": "getAccountBorrows",
      "outputs": [
        {
          "internalType": "uint256",
          "name": "",
          "type": "uint256"
        },
        {
          "internalType": "uint256",
          "name": "",
          "type": "uint256"
        }
      ],
      "stateMutability": "view",
      "type": "function",
      "constant": true
    },
    {
      "inputs": [],
      "name": "getBorrowAddress",
      "outputs": [
        {
          "internalType": "address[]",
          "name": "",
          "type": "address[]"
        }
      ],
      "stateMutability": "view",
      "type": "function",
      "constant": true
    },
    {
      "inputs": [
        {
          "internalType": "address",
          "name": "dst",
          "type": "address"
        },
        {
          "internalType": "uint256",
          "name": "amount",
          "type": "uint256"
        }
      ],
      "name": "transfer",
      "outputs": [],
      "stateMutability": "nonpayable",
      "type": "function"
    },
    {
      "inputs": [
        {
          "internalType": "address",
          "name": "src",
          "type": "address"
        },
        {
          "internalType": "address",
          "name": "dst",
          "type": "address"
        },
        {
          "internalType": "uint256",
          "name": "amount",
          "type": "uint256"
        }
      ],
      "name": "transferFrom",
      "outputs": [],
      "stateMutability": "nonpayable",
      "type": "function"
    },
    {
      "inputs": [
        {
          "internalType": "address",
          "name": "spender",
          "type": "address"
        },
        {
          "internalType": "uint256",
          "name": "amount",
          "type": "uint256"
        }
      ],
      "name": "approve",
      "outputs": [],
      "stateMutability": "nonpayable",
      "type": "function"
    },
    {
      "inputs": [
        {
          "internalType": "address",
          "name": "owner",
          "type": "address"
        },
        {
          "internalType": "address",
          "name": "spender",
          "type": "address"
        }
      ],
      "name": "allowance",
      "outputs": [
        {
          "internalType": "uint256",
          "name": "",
          "type": "uint256"
        }
      ],
      "stateMutability": "view",
      "type": "function",
      "constant": true
    },
    {
      "inputs": [
        {
          "internalType": "address",
          "name": "owner",
          "type": "address"
        }
      ],
      "name": "balanceOf",
      "outputs": [
        {
          "internalType": "uint256",
          "name": "",
          "type": "uint256"
        }
      ],
      "stateMutability": "view",
      "type": "function",
      "constant": true
    },
    {
      "inputs": [
        {
          "internalType": "address",
          "name": "owner",
          "type": "address"
        }
      ],
      "name": "balanceOfUnderlying",
      "outputs": [
        {
          "internalType": "uint256",
          "name": "",
          "type": "uint256"
        }
      ],
      "stateMutability": "nonpayable",
      "type": "function"
    },
    {
      "inputs": [
        {
          "internalType": "address",
          "name": "account",
          "type": "address"
        }
      ],
      "name": "getAccountSnapshot",
      "outputs": [
        {
          "internalType": "uint256",
          "name": "",
          "type": "uint256"
        },
        {
          "internalType": "uint256",
          "name": "",
          "type": "uint256"
        },
        {
          "internalType": "uint256",
          "name": "",
          "type": "uint256"
        }
      ],
      "stateMutability": "view",
      "type": "function",
      "constant": true
    },
    {
      "inputs": [
        {
          "internalType": "address",
          "name": "account",
          "type": "address"
        }
      ],
      "name": "borrowBalanceStored",
      "outputs": [
        {
          "internalType": "uint256",
          "name": "",
          "type": "uint256"
        }
      ],
      "stateMutability": "view",
      "type": "function",
      "constant": true
    },
    {
      "inputs": [],
      "name": "exchangeRateStored",
      "outputs": [
        {
          "internalType": "uint256",
          "name": "",
          "type": "uint256"
        }
      ],
      "stateMutability": "view",
      "type": "function",
      "constant": true
    },
    {
      "inputs": [],
      "name": "getCash",
      "outputs": [
        {
          "internalType": "uint256",
          "name": "",
          "type": "uint256"
        }
      ],
      "stateMutability": "view",
      "type": "function",
      "constant": true
    },
    {
      "inputs": [],
      "name": "accrueInterest",
      "outputs": [],
      "stateMutability": "nonpayable",
      "type": "function"
    },
    {
      "inputs": [],
      "name": "borrowRatePerSeconds",
      "outputs": [
        {
          "internalType": "uint256",
          "name": "",
          "type": "uint256"
        }
      ],
      "stateMutability": "view",
      "type": "function",
      "constant": true
    },
    {
      "inputs": [],
      "name": "supplyRatePerSeconds",
      "outputs": [
        {
          "internalType": "uint256",
          "name": "",
          "type": "uint256"
        }
      ],
      "stateMutability": "view",
      "type": "function",
      "constant": true
    },
    {
      "inputs": [],
      "name": "exchangeRateCurrent",
      "outputs": [
        {
          "internalType": "uint256",
          "name": "",
          "type": "uint256"
        }
      ],
      "stateMutability": "nonpayable",
      "type": "function"
    },
    {
      "inputs": [
        {
          "internalType": "uint256",
          "name": "mintAmount",
          "type": "uint256"
        }
      ],
      "name": "mint",
      "outputs": [
        {
          "internalType": "uint256",
          "name": "",
          "type": "uint256"
        }
      ],
      "stateMutability": "nonpayable",
      "type": "function"
    },
    {
      "inputs": [
        {
          "internalType": "uint256",
          "name": "redeemTokens",
          "type": "uint256"
        }
      ],
      "name": "redeem",
      "outputs": [],
      "stateMutability": "nonpayable",
      "type": "function"
    },
    {
      "inputs": [
        {
          "internalType": "uint256",
          "name": "redeemAmount",
          "type": "uint256"
        }
      ],
      "name": "redeemUnderlying",
      "outputs": [],
      "stateMutability": "nonpayable",
      "type": "function"
    },
    {
      "inputs": [
        {
          "internalType": "uint256",
          "name": "borrowAmount",
          "type": "uint256"
        }
      ],
      "name": "borrow",
      "outputs": [],
      "stateMutability": "nonpayable",
      "type": "function"
    },
    {
      "inputs": [
        {
          "internalType": "uint256",
          "name": "repayAmount",
          "type": "uint256"
        }
      ],
      "name": "repayBorrow",
      "outputs": [
        {
          "internalType": "uint256",
          "name": "",
          "type": "uint256"
        }
      ],
      "stateMutability": "nonpayable",
      "type": "function"
    },
    {
      "inputs": [
        {
          "internalType": "address",
          "name": "borrower",
          "type": "address"
        },
        {
          "internalType": "uint256",
          "name": "repayAmount",
          "type": "uint256"
        },
        {
          "internalType": "contract LendTokenInterface",
          "name": "lendTokenCollateral",
          "type": "address"
        }
      ],
      "name": "liquidateBorrow",
      "outputs": [
        {
          "internalType": "uint256",
          "name": "",
          "type": "uint256"
        }
      ],
      "stateMutability": "nonpayable",
      "type": "function"
    },
    {
      "inputs": [
        {
          "internalType": "address",
          "name": "liquidator",
          "type": "address"
        },
        {
          "internalType": "address",
          "name": "borrower",
          "type": "address"
        },
        {
          "internalType": "uint256",
          "name": "seizeTokens",
          "type": "uint256"
        }
      ],
      "name": "seize",
      "outputs": [],
      "stateMutability": "nonpayable",
      "type": "function"
    },
    {
      "inputs": [
        {
          "internalType": "address",
          "name": "newAdmin",
          "type": "address"
        }
      ],
      "name": "_setAdmin",
      "outputs": [],
      "stateMutability": "nonpayable",
      "type": "function"
    },
    {
      "inputs": [
        {
          "internalType": "uint256",
          "name": "reduceAmount",
          "type": "uint256"
        }
      ],
      "name": "_reduceReserves",
      "outputs": [],
      "stateMutability": "nonpayable",
      "type": "function"
    },
    {
      "inputs": [
        {
          "internalType": "uint256",
          "name": "newReserveFactorMantissa",
          "type": "uint256"
        }
      ],
      "name": "_setReserveFactor",
      "outputs": [],
      "stateMutability": "nonpayable",
      "type": "function"
    },
    {
      "inputs": [
        {
          "internalType": "contract InterestRateModel",
          "name": "newInterestRateModel",
          "type": "address"
        }
      ],
      "name": "_setInterestRateModel",
      "outputs": [],
      "stateMutability": "nonpayable",
      "type": "function"
    },
    {
      "inputs": [
        {
          "internalType": "contract ComptrollerInterface",
          "name": "newComptroller",
          "type": "address"
        }
      ],
      "name": "_setComptroller",
      "outputs": [],
      "stateMutability": "nonpayable",
      "type": "function"
    }
  ],
  "bytecode": "0x60806040523480156200001157600080fd5b5060405162005a7238038062005a728339818101604052810190620000379190620004c3565b85600190805190602001906200004f929190620001d3565b50846002908051906020019062000068929190620001d3565b5083600360006101000a81548160ff021916908360ff16021790555082600960006101000a81548173ffffffffffffffffffffffffffffffffffffffff021916908373ffffffffffffffffffffffffffffffffffffffff16021790555081600b60006101000a81548173ffffffffffffffffffffffffffffffffffffffff021916908373ffffffffffffffffffffffffffffffffffffffff16021790555080600a60006101000a81548173ffffffffffffffffffffffffffffffffffffffff021916908373ffffffffffffffffffffffffffffffffffffffff160217905550670de0b6b3a76400006010819055506702c68af0bb140000600e8190555042600f8190555033600760006101000a81548173ffffffffffffffffffffffffffffffffffffffff021916908373ffffffffffffffffffffffffffffffffffffffff16021790555060016000806101000a81548160ff02191690831515021790555050505050505062000602565b828054620001e190620005cc565b90600052602060002090601f01602090048101928262000205576000855562000251565b82601f106200022057805160ff191683800117855562000251565b8280016001018555821562000251579182015b828111156200025057825182559160200191906001019062000233565b5b50905062000260919062000264565b5090565b5b808211156200027f57600081600090555060010162000265565b5090565b6000604051905090565b600080fd5b600080fd5b600080fd5b600080fd5b6000601f19601f8301169050919050565b7f4e487b7100000000000000000000000000000000000000000000000000000000600052604160045260246000fd5b620002ec82620002a1565b810181811067ffffffffffffffff821117156200030e576200030d620002b2565b5b80604052505050565b60006200032362000283565b9050620003318282620002e1565b919050565b600067ffffffffffffffff821115620003545762000353620002b2565b5b6200035f82620002a1565b9050602081019050919050565b60005b838110156200038c5780820151818401526020810190506200036f565b838111156200039c576000848401525b50505050565b6000620003b9620003b38462000336565b62000317565b905082815260208101848484011115620003d857620003d76200029c565b5b620003e58482856200036c565b509392505050565b600082601f83011262000405576200040462000297565b5b815162000417848260208601620003a2565b91505092915050565b600060ff82169050919050565b620004388162000420565b81146200044457600080fd5b50565b60008151905062000458816200042d565b92915050565b600073ffffffffffffffffffffffffffffffffffffffff82169050919050565b60006200048b826200045e565b9050919050565b6200049d816200047e565b8114620004a957600080fd5b50565b600081519050620004bd8162000492565b92915050565b60008060008060008060c08789031215620004e357620004e26200028d565b5b600087015167ffffffffffffffff81111562000504576200050362000292565b5b6200051289828a01620003ed565b965050602087015167ffffffffffffffff81111562000536576200053562000292565b5b6200054489828a01620003ed565b95505060406200055789828a0162000447565b94505060606200056a89828a01620004ac565b93505060806200057d89828a01620004ac565b92505060a06200059089828a01620004ac565b9150509295509295509295565b7f4e487b7100000000000000000000000000000000000000000000000000000000600052602260045260246000fd5b60006002820490506001821680620005e557607f821691505b60208210811415620005fc57620005fb6200059d565b5b50919050565b61546080620006126000396000f3fe608060405234801561001057600080fd5b50600436106102955760003560e01c806395dd919311610167578063c37f68e2116100ce578063ee27a2f211610087578063ee27a2f2146107f8578063f2b3abbd14610816578063f3fdb15a14610832578063f5e3c46214610850578063f851a44014610880578063fca7820b1461089e57610295565b8063c37f68e21461070f578063c5ebeaec14610741578063cef12f081461075d578063d40e8f4a1461077b578063db006a75146107ac578063dd62ed3e146107c857610295565b8063aa5af0fd11610120578063aa5af0fd1461065d578063b2a02ff11461067b578063b360507614610697578063b95b92a3146106b5578063bd6d894d146106d3578063c156b1ff146106f157610295565b806395dd91931461059b578063969dedb2146105cb578063a0712d68146105e9578063a275370d14610619578063a6afed9514610637578063a9059cbb1461064157610295565b80634576b5db1161020b5780636f307dc3116101c45780636f307dc3146104c457806370a08231146104e25780637fe4c22514610512578063852a12e3146105435780638f840ddd1461055f57806395d89b411461057d57610295565b80634576b5db1461040257806347bd37181461041e5780635800e2de1461043c5780635fe3b5671461046c578063601a0bf11461048a578063675d972c146104a657610295565b8063182df0f51161025d578063182df0f51461034057806323b872dd1461035e578063313ce5671461037a5780633a74a767146103985780633af9e669146103b45780633b1d21a2146103e457610295565b806306fdde031461029a578063095ea7b3146102b85780630e752702146102d4578063173b99041461030457806318160ddd14610322575b600080fd5b6102a26108ba565b6040516102af9190613f39565b60405180910390f35b6102d260048036038101906102cd9190613ff4565b610948565b005b6102ee60048036038101906102e99190614034565b610a38565b6040516102fb9190614070565b60405180910390f35b61030c610a4a565b6040516103199190614070565b60405180910390f35b61032a610a50565b6040516103379190614070565b60405180910390f35b610348610a56565b6040516103559190614070565b60405180910390f35b6103786004803603810190610373919061408b565b610ad2565b005b610382610b64565b60405161038f91906140fa565b60405180910390f35b6103b260048036038101906103ad9190614115565b610b77565b005b6103ce60048036038101906103c99190614115565b610cac565b6040516103db9190614070565b60405180910390f35b6103ec610d25565b6040516103f99190614070565b60405180910390f35b61041c60048036038101906104179190614180565b610dc8565b005b610426610faa565b6040516104339190614070565b60405180910390f35b61045660048036038101906104519190614034565b610fb0565b60405161046391906141bc565b60405180910390f35b610474610fef565b6040516104819190614236565b60405180910390f35b6104a4600480360381019061049f9190614034565b611015565b005b6104ae6111e2565b6040516104bb9190614070565b60405180910390f35b6104cc6111ee565b6040516104d991906141bc565b60405180910390f35b6104fc60048036038101906104f79190614115565b611214565b6040516105099190614070565b60405180910390f35b61052c60048036038101906105279190614115565b61125d565b60405161053a929190614251565b60405180910390f35b61055d60048036038101906105589190614034565b6112ef565b005b6105676112fb565b6040516105749190614070565b60405180910390f35b610585611301565b6040516105929190613f39565b60405180910390f35b6105b560048036038101906105b09190614115565b61138f565b6040516105c29190614070565b60405180910390f35b6105d36113e5565b6040516105e09190614338565b60405180910390f35b61060360048036038101906105fe9190614034565b611473565b6040516106109190614070565b60405180910390f35b610621611485565b60405161062e9190614070565b60405180910390f35b61063f611491565b005b61065b60048036038101906106569190613ff4565b6116d1565b005b610665611762565b6040516106729190614070565b60405180910390f35b6106956004803603810190610690919061408b565b611768565b005b61069f6117fa565b6040516106ac9190614070565b60405180910390f35b6106bd6118b0565b6040516106ca9190614070565b60405180910390f35b6106db6118b6565b6040516106e89190614070565b60405180910390f35b6106f96118cd565b6040516107069190614070565b60405180910390f35b61072960048036038101906107249190614115565b61197f565b6040516107389392919061435a565b60405180910390f35b61075b60048036038101906107569190614034565b6119ed565b005b6107656119f9565b60405161077291906143ac565b60405180910390f35b61079560048036038101906107909190614115565b611a02565b6040516107a3929190614251565b60405180910390f35b6107c660048036038101906107c19190614034565b611a26565b005b6107e260048036038101906107dd91906143c7565b611a32565b6040516107ef9190614070565b60405180910390f35b610800611ab9565b60405161080d9190614070565b60405180910390f35b610830600480360381019061082b9190614445565b611ac2565b005b61083a611cad565b6040516108479190614493565b60405180910390f35b61086a600480360381019061086591906144ec565b611cd3565b6040516108779190614070565b60405180910390f35b610888611ce9565b60405161089591906141bc565b60405180910390f35b6108b860048036038101906108b39190614034565b611d0f565b005b600180546108c79061456e565b80601f01602080910402602001604051908101604052809291908181526020018280546108f39061456e565b80156109405780601f1061091557610100808354040283529160200191610940565b820191906000526020600020905b81548152906001019060200180831161092357829003601f168201915b505050505081565b600033905081600660008373ffffffffffffffffffffffffffffffffffffffff1673ffffffffffffffffffffffffffffffffffffffff16815260200190815260200160002060008573ffffffffffffffffffffffffffffffffffffffff1673ffffffffffffffffffffffffffffffffffffffff168152602001908152602001600020819055508273ffffffffffffffffffffffffffffffffffffffff168173ffffffffffffffffffffffffffffffffffffffff167f8c5be1e5ebec7d5bd14f71427d1e84f3dd0314c0f7b2291e5b200ac8c7c3b92584604051610a2b9190614070565b60405180910390a3505050565b6000610a4382611e3d565b9050919050565b600e5481565b60045481565b60008060045490506000610a68610d25565b9050600080831415610a8757670de0b6b3a76400009350505050610acf565b60125460115483610a9891906145cf565b610aa29190614625565b9050600083670de0b6b3a764000083610abb9190614659565b610ac591906146e2565b9050809450505050505b90565b60008054906101000a900460ff16610b1f576040517f08c379a0000000000000000000000000000000000000000000000000000000008152600401610b169061475f565b60405180910390fd5b60008060006101000a81548160ff021916908315150217905550610b4533848484611edb565b60016000806101000a81548160ff021916908315150217905550505050565b600360009054906101000a900460ff1681565b600760009054906101000a900473ffffffffffffffffffffffffffffffffffffffff1673ffffffffffffffffffffffffffffffffffffffff163373ffffffffffffffffffffffffffffffffffffffff1614610c07576040517f08c379a0000000000000000000000000000000000000000000000000000000008152600401610bfe906147cb565b60405180910390fd5b6000600760009054906101000a900473ffffffffffffffffffffffffffffffffffffffff16905081600760006101000a81548173ffffffffffffffffffffffffffffffffffffffff021916908373ffffffffffffffffffffffffffffffffffffffff1602179055507ff9ffabca9c8276e99321725bcb43fb076a6c66a54b7f21c4e8146d8519b417dc8183604051610ca09291906147eb565b60405180910390a15050565b600080610cb76118b6565b90506000670de0b6b3a7640000600560008673ffffffffffffffffffffffffffffffffffffffff1673ffffffffffffffffffffffffffffffffffffffff1681526020019081526020016000205483610d0f9190614659565b610d1991906146e2565b90508092505050919050565b6000600960009054906101000a900473ffffffffffffffffffffffffffffffffffffffff1673ffffffffffffffffffffffffffffffffffffffff166370a08231306040518263ffffffff1660e01b8152600401610d8291906141bc565b602060405180830381865afa158015610d9f573d6000803e3d6000fd5b505050506040513d601f19601f82011682018060405250810190610dc39190614829565b905090565b600760009054906101000a900473ffffffffffffffffffffffffffffffffffffffff1673ffffffffffffffffffffffffffffffffffffffff163373ffffffffffffffffffffffffffffffffffffffff1614610e58576040517f08c379a0000000000000000000000000000000000000000000000000000000008152600401610e4f906148a2565b60405180910390fd5b6000600a60009054906101000a900473ffffffffffffffffffffffffffffffffffffffff1690508173ffffffffffffffffffffffffffffffffffffffff16627e3dd26040518163ffffffff1660e01b8152600401602060405180830381865afa158015610ec9573d6000803e3d6000fd5b505050506040513d601f19601f82011682018060405250810190610eed91906148ee565b610f2c576040517f08c379a0000000000000000000000000000000000000000000000000000000008152600401610f2390614967565b60405180910390fd5b81600a60006101000a81548173ffffffffffffffffffffffffffffffffffffffff021916908373ffffffffffffffffffffffffffffffffffffffff1602179055507f7ac369dbd14fa5ea3f473ed67cc9d598964a77501540ba6751eb0b3decf5870d8183604051610f9e929190614987565b60405180910390a15050565b60115481565b600c8181548110610fc057600080fd5b906000526020600020016000915054906101000a900473ffffffffffffffffffffffffffffffffffffffff1681565b600a60009054906101000a900473ffffffffffffffffffffffffffffffffffffffff1681565b600760009054906101000a900473ffffffffffffffffffffffffffffffffffffffff1673ffffffffffffffffffffffffffffffffffffffff163373ffffffffffffffffffffffffffffffffffffffff16146110a5576040517f08c379a000000000000000000000000000000000000000000000000000000000815260040161109c906147cb565b60405180910390fd5b6110ad611491565b806110b6610d25565b10156110f7576040517f08c379a00000000000000000000000000000000000000000000000000000000081526004016110ee906149fc565b60405180910390fd5b60125481111561113c576040517f08c379a000000000000000000000000000000000000000000000000000000000815260040161113390614a68565b60405180910390fd5b60008160125461114c9190614625565b905080601281905550611181600760009054906101000a900473ffffffffffffffffffffffffffffffffffffffff1683612308565b7f3bad0c59cf2f06e7314077049f48a93578cd16f5ef92329f1dab1420a99c177e600760009054906101000a900473ffffffffffffffffffffffffffffffffffffffff1683836040516111d693929190614a88565b60405180910390a15050565b670de0b6b3a764000081565b600960009054906101000a900473ffffffffffffffffffffffffffffffffffffffff1681565b6000600560008373ffffffffffffffffffffffffffffffffffffffff1673ffffffffffffffffffffffffffffffffffffffff168152602001908152602001600020549050919050565b600080600860008473ffffffffffffffffffffffffffffffffffffffff1673ffffffffffffffffffffffffffffffffffffffff16815260200190815260200160002060000154600860008573ffffffffffffffffffffffffffffffffffffffff1673ffffffffffffffffffffffffffffffffffffffff1681526020019081526020016000206001015491509150915091565b6112f881612411565b50565b60125481565b6002805461130e9061456e565b80601f016020809104026020016040519081016040528092919081815260200182805461133a9061456e565b80156113875780601f1061135c57610100808354040283529160200191611387565b820191906000526020600020905b81548152906001019060200180831161136a57829003601f168201915b505050505081565b60008060008060006113a08661125d565b9150915060008214156113ba5760009450505050506113e0565b601054826113c89190614659565b935080846113d691906146e2565b9250829450505050505b919050565b6060600c80548060200260200160405190810160405280929190818152602001828054801561146957602002820191906000526020600020905b8160009054906101000a900473ffffffffffffffffffffffffffffffffffffffff1673ffffffffffffffffffffffffffffffffffffffff168152602001906001019080831161141f575b5050505050905090565b600061147e826124a9565b9050919050565b670de0b6b3a764000081565b60004290506000600f549050818114156114ac5750506116cf565b60006114b6610d25565b90506000601154905060006012549050600060105490506000600b60009054906101000a900473ffffffffffffffffffffffffffffffffffffffff1673ffffffffffffffffffffffffffffffffffffffff166315f240538686866040518463ffffffff1660e01b815260040161152e9392919061435a565b602060405180830381865afa15801561154b573d6000803e3d6000fd5b505050506040513d601f19601f8201168201806040525081019061156f9190614829565b90506409502f90008111156115b9576040517f08c379a00000000000000000000000000000000000000000000000000000000081526004016115b090614b0b565b60405180910390fd5b600086886115c79190614625565b9050600080600080600085876115dd9190614659565b9450670de0b6b3a76400008a866115f49190614659565b6115fe91906146e2565b9350898461160c91906145cf565b925088670de0b6b3a764000085600e546116269190614659565b61163091906146e2565b61163a91906145cf565b915087670de0b6b3a764000089876116529190614659565b61165c91906146e2565b61166691906145cf565b90508c600f819055508060108190555082601181905550816012819055507f4dec04e750ca11537cabcd8a9eab06494de08da3735bc8871cd41250e190bc048b8583866040516116b99493929190614b2b565b60405180910390a1505050505050505050505050505b565b60008054906101000a900460ff1661171e576040517f08c379a00000000000000000000000000000000000000000000000000000000081526004016117159061475f565b60405180910390fd5b60008060006101000a81548160ff02191690831515021790555061174433338484611edb565b60016000806101000a81548160ff0219169083151502179055505050565b60105481565b60008054906101000a900460ff166117b5576040517f08c379a00000000000000000000000000000000000000000000000000000000081526004016117ac9061475f565b60405180910390fd5b60008060006101000a81548160ff0219169083151502179055506117db33848484612546565b60016000806101000a81548160ff021916908315150217905550505050565b6000600b60009054906101000a900473ffffffffffffffffffffffffffffffffffffffff1673ffffffffffffffffffffffffffffffffffffffff1663b8168816611842610d25565b601154601254600e546040518563ffffffff1660e01b815260040161186a9493929190614b2b565b602060405180830381865afa158015611887573d6000803e3d6000fd5b505050506040513d601f19601f820116820180604052508101906118ab9190614829565b905090565b600f5481565b60006118c0611491565b6118c8610a56565b905090565b6000600b60009054906101000a900473ffffffffffffffffffffffffffffffffffffffff1673ffffffffffffffffffffffffffffffffffffffff166315f24053611915610d25565b6011546012546040518463ffffffff1660e01b81526004016119399392919061435a565b602060405180830381865afa158015611956573d6000803e3d6000fd5b505050506040513d601f19601f8201168201806040525081019061197a9190614829565b905090565b60008060008060006119908661138f565b915061199a610a56565b9050600560008773ffffffffffffffffffffffffffffffffffffffff1673ffffffffffffffffffffffffffffffffffffffff16815260200190815260200160002054828294509450945050509193909250565b6119f6816127da565b50565b60006001905090565b60086020528060005260406000206000915090508060000154908060010154905082565b611a2f81612870565b50565b6000600660008473ffffffffffffffffffffffffffffffffffffffff1673ffffffffffffffffffffffffffffffffffffffff16815260200190815260200160002060008373ffffffffffffffffffffffffffffffffffffffff1673ffffffffffffffffffffffffffffffffffffffff16815260200190815260200160002054905092915050565b6409502f900081565b600760009054906101000a900473ffffffffffffffffffffffffffffffffffffffff1673ffffffffffffffffffffffffffffffffffffffff163373ffffffffffffffffffffffffffffffffffffffff1614611b52576040517f08c379a0000000000000000000000000000000000000000000000000000000008152600401611b49906148a2565b60405180910390fd5b611b5a611491565b6000600b60009054906101000a900473ffffffffffffffffffffffffffffffffffffffff1690508173ffffffffffffffffffffffffffffffffffffffff16632191f92a6040518163ffffffff1660e01b8152600401602060405180830381865afa158015611bcc573d6000803e3d6000fd5b505050506040513d601f19601f82011682018060405250810190611bf091906148ee565b611c2f576040517f08c379a0000000000000000000000000000000000000000000000000000000008152600401611c2690614967565b60405180910390fd5b81600b60006101000a81548173ffffffffffffffffffffffffffffffffffffffff021916908373ffffffffffffffffffffffffffffffffffffffff1602179055507fedffc32e068c7c95dfd4bdfd5c4d939a084d6b11c4199eac8436ed234d72f9268183604051611ca1929190614b70565b60405180910390a15050565b600b60009054906101000a900473ffffffffffffffffffffffffffffffffffffffff1681565b6000611ce0848484612908565b90509392505050565b600760009054906101000a900473ffffffffffffffffffffffffffffffffffffffff1681565b600760009054906101000a900473ffffffffffffffffffffffffffffffffffffffff1673ffffffffffffffffffffffffffffffffffffffff163373ffffffffffffffffffffffffffffffffffffffff1614611d9f576040517f08c379a0000000000000000000000000000000000000000000000000000000008152600401611d9690614be5565b60405180910390fd5b611da7611491565b670de0b6b3a7640000811115611df2576040517f08c379a0000000000000000000000000000000000000000000000000000000008152600401611de990614c51565b60405180910390fd5b6000600e54905081600e819055507faaa68312e2ea9d50e16af5068410ab56e1a1fd06037b1a35664812c30f8214608183604051611e31929190614251565b60405180910390a15050565b60008060009054906101000a900460ff16611e8d576040517f08c379a0000000000000000000000000000000000000000000000000000000008152600401611e849061475f565b60405180910390fd5b60008060006101000a81548160ff021916908315150217905550611eaf611491565b611eba333384612ec2565b905060016000806101000a81548160ff021916908315150217905550919050565b600a60009054906101000a900473ffffffffffffffffffffffffffffffffffffffff1673ffffffffffffffffffffffffffffffffffffffff1663bdcdc258308585856040518563ffffffff1660e01b8152600401611f3c9493929190614c71565b600060405180830381600087803b158015611f5657600080fd5b505af1158015611f6a573d6000803e3d6000fd5b505050508173ffffffffffffffffffffffffffffffffffffffff168373ffffffffffffffffffffffffffffffffffffffff161415611fdd576040517f08c379a0000000000000000000000000000000000000000000000000000000008152600401611fd490614d02565b60405180910390fd5b60008373ffffffffffffffffffffffffffffffffffffffff168573ffffffffffffffffffffffffffffffffffffffff16141561203b577fffffffffffffffffffffffffffffffffffffffffffffffffffffffffffffffff90506120bb565b600660008573ffffffffffffffffffffffffffffffffffffffff1673ffffffffffffffffffffffffffffffffffffffff16815260200190815260200160002060008673ffffffffffffffffffffffffffffffffffffffff1673ffffffffffffffffffffffffffffffffffffffff1681526020019081526020016000205490505b600080600084846120cc9190614625565b925084600560008973ffffffffffffffffffffffffffffffffffffffff1673ffffffffffffffffffffffffffffffffffffffff168152602001908152602001600020546121199190614625565b915084600560008873ffffffffffffffffffffffffffffffffffffffff1673ffffffffffffffffffffffffffffffffffffffff1681526020019081526020016000205461216691906145cf565b905081600560008973ffffffffffffffffffffffffffffffffffffffff1673ffffffffffffffffffffffffffffffffffffffff1681526020019081526020016000208190555080600560008873ffffffffffffffffffffffffffffffffffffffff1673ffffffffffffffffffffffffffffffffffffffff168152602001908152602001600020819055507fffffffffffffffffffffffffffffffffffffffffffffffffffffffffffffffff84146122995782600660008973ffffffffffffffffffffffffffffffffffffffff1673ffffffffffffffffffffffffffffffffffffffff16815260200190815260200160002060008a73ffffffffffffffffffffffffffffffffffffffff1673ffffffffffffffffffffffffffffffffffffffff168152602001908152602001600020819055505b8573ffffffffffffffffffffffffffffffffffffffff168773ffffffffffffffffffffffffffffffffffffffff167fddf252ad1be2c89b69c2b068fc378daa952ba7f163c4a11628f55a4df523b3ef876040516122f69190614070565b60405180910390a35050505050505050565b6000600960009054906101000a900473ffffffffffffffffffffffffffffffffffffffff1690508073ffffffffffffffffffffffffffffffffffffffff1663a9059cbb84846040518363ffffffff1660e01b815260040161236a929190614d22565b600060405180830381600087803b15801561238457600080fd5b505af1158015612398573d6000803e3d6000fd5b5050505060003d600081146123b457602081146123be57600080fd5b60001991506123ca565b60206000803e60005191505b508061240b576040517f08c379a000000000000000000000000000000000000000000000000000000000815260040161240290614d97565b60405180910390fd5b50505050565b60008054906101000a900460ff1661245e576040517f08c379a00000000000000000000000000000000000000000000000000000000081526004016124559061475f565b60405180910390fd5b60008060006101000a81548160ff021916908315150217905550612480611491565b61248c336000836130cf565b60016000806101000a81548160ff02191690831515021790555050565b60008060009054906101000a900460ff166124f9576040517f08c379a00000000000000000000000000000000000000000000000000000000081526004016124f09061475f565b60405180910390fd5b60008060006101000a81548160ff02191690831515021790555061251b611491565b61252533836136ad565b905060016000806101000a81548160ff021916908315150217905550919050565b600a60009054906101000a900473ffffffffffffffffffffffffffffffffffffffff1673ffffffffffffffffffffffffffffffffffffffff1663eafe967b308686866040518563ffffffff1660e01b81526004016125a79493929190614db7565b600060405180830381600087803b1580156125c157600080fd5b505af11580156125d5573d6000803e3d6000fd5b505050508273ffffffffffffffffffffffffffffffffffffffff168273ffffffffffffffffffffffffffffffffffffffff161415612648576040517f08c379a000000000000000000000000000000000000000000000000000000000815260040161263f90614e48565b60405180910390fd5b60008082600560008673ffffffffffffffffffffffffffffffffffffffff1673ffffffffffffffffffffffffffffffffffffffff168152602001908152602001600020546126969190614625565b915082600560008773ffffffffffffffffffffffffffffffffffffffff1673ffffffffffffffffffffffffffffffffffffffff168152602001908152602001600020546126e391906145cf565b905081600560008673ffffffffffffffffffffffffffffffffffffffff1673ffffffffffffffffffffffffffffffffffffffff1681526020019081526020016000208190555080600560008773ffffffffffffffffffffffffffffffffffffffff1673ffffffffffffffffffffffffffffffffffffffff168152602001908152602001600020819055508473ffffffffffffffffffffffffffffffffffffffff168473ffffffffffffffffffffffffffffffffffffffff167fddf252ad1be2c89b69c2b068fc378daa952ba7f163c4a11628f55a4df523b3ef856040516127ca9190614070565b60405180910390a3505050505050565b60008054906101000a900460ff16612827576040517f08c379a000000000000000000000000000000000000000000000000000000000815260040161281e9061475f565b60405180910390fd5b60008060006101000a81548160ff021916908315150217905550612849611491565b61285333826138d3565b60016000806101000a81548160ff02191690831515021790555050565b60008054906101000a900460ff166128bd576040517f08c379a00000000000000000000000000000000000000000000000000000000081526004016128b49061475f565b60405180910390fd5b60008060006101000a81548160ff0219169083151502179055506128df611491565b6128eb338260006130cf565b60016000806101000a81548160ff02191690831515021790555050565b60008060009054906101000a900460ff16612958576040517f08c379a000000000000000000000000000000000000000000000000000000000815260040161294f9061475f565b60405180910390fd5b60008060006101000a81548160ff02191690831515021790555061297a611491565b8173ffffffffffffffffffffffffffffffffffffffff1663a6afed956040518163ffffffff1660e01b8152600401600060405180830381600087803b1580156129c257600080fd5b505af11580156129d6573d6000803e3d6000fd5b505050506000339050600a60009054906101000a900473ffffffffffffffffffffffffffffffffffffffff1673ffffffffffffffffffffffffffffffffffffffff16636e2cf5af308588886040518563ffffffff1660e01b8152600401612a409493929190614c71565b600060405180830381600087803b158015612a5a57600080fd5b505af1158015612a6e573d6000803e3d6000fd5b50505050428373ffffffffffffffffffffffffffffffffffffffff1663b95b92a36040518163ffffffff1660e01b8152600401602060405180830381865afa158015612abe573d6000803e3d6000fd5b505050506040513d601f19601f82011682018060405250810190612ae29190614829565b14612b22576040517f08c379a0000000000000000000000000000000000000000000000000000000008152600401612b1990614eb4565b60405180910390fd5b8073ffffffffffffffffffffffffffffffffffffffff168573ffffffffffffffffffffffffffffffffffffffff161415612b91576040517f08c379a0000000000000000000000000000000000000000000000000000000008152600401612b8890614e48565b60405180910390fd5b6000841415612bd5576040517f08c379a0000000000000000000000000000000000000000000000000000000008152600401612bcc90614f20565b60405180910390fd5b7fffffffffffffffffffffffffffffffffffffffffffffffffffffffffffffffff841415612c38576040517f08c379a0000000000000000000000000000000000000000000000000000000008152600401612c2f90614f8c565b60405180910390fd5b6000612c45828787612ec2565b90506000600a60009054906101000a900473ffffffffffffffffffffffffffffffffffffffff1673ffffffffffffffffffffffffffffffffffffffff1663c488847b3087856040518463ffffffff1660e01b8152600401612ca893929190614fac565b602060405180830381865afa158015612cc5573d6000803e3d6000fd5b505050506040513d601f19601f82011682018060405250810190612ce99190614829565b9050808573ffffffffffffffffffffffffffffffffffffffff166370a08231896040518263ffffffff1660e01b8152600401612d2591906141bc565b602060405180830381865afa158015612d42573d6000803e3d6000fd5b505050506040513d601f19601f82011682018060405250810190612d669190614829565b1015612da7576040517f08c379a0000000000000000000000000000000000000000000000000000000008152600401612d9e9061502f565b60405180910390fd5b3073ffffffffffffffffffffffffffffffffffffffff168573ffffffffffffffffffffffffffffffffffffffff161415612dec57612de730848984612546565b612e5c565b8473ffffffffffffffffffffffffffffffffffffffff1663b2a02ff18489846040518463ffffffff1660e01b8152600401612e2993929190614fac565b600060405180830381600087803b158015612e4357600080fd5b505af1158015612e57573d6000803e3d6000fd5b505050505b7f298637f684da70674f26509b10f07ec2fbc77a335ab1e7d6215a4b2484d8bb528388848885604051612e9395949392919061504f565b60405180910390a181935050505060016000806101000a81548160ff0219169083151502179055509392505050565b6000600a60009054906101000a900473ffffffffffffffffffffffffffffffffffffffff1673ffffffffffffffffffffffffffffffffffffffff16633205e01730856040518363ffffffff1660e01b8152600401612f219291906147eb565b600060405180830381600087803b158015612f3b57600080fd5b505af1158015612f4f573d6000803e3d6000fd5b50505050600080600080600080600860008a73ffffffffffffffffffffffffffffffffffffffff1673ffffffffffffffffffffffffffffffffffffffff168152602001908152602001600020600101549450612faa8961138f565b9350838810612fbb57839550612fbf565b8795505b612fc98a87613bd0565b90508084612fd79190614625565b925080601154612fe79190614625565b915082600860008b73ffffffffffffffffffffffffffffffffffffffff1673ffffffffffffffffffffffffffffffffffffffff16815260200190815260200160002060000181905550601054600860008b73ffffffffffffffffffffffffffffffffffffffff1673ffffffffffffffffffffffffffffffffffffffff16815260200190815260200160002060010181905550816011819055507f1a2a22cb034d26d1854bdc6666a5b91fe25efbbb5dcad3b0355478d6f5c362a18a8a8386866040516130b79594939291906150a2565b60405180910390a18096505050505050509392505050565b60008214806130de5750600081145b61311d576040517f08c379a000000000000000000000000000000000000000000000000000000000815260040161311490615167565b60405180910390fd5b613125613e71565b61312d610a56565b81600001818152505060008160000151141561317e576040517f08c379a0000000000000000000000000000000000000000000000000000000008152600401613175906151d3565b60405180910390fd5b60008311156131c25782816020018181525050670de0b6b3a76400008382600001516131aa9190614659565b6131b491906146e2565b8160400181815250506131f9565b8060000151670de0b6b3a7640000836131db9190614659565b6131e591906146e2565b816020018181525050818160400181815250505b600a60009054906101000a900473ffffffffffffffffffffffffffffffffffffffff1673ffffffffffffffffffffffffffffffffffffffff1663eabe7d91308684602001516040518463ffffffff1660e01b815260040161325c93929190614fac565b600060405180830381600087803b15801561327657600080fd5b505af115801561328a573d6000803e3d6000fd5b5050505080602001516004546132a09190614625565b8160600181815250508060200151600560008673ffffffffffffffffffffffffffffffffffffffff1673ffffffffffffffffffffffffffffffffffffffff168152602001908152602001600020546132f89190614625565b816080018181525050806040015161330e610d25565b101561334f576040517f08c379a00000000000000000000000000000000000000000000000000000000081526004016133469061523f565b60405180910390fd5b6000806000600a60009054906101000a900473ffffffffffffffffffffffffffffffffffffffff1673ffffffffffffffffffffffffffffffffffffffff166304ef9d586040518163ffffffff1660e01b8152600401602060405180830381865afa1580156133c1573d6000803e3d6000fd5b505050506040513d601f19601f820116820180604052508101906133e59190614829565b146134b657670de0b6b3a7640000600a60009054906101000a900473ffffffffffffffffffffffffffffffffffffffff1673ffffffffffffffffffffffffffffffffffffffff166304ef9d586040518163ffffffff1660e01b8152600401602060405180830381865afa158015613460573d6000803e3d6000fd5b505050506040513d601f19601f820116820180604052508101906134849190614829565b84604001516134939190614659565b61349d91906146e2565b91508183604001516134af9190614625565b90506134be565b826040015190505b600082146135a057613560600a60009054906101000a900473ffffffffffffffffffffffffffffffffffffffff1673ffffffffffffffffffffffffffffffffffffffff1663c5f956af6040518163ffffffff1660e01b8152600401602060405180830381865afa158015613536573d6000803e3d6000fd5b505050506040513d601f19601f8201168201806040525081019061355a9190615274565b83612308565b7fccf8e53b86a99b7e9ecf796342c165764d66154780f638c08e6241d711fba6d48683856020015160405161359793929190614a88565b60405180910390a15b6135aa8682612308565b82606001516004819055508260800151600560008873ffffffffffffffffffffffffffffffffffffffff1673ffffffffffffffffffffffffffffffffffffffff168152602001908152602001600020819055503073ffffffffffffffffffffffffffffffffffffffff168673ffffffffffffffffffffffffffffffffffffffff167fddf252ad1be2c89b69c2b068fc378daa952ba7f163c4a11628f55a4df523b3ef856020015160405161365e9190614070565b60405180910390a37fe5b754fb1abb7f01b499791d0b820ae3b6af3424ac1c59768edb53f4ec31a9298682856020015160405161369d93929190614a88565b60405180910390a1505050505050565b6000600a60009054906101000a900473ffffffffffffffffffffffffffffffffffffffff1673ffffffffffffffffffffffffffffffffffffffff1663f196980a30856040518363ffffffff1660e01b815260040161370c9291906147eb565b600060405180830381600087803b15801561372657600080fd5b505af115801561373a573d6000803e3d6000fd5b50505050600080600080600061374e610a56565b945061375a8888613bd0565b905084670de0b6b3a7640000826137719190614659565b61377b91906146e2565b93508360045461378b91906145cf565b925083600560008a73ffffffffffffffffffffffffffffffffffffffff1673ffffffffffffffffffffffffffffffffffffffff168152602001908152602001600020546137d891906145cf565b91508260048190555081600560008a73ffffffffffffffffffffffffffffffffffffffff1673ffffffffffffffffffffffffffffffffffffffff168152602001908152602001600020819055507f4c209b5fc8ad50758f13e2e1088ba56a560dff690a1c6fef26394f4c03821c4f88828660405161385893929190614a88565b60405180910390a18773ffffffffffffffffffffffffffffffffffffffff163073ffffffffffffffffffffffffffffffffffffffff167fddf252ad1be2c89b69c2b068fc378daa952ba7f163c4a11628f55a4df523b3ef866040516138bd9190614070565b60405180910390a3809550505050505092915050565b600a60009054906101000a900473ffffffffffffffffffffffffffffffffffffffff1673ffffffffffffffffffffffffffffffffffffffff1663da3d454c3084846040518463ffffffff1660e01b815260040161393293929190614fac565b600060405180830381600087803b15801561394c57600080fd5b505af1158015613960573d6000803e3d6000fd5b505050508061396d610d25565b10156139ae576040517f08c379a00000000000000000000000000000000000000000000000000000000081526004016139a5906152ed565b60405180910390fd5b600080826139bb8561138f565b6139c591906145cf565b9150826011546139d591906145cf565b905060001515600d60008673ffffffffffffffffffffffffffffffffffffffff1673ffffffffffffffffffffffffffffffffffffffff16815260200190815260200160002060009054906101000a900460ff1615151415613aec576001600d60008673ffffffffffffffffffffffffffffffffffffffff1673ffffffffffffffffffffffffffffffffffffffff16815260200190815260200160002060006101000a81548160ff021916908315150217905550600c849080600181540180825580915050600190039060005260206000200160009091909190916101000a81548173ffffffffffffffffffffffffffffffffffffffff021916908373ffffffffffffffffffffffffffffffffffffffff1602179055505b613af68484612308565b81600860008673ffffffffffffffffffffffffffffffffffffffff1673ffffffffffffffffffffffffffffffffffffffff16815260200190815260200160002060000181905550601054600860008673ffffffffffffffffffffffffffffffffffffffff1673ffffffffffffffffffffffffffffffffffffffff16815260200190815260200160002060010181905550806011819055507f13ed6866d4e1ee6da46f845c46d7e54120883d75c5ea9a2dacc1c4ca8984ab8084848484604051613bc2949392919061530d565b60405180910390a150505050565b600080600960009054906101000a900473ffffffffffffffffffffffffffffffffffffffff1690506000600960009054906101000a900473ffffffffffffffffffffffffffffffffffffffff1673ffffffffffffffffffffffffffffffffffffffff166370a08231306040518263ffffffff1660e01b8152600401613c5591906141bc565b602060405180830381865afa158015613c72573d6000803e3d6000fd5b505050506040513d601f19601f82011682018060405250810190613c969190614829565b90508173ffffffffffffffffffffffffffffffffffffffff166323b872dd8630876040518463ffffffff1660e01b8152600401613cd593929190614fac565b600060405180830381600087803b158015613cef57600080fd5b505af1158015613d03573d6000803e3d6000fd5b5050505060003d60008114613d1f5760208114613d2957600080fd5b6000199150613d35565b60206000803e60005191505b5080613d76576040517f08c379a0000000000000000000000000000000000000000000000000000000008152600401613d6d9061539e565b60405180910390fd5b6000600960009054906101000a900473ffffffffffffffffffffffffffffffffffffffff1673ffffffffffffffffffffffffffffffffffffffff166370a08231306040518263ffffffff1660e01b8152600401613dd391906141bc565b602060405180830381865afa158015613df0573d6000803e3d6000fd5b505050506040513d601f19601f82011682018060405250810190613e149190614829565b905082811015613e59576040517f08c379a0000000000000000000000000000000000000000000000000000000008152600401613e509061540a565b60405180910390fd5b8281613e659190614625565b94505050505092915050565b6040518060a0016040528060008152602001600081526020016000815260200160008152602001600081525090565b600081519050919050565b600082825260208201905092915050565b60005b83811015613eda578082015181840152602081019050613ebf565b83811115613ee9576000848401525b50505050565b6000601f19601f8301169050919050565b6000613f0b82613ea0565b613f158185613eab565b9350613f25818560208601613ebc565b613f2e81613eef565b840191505092915050565b60006020820190508181036000830152613f538184613f00565b905092915050565b600080fd5b600073ffffffffffffffffffffffffffffffffffffffff82169050919050565b6000613f8b82613f60565b9050919050565b613f9b81613f80565b8114613fa657600080fd5b50565b600081359050613fb881613f92565b92915050565b6000819050919050565b613fd181613fbe565b8114613fdc57600080fd5b50565b600081359050613fee81613fc8565b92915050565b6000806040838503121561400b5761400a613f5b565b5b600061401985828601613fa9565b925050602061402a85828601613fdf565b9150509250929050565b60006020828403121561404a57614049613f5b565b5b600061405884828501613fdf565b91505092915050565b61406a81613fbe565b82525050565b60006020820190506140856000830184614061565b92915050565b6000806000606084860312156140a4576140a3613f5b565b5b60006140b286828701613fa9565b93505060206140c386828701613fa9565b92505060406140d486828701613fdf565b9150509250925092565b600060ff82169050919050565b6140f4816140de565b82525050565b600060208201905061410f60008301846140eb565b92915050565b60006020828403121561412b5761412a613f5b565b5b600061413984828501613fa9565b91505092915050565b600061414d82613f80565b9050919050565b61415d81614142565b811461416857600080fd5b50565b60008135905061417a81614154565b92915050565b60006020828403121561419657614195613f5b565b5b60006141a48482850161416b565b91505092915050565b6141b681613f80565b82525050565b60006020820190506141d160008301846141ad565b92915050565b6000819050919050565b60006141fc6141f76141f284613f60565b6141d7565b613f60565b9050919050565b600061420e826141e1565b9050919050565b600061422082614203565b9050919050565b61423081614215565b82525050565b600060208201905061424b6000830184614227565b92915050565b60006040820190506142666000830185614061565b6142736020830184614061565b9392505050565b600081519050919050565b600082825260208201905092915050565b6000819050602082019050919050565b6142af81613f80565b82525050565b60006142c183836142a6565b60208301905092915050565b6000602082019050919050565b60006142e58261427a565b6142ef8185614285565b93506142fa83614296565b8060005b8381101561432b57815161431288826142b5565b975061431d836142cd565b9250506001810190506142fe565b5085935050505092915050565b6000602082019050818103600083015261435281846142da565b905092915050565b600060608201905061436f6000830186614061565b61437c6020830185614061565b6143896040830184614061565b949350505050565b60008115159050919050565b6143a681614391565b82525050565b60006020820190506143c1600083018461439d565b92915050565b600080604083850312156143de576143dd613f5b565b5b60006143ec85828601613fa9565b92505060206143fd85828601613fa9565b9150509250929050565b600061441282613f80565b9050919050565b61442281614407565b811461442d57600080fd5b50565b60008135905061443f81614419565b92915050565b60006020828403121561445b5761445a613f5b565b5b600061446984828501614430565b91505092915050565b600061447d82614203565b9050919050565b61448d81614472565b82525050565b60006020820190506144a86000830184614484565b92915050565b60006144b982613f80565b9050919050565b6144c9816144ae565b81146144d457600080fd5b50565b6000813590506144e6816144c0565b92915050565b60008060006060848603121561450557614504613f5b565b5b600061451386828701613fa9565b935050602061452486828701613fdf565b9250506040614535868287016144d7565b9150509250925092565b7f4e487b7100000000000000000000000000000000000000000000000000000000600052602260045260246000fd5b6000600282049050600182168061458657607f821691505b6020821081141561459a5761459961453f565b5b50919050565b7f4e487b7100000000000000000000000000000000000000000000000000000000600052601160045260246000fd5b60006145da82613fbe565b91506145e583613fbe565b9250827fffffffffffffffffffffffffffffffffffffffffffffffffffffffffffffffff0382111561461a576146196145a0565b5b828201905092915050565b600061463082613fbe565b915061463b83613fbe565b92508282101561464e5761464d6145a0565b5b828203905092915050565b600061466482613fbe565b915061466f83613fbe565b9250817fffffffffffffffffffffffffffffffffffffffffffffffffffffffffffffffff04831182151516156146a8576146a76145a0565b5b828202905092915050565b7f4e487b7100000000000000000000000000000000000000000000000000000000600052601260045260246000fd5b60006146ed82613fbe565b91506146f883613fbe565b925082614708576147076146b3565b5b828204905092915050565b7f72652d656e746572656400000000000000000000000000000000000000000000600082015250565b6000614749600a83613eab565b915061475482614713565b602082019050919050565b600060208201905081810360008301526147788161473c565b9050919050565b7f554e415554484f52495a45440000000000000000000000000000000000000000600082015250565b60006147b5600c83613eab565b91506147c08261477f565b602082019050919050565b600060208201905081810360008301526147e4816147a8565b9050919050565b600060408201905061480060008301856141ad565b61480d60208301846141ad565b9392505050565b60008151905061482381613fc8565b92915050565b60006020828403121561483f5761483e613f5b565b5b600061484d84828501614814565b91505092915050565b7f4f6e6c792061646d696e00000000000000000000000000000000000000000000600082015250565b600061488c600a83613eab565b915061489782614856565b602082019050919050565b600060208201905081810360008301526148bb8161487f565b9050919050565b6148cb81614391565b81146148d657600080fd5b50565b6000815190506148e8816148c2565b92915050565b60006020828403121561490457614903613f5b565b5b6000614912848285016148d9565b91505092915050565b7f6d61726b6572206d6574686f642072657475726e65642066616c736500000000600082015250565b6000614951601c83613eab565b915061495c8261491b565b602082019050919050565b6000602082019050818103600083015261498081614944565b9050919050565b600060408201905061499c6000830185614227565b6149a96020830184614227565b9392505050565b7f494e53554646494349454e542043415348000000000000000000000000000000600082015250565b60006149e6601183613eab565b91506149f1826149b0565b602082019050919050565b60006020820190508181036000830152614a15816149d9565b9050919050565b7f494e53554646494349454e542052455345525645530000000000000000000000600082015250565b6000614a52601583613eab565b9150614a5d82614a1c565b602082019050919050565b60006020820190508181036000830152614a8181614a45565b9050919050565b6000606082019050614a9d60008301866141ad565b614aaa6020830185614061565b614ab76040830184614061565b949350505050565b7f626f72726f772072617465206973206162737572646c79206869676800000000600082015250565b6000614af5601c83613eab565b9150614b0082614abf565b602082019050919050565b60006020820190508181036000830152614b2481614ae8565b9050919050565b6000608082019050614b406000830187614061565b614b4d6020830186614061565b614b5a6040830185614061565b614b676060830184614061565b95945050505050565b6000604082019050614b856000830185614484565b614b926020830184614484565b9392505050565b7f4f6e6c792061646d696e2066756e6374696f6e00000000000000000000000000600082015250565b6000614bcf601383613eab565b9150614bda82614b99565b602082019050919050565b60006020820190508181036000830152614bfe81614bc2565b9050919050565b7f56616c75652067726561746572207468616e206d617800000000000000000000600082015250565b6000614c3b601683613eab565b9150614c4682614c05565b602082019050919050565b60006020820190508181036000830152614c6a81614c2e565b9050919050565b6000608082019050614c8660008301876141ad565b614c9360208301866141ad565b614ca060408301856141ad565b614cad6060830184614061565b95945050505050565b7f4241445f494e5055540000000000000000000000000000000000000000000000600082015250565b6000614cec600983613eab565b9150614cf782614cb6565b602082019050919050565b60006020820190508181036000830152614d1b81614cdf565b9050919050565b6000604082019050614d3760008301856141ad565b614d446020830184614061565b9392505050565b7f544f4b454e5f5452414e534645525f4f55545f4641494c454400000000000000600082015250565b6000614d81601983613eab565b9150614d8c82614d4b565b602082019050919050565b60006020820190508181036000830152614db081614d74565b9050919050565b6000608082019050614dcc60008301876141ad565b614dd960208301866141ad565b614de660408301856141ad565b614df360608301846141ad565b95945050505050565b7f43414e27542053454c46204c4951554944415445000000000000000000000000600082015250565b6000614e32601483613eab565b9150614e3d82614dfc565b602082019050919050565b60006020820190508181036000830152614e6181614e25565b9050919050565b7f54494d45204d49534d4154434800000000000000000000000000000000000000600082015250565b6000614e9e600d83613eab565b9150614ea982614e68565b602082019050919050565b60006020820190508181036000830152614ecd81614e91565b9050919050565b7f416d6f756e74203d203000000000000000000000000000000000000000000000600082015250565b6000614f0a600a83613eab565b9150614f1582614ed4565b602082019050919050565b60006020820190508181036000830152614f3981614efd565b9050919050565b7f414d4f554e54206973204d41582076616c756500000000000000000000000000600082015250565b6000614f76601383613eab565b9150614f8182614f40565b602082019050919050565b60006020820190508181036000830152614fa581614f69565b9050919050565b6000606082019050614fc160008301866141ad565b614fce60208301856141ad565b614fdb6040830184614061565b949350505050565b7f4c49515549444154455f5345495a455f544f4f5f4d5543480000000000000000600082015250565b6000615019601883613eab565b915061502482614fe3565b602082019050919050565b600060208201905081810360008301526150488161500c565b9050919050565b600060a08201905061506460008301886141ad565b61507160208301876141ad565b61507e6040830186614061565b61508b60608301856141ad565b6150986080830184614061565b9695505050505050565b600060a0820190506150b760008301886141ad565b6150c460208301876141ad565b6150d16040830186614061565b6150de6060830185614061565b6150eb6080830184614061565b9695505050505050565b7f6f6e65206f662072656465656d546f6b656e73496e206f722072656465656d4160008201527f6d6f756e74496e206d757374206265207a65726f000000000000000000000000602082015250565b6000615151603483613eab565b915061515c826150f5565b604082019050919050565b6000602082019050818103600083015261518081615144565b9050919050565b7f4661696c2065786368616e676520726174650000000000000000000000000000600082015250565b60006151bd601283613eab565b91506151c882615187565b602082019050919050565b600060208201905081810360008301526151ec816151b0565b9050919050565b7f496e73756666696369656e742063617368000000000000000000000000000000600082015250565b6000615229601183613eab565b9150615234826151f3565b602082019050919050565b600060208201905081810360008301526152588161521c565b9050919050565b60008151905061526e81613f92565b92915050565b60006020828403121561528a57615289613f5b565b5b60006152988482850161525f565b91505092915050565b7f544f4b454e5f494e53554646494349454e545f43415348000000000000000000600082015250565b60006152d7601783613eab565b91506152e2826152a1565b602082019050919050565b60006020820190508181036000830152615306816152ca565b9050919050565b600060808201905061532260008301876141ad565b61532f6020830186614061565b61533c6040830185614061565b6153496060830184614061565b95945050505050565b7f544f4b454e5f5452414e534645525f494e5f4641494c45440000000000000000600082015250565b6000615388601883613eab565b915061539382615352565b602082019050919050565b600060208201905081810360008301526153b78161537b565b9050919050565b7f544f4b454e5f5452414e534645525f494e5f4f564552464c4f57000000000000600082015250565b60006153f4601a83613eab565b91506153ff826153be565b602082019050919050565b60006020820190508181036000830152615423816153e7565b905091905056fea26469706673582212204718b9b005963ba657cdb6c78e2f98e2701aed24712d159f250529c2fb10250264736f6c634300080c0033",
  "immutableReferences": {},
  "source": "// SPDX-License-Identifier: MIT\r\npragma solidity ^0.8.0;\r\n\r\nimport './interface/ComptrollerInterface.sol';\r\nimport './interface/EIP20NonStandardInterface.sol';\r\nimport \"@openzeppelin/contracts/token/ERC20/ERC20.sol\";\r\n\r\n//\r\n//  Lend token contract is forked and modified from venus' VToken contract\r\n//\r\n\r\ncontract LendToken is LendTokenInterface{\r\n\r\n    function isLendToken() external pure returns(bool) {return true;} // Indicator that this is the lend token\r\n\r\n    bool internal _notEntered; // re-entrancy guarding check\r\n    // -----------------------------\r\n    // Standard variables for tokens\r\n    // -----------------------------\r\n    string public name;\r\n    string public symbol;\r\n    uint8 public decimals;\r\n    uint256 public totalSupply;\r\n\r\n    mapping (address => uint256) accountTokens;\r\n    mapping (address => mapping (address => uint256)) transferAllowances;\r\n    address public admin;                                   //owner of this contract\r\n    // ----------------\r\n    // Market parameter\r\n    // ----------------\r\n    struct BorrowSnapshot {\r\n        uint principal;\r\n        uint interestIndex;\r\n    }\r\n    mapping (address => BorrowSnapshot) public accountBorrows;    //Outstanding borrow balances for each account\r\n    function getAccountBorrows(address user) public view returns(uint, uint) { \r\n        return (accountBorrows[user].principal, accountBorrows[user].interestIndex);\r\n    }\r\n\r\n    address public underlying;                      //Underlying asset address\r\n    ComptrollerInterface public comptroller;                //get the comptroller\r\n    InterestRateModel public interestRateModel;\r\n\r\n    address[] public borrowAddress;         //Stored all borrow address\r\n    mapping(address => bool) hasBorrowed;  \r\n    function getBorrowAddress() external view returns(address[] memory){\r\n        return borrowAddress;\r\n    }\r\n    \r\n    // -----------------\r\n    // Lending parameter\r\n    // -----------------\r\n    uint constant public borrowRateMaxMantissa = 0.0004e14;        //Maximum borrow rate (0.000004% / sec) or 126.14% /year\r\n    uint constant public reserveFactorMaxMantissa = 1e18;          //Maximum fraction of interest that can be set aside for reserves\r\n    uint constant public initialExchangeRateMantissa = 1e18;       //Initial exchange rate, Used when minting first Lend token (totalSupply = 0)\r\n    uint256 public reserveFactorMantissa;                          //Current fraction of interest\r\n\r\n    // AccrueInterest update parameter\r\n    uint256 public accrualTimestamp;                                //Last accrued block number\r\n    uint public borrowIndex;                                       //Accumulate total earned interest rate\r\n    uint public totalBorrows;                                      //Total amount of borrowed underlying asset\r\n    uint public totalReserves;                                     //Total amount of underlying asset\r\n\r\n    modifier nonReentrant() {\r\n        require(_notEntered, \"re-entered\");\r\n        _notEntered = false;\r\n        _;\r\n        _notEntered = true; // get a gas-refund post-Istanbul\r\n    }\r\n\r\n\r\n    // ------------------\r\n    // Initiate parameter\r\n    // ------------------\r\n\r\n    constructor (string memory name_, string memory symbol_, uint8 decimals_, address underlying_, address interestRateModel_, address comptroller_) {\r\n\r\n        name = name_;\r\n        symbol = symbol_;\r\n        decimals = decimals_;\r\n        underlying = underlying_;\r\n\r\n        interestRateModel = InterestRateModel(interestRateModel_);\r\n        comptroller = ComptrollerInterface(comptroller_);\r\n\r\n        borrowIndex = 1e18;\r\n        reserveFactorMantissa = 0.2e18; //default reserveFactor = 20%\r\n        \r\n        accrualTimestamp = block.timestamp;\r\n        admin = msg.sender;\r\n        _notEntered = true;\r\n    }\r\n\r\n    // -------------\r\n    // Market Events\r\n    // -------------\r\n\r\n    event Mint(address minter, uint mintAmount, uint mintTokens);                                                               //Emit when tokens are minted\r\n    event Redeem(address redeemer, uint redeemAmount, uint redeemTokens);                                                       //Emit when tokens are redeemed\r\n    event RedeemFee(address redeemer, uint feeAmount, uint redeemTokens);                                                       //Emit when tokens are redeemed and fee are transferred\r\n    event Borrow(address borrower, uint borrowAmount, uint accountBorrows, uint totalBorrows);                                  //Emit when underlying is borrowed\r\n    event RepayBorrow(address payer, address borrower, uint repayAmount, uint accountBorrows, uint totalBorrows);               //Emit when a borrow is repaid\r\n    event LiquidateBorrow(address liquidator, address borrower, uint repayAmount, address LendTokenCollateral, uint seizeTokens);  //Emit when a borrow is liquidated\r\n    event NewLendTokenStorage(address oldLendTokenStorage, address newLendTokenStorage);\r\n\r\n    event AccrueInterest(uint cashPrior, uint interestAccumulated, uint borrowIndex, uint totalBorrows);                        //Emit when interest is accrued\r\n    event NewMarketInterestRateModel(InterestRateModel oldInterestRateModel, InterestRateModel newInterestRateModel);           //Emit when changing interestRateModel\r\n    event NewReserveFactor(uint oldReserveFactorMantissa, uint newReserveFactorMantissa);                                       //Emit when changing reserve factor\r\n    event ReservesAdded(address benefactor, uint addAmount, uint newTotalReserves);                                             //Emit when adding reserves\r\n    event ReservesReduced(address admin, uint reduceAmount, uint newTotalReserves);                                             //Emit when reducing reserves\r\n    event NewComptroller(ComptrollerInterface oldComptroller, ComptrollerInterface newComptroller);                             //Emit when changing comptroller\r\n\r\n    // ------------\r\n    // Admin Events\r\n    // ------------\r\n\r\n    event NewAdmin(address oldAdmin, address newAdmin);    \r\n\r\n    /**\r\n        * @notice EIP20 Transfer event\r\n    */\r\n    event Transfer(address indexed from, address indexed to, uint amount);\r\n\r\n    /**\r\n      * @notice EIP20 Approval event\r\n    */\r\n    event Approval(address indexed owner, address indexed spender, uint amount);\r\n\r\n\r\n    /**\r\n     * @notice Transfer `tokens` tokens from `src` to `dst` by `spender`\r\n     * @dev Called by both `transfer` and `transferFrom` internally\r\n     * @param spender The address of the account performing the transfer\r\n     * @param src The address of the source account\r\n     * @param dst The address of the destination account\r\n     * @param tokens The number of tokens to transfer\r\n     */\r\n    function transferTokens(address spender, address src, address dst, uint tokens) internal{\r\n        /* Fail if transfer not allowed */\r\n        comptroller.transferAllowed(address(this), src, dst, tokens);\r\n\r\n        /* Do not allow self-transfers */\r\n        if (src == dst) {\r\n            revert (\"BAD_INPUT\");\r\n        }\r\n\r\n        /* Get the allowance, infinite for the account owner */\r\n        uint startingAllowance = 0;\r\n        if (spender == src) {\r\n            startingAllowance = type(uint).max;\r\n        } else {\r\n            startingAllowance = transferAllowances[src][spender];\r\n        }\r\n\r\n        uint allowanceNew;\r\n        uint srvTokensNew;\r\n        uint dstTokensNew;\r\n\r\n        allowanceNew = startingAllowance - tokens;\r\n        srvTokensNew = accountTokens[src] - tokens;\r\n        dstTokensNew = accountTokens[dst] + tokens;\r\n\r\n        /////////////////////////\r\n        // EFFECTS & INTERACTIONS\r\n        // (No safe failures beyond this point)\r\n\r\n        accountTokens[src] = srvTokensNew;\r\n        accountTokens[dst] = dstTokensNew;\r\n\r\n        /* Eat some of the allowance (if necessary) */\r\n        if (startingAllowance != type(uint).max) {\r\n            transferAllowances[src][spender] = allowanceNew;\r\n        }\r\n\r\n        /* We emit a Transfer event */\r\n        emit Transfer(src, dst, tokens);\r\n    }\r\n\r\n    /**\r\n     * @notice Transfer `amount` tokens from `msg.sender` to `dst`\r\n     * @param dst The address of the destination account\r\n     * @param amount The number of tokens to transfer\r\n     */\r\n    function transfer(address dst, uint256 amount) external nonReentrant {\r\n        transferTokens(msg.sender, msg.sender, dst, amount);\r\n    }\r\n\r\n    /**\r\n     * @notice Transfer `amount` tokens from `src` to `dst`\r\n     * @param src The address of the source account\r\n     * @param dst The address of the destination account\r\n     * @param amount The number of tokens to transfer\r\n     */\r\n    function transferFrom(address src, address dst, uint256 amount) external nonReentrant{\r\n        transferTokens(msg.sender, src, dst, amount);\r\n    }\r\n\r\n    /**\r\n     * @notice Approve `spender` to transfer up to `amount` from `src`\r\n     * @dev This will overwrite the approval amount for `spender`\r\n     *  and is subject to issues noted [here](https://eips.ethereum.org/EIPS/eip-20#approve)\r\n     * @param spender The address of the account which may transfer tokens\r\n     * @param amount The number of tokens that are approved (-1 means infinite)\r\n     */\r\n    function approve(address spender, uint256 amount) external{\r\n        address src = msg.sender;\r\n        transferAllowances[src][spender] = amount;\r\n        emit Approval(src, spender, amount);\r\n    }\r\n\r\n    /**\r\n     * @notice Get the current allowance from `owner` for `spender`\r\n     * @param owner The address of the account which owns the tokens to be spent\r\n     * @param spender The address of the account which may transfer tokens\r\n     * @return The number of tokens allowed to be spent (-1 means infinite)\r\n     */\r\n    function allowance(address owner, address spender) external view returns (uint256) {\r\n        return transferAllowances[owner][spender];\r\n    }\r\n\r\n    /**\r\n     * @notice Get the token balance of the `owner`\r\n     * @param owner The address of the account to query\r\n     * @return The number of tokens owned by `owner`\r\n     */\r\n    function balanceOf(address owner) external view returns (uint256) {\r\n        return accountTokens[owner];\r\n    }\r\n\r\n    /**\r\n     * @notice Get the underlying balance of the `owner`\r\n     * @dev This also accrues interest in a transaction\r\n     * @param owner The address of the account to query\r\n     * @return The amount of underlying owned by `owner`\r\n     */\r\n    function balanceOfUnderlying(address owner) external returns (uint) {\r\n        uint exchangeRate = exchangeRateCurrent();\r\n        uint balance = exchangeRate * accountTokens[owner] / 1e18;\r\n        return balance;\r\n    }\r\n\r\n    /**\r\n     * @notice Get a snapshot of the account's balances, and the cached exchange rate\r\n     * @dev This is used by comptroller to more efficiently perform liquidity checks.\r\n     * @param account Address of the account to snapshot\r\n     * @return (possible error, token balance, borrow balance, exchange rate mantissa)\r\n     */\r\n    function getAccountSnapshot(address account) external view returns (uint, uint, uint) {\r\n        uint borrowBalance;\r\n        uint exchangeRateMantissa;\r\n\r\n        borrowBalance = borrowBalanceStored(account);\r\n\r\n        exchangeRateMantissa = exchangeRateStored();\r\n\r\n        return (accountTokens[account], borrowBalance, exchangeRateMantissa);\r\n    }\r\n\r\n\r\n    /**\r\n     * @notice Return the borrow balance of account based on stored data\r\n     * @param account The address whose balance should be calculated\r\n     * @return The calculated balance\r\n     */\r\n    function borrowBalanceStored(address account) public view returns (uint) {\r\n        uint principalTimesIndex;\r\n        uint result;\r\n\r\n        /* Get borrowBalance and borrowIndex */\r\n        (uint principal, uint interestIndex) = getAccountBorrows(account);\r\n\r\n        if (principal == 0) {\r\n            return 0;\r\n        }\r\n\r\n        /* Calculate new borrow balance using the interest index:\r\n         *  recentBorrowBalance = borrower.borrowBalance * market.borrowIndex / borrower.borrowIndex\r\n         */\r\n\r\n        // principalTimesIndex is now 1e36  :: e18 * e18 = e36\r\n        principalTimesIndex = principal * borrowIndex;\r\n\r\n        // result is 1e18  :: e36 / e18 = e18\r\n        result = principalTimesIndex / interestIndex;\r\n\r\n        return result;\r\n    }\r\n    /**\r\n     * @notice Calculates the exchange rate from the underlying to the lendToken\r\n     * @dev This function does not accrue interest before calculating the exchange rate\r\n     * @return Calculated exchange rate scaled by 1e18\r\n     */\r\n    function exchangeRateStored() public view returns (uint) {\r\n        uint _totalSupply = totalSupply;\r\n        uint totalCash = getCash();\r\n        uint cashPlusBorrowsMinusReserves;\r\n\r\n        if (_totalSupply == 0) {\r\n            /*\r\n             * If there are no tokens minted:\r\n             *  exchangeRate = initialExchangeRate\r\n             */\r\n            return (initialExchangeRateMantissa);\r\n        } else {\r\n            /*\r\n             * Otherwise:\r\n             *  exchangeRate = (totalCash + totalBorrows - totalReserves) / totalSupply\r\n             */\r\n\r\n            // cashPlusBorrows is in 1e18\r\n            cashPlusBorrowsMinusReserves = totalCash + totalBorrows - totalReserves;\r\n\r\n            // exchangeRate mantissa is in 1e18 :: e18 * 1e18 / e18\r\n            uint exchangeRateMantissa = cashPlusBorrowsMinusReserves * 1e18 / _totalSupply;\r\n\r\n            return exchangeRateMantissa;\r\n        }\r\n    }\r\n    /**\r\n     * @notice Get cash balance of this lendToken in the underlying asset\r\n     * @return The quantity of underlying asset owned by this contract\r\n     */\r\n    function getCash() public view returns (uint) {\r\n        return IERC20(underlying).balanceOf(address(this));\r\n    }\r\n    /**\r\n     * @notice Applies accrued interest to total borrows and reserves\r\n     * @dev This calculates interest accrued from the last checkpointed block\r\n     *   up to the current block and writes new checkpoint to storage.\r\n     */\r\n    function accrueInterest() public {\r\n        /* Remember the initial block number */\r\n        uint currentTimestamp = block.timestamp;\r\n        uint accrualTimestampPrior = accrualTimestamp;\r\n\r\n        /* Short-circuit accumulating 0 interest */\r\n        if (accrualTimestampPrior == currentTimestamp) {\r\n            return ;\r\n        }\r\n\r\n        /* Read the previous values out of storage */\r\n        uint cashPrior = getCash();\r\n        uint borrowsPrior = totalBorrows;\r\n        uint reservesPrior = totalReserves;\r\n        uint borrowIndexPrior = borrowIndex;\r\n\r\n        /* Calculate the current borrow interest rate */\r\n        uint borrowRateMantissa = interestRateModel.getBorrowRate(cashPrior, borrowsPrior, reservesPrior);\r\n        require(borrowRateMantissa <= borrowRateMaxMantissa, \"borrow rate is absurdly high\");\r\n\r\n        /* Calculate the number of blocks elapsed since the last accrual */\r\n        uint blockDelta = currentTimestamp - accrualTimestampPrior;\r\n\r\n        /*\r\n         * Calculate the interest accumulated into borrows and reserves and the new index:\r\n         *  simpleInterestFactor = borrowRate * blockDelta\r\n         *  interestAccumulated = simpleInterestFactor * totalBorrows\r\n         *  totalBorrowsNew = interestAccumulated + totalBorrows\r\n         *  totalReservesNew = interestAccumulated * reserveFactor + totalReserves\r\n         *  borrowIndexNew = simpleInterestFactor * borrowIndex + borrowIndex\r\n         */\r\n\r\n        uint simpleInterestFactor;\r\n        uint interestAccumulated;\r\n        uint totalBorrowsNew;\r\n        uint totalReservesNew;\r\n        uint borrowIndexNew;\r\n\r\n        // simpleInterestFactor is 1e18 :: e18 * e1\r\n        simpleInterestFactor = borrowRateMantissa * blockDelta;\r\n        // interestAccumulated is 1e18 :: e18 * e18 /1e18\r\n        interestAccumulated = simpleInterestFactor * borrowsPrior / 1e18;\r\n        // totalBorrowsNew is 1e18\r\n        totalBorrowsNew = interestAccumulated + borrowsPrior;\r\n        // totalReservesNew is 1e18  :: (e18 * e18 / e18) + e18\r\n        totalReservesNew = (reserveFactorMantissa * interestAccumulated) / 1e18 + reservesPrior;\r\n        // borrowIndexNew is 1e18 :: (e18 * e18 / e18) + e18\r\n        borrowIndexNew = (simpleInterestFactor * borrowIndexPrior) / 1e18 + borrowIndexPrior;\r\n\r\n        /////////////////////////\r\n        // EFFECTS & INTERACTIONS\r\n        // (No safe failures beyond this point)\r\n\r\n        /* We write the previously calculated values into storage */\r\n        accrualTimestamp = currentTimestamp;\r\n        borrowIndex = borrowIndexNew;\r\n        totalBorrows = totalBorrowsNew;\r\n        totalReserves = totalReservesNew;\r\n\r\n        /* We emit an AccrueInterest event */\r\n        emit AccrueInterest(cashPrior, interestAccumulated, borrowIndexNew, totalBorrowsNew);\r\n    }\r\n    /**\r\n     * @notice Returns the current per-block borrow interest rate for this LendToken\r\n     * @return The borrow interest rate per block, scaled by 1e18\r\n     */\r\n    function borrowRatePerSeconds() external view returns (uint) {\r\n        return interestRateModel.getBorrowRate(getCash(), totalBorrows, totalReserves);\r\n    }\r\n\r\n    /**\r\n     * @notice Returns the current per-block supply interest rate for this lendToken\r\n     * @return The supply interest rate per block, scaled by 1e18\r\n     */\r\n    function supplyRatePerSeconds() external view returns (uint) {\r\n        return interestRateModel.getSupplyRate(getCash(), totalBorrows, totalReserves, reserveFactorMantissa);\r\n    }\r\n\r\n\r\n    /**\r\n     * @notice Accrue interest then return the up-to-date exchange rate\r\n     * @return Calculated exchange rate scaled by 1e18\r\n     */\r\n    function exchangeRateCurrent() public returns (uint) {\r\n        accrueInterest();\r\n        return exchangeRateStored();\r\n    }\r\n\r\n\r\n\r\n\r\n    /**\r\n     * @notice Sender supplies assets into the market and receives lendTokens in exchange\r\n     * @dev Accrues interest whether or not the operation succeeds, unless reverted\r\n     * @param mintAmount The amount of the underlying asset to supply\r\n     * @return (uint, uint) An error code (0=success, otherwise a failure, see ErrorReporter.sol), and the actual mint amount.\r\n     */\r\n    function mint(uint mintAmount) external returns(uint) {\r\n        return mintInternal(mintAmount);\r\n    }\r\n    function mintInternal(uint mintAmount) internal nonReentrant returns (uint) {\r\n        accrueInterest();\r\n        // mintFresh emits the actual Mint event if successful and logs on errors, so we don't need to\r\n        return mintFresh(msg.sender, mintAmount);\r\n    }\r\n\r\n\r\n    /**\r\n     * @notice User supplies assets into the market and receives lendTokens in exchange\r\n     * @dev Assumes interest has already been accrued up to the current block\r\n     * @param minter The address of the account which is supplying the assets\r\n     * @param mintAmount The amount of the underlying asset to supply\r\n     * @return (uint, uint) An error code (0=success, otherwise a failure, see ErrorReporter.sol), and the actual mint amount.\r\n     */\r\n    function mintFresh(address minter, uint mintAmount) internal returns (uint) {\r\n        /* Fail if mint not allowed */\r\n        comptroller.mintAllowed(address(this), minter);\r\n\r\n        uint exchangeRateMantissa;\r\n        uint mintTokens;\r\n        uint totalSupplyNew;\r\n        uint accountTokensNew;\r\n        uint actualMintAmount;\r\n\r\n        exchangeRateMantissa = exchangeRateStored();\r\n\r\n        /////////////////////////\r\n        // EFFECTS & INTERACTIONS\r\n        // (No safe failures beyond this point)\r\n\r\n        /*\r\n         *  We call `doTransferIn` for the minter and the mintAmount.\r\n         *  Note: The lendToken must handle variations between BEP-20 and BNB underlying.\r\n         *  `doTransferIn` reverts if anything goes wrong, since we can't be sure if\r\n         *  side-effects occurred. The function returns the amount actually transferred,\r\n         *  in case of a fee. On success, the lendToken holds an additional `actualMintAmount`\r\n         *  of cash.\r\n         */\r\n        actualMintAmount = doTransferIn(minter, mintAmount);\r\n\r\n        /*\r\n         * We get the current exchange rate and calculate the number of lendTokens to be minted:\r\n         *  mintTokens = actualMintAmount / exchangeRate\r\n         */\r\n\r\n        mintTokens = actualMintAmount * 1e18 / exchangeRateMantissa;\r\n\r\n        /*\r\n         * We calculate the new total supply of lendTokens and minter token balance, checking for overflow:\r\n         *  totalSupplyNew = totalSupply + mintTokens\r\n         *  accountTokensNew = accountTokens[minter] + mintTokens\r\n         */\r\n        totalSupplyNew = totalSupply + mintTokens;\r\n        accountTokensNew = accountTokens[minter] + mintTokens;\r\n\r\n\r\n        /* We write previously calculated values into storage */\r\n        totalSupply = totalSupplyNew;\r\n        accountTokens[minter] = accountTokensNew;\r\n\r\n        /* We emit a Mint event, and a Transfer event */\r\n        emit Mint(minter, actualMintAmount, mintTokens);\r\n        emit Transfer(address(this), minter, mintTokens);\r\n\r\n        return (actualMintAmount);\r\n    }\r\n\r\n    /**\r\n     * @notice Sender redeems lendTokens in exchange for the underlying asset\r\n     * @dev Accrues interest whether or not the operation succeeds, unless reverted\r\n     * @param redeemTokens The number of lendTokens to redeem into underlying\r\n     */\r\n    function redeem(uint redeemTokens) external{\r\n        redeemInternal(redeemTokens);\r\n    }\r\n    function redeemInternal(uint redeemTokens) internal nonReentrant {\r\n        accrueInterest();\r\n        redeemFresh(msg.sender, redeemTokens, 0);\r\n    }\r\n\r\n    /**\r\n     * @notice Sender redeems lendTokens in exchange for a specified amount of underlying asset\r\n     * @dev Accrues interest whether or not the operation succeeds, unless reverted\r\n     * @param redeemAmount The amount of underlying to receive from redeeming lendTokens\r\n     */\r\n    function redeemUnderlying(uint redeemAmount) external{\r\n        redeemUnderlyingInternal(redeemAmount);\r\n    }\r\n    function redeemUnderlyingInternal(uint redeemAmount) internal nonReentrant{\r\n        accrueInterest();\r\n        redeemFresh(msg.sender, 0, redeemAmount);\r\n    }\r\n\r\n\r\n    struct RedeemVars {\r\n        uint exchangeRateMantissa;\r\n        uint redeemTokens;\r\n        uint redeemAmount;\r\n        uint totalSupplyNew;\r\n        uint accountTokensNew;\r\n    }\r\n    /**\r\n     * @notice User redeems lendTokens in exchange for the underlying asset\r\n     * @dev Assumes interest has already been accrued up to the current block\r\n     * @param redeemer The address of the account which is redeeming the tokens\r\n     * @param redeemTokensIn The number of lendTokens to redeem into underlying (only one of redeemTokensIn or redeemAmountIn may be non-zero)\r\n     * @param redeemAmountIn The number of underlying tokens to receive from redeeming lendTokens (only one of redeemTokensIn or redeemAmountIn may be non-zero)\r\n     */\r\n    function redeemFresh(address redeemer, uint redeemTokensIn, uint redeemAmountIn) internal{\r\n        require(redeemTokensIn == 0 || redeemAmountIn == 0, \"one of redeemTokensIn or redeemAmountIn must be zero\");\r\n\r\n\r\n\r\n\r\n        RedeemVars memory vars;\r\n\r\n        \r\n        /* exchangeRate = invoke Exchange Rate Stored() */\r\n        vars.exchangeRateMantissa = exchangeRateStored();\r\n        if (vars.exchangeRateMantissa == 0) {\r\n            revert (\"Fail exchange rate\");\r\n        }\r\n\r\n        /* If redeemTokensIn > 0: */\r\n        if (redeemTokensIn > 0) {\r\n            /*\r\n             * We calculate the exchange rate and the amount of underlying to be redeemed:\r\n             *  redeemTokens = redeemTokensIn\r\n             *  redeemAmount = redeemTokensIn x exchangeRateCurrent\r\n             */\r\n            vars.redeemTokens = redeemTokensIn;\r\n\r\n            // redeemAmount is 1e18 :: e18*e18 / 1e18\r\n            vars.redeemAmount = vars.exchangeRateMantissa * redeemTokensIn / 1e18;\r\n        } else {\r\n            /*\r\n             * We get the current exchange rate and calculate the amount to be redeemed:\r\n             *  redeemTokens = redeemAmountIn / exchangeRate\r\n             *  redeemAmount = redeemAmountIn\r\n             */\r\n\r\n            // redeemTokens is 1e18 :: e18 * 1e18 / e18\r\n            vars.redeemTokens = redeemAmountIn * 1e18 / vars.exchangeRateMantissa;\r\n\r\n            vars.redeemAmount = redeemAmountIn;\r\n        }\r\n\r\n        /* Fail if redeem not allowed */\r\n        comptroller.redeemAllowed(address(this), redeemer, vars.redeemTokens);\r\n\r\n\r\n        /*\r\n         * We calculate the new total supply and redeemer balance, checking for underflow:\r\n         *  totalSupplyNew = totalSupply - redeemTokens\r\n         *  accountTokensNew = accountTokens[redeemer] - redeemTokens\r\n         */\r\n\r\n        vars.totalSupplyNew = totalSupply - vars.redeemTokens;\r\n\r\n        vars.accountTokensNew = accountTokens[redeemer] - vars.redeemTokens;\r\n\r\n        /* Fail gracefully if protocol has insufficient cash */\r\n        if (getCash() < vars.redeemAmount) {\r\n            revert (\"Insufficient cash\");\r\n        }\r\n\r\n        /////////////////////////\r\n        // EFFECTS & INTERACTIONS\r\n        // (No safe failures beyond this point)\r\n\r\n        /*\r\n         * We invoke doTransferOut for the redeemer and the redeemAmount.\r\n         *  Note: The lendToken must handle variations between BEP-20 and BNB underlying.\r\n         *  On success, the lendToken has redeemAmount less of cash.\r\n         *  doTransferOut reverts if anything goes wrong, since we can't be sure if side effects occurred.\r\n         */\r\n\r\n        uint feeAmount;\r\n        uint remainedAmount;\r\n        if (IComptroller(address(comptroller)).treasuryPercent() != 0) {\r\n            //feeAmount is 1e18 :: e18 * e18 /1e18\r\n            feeAmount = vars.redeemAmount * IComptroller(address(comptroller)).treasuryPercent() /1e18;\r\n            remainedAmount = vars.redeemAmount - feeAmount;\r\n\r\n        } else {\r\n            remainedAmount = vars.redeemAmount;\r\n        }\r\n\r\n\r\n        if(feeAmount != 0) {\r\n            //Transfer to address treasury\r\n            doTransferOut(IComptroller(address(comptroller)).treasuryAddress() , feeAmount);\r\n            emit RedeemFee(redeemer, feeAmount, vars.redeemTokens);\r\n        }\r\n        doTransferOut(redeemer, remainedAmount);\r\n\r\n        /* We write previously calculated values into storage */\r\n        totalSupply = vars.totalSupplyNew;\r\n        accountTokens[redeemer] = vars.accountTokensNew;\r\n\r\n        /* We emit a Transfer event, and a Redeem event */\r\n        emit Transfer(redeemer, address(this), vars.redeemTokens);\r\n        emit Redeem(redeemer, remainedAmount, vars.redeemTokens);\r\n    }\r\n\r\n    /**\r\n      * @notice Sender borrows assets from the protocol to their own address\r\n      * @param borrowAmount The amount of the underlying asset to borrow\r\n      */\r\n    function borrow(uint borrowAmount) external {\r\n        borrowInternal(borrowAmount);\r\n    }\r\n    function borrowInternal(uint borrowAmount) internal nonReentrant {\r\n        accrueInterest();\r\n        // borrowFresh emits borrow-specific logs on errors, so we don't need to\r\n        borrowFresh(msg.sender, borrowAmount);\r\n    }\r\n\r\n\r\n    /*\r\n      * @notice Users borrow assets from the protocol to their own address\r\n      * @param borrowAmount The amount of the underlying asset to borrow\r\n      * @return uint 0=success, otherwise a failure (see ErrorReporter.sol for details)\r\n      */\r\n    function borrowFresh(address  borrower, uint borrowAmount) internal {\r\n        /* Fail if borrow not allowed */\r\n        comptroller.borrowAllowed(address(this), borrower, borrowAmount);\r\n\r\n        /* Fail gracefully if protocol has insufficient underlying cash */\r\n        if (getCash() < borrowAmount) {\r\n            revert(\"TOKEN_INSUFFICIENT_CASH\");\r\n        }\r\n\r\n        uint accountBorrowsNew;\r\n        uint totalBorrowsNew;\r\n\r\n        /*\r\n         * We calculate the new borrower and total borrow balances, failing on overflow:\r\n         *  accountBorrowsNew = accountBorrows + borrowAmount\r\n         *  totalBorrowsNew = totalBorrows + borrowAmount\r\n         */\r\n\r\n        accountBorrowsNew = borrowBalanceStored(borrower) + borrowAmount;\r\n        totalBorrowsNew = totalBorrows + borrowAmount;\r\n\r\n        /////////////////////////\r\n        // EFFECTS & INTERACTIONS\r\n        // (No safe failures beyond this point)\r\n\r\n        /*\r\n         * We invoke doTransferOut for the borrower and the borrowAmount.\r\n         *  Note: The lendToken must handle variations between BEP-20 and BNB underlying.\r\n         *  On success, the lendToken borrowAmount less of cash.\r\n         *  doTransferOut reverts if anything goes wrong, since we can't be sure if side effects occurred.\r\n         */\r\n        \r\n        // Verify borrow to ledger\r\n        if (hasBorrowed[borrower] == false){\r\n            hasBorrowed[borrower] = true;\r\n            borrowAddress.push(borrower);\r\n        }\r\n        \r\n            // List borrower to the ledger\r\n        doTransferOut(borrower, borrowAmount);\r\n\r\n        /* We write the previously calculated values into storage */\r\n        accountBorrows[borrower].principal = accountBorrowsNew;\r\n        accountBorrows[borrower].interestIndex = borrowIndex;\r\n        totalBorrows = totalBorrowsNew;\r\n\r\n        /* We emit a Borrow event */\r\n        emit Borrow(borrower, borrowAmount, accountBorrowsNew, totalBorrowsNew);\r\n    }\r\n\r\n    /**\r\n     * @notice Sender repays their own borrow\r\n     * @param repayAmount The amount to repay\r\n     */\r\n    function repayBorrow(uint repayAmount) external returns (uint) {\r\n        return repayBorrowInternal(repayAmount);\r\n    }\r\n    function repayBorrowInternal(uint repayAmount) internal nonReentrant returns (uint) {\r\n        accrueInterest();\r\n        // repayBorrowFresh emits repay-borrow-specific logs on errors, so we don't need to\r\n        return repayBorrowFresh(msg.sender, msg.sender, repayAmount);\r\n    }\r\n\r\n\r\n    /**\r\n     * @notice Borrows are repaid by another user (possibly the borrower).\r\n     * @param payer the account paying off the borrow\r\n     * @param borrower the account with the debt being payed off\r\n     * @param repayAmount the amount of undelrying tokens being returned\r\n     */\r\n    function repayBorrowFresh(address payer, address borrower, uint repayAmount) internal returns (uint) {\r\n        /* Fail if repayBorrow not allowed */\r\n        comptroller.repayBorrowAllowed(address(this), borrower);\r\n\r\n        uint localvarsRepayAmount;\r\n        uint borrowerIndex;\r\n        uint localvarsAccountBorrows;\r\n        uint accountBorrowsNew;\r\n        uint totalBorrowsNew;\r\n        uint actualRepayAmount;\r\n\r\n        /* We remember the original borrowerIndex for verification purposes */\r\n        borrowerIndex = accountBorrows[borrower].interestIndex;\r\n\r\n        /* We fetch the amount the borrower owes, with accumulated interest */\r\n        localvarsAccountBorrows = borrowBalanceStored(borrower);\r\n\r\n        /* this part is modified from venus vToken contract,  */\r\n        // prevent over repay by change repayAmount to maximum repay (total borrowed amount)\r\n        if (repayAmount >= localvarsAccountBorrows) {\r\n            localvarsRepayAmount = localvarsAccountBorrows;\r\n        } else {\r\n            localvarsRepayAmount = repayAmount;\r\n        }\r\n\r\n        /////////////////////////\r\n        // EFFECTS & INTERACTIONS\r\n        // (No safe failures beyond this point)\r\n\r\n        /*\r\n         * We call doTransferIn for the payer and the repayAmount\r\n         *  Note: The lendToken must handle variations between BEP-20 and BNB underlying.\r\n         *  On success, the lendToken holds an additional repayAmount of cash.\r\n         *  doTransferIn reverts if anything goes wrong, since we can't be sure if side effects occurred.\r\n         *   it returns the amount actually transferred, in case of a fee.\r\n         */\r\n        actualRepayAmount = doTransferIn(payer, localvarsRepayAmount);\r\n\r\n        /*\r\n         * We calculate the new borrower and total borrow balances, failing on underflow:\r\n         *  accountBorrowsNew = accountBorrows - actualRepayAmount\r\n         *  totalBorrowsNew = totalBorrows - actualRepayAmount\r\n         */\r\n        accountBorrowsNew = localvarsAccountBorrows - actualRepayAmount;\r\n\r\n        totalBorrowsNew = totalBorrows - actualRepayAmount;\r\n\r\n        /* We write the previously calculated values into storage */\r\n        accountBorrows[borrower].principal = accountBorrowsNew;\r\n        accountBorrows[borrower].interestIndex = borrowIndex;\r\n        totalBorrows = totalBorrowsNew;\r\n\r\n        /* We emit a RepayBorrow event */\r\n        emit RepayBorrow(payer, borrower, actualRepayAmount, accountBorrowsNew, totalBorrowsNew);\r\n\r\n        return actualRepayAmount;\r\n    }\r\n\r\n    function liquidateBorrow(address borrower, uint repayAmount, LendTokenInterface lendTokenCollateral) external returns (uint) {\r\n        return liquidateBorrowInternal(borrower, repayAmount, lendTokenCollateral);\r\n    }\r\n    /**\r\n     * @notice The sender liquidates the borrowers collateral.\r\n     *  The collateral seized is transferred to the liquidator.\r\n     * @param borrower The borrower of this lendToken to be liquidated\r\n     * @param lendTokenCollateral The market in which to seize collateral from the borrower\r\n     * @param repayAmount The amount of the underlying borrowed asset to repay\r\n     */\r\n    function liquidateBorrowInternal(address borrower, uint repayAmount, LendTokenInterface lendTokenCollateral) internal nonReentrant returns (uint) {\r\n        //Interest must be update in this and Collateral lendToken\r\n        accrueInterest();\r\n        lendTokenCollateral.accrueInterest();\r\n\r\n        address liquidator = msg.sender;\r\n\r\n        /* Fail if liquidate not allowed */\r\n        comptroller.liquidateBorrowAllowed(address(this), address(lendTokenCollateral), borrower, repayAmount);\r\n\r\n        /* Verify lendTokenCollateral market's lastTimestamp equals current timestamp */\r\n        if (lendTokenCollateral.accrualTimestamp() != block.timestamp) {\r\n            revert (\"TIME MISMATCH\");\r\n        }\r\n\r\n        /* Fail if borrower = liquidator */\r\n        if (borrower == liquidator) {\r\n            revert (\"CAN'T SELF LIQUIDATE\");\r\n        }\r\n\r\n        /* Fail if repayAmount = 0 */\r\n        if (repayAmount == 0) {\r\n            revert (\"Amount = 0\");\r\n        }\r\n\r\n        /* Fail if repayAmount = -1 */\r\n        if (repayAmount == type(uint).max) {\r\n            revert (\"AMOUNT is MAX value\");\r\n        }\r\n\r\n        /* Fail if repayBorrow fails */\r\n        uint actualRepayAmount = repayBorrowFresh(liquidator, borrower, repayAmount);\r\n\r\n        /////////////////////////\r\n        // EFFECTS & INTERACTIONS\r\n        // (No safe failures beyond this point)\r\n\r\n        /* We calculate the number of collateral tokens that will be seized */\r\n        uint seizeTokens = comptroller.liquidateCalculateSeizeTokens(address(this), address(lendTokenCollateral), actualRepayAmount);\r\n\r\n        /* Revert if borrower collateral token balance < seizeTokens */\r\n        require(lendTokenCollateral.balanceOf(borrower) >= seizeTokens, \"LIQUIDATE_SEIZE_TOO_MUCH\");\r\n\r\n        // If this is also the collateral, run seizeInternal to avoid re-entrancy, otherwise make an external call\r\n        if (address(lendTokenCollateral) == address(this)) {\r\n            seizeInternal(address(this), liquidator, borrower, seizeTokens);\r\n        } else {\r\n            lendTokenCollateral.seize(liquidator, borrower, seizeTokens);\r\n        }\r\n\r\n\r\n        /* We emit a LiquidateBorrow event */\r\n        emit LiquidateBorrow(liquidator, borrower, actualRepayAmount, address(lendTokenCollateral), seizeTokens);\r\n\r\n        return actualRepayAmount;\r\n    }\r\n\r\n\r\n\r\n    /**\r\n     * @notice Transfers collateral tokens (this market) to the liquidator.\r\n     * @dev Will fail unless called by another lendToken during the process of liquidation.\r\n     *  Its absolutely critical to use msg.sender as the borrowed lendToken and not a parameter.\r\n     * @param liquidator The account receiving seized collateral\r\n     * @param borrower The account having collateral seized\r\n     * @param seizeTokens The number of lendTokens to seize\r\n     */\r\n    function seize(address liquidator, address borrower, uint seizeTokens) external nonReentrant{\r\n        // msg.sender pass the contract caller address to get allowance.\r\n        // only Collateral LendToken OR aurumController which are listed in market can call and got allowed.\r\n        seizeInternal(msg.sender, liquidator, borrower, seizeTokens);\r\n    }\r\n\r\n    /**\r\n     * @notice Transfers collateral tokens (this market) to the liquidator.\r\n     * @dev Called only during an in-kind liquidation, or by liquidateBorrow during the liquidation of another lendToken.\r\n     *  Its absolutely critical to use msg.sender as the seizer lendToken and not a parameter.\r\n     * @param seizerToken The contract seizing the collateral (i.e. borrowed lendToken)\r\n     * @param liquidator The account receiving seized collateral\r\n     * @param borrower The account having collateral seized\r\n     * @param seizeTokens The number of lendTokens to seize\r\n     */\r\n    function seizeInternal(address seizerToken, address liquidator, address borrower, uint seizeTokens) internal{\r\n        /* Fail if seize not allowed */\r\n        comptroller.seizeAllowed(address(this), seizerToken, liquidator, borrower);\r\n\r\n        /* Fail if borrower = liquidator */\r\n        if (borrower == liquidator) {\r\n            revert (\"CAN'T SELF LIQUIDATE\");\r\n        }\r\n\r\n        uint borrowerTokensNew;\r\n        uint liquidatorTokensNew;\r\n\r\n        /*\r\n         * We calculate the new borrower and liquidator token balances, failing on underflow/overflow:\r\n         *  borrowerTokensNew = accountTokens[borrower] - seizeTokens\r\n         *  liquidatorTokensNew = accountTokens[liquidator] + seizeTokens\r\n         */\r\n        borrowerTokensNew = accountTokens[borrower] - seizeTokens;\r\n\r\n        liquidatorTokensNew = accountTokens[liquidator] + seizeTokens;\r\n\r\n        /////////////////////////\r\n        // EFFECTS & INTERACTIONS\r\n        // (No safe failures beyond this point)\r\n\r\n        /* We write the previously calculated values into storage */\r\n        accountTokens[borrower] = borrowerTokensNew;\r\n        accountTokens[liquidator] = liquidatorTokensNew;\r\n\r\n        /* Emit a Transfer event */\r\n        emit Transfer(borrower, liquidator, seizeTokens);\r\n    }\r\n\r\n\r\n    /*** Admin Functions ***/\r\n\r\n\r\n    function _setAdmin(address newAdmin) external{\r\n        // Check caller = admin\r\n        if (msg.sender != admin) {\r\n            revert(\"UNAUTHORIZED\");\r\n        }\r\n\r\n        address oldAdmin = admin;\r\n        admin = newAdmin;\r\n\r\n        emit NewAdmin(oldAdmin, newAdmin);\r\n    }\r\n\r\n    //Collect fee to admin\r\n    function _reduceReserves(uint reduceAmount) external {\r\n        if (msg.sender != admin) {\r\n            revert(\"UNAUTHORIZED\");\r\n        }\r\n        accrueInterest();\r\n        // Fail gracefully if protocol has insufficient underlying cash\r\n        if (getCash() < reduceAmount) {\r\n            revert (\"INSUFFICIENT CASH\");\r\n        }\r\n\r\n        // Check reduceAmount  reserves[n] (totalReserves)\r\n        if (reduceAmount > totalReserves) {\r\n            revert (\"INSUFFICIENT RESERVES\");\r\n        }\r\n\r\n        // totalReserves - reduceAmount\r\n        uint totalReservesNew;\r\n\r\n        /////////////////////////\r\n        // EFFECTS & INTERACTIONS\r\n        // (No safe failures beyond this point)\r\n\r\n        totalReservesNew = totalReserves - reduceAmount;\r\n\r\n        // Store reserves[n+1] = reserves[n] - reduceAmount\r\n        totalReserves = totalReservesNew;\r\n\r\n        doTransferOut(admin, reduceAmount);\r\n\r\n        emit ReservesReduced(admin, reduceAmount, totalReservesNew);\r\n        // doTransferOut reverts if anything goes wrong, since we can't be sure if side effects occurred.\r\n    }\r\n\r\n    function _setReserveFactor(uint newReserveFactorMantissa) external {\r\n        //Only admin function\r\n        require (msg.sender == admin,\"Only admin function\");\r\n        accrueInterest();\r\n\r\n        // Check newReserveFactor  maxReserveFactor\r\n        if (newReserveFactorMantissa > reserveFactorMaxMantissa) {\r\n            revert (\"Value greater than max\");\r\n        }\r\n\r\n        uint oldReserveFactorMantissa = reserveFactorMantissa;\r\n        reserveFactorMantissa = newReserveFactorMantissa;\r\n\r\n        emit NewReserveFactor(oldReserveFactorMantissa, newReserveFactorMantissa);\r\n    }\r\n\r\n    function _setInterestRateModel(InterestRateModel newInterestRateModel) external {\r\n        require (msg.sender == admin, \"Only admin\");\r\n\r\n        accrueInterest();\r\n\r\n        // _setInterestRateModelFresh emits interest-rate-model-update-specific logs on errors, so we don't need to.\r\n        // Used to store old model for use in the event that is emitted on success\r\n        InterestRateModel oldInterestRateModel;\r\n\r\n        // Track the market's current interest rate model\r\n        oldInterestRateModel = interestRateModel;\r\n\r\n        // Ensure invoke newInterestRateModel.isInterestRateModel() returns true\r\n        require(newInterestRateModel.isInterestRateModel(), \"marker method returned false\");\r\n\r\n        // Set the interest rate model to newInterestRateModel\r\n        interestRateModel = newInterestRateModel;\r\n\r\n        // Emit NewMarketInterestRateModel(oldInterestRateModel, newInterestRateModel)\r\n        emit NewMarketInterestRateModel(oldInterestRateModel, newInterestRateModel);\r\n    }\r\n\r\n    function _setComptroller(ComptrollerInterface newComptroller) external{\r\n        require (msg.sender == admin, \"Only admin\");\r\n\r\n        ComptrollerInterface oldComptroller = comptroller;\r\n        // Ensure invoke comptroller.isComptroller() returns true\r\n        require(newComptroller.isComptroller(), \"marker method returned false\");\r\n\r\n        // Set market's comptroller to newComptroller\r\n        comptroller = newComptroller;\r\n\r\n        // Emit NewComptroller(oldComptroller, newComptroller)\r\n        emit NewComptroller(oldComptroller, newComptroller);\r\n\r\n    }\r\n\r\n    /*** Safe Token ***/\r\n\r\n    /**\r\n     * @dev Similar to EIP20 transfer, except it handles a False result from `transferFrom` and reverts in that case.\r\n     *      This will revert due to insufficient balance or insufficient allowance.\r\n     *      This function returns the actual amount received,\r\n     *      which may be less than `amount` if there is a fee attached to the transfer.\r\n     *\r\n     *      Note: This wrapper safely handles non-standard BEP-20 tokens that do not return a value.\r\n     *            See here: https://medium.com/coinmonks/missing-return-value-bug-at-least-130-tokens-affected-d67bf08521ca\r\n     */\r\n    function doTransferIn(address from, uint amount) internal returns (uint) {\r\n        EIP20NonStandardInterface token = EIP20NonStandardInterface(underlying);\r\n        uint balanceBefore = IERC20(underlying).balanceOf(address(this));\r\n        token.transferFrom(from, address(this), amount);\r\n\r\n        bool success;\r\n        assembly {\r\n            switch returndatasize()\r\n                case 0 {                       // This is a non-standard BEP-20\r\n                    success := not(0)          // set success to true\r\n                }\r\n                case 32 {                      // This is a compliant BEP-20\r\n                    returndatacopy(0, 0, 32)\r\n                    success := mload(0)        // Set `success = returndata` of external call\r\n                }\r\n                default {                      // This is an excessively non-compliant BEP-20, revert.\r\n                    revert(0, 0)\r\n                }\r\n        }\r\n        require(success, \"TOKEN_TRANSFER_IN_FAILED\");\r\n\r\n        // Calculate the amount that was *actually* transferred\r\n        uint balanceAfter = IERC20(underlying).balanceOf(address(this));\r\n        require(balanceAfter >= balanceBefore, \"TOKEN_TRANSFER_IN_OVERFLOW\");\r\n        return balanceAfter - balanceBefore;   // underflow already checked above, just subtract\r\n    }\r\n\r\n\r\n    /**\r\n     * @dev Similar to EIP20 transfer, except it handles a False success from `transfer` and returns an explanatory\r\n     *      error code rather than reverting. If caller has not called checked protocol's balance, this may revert due to\r\n     *      insufficient cash held in this contract. If caller has checked protocol's balance prior to this call, and verified\r\n     *      it is >= amount, this should not revert in normal conditions.\r\n     *\r\n     *      Note: This wrapper safely handles non-standard BEP-20 tokens that do not return a value.\r\n     *            See here: https://medium.com/coinmonks/missing-return-value-bug-at-least-130-tokens-affected-d67bf08521ca\r\n     */\r\n    function doTransferOut(address to, uint amount) internal {\r\n        EIP20NonStandardInterface token = EIP20NonStandardInterface(underlying);\r\n        token.transfer(to, amount);\r\n\r\n        bool success;\r\n        assembly {\r\n            switch returndatasize()\r\n                case 0 {                      // This is a non-standard BEP-20\r\n                    success := not(0)          // set success to true\r\n                }\r\n                case 32 {                     // This is a complaint BEP-20\r\n                    returndatacopy(0, 0, 32)\r\n                    success := mload(0)        // Set `success = returndata` of external call\r\n                }\r\n                default {                     // This is an excessively non-compliant BEP-20, revert.\r\n                    revert(0, 0)\r\n                }\r\n        }\r\n        require(success, \"TOKEN_TRANSFER_OUT_FAILED\");\r\n    }\r\n}",
  "sourcePath": "C:\\Users\\chana\\desktop\\aurumdefi\\src\\contracts\\LendToken.sol",
  "compiler": {
    "name": "solc",
    "version": "0.8.12+commit.f00d7308.Emscripten.clang"
  },
  "schemaVersion": "3.4.6",
  "updatedAt": "2022-03-21T13:09:54.552Z",
  "networkType": "ethereum",
  "devdoc": {
    "kind": "dev",
    "methods": {
      "accrueInterest()": {
        "details": "This calculates interest accrued from the last checkpointed block   up to the current block and writes new checkpoint to storage."
      },
      "allowance(address,address)": {
        "params": {
          "owner": "The address of the account which owns the tokens to be spent",
          "spender": "The address of the account which may transfer tokens"
        },
        "returns": {
          "_0": "The number of tokens allowed to be spent (-1 means infinite)"
        }
      },
      "approve(address,uint256)": {
        "details": "This will overwrite the approval amount for `spender`  and is subject to issues noted [here](https://eips.ethereum.org/EIPS/eip-20#approve)",
        "params": {
          "amount": "The number of tokens that are approved (-1 means infinite)",
          "spender": "The address of the account which may transfer tokens"
        }
      },
      "balanceOf(address)": {
        "params": {
          "owner": "The address of the account to query"
        },
        "returns": {
          "_0": "The number of tokens owned by `owner`"
        }
      },
      "balanceOfUnderlying(address)": {
        "details": "This also accrues interest in a transaction",
        "params": {
          "owner": "The address of the account to query"
        },
        "returns": {
          "_0": "The amount of underlying owned by `owner`"
        }
      },
      "borrow(uint256)": {
        "params": {
          "borrowAmount": "The amount of the underlying asset to borrow"
        }
      },
      "borrowBalanceStored(address)": {
        "params": {
          "account": "The address whose balance should be calculated"
        },
        "returns": {
          "_0": "The calculated balance"
        }
      },
      "borrowRatePerSeconds()": {
        "returns": {
          "_0": "The borrow interest rate per block, scaled by 1e18"
        }
      },
      "exchangeRateCurrent()": {
        "returns": {
          "_0": "Calculated exchange rate scaled by 1e18"
        }
      },
      "exchangeRateStored()": {
        "details": "This function does not accrue interest before calculating the exchange rate",
        "returns": {
          "_0": "Calculated exchange rate scaled by 1e18"
        }
      },
      "getAccountSnapshot(address)": {
        "details": "This is used by comptroller to more efficiently perform liquidity checks.",
        "params": {
          "account": "Address of the account to snapshot"
        },
        "returns": {
          "_0": "(possible error, token balance, borrow balance, exchange rate mantissa)"
        }
      },
      "getCash()": {
        "returns": {
          "_0": "The quantity of underlying asset owned by this contract"
        }
      },
      "mint(uint256)": {
        "details": "Accrues interest whether or not the operation succeeds, unless reverted",
        "params": {
          "mintAmount": "The amount of the underlying asset to supply"
        },
        "returns": {
          "_0": "(uint, uint) An error code (0=success, otherwise a failure, see ErrorReporter.sol), and the actual mint amount."
        }
      },
      "redeem(uint256)": {
        "details": "Accrues interest whether or not the operation succeeds, unless reverted",
        "params": {
          "redeemTokens": "The number of lendTokens to redeem into underlying"
        }
      },
      "redeemUnderlying(uint256)": {
        "details": "Accrues interest whether or not the operation succeeds, unless reverted",
        "params": {
          "redeemAmount": "The amount of underlying to receive from redeeming lendTokens"
        }
      },
      "repayBorrow(uint256)": {
        "params": {
          "repayAmount": "The amount to repay"
        }
      },
      "seize(address,address,uint256)": {
        "details": "Will fail unless called by another lendToken during the process of liquidation.  Its absolutely critical to use msg.sender as the borrowed lendToken and not a parameter.",
        "params": {
          "borrower": "The account having collateral seized",
          "liquidator": "The account receiving seized collateral",
          "seizeTokens": "The number of lendTokens to seize"
        }
      },
      "supplyRatePerSeconds()": {
        "returns": {
          "_0": "The supply interest rate per block, scaled by 1e18"
        }
      },
      "transfer(address,uint256)": {
        "params": {
          "amount": "The number of tokens to transfer",
          "dst": "The address of the destination account"
        }
      },
      "transferFrom(address,address,uint256)": {
        "params": {
          "amount": "The number of tokens to transfer",
          "dst": "The address of the destination account",
          "src": "The address of the source account"
        }
      }
    },
    "version": 1
  },
  "userdoc": {
    "events": {
      "Approval(address,address,uint256)": {
        "notice": "EIP20 Approval event"
      },
      "Transfer(address,address,uint256)": {
        "notice": "EIP20 Transfer event"
      }
    },
    "kind": "user",
    "methods": {
      "accrueInterest()": {
        "notice": "Applies accrued interest to total borrows and reserves"
      },
      "allowance(address,address)": {
        "notice": "Get the current allowance from `owner` for `spender`"
      },
      "approve(address,uint256)": {
        "notice": "Approve `spender` to transfer up to `amount` from `src`"
      },
      "balanceOf(address)": {
        "notice": "Get the token balance of the `owner`"
      },
      "balanceOfUnderlying(address)": {
        "notice": "Get the underlying balance of the `owner`"
      },
      "borrow(uint256)": {
        "notice": "Sender borrows assets from the protocol to their own address"
      },
      "borrowBalanceStored(address)": {
        "notice": "Return the borrow balance of account based on stored data"
      },
      "borrowRatePerSeconds()": {
        "notice": "Returns the current per-block borrow interest rate for this LendToken"
      },
      "exchangeRateCurrent()": {
        "notice": "Accrue interest then return the up-to-date exchange rate"
      },
      "exchangeRateStored()": {
        "notice": "Calculates the exchange rate from the underlying to the lendToken"
      },
      "getAccountSnapshot(address)": {
        "notice": "Get a snapshot of the account's balances, and the cached exchange rate"
      },
      "getCash()": {
        "notice": "Get cash balance of this lendToken in the underlying asset"
      },
      "mint(uint256)": {
        "notice": "Sender supplies assets into the market and receives lendTokens in exchange"
      },
      "redeem(uint256)": {
        "notice": "Sender redeems lendTokens in exchange for the underlying asset"
      },
      "redeemUnderlying(uint256)": {
        "notice": "Sender redeems lendTokens in exchange for a specified amount of underlying asset"
      },
      "repayBorrow(uint256)": {
        "notice": "Sender repays their own borrow"
      },
      "seize(address,address,uint256)": {
        "notice": "Transfers collateral tokens (this market) to the liquidator."
      },
      "supplyRatePerSeconds()": {
        "notice": "Returns the current per-block supply interest rate for this lendToken"
      },
      "transfer(address,uint256)": {
        "notice": "Transfer `amount` tokens from `msg.sender` to `dst`"
      },
      "transferFrom(address,address,uint256)": {
        "notice": "Transfer `amount` tokens from `src` to `dst`"
      }
    },
    "version": 1
  }
}