{
  "contractName": "MultisigAurumOracle",
  "abi": [
    {
      "inputs": [
        {
          "internalType": "address",
          "name": "oracle_",
          "type": "address"
        },
        {
          "internalType": "address[]",
          "name": "owners_",
          "type": "address[]"
        },
        {
          "internalType": "uint8",
          "name": "required_",
          "type": "uint8"
        }
      ],
      "stateMutability": "nonpayable",
      "type": "constructor"
    },
    {
      "anonymous": false,
      "inputs": [
        {
          "indexed": true,
          "internalType": "uint256",
          "name": "txId",
          "type": "uint256"
        },
        {
          "indexed": true,
          "internalType": "address",
          "name": "approveBy",
          "type": "address"
        }
      ],
      "name": "Approve",
      "type": "event"
    },
    {
      "anonymous": false,
      "inputs": [
        {
          "indexed": true,
          "internalType": "uint256",
          "name": "txId",
          "type": "uint256"
        }
      ],
      "name": "Execute",
      "type": "event"
    },
    {
      "anonymous": false,
      "inputs": [
        {
          "indexed": true,
          "internalType": "uint256",
          "name": "txId",
          "type": "uint256"
        },
        {
          "indexed": true,
          "internalType": "address",
          "name": "revokeBy",
          "type": "address"
        }
      ],
      "name": "Reject",
      "type": "event"
    },
    {
      "anonymous": false,
      "inputs": [
        {
          "indexed": true,
          "internalType": "uint256",
          "name": "txId",
          "type": "uint256"
        }
      ],
      "name": "Submit",
      "type": "event"
    },
    {
      "inputs": [
        {
          "internalType": "uint256",
          "name": "",
          "type": "uint256"
        },
        {
          "internalType": "address",
          "name": "",
          "type": "address"
        }
      ],
      "name": "approved",
      "outputs": [
        {
          "internalType": "bool",
          "name": "",
          "type": "bool"
        }
      ],
      "stateMutability": "view",
      "type": "function"
    },
    {
      "inputs": [
        {
          "internalType": "address",
          "name": "",
          "type": "address"
        }
      ],
      "name": "isOwner",
      "outputs": [
        {
          "internalType": "bool",
          "name": "",
          "type": "bool"
        }
      ],
      "stateMutability": "view",
      "type": "function"
    },
    {
      "inputs": [],
      "name": "oracle",
      "outputs": [
        {
          "internalType": "contract IAurumOracleCentralized",
          "name": "",
          "type": "address"
        }
      ],
      "stateMutability": "view",
      "type": "function"
    },
    {
      "inputs": [
        {
          "internalType": "uint256",
          "name": "",
          "type": "uint256"
        }
      ],
      "name": "owners",
      "outputs": [
        {
          "internalType": "address",
          "name": "",
          "type": "address"
        }
      ],
      "stateMutability": "view",
      "type": "function"
    },
    {
      "inputs": [],
      "name": "required",
      "outputs": [
        {
          "internalType": "uint8",
          "name": "",
          "type": "uint8"
        }
      ],
      "stateMutability": "view",
      "type": "function"
    },
    {
      "inputs": [
        {
          "internalType": "uint256",
          "name": "",
          "type": "uint256"
        }
      ],
      "name": "transactions",
      "outputs": [
        {
          "internalType": "address",
          "name": "token",
          "type": "address"
        },
        {
          "internalType": "uint128",
          "name": "price",
          "type": "uint128"
        },
        {
          "internalType": "uint8",
          "name": "callswitch",
          "type": "uint8"
        },
        {
          "internalType": "bool",
          "name": "executed",
          "type": "bool"
        },
        {
          "internalType": "uint256",
          "name": "expireTimestamp",
          "type": "uint256"
        }
      ],
      "stateMutability": "view",
      "type": "function"
    },
    {
      "inputs": [
        {
          "internalType": "uint256",
          "name": "",
          "type": "uint256"
        },
        {
          "internalType": "address",
          "name": "",
          "type": "address"
        }
      ],
      "name": "voted",
      "outputs": [
        {
          "internalType": "bool",
          "name": "",
          "type": "bool"
        }
      ],
      "stateMutability": "view",
      "type": "function"
    },
    {
      "inputs": [
        {
          "internalType": "address",
          "name": "token_",
          "type": "address"
        },
        {
          "internalType": "uint128",
          "name": "price_",
          "type": "uint128"
        },
        {
          "internalType": "uint8",
          "name": "callswitch_",
          "type": "uint8"
        }
      ],
      "name": "submit",
      "outputs": [],
      "stateMutability": "nonpayable",
      "type": "function"
    },
    {
      "inputs": [
        {
          "internalType": "uint256",
          "name": "txId_",
          "type": "uint256"
        }
      ],
      "name": "approve",
      "outputs": [],
      "stateMutability": "nonpayable",
      "type": "function"
    },
    {
      "inputs": [
        {
          "internalType": "uint256",
          "name": "txId_",
          "type": "uint256"
        }
      ],
      "name": "reject",
      "outputs": [],
      "stateMutability": "nonpayable",
      "type": "function"
    },
    {
      "inputs": [
        {
          "internalType": "uint256",
          "name": "txId_",
          "type": "uint256"
        }
      ],
      "name": "getApprovalCount",
      "outputs": [
        {
          "internalType": "uint256",
          "name": "",
          "type": "uint256"
        }
      ],
      "stateMutability": "view",
      "type": "function"
    },
    {
      "inputs": [
        {
          "internalType": "uint256",
          "name": "txId_",
          "type": "uint256"
        }
      ],
      "name": "execute",
      "outputs": [],
      "stateMutability": "nonpayable",
      "type": "function"
    }
  ],
  "bytecode": "0x60806040523480156200001157600080fd5b50604051620023423803806200234283398181016040528101906200003791906200056e565b60008251116200007e576040517f08c379a000000000000000000000000000000000000000000000000000000000815260040162000075906200064a565b60405180910390fd5b60008160ff1611801562000096575081518160ff1611155b620000d8576040517f08c379a0000000000000000000000000000000000000000000000000000000008152600401620000cf90620006bc565b60405180910390fd5b82600160006101000a81548173ffffffffffffffffffffffffffffffffffffffff021916908373ffffffffffffffffffffffffffffffffffffffff16021790555060005b82518110156200031d5760008382815181106200013e576200013d620006de565b5b60200260200101519050600073ffffffffffffffffffffffffffffffffffffffff168173ffffffffffffffffffffffffffffffffffffffff161415620001bb576040517f08c379a0000000000000000000000000000000000000000000000000000000008152600401620001b2906200075d565b60405180910390fd5b600360008273ffffffffffffffffffffffffffffffffffffffff1673ffffffffffffffffffffffffffffffffffffffff16815260200190815260200160002060009054906101000a900460ff16156200024b576040517f08c379a00000000000000000000000000000000000000000000000000000000081526004016200024290620007cf565b60405180910390fd5b6001600360008373ffffffffffffffffffffffffffffffffffffffff1673ffffffffffffffffffffffffffffffffffffffff16815260200190815260200160002060006101000a81548160ff0219169083151502179055506002819080600181540180825580915050600190039060005260206000200160009091909190916101000a81548173ffffffffffffffffffffffffffffffffffffffff021916908373ffffffffffffffffffffffffffffffffffffffff16021790555050808062000314906200082a565b9150506200011c565b5080600460006101000a81548160ff021916908360ff16021790555050505062000878565b6000604051905090565b600080fd5b600080fd5b600073ffffffffffffffffffffffffffffffffffffffff82169050919050565b6000620003838262000356565b9050919050565b620003958162000376565b8114620003a157600080fd5b50565b600081519050620003b5816200038a565b92915050565b600080fd5b6000601f19601f8301169050919050565b7f4e487b7100000000000000000000000000000000000000000000000000000000600052604160045260246000fd5b6200040b82620003c0565b810181811067ffffffffffffffff821117156200042d576200042c620003d1565b5b80604052505050565b60006200044262000342565b905062000450828262000400565b919050565b600067ffffffffffffffff821115620004735762000472620003d1565b5b602082029050602081019050919050565b600080fd5b6000620004a06200049a8462000455565b62000436565b90508083825260208201905060208402830185811115620004c657620004c562000484565b5b835b81811015620004f35780620004de8882620003a4565b845260208401935050602081019050620004c8565b5050509392505050565b600082601f830112620005155762000514620003bb565b5b81516200052784826020860162000489565b91505092915050565b600060ff82169050919050565b620005488162000530565b81146200055457600080fd5b50565b60008151905062000568816200053d565b92915050565b6000806000606084860312156200058a57620005896200034c565b5b60006200059a86828701620003a4565b935050602084015167ffffffffffffffff811115620005be57620005bd62000351565b5b620005cc86828701620004fd565b9250506040620005df8682870162000557565b9150509250925092565b600082825260208201905092915050565b7f6f776e65727320696e76616c6964000000000000000000000000000000000000600082015250565b600062000632600e83620005e9565b91506200063f82620005fa565b602082019050919050565b60006020820190508181036000830152620006658162000623565b9050919050565b7f726571756972656420696e76616c696400000000000000000000000000000000600082015250565b6000620006a4601083620005e9565b9150620006b1826200066c565b602082019050919050565b60006020820190508181036000830152620006d78162000695565b9050919050565b7f4e487b7100000000000000000000000000000000000000000000000000000000600052603260045260246000fd5b7f6f776e6572206973206164647265737320300000000000000000000000000000600082015250565b600062000745601283620005e9565b915062000752826200070d565b602082019050919050565b60006020820190508181036000830152620007788162000736565b9050919050565b7f6f776e6572206973206e6f7420756e6971756500000000000000000000000000600082015250565b6000620007b7601383620005e9565b9150620007c4826200077f565b602082019050919050565b60006020820190508181036000830152620007ea81620007a8565b9050919050565b7f4e487b7100000000000000000000000000000000000000000000000000000000600052601160045260246000fd5b6000819050919050565b6000620008378262000820565b91507fffffffffffffffffffffffffffffffffffffffffffffffffffffffffffffffff8214156200086d576200086c620007f1565b5b600182019050919050565b611aba80620008886000396000f3fe608060405234801561001057600080fd5b50600436106100b45760003560e01c8063b759f95411610071578063b759f954146101cb578063b8adaa11146101e7578063ba7e7cab14610203578063c7fb34b614610233578063dc8452cd1461024f578063fe0d94c11461026d576100b4565b8063025e7c27146100b95780632f54bf6e146100e95780635277b4ae146101195780637dc0d1d0146101495780638253951a146101675780639ace38c214610197575b600080fd5b6100d360048036038101906100ce919061131a565b610289565b6040516100e09190611388565b60405180910390f35b61010360048036038101906100fe91906113cf565b6102c8565b6040516101109190611417565b60405180910390f35b610133600480360381019061012e9190611432565b6102e8565b6040516101409190611417565b60405180910390f35b610151610317565b60405161015e91906114d1565b60405180910390f35b610181600480360381019061017c9190611432565b61033d565b60405161018e9190611417565b60405180910390f35b6101b160048036038101906101ac919061131a565b61036c565b6040516101c2959493929190611542565b60405180910390f35b6101e560048036038101906101e0919061131a565b610408565b005b61020160048036038101906101fc919061131a565b610775565b005b61021d6004803603810190610218919061131a565b610ae2565b60405161022a9190611595565b60405180910390f35b61024d60048036038101906102489190611608565b610bc3565b005b610257610df8565b604051610264919061165b565b60405180910390f35b6102876004803603810190610282919061131a565b610e0b565b005b6002818154811061029957600080fd5b906000526020600020016000915054906101000a900473ffffffffffffffffffffffffffffffffffffffff1681565b60036020528060005260406000206000915054906101000a900460ff1681565b60066020528160005260406000206020528060005260406000206000915091509054906101000a900460ff1681565b600160009054906101000a900473ffffffffffffffffffffffffffffffffffffffff1681565b60056020528160005260406000206020528060005260406000206000915091509054906101000a900460ff1681565b6000818154811061037c57600080fd5b90600052602060002090600302016000915090508060000160009054906101000a900473ffffffffffffffffffffffffffffffffffffffff16908060010160009054906101000a90046fffffffffffffffffffffffffffffffff16908060010160109054906101000a900460ff16908060010160119054906101000a900460ff16908060020154905085565b600360003373ffffffffffffffffffffffffffffffffffffffff1673ffffffffffffffffffffffffffffffffffffffff16815260200190815260200160002060009054906101000a900460ff16610494576040517f08c379a000000000000000000000000000000000000000000000000000000000815260040161048b906116d3565b60405180910390fd5b8060008054905081106104dc576040517f08c379a00000000000000000000000000000000000000000000000000000000081526004016104d39061173f565b60405180910390fd5b816006600082815260200190815260200160002060003373ffffffffffffffffffffffffffffffffffffffff1673ffffffffffffffffffffffffffffffffffffffff16815260200190815260200160002060009054906101000a900460ff161561057b576040517f08c379a0000000000000000000000000000000000000000000000000000000008152600401610572906117ab565b60405180910390fd5b82600081815481106105905761058f6117cb565b5b906000526020600020906003020160010160119054906101000a900460ff16156105ef576040517f08c379a00000000000000000000000000000000000000000000000000000000081526004016105e690611846565b60405180910390fd5b834260008281548110610605576106046117cb565b5b9060005260206000209060030201600201541015610658576040517f08c379a000000000000000000000000000000000000000000000000000000000815260040161064f906118b2565b60405180910390fd5b60016005600087815260200190815260200160002060003373ffffffffffffffffffffffffffffffffffffffff1673ffffffffffffffffffffffffffffffffffffffff16815260200190815260200160002060006101000a81548160ff02191690831515021790555060016006600087815260200190815260200160002060003373ffffffffffffffffffffffffffffffffffffffff1673ffffffffffffffffffffffffffffffffffffffff16815260200190815260200160002060006101000a81548160ff0219169083151502179055503373ffffffffffffffffffffffffffffffffffffffff16857f47ad3e4b0f4bdbe3ac08708bbc45053d2ff616911b39e65563fd9bd78190964560405160405180910390a35050505050565b600360003373ffffffffffffffffffffffffffffffffffffffff1673ffffffffffffffffffffffffffffffffffffffff16815260200190815260200160002060009054906101000a900460ff16610801576040517f08c379a00000000000000000000000000000000000000000000000000000000081526004016107f8906116d3565b60405180910390fd5b806000805490508110610849576040517f08c379a00000000000000000000000000000000000000000000000000000000081526004016108409061173f565b60405180910390fd5b816006600082815260200190815260200160002060003373ffffffffffffffffffffffffffffffffffffffff1673ffffffffffffffffffffffffffffffffffffffff16815260200190815260200160002060009054906101000a900460ff16156108e8576040517f08c379a00000000000000000000000000000000000000000000000000000000081526004016108df906117ab565b60405180910390fd5b82600081815481106108fd576108fc6117cb565b5b906000526020600020906003020160010160119054906101000a900460ff161561095c576040517f08c379a000000000000000000000000000000000000000000000000000000000815260040161095390611846565b60405180910390fd5b834260008281548110610972576109716117cb565b5b90600052602060002090600302016002015410156109c5576040517f08c379a00000000000000000000000000000000000000000000000000000000081526004016109bc906118b2565b60405180910390fd5b60006005600087815260200190815260200160002060003373ffffffffffffffffffffffffffffffffffffffff1673ffffffffffffffffffffffffffffffffffffffff16815260200190815260200160002060006101000a81548160ff02191690831515021790555060016006600087815260200190815260200160002060003373ffffffffffffffffffffffffffffffffffffffff1673ffffffffffffffffffffffffffffffffffffffff16815260200190815260200160002060006101000a81548160ff0219169083151502179055503373ffffffffffffffffffffffffffffffffffffffff16857f46990193a9a78111f65f212c735737818b2632d7fd365109873b1e8f3346997360405160405180910390a35050505050565b60008060005b600280549050811015610bb95760056000858152602001908152602001600020600060028381548110610b1e57610b1d6117cb565b5b9060005260206000200160009054906101000a900473ffffffffffffffffffffffffffffffffffffffff1673ffffffffffffffffffffffffffffffffffffffff1673ffffffffffffffffffffffffffffffffffffffff16815260200190815260200160002060009054906101000a900460ff1615610ba657600182610ba39190611901565b91505b8080610bb190611957565b915050610ae8565b5080915050919050565b600360003373ffffffffffffffffffffffffffffffffffffffff1673ffffffffffffffffffffffffffffffffffffffff16815260200190815260200160002060009054906101000a900460ff16610c4f576040517f08c379a0000000000000000000000000000000000000000000000000000000008152600401610c46906116d3565b60405180910390fd5b600061025842610c5f9190611901565b905060006040518060a001604052808673ffffffffffffffffffffffffffffffffffffffff168152602001856fffffffffffffffffffffffffffffffff1681526020018460ff16815260200160001515815260200183815250908060018154018082558091505060019003906000526020600020906003020160009091909190915060008201518160000160006101000a81548173ffffffffffffffffffffffffffffffffffffffff021916908373ffffffffffffffffffffffffffffffffffffffff16021790555060208201518160010160006101000a8154816fffffffffffffffffffffffffffffffff02191690836fffffffffffffffffffffffffffffffff16021790555060408201518160010160106101000a81548160ff021916908360ff16021790555060608201518160010160116101000a81548160ff0219169083151502179055506080820151816002015550506001600080549050610dc691906119a0565b7f08324b3d745b914e3abd4ffbfead91e3b78391a98c173202129215ab933adfbe60405160405180910390a250505050565b600460009054906101000a900460ff1681565b806000805490508110610e53576040517f08c379a0000000000000000000000000000000000000000000000000000000008152600401610e4a9061173f565b60405180910390fd5b8160008181548110610e6857610e676117cb565b5b906000526020600020906003020160010160119054906101000a900460ff1615610ec7576040517f08c379a0000000000000000000000000000000000000000000000000000000008152600401610ebe90611846565b60405180910390fd5b824260008281548110610edd57610edc6117cb565b5b9060005260206000209060030201600201541015610f30576040517f08c379a0000000000000000000000000000000000000000000000000000000008152600401610f27906118b2565b60405180910390fd5b600460009054906101000a900460ff1660ff16610f4c85610ae2565b1015610f8d576040517f08c379a0000000000000000000000000000000000000000000000000000000008152600401610f8490611a20565b60405180910390fd5b6000808581548110610fa257610fa16117cb565b5b9060005260206000209060030201905060018160010160116101000a81548160ff02191690831515021790555060008160010160109054906101000a900460ff16905060008160ff1614156110f857600160009054906101000a900473ffffffffffffffffffffffffffffffffffffffff1673ffffffffffffffffffffffffffffffffffffffff166371232b1b8360000160009054906101000a900473ffffffffffffffffffffffffffffffffffffffff168460010160009054906101000a90046fffffffffffffffffffffffffffffffff166040518363ffffffff1660e01b8152600401611092929190611a40565b600060405180830381600087803b1580156110ac57600080fd5b505af11580156110c0573d6000803e3d6000fd5b50505050857fddb556f1d2c1ec821e910b019d3685b229db152a0ecd517ca7e24b8bd713928960405160405180910390a250506112d9565b60018160ff1614156111e957600160009054906101000a900473ffffffffffffffffffffffffffffffffffffffff1673ffffffffffffffffffffffffffffffffffffffff16636b7f0bd78360000160009054906101000a900473ffffffffffffffffffffffffffffffffffffffff166040518263ffffffff1660e01b81526004016111839190611388565b600060405180830381600087803b15801561119d57600080fd5b505af11580156111b1573d6000803e3d6000fd5b50505050857fddb556f1d2c1ec821e910b019d3685b229db152a0ecd517ca7e24b8bd713928960405160405180910390a250506112d9565b60028160ff1614156112d657600160009054906101000a900473ffffffffffffffffffffffffffffffffffffffff1673ffffffffffffffffffffffffffffffffffffffff16634b1386c98360010160009054906101000a90046fffffffffffffffffffffffffffffffff166040518263ffffffff1660e01b81526004016112709190611a69565b600060405180830381600087803b15801561128a57600080fd5b505af115801561129e573d6000803e3d6000fd5b50505050857fddb556f1d2c1ec821e910b019d3685b229db152a0ecd517ca7e24b8bd713928960405160405180910390a250506112d9565b50505b50505050565b600080fd5b6000819050919050565b6112f7816112e4565b811461130257600080fd5b50565b600081359050611314816112ee565b92915050565b6000602082840312156113305761132f6112df565b5b600061133e84828501611305565b91505092915050565b600073ffffffffffffffffffffffffffffffffffffffff82169050919050565b600061137282611347565b9050919050565b61138281611367565b82525050565b600060208201905061139d6000830184611379565b92915050565b6113ac81611367565b81146113b757600080fd5b50565b6000813590506113c9816113a3565b92915050565b6000602082840312156113e5576113e46112df565b5b60006113f3848285016113ba565b91505092915050565b60008115159050919050565b611411816113fc565b82525050565b600060208201905061142c6000830184611408565b92915050565b60008060408385031215611449576114486112df565b5b600061145785828601611305565b9250506020611468858286016113ba565b9150509250929050565b6000819050919050565b600061149761149261148d84611347565b611472565b611347565b9050919050565b60006114a98261147c565b9050919050565b60006114bb8261149e565b9050919050565b6114cb816114b0565b82525050565b60006020820190506114e660008301846114c2565b92915050565b60006fffffffffffffffffffffffffffffffff82169050919050565b611511816114ec565b82525050565b600060ff82169050919050565b61152d81611517565b82525050565b61153c816112e4565b82525050565b600060a0820190506115576000830188611379565b6115646020830187611508565b6115716040830186611524565b61157e6060830185611408565b61158b6080830184611533565b9695505050505050565b60006020820190506115aa6000830184611533565b92915050565b6115b9816114ec565b81146115c457600080fd5b50565b6000813590506115d6816115b0565b92915050565b6115e581611517565b81146115f057600080fd5b50565b600081359050611602816115dc565b92915050565b600080600060608486031215611621576116206112df565b5b600061162f868287016113ba565b9350506020611640868287016115c7565b9250506040611651868287016115f3565b9150509250925092565b60006020820190506116706000830184611524565b92915050565b600082825260208201905092915050565b7f6f6e6c79206f776e657200000000000000000000000000000000000000000000600082015250565b60006116bd600a83611676565b91506116c882611687565b602082019050919050565b600060208201905081810360008301526116ec816116b0565b9050919050565b7f747820646f6573206e6f74206578697374000000000000000000000000000000600082015250565b6000611729601183611676565b9150611734826116f3565b602082019050919050565b600060208201905081810360008301526117588161171c565b9050919050565b7f747820616c726561647920617070726f76656400000000000000000000000000600082015250565b6000611795601383611676565b91506117a08261175f565b602082019050919050565b600060208201905081810360008301526117c481611788565b9050919050565b7f4e487b7100000000000000000000000000000000000000000000000000000000600052603260045260246000fd5b7f747820616c726561647920657865637574656400000000000000000000000000600082015250565b6000611830601383611676565b915061183b826117fa565b602082019050919050565b6000602082019050818103600083015261185f81611823565b9050919050565b7f7478206578706972656400000000000000000000000000000000000000000000600082015250565b600061189c600a83611676565b91506118a782611866565b602082019050919050565b600060208201905081810360008301526118cb8161188f565b9050919050565b7f4e487b7100000000000000000000000000000000000000000000000000000000600052601160045260246000fd5b600061190c826112e4565b9150611917836112e4565b9250827fffffffffffffffffffffffffffffffffffffffffffffffffffffffffffffffff0382111561194c5761194b6118d2565b5b828201905092915050565b6000611962826112e4565b91507fffffffffffffffffffffffffffffffffffffffffffffffffffffffffffffffff821415611995576119946118d2565b5b600182019050919050565b60006119ab826112e4565b91506119b6836112e4565b9250828210156119c9576119c86118d2565b5b828203905092915050565b7f617070726f76616c73203c207265717569726564000000000000000000000000600082015250565b6000611a0a601483611676565b9150611a15826119d4565b602082019050919050565b60006020820190508181036000830152611a39816119fd565b9050919050565b6000604082019050611a556000830185611379565b611a626020830184611508565b9392505050565b6000602082019050611a7e6000830184611508565b9291505056fea2646970667358221220f73033fe6fa213f0c9430aa43f7cbaf070f480aab346d1293225410a117c297364736f6c634300080c0033",
  "immutableReferences": {},
  "source": "// SPDX-License-Identifier: MIT\r\npragma solidity 0.8.12;\r\n\r\nimport \"./interface/IAurumOracleCentralized.sol\";\r\n\r\n\r\ncontract MultisigAurumOracle {\r\n\r\n    event Submit(uint indexed txId);\r\n    event Approve(uint indexed txId, address indexed approveBy);\r\n    event Reject(uint indexed txId, address indexed revokeBy);\r\n    event Execute(uint indexed txId);\r\n\r\n    struct Transaction {\r\n        address token;\r\n        uint128 price;\r\n        uint8 callswitch; // this will trigger different function, 0 = updateAssetPrice, 1 = updateAssetPriceFromWindow, 2 = updateGoldPrice\r\n        bool executed;\r\n        uint expireTimestamp; // set expire time, in case the system fetch multiple submit, first submit can be execute others will expire before reach the period time\r\n    }\r\n    Transaction[] public transactions;\r\n\r\n    IAurumOracleCentralized public oracle;\r\n    address[] public owners;\r\n    mapping(address => bool) public isOwner;\r\n    uint8 public required; // Amount of approve wallet to execute transaction\r\n    mapping (uint => mapping(address => bool)) public approved; //[transaction][owner] => boolean\r\n    mapping (uint => mapping(address => bool)) public voted; //[transaction][owner] => boolean\r\n\r\n\r\n    constructor (address oracle_, address[] memory owners_, uint8 required_) {\r\n        require(owners_.length > 0, \"owners invalid\");\r\n        require(required_ > 0 && required_ <= owners_.length, \"required invalid\");\r\n\r\n        oracle = IAurumOracleCentralized(oracle_);\r\n        \r\n        for(uint i; i< owners_.length; i++){\r\n            address owner = owners_[i];\r\n\r\n            require (owner != address(0), \"owner is address 0\");\r\n            require (!isOwner[owner], \"owner is not unique\");\r\n\r\n            isOwner[owner] = true;\r\n            owners.push(owner);\r\n        }\r\n\r\n        required = required_;\r\n    }\r\n\r\n    modifier onlyOwner {\r\n        require(isOwner[msg.sender], \"only owner\");\r\n        _;\r\n    }\r\n\r\n    modifier txExists(uint txId_){\r\n        require (txId_ < transactions.length, \"tx does not exist\");\r\n        _;\r\n    }\r\n    modifier notVoted(uint txId_){\r\n        require (!voted[txId_][msg.sender], \"tx already approved\");\r\n        _;\r\n    }\r\n    modifier notExecuted(uint txId_){\r\n        require (!transactions[txId_].executed, \"tx already executed\");\r\n        _;\r\n    }\r\n\r\n    modifier notExpire(uint txId_){\r\n        require (transactions[txId_].expireTimestamp >= block.timestamp, \"tx expired\");\r\n        _;\r\n    }\r\n\r\n    function submit(address token_, uint128 price_, uint8 callswitch_) external onlyOwner{\r\n        uint expire = block.timestamp + 10 minutes; // set expire time of the transaction = 10 minutes\r\n        //Create new transaction waiting others to confirm.\r\n        transactions.push(\r\n            Transaction({\r\n                token: token_,\r\n                price: price_,\r\n                callswitch: callswitch_,\r\n                executed: false,\r\n                expireTimestamp: expire\r\n            })\r\n        );\r\n        emit Submit(transactions.length -1); //emit the recent transaction.\r\n    }\r\n\r\n    //Approve function is to vote approve to the transaction\r\n    function approve(uint txId_) external onlyOwner txExists(txId_) notVoted(txId_) notExecuted(txId_) notExpire(txId_) {\r\n        approved[txId_][msg.sender] = true; //Vote approve\r\n        voted[txId_][msg.sender] = true;\r\n        emit Approve(txId_, msg.sender);\r\n    }\r\n\r\n    //Reject function is to vote reject to the transaction\r\n    function reject(uint txId_) external onlyOwner txExists(txId_) notVoted(txId_) notExecuted(txId_) notExpire(txId_) {\r\n        approved[txId_][msg.sender] = false; //Vote reject\r\n        voted[txId_][msg.sender] = true;\r\n        emit Reject(txId_, msg.sender);\r\n    }\r\n\r\n    //This will count approve\r\n    function getApprovalCount(uint txId_) public view returns (uint){\r\n        uint count;\r\n        for(uint i; i< owners.length; i++){\r\n            if (approved[txId_][owners[i]]){\r\n                count += 1;\r\n            }\r\n        }\r\n        return count;\r\n    }\r\n\r\n    function execute(uint txId_) external txExists(txId_) notExecuted(txId_) notExpire(txId_) {\r\n        require(getApprovalCount(txId_) >= required, \"approvals < required\"); //Whenever the signer approve reach 'required' the tx. can be executed by anyone\r\n        Transaction storage transaction = transactions[txId_];\r\n        transaction.executed = true; // This will also prevent reentrance\r\n\r\n\r\n        uint8 callswitch = transaction.callswitch; //gas optimizer\r\n\r\n        if(callswitch == 0) {\r\n            oracle.updateAssetPrice(transaction.token, transaction.price);\r\n            emit Execute(txId_);\r\n            return; //Short circuit out\r\n        }\r\n        if(callswitch == 1) {\r\n            oracle.updateAssetPriceFromWindow(transaction.token);\r\n            emit Execute(txId_);\r\n            return; //Short circuit out\r\n        }\r\n        if(callswitch == 2) {\r\n            oracle.updateGoldPrice(transaction.price);\r\n            emit Execute(txId_);\r\n            return; //Short circuit out\r\n        }\r\n    }\r\n}",
  "sourcePath": "C:\\Users\\chana\\desktop\\aurumdefi\\src\\contracts\\MultisigAurumOracle.sol",
  "compiler": {
    "name": "solc",
    "version": "0.8.12+commit.f00d7308.Emscripten.clang"
  },
  "schemaVersion": "3.4.6",
  "updatedAt": "2022-04-28T14:57:09.039Z",
  "devdoc": {
    "kind": "dev",
    "methods": {},
    "version": 1
  },
  "userdoc": {
    "kind": "user",
    "methods": {},
    "version": 1
  }
}