{
  "contractName": "StakingARM",
  "abi": [
    {
      "inputs": [
        {
          "internalType": "contract IERC20",
          "name": "importARMToken",
          "type": "address"
        },
        {
          "internalType": "contract IERC20",
          "name": "importRewardToken",
          "type": "address"
        }
      ],
      "stateMutability": "nonpayable",
      "type": "constructor"
    },
    {
      "inputs": [],
      "name": "TransferFail",
      "type": "error"
    },
    {
      "anonymous": false,
      "inputs": [
        {
          "indexed": false,
          "internalType": "address",
          "name": "_claimer",
          "type": "address"
        },
        {
          "indexed": false,
          "internalType": "uint256",
          "name": "_amount",
          "type": "uint256"
        }
      ],
      "name": "ClaimReward",
      "type": "event"
    },
    {
      "anonymous": false,
      "inputs": [
        {
          "indexed": false,
          "internalType": "address",
          "name": "_withdrawer",
          "type": "address"
        },
        {
          "indexed": false,
          "internalType": "uint256",
          "name": "_amount",
          "type": "uint256"
        }
      ],
      "name": "EmergencyWithdraw",
      "type": "event"
    },
    {
      "anonymous": false,
      "inputs": [
        {
          "indexed": false,
          "internalType": "address",
          "name": "OldOwner",
          "type": "address"
        },
        {
          "indexed": false,
          "internalType": "address",
          "name": "NewOwner",
          "type": "address"
        }
      ],
      "name": "SetNewOwner",
      "type": "event"
    },
    {
      "anonymous": false,
      "inputs": [
        {
          "indexed": false,
          "internalType": "uint256",
          "name": "OldDuration",
          "type": "uint256"
        },
        {
          "indexed": false,
          "internalType": "uint256",
          "name": "NewDuration",
          "type": "uint256"
        }
      ],
      "name": "SetRewardSpendingDuration",
      "type": "event"
    },
    {
      "anonymous": false,
      "inputs": [
        {
          "indexed": false,
          "internalType": "address",
          "name": "_staker",
          "type": "address"
        },
        {
          "indexed": false,
          "internalType": "uint256",
          "name": "_amount",
          "type": "uint256"
        }
      ],
      "name": "Stake",
      "type": "event"
    },
    {
      "anonymous": false,
      "inputs": [
        {
          "indexed": false,
          "internalType": "address",
          "name": "_unstaker",
          "type": "address"
        },
        {
          "indexed": false,
          "internalType": "uint256",
          "name": "_amount",
          "type": "uint256"
        }
      ],
      "name": "Unstake",
      "type": "event"
    },
    {
      "inputs": [],
      "name": "armToken",
      "outputs": [
        {
          "internalType": "contract IERC20",
          "name": "",
          "type": "address"
        }
      ],
      "stateMutability": "view",
      "type": "function"
    },
    {
      "inputs": [],
      "name": "rewardToken",
      "outputs": [
        {
          "internalType": "contract IERC20",
          "name": "",
          "type": "address"
        }
      ],
      "stateMutability": "view",
      "type": "function"
    },
    {
      "inputs": [
        {
          "internalType": "address",
          "name": "_staker",
          "type": "address"
        }
      ],
      "name": "manualGetStakingBalance",
      "outputs": [
        {
          "internalType": "uint256",
          "name": "",
          "type": "uint256"
        }
      ],
      "stateMutability": "view",
      "type": "function"
    },
    {
      "inputs": [
        {
          "internalType": "address",
          "name": "_staker",
          "type": "address"
        }
      ],
      "name": "manualGetRewardBalance",
      "outputs": [
        {
          "internalType": "uint256",
          "name": "",
          "type": "uint256"
        }
      ],
      "stateMutability": "view",
      "type": "function"
    },
    {
      "inputs": [],
      "name": "getOwner",
      "outputs": [
        {
          "internalType": "address",
          "name": "",
          "type": "address"
        }
      ],
      "stateMutability": "view",
      "type": "function"
    },
    {
      "inputs": [],
      "name": "getAccRewardPerShare",
      "outputs": [
        {
          "internalType": "uint256",
          "name": "",
          "type": "uint256"
        }
      ],
      "stateMutability": "view",
      "type": "function"
    },
    {
      "inputs": [],
      "name": "getLastRewardTimestamp",
      "outputs": [
        {
          "internalType": "uint256",
          "name": "",
          "type": "uint256"
        }
      ],
      "stateMutability": "view",
      "type": "function"
    },
    {
      "inputs": [
        {
          "internalType": "address",
          "name": "user",
          "type": "address"
        }
      ],
      "name": "getStakingBalance",
      "outputs": [
        {
          "internalType": "uint256",
          "name": "",
          "type": "uint256"
        }
      ],
      "stateMutability": "view",
      "type": "function"
    },
    {
      "inputs": [],
      "name": "getVaultBalance",
      "outputs": [
        {
          "internalType": "uint256",
          "name": "",
          "type": "uint256"
        }
      ],
      "stateMutability": "view",
      "type": "function"
    },
    {
      "inputs": [],
      "name": "getTotalStakedARM",
      "outputs": [
        {
          "internalType": "uint256",
          "name": "",
          "type": "uint256"
        }
      ],
      "stateMutability": "view",
      "type": "function"
    },
    {
      "inputs": [],
      "name": "getRewardRemaining",
      "outputs": [
        {
          "internalType": "uint256",
          "name": "",
          "type": "uint256"
        }
      ],
      "stateMutability": "view",
      "type": "function"
    },
    {
      "inputs": [],
      "name": "getRewardSpendingDuration",
      "outputs": [
        {
          "internalType": "uint256",
          "name": "",
          "type": "uint256"
        }
      ],
      "stateMutability": "view",
      "type": "function"
    },
    {
      "inputs": [
        {
          "internalType": "address",
          "name": "user",
          "type": "address"
        }
      ],
      "name": "getRewardBalanceOf",
      "outputs": [
        {
          "internalType": "uint256",
          "name": "",
          "type": "uint256"
        }
      ],
      "stateMutability": "view",
      "type": "function"
    },
    {
      "inputs": [],
      "name": "manualUpdateRewardBlock",
      "outputs": [],
      "stateMutability": "nonpayable",
      "type": "function"
    },
    {
      "inputs": [
        {
          "internalType": "uint256",
          "name": "_amount",
          "type": "uint256"
        }
      ],
      "name": "stakeARM",
      "outputs": [],
      "stateMutability": "nonpayable",
      "type": "function"
    },
    {
      "inputs": [],
      "name": "manualClaimReward",
      "outputs": [],
      "stateMutability": "nonpayable",
      "type": "function"
    },
    {
      "inputs": [
        {
          "internalType": "uint256",
          "name": "_amount",
          "type": "uint256"
        }
      ],
      "name": "unstakeARM",
      "outputs": [],
      "stateMutability": "nonpayable",
      "type": "function"
    },
    {
      "inputs": [
        {
          "internalType": "uint256",
          "name": "hour",
          "type": "uint256"
        }
      ],
      "name": "_setRewardDurationSpending",
      "outputs": [],
      "stateMutability": "nonpayable",
      "type": "function"
    },
    {
      "inputs": [
        {
          "internalType": "address",
          "name": "newOwner",
          "type": "address"
        }
      ],
      "name": "_transferOwnership",
      "outputs": [],
      "stateMutability": "nonpayable",
      "type": "function"
    },
    {
      "inputs": [],
      "name": "emergencyWithdraw",
      "outputs": [],
      "stateMutability": "nonpayable",
      "type": "function"
    }
  ],
  "bytecode": "0x60806040523480156200001157600080fd5b50604051620027f9380380620027f98339818101604052810190620000379190620001ab565b81600960006101000a81548173ffffffffffffffffffffffffffffffffffffffff021916908373ffffffffffffffffffffffffffffffffffffffff16021790555080600a60006101000a81548173ffffffffffffffffffffffffffffffffffffffff021916908373ffffffffffffffffffffffffffffffffffffffff160217905550336000806101000a81548173ffffffffffffffffffffffffffffffffffffffff021916908373ffffffffffffffffffffffffffffffffffffffff16021790555062278d00600781905550426008819055506000600a60146101000a81548160ff0219169083151502179055505050620001f2565b600080fd5b600073ffffffffffffffffffffffffffffffffffffffff82169050919050565b60006200015f8262000132565b9050919050565b6000620001738262000152565b9050919050565b620001858162000166565b81146200019157600080fd5b50565b600081519050620001a5816200017a565b92915050565b60008060408385031215620001c557620001c46200012d565b5b6000620001d58582860162000194565b9250506020620001e88582860162000194565b9150509250929050565b6125f780620002026000396000f3fe608060405234801561001057600080fd5b506004361061012c5760003560e01c8063893d20e8116100ad578063d29d44ee11610071578063d29d44ee1461030f578063db2e21bc1461032b578063ed12e8ef14610335578063f6e2304c14610353578063f7c618c11461036f5761012c565b8063893d20e8146102695780639a3854bc14610287578063a60c3b60146102a5578063b04ef9c2146102d5578063cef2b884146103055761012c565b806354c98d8e116100f457806354c98d8e146101b15780635858972f146101cf5780636c07d9fe146101ff5780637b1145ef1461021d5780637d8f3a45146102395761012c565b80630e4cf158146101315780631a0ae0001461014f57806321d69c811461016b5780633be8a6391461018957806344ae6c2114610193575b600080fd5b61013961038d565b6040516101469190611e10565b60405180910390f35b61016960048036038101906101649190611e5c565b610397565b005b61017361049d565b6040516101809190611e10565b60405180910390f35b610191610540565b005b61019b61080b565b6040516101a89190611e10565b60405180910390f35b6101b961082c565b6040516101c69190611f08565b60405180910390f35b6101e960048036038101906101e49190611f61565b610852565b6040516101f69190611e10565b60405180910390f35b61020761089b565b6040516102149190611e10565b60405180910390f35b61023760048036038101906102329190611e5c565b6108a5565b005b610253600480360381019061024e9190611f61565b610f29565b6040516102609190611e10565b60405180910390f35b610271611002565b60405161027e9190611f9d565b60405180910390f35b61028f61102b565b60405161029c9190611e10565b60405180910390f35b6102bf60048036038101906102ba9190611f61565b611035565b6040516102cc9190611e10565b60405180910390f35b6102ef60048036038101906102ea9190611f61565b61107e565b6040516102fc9190611e10565b60405180910390f35b61030d6110c7565b005b61032960048036038101906103249190611f61565b611121565b005b61033361121c565b005b61033d61146f565b60405161034a9190611e10565b60405180910390f35b61036d60048036038101906103689190611e5c565b611512565b005b610377611a87565b6040516103849190611f08565b60405180910390f35b6000600854905090565b60008054906101000a900473ffffffffffffffffffffffffffffffffffffffff1673ffffffffffffffffffffffffffffffffffffffff163373ffffffffffffffffffffffffffffffffffffffff16146103ef57600080fd5b6103f7611aad565b600060075490506000603c808461040e9190611fe7565b6104189190611fe7565b9050806007819055508061042a61049d565b670de0b6b3a764000061043b61080b565b6104459190611fe7565b61044f9190612070565b6104599190612070565b6006819055507fa4c3d636d806acaf62da657a8864b7d25ccdd3b6c8ba0e85be92853fa28cbb9782826040516104909291906120a1565b60405180910390a1505050565b6000600960009054906101000a900473ffffffffffffffffffffffffffffffffffffffff1673ffffffffffffffffffffffffffffffffffffffff166370a08231306040518263ffffffff1660e01b81526004016104fa9190611f9d565b602060405180830381865afa158015610517573d6000803e3d6000fd5b505050506040513d601f19601f8201168201806040525081019061053b91906120df565b905090565b600a60149054906101000a900460ff161561055a57600080fd5b6001600a60146101000a81548160ff02191690831515021790555061057d611aad565b600260003373ffffffffffffffffffffffffffffffffffffffff1673ffffffffffffffffffffffffffffffffffffffff168152602001908152602001600020546105c561080b565b1015610606576040517f08c379a00000000000000000000000000000000000000000000000000000000081526004016105fd90612169565b60405180910390fd5b6000600260003373ffffffffffffffffffffffffffffffffffffffff1673ffffffffffffffffffffffffffffffffffffffff1681526020019081526020016000205411156107ee576000600260003373ffffffffffffffffffffffffffffffffffffffff1673ffffffffffffffffffffffffffffffffffffffff1681526020019081526020016000205490506000600260003373ffffffffffffffffffffffffffffffffffffffff1673ffffffffffffffffffffffffffffffffffffffff168152602001908152602001600020819055506000600a60009054906101000a900473ffffffffffffffffffffffffffffffffffffffff1673ffffffffffffffffffffffffffffffffffffffff1663a9059cbb33846040518363ffffffff1660e01b8152600401610736929190612189565b6020604051808303816000875af1158015610755573d6000803e3d6000fd5b505050506040513d601f19601f8201168201806040525081019061077991906121ea565b9050806107b2576040517f9c9e641c00000000000000000000000000000000000000000000000000000000815260040160405180910390fd5b7fba8de60c3403ec381d1d484652ea1980e3c3e56359195c92525bff4ce47ad98e33836040516107e3929190612189565b60405180910390a150505b6000600a60146101000a81548160ff021916908315150217905550565b6000610815611cd1565b61081d61146f565b6108279190612217565b905090565b600960009054906101000a900473ffffffffffffffffffffffffffffffffffffffff1681565b6000600260008373ffffffffffffffffffffffffffffffffffffffff1673ffffffffffffffffffffffffffffffffffffffff168152602001908152602001600020549050919050565b6000600654905090565b600a60149054906101000a900460ff16156108bf57600080fd5b6001600a60146101000a81548160ff0219169083151502179055506000811161091d576040517f08c379a0000000000000000000000000000000000000000000000000000000008152600401610914906122bd565b60405180910390fd5b80600960009054906101000a900473ffffffffffffffffffffffffffffffffffffffff1673ffffffffffffffffffffffffffffffffffffffff166370a08231336040518263ffffffff1660e01b81526004016109799190611f9d565b602060405180830381865afa158015610996573d6000803e3d6000fd5b505050506040513d601f19601f820116820180604052508101906109ba91906120df565b10156109fb576040517f08c379a00000000000000000000000000000000000000000000000000000000081526004016109f29061234f565b60405180910390fd5b610a03611aad565b600080600260003373ffffffffffffffffffffffffffffffffffffffff1673ffffffffffffffffffffffffffffffffffffffff168152602001908152602001600020541115610be9576000600260003373ffffffffffffffffffffffffffffffffffffffff1673ffffffffffffffffffffffffffffffffffffffff1681526020019081526020016000205490506000600260003373ffffffffffffffffffffffffffffffffffffffff1673ffffffffffffffffffffffffffffffffffffffff16815260200190815260200160002081905550600a60009054906101000a900473ffffffffffffffffffffffffffffffffffffffff1673ffffffffffffffffffffffffffffffffffffffff1663a9059cbb33836040518363ffffffff1660e01b8152600401610b32929190612189565b6020604051808303816000875af1158015610b51573d6000803e3d6000fd5b505050506040513d601f19601f82011682018060405250810190610b7591906121ea565b915081610bae576040517f9c9e641c00000000000000000000000000000000000000000000000000000000815260040160405180910390fd5b7fba8de60c3403ec381d1d484652ea1980e3c3e56359195c92525bff4ce47ad98e3382604051610bdf929190612189565b60405180910390a1505b600960009054906101000a900473ffffffffffffffffffffffffffffffffffffffff1673ffffffffffffffffffffffffffffffffffffffff166323b872dd3330856040518463ffffffff1660e01b8152600401610c489392919061236f565b6020604051808303816000875af1158015610c67573d6000803e3d6000fd5b505050506040513d601f19601f82011682018060405250810190610c8b91906121ea565b905080610cc4576040517f9c9e641c00000000000000000000000000000000000000000000000000000000815260040160405180910390fd5b81600160003373ffffffffffffffffffffffffffffffffffffffff1673ffffffffffffffffffffffffffffffffffffffff1681526020019081526020016000206000828254610d1391906123a6565b92505081905550600360003373ffffffffffffffffffffffffffffffffffffffff1673ffffffffffffffffffffffffffffffffffffffff16815260200190815260200160002060009054906101000a900460ff16610e27576005339080600181540180825580915050600190039060005260206000200160009091909190916101000a81548173ffffffffffffffffffffffffffffffffffffffff021916908373ffffffffffffffffffffffffffffffffffffffff1602179055506001600360003373ffffffffffffffffffffffffffffffffffffffff1673ffffffffffffffffffffffffffffffffffffffff16815260200190815260200160002060006101000a81548160ff0219169083151502179055505b6001600460003373ffffffffffffffffffffffffffffffffffffffff1673ffffffffffffffffffffffffffffffffffffffff16815260200190815260200160002060006101000a81548160ff0219169083151502179055506000610e8961080b565b90506000610e9561049d565b9050600060075482670de0b6b3a764000085610eb19190611fe7565b610ebb9190612070565b610ec59190612070565b9050806006819055507febedb8b3c678666e7f36970bc8f57abf6d8fa2e828c0da91ea5b75bf68ed101a3386604051610eff929190612189565b60405180910390a1505050506000600a60146101000a81548160ff02191690831515021790555050565b60008060085442610f3a9190612217565b9050600754811115610f4c5760075490505b6000600160008573ffffffffffffffffffffffffffffffffffffffff1673ffffffffffffffffffffffffffffffffffffffff1681526020019081526020016000205460065483610f9c9190611fe7565b610fa69190611fe7565b9050600081600260008773ffffffffffffffffffffffffffffffffffffffff1673ffffffffffffffffffffffffffffffffffffffff16815260200190815260200160002054610ff591906123a6565b9050809350505050919050565b60008060009054906101000a900473ffffffffffffffffffffffffffffffffffffffff16905090565b6000600754905090565b6000600160008373ffffffffffffffffffffffffffffffffffffffff1673ffffffffffffffffffffffffffffffffffffffff168152602001908152602001600020549050919050565b6000600160008373ffffffffffffffffffffffffffffffffffffffff1673ffffffffffffffffffffffffffffffffffffffff168152602001908152602001600020549050919050565b600a60149054906101000a900460ff16156110e157600080fd5b6001600a60146101000a81548160ff021916908315150217905550611104611aad565b6000600a60146101000a81548160ff021916908315150217905550565b60008054906101000a900473ffffffffffffffffffffffffffffffffffffffff1673ffffffffffffffffffffffffffffffffffffffff163373ffffffffffffffffffffffffffffffffffffffff161461117957600080fd5b60008060009054906101000a900473ffffffffffffffffffffffffffffffffffffffff169050816000806101000a81548173ffffffffffffffffffffffffffffffffffffffff021916908373ffffffffffffffffffffffffffffffffffffffff1602179055507f7924376024f9d929bdada88af55c8759a72551342cca51509f3c3794e70fc6e081836040516112109291906123fc565b60405180910390a15050565b600a60149054906101000a900460ff161561123657600080fd5b6001600a60146101000a81548160ff0219169083151502179055506000600160003373ffffffffffffffffffffffffffffffffffffffff1673ffffffffffffffffffffffffffffffffffffffff1681526020019081526020016000205490506000600460003373ffffffffffffffffffffffffffffffffffffffff1673ffffffffffffffffffffffffffffffffffffffff16815260200190815260200160002060006101000a81548160ff0219169083151502179055506000600260003373ffffffffffffffffffffffffffffffffffffffff1673ffffffffffffffffffffffffffffffffffffffff168152602001908152602001600020819055506000600160003373ffffffffffffffffffffffffffffffffffffffff1673ffffffffffffffffffffffffffffffffffffffff16815260200190815260200160002081905550600960009054906101000a900473ffffffffffffffffffffffffffffffffffffffff1673ffffffffffffffffffffffffffffffffffffffff1663a9059cbb33836040518363ffffffff1660e01b81526004016113d4929190612189565b6020604051808303816000875af11580156113f3573d6000803e3d6000fd5b505050506040513d601f19601f8201168201806040525081019061141791906121ea565b507f5fafa99d0643513820be26656b45130b01e1c03062e1266bf36f88cbd3bd96953382604051611449929190612189565b60405180910390a1506000600a60146101000a81548160ff021916908315150217905550565b6000600a60009054906101000a900473ffffffffffffffffffffffffffffffffffffffff1673ffffffffffffffffffffffffffffffffffffffff166370a08231306040518263ffffffff1660e01b81526004016114cc9190611f9d565b602060405180830381865afa1580156114e9573d6000803e3d6000fd5b505050506040513d601f19601f8201168201806040525081019061150d91906120df565b905090565b600a60149054906101000a900460ff161561152c57600080fd5b6001600a60146101000a81548160ff0219169083151502179055506000811161158a576040517f08c379a000000000000000000000000000000000000000000000000000000000815260040161158190612497565b60405180910390fd5b80600160003373ffffffffffffffffffffffffffffffffffffffff1673ffffffffffffffffffffffffffffffffffffffff16815260200190815260200160002054101561160c576040517f08c379a000000000000000000000000000000000000000000000000000000000815260040161160390612529565b60405180910390fd5b611614611aad565b600080600260003373ffffffffffffffffffffffffffffffffffffffff1673ffffffffffffffffffffffffffffffffffffffff16815260200190815260200160002054111561183357600a60009054906101000a900473ffffffffffffffffffffffffffffffffffffffff1673ffffffffffffffffffffffffffffffffffffffff1663a9059cbb33600260003373ffffffffffffffffffffffffffffffffffffffff1673ffffffffffffffffffffffffffffffffffffffff168152602001908152602001600020546040518363ffffffff1660e01b81526004016116f9929190612189565b6020604051808303816000875af1158015611718573d6000803e3d6000fd5b505050506040513d601f19601f8201168201806040525081019061173c91906121ea565b905080611775576040517f9c9e641c00000000000000000000000000000000000000000000000000000000815260040160405180910390fd5b7fba8de60c3403ec381d1d484652ea1980e3c3e56359195c92525bff4ce47ad98e33600260003373ffffffffffffffffffffffffffffffffffffffff1673ffffffffffffffffffffffffffffffffffffffff168152602001908152602001600020546040516117e5929190612189565b60405180910390a16000600260003373ffffffffffffffffffffffffffffffffffffffff1673ffffffffffffffffffffffffffffffffffffffff168152602001908152602001600020819055505b600960009054906101000a900473ffffffffffffffffffffffffffffffffffffffff1673ffffffffffffffffffffffffffffffffffffffff1663a9059cbb33846040518363ffffffff1660e01b8152600401611890929190612189565b6020604051808303816000875af11580156118af573d6000803e3d6000fd5b505050506040513d601f19601f820116820180604052508101906118d391906121ea565b905081600160003373ffffffffffffffffffffffffffffffffffffffff1673ffffffffffffffffffffffffffffffffffffffff16815260200190815260200160002060008282546119249190612217565b925050819055506000600160003373ffffffffffffffffffffffffffffffffffffffff1673ffffffffffffffffffffffffffffffffffffffff1681526020019081526020016000205414156119cc576000600460003373ffffffffffffffffffffffffffffffffffffffff1673ffffffffffffffffffffffffffffffffffffffff16815260200190815260200160002060006101000a81548160ff0219169083151502179055505b60006119d661080b565b905060006119e261049d565b905060008114156119fa576000600681905550611a2d565b60075481670de0b6b3a764000084611a129190611fe7565b611a1c9190612070565b611a269190612070565b6006819055505b7f85082129d87b2fe11527cb1b3b7a520aeb5aa6913f88a3d8757fe40d1db02fdd3385604051611a5e929190612189565b60405180910390a15050506000600a60146101000a81548160ff02191690831515021790555050565b600a60009054906101000a900473ffffffffffffffffffffffffffffffffffffffff1681565b6008544211611abb57611ccf565b6000611ac561049d565b90506000811415611add574260088190555050611ccf565b6000611ae761080b565b90506000811415611af9575050611ccf565b600060085442611b099190612217565b9050600754811115611b1b5760075490505b60008060006005805480602002602001604051908101604052809291908181526020018280548015611ba257602002820191906000526020600020905b8160009054906101000a900473ffffffffffffffffffffffffffffffffffffffff1673ffffffffffffffffffffffffffffffffffffffff1681526020019060010190808311611b58575b50505050509050600092505b8051831015611cc157670de0b6b3a76400008460065460016000858881518110611bdb57611bda612549565b5b602002602001015173ffffffffffffffffffffffffffffffffffffffff1673ffffffffffffffffffffffffffffffffffffffff16815260200190815260200160002054611c289190611fe7565b611c329190611fe7565b611c3c9190612070565b91508160026000838681518110611c5657611c55612549565b5b602002602001015173ffffffffffffffffffffffffffffffffffffffff1673ffffffffffffffffffffffffffffffffffffffff1681526020019081526020016000206000828254611ca791906123a6565b925050819055508280611cb990612578565b935050611bae565b426008819055505050505050505b565b6000806005805480602002602001604051908101604052809291908181526020018280548015611d5657602002820191906000526020600020905b8160009054906101000a900473ffffffffffffffffffffffffffffffffffffffff1673ffffffffffffffffffffffffffffffffffffffff1681526020019060010190808311611d0c575b50505050509050600081519050600080600090505b82811015611ded5760026000858381518110611d8a57611d89612549565b5b602002602001015173ffffffffffffffffffffffffffffffffffffffff1673ffffffffffffffffffffffffffffffffffffffff1681526020019081526020016000205482611dd891906123a6565b91508080611de590612578565b915050611d6b565b5080935050505090565b6000819050919050565b611e0a81611df7565b82525050565b6000602082019050611e256000830184611e01565b92915050565b600080fd5b611e3981611df7565b8114611e4457600080fd5b50565b600081359050611e5681611e30565b92915050565b600060208284031215611e7257611e71611e2b565b5b6000611e8084828501611e47565b91505092915050565b600073ffffffffffffffffffffffffffffffffffffffff82169050919050565b6000819050919050565b6000611ece611ec9611ec484611e89565b611ea9565b611e89565b9050919050565b6000611ee082611eb3565b9050919050565b6000611ef282611ed5565b9050919050565b611f0281611ee7565b82525050565b6000602082019050611f1d6000830184611ef9565b92915050565b6000611f2e82611e89565b9050919050565b611f3e81611f23565b8114611f4957600080fd5b50565b600081359050611f5b81611f35565b92915050565b600060208284031215611f7757611f76611e2b565b5b6000611f8584828501611f4c565b91505092915050565b611f9781611f23565b82525050565b6000602082019050611fb26000830184611f8e565b92915050565b7f4e487b7100000000000000000000000000000000000000000000000000000000600052601160045260246000fd5b6000611ff282611df7565b9150611ffd83611df7565b9250817fffffffffffffffffffffffffffffffffffffffffffffffffffffffffffffffff048311821515161561203657612035611fb8565b5b828202905092915050565b7f4e487b7100000000000000000000000000000000000000000000000000000000600052601260045260246000fd5b600061207b82611df7565b915061208683611df7565b92508261209657612095612041565b5b828204905092915050565b60006040820190506120b66000830185611e01565b6120c36020830184611e01565b9392505050565b6000815190506120d981611e30565b92915050565b6000602082840312156120f5576120f4611e2b565b5b6000612103848285016120ca565b91505092915050565b600082825260208201905092915050565b7f4e6f7420656e6f7567682072657761726420696e20706f6f6c2e000000000000600082015250565b6000612153601a8361210c565b915061215e8261211d565b602082019050919050565b6000602082019050818103600083015261218281612146565b9050919050565b600060408201905061219e6000830185611f8e565b6121ab6020830184611e01565b9392505050565b60008115159050919050565b6121c7816121b2565b81146121d257600080fd5b50565b6000815190506121e4816121be565b92915050565b600060208284031215612200576121ff611e2b565b5b600061220e848285016121d5565b91505092915050565b600061222282611df7565b915061222d83611df7565b9250828210156122405761223f611fb8565b5b828203905092915050565b7f5374616b696e6720616d6f756e74206d7573742067726561746572207468616e60008201527f207a65726f000000000000000000000000000000000000000000000000000000602082015250565b60006122a760258361210c565b91506122b28261224b565b604082019050919050565b600060208201905081810360008301526122d68161229a565b9050919050565b7f4e6f7420656e6f7567682041524d20746f6b656e20746f206265206465706f7360008201527f697465642e000000000000000000000000000000000000000000000000000000602082015250565b600061233960258361210c565b9150612344826122dd565b604082019050919050565b600060208201905081810360008301526123688161232c565b9050919050565b60006060820190506123846000830186611f8e565b6123916020830185611f8e565b61239e6040830184611e01565b949350505050565b60006123b182611df7565b91506123bc83611df7565b9250827fffffffffffffffffffffffffffffffffffffffffffffffffffffffffffffffff038211156123f1576123f0611fb8565b5b828201905092915050565b60006040820190506124116000830185611f8e565b61241e6020830184611f8e565b9392505050565b7f556e7374616b696e6720616d6f756e74206d757374206772656174657220746860008201527f616e207a65726f00000000000000000000000000000000000000000000000000602082015250565b600061248160278361210c565b915061248c82612425565b604082019050919050565b600060208201905081810360008301526124b081612474565b9050919050565b7f4e6f7420656e6f7567682041524d20746f6b656e20746f20626520776974686460008201527f72617765642e0000000000000000000000000000000000000000000000000000602082015250565b600061251360268361210c565b915061251e826124b7565b604082019050919050565b6000602082019050818103600083015261254281612506565b9050919050565b7f4e487b7100000000000000000000000000000000000000000000000000000000600052603260045260246000fd5b600061258382611df7565b91507fffffffffffffffffffffffffffffffffffffffffffffffffffffffffffffffff8214156125b6576125b5611fb8565b5b60018201905091905056fea26469706673582212207cbf314bd077d1dbf1f3b507a9f29266e909778114facaabea5725011d74ce8064736f6c634300080c0033",
  "immutableReferences": {},
  "source": "// SPDX-License-Identifier: MIT\r\npragma solidity 0.8.12;\r\n\r\nimport \"./interface/StakingARMInterface.sol\";\r\n\r\ncontract StakingARM is StakingARMInterface{\r\n\r\n    //Owner address\r\n    address owner;    \r\n\r\n    //User variables\r\n    mapping(address => uint256) stakingBalance;   //User's staked ARM token\r\n    mapping(address => uint256) rewardBalanceOf;  //User's distributed reward from vault which 'NOT YET' claim\r\n    mapping(address => bool) hasStaked; //this variable check if the user used to stake in the vault to prevent duplication of 'stakers[]'.\r\n    mapping(address => bool) isStaking; //Staking status of individual address, FALSE if balance = 0\r\n    address[] stakers; //Address of stakers for rewarding reason\r\n    \r\n    //Vault variables manipulation\r\n    uint256 accRewardPerShare; // spending reward RATE per share :: calculate from TotalRewardRemaining / TotalStakingToken / rewardSpendingDuration\r\n    uint256 rewardSpendingDuration; // Duration in days that the reward will be distributed\r\n    // RewardSpendingDuration is the CONSTANT that indicate the RATE of the current reward will be distributed if no-one is updating the vault\r\n    // Everytime that users stake/unstake/claimReward, the spending rate (accRewardPerShare) will be re-calculated\r\n    uint256 lastRewardTimestamp; //Index of current updated rewardblock (blocktime)\r\n\r\n    //This code is modified from Masterchef contract\r\n        // Whenever a user stake or unstake to the vault.\r\n        //   1. The 'rewardBalance' (and `lastRewardTimestamp`) gets updated.\r\n        //   2. User receives the 'rewardBalanceOf' sent to his/her address. (rewardBalanceOf then set to 0)\r\n        //   3. User's `stakingBalance` gets updated.\r\n        //   4. User's `rewardBalanceOf` gets updated.\r\n\r\n\r\n    IERC20 public armToken;     // ARM token  OR  LP-token to be staked\r\n    IERC20 public rewardToken;  // BUSD token\r\n\r\n\r\n\r\n    //Set object of ARM to armToken and object of BUSD to rewardToken when the contract is deployed.\r\n    constructor(IERC20 importARMToken, IERC20 importRewardToken){\r\n        armToken = importARMToken; // This can be LP token when deploying contract\r\n        rewardToken = importRewardToken;\r\n        owner = msg.sender;\r\n        rewardSpendingDuration = 30 days; // set default is 30 days\r\n        lastRewardTimestamp = block.timestamp;\r\n        locked = false;\r\n    }\r\n\r\n    error TransferFail();\r\n\r\n    event Stake(address _staker, uint _amount);\r\n    event Unstake(address _unstaker, uint _amount);\r\n    event ClaimReward(address _claimer, uint _amount);\r\n    event EmergencyWithdraw(address _withdrawer, uint _amount);\r\n    event SetRewardSpendingDuration(uint OldDuration, uint NewDuration);\r\n    event SetNewOwner(address OldOwner, address NewOwner);\r\n\r\n    modifier onlyOwner {\r\n      require(msg.sender == owner);\r\n      _;\r\n    }\r\n\r\n    bool internal locked;\r\n    modifier reentrancyGuard {\r\n        require(!locked);\r\n        locked = true; // lock the re-entrancy before contract execution\r\n        _;\r\n        locked = false; // unlock when finish\r\n    }\r\n\r\n    //--------------------------------------\r\n    //------Reading parameters function-----\r\n    //--------------------------------------\r\n\r\n    //Get the ARM staking for each requested address\r\n    function manualGetStakingBalance(address _staker) view public returns(uint256) {\r\n        return stakingBalance[_staker];\r\n    }\r\n\r\n    //Get the reward balance of each requested address (this included the pending update reward)\r\n    function manualGetRewardBalance(address _staker) view public returns(uint256) {\r\n      uint256 deltaTime = block.timestamp - lastRewardTimestamp;\r\n        if(deltaTime > rewardSpendingDuration){\r\n          deltaTime = rewardSpendingDuration;\r\n        }\r\n        uint256 pendingReward = deltaTime * accRewardPerShare * stakingBalance[_staker];\r\n        uint256 totalReward = rewardBalanceOf[_staker] + pendingReward;\r\n        return totalReward;\r\n    }\r\n\r\n    //Get the owner address\r\n    function getOwner() view public returns(address){\r\n        return owner;\r\n    }\r\n    function getAccRewardPerShare() view public returns(uint) {\r\n        return accRewardPerShare;\r\n    }\r\n    function getLastRewardTimestamp() view public returns(uint){\r\n        return lastRewardTimestamp;\r\n    }\r\n    function getStakingBalance(address user) view public returns(uint){\r\n        return stakingBalance[user];\r\n    }\r\n    //Get the BUSD balance in vault\r\n    function getVaultBalance() public view returns(uint256){\r\n        return rewardToken.balanceOf(address(this));\r\n    }\r\n    //Get the ARM balance in vault\r\n    function getTotalStakedARM() public view returns(uint256){\r\n        return armToken.balanceOf(address(this));\r\n    }\r\n    //Get Total reward pending to be claim\r\n    function getTotalRewardPending() internal view returns(uint256){\r\n        address[] memory varsStaker = stakers;  //get stakers to local memory vars to minimalize gas spend in for loop\r\n        uint256 numberUser = varsStaker.length;\r\n        uint256 totalreward;\r\n        for(uint i = 0; i< numberUser; i++){\r\n          totalreward += rewardBalanceOf[varsStaker[i]];\r\n        }\r\n        return totalreward;\r\n    }\r\n    //Get remaining reward\r\n    function getRewardRemaining() public view returns(uint256)  {\r\n        return (getVaultBalance() - getTotalRewardPending());\r\n    }\r\n    //Reward spending duration return in blocktime\r\n    function getRewardSpendingDuration() public view returns(uint256) {\r\n      return rewardSpendingDuration;\r\n    }\r\n\r\n    function getRewardBalanceOf(address user) public view returns(uint256) {\r\n      return rewardBalanceOf[user];\r\n    }\r\n    //-------------------------------------------------\r\n    //--------------Action function--------------------\r\n    //-------------------------------------------------\r\n\r\n\r\n    function updateRewardBlock() internal{\r\n        //If the lastRewardTimestamp is updated.  No need for update\r\n        if(block.timestamp <= lastRewardTimestamp){\r\n          return;\r\n        }\r\n        uint256 totalStakedARM = getTotalStakedARM(); //The ARM balance in vault contract\r\n        \r\n        //Check if this is the first staker then start the block reward here\r\n        if(totalStakedARM == 0){\r\n          lastRewardTimestamp = block.timestamp;\r\n          return;\r\n        }\r\n        uint256 remainingReward = getRewardRemaining();\r\n        \r\n        //Check if rewardPool is empty\r\n        if(remainingReward == 0){\r\n          return;\r\n        }\r\n\r\n        //Check if the reward block not update for long time (more than the rewardSpendingDuration)\r\n        //then deltaTime to be calculate should be equal to MAX (rewardSpendingDuration)\r\n        uint256 deltaTime = block.timestamp - lastRewardTimestamp;\r\n        if(deltaTime > rewardSpendingDuration){\r\n          deltaTime = rewardSpendingDuration;\r\n        }\r\n        uint i;\r\n        uint gainReward;\r\n        address[] memory varsStaker = stakers;  // gas optimization\r\n        for (i=0 ; i< varsStaker.length ; i++){\r\n          //gainReward is  1e18 :: e18*e18*uint / 1e18\r\n          gainReward = stakingBalance[varsStaker[i]] * accRewardPerShare * deltaTime / 1e18;\r\n          rewardBalanceOf[varsStaker[i]] += gainReward;\r\n        }\r\n        lastRewardTimestamp = block.timestamp;\r\n    }\r\n\r\n    function manualUpdateRewardBlock() external reentrancyGuard{\r\n        updateRewardBlock();\r\n    }\r\n    \r\n\r\n    function stakeARM(uint _amount) external reentrancyGuard {\r\n        //Check the amount and balance of staker\r\n        require(_amount > 0, \"Staking amount must greater than zero\");\r\n        require(armToken.balanceOf(msg.sender)>=_amount, \"Not enough ARM token to be deposited.\");\r\n        //1. update the reward vault to get lastRewardTimestamp\r\n        //2. claim the pending reward\r\n        //3. stake the ARM token\r\n        //4. update accRewardPerShare = totalRemainingBalance / totalStakingBalance / rewardSpendingDuration\r\n\r\n        updateRewardBlock();\r\n        bool success;\r\n        if(rewardBalanceOf[msg.sender]>0){\r\n          uint256 toBePaid = rewardBalanceOf[msg.sender];\r\n          rewardBalanceOf[msg.sender]=0;\r\n          success = rewardToken.transfer(msg.sender, toBePaid);\r\n          if(!success){\r\n              revert TransferFail();\r\n          }\r\n          emit ClaimReward(msg.sender, toBePaid);\r\n        }\r\n\r\n        //Transfer ARM to contract address then update balance\r\n        success = armToken.transferFrom(msg.sender,address(this),_amount);\r\n        if(!success){\r\n            revert TransferFail();\r\n        }\r\n        stakingBalance[msg.sender] += _amount;\r\n\r\n        //add staker address to the arrays for rewarding reasons\r\n        if(!hasStaked[msg.sender]){\r\n            stakers.push(msg.sender);\r\n            hasStaked[msg.sender] = true;\r\n        }\r\n        //Currently staking\r\n        isStaking[msg.sender] = true;\r\n\r\n        //Update accRewardPerShare\r\n        uint256 totalRemainingBalance = getRewardRemaining();\r\n        uint256 totalStakingBalance = getTotalStakedARM();\r\n        // newAccRewardPerShare is 1e18 :: e18 * 1e18 / e18 / uint\r\n        uint256 newAccRewardPerShare = (totalRemainingBalance * 1e18 / totalStakingBalance) / rewardSpendingDuration;\r\n        accRewardPerShare = newAccRewardPerShare;\r\n\r\n        emit Stake(msg.sender, _amount);\r\n    }\r\n\r\n\r\n\r\n\r\n    function manualClaimReward() external reentrancyGuard{\r\n        updateRewardBlock();\r\n        require(getRewardRemaining() >= rewardBalanceOf[msg.sender],\"Not enough reward in pool.\");\r\n        if(rewardBalanceOf[msg.sender]>0){\r\n          uint256 toBePaid = rewardBalanceOf[msg.sender];\r\n          rewardBalanceOf[msg.sender]=0;    //set balance to 0 before transfer to double prevent reentrancy guard\r\n          bool success = rewardToken.transfer(msg.sender, toBePaid);\r\n          if(!success){\r\n              revert TransferFail();\r\n          }\r\n          emit ClaimReward(msg.sender, toBePaid);\r\n        }\r\n    }\r\n\r\n\r\n\r\n\r\n    function unstakeARM(uint _amount) external reentrancyGuard{\r\n        //Check the amount and balancer of unstaker\r\n        require(_amount > 0, \"Unstaking amount must greater than zero\");\r\n        require(stakingBalance[msg.sender] >= _amount, \"Not enough ARM token to be withdrawed.\");\r\n        //1. update the reward vault to get lastRewardTimestamp\r\n        //2. claim the pending reward\r\n        //3. unstake the ARM token\r\n        //4. update accRewardPerShare = totalRemainingBalance / totalStakingBalance / rewardSpendingDuration\r\n\r\n        updateRewardBlock();\r\n        bool success;\r\n        if(rewardBalanceOf[msg.sender]>0){\r\n          success = rewardToken.transfer(msg.sender, rewardBalanceOf[msg.sender]);\r\n          if(!success){\r\n              revert TransferFail();\r\n          }\r\n          emit ClaimReward(msg.sender, rewardBalanceOf[msg.sender]);\r\n          rewardBalanceOf[msg.sender]=0;\r\n        }\r\n\r\n        //Transfer ARM to unstaker\r\n        success = armToken.transfer(msg.sender,_amount);\r\n        //calculate balance after transfer\r\n        stakingBalance[msg.sender] -= _amount;\r\n        if(stakingBalance[msg.sender]==0){\r\n            isStaking[msg.sender] = false;\r\n        }\r\n\r\n        //Update accRewardPerShare\r\n        uint256 totalRemainingBalance = getRewardRemaining();\r\n        uint256 totalStakingBalance = getTotalStakedARM();\r\n        //if totalStakiingBalance = 0 --> no ARM in vault = no reward then  accRewardPerShare = 0\r\n        if(totalStakingBalance==0) {\r\n          accRewardPerShare = 0;\r\n        } else {\r\n          // accRewardPerShare is 1e18 :: e18 * 1e18 / e18 / uint\r\n          accRewardPerShare = (totalRemainingBalance * 1e18 /totalStakingBalance) / rewardSpendingDuration;\r\n        }\r\n\r\n        emit Unstake(msg.sender,_amount);\r\n    }\r\n\r\n    //Set reward duration  only Owner can access\r\n    function _setRewardDurationSpending (uint hour) external onlyOwner {\r\n        updateRewardBlock();  //update distribute reward before\r\n        uint OldDuration = rewardSpendingDuration;\r\n        uint NewDuration = hour * 60 * 60; // Input in 'hour', Stored in Seconds\r\n        rewardSpendingDuration = NewDuration; \r\n\r\n        accRewardPerShare = (getRewardRemaining() * 1e18 / getTotalStakedARM()) / NewDuration; // update the distribution RATE\r\n        emit SetRewardSpendingDuration(OldDuration, NewDuration);\r\n    }\r\n\r\n    //Set new admin\r\n    function _transferOwnership (address newOwner) external onlyOwner {\r\n        address oldOwner = owner;\r\n        owner = newOwner;\r\n\r\n        emit SetNewOwner(oldOwner, newOwner);\r\n    }\r\n\r\n\r\n    //Withdraw ARM token without caring reward\r\n    function emergencyWithdraw() external reentrancyGuard {\r\n        uint withdrawBl = stakingBalance[msg.sender];\r\n        isStaking[msg.sender] = false;\r\n        rewardBalanceOf[msg.sender] = 0;\r\n        stakingBalance[msg.sender] = 0;\r\n        armToken.transfer(msg.sender, withdrawBl);\r\n        emit EmergencyWithdraw(msg.sender, withdrawBl);\r\n    }\r\n}",
  "sourcePath": "C:\\Users\\chana\\desktop\\aurumdefi\\src\\contracts\\StakingARM.sol",
  "compiler": {
    "name": "solc",
    "version": "0.8.12+commit.f00d7308.Emscripten.clang"
  },
  "schemaVersion": "3.4.6",
  "updatedAt": "2022-05-01T10:25:13.331Z",
  "devdoc": {
    "kind": "dev",
    "methods": {},
    "version": 1
  },
  "userdoc": {
    "kind": "user",
    "methods": {},
    "version": 1
  }
}