{
  "contractName": "StakingARM",
  "abi": [
    {
      "inputs": [
        {
          "internalType": "contract IERC20",
          "name": "importARMToken",
          "type": "address"
        },
        {
          "internalType": "contract IERC20",
          "name": "importRewardToken",
          "type": "address"
        }
      ],
      "stateMutability": "nonpayable",
      "type": "constructor"
    },
    {
      "anonymous": false,
      "inputs": [
        {
          "indexed": false,
          "internalType": "address",
          "name": "_claimer",
          "type": "address"
        },
        {
          "indexed": false,
          "internalType": "uint256",
          "name": "_amount",
          "type": "uint256"
        }
      ],
      "name": "ClaimReward",
      "type": "event"
    },
    {
      "anonymous": false,
      "inputs": [
        {
          "indexed": false,
          "internalType": "address",
          "name": "_withdrawer",
          "type": "address"
        },
        {
          "indexed": false,
          "internalType": "uint256",
          "name": "_amount",
          "type": "uint256"
        }
      ],
      "name": "EmergencyWithdraw",
      "type": "event"
    },
    {
      "anonymous": false,
      "inputs": [
        {
          "indexed": false,
          "internalType": "address",
          "name": "OldOwner",
          "type": "address"
        },
        {
          "indexed": false,
          "internalType": "address",
          "name": "NewOwner",
          "type": "address"
        }
      ],
      "name": "SetNewOwner",
      "type": "event"
    },
    {
      "anonymous": false,
      "inputs": [
        {
          "indexed": false,
          "internalType": "uint256",
          "name": "OldDuration",
          "type": "uint256"
        },
        {
          "indexed": false,
          "internalType": "uint256",
          "name": "NewDuration",
          "type": "uint256"
        }
      ],
      "name": "SetRewardSpendingDuration",
      "type": "event"
    },
    {
      "anonymous": false,
      "inputs": [
        {
          "indexed": false,
          "internalType": "address",
          "name": "_staker",
          "type": "address"
        },
        {
          "indexed": false,
          "internalType": "uint256",
          "name": "_amount",
          "type": "uint256"
        }
      ],
      "name": "Stake",
      "type": "event"
    },
    {
      "anonymous": false,
      "inputs": [
        {
          "indexed": false,
          "internalType": "address",
          "name": "_unstaker",
          "type": "address"
        },
        {
          "indexed": false,
          "internalType": "uint256",
          "name": "_amount",
          "type": "uint256"
        }
      ],
      "name": "Unstake",
      "type": "event"
    },
    {
      "inputs": [],
      "name": "armToken",
      "outputs": [
        {
          "internalType": "contract IERC20",
          "name": "",
          "type": "address"
        }
      ],
      "stateMutability": "view",
      "type": "function"
    },
    {
      "inputs": [],
      "name": "rewardToken",
      "outputs": [
        {
          "internalType": "contract IERC20",
          "name": "",
          "type": "address"
        }
      ],
      "stateMutability": "view",
      "type": "function"
    },
    {
      "inputs": [
        {
          "internalType": "address",
          "name": "_staker",
          "type": "address"
        }
      ],
      "name": "manualGetStakingBalance",
      "outputs": [
        {
          "internalType": "uint256",
          "name": "",
          "type": "uint256"
        }
      ],
      "stateMutability": "view",
      "type": "function"
    },
    {
      "inputs": [
        {
          "internalType": "address",
          "name": "_staker",
          "type": "address"
        }
      ],
      "name": "manualGetRewardBalance",
      "outputs": [
        {
          "internalType": "uint256",
          "name": "",
          "type": "uint256"
        }
      ],
      "stateMutability": "view",
      "type": "function"
    },
    {
      "inputs": [],
      "name": "getOwner",
      "outputs": [
        {
          "internalType": "address",
          "name": "",
          "type": "address"
        }
      ],
      "stateMutability": "view",
      "type": "function"
    },
    {
      "inputs": [],
      "name": "getAccRewardPerShare",
      "outputs": [
        {
          "internalType": "uint256",
          "name": "",
          "type": "uint256"
        }
      ],
      "stateMutability": "view",
      "type": "function"
    },
    {
      "inputs": [],
      "name": "getLastRewardTimestamp",
      "outputs": [
        {
          "internalType": "uint256",
          "name": "",
          "type": "uint256"
        }
      ],
      "stateMutability": "view",
      "type": "function"
    },
    {
      "inputs": [
        {
          "internalType": "address",
          "name": "user",
          "type": "address"
        }
      ],
      "name": "getStakingBalance",
      "outputs": [
        {
          "internalType": "uint256",
          "name": "",
          "type": "uint256"
        }
      ],
      "stateMutability": "view",
      "type": "function"
    },
    {
      "inputs": [],
      "name": "getVaultBalance",
      "outputs": [
        {
          "internalType": "uint256",
          "name": "",
          "type": "uint256"
        }
      ],
      "stateMutability": "view",
      "type": "function"
    },
    {
      "inputs": [],
      "name": "getTotalStakedARM",
      "outputs": [
        {
          "internalType": "uint256",
          "name": "",
          "type": "uint256"
        }
      ],
      "stateMutability": "view",
      "type": "function"
    },
    {
      "inputs": [],
      "name": "getRewardRemaining",
      "outputs": [
        {
          "internalType": "uint256",
          "name": "",
          "type": "uint256"
        }
      ],
      "stateMutability": "view",
      "type": "function"
    },
    {
      "inputs": [],
      "name": "getRewardSpendingDuration",
      "outputs": [
        {
          "internalType": "uint256",
          "name": "",
          "type": "uint256"
        }
      ],
      "stateMutability": "view",
      "type": "function"
    },
    {
      "inputs": [
        {
          "internalType": "address",
          "name": "user",
          "type": "address"
        }
      ],
      "name": "getRewardBalanceOf",
      "outputs": [
        {
          "internalType": "uint256",
          "name": "",
          "type": "uint256"
        }
      ],
      "stateMutability": "view",
      "type": "function"
    },
    {
      "inputs": [],
      "name": "manualUpdateRewardBlock",
      "outputs": [],
      "stateMutability": "nonpayable",
      "type": "function"
    },
    {
      "inputs": [
        {
          "internalType": "uint256",
          "name": "_amount",
          "type": "uint256"
        }
      ],
      "name": "stakeARM",
      "outputs": [],
      "stateMutability": "nonpayable",
      "type": "function"
    },
    {
      "inputs": [],
      "name": "manualClaimReward",
      "outputs": [],
      "stateMutability": "nonpayable",
      "type": "function"
    },
    {
      "inputs": [
        {
          "internalType": "uint256",
          "name": "_amount",
          "type": "uint256"
        }
      ],
      "name": "unstakeARM",
      "outputs": [],
      "stateMutability": "nonpayable",
      "type": "function"
    },
    {
      "inputs": [
        {
          "internalType": "uint256",
          "name": "hour",
          "type": "uint256"
        }
      ],
      "name": "_setRewardDurationSpending",
      "outputs": [],
      "stateMutability": "nonpayable",
      "type": "function"
    },
    {
      "inputs": [
        {
          "internalType": "address",
          "name": "newOwner",
          "type": "address"
        }
      ],
      "name": "_transferOwnership",
      "outputs": [],
      "stateMutability": "nonpayable",
      "type": "function"
    },
    {
      "inputs": [],
      "name": "emergencyWithdraw",
      "outputs": [],
      "stateMutability": "nonpayable",
      "type": "function"
    }
  ],
  "bytecode": "0x60806040523480156200001157600080fd5b506040516200272f3803806200272f833981810160405281019062000037919062000190565b81600960006101000a81548173ffffffffffffffffffffffffffffffffffffffff021916908373ffffffffffffffffffffffffffffffffffffffff16021790555080600a60006101000a81548173ffffffffffffffffffffffffffffffffffffffff021916908373ffffffffffffffffffffffffffffffffffffffff160217905550336000806101000a81548173ffffffffffffffffffffffffffffffffffffffff021916908373ffffffffffffffffffffffffffffffffffffffff16021790555062278d00600781905550426008819055505050620001d7565b600080fd5b600073ffffffffffffffffffffffffffffffffffffffff82169050919050565b6000620001448262000117565b9050919050565b6000620001588262000137565b9050919050565b6200016a816200014b565b81146200017657600080fd5b50565b6000815190506200018a816200015f565b92915050565b60008060408385031215620001aa57620001a962000112565b5b6000620001ba8582860162000179565b9250506020620001cd8582860162000179565b9150509250929050565b61254880620001e76000396000f3fe608060405234801561001057600080fd5b506004361061012c5760003560e01c8063893d20e8116100ad578063d29d44ee11610071578063d29d44ee1461030f578063db2e21bc1461032b578063ed12e8ef14610335578063f6e2304c14610353578063f7c618c11461036f5761012c565b8063893d20e8146102695780639a3854bc14610287578063a60c3b60146102a5578063b04ef9c2146102d5578063cef2b884146103055761012c565b806354c98d8e116100f457806354c98d8e146101b15780635858972f146101cf5780636c07d9fe146101ff5780637b1145ef1461021d5780637d8f3a45146102395761012c565b80630e4cf158146101315780631a0ae0001461014f57806321d69c811461016b5780633be8a6391461018957806344ae6c2114610193575b600080fd5b61013961038d565b6040516101469190611d61565b60405180910390f35b61016960048036038101906101649190611dad565b610397565b005b61017361049d565b6040516101809190611d61565b60405180910390f35b610191610540565b005b61019b6107d0565b6040516101a89190611d61565b60405180910390f35b6101b96107f1565b6040516101c69190611e59565b60405180910390f35b6101e960048036038101906101e49190611eb2565b610817565b6040516101f69190611d61565b60405180910390f35b610207610860565b6040516102149190611d61565b60405180910390f35b61023760048036038101906102329190611dad565b61086a565b005b610253600480360381019061024e9190611eb2565b610e7c565b6040516102609190611d61565b60405180910390f35b610271610f55565b60405161027e9190611eee565b60405180910390f35b61028f610f7e565b60405161029c9190611d61565b60405180910390f35b6102bf60048036038101906102ba9190611eb2565b610f88565b6040516102cc9190611d61565b60405180910390f35b6102ef60048036038101906102ea9190611eb2565b610fd1565b6040516102fc9190611d61565b60405180910390f35b61030d61101a565b005b61032960048036038101906103249190611eb2565b611074565b005b61033361116f565b005b61033d6113fb565b60405161034a9190611d61565b60405180910390f35b61036d60048036038101906103689190611dad565b61149e565b005b6103776119d8565b6040516103849190611e59565b60405180910390f35b6000600854905090565b60008054906101000a900473ffffffffffffffffffffffffffffffffffffffff1673ffffffffffffffffffffffffffffffffffffffff163373ffffffffffffffffffffffffffffffffffffffff16146103ef57600080fd5b6103f76119fe565b600060075490506000603c808461040e9190611f38565b6104189190611f38565b9050806007819055508061042a61049d565b670de0b6b3a764000061043b6107d0565b6104459190611f38565b61044f9190611fc1565b6104599190611fc1565b6006819055507fa4c3d636d806acaf62da657a8864b7d25ccdd3b6c8ba0e85be92853fa28cbb978282604051610490929190611ff2565b60405180910390a1505050565b6000600960009054906101000a900473ffffffffffffffffffffffffffffffffffffffff1673ffffffffffffffffffffffffffffffffffffffff166370a08231306040518263ffffffff1660e01b81526004016104fa9190611eee565b602060405180830381865afa158015610517573d6000803e3d6000fd5b505050506040513d601f19601f8201168201806040525081019061053b9190612030565b905090565b600a60149054906101000a900460ff161561055a57600080fd5b6001600a60146101000a81548160ff02191690831515021790555061057d6119fe565b600260003373ffffffffffffffffffffffffffffffffffffffff1673ffffffffffffffffffffffffffffffffffffffff168152602001908152602001600020546105c56107d0565b1015610606576040517f08c379a00000000000000000000000000000000000000000000000000000000081526004016105fd906120ba565b60405180910390fd5b6000600260003373ffffffffffffffffffffffffffffffffffffffff1673ffffffffffffffffffffffffffffffffffffffff1681526020019081526020016000205411156107b3576000600260003373ffffffffffffffffffffffffffffffffffffffff1673ffffffffffffffffffffffffffffffffffffffff1681526020019081526020016000205490506000600260003373ffffffffffffffffffffffffffffffffffffffff1673ffffffffffffffffffffffffffffffffffffffff16815260200190815260200160002081905550600a60009054906101000a900473ffffffffffffffffffffffffffffffffffffffff1673ffffffffffffffffffffffffffffffffffffffff1663a9059cbb33836040518363ffffffff1660e01b81526004016107349291906120da565b6020604051808303816000875af1158015610753573d6000803e3d6000fd5b505050506040513d601f19601f82011682018060405250810190610777919061213b565b507fba8de60c3403ec381d1d484652ea1980e3c3e56359195c92525bff4ce47ad98e33826040516107a99291906120da565b60405180910390a1505b6000600a60146101000a81548160ff021916908315150217905550565b60006107da611c22565b6107e26113fb565b6107ec9190612168565b905090565b600960009054906101000a900473ffffffffffffffffffffffffffffffffffffffff1681565b6000600260008373ffffffffffffffffffffffffffffffffffffffff1673ffffffffffffffffffffffffffffffffffffffff168152602001908152602001600020549050919050565b6000600654905090565b600a60149054906101000a900460ff161561088457600080fd5b6001600a60146101000a81548160ff021916908315150217905550600081116108e2576040517f08c379a00000000000000000000000000000000000000000000000000000000081526004016108d99061220e565b60405180910390fd5b80600960009054906101000a900473ffffffffffffffffffffffffffffffffffffffff1673ffffffffffffffffffffffffffffffffffffffff166370a08231336040518263ffffffff1660e01b815260040161093e9190611eee565b602060405180830381865afa15801561095b573d6000803e3d6000fd5b505050506040513d601f19601f8201168201806040525081019061097f9190612030565b10156109c0576040517f08c379a00000000000000000000000000000000000000000000000000000000081526004016109b7906122a0565b60405180910390fd5b6109c86119fe565b6000600260003373ffffffffffffffffffffffffffffffffffffffff1673ffffffffffffffffffffffffffffffffffffffff168152602001908152602001600020541115610b75576000600260003373ffffffffffffffffffffffffffffffffffffffff1673ffffffffffffffffffffffffffffffffffffffff1681526020019081526020016000205490506000600260003373ffffffffffffffffffffffffffffffffffffffff1673ffffffffffffffffffffffffffffffffffffffff16815260200190815260200160002081905550600a60009054906101000a900473ffffffffffffffffffffffffffffffffffffffff1673ffffffffffffffffffffffffffffffffffffffff1663a9059cbb33836040518363ffffffff1660e01b8152600401610af69291906120da565b6020604051808303816000875af1158015610b15573d6000803e3d6000fd5b505050506040513d601f19601f82011682018060405250810190610b39919061213b565b507fba8de60c3403ec381d1d484652ea1980e3c3e56359195c92525bff4ce47ad98e3382604051610b6b9291906120da565b60405180910390a1505b600960009054906101000a900473ffffffffffffffffffffffffffffffffffffffff1673ffffffffffffffffffffffffffffffffffffffff166323b872dd3330846040518463ffffffff1660e01b8152600401610bd4939291906122c0565b6020604051808303816000875af1158015610bf3573d6000803e3d6000fd5b505050506040513d601f19601f82011682018060405250810190610c17919061213b565b5080600160003373ffffffffffffffffffffffffffffffffffffffff1673ffffffffffffffffffffffffffffffffffffffff1681526020019081526020016000206000828254610c6791906122f7565b92505081905550600360003373ffffffffffffffffffffffffffffffffffffffff1673ffffffffffffffffffffffffffffffffffffffff16815260200190815260200160002060009054906101000a900460ff16610d7b576005339080600181540180825580915050600190039060005260206000200160009091909190916101000a81548173ffffffffffffffffffffffffffffffffffffffff021916908373ffffffffffffffffffffffffffffffffffffffff1602179055506001600360003373ffffffffffffffffffffffffffffffffffffffff1673ffffffffffffffffffffffffffffffffffffffff16815260200190815260200160002060006101000a81548160ff0219169083151502179055505b6001600460003373ffffffffffffffffffffffffffffffffffffffff1673ffffffffffffffffffffffffffffffffffffffff16815260200190815260200160002060006101000a81548160ff0219169083151502179055506000610ddd6107d0565b90506000610de961049d565b9050600060075482670de0b6b3a764000085610e059190611f38565b610e0f9190611fc1565b610e199190611fc1565b9050806006819055507febedb8b3c678666e7f36970bc8f57abf6d8fa2e828c0da91ea5b75bf68ed101a3385604051610e539291906120da565b60405180910390a15050506000600a60146101000a81548160ff02191690831515021790555050565b60008060085442610e8d9190612168565b9050600754811115610e9f5760075490505b6000600160008573ffffffffffffffffffffffffffffffffffffffff1673ffffffffffffffffffffffffffffffffffffffff1681526020019081526020016000205460065483610eef9190611f38565b610ef99190611f38565b9050600081600260008773ffffffffffffffffffffffffffffffffffffffff1673ffffffffffffffffffffffffffffffffffffffff16815260200190815260200160002054610f4891906122f7565b9050809350505050919050565b60008060009054906101000a900473ffffffffffffffffffffffffffffffffffffffff16905090565b6000600754905090565b6000600160008373ffffffffffffffffffffffffffffffffffffffff1673ffffffffffffffffffffffffffffffffffffffff168152602001908152602001600020549050919050565b6000600160008373ffffffffffffffffffffffffffffffffffffffff1673ffffffffffffffffffffffffffffffffffffffff168152602001908152602001600020549050919050565b600a60149054906101000a900460ff161561103457600080fd5b6001600a60146101000a81548160ff0219169083151502179055506110576119fe565b6000600a60146101000a81548160ff021916908315150217905550565b60008054906101000a900473ffffffffffffffffffffffffffffffffffffffff1673ffffffffffffffffffffffffffffffffffffffff163373ffffffffffffffffffffffffffffffffffffffff16146110cc57600080fd5b60008060009054906101000a900473ffffffffffffffffffffffffffffffffffffffff169050816000806101000a81548173ffffffffffffffffffffffffffffffffffffffff021916908373ffffffffffffffffffffffffffffffffffffffff1602179055507f7924376024f9d929bdada88af55c8759a72551342cca51509f3c3794e70fc6e0818360405161116392919061234d565b60405180910390a15050565b600a60149054906101000a900460ff161561118957600080fd5b6001600a60146101000a81548160ff021916908315150217905550600960009054906101000a900473ffffffffffffffffffffffffffffffffffffffff1673ffffffffffffffffffffffffffffffffffffffff1663a9059cbb33600160003373ffffffffffffffffffffffffffffffffffffffff1673ffffffffffffffffffffffffffffffffffffffff168152602001908152602001600020546040518363ffffffff1660e01b81526004016112409291906120da565b6020604051808303816000875af115801561125f573d6000803e3d6000fd5b505050506040513d601f19601f82011682018060405250810190611283919061213b565b507f5fafa99d0643513820be26656b45130b01e1c03062e1266bf36f88cbd3bd969533600160003373ffffffffffffffffffffffffffffffffffffffff1673ffffffffffffffffffffffffffffffffffffffff168152602001908152602001600020546040516112f49291906120da565b60405180910390a16000600460003373ffffffffffffffffffffffffffffffffffffffff1673ffffffffffffffffffffffffffffffffffffffff16815260200190815260200160002060006101000a81548160ff0219169083151502179055506000600260003373ffffffffffffffffffffffffffffffffffffffff1673ffffffffffffffffffffffffffffffffffffffff168152602001908152602001600020819055506000600160003373ffffffffffffffffffffffffffffffffffffffff1673ffffffffffffffffffffffffffffffffffffffff168152602001908152602001600020819055506000600a60146101000a81548160ff021916908315150217905550565b6000600a60009054906101000a900473ffffffffffffffffffffffffffffffffffffffff1673ffffffffffffffffffffffffffffffffffffffff166370a08231306040518263ffffffff1660e01b81526004016114589190611eee565b602060405180830381865afa158015611475573d6000803e3d6000fd5b505050506040513d601f19601f820116820180604052508101906114999190612030565b905090565b600a60149054906101000a900460ff16156114b857600080fd5b6001600a60146101000a81548160ff02191690831515021790555060008111611516576040517f08c379a000000000000000000000000000000000000000000000000000000000815260040161150d906123e8565b60405180910390fd5b80600160003373ffffffffffffffffffffffffffffffffffffffff1673ffffffffffffffffffffffffffffffffffffffff168152602001908152602001600020541015611598576040517f08c379a000000000000000000000000000000000000000000000000000000000815260040161158f9061247a565b60405180910390fd5b6115a06119fe565b6000600260003373ffffffffffffffffffffffffffffffffffffffff1673ffffffffffffffffffffffffffffffffffffffff16815260200190815260200160002054111561178657600a60009054906101000a900473ffffffffffffffffffffffffffffffffffffffff1673ffffffffffffffffffffffffffffffffffffffff1663a9059cbb33600260003373ffffffffffffffffffffffffffffffffffffffff1673ffffffffffffffffffffffffffffffffffffffff168152602001908152602001600020546040518363ffffffff1660e01b81526004016116849291906120da565b6020604051808303816000875af11580156116a3573d6000803e3d6000fd5b505050506040513d601f19601f820116820180604052508101906116c7919061213b565b507fba8de60c3403ec381d1d484652ea1980e3c3e56359195c92525bff4ce47ad98e33600260003373ffffffffffffffffffffffffffffffffffffffff1673ffffffffffffffffffffffffffffffffffffffff168152602001908152602001600020546040516117389291906120da565b60405180910390a16000600260003373ffffffffffffffffffffffffffffffffffffffff1673ffffffffffffffffffffffffffffffffffffffff168152602001908152602001600020819055505b600960009054906101000a900473ffffffffffffffffffffffffffffffffffffffff1673ffffffffffffffffffffffffffffffffffffffff1663a9059cbb33836040518363ffffffff1660e01b81526004016117e39291906120da565b6020604051808303816000875af1158015611802573d6000803e3d6000fd5b505050506040513d601f19601f82011682018060405250810190611826919061213b565b5080600160003373ffffffffffffffffffffffffffffffffffffffff1673ffffffffffffffffffffffffffffffffffffffff16815260200190815260200160002060008282546118769190612168565b925050819055506000600160003373ffffffffffffffffffffffffffffffffffffffff1673ffffffffffffffffffffffffffffffffffffffff16815260200190815260200160002054141561191e576000600460003373ffffffffffffffffffffffffffffffffffffffff1673ffffffffffffffffffffffffffffffffffffffff16815260200190815260200160002060006101000a81548160ff0219169083151502179055505b60006119286107d0565b9050600061193461049d565b9050600081141561194c57600060068190555061197f565b60075481670de0b6b3a7640000846119649190611f38565b61196e9190611fc1565b6119789190611fc1565b6006819055505b7f85082129d87b2fe11527cb1b3b7a520aeb5aa6913f88a3d8757fe40d1db02fdd33846040516119b09291906120da565b60405180910390a150506000600a60146101000a81548160ff02191690831515021790555050565b600a60009054906101000a900473ffffffffffffffffffffffffffffffffffffffff1681565b6008544211611a0c57611c20565b6000611a1661049d565b90506000811415611a2e574260088190555050611c20565b6000611a386107d0565b90506000811415611a4a575050611c20565b600060085442611a5a9190612168565b9050600754811115611a6c5760075490505b60008060006005805480602002602001604051908101604052809291908181526020018280548015611af357602002820191906000526020600020905b8160009054906101000a900473ffffffffffffffffffffffffffffffffffffffff1673ffffffffffffffffffffffffffffffffffffffff1681526020019060010190808311611aa9575b50505050509050600092505b8051831015611c1257670de0b6b3a76400008460065460016000858881518110611b2c57611b2b61249a565b5b602002602001015173ffffffffffffffffffffffffffffffffffffffff1673ffffffffffffffffffffffffffffffffffffffff16815260200190815260200160002054611b799190611f38565b611b839190611f38565b611b8d9190611fc1565b91508160026000838681518110611ba757611ba661249a565b5b602002602001015173ffffffffffffffffffffffffffffffffffffffff1673ffffffffffffffffffffffffffffffffffffffff1681526020019081526020016000206000828254611bf891906122f7565b925050819055508280611c0a906124c9565b935050611aff565b426008819055505050505050505b565b6000806005805480602002602001604051908101604052809291908181526020018280548015611ca757602002820191906000526020600020905b8160009054906101000a900473ffffffffffffffffffffffffffffffffffffffff1673ffffffffffffffffffffffffffffffffffffffff1681526020019060010190808311611c5d575b50505050509050600081519050600080600090505b82811015611d3e5760026000858381518110611cdb57611cda61249a565b5b602002602001015173ffffffffffffffffffffffffffffffffffffffff1673ffffffffffffffffffffffffffffffffffffffff1681526020019081526020016000205482611d2991906122f7565b91508080611d36906124c9565b915050611cbc565b5080935050505090565b6000819050919050565b611d5b81611d48565b82525050565b6000602082019050611d766000830184611d52565b92915050565b600080fd5b611d8a81611d48565b8114611d9557600080fd5b50565b600081359050611da781611d81565b92915050565b600060208284031215611dc357611dc2611d7c565b5b6000611dd184828501611d98565b91505092915050565b600073ffffffffffffffffffffffffffffffffffffffff82169050919050565b6000819050919050565b6000611e1f611e1a611e1584611dda565b611dfa565b611dda565b9050919050565b6000611e3182611e04565b9050919050565b6000611e4382611e26565b9050919050565b611e5381611e38565b82525050565b6000602082019050611e6e6000830184611e4a565b92915050565b6000611e7f82611dda565b9050919050565b611e8f81611e74565b8114611e9a57600080fd5b50565b600081359050611eac81611e86565b92915050565b600060208284031215611ec857611ec7611d7c565b5b6000611ed684828501611e9d565b91505092915050565b611ee881611e74565b82525050565b6000602082019050611f036000830184611edf565b92915050565b7f4e487b7100000000000000000000000000000000000000000000000000000000600052601160045260246000fd5b6000611f4382611d48565b9150611f4e83611d48565b9250817fffffffffffffffffffffffffffffffffffffffffffffffffffffffffffffffff0483118215151615611f8757611f86611f09565b5b828202905092915050565b7f4e487b7100000000000000000000000000000000000000000000000000000000600052601260045260246000fd5b6000611fcc82611d48565b9150611fd783611d48565b925082611fe757611fe6611f92565b5b828204905092915050565b60006040820190506120076000830185611d52565b6120146020830184611d52565b9392505050565b60008151905061202a81611d81565b92915050565b60006020828403121561204657612045611d7c565b5b60006120548482850161201b565b91505092915050565b600082825260208201905092915050565b7f4e6f7420656e6f7567682072657761726420696e20706f6f6c2e000000000000600082015250565b60006120a4601a8361205d565b91506120af8261206e565b602082019050919050565b600060208201905081810360008301526120d381612097565b9050919050565b60006040820190506120ef6000830185611edf565b6120fc6020830184611d52565b9392505050565b60008115159050919050565b61211881612103565b811461212357600080fd5b50565b6000815190506121358161210f565b92915050565b60006020828403121561215157612150611d7c565b5b600061215f84828501612126565b91505092915050565b600061217382611d48565b915061217e83611d48565b92508282101561219157612190611f09565b5b828203905092915050565b7f5374616b696e6720616d6f756e74206d7573742067726561746572207468616e60008201527f207a65726f000000000000000000000000000000000000000000000000000000602082015250565b60006121f860258361205d565b91506122038261219c565b604082019050919050565b60006020820190508181036000830152612227816121eb565b9050919050565b7f4e6f7420656e6f7567682041524d20746f6b656e20746f206265206465706f7360008201527f697465642e000000000000000000000000000000000000000000000000000000602082015250565b600061228a60258361205d565b91506122958261222e565b604082019050919050565b600060208201905081810360008301526122b98161227d565b9050919050565b60006060820190506122d56000830186611edf565b6122e26020830185611edf565b6122ef6040830184611d52565b949350505050565b600061230282611d48565b915061230d83611d48565b9250827fffffffffffffffffffffffffffffffffffffffffffffffffffffffffffffffff0382111561234257612341611f09565b5b828201905092915050565b60006040820190506123626000830185611edf565b61236f6020830184611edf565b9392505050565b7f556e7374616b696e6720616d6f756e74206d757374206772656174657220746860008201527f616e207a65726f00000000000000000000000000000000000000000000000000602082015250565b60006123d260278361205d565b91506123dd82612376565b604082019050919050565b60006020820190508181036000830152612401816123c5565b9050919050565b7f4e6f7420656e6f7567682041524d20746f6b656e20746f20626520776974686460008201527f72617765642e0000000000000000000000000000000000000000000000000000602082015250565b600061246460268361205d565b915061246f82612408565b604082019050919050565b6000602082019050818103600083015261249381612457565b9050919050565b7f4e487b7100000000000000000000000000000000000000000000000000000000600052603260045260246000fd5b60006124d482611d48565b91507fffffffffffffffffffffffffffffffffffffffffffffffffffffffffffffffff82141561250757612506611f09565b5b60018201905091905056fea2646970667358221220e280cf16de5bfbce6116f77e07473bf41b14e71c4d1735750100d6a3aa86619d64736f6c634300080c0033",
  "immutableReferences": {},
  "source": "// SPDX-License-Identifier: MIT\r\npragma solidity ^0.8.0;\r\n\r\nimport \"@openzeppelin/contracts/token/ERC20/ERC20.sol\";\r\n\r\ncontract StakingARM {\r\n\r\n    //Owner address\r\n    address owner;    \r\n\r\n    //User variables\r\n    mapping(address => uint256) stakingBalance;   //User's staked ARM token\r\n    mapping(address => uint256) rewardBalanceOf;  //User's distributed reward from vault which 'NOT YET' claim\r\n    mapping(address => bool) hasStaked; //this variable check if the user used to stake in the vault to prevent duplication of 'stakers[]'.\r\n    mapping(address => bool) isStaking; //Staking status of individual address, FALSE if balance = 0\r\n    address[] stakers; //Address of stakers for rewarding reason\r\n    \r\n    //Vault variables manipulation\r\n    uint256 accRewardPerShare; // spending reward RATE per share :: calculate from TotalRewardRemaining / TotalStakingToken / rewardSpendingDuration\r\n    uint256 rewardSpendingDuration; // Duration in days that the reward will be distributed\r\n    // RewardSpendingDuration is the CONSTANT that indicate the RATE of the current reward will be distributed if no-one is updating the vault\r\n    // Everytime that users stake/unstake/claimReward, the spending rate (accRewardPerShare) will be re-calculated\r\n    uint256 lastRewardTimestamp; //Index of current updated rewardblock (blocktime)\r\n\r\n    //This code is modified from Masterchef contract\r\n        // Whenever a user stake or unstake to the vault.\r\n        //   1. The 'rewardBalance' (and `lastRewardTimestamp`) gets updated.\r\n        //   2. User receives the 'rewardBalanceOf' sent to his/her address. (rewardBalanceOf then set to 0)\r\n        //   3. User's `stakingBalance` gets updated.\r\n        //   4. User's `rewardBalanceOf` gets updated.\r\n\r\n\r\n    IERC20 public armToken;     // ARM token  OR  LP-token to be staked\r\n    IERC20 public rewardToken;  // BUSD token\r\n\r\n\r\n\r\n    //Set object of ARM to armToken and object of BUSD to rewardToken when the contract is deployed.\r\n    constructor(IERC20 importARMToken, IERC20 importRewardToken){\r\n        armToken = importARMToken; // This can be LP token when deploying contract\r\n        rewardToken = importRewardToken;\r\n        owner = msg.sender;\r\n        rewardSpendingDuration = 30 days; // set default is 30 days\r\n        lastRewardTimestamp = block.timestamp;\r\n    }\r\n\r\n    event Stake(address _staker, uint _amount);\r\n    event Unstake(address _unstaker, uint _amount);\r\n    event ClaimReward(address _claimer, uint _amount);\r\n    event EmergencyWithdraw(address _withdrawer, uint _amount);\r\n    event SetRewardSpendingDuration(uint OldDuration, uint NewDuration);\r\n    event SetNewOwner(address OldOwner, address NewOwner);\r\n\r\n    modifier onlyOwner {\r\n      require(msg.sender == owner);\r\n      _;\r\n    }\r\n\r\n    bool internal locked;\r\n    modifier reentrancyGuard {\r\n        require(!locked);\r\n        locked = true; // lock the re-entrancy before contract execution\r\n        _;\r\n        locked = false; // unlock when finish\r\n    }\r\n\r\n    //--------------------------------------\r\n    //------Reading parameters function-----\r\n    //--------------------------------------\r\n\r\n    //Get the ARM staking for each requested address\r\n    function manualGetStakingBalance(address _staker) view public returns(uint256) {\r\n        return stakingBalance[_staker];\r\n    }\r\n\r\n    //Get the reward balance of each requested address (this included the pending update reward)\r\n    function manualGetRewardBalance(address _staker) view public returns(uint256) {\r\n      uint256 deltaTime = block.timestamp - lastRewardTimestamp;\r\n        if(deltaTime > rewardSpendingDuration){\r\n          deltaTime = rewardSpendingDuration;\r\n        }\r\n        uint256 pendingReward = deltaTime * accRewardPerShare * stakingBalance[_staker];\r\n        uint256 totalReward = rewardBalanceOf[_staker] + pendingReward;\r\n        return totalReward;\r\n    }\r\n\r\n    //Get the owner address\r\n    function getOwner() view public returns(address){\r\n        return owner;\r\n    }\r\n    function getAccRewardPerShare() view public returns(uint) {\r\n        return accRewardPerShare;\r\n    }\r\n    function getLastRewardTimestamp() view public returns(uint){\r\n        return lastRewardTimestamp;\r\n    }\r\n    function getStakingBalance(address user) view public returns(uint){\r\n        return stakingBalance[user];\r\n    }\r\n    //Get the BUSD balance in vault\r\n    function getVaultBalance() public view returns(uint256){\r\n        return rewardToken.balanceOf(address(this));\r\n    }\r\n    //Get the ARM balance in vault\r\n    function getTotalStakedARM() public view returns(uint256){\r\n        return armToken.balanceOf(address(this));\r\n    }\r\n    //Get Total reward pending to be claim\r\n    function getTotalRewardPending() internal view returns(uint256){\r\n        address[] memory varsStaker = stakers;  //get stakers to local memory vars to minimalize gas spend in for loop\r\n        uint256 numberUser = varsStaker.length;\r\n        uint256 totalreward;\r\n        for(uint i = 0; i< numberUser; i++){\r\n          totalreward += rewardBalanceOf[varsStaker[i]];\r\n        }\r\n        return totalreward;\r\n    }\r\n    //Get remaining reward\r\n    function getRewardRemaining() public view returns(uint256)  {\r\n        return (getVaultBalance() - getTotalRewardPending());\r\n    }\r\n    //Reward spending duration return in blocktime\r\n    function getRewardSpendingDuration() public view returns(uint256) {\r\n      return rewardSpendingDuration;\r\n    }\r\n\r\n    function getRewardBalanceOf(address user) public view returns(uint256) {\r\n      return rewardBalanceOf[user];\r\n    }\r\n    //-------------------------------------------------\r\n    //--------------Action function--------------------\r\n    //-------------------------------------------------\r\n\r\n\r\n    function updateRewardBlock() internal{\r\n        //If the lastRewardTimestamp is updated.  No need for update\r\n        if(block.timestamp <= lastRewardTimestamp){\r\n          return;\r\n        }\r\n        uint256 totalStakedARM = getTotalStakedARM(); //The ARM balance in vault contract\r\n        \r\n        //Check if this is the first staker then start the block reward here\r\n        if(totalStakedARM == 0){\r\n          lastRewardTimestamp = block.timestamp;\r\n          return;\r\n        }\r\n        uint256 remainingReward = getRewardRemaining();\r\n        \r\n        //Check if rewardPool is empty\r\n        if(remainingReward == 0){\r\n          return;\r\n        }\r\n\r\n        //Check if the reward block not update for long time (more than the rewardSpendingDuration)\r\n        //then deltaTime to be calculate should be equal to MAX (rewardSpendingDuration)\r\n        uint256 deltaTime = block.timestamp - lastRewardTimestamp;\r\n        if(deltaTime > rewardSpendingDuration){\r\n          deltaTime = rewardSpendingDuration;\r\n        }\r\n        uint i;\r\n        uint gainReward;\r\n        address[] memory varsStaker = stakers;  // gas optimization\r\n        for (i=0 ; i< varsStaker.length ; i++){\r\n          //gainReward is  1e18 :: e18*e18*uint / 1e18\r\n          gainReward = stakingBalance[varsStaker[i]] * accRewardPerShare * deltaTime / 1e18;\r\n          rewardBalanceOf[varsStaker[i]] += gainReward;\r\n        }\r\n        lastRewardTimestamp = block.timestamp;\r\n    }\r\n\r\n    function manualUpdateRewardBlock() external reentrancyGuard{\r\n        updateRewardBlock();\r\n    }\r\n    \r\n\r\n    function stakeARM(uint _amount) external reentrancyGuard {\r\n        //Check the amount and balance of staker\r\n        require(_amount > 0, \"Staking amount must greater than zero\");\r\n        require(armToken.balanceOf(msg.sender)>=_amount, \"Not enough ARM token to be deposited.\");\r\n        //1. update the reward vault to get lastRewardTimestamp\r\n        //2. claim the pending reward\r\n        //3. stake the ARM token\r\n        //4. update accRewardPerShare = totalRemainingBalance / totalStakingBalance / rewardSpendingDuration\r\n\r\n        updateRewardBlock();\r\n\r\n        if(rewardBalanceOf[msg.sender]>0){\r\n          uint256 toBePaid = rewardBalanceOf[msg.sender];\r\n          rewardBalanceOf[msg.sender]=0;\r\n          rewardToken.transfer(msg.sender, toBePaid);\r\n          emit ClaimReward(msg.sender, toBePaid);\r\n        }\r\n\r\n        //Transfer ARM to contract address then update balance\r\n        armToken.transferFrom(msg.sender,address(this),_amount);\r\n        stakingBalance[msg.sender] += _amount;\r\n\r\n        //add staker address to the arrays for rewarding reasons\r\n        if(!hasStaked[msg.sender]){\r\n            stakers.push(msg.sender);\r\n            hasStaked[msg.sender] = true;\r\n        }\r\n        //Currently staking\r\n        isStaking[msg.sender] = true;\r\n\r\n        //Update accRewardPerShare\r\n        uint256 totalRemainingBalance = getRewardRemaining();\r\n        uint256 totalStakingBalance = getTotalStakedARM();\r\n        // newAccRewardPerShare is 1e18 :: e18 * 1e18 / e18 / uint\r\n        uint256 newAccRewardPerShare = (totalRemainingBalance * 1e18 / totalStakingBalance) / rewardSpendingDuration;\r\n        accRewardPerShare = newAccRewardPerShare;\r\n\r\n        emit Stake(msg.sender, _amount);\r\n    }\r\n\r\n\r\n\r\n\r\n    function manualClaimReward() external reentrancyGuard{\r\n        updateRewardBlock();\r\n        require(getRewardRemaining() >= rewardBalanceOf[msg.sender],\"Not enough reward in pool.\");\r\n        if(rewardBalanceOf[msg.sender]>0){\r\n          uint256 toBePaid = rewardBalanceOf[msg.sender];\r\n          rewardBalanceOf[msg.sender]=0;    //set balance to 0 before transfer to double prevent reentrancy guard\r\n          rewardToken.transfer(msg.sender, toBePaid);\r\n          emit ClaimReward(msg.sender, toBePaid);\r\n        }\r\n    }\r\n\r\n\r\n\r\n\r\n    function unstakeARM(uint _amount) external reentrancyGuard{\r\n        //Check the amount and balancer of unstaker\r\n        require(_amount > 0, \"Unstaking amount must greater than zero\");\r\n        require(stakingBalance[msg.sender] >= _amount, \"Not enough ARM token to be withdrawed.\");\r\n        //1. update the reward vault to get lastRewardTimestamp\r\n        //2. claim the pending reward\r\n        //3. unstake the ARM token\r\n        //4. update accRewardPerShare = totalRemainingBalance / totalStakingBalance / rewardSpendingDuration\r\n\r\n        updateRewardBlock();\r\n\r\n        if(rewardBalanceOf[msg.sender]>0){\r\n          rewardToken.transfer(msg.sender, rewardBalanceOf[msg.sender]);\r\n          emit ClaimReward(msg.sender, rewardBalanceOf[msg.sender]);\r\n          rewardBalanceOf[msg.sender]=0;\r\n        }\r\n\r\n        //Transfer ARM to unstaker\r\n        armToken.transfer(msg.sender,_amount);\r\n        //calculate balance after transfer\r\n        stakingBalance[msg.sender] -= _amount;\r\n        if(stakingBalance[msg.sender]==0){\r\n            isStaking[msg.sender] = false;\r\n        }\r\n\r\n        //Update accRewardPerShare\r\n        uint256 totalRemainingBalance = getRewardRemaining();\r\n        uint256 totalStakingBalance = getTotalStakedARM();\r\n        //if totalStakiingBalance = 0 --> no ARM in vault = no reward then  accRewardPerShare = 0\r\n        if(totalStakingBalance==0) {\r\n          accRewardPerShare = 0;\r\n        } else {\r\n          // accRewardPerShare is 1e18 :: e18 * 1e18 / e18 / uint\r\n          accRewardPerShare = (totalRemainingBalance * 1e18 /totalStakingBalance) / rewardSpendingDuration;\r\n        }\r\n\r\n        emit Unstake(msg.sender,_amount);\r\n    }\r\n\r\n    //Set reward duration  only Owner can access\r\n    function _setRewardDurationSpending (uint hour) external onlyOwner {\r\n        updateRewardBlock();  //update distribute reward before\r\n        uint OldDuration = rewardSpendingDuration;\r\n        uint NewDuration = hour * 60 * 60; // Input in 'hour', Stored in Seconds\r\n        rewardSpendingDuration = NewDuration; \r\n\r\n        accRewardPerShare = (getRewardRemaining() * 1e18 / getTotalStakedARM()) / NewDuration; // update the distribution RATE\r\n        emit SetRewardSpendingDuration(OldDuration, NewDuration);\r\n    }\r\n\r\n    //Set new admin\r\n    function _transferOwnership (address newOwner) external onlyOwner {\r\n        address oldOwner = owner;\r\n        owner = newOwner;\r\n\r\n        emit SetNewOwner(oldOwner, newOwner);\r\n    }\r\n\r\n\r\n    //Withdraw ARM token without caring reward\r\n    function emergencyWithdraw() external reentrancyGuard {\r\n        armToken.transfer(msg.sender,stakingBalance[msg.sender]);\r\n        emit EmergencyWithdraw(msg.sender, stakingBalance[msg.sender]);\r\n        isStaking[msg.sender] = false;\r\n        rewardBalanceOf[msg.sender] = 0;\r\n        stakingBalance[msg.sender] = 0;\r\n    }\r\n}",
  "sourcePath": "C:\\Users\\chana\\desktop\\aurumdefi\\src\\contracts\\StakingARM.sol",
  "compiler": {
    "name": "solc",
    "version": "0.8.12+commit.f00d7308.Emscripten.clang"
  },
  "schemaVersion": "3.4.6",
  "updatedAt": "2022-04-11T14:57:25.896Z",
  "networkType": "ethereum",
  "devdoc": {
    "kind": "dev",
    "methods": {},
    "version": 1
  },
  "userdoc": {
    "kind": "user",
    "methods": {},
    "version": 1
  }
}