{
  "contractName": "StakingARM",
  "abi": [
    {
      "inputs": [
        {
          "internalType": "contract IERC20",
          "name": "importARMToken",
          "type": "address"
        },
        {
          "internalType": "contract IERC20",
          "name": "importRewardToken",
          "type": "address"
        }
      ],
      "stateMutability": "nonpayable",
      "type": "constructor"
    },
    {
      "anonymous": false,
      "inputs": [
        {
          "indexed": false,
          "internalType": "address",
          "name": "_claimer",
          "type": "address"
        },
        {
          "indexed": false,
          "internalType": "uint256",
          "name": "_amount",
          "type": "uint256"
        }
      ],
      "name": "ClaimReward",
      "type": "event"
    },
    {
      "anonymous": false,
      "inputs": [
        {
          "indexed": false,
          "internalType": "address",
          "name": "_withdrawer",
          "type": "address"
        },
        {
          "indexed": false,
          "internalType": "uint256",
          "name": "_amount",
          "type": "uint256"
        }
      ],
      "name": "EmergencyWithdraw",
      "type": "event"
    },
    {
      "anonymous": false,
      "inputs": [
        {
          "indexed": false,
          "internalType": "uint256",
          "name": "OldDuration",
          "type": "uint256"
        },
        {
          "indexed": false,
          "internalType": "uint256",
          "name": "NewDuration",
          "type": "uint256"
        }
      ],
      "name": "SetRewardSpendingDuration",
      "type": "event"
    },
    {
      "anonymous": false,
      "inputs": [
        {
          "indexed": false,
          "internalType": "address",
          "name": "_staker",
          "type": "address"
        },
        {
          "indexed": false,
          "internalType": "uint256",
          "name": "_amount",
          "type": "uint256"
        }
      ],
      "name": "Stake",
      "type": "event"
    },
    {
      "anonymous": false,
      "inputs": [
        {
          "indexed": false,
          "internalType": "address",
          "name": "_unstaker",
          "type": "address"
        },
        {
          "indexed": false,
          "internalType": "uint256",
          "name": "_amount",
          "type": "uint256"
        }
      ],
      "name": "Unstake",
      "type": "event"
    },
    {
      "inputs": [],
      "name": "armToken",
      "outputs": [
        {
          "internalType": "contract IERC20",
          "name": "",
          "type": "address"
        }
      ],
      "stateMutability": "view",
      "type": "function"
    },
    {
      "inputs": [],
      "name": "rewardToken",
      "outputs": [
        {
          "internalType": "contract IERC20",
          "name": "",
          "type": "address"
        }
      ],
      "stateMutability": "view",
      "type": "function"
    },
    {
      "inputs": [
        {
          "internalType": "address",
          "name": "_staker",
          "type": "address"
        }
      ],
      "name": "manualGetStakingBalance",
      "outputs": [
        {
          "internalType": "uint256",
          "name": "",
          "type": "uint256"
        }
      ],
      "stateMutability": "view",
      "type": "function"
    },
    {
      "inputs": [
        {
          "internalType": "address",
          "name": "_staker",
          "type": "address"
        }
      ],
      "name": "manualGetRewardBalance",
      "outputs": [
        {
          "internalType": "uint256",
          "name": "",
          "type": "uint256"
        }
      ],
      "stateMutability": "view",
      "type": "function"
    },
    {
      "inputs": [],
      "name": "getOwner",
      "outputs": [
        {
          "internalType": "address",
          "name": "",
          "type": "address"
        }
      ],
      "stateMutability": "view",
      "type": "function"
    },
    {
      "inputs": [],
      "name": "getAccRewardPerShare",
      "outputs": [
        {
          "internalType": "uint256",
          "name": "",
          "type": "uint256"
        }
      ],
      "stateMutability": "view",
      "type": "function"
    },
    {
      "inputs": [],
      "name": "getLastRewardTimestamp",
      "outputs": [
        {
          "internalType": "uint256",
          "name": "",
          "type": "uint256"
        }
      ],
      "stateMutability": "view",
      "type": "function"
    },
    {
      "inputs": [
        {
          "internalType": "address",
          "name": "user",
          "type": "address"
        }
      ],
      "name": "getStakingBalance",
      "outputs": [
        {
          "internalType": "uint256",
          "name": "",
          "type": "uint256"
        }
      ],
      "stateMutability": "view",
      "type": "function"
    },
    {
      "inputs": [],
      "name": "getVaultBalance",
      "outputs": [
        {
          "internalType": "uint256",
          "name": "",
          "type": "uint256"
        }
      ],
      "stateMutability": "view",
      "type": "function"
    },
    {
      "inputs": [],
      "name": "getTotalStakedARM",
      "outputs": [
        {
          "internalType": "uint256",
          "name": "",
          "type": "uint256"
        }
      ],
      "stateMutability": "view",
      "type": "function"
    },
    {
      "inputs": [],
      "name": "getRewardRemaining",
      "outputs": [
        {
          "internalType": "uint256",
          "name": "",
          "type": "uint256"
        }
      ],
      "stateMutability": "view",
      "type": "function"
    },
    {
      "inputs": [],
      "name": "getRewardSpendingDuration",
      "outputs": [
        {
          "internalType": "uint256",
          "name": "",
          "type": "uint256"
        }
      ],
      "stateMutability": "view",
      "type": "function"
    },
    {
      "inputs": [
        {
          "internalType": "address",
          "name": "user",
          "type": "address"
        }
      ],
      "name": "getRewardBalanceOf",
      "outputs": [
        {
          "internalType": "uint256",
          "name": "",
          "type": "uint256"
        }
      ],
      "stateMutability": "view",
      "type": "function"
    },
    {
      "inputs": [],
      "name": "manualUpdateRewardBlock",
      "outputs": [],
      "stateMutability": "nonpayable",
      "type": "function"
    },
    {
      "inputs": [
        {
          "internalType": "uint256",
          "name": "_amount",
          "type": "uint256"
        }
      ],
      "name": "stakeARM",
      "outputs": [],
      "stateMutability": "nonpayable",
      "type": "function"
    },
    {
      "inputs": [],
      "name": "manualClaimReward",
      "outputs": [],
      "stateMutability": "nonpayable",
      "type": "function"
    },
    {
      "inputs": [
        {
          "internalType": "uint256",
          "name": "_amount",
          "type": "uint256"
        }
      ],
      "name": "unstakeARM",
      "outputs": [],
      "stateMutability": "nonpayable",
      "type": "function"
    },
    {
      "inputs": [
        {
          "internalType": "uint256",
          "name": "hour",
          "type": "uint256"
        }
      ],
      "name": "setRewardDurationSpending",
      "outputs": [],
      "stateMutability": "nonpayable",
      "type": "function"
    },
    {
      "inputs": [],
      "name": "emergencyWithdraw",
      "outputs": [],
      "stateMutability": "nonpayable",
      "type": "function"
    }
  ],
  "bytecode": "0x60806040523480156200001157600080fd5b50604051620025e4380380620025e4833981810160405281019062000037919062000190565b81600960006101000a81548173ffffffffffffffffffffffffffffffffffffffff021916908373ffffffffffffffffffffffffffffffffffffffff16021790555080600a60006101000a81548173ffffffffffffffffffffffffffffffffffffffff021916908373ffffffffffffffffffffffffffffffffffffffff160217905550336000806101000a81548173ffffffffffffffffffffffffffffffffffffffff021916908373ffffffffffffffffffffffffffffffffffffffff16021790555062278d00600781905550426008819055505050620001d7565b600080fd5b600073ffffffffffffffffffffffffffffffffffffffff82169050919050565b6000620001448262000117565b9050919050565b6000620001588262000137565b9050919050565b6200016a816200014b565b81146200017657600080fd5b50565b6000815190506200018a816200015f565b92915050565b60008060408385031215620001aa57620001a962000112565b5b6000620001ba8582860162000179565b9250506020620001cd8582860162000179565b9150509250929050565b6123fd80620001e76000396000f3fe608060405234801561001057600080fd5b50600436106101215760003560e01c8063893d20e8116100ad578063db2e21bc11610071578063db2e21bc146102e8578063ed12e8ef146102f2578063f6e2304c14610310578063f7c618c11461032c578063faeb84d31461034a57610121565b8063893d20e8146102425780639a3854bc14610260578063a60c3b601461027e578063b04ef9c2146102ae578063cef2b884146102de57610121565b806354c98d8e116100f457806354c98d8e1461018a5780635858972f146101a85780636c07d9fe146101d85780637b1145ef146101f65780637d8f3a451461021257610121565b80630e4cf1581461012657806321d69c81146101445780633be8a6391461016257806344ae6c211461016c575b600080fd5b61012e610366565b60405161013b9190611c3f565b60405180910390f35b61014c610370565b6040516101599190611c3f565b60405180910390f35b61016a610413565b005b6101746106a3565b6040516101819190611c3f565b60405180910390f35b6101926106c4565b60405161019f9190611cd9565b60405180910390f35b6101c260048036038101906101bd9190611d37565b6106ea565b6040516101cf9190611c3f565b60405180910390f35b6101e0610733565b6040516101ed9190611c3f565b60405180910390f35b610210600480360381019061020b9190611d90565b61073d565b005b61022c60048036038101906102279190611d37565b610d4f565b6040516102399190611c3f565b60405180910390f35b61024a610e28565b6040516102579190611dcc565b60405180910390f35b610268610e51565b6040516102759190611c3f565b60405180910390f35b61029860048036038101906102939190611d37565b610e5b565b6040516102a59190611c3f565b60405180910390f35b6102c860048036038101906102c39190611d37565b610ea4565b6040516102d59190611c3f565b60405180910390f35b6102e6610eed565b005b6102f0610f47565b005b6102fa6111d3565b6040516103079190611c3f565b60405180910390f35b61032a60048036038101906103259190611d90565b611276565b005b6103346117b0565b6040516103419190611cd9565b60405180910390f35b610364600480360381019061035f9190611d90565b6117d6565b005b6000600854905090565b6000600960009054906101000a900473ffffffffffffffffffffffffffffffffffffffff1673ffffffffffffffffffffffffffffffffffffffff166370a08231306040518263ffffffff1660e01b81526004016103cd9190611dcc565b602060405180830381865afa1580156103ea573d6000803e3d6000fd5b505050506040513d601f19601f8201168201806040525081019061040e9190611dfc565b905090565b600a60149054906101000a900460ff161561042d57600080fd5b6001600a60146101000a81548160ff0219169083151502179055506104506118dc565b600260003373ffffffffffffffffffffffffffffffffffffffff1673ffffffffffffffffffffffffffffffffffffffff168152602001908152602001600020546104986106a3565b10156104d9576040517f08c379a00000000000000000000000000000000000000000000000000000000081526004016104d090611e86565b60405180910390fd5b6000600260003373ffffffffffffffffffffffffffffffffffffffff1673ffffffffffffffffffffffffffffffffffffffff168152602001908152602001600020541115610686576000600260003373ffffffffffffffffffffffffffffffffffffffff1673ffffffffffffffffffffffffffffffffffffffff1681526020019081526020016000205490506000600260003373ffffffffffffffffffffffffffffffffffffffff1673ffffffffffffffffffffffffffffffffffffffff16815260200190815260200160002081905550600a60009054906101000a900473ffffffffffffffffffffffffffffffffffffffff1673ffffffffffffffffffffffffffffffffffffffff1663a9059cbb33836040518363ffffffff1660e01b8152600401610607929190611ea6565b6020604051808303816000875af1158015610626573d6000803e3d6000fd5b505050506040513d601f19601f8201168201806040525081019061064a9190611f07565b507fba8de60c3403ec381d1d484652ea1980e3c3e56359195c92525bff4ce47ad98e338260405161067c929190611ea6565b60405180910390a1505b6000600a60146101000a81548160ff021916908315150217905550565b60006106ad611b00565b6106b56111d3565b6106bf9190611f63565b905090565b600960009054906101000a900473ffffffffffffffffffffffffffffffffffffffff1681565b6000600260008373ffffffffffffffffffffffffffffffffffffffff1673ffffffffffffffffffffffffffffffffffffffff168152602001908152602001600020549050919050565b6000600654905090565b600a60149054906101000a900460ff161561075757600080fd5b6001600a60146101000a81548160ff021916908315150217905550600081116107b5576040517f08c379a00000000000000000000000000000000000000000000000000000000081526004016107ac90612009565b60405180910390fd5b80600960009054906101000a900473ffffffffffffffffffffffffffffffffffffffff1673ffffffffffffffffffffffffffffffffffffffff166370a08231336040518263ffffffff1660e01b81526004016108119190611dcc565b602060405180830381865afa15801561082e573d6000803e3d6000fd5b505050506040513d601f19601f820116820180604052508101906108529190611dfc565b1015610893576040517f08c379a000000000000000000000000000000000000000000000000000000000815260040161088a9061209b565b60405180910390fd5b61089b6118dc565b6000600260003373ffffffffffffffffffffffffffffffffffffffff1673ffffffffffffffffffffffffffffffffffffffff168152602001908152602001600020541115610a48576000600260003373ffffffffffffffffffffffffffffffffffffffff1673ffffffffffffffffffffffffffffffffffffffff1681526020019081526020016000205490506000600260003373ffffffffffffffffffffffffffffffffffffffff1673ffffffffffffffffffffffffffffffffffffffff16815260200190815260200160002081905550600a60009054906101000a900473ffffffffffffffffffffffffffffffffffffffff1673ffffffffffffffffffffffffffffffffffffffff1663a9059cbb33836040518363ffffffff1660e01b81526004016109c9929190611ea6565b6020604051808303816000875af11580156109e8573d6000803e3d6000fd5b505050506040513d601f19601f82011682018060405250810190610a0c9190611f07565b507fba8de60c3403ec381d1d484652ea1980e3c3e56359195c92525bff4ce47ad98e3382604051610a3e929190611ea6565b60405180910390a1505b600960009054906101000a900473ffffffffffffffffffffffffffffffffffffffff1673ffffffffffffffffffffffffffffffffffffffff166323b872dd3330846040518463ffffffff1660e01b8152600401610aa7939291906120bb565b6020604051808303816000875af1158015610ac6573d6000803e3d6000fd5b505050506040513d601f19601f82011682018060405250810190610aea9190611f07565b5080600160003373ffffffffffffffffffffffffffffffffffffffff1673ffffffffffffffffffffffffffffffffffffffff1681526020019081526020016000206000828254610b3a91906120f2565b92505081905550600360003373ffffffffffffffffffffffffffffffffffffffff1673ffffffffffffffffffffffffffffffffffffffff16815260200190815260200160002060009054906101000a900460ff16610c4e576005339080600181540180825580915050600190039060005260206000200160009091909190916101000a81548173ffffffffffffffffffffffffffffffffffffffff021916908373ffffffffffffffffffffffffffffffffffffffff1602179055506001600360003373ffffffffffffffffffffffffffffffffffffffff1673ffffffffffffffffffffffffffffffffffffffff16815260200190815260200160002060006101000a81548160ff0219169083151502179055505b6001600460003373ffffffffffffffffffffffffffffffffffffffff1673ffffffffffffffffffffffffffffffffffffffff16815260200190815260200160002060006101000a81548160ff0219169083151502179055506000610cb06106a3565b90506000610cbc610370565b9050600060075482670de0b6b3a764000085610cd89190612148565b610ce291906121d1565b610cec91906121d1565b9050806006819055507febedb8b3c678666e7f36970bc8f57abf6d8fa2e828c0da91ea5b75bf68ed101a3385604051610d26929190611ea6565b60405180910390a15050506000600a60146101000a81548160ff02191690831515021790555050565b60008060085442610d609190611f63565b9050600754811115610d725760075490505b6000600160008573ffffffffffffffffffffffffffffffffffffffff1673ffffffffffffffffffffffffffffffffffffffff1681526020019081526020016000205460065483610dc29190612148565b610dcc9190612148565b9050600081600260008773ffffffffffffffffffffffffffffffffffffffff1673ffffffffffffffffffffffffffffffffffffffff16815260200190815260200160002054610e1b91906120f2565b9050809350505050919050565b60008060009054906101000a900473ffffffffffffffffffffffffffffffffffffffff16905090565b6000600754905090565b6000600160008373ffffffffffffffffffffffffffffffffffffffff1673ffffffffffffffffffffffffffffffffffffffff168152602001908152602001600020549050919050565b6000600160008373ffffffffffffffffffffffffffffffffffffffff1673ffffffffffffffffffffffffffffffffffffffff168152602001908152602001600020549050919050565b600a60149054906101000a900460ff1615610f0757600080fd5b6001600a60146101000a81548160ff021916908315150217905550610f2a6118dc565b6000600a60146101000a81548160ff021916908315150217905550565b600a60149054906101000a900460ff1615610f6157600080fd5b6001600a60146101000a81548160ff021916908315150217905550600960009054906101000a900473ffffffffffffffffffffffffffffffffffffffff1673ffffffffffffffffffffffffffffffffffffffff1663a9059cbb33600160003373ffffffffffffffffffffffffffffffffffffffff1673ffffffffffffffffffffffffffffffffffffffff168152602001908152602001600020546040518363ffffffff1660e01b8152600401611018929190611ea6565b6020604051808303816000875af1158015611037573d6000803e3d6000fd5b505050506040513d601f19601f8201168201806040525081019061105b9190611f07565b507f5fafa99d0643513820be26656b45130b01e1c03062e1266bf36f88cbd3bd969533600160003373ffffffffffffffffffffffffffffffffffffffff1673ffffffffffffffffffffffffffffffffffffffff168152602001908152602001600020546040516110cc929190611ea6565b60405180910390a16000600460003373ffffffffffffffffffffffffffffffffffffffff1673ffffffffffffffffffffffffffffffffffffffff16815260200190815260200160002060006101000a81548160ff0219169083151502179055506000600260003373ffffffffffffffffffffffffffffffffffffffff1673ffffffffffffffffffffffffffffffffffffffff168152602001908152602001600020819055506000600160003373ffffffffffffffffffffffffffffffffffffffff1673ffffffffffffffffffffffffffffffffffffffff168152602001908152602001600020819055506000600a60146101000a81548160ff021916908315150217905550565b6000600a60009054906101000a900473ffffffffffffffffffffffffffffffffffffffff1673ffffffffffffffffffffffffffffffffffffffff166370a08231306040518263ffffffff1660e01b81526004016112309190611dcc565b602060405180830381865afa15801561124d573d6000803e3d6000fd5b505050506040513d601f19601f820116820180604052508101906112719190611dfc565b905090565b600a60149054906101000a900460ff161561129057600080fd5b6001600a60146101000a81548160ff021916908315150217905550600081116112ee576040517f08c379a00000000000000000000000000000000000000000000000000000000081526004016112e590612274565b60405180910390fd5b80600160003373ffffffffffffffffffffffffffffffffffffffff1673ffffffffffffffffffffffffffffffffffffffff168152602001908152602001600020541015611370576040517f08c379a000000000000000000000000000000000000000000000000000000000815260040161136790612306565b60405180910390fd5b6113786118dc565b6000600260003373ffffffffffffffffffffffffffffffffffffffff1673ffffffffffffffffffffffffffffffffffffffff16815260200190815260200160002054111561155e57600a60009054906101000a900473ffffffffffffffffffffffffffffffffffffffff1673ffffffffffffffffffffffffffffffffffffffff1663a9059cbb33600260003373ffffffffffffffffffffffffffffffffffffffff1673ffffffffffffffffffffffffffffffffffffffff168152602001908152602001600020546040518363ffffffff1660e01b815260040161145c929190611ea6565b6020604051808303816000875af115801561147b573d6000803e3d6000fd5b505050506040513d601f19601f8201168201806040525081019061149f9190611f07565b507fba8de60c3403ec381d1d484652ea1980e3c3e56359195c92525bff4ce47ad98e33600260003373ffffffffffffffffffffffffffffffffffffffff1673ffffffffffffffffffffffffffffffffffffffff16815260200190815260200160002054604051611510929190611ea6565b60405180910390a16000600260003373ffffffffffffffffffffffffffffffffffffffff1673ffffffffffffffffffffffffffffffffffffffff168152602001908152602001600020819055505b600960009054906101000a900473ffffffffffffffffffffffffffffffffffffffff1673ffffffffffffffffffffffffffffffffffffffff1663a9059cbb33836040518363ffffffff1660e01b81526004016115bb929190611ea6565b6020604051808303816000875af11580156115da573d6000803e3d6000fd5b505050506040513d601f19601f820116820180604052508101906115fe9190611f07565b5080600160003373ffffffffffffffffffffffffffffffffffffffff1673ffffffffffffffffffffffffffffffffffffffff168152602001908152602001600020600082825461164e9190611f63565b925050819055506000600160003373ffffffffffffffffffffffffffffffffffffffff1673ffffffffffffffffffffffffffffffffffffffff1681526020019081526020016000205414156116f6576000600460003373ffffffffffffffffffffffffffffffffffffffff1673ffffffffffffffffffffffffffffffffffffffff16815260200190815260200160002060006101000a81548160ff0219169083151502179055505b60006117006106a3565b9050600061170c610370565b90506000811415611724576000600681905550611757565b60075481670de0b6b3a76400008461173c9190612148565b61174691906121d1565b61175091906121d1565b6006819055505b7f85082129d87b2fe11527cb1b3b7a520aeb5aa6913f88a3d8757fe40d1db02fdd3384604051611788929190611ea6565b60405180910390a150506000600a60146101000a81548160ff02191690831515021790555050565b600a60009054906101000a900473ffffffffffffffffffffffffffffffffffffffff1681565b60008054906101000a900473ffffffffffffffffffffffffffffffffffffffff1673ffffffffffffffffffffffffffffffffffffffff163373ffffffffffffffffffffffffffffffffffffffff161461182e57600080fd5b6118366118dc565b600060075490506000603c808461184d9190612148565b6118579190612148565b90508060078190555080611869610370565b670de0b6b3a764000061187a6106a3565b6118849190612148565b61188e91906121d1565b61189891906121d1565b6006819055507fa4c3d636d806acaf62da657a8864b7d25ccdd3b6c8ba0e85be92853fa28cbb9782826040516118cf929190612326565b60405180910390a1505050565b60085442116118ea57611afe565b60006118f4610370565b9050600081141561190c574260088190555050611afe565b60006119166106a3565b90506000811415611928575050611afe565b6000600854426119389190611f63565b905060075481111561194a5760075490505b600080600060058054806020026020016040519081016040528092919081815260200182805480156119d157602002820191906000526020600020905b8160009054906101000a900473ffffffffffffffffffffffffffffffffffffffff1673ffffffffffffffffffffffffffffffffffffffff1681526020019060010190808311611987575b50505050509050600092505b8051831015611af057670de0b6b3a76400008460065460016000858881518110611a0a57611a0961234f565b5b602002602001015173ffffffffffffffffffffffffffffffffffffffff1673ffffffffffffffffffffffffffffffffffffffff16815260200190815260200160002054611a579190612148565b611a619190612148565b611a6b91906121d1565b91508160026000838681518110611a8557611a8461234f565b5b602002602001015173ffffffffffffffffffffffffffffffffffffffff1673ffffffffffffffffffffffffffffffffffffffff1681526020019081526020016000206000828254611ad691906120f2565b925050819055508280611ae89061237e565b9350506119dd565b426008819055505050505050505b565b6000806005805480602002602001604051908101604052809291908181526020018280548015611b8557602002820191906000526020600020905b8160009054906101000a900473ffffffffffffffffffffffffffffffffffffffff1673ffffffffffffffffffffffffffffffffffffffff1681526020019060010190808311611b3b575b50505050509050600081519050600080600090505b82811015611c1c5760026000858381518110611bb957611bb861234f565b5b602002602001015173ffffffffffffffffffffffffffffffffffffffff1673ffffffffffffffffffffffffffffffffffffffff1681526020019081526020016000205482611c0791906120f2565b91508080611c149061237e565b915050611b9a565b5080935050505090565b6000819050919050565b611c3981611c26565b82525050565b6000602082019050611c546000830184611c30565b92915050565b600073ffffffffffffffffffffffffffffffffffffffff82169050919050565b6000819050919050565b6000611c9f611c9a611c9584611c5a565b611c7a565b611c5a565b9050919050565b6000611cb182611c84565b9050919050565b6000611cc382611ca6565b9050919050565b611cd381611cb8565b82525050565b6000602082019050611cee6000830184611cca565b92915050565b600080fd5b6000611d0482611c5a565b9050919050565b611d1481611cf9565b8114611d1f57600080fd5b50565b600081359050611d3181611d0b565b92915050565b600060208284031215611d4d57611d4c611cf4565b5b6000611d5b84828501611d22565b91505092915050565b611d6d81611c26565b8114611d7857600080fd5b50565b600081359050611d8a81611d64565b92915050565b600060208284031215611da657611da5611cf4565b5b6000611db484828501611d7b565b91505092915050565b611dc681611cf9565b82525050565b6000602082019050611de16000830184611dbd565b92915050565b600081519050611df681611d64565b92915050565b600060208284031215611e1257611e11611cf4565b5b6000611e2084828501611de7565b91505092915050565b600082825260208201905092915050565b7f4e6f7420656e6f7567682072657761726420696e20706f6f6c2e000000000000600082015250565b6000611e70601a83611e29565b9150611e7b82611e3a565b602082019050919050565b60006020820190508181036000830152611e9f81611e63565b9050919050565b6000604082019050611ebb6000830185611dbd565b611ec86020830184611c30565b9392505050565b60008115159050919050565b611ee481611ecf565b8114611eef57600080fd5b50565b600081519050611f0181611edb565b92915050565b600060208284031215611f1d57611f1c611cf4565b5b6000611f2b84828501611ef2565b91505092915050565b7f4e487b7100000000000000000000000000000000000000000000000000000000600052601160045260246000fd5b6000611f6e82611c26565b9150611f7983611c26565b925082821015611f8c57611f8b611f34565b5b828203905092915050565b7f5374616b696e6720616d6f756e74206d7573742067726561746572207468616e60008201527f207a65726f000000000000000000000000000000000000000000000000000000602082015250565b6000611ff3602583611e29565b9150611ffe82611f97565b604082019050919050565b6000602082019050818103600083015261202281611fe6565b9050919050565b7f4e6f7420656e6f7567682041524d20746f6b656e20746f206265206465706f7360008201527f697465642e000000000000000000000000000000000000000000000000000000602082015250565b6000612085602583611e29565b915061209082612029565b604082019050919050565b600060208201905081810360008301526120b481612078565b9050919050565b60006060820190506120d06000830186611dbd565b6120dd6020830185611dbd565b6120ea6040830184611c30565b949350505050565b60006120fd82611c26565b915061210883611c26565b9250827fffffffffffffffffffffffffffffffffffffffffffffffffffffffffffffffff0382111561213d5761213c611f34565b5b828201905092915050565b600061215382611c26565b915061215e83611c26565b9250817fffffffffffffffffffffffffffffffffffffffffffffffffffffffffffffffff048311821515161561219757612196611f34565b5b828202905092915050565b7f4e487b7100000000000000000000000000000000000000000000000000000000600052601260045260246000fd5b60006121dc82611c26565b91506121e783611c26565b9250826121f7576121f66121a2565b5b828204905092915050565b7f556e7374616b696e6720616d6f756e74206d757374206772656174657220746860008201527f616e207a65726f00000000000000000000000000000000000000000000000000602082015250565b600061225e602783611e29565b915061226982612202565b604082019050919050565b6000602082019050818103600083015261228d81612251565b9050919050565b7f4e6f7420656e6f7567682041524d20746f6b656e20746f20626520776974686460008201527f72617765642e0000000000000000000000000000000000000000000000000000602082015250565b60006122f0602683611e29565b91506122fb82612294565b604082019050919050565b6000602082019050818103600083015261231f816122e3565b9050919050565b600060408201905061233b6000830185611c30565b6123486020830184611c30565b9392505050565b7f4e487b7100000000000000000000000000000000000000000000000000000000600052603260045260246000fd5b600061238982611c26565b91507fffffffffffffffffffffffffffffffffffffffffffffffffffffffffffffffff8214156123bc576123bb611f34565b5b60018201905091905056fea26469706673582212201251ec03467c8c1cfe40ed1b30a2932b2adfeef723dcf4b693980e86544dee6c64736f6c634300080c0033",
  "immutableReferences": {},
  "source": "// SPDX-License-Identifier: MIT\r\npragma solidity ^0.8.0;\r\n\r\nimport \"@openzeppelin/contracts/token/ERC20/ERC20.sol\";\r\n\r\ncontract StakingARM {\r\n\r\n    //Owner address\r\n    address owner;    \r\n\r\n    //User variables\r\n    mapping(address => uint256) stakingBalance;   //User's staked ARM token\r\n    mapping(address => uint256) rewardBalanceOf;  //User's distributed reward from vault which 'NOT YET' claim\r\n    mapping(address => bool) hasStaked; //this variable check if the user used to stake in the vault to prevent duplication of 'stakers[]'.\r\n    mapping(address => bool) isStaking; //Staking status of individual address, FALSE if balance = 0\r\n    address[] stakers; //Address of stakers for rewarding reason\r\n    \r\n    //Vault variables manipulation\r\n    uint256 accRewardPerShare; // spending reward RATE per share :: calculate from TotalRewardRemaining / TotalStakingToken / rewardSpendingDuration\r\n    uint256 rewardSpendingDuration; // Duration in days that the reward will be distributed\r\n    // RewardSpendingDuration is the CONSTANT that indicate the RATE of the current reward will be distributed if no-one is updating the vault\r\n    // Everytime that users stake/unstake/claimReward, the spending rate (accRewardPerShare) will be re-calculated\r\n    uint256 lastRewardTimestamp; //Index of current updated rewardblock (blocktime)\r\n\r\n    //This code is modified from Masterchef contract\r\n        // Whenever a user stake or unstake to the vault.\r\n        //   1. The 'rewardBalance' (and `lastRewardTimestamp`) gets updated.\r\n        //   2. User receives the 'rewardBalanceOf' sent to his/her address. (rewardBalanceOf then set to 0)\r\n        //   3. User's `stakingBalance` gets updated.\r\n        //   4. User's `rewardBalanceOf` gets updated.\r\n\r\n\r\n    IERC20 public armToken;     // ARM token\r\n    IERC20 public rewardToken;  // BUSD token\r\n\r\n\r\n\r\n    //Set object of ARM to armToken and object of BUSD to rewardToken when the contract is deployed.\r\n    constructor(IERC20 importARMToken, IERC20 importRewardToken){\r\n        armToken = importARMToken;\r\n        rewardToken = importRewardToken;\r\n        owner = msg.sender;\r\n        rewardSpendingDuration = 30 days; // set default is 30 days\r\n        lastRewardTimestamp = block.timestamp;\r\n    }\r\n\r\n    event Stake(address _staker, uint _amount);\r\n    event Unstake(address _unstaker, uint _amount);\r\n    event ClaimReward(address _claimer, uint _amount);\r\n    event EmergencyWithdraw(address _withdrawer, uint _amount);\r\n    event SetRewardSpendingDuration(uint OldDuration, uint NewDuration);\r\n\r\n    modifier onlyOwner {\r\n      require(msg.sender == owner);\r\n      _;\r\n    }\r\n\r\n    bool internal locked;\r\n    modifier reentrancyGuard {\r\n        require(!locked);\r\n        locked = true; // lock the re-entrancy before contract execution\r\n        _;\r\n        locked = false; // unlock when finish\r\n    }\r\n\r\n    //--------------------------------------\r\n    //------Reading parameters function-----\r\n    //--------------------------------------\r\n\r\n    //Get the ARM staking for each requested address\r\n    function manualGetStakingBalance(address _staker) view public returns(uint256) {\r\n        return stakingBalance[_staker];\r\n    }\r\n\r\n    //Get the reward balance of each requested address (this included the pending update reward)\r\n    function manualGetRewardBalance(address _staker) view public returns(uint256) {\r\n      uint256 deltaTime = block.timestamp - lastRewardTimestamp;\r\n        if(deltaTime > rewardSpendingDuration){\r\n          deltaTime = rewardSpendingDuration;\r\n        }\r\n        uint256 pendingReward = deltaTime * accRewardPerShare * stakingBalance[_staker];\r\n        uint256 totalReward = rewardBalanceOf[_staker] + pendingReward;\r\n        return totalReward;\r\n    }\r\n\r\n    //Get the owner address\r\n    function getOwner() view public returns(address){\r\n        return owner;\r\n    }\r\n    function getAccRewardPerShare() view public returns(uint) {\r\n        return accRewardPerShare;\r\n    }\r\n    function getLastRewardTimestamp() view public returns(uint){\r\n        return lastRewardTimestamp;\r\n    }\r\n    function getStakingBalance(address user) view public returns(uint){\r\n        return stakingBalance[user];\r\n    }\r\n    //Get the BUSD balance in vault\r\n    function getVaultBalance() public view returns(uint256){\r\n        return rewardToken.balanceOf(address(this));\r\n    }\r\n    //Get the ARM balance in vault\r\n    function getTotalStakedARM() public view returns(uint256){\r\n        return armToken.balanceOf(address(this));\r\n    }\r\n    //Get Total reward pending to be claim\r\n    function getTotalRewardPending() internal view returns(uint256){\r\n        address[] memory varsStaker = stakers;  //get stakers to local memory vars to minimalize gas spend in for loop\r\n        uint256 numberUser = varsStaker.length;\r\n        uint256 totalreward;\r\n        for(uint i = 0; i< numberUser; i++){\r\n          totalreward += rewardBalanceOf[varsStaker[i]];\r\n        }\r\n        return totalreward;\r\n    }\r\n    //Get remaining reward\r\n    function getRewardRemaining() public view returns(uint256)  {\r\n        return (getVaultBalance() - getTotalRewardPending());\r\n    }\r\n    //Reward spending duration return in blocktime\r\n    function getRewardSpendingDuration() public view returns(uint256) {\r\n      return rewardSpendingDuration;\r\n    }\r\n\r\n    function getRewardBalanceOf(address user) public view returns(uint256) {\r\n      return rewardBalanceOf[user];\r\n    }\r\n    //-------------------------------------------------\r\n    //--------------Action function--------------------\r\n    //-------------------------------------------------\r\n\r\n\r\n    function updateRewardBlock() internal{\r\n        //If the lastRewardTimestamp is updated.  No need for update\r\n        if(block.timestamp <= lastRewardTimestamp){\r\n          return;\r\n        }\r\n        uint256 totalStakedARM = getTotalStakedARM(); //The ARM balance in vault contract\r\n        \r\n        //Check if this is the first staker then start the block reward here\r\n        if(totalStakedARM == 0){\r\n          lastRewardTimestamp = block.timestamp;\r\n          return;\r\n        }\r\n        uint256 remainingReward = getRewardRemaining();\r\n        \r\n        //Check if rewardPool is empty\r\n        if(remainingReward == 0){\r\n          return;\r\n        }\r\n\r\n        //Check if the reward block not update for long time (more than the rewardSpendingDuration)\r\n        //then deltaTime to be calculate should be equal to MAX (rewardSpendingDuration)\r\n        uint256 deltaTime = block.timestamp - lastRewardTimestamp;\r\n        if(deltaTime > rewardSpendingDuration){\r\n          deltaTime = rewardSpendingDuration;\r\n        }\r\n        uint i;\r\n        uint gainReward;\r\n        address[] memory varsStaker = stakers;  // gas optimization\r\n        for (i=0 ; i< varsStaker.length ; i++){\r\n          //gainReward is  1e18 :: e18*e18*uint / 1e18\r\n          gainReward = stakingBalance[varsStaker[i]] * accRewardPerShare * deltaTime / 1e18;\r\n          rewardBalanceOf[varsStaker[i]] += gainReward;\r\n        }\r\n        lastRewardTimestamp = block.timestamp;\r\n    }\r\n\r\n    function manualUpdateRewardBlock() external reentrancyGuard{\r\n        updateRewardBlock();\r\n    }\r\n    \r\n\r\n    function stakeARM(uint _amount) external reentrancyGuard {\r\n        //Check the amount and balance of staker\r\n        require(_amount > 0, \"Staking amount must greater than zero\");\r\n        require(armToken.balanceOf(msg.sender)>=_amount, \"Not enough ARM token to be deposited.\");\r\n        //1. update the reward vault to get lastRewardTimestamp\r\n        //2. claim the pending reward\r\n        //3. stake the ARM token\r\n        //4. update accRewardPerShare = totalRemainingBalance / totalStakingBalance / rewardSpendingDuration\r\n\r\n        updateRewardBlock();\r\n\r\n        if(rewardBalanceOf[msg.sender]>0){\r\n          uint256 toBePaid = rewardBalanceOf[msg.sender];\r\n          rewardBalanceOf[msg.sender]=0;\r\n          rewardToken.transfer(msg.sender, toBePaid);\r\n          emit ClaimReward(msg.sender, toBePaid);\r\n        }\r\n\r\n        //Transfer ARM to contract address then update balance\r\n        armToken.transferFrom(msg.sender,address(this),_amount);\r\n        stakingBalance[msg.sender] += _amount;\r\n\r\n        //add staker address to the arrays for rewarding reasons\r\n        if(!hasStaked[msg.sender]){\r\n            stakers.push(msg.sender);\r\n            hasStaked[msg.sender] = true;\r\n        }\r\n        //Currently staking\r\n        isStaking[msg.sender] = true;\r\n\r\n        //Update accRewardPerShare\r\n        uint256 totalRemainingBalance = getRewardRemaining();\r\n        uint256 totalStakingBalance = getTotalStakedARM();\r\n        // newAccRewardPerShare is 1e18 :: e18 * 1e18 / e18 / uint\r\n        uint256 newAccRewardPerShare = (totalRemainingBalance * 1e18 / totalStakingBalance) / rewardSpendingDuration;\r\n        accRewardPerShare = newAccRewardPerShare;\r\n\r\n        emit Stake(msg.sender, _amount);\r\n    }\r\n\r\n\r\n\r\n\r\n    function manualClaimReward() external reentrancyGuard{\r\n        updateRewardBlock();\r\n        require(getRewardRemaining() >= rewardBalanceOf[msg.sender],\"Not enough reward in pool.\");\r\n        if(rewardBalanceOf[msg.sender]>0){\r\n          uint256 toBePaid = rewardBalanceOf[msg.sender];\r\n          rewardBalanceOf[msg.sender]=0;    //set balance to 0 before transfer to double prevent reentrancy guard\r\n          rewardToken.transfer(msg.sender, toBePaid);\r\n          emit ClaimReward(msg.sender, toBePaid);\r\n        }\r\n    }\r\n\r\n\r\n\r\n\r\n    function unstakeARM(uint _amount) external reentrancyGuard{\r\n        //Check the amount and balancer of unstaker\r\n        require(_amount > 0, \"Unstaking amount must greater than zero\");\r\n        require(stakingBalance[msg.sender] >= _amount, \"Not enough ARM token to be withdrawed.\");\r\n        //1. update the reward vault to get lastRewardTimestamp\r\n        //2. claim the pending reward\r\n        //3. unstake the ARM token\r\n        //4. update accRewardPerShare = totalRemainingBalance / totalStakingBalance / rewardSpendingDuration\r\n\r\n        updateRewardBlock();\r\n\r\n        if(rewardBalanceOf[msg.sender]>0){\r\n          rewardToken.transfer(msg.sender, rewardBalanceOf[msg.sender]);\r\n          emit ClaimReward(msg.sender, rewardBalanceOf[msg.sender]);\r\n          rewardBalanceOf[msg.sender]=0;\r\n        }\r\n\r\n        //Transfer ARM to unstaker\r\n        armToken.transfer(msg.sender,_amount);\r\n        //calculate balance after transfer\r\n        stakingBalance[msg.sender] -= _amount;\r\n        if(stakingBalance[msg.sender]==0){\r\n            isStaking[msg.sender] = false;\r\n        }\r\n\r\n        //Update accRewardPerShare\r\n        uint256 totalRemainingBalance = getRewardRemaining();\r\n        uint256 totalStakingBalance = getTotalStakedARM();\r\n        //if totalStakiingBalance = 0 --> no ARM in vault = no reward then  accRewardPerShare = 0\r\n        if(totalStakingBalance==0) {\r\n          accRewardPerShare = 0;\r\n        } else {\r\n          // accRewardPerShare is 1e18 :: e18 * 1e18 / e18 / uint\r\n          accRewardPerShare = (totalRemainingBalance * 1e18 /totalStakingBalance) / rewardSpendingDuration;\r\n        }\r\n\r\n        emit Unstake(msg.sender,_amount);\r\n    }\r\n\r\n    //Set reward duration  only Owner can access\r\n    function setRewardDurationSpending (uint hour) external onlyOwner {\r\n        updateRewardBlock();  //update distribute reward before\r\n        uint OldDuration = rewardSpendingDuration;\r\n        uint NewDuration = hour * 60 * 60; // Input in 'hour', Stored in Seconds\r\n        rewardSpendingDuration = NewDuration; \r\n\r\n        accRewardPerShare = (getRewardRemaining() * 1e18 / getTotalStakedARM()) / NewDuration; // update the distribution RATE\r\n        emit SetRewardSpendingDuration(OldDuration, NewDuration);\r\n    }\r\n\r\n    //Withdraw ARM token without caring reward\r\n    function emergencyWithdraw() external reentrancyGuard {\r\n        armToken.transfer(msg.sender,stakingBalance[msg.sender]);\r\n        emit EmergencyWithdraw(msg.sender, stakingBalance[msg.sender]);\r\n        isStaking[msg.sender] = false;\r\n        rewardBalanceOf[msg.sender] = 0;\r\n        stakingBalance[msg.sender] = 0;\r\n    }\r\n}",
  "sourcePath": "C:\\Users\\chana\\desktop\\aurumdefi\\src\\contracts\\StakingARM.sol",
  "compiler": {
    "name": "solc",
    "version": "0.8.12+commit.f00d7308.Emscripten.clang"
  },
  "schemaVersion": "3.4.6",
  "updatedAt": "2022-03-28T07:40:49.781Z",
  "devdoc": {
    "kind": "dev",
    "methods": {},
    "version": 1
  },
  "userdoc": {
    "kind": "user",
    "methods": {},
    "version": 1
  }
}