{
  "contractName": "TimeLock",
  "abi": [
    {
      "inputs": [
        {
          "internalType": "address",
          "name": "owner_",
          "type": "address"
        }
      ],
      "stateMutability": "nonpayable",
      "type": "constructor"
    },
    {
      "inputs": [
        {
          "internalType": "bytes32",
          "name": "txId",
          "type": "bytes32"
        }
      ],
      "name": "AlreadyQueuedError",
      "type": "error"
    },
    {
      "inputs": [],
      "name": "NotOwnerError",
      "type": "error"
    },
    {
      "inputs": [
        {
          "internalType": "bytes32",
          "name": "txId",
          "type": "bytes32"
        }
      ],
      "name": "NotQueuedError",
      "type": "error"
    },
    {
      "inputs": [
        {
          "internalType": "uint256",
          "name": "blockTimestamp",
          "type": "uint256"
        },
        {
          "internalType": "uint256",
          "name": "expiresAt",
          "type": "uint256"
        }
      ],
      "name": "TimestampExpiredError",
      "type": "error"
    },
    {
      "inputs": [
        {
          "internalType": "uint256",
          "name": "blockTimestamp",
          "type": "uint256"
        },
        {
          "internalType": "uint256",
          "name": "timestamp",
          "type": "uint256"
        }
      ],
      "name": "TimestampNotInRangeError",
      "type": "error"
    },
    {
      "inputs": [
        {
          "internalType": "uint256",
          "name": "blockTimestmap",
          "type": "uint256"
        },
        {
          "internalType": "uint256",
          "name": "timestamp",
          "type": "uint256"
        }
      ],
      "name": "TimestampNotPassedError",
      "type": "error"
    },
    {
      "inputs": [],
      "name": "TxFailedError",
      "type": "error"
    },
    {
      "anonymous": false,
      "inputs": [
        {
          "indexed": true,
          "internalType": "bytes32",
          "name": "txId",
          "type": "bytes32"
        }
      ],
      "name": "Cancel",
      "type": "event"
    },
    {
      "anonymous": false,
      "inputs": [
        {
          "indexed": true,
          "internalType": "bytes32",
          "name": "txId",
          "type": "bytes32"
        },
        {
          "indexed": true,
          "internalType": "address",
          "name": "target",
          "type": "address"
        },
        {
          "indexed": false,
          "internalType": "uint256",
          "name": "value",
          "type": "uint256"
        },
        {
          "indexed": false,
          "internalType": "string",
          "name": "func",
          "type": "string"
        },
        {
          "indexed": false,
          "internalType": "bytes",
          "name": "data",
          "type": "bytes"
        },
        {
          "indexed": false,
          "internalType": "uint256",
          "name": "timestamp",
          "type": "uint256"
        }
      ],
      "name": "Execute",
      "type": "event"
    },
    {
      "anonymous": false,
      "inputs": [
        {
          "indexed": true,
          "internalType": "bytes32",
          "name": "txId",
          "type": "bytes32"
        },
        {
          "indexed": true,
          "internalType": "address",
          "name": "target",
          "type": "address"
        },
        {
          "indexed": false,
          "internalType": "uint256",
          "name": "value",
          "type": "uint256"
        },
        {
          "indexed": false,
          "internalType": "string",
          "name": "func",
          "type": "string"
        },
        {
          "indexed": false,
          "internalType": "bytes",
          "name": "data",
          "type": "bytes"
        },
        {
          "indexed": false,
          "internalType": "uint256",
          "name": "timestamp",
          "type": "uint256"
        }
      ],
      "name": "Queue",
      "type": "event"
    },
    {
      "inputs": [],
      "name": "GRACE_PERIOD",
      "outputs": [
        {
          "internalType": "uint256",
          "name": "",
          "type": "uint256"
        }
      ],
      "stateMutability": "view",
      "type": "function",
      "constant": true
    },
    {
      "inputs": [],
      "name": "MAX_DELAY",
      "outputs": [
        {
          "internalType": "uint256",
          "name": "",
          "type": "uint256"
        }
      ],
      "stateMutability": "view",
      "type": "function",
      "constant": true
    },
    {
      "inputs": [],
      "name": "MIN_DELAY",
      "outputs": [
        {
          "internalType": "uint256",
          "name": "",
          "type": "uint256"
        }
      ],
      "stateMutability": "view",
      "type": "function",
      "constant": true
    },
    {
      "inputs": [],
      "name": "owner",
      "outputs": [
        {
          "internalType": "address",
          "name": "",
          "type": "address"
        }
      ],
      "stateMutability": "view",
      "type": "function",
      "constant": true
    },
    {
      "inputs": [
        {
          "internalType": "bytes32",
          "name": "",
          "type": "bytes32"
        }
      ],
      "name": "queued",
      "outputs": [
        {
          "internalType": "bool",
          "name": "",
          "type": "bool"
        }
      ],
      "stateMutability": "view",
      "type": "function",
      "constant": true
    },
    {
      "stateMutability": "payable",
      "type": "receive",
      "payable": true
    },
    {
      "inputs": [
        {
          "internalType": "address",
          "name": "_target",
          "type": "address"
        },
        {
          "internalType": "uint256",
          "name": "_value",
          "type": "uint256"
        },
        {
          "internalType": "string",
          "name": "_func",
          "type": "string"
        },
        {
          "internalType": "bytes",
          "name": "_data",
          "type": "bytes"
        },
        {
          "internalType": "uint256",
          "name": "_timestamp",
          "type": "uint256"
        }
      ],
      "name": "getTxId",
      "outputs": [
        {
          "internalType": "bytes32",
          "name": "",
          "type": "bytes32"
        }
      ],
      "stateMutability": "pure",
      "type": "function",
      "constant": true
    },
    {
      "inputs": [
        {
          "internalType": "address",
          "name": "_target",
          "type": "address"
        },
        {
          "internalType": "uint256",
          "name": "_value",
          "type": "uint256"
        },
        {
          "internalType": "string",
          "name": "_func",
          "type": "string"
        },
        {
          "internalType": "bytes",
          "name": "_data",
          "type": "bytes"
        },
        {
          "internalType": "uint256",
          "name": "_timestamp",
          "type": "uint256"
        }
      ],
      "name": "queue",
      "outputs": [
        {
          "internalType": "bytes32",
          "name": "txId",
          "type": "bytes32"
        }
      ],
      "stateMutability": "nonpayable",
      "type": "function"
    },
    {
      "inputs": [
        {
          "internalType": "address",
          "name": "_target",
          "type": "address"
        },
        {
          "internalType": "uint256",
          "name": "_value",
          "type": "uint256"
        },
        {
          "internalType": "string",
          "name": "_func",
          "type": "string"
        },
        {
          "internalType": "bytes",
          "name": "_data",
          "type": "bytes"
        },
        {
          "internalType": "uint256",
          "name": "_timestamp",
          "type": "uint256"
        }
      ],
      "name": "execute",
      "outputs": [
        {
          "internalType": "bytes",
          "name": "",
          "type": "bytes"
        }
      ],
      "stateMutability": "payable",
      "type": "function",
      "payable": true
    },
    {
      "inputs": [
        {
          "internalType": "bytes32",
          "name": "_txId",
          "type": "bytes32"
        }
      ],
      "name": "cancel",
      "outputs": [],
      "stateMutability": "nonpayable",
      "type": "function"
    }
  ],
  "bytecode": "0x60806040523480156200001157600080fd5b50604051620011d3380380620011d38339818101604052810190620000379190620000e8565b806000806101000a81548173ffffffffffffffffffffffffffffffffffffffff021916908373ffffffffffffffffffffffffffffffffffffffff160217905550506200011a565b600080fd5b600073ffffffffffffffffffffffffffffffffffffffff82169050919050565b6000620000b08262000083565b9050919050565b620000c281620000a3565b8114620000ce57600080fd5b50565b600081519050620000e281620000b7565b92915050565b6000602082840312156200010157620001006200007e565b5b60006200011184828501620000d1565b91505092915050565b6110a9806200012a6000396000f3fe60806040526004361061008a5760003560e01c80638da5cb5b116100595780638da5cb5b146101785780639f81aed7146101a3578063b0f8b142146101ce578063c1a287e2146101fe578063c4d252f51461022957610091565b8063228250c9146100965780634125ff90146100d35780634b9915a5146100fe5780638a1ce0b61461013b57610091565b3661009157005b600080fd5b3480156100a257600080fd5b506100bd60048036038101906100b891906109e0565b610252565b6040516100ca9190610a28565b60405180910390f35b3480156100df57600080fd5b506100e8610272565b6040516100f59190610a5c565b60405180910390f35b34801561010a57600080fd5b5061012560048036038101906101209190610bbc565b610279565b6040516101329190610c87565b60405180910390f35b34801561014757600080fd5b50610162600480360381019061015d9190610bbc565b61046f565b60405161016f9190610c87565b60405180910390f35b34801561018457600080fd5b5061018d6104b1565b60405161019a9190610cb1565b60405180910390f35b3480156101af57600080fd5b506101b86104d5565b6040516101c59190610a5c565b60405180910390f35b6101e860048036038101906101e39190610bbc565b6104da565b6040516101f59190610d65565b60405180910390f35b34801561020a57600080fd5b50610213610856565b6040516102209190610a5c565b60405180910390f35b34801561023557600080fd5b50610250600480360381019061024b91906109e0565b61085d565b005b60016020528060005260406000206000915054906101000a900460ff1681565b6203f48081565b60008060009054906101000a900473ffffffffffffffffffffffffffffffffffffffff1673ffffffffffffffffffffffffffffffffffffffff163373ffffffffffffffffffffffffffffffffffffffff1614610301576040517f74a2152700000000000000000000000000000000000000000000000000000000815260040160405180910390fd5b6103108888888888888861046f565b90506001600082815260200190815260200160002060009054906101000a900460ff161561037557806040517f995042be00000000000000000000000000000000000000000000000000000000815260040161036c9190610c87565b60405180910390fd5b600a426103829190610db6565b82108061039c57506203f480426103999190610db6565b82115b156103e05742826040517f1a9616c20000000000000000000000000000000000000000000000000000000081526004016103d7929190610e0c565b60405180910390fd5b600180600083815260200190815260200160002060006101000a81548160ff0219169083151502179055508773ffffffffffffffffffffffffffffffffffffffff16817f3c22f47140594040d205a5533cfedd86c9ab8622c39ead03affb2d97052c794c89898989898960405161045c96959493929190610eaf565b60405180910390a3979650505050505050565b60008787878787878760405160200161048e9796959493929190610f06565b604051602081830303815290604052805190602001209050979650505050505050565b60008054906101000a900473ffffffffffffffffffffffffffffffffffffffff1681565b600a81565b606060008054906101000a900473ffffffffffffffffffffffffffffffffffffffff1673ffffffffffffffffffffffffffffffffffffffff163373ffffffffffffffffffffffffffffffffffffffff1614610561576040517f74a2152700000000000000000000000000000000000000000000000000000000815260040160405180910390fd5b60006105728989898989898961046f565b90506001600082815260200190815260200160002060009054906101000a900460ff166105d657806040517f0995c9d50000000000000000000000000000000000000000000000000000000081526004016105cd9190610c87565b60405180910390fd5b8242101561061d5742836040517f035fce5b000000000000000000000000000000000000000000000000000000008152600401610614929190610e0c565b60405180910390fd5b620151808361062c9190610db6565b421115610680574262015180846106439190610db6565b6040517f92ae26d1000000000000000000000000000000000000000000000000000000008152600401610677929190610e0c565b60405180910390fd5b60006001600083815260200190815260200160002060006101000a81548160ff021916908315150217905550606060008888905011156106fc5787876040516106ca929190610f9b565b604051809103902086866040516020016106e693929190611001565b6040516020818303038152906040529050610744565b85858080601f016020809104026020016040519081016040528093929190818152602001838380828437600081840152601f19601f8201169050808301925050505050505090505b6000808b73ffffffffffffffffffffffffffffffffffffffff168b8460405161076d919061105c565b60006040518083038185875af1925050503d80600081146107aa576040519150601f19603f3d011682016040523d82523d6000602084013e6107af565b606091505b5091509150816107eb576040517fd9b4f81e00000000000000000000000000000000000000000000000000000000815260040160405180910390fd5b8b73ffffffffffffffffffffffffffffffffffffffff16847fd1d5c3c892c18716bd88852091d1b63dc6849e9d7c37f69d566884bf954d4bd98d8d8d8d8d8d60405161083c96959493929190610eaf565b60405180910390a380945050505050979650505050505050565b6201518081565b60008054906101000a900473ffffffffffffffffffffffffffffffffffffffff1673ffffffffffffffffffffffffffffffffffffffff163373ffffffffffffffffffffffffffffffffffffffff16146108e2576040517f74a2152700000000000000000000000000000000000000000000000000000000815260040160405180910390fd5b6001600082815260200190815260200160002060009054906101000a900460ff1661094457806040517f0995c9d500000000000000000000000000000000000000000000000000000000815260040161093b9190610c87565b60405180910390fd5b60006001600083815260200190815260200160002060006101000a81548160ff021916908315150217905550807fe8d9861dbc9c663ed3accd261bbe2fe01e0d3d9e5f51fa38523b265c7757a93a60405160405180910390a250565b600080fd5b600080fd5b6000819050919050565b6109bd816109aa565b81146109c857600080fd5b50565b6000813590506109da816109b4565b92915050565b6000602082840312156109f6576109f56109a0565b5b6000610a04848285016109cb565b91505092915050565b60008115159050919050565b610a2281610a0d565b82525050565b6000602082019050610a3d6000830184610a19565b92915050565b6000819050919050565b610a5681610a43565b82525050565b6000602082019050610a716000830184610a4d565b92915050565b600073ffffffffffffffffffffffffffffffffffffffff82169050919050565b6000610aa282610a77565b9050919050565b610ab281610a97565b8114610abd57600080fd5b50565b600081359050610acf81610aa9565b92915050565b610ade81610a43565b8114610ae957600080fd5b50565b600081359050610afb81610ad5565b92915050565b600080fd5b600080fd5b600080fd5b60008083601f840112610b2657610b25610b01565b5b8235905067ffffffffffffffff811115610b4357610b42610b06565b5b602083019150836001820283011115610b5f57610b5e610b0b565b5b9250929050565b60008083601f840112610b7c57610b7b610b01565b5b8235905067ffffffffffffffff811115610b9957610b98610b06565b5b602083019150836001820283011115610bb557610bb4610b0b565b5b9250929050565b600080600080600080600060a0888a031215610bdb57610bda6109a0565b5b6000610be98a828b01610ac0565b9750506020610bfa8a828b01610aec565b965050604088013567ffffffffffffffff811115610c1b57610c1a6109a5565b5b610c278a828b01610b10565b9550955050606088013567ffffffffffffffff811115610c4a57610c496109a5565b5b610c568a828b01610b66565b93509350506080610c698a828b01610aec565b91505092959891949750929550565b610c81816109aa565b82525050565b6000602082019050610c9c6000830184610c78565b92915050565b610cab81610a97565b82525050565b6000602082019050610cc66000830184610ca2565b92915050565b600081519050919050565b600082825260208201905092915050565b60005b83811015610d06578082015181840152602081019050610ceb565b83811115610d15576000848401525b50505050565b6000601f19601f8301169050919050565b6000610d3782610ccc565b610d418185610cd7565b9350610d51818560208601610ce8565b610d5a81610d1b565b840191505092915050565b60006020820190508181036000830152610d7f8184610d2c565b905092915050565b7f4e487b7100000000000000000000000000000000000000000000000000000000600052601160045260246000fd5b6000610dc182610a43565b9150610dcc83610a43565b9250827fffffffffffffffffffffffffffffffffffffffffffffffffffffffffffffffff03821115610e0157610e00610d87565b5b828201905092915050565b6000604082019050610e216000830185610a4d565b610e2e6020830184610a4d565b9392505050565b600082825260208201905092915050565b82818337600083830152505050565b6000610e618385610e35565b9350610e6e838584610e46565b610e7783610d1b565b840190509392505050565b6000610e8e8385610cd7565b9350610e9b838584610e46565b610ea483610d1b565b840190509392505050565b6000608082019050610ec46000830189610a4d565b8181036020830152610ed7818789610e55565b90508181036040830152610eec818587610e82565b9050610efb6060830184610a4d565b979650505050505050565b600060a082019050610f1b600083018a610ca2565b610f286020830189610a4d565b8181036040830152610f3b818789610e55565b90508181036060830152610f50818587610e82565b9050610f5f6080830184610a4d565b98975050505050505050565b600081905092915050565b6000610f828385610f6b565b9350610f8f838584610e46565b82840190509392505050565b6000610fa8828486610f76565b91508190509392505050565b60007fffffffff0000000000000000000000000000000000000000000000000000000082169050919050565b6000819050919050565b610ffb610ff682610fb4565b610fe0565b82525050565b600061100d8286610fea565b60048201915061101e828486610f76565b9150819050949350505050565b600061103682610ccc565b6110408185610f6b565b9350611050818560208601610ce8565b80840191505092915050565b6000611068828461102b565b91508190509291505056fea26469706673582212204f65a82e45f341533e1d655e6f29c015bee5b6ee0e111f6c007de6a67f6dbe2464736f6c634300080c0033",
  "immutableReferences": {},
  "source": "// SPDX-License-Identifier: MIT\r\npragma solidity =0.8.12;\r\n\r\ncontract TimeLock {\r\n    error NotOwnerError();\r\n    error AlreadyQueuedError(bytes32 txId);\r\n    error TimestampNotInRangeError(uint blockTimestamp, uint timestamp);\r\n    error NotQueuedError(bytes32 txId);\r\n    error TimestampNotPassedError(uint blockTimestmap, uint timestamp);\r\n    error TimestampExpiredError(uint blockTimestamp, uint expiresAt);\r\n    error TxFailedError();\r\n\r\n    event Queue(\r\n        bytes32 indexed txId,\r\n        address indexed target,\r\n        uint value,\r\n        string func,\r\n        bytes data,\r\n        uint timestamp\r\n    );\r\n    event Execute(\r\n        bytes32 indexed txId,\r\n        address indexed target,\r\n        uint value,\r\n        string func,\r\n        bytes data,\r\n        uint timestamp\r\n    );\r\n    event Cancel(bytes32 indexed txId);\r\n\r\n    uint public constant MIN_DELAY = 10; // seconds\r\n    uint public constant MAX_DELAY = 3 days; // seconds\r\n    uint public constant GRACE_PERIOD = 1 days; // seconds\r\n\r\n    address public owner;\r\n    // tx id => queued\r\n    mapping(bytes32 => bool) public queued;\r\n\r\n    constructor(address owner_) {\r\n        owner = owner_;\r\n    }\r\n\r\n    modifier onlyOwner() {\r\n        if (msg.sender != owner) {\r\n            revert NotOwnerError();\r\n        }\r\n        _;\r\n    }\r\n\r\n    receive() external payable {}\r\n\r\n    function getTxId(\r\n        address _target,\r\n        uint _value,\r\n        string calldata _func,\r\n        bytes calldata _data,\r\n        uint _timestamp\r\n    ) public pure returns (bytes32) {\r\n        return keccak256(abi.encode(_target, _value, _func, _data, _timestamp));\r\n    }\r\n\r\n    /**\r\n     * @param _target Address of contract or account to call\r\n     * @param _value Amount of ETH to send\r\n     * @param _func Function signature, for example \"foo(address,uint256)\"\r\n     * @param _data ABI encoded data send.\r\n     * @param _timestamp Timestamp after which the transaction can be executed.\r\n     */\r\n    function queue(\r\n        address _target,\r\n        uint _value,\r\n        string calldata _func,\r\n        bytes calldata _data,\r\n        uint _timestamp\r\n    ) external onlyOwner returns (bytes32 txId) {\r\n        txId = getTxId(_target, _value, _func, _data, _timestamp);\r\n        if (queued[txId]) {\r\n            revert AlreadyQueuedError(txId);\r\n        }\r\n        // ---|------------|---------------|-------\r\n        //  block    block + min     block + max\r\n        if (\r\n            _timestamp < block.timestamp + MIN_DELAY ||\r\n            _timestamp > block.timestamp + MAX_DELAY\r\n        ) {\r\n            revert TimestampNotInRangeError(block.timestamp, _timestamp);\r\n        }\r\n\r\n        queued[txId] = true;\r\n\r\n        emit Queue(txId, _target, _value, _func, _data, _timestamp);\r\n    }\r\n\r\n    function execute(\r\n        address _target,\r\n        uint _value,\r\n        string calldata _func,\r\n        bytes calldata _data,\r\n        uint _timestamp\r\n    ) external payable onlyOwner returns (bytes memory) {\r\n        bytes32 txId = getTxId(_target, _value, _func, _data, _timestamp);\r\n        if (!queued[txId]) {\r\n            revert NotQueuedError(txId);\r\n        }\r\n        // ----|-------------------|-------\r\n        //  timestamp    timestamp + grace period\r\n        if (block.timestamp < _timestamp) {\r\n            revert TimestampNotPassedError(block.timestamp, _timestamp);\r\n        }\r\n        if (block.timestamp > _timestamp + GRACE_PERIOD) {\r\n            revert TimestampExpiredError(block.timestamp, _timestamp + GRACE_PERIOD);\r\n        }\r\n\r\n        queued[txId] = false;\r\n\r\n        // prepare data\r\n        bytes memory data;\r\n        if (bytes(_func).length > 0) {\r\n            // data = func selector + _data\r\n            data = abi.encodePacked(bytes4(keccak256(bytes(_func))), _data);\r\n        } else {\r\n            // call fallback with data\r\n            data = _data;\r\n        }\r\n\r\n        // call target\r\n        (bool ok, bytes memory res) = _target.call{value: _value}(data);\r\n        if (!ok) {\r\n            revert TxFailedError();\r\n        }\r\n\r\n        emit Execute(txId, _target, _value, _func, _data, _timestamp);\r\n\r\n        return res;\r\n    }\r\n\r\n    function cancel(bytes32 _txId) external onlyOwner {\r\n        if (!queued[_txId]) {\r\n            revert NotQueuedError(_txId);\r\n        }\r\n\r\n        queued[_txId] = false;\r\n\r\n        emit Cancel(_txId);\r\n    }\r\n}\r\n",
  "sourcePath": "C:\\Users\\chana\\desktop\\aurumdefi\\src\\contracts\\Timelock.sol",
  "compiler": {
    "name": "solc",
    "version": "0.8.12+commit.f00d7308.Emscripten.clang"
  },
  "schemaVersion": "3.4.6",
  "updatedAt": "2022-05-02T14:11:30.961Z",
  "networkType": "ethereum",
  "devdoc": {
    "kind": "dev",
    "methods": {
      "queue(address,uint256,string,bytes,uint256)": {
        "params": {
          "_data": "ABI encoded data send.",
          "_func": "Function signature, for example \"foo(address,uint256)\"",
          "_target": "Address of contract or account to call",
          "_timestamp": "Timestamp after which the transaction can be executed.",
          "_value": "Amount of ETH to send"
        }
      }
    },
    "version": 1
  },
  "userdoc": {
    "kind": "user",
    "methods": {},
    "version": 1
  }
}