{
  "contractName": "TreasuryWallet",
  "abi": [
    {
      "inputs": [
        {
          "internalType": "address",
          "name": "busd_",
          "type": "address"
        },
        {
          "internalType": "address",
          "name": "compStorage_",
          "type": "address"
        },
        {
          "internalType": "address",
          "name": "uniswapRouters_",
          "type": "address"
        },
        {
          "internalType": "address",
          "name": "armVault_",
          "type": "address"
        },
        {
          "internalType": "uint8",
          "name": "reinvestRatio_",
          "type": "uint8"
        }
      ],
      "stateMutability": "nonpayable",
      "type": "constructor"
    },
    {
      "anonymous": false,
      "inputs": [
        {
          "indexed": false,
          "internalType": "address",
          "name": "token",
          "type": "address"
        },
        {
          "indexed": false,
          "internalType": "uint256",
          "name": "reinvestAmount",
          "type": "uint256"
        },
        {
          "indexed": false,
          "internalType": "uint256",
          "name": "distributeAmount",
          "type": "uint256"
        }
      ],
      "name": "DistributeToken",
      "type": "event"
    },
    {
      "anonymous": false,
      "inputs": [
        {
          "indexed": false,
          "internalType": "address",
          "name": "lendToken",
          "type": "address"
        },
        {
          "indexed": false,
          "internalType": "uint256",
          "name": "amount",
          "type": "uint256"
        }
      ],
      "name": "Reinvest",
      "type": "event"
    },
    {
      "anonymous": false,
      "inputs": [
        {
          "indexed": false,
          "internalType": "uint256",
          "name": "amount",
          "type": "uint256"
        }
      ],
      "name": "SendBUSDToVault",
      "type": "event"
    },
    {
      "anonymous": false,
      "inputs": [
        {
          "indexed": false,
          "internalType": "address",
          "name": "oldARMVault",
          "type": "address"
        },
        {
          "indexed": false,
          "internalType": "address",
          "name": "newARMVault",
          "type": "address"
        }
      ],
      "name": "SetARMVault",
      "type": "event"
    },
    {
      "anonymous": false,
      "inputs": [
        {
          "indexed": false,
          "internalType": "address",
          "name": "oldAdmin",
          "type": "address"
        },
        {
          "indexed": false,
          "internalType": "address",
          "name": "newAdmin",
          "type": "address"
        }
      ],
      "name": "SetAdmin",
      "type": "event"
    },
    {
      "anonymous": false,
      "inputs": [
        {
          "indexed": false,
          "internalType": "address",
          "name": "oldComptroller",
          "type": "address"
        },
        {
          "indexed": false,
          "internalType": "address",
          "name": "newComptroller",
          "type": "address"
        }
      ],
      "name": "SetComptroller",
      "type": "event"
    },
    {
      "anonymous": false,
      "inputs": [
        {
          "indexed": false,
          "internalType": "uint8",
          "name": "oldRatio",
          "type": "uint8"
        },
        {
          "indexed": false,
          "internalType": "uint8",
          "name": "newRatio",
          "type": "uint8"
        }
      ],
      "name": "SetReinvestRatio",
      "type": "event"
    },
    {
      "anonymous": false,
      "inputs": [
        {
          "indexed": false,
          "internalType": "address",
          "name": "oldUniswapRouters",
          "type": "address"
        },
        {
          "indexed": false,
          "internalType": "address",
          "name": "newUniswapRouters",
          "type": "address"
        }
      ],
      "name": "SetUniswapRouters",
      "type": "event"
    },
    {
      "anonymous": false,
      "inputs": [
        {
          "indexed": false,
          "internalType": "address",
          "name": "tokenIn",
          "type": "address"
        },
        {
          "indexed": false,
          "internalType": "address",
          "name": "tokenOut",
          "type": "address"
        },
        {
          "indexed": false,
          "internalType": "uint256",
          "name": "amount",
          "type": "uint256"
        }
      ],
      "name": "Swap",
      "type": "event"
    },
    {
      "anonymous": false,
      "inputs": [
        {
          "indexed": false,
          "internalType": "address",
          "name": "lendToken",
          "type": "address"
        },
        {
          "indexed": false,
          "internalType": "uint256",
          "name": "amount",
          "type": "uint256"
        }
      ],
      "name": "Withdraw",
      "type": "event"
    },
    {
      "inputs": [],
      "name": "admin",
      "outputs": [
        {
          "internalType": "address",
          "name": "",
          "type": "address"
        }
      ],
      "stateMutability": "view",
      "type": "function"
    },
    {
      "inputs": [],
      "name": "armVault",
      "outputs": [
        {
          "internalType": "address",
          "name": "",
          "type": "address"
        }
      ],
      "stateMutability": "view",
      "type": "function"
    },
    {
      "inputs": [],
      "name": "busd",
      "outputs": [
        {
          "internalType": "address",
          "name": "",
          "type": "address"
        }
      ],
      "stateMutability": "view",
      "type": "function"
    },
    {
      "inputs": [],
      "name": "compStorage",
      "outputs": [
        {
          "internalType": "address",
          "name": "",
          "type": "address"
        }
      ],
      "stateMutability": "view",
      "type": "function"
    },
    {
      "inputs": [],
      "name": "uniswapRouters",
      "outputs": [
        {
          "internalType": "address",
          "name": "",
          "type": "address"
        }
      ],
      "stateMutability": "view",
      "type": "function"
    },
    {
      "inputs": [
        {
          "internalType": "contract LendTokenInterface",
          "name": "lendToken",
          "type": "address"
        },
        {
          "internalType": "uint256",
          "name": "amount",
          "type": "uint256"
        }
      ],
      "name": "withdraw",
      "outputs": [],
      "stateMutability": "nonpayable",
      "type": "function"
    },
    {
      "inputs": [],
      "name": "distributionSwitch",
      "outputs": [],
      "stateMutability": "nonpayable",
      "type": "function"
    },
    {
      "inputs": [
        {
          "internalType": "address",
          "name": "to",
          "type": "address"
        },
        {
          "internalType": "uint256",
          "name": "amount",
          "type": "uint256"
        }
      ],
      "name": "withdrawREI",
      "outputs": [],
      "stateMutability": "payable",
      "type": "function"
    },
    {
      "inputs": [
        {
          "internalType": "address",
          "name": "newAdmin",
          "type": "address"
        }
      ],
      "name": "_setAdmin",
      "outputs": [],
      "stateMutability": "nonpayable",
      "type": "function"
    },
    {
      "inputs": [
        {
          "internalType": "address",
          "name": "newComptroller",
          "type": "address"
        }
      ],
      "name": "_setComptroller",
      "outputs": [],
      "stateMutability": "nonpayable",
      "type": "function"
    },
    {
      "inputs": [
        {
          "internalType": "address",
          "name": "newUniswapRouters",
          "type": "address"
        }
      ],
      "name": "_setUniswapRouters",
      "outputs": [],
      "stateMutability": "nonpayable",
      "type": "function"
    },
    {
      "inputs": [
        {
          "internalType": "address",
          "name": "newARMVault",
          "type": "address"
        }
      ],
      "name": "_setARMVault",
      "outputs": [],
      "stateMutability": "nonpayable",
      "type": "function"
    },
    {
      "inputs": [
        {
          "internalType": "uint8",
          "name": "newRatio",
          "type": "uint8"
        }
      ],
      "name": "_setReinvestRatio",
      "outputs": [],
      "stateMutability": "nonpayable",
      "type": "function"
    }
  ],
  "bytecode": "0x60806040523480156200001157600080fd5b5060405162002a8138038062002a81833981810160405281019062000037919062000264565b336000806101000a81548173ffffffffffffffffffffffffffffffffffffffff021916908373ffffffffffffffffffffffffffffffffffffffff16021790555084600160006101000a81548173ffffffffffffffffffffffffffffffffffffffff021916908373ffffffffffffffffffffffffffffffffffffffff16021790555083600260006101000a81548173ffffffffffffffffffffffffffffffffffffffff021916908373ffffffffffffffffffffffffffffffffffffffff16021790555082600360006101000a81548173ffffffffffffffffffffffffffffffffffffffff021916908373ffffffffffffffffffffffffffffffffffffffff16021790555081600460006101000a81548173ffffffffffffffffffffffffffffffffffffffff021916908373ffffffffffffffffffffffffffffffffffffffff16021790555080600460156101000a81548160ff021916908360ff1602179055506000600460146101000a81548160ff0219169083151502179055505050505050620002ec565b600080fd5b600073ffffffffffffffffffffffffffffffffffffffff82169050919050565b6000620001ee82620001c1565b9050919050565b6200020081620001e1565b81146200020c57600080fd5b50565b6000815190506200022081620001f5565b92915050565b600060ff82169050919050565b6200023e8162000226565b81146200024a57600080fd5b50565b6000815190506200025e8162000233565b92915050565b600080600080600060a08688031215620002835762000282620001bc565b5b600062000293888289016200020f565b9550506020620002a6888289016200020f565b9450506040620002b9888289016200020f565b9350506060620002cc888289016200020f565b9250506080620002df888289016200024d565b9150509295509295909350565b61278580620002fc6000396000f3fe6080604052600436106100c25760003560e01c8063b1dfd3bf1161007f578063d5d159bc11610059578063d5d159bc1461021f578063eafa9ff114610248578063f3fef3a314610273578063f851a4401461029c576100c2565b8063b1dfd3bf146101ad578063bd378e8e146101c9578063d0c48c9c146101f4576100c2565b8063082f4c3b146100c75780632a932d26146100f057806336973efb146101195780633a74a767146101305780633ca5b234146101595780634576b5db14610184575b600080fd5b3480156100d357600080fd5b506100ee60048036038101906100e99190611a0c565b6102c7565b005b3480156100fc57600080fd5b5061011760048036038101906101129190611a0c565b610434565b005b34801561012557600080fd5b5061012e6105a1565b005b34801561013c57600080fd5b5061015760048036038101906101529190611a0c565b610722565b005b34801561016557600080fd5b5061016e61088d565b60405161017b9190611a48565b60405180910390f35b34801561019057600080fd5b506101ab60048036038101906101a69190611a0c565b6108b3565b005b6101c760048036038101906101c29190611a99565b610a20565b005b3480156101d557600080fd5b506101de610ab2565b6040516101eb9190611a48565b60405180910390f35b34801561020057600080fd5b50610209610ad8565b6040516102169190611a48565b60405180910390f35b34801561022b57600080fd5b5061024660048036038101906102419190611b12565b610afe565b005b34801561025457600080fd5b5061025d610c4f565b60405161026a9190611a48565b60405180910390f35b34801561027f57600080fd5b5061029a60048036038101906102959190611b7d565b610c75565b005b3480156102a857600080fd5b506102b1610e74565b6040516102be9190611a48565b60405180910390f35b60008054906101000a900473ffffffffffffffffffffffffffffffffffffffff1673ffffffffffffffffffffffffffffffffffffffff163373ffffffffffffffffffffffffffffffffffffffff1614610355576040517f08c379a000000000000000000000000000000000000000000000000000000000815260040161034c90611c1a565b60405180910390fd5b600073ffffffffffffffffffffffffffffffffffffffff168173ffffffffffffffffffffffffffffffffffffffff16141561038f57600080fd5b6000600460009054906101000a900473ffffffffffffffffffffffffffffffffffffffff16905081600460006101000a81548173ffffffffffffffffffffffffffffffffffffffff021916908373ffffffffffffffffffffffffffffffffffffffff1602179055507ff43b70160ea3ffe6dcf16797b5910f669804f54ffea48faaf94543ae2bb8672c8183604051610428929190611c3a565b60405180910390a15050565b60008054906101000a900473ffffffffffffffffffffffffffffffffffffffff1673ffffffffffffffffffffffffffffffffffffffff163373ffffffffffffffffffffffffffffffffffffffff16146104c2576040517f08c379a00000000000000000000000000000000000000000000000000000000081526004016104b990611c1a565b60405180910390fd5b600073ffffffffffffffffffffffffffffffffffffffff168173ffffffffffffffffffffffffffffffffffffffff1614156104fc57600080fd5b6000600360009054906101000a900473ffffffffffffffffffffffffffffffffffffffff16905081600360006101000a81548173ffffffffffffffffffffffffffffffffffffffff021916908373ffffffffffffffffffffffffffffffffffffffff1602179055507f6e9f0fec8d15d9be0ba9d3c807d5b6e5e8c662311938734322014eb83d68fe858183604051610595929190611c3a565b60405180910390a15050565b600460149054906101000a900460ff16156105f1576040517f08c379a00000000000000000000000000000000000000000000000000000000081526004016105e890611caf565b60405180910390fd5b6001600460146101000a81548160ff0219169083151502179055506000600260009054906101000a900473ffffffffffffffffffffffffffffffffffffffff16905060008173ffffffffffffffffffffffffffffffffffffffff1663b0772d0b6040518163ffffffff1660e01b8152600401600060405180830381865afa158015610680573d6000803e3d6000fd5b505050506040513d6000823e3d601f19601f820116820180604052508101906106a99190611e3d565b905060008082519050600091505b8061ffff168261ffff161015610701576106ee838361ffff16815181106106e1576106e0611e86565b5b6020026020010151610e98565b81806106f990611ef2565b9250506106b7565b505050506000600460146101000a81548160ff021916908315150217905550565b60008054906101000a900473ffffffffffffffffffffffffffffffffffffffff1673ffffffffffffffffffffffffffffffffffffffff163373ffffffffffffffffffffffffffffffffffffffff16146107b0576040517f08c379a00000000000000000000000000000000000000000000000000000000081526004016107a790611c1a565b60405180910390fd5b600073ffffffffffffffffffffffffffffffffffffffff168173ffffffffffffffffffffffffffffffffffffffff1614156107ea57600080fd5b60008060009054906101000a900473ffffffffffffffffffffffffffffffffffffffff169050816000806101000a81548173ffffffffffffffffffffffffffffffffffffffff021916908373ffffffffffffffffffffffffffffffffffffffff1602179055507f848ac24ab84501710d6631faab117b66b79aba7ec6f7778cf3bcff428c1a4efc8183604051610881929190611c3a565b60405180910390a15050565b600160009054906101000a900473ffffffffffffffffffffffffffffffffffffffff1681565b60008054906101000a900473ffffffffffffffffffffffffffffffffffffffff1673ffffffffffffffffffffffffffffffffffffffff163373ffffffffffffffffffffffffffffffffffffffff1614610941576040517f08c379a000000000000000000000000000000000000000000000000000000000815260040161093890611c1a565b60405180910390fd5b600073ffffffffffffffffffffffffffffffffffffffff168173ffffffffffffffffffffffffffffffffffffffff16141561097b57600080fd5b6000600260009054906101000a900473ffffffffffffffffffffffffffffffffffffffff16905081600260006101000a81548173ffffffffffffffffffffffffffffffffffffffff021916908373ffffffffffffffffffffffffffffffffffffffff1602179055507ff45d882a72fce9d8d7a7e2e196a338d4d9d4057510b4b9ddf91a7066104d2eaf8183604051610a14929190611c3a565b60405180910390a15050565b60008054906101000a900473ffffffffffffffffffffffffffffffffffffffff1673ffffffffffffffffffffffffffffffffffffffff163373ffffffffffffffffffffffffffffffffffffffff1614610aae576040517f08c379a0000000000000000000000000000000000000000000000000000000008152600401610aa590611c1a565b60405180910390fd5b5050565b600260009054906101000a900473ffffffffffffffffffffffffffffffffffffffff1681565b600460009054906101000a900473ffffffffffffffffffffffffffffffffffffffff1681565b60008054906101000a900473ffffffffffffffffffffffffffffffffffffffff1673ffffffffffffffffffffffffffffffffffffffff163373ffffffffffffffffffffffffffffffffffffffff1614610b8c576040517f08c379a0000000000000000000000000000000000000000000000000000000008152600401610b8390611c1a565b60405180910390fd5b60008160ff1610158015610ba4575060648160ff1611155b610be3576040517f08c379a0000000000000000000000000000000000000000000000000000000008152600401610bda90611f69565b60405180910390fd5b6000600460159054906101000a900460ff16905081600460156101000a81548160ff021916908360ff1602179055507f17a447a714e611c92f26b45d1c345d3ffc6adeddc360644cf5a5925a340ffd658183604051610c43929190611f98565b60405180910390a15050565b600360009054906101000a900473ffffffffffffffffffffffffffffffffffffffff1681565b60008054906101000a900473ffffffffffffffffffffffffffffffffffffffff1673ffffffffffffffffffffffffffffffffffffffff163373ffffffffffffffffffffffffffffffffffffffff1614610d03576040517f08c379a0000000000000000000000000000000000000000000000000000000008152600401610cfa90611c1a565b60405180910390fd5b808273ffffffffffffffffffffffffffffffffffffffff166370a08231306040518263ffffffff1660e01b8152600401610d3d9190611a48565b602060405180830381865afa158015610d5a573d6000803e3d6000fd5b505050506040513d601f19601f82011682018060405250810190610d7e9190611fd6565b1015610d8957600080fd5b60008111610dcc576040517f08c379a0000000000000000000000000000000000000000000000000000000008152600401610dc390611f69565b60405180910390fd5b8173ffffffffffffffffffffffffffffffffffffffff1663db006a75826040518263ffffffff1660e01b8152600401610e059190612012565b600060405180830381600087803b158015610e1f57600080fd5b505af1158015610e33573d6000803e3d6000fd5b505050507f884edad9ce6fa2440d8a54cc123490eb96d2768479d49ff9c7366125a94243648282604051610e6892919061202d565b60405180910390a15050565b60008054906101000a900473ffffffffffffffffffffffffffffffffffffffff1681565b610f4a8173ffffffffffffffffffffffffffffffffffffffff166395d89b416040518163ffffffff1660e01b8152600401600060405180830381865afa158015610ee6573d6000803e3d6000fd5b505050506040513d6000823e3d601f19601f82011682018060405250810190610f0f919061212f565b6040518060400160405280600781526020017f6c656e6452454900000000000000000000000000000000000000000000000000815250611135565b15610f5457611132565b60008173ffffffffffffffffffffffffffffffffffffffff16636f307dc36040518163ffffffff1660e01b8152600401602060405180830381865afa158015610fa1573d6000803e3d6000fd5b505050506040513d601f19601f82011682018060405250810190610fc5919061218d565b905060008173ffffffffffffffffffffffffffffffffffffffff166370a08231306040518263ffffffff1660e01b81526004016110029190611a48565b602060405180830381865afa15801561101f573d6000803e3d6000fd5b505050506040513d601f19601f820116820180604052508101906110439190611fd6565b90506000811415611055575050611132565b6000600460159054906101000a900460ff169050600060648260ff168461107c91906121ba565b6110869190612243565b9050600081846110969190612274565b905060008211156110ac576110ab868361118e565b5b60008111156110f15760006110e486600160009054906101000a900473ffffffffffffffffffffffffffffffffffffffff168461143a565b90506110ef8161174e565b505b7f7f3494fc2348ba13898c6d7546b3903d0864084c91846853430e9fb59ee4f08b858383604051611124939291906122a8565b60405180910390a150505050505b50565b6000816040516020016111489190612326565b604051602081830303815290604052805190602001208360405160200161116f9190612326565b6040516020818303038152906040528051906020012014905092915050565b60008273ffffffffffffffffffffffffffffffffffffffff16636f307dc36040518163ffffffff1660e01b8152600401602060405180830381865afa1580156111db573d6000803e3d6000fd5b505050506040513d601f19601f820116820180604052508101906111ff919061218d565b9050818173ffffffffffffffffffffffffffffffffffffffff166370a08231306040518263ffffffff1660e01b815260040161123b9190611a48565b602060405180830381865afa158015611258573d6000803e3d6000fd5b505050506040513d601f19601f8201168201806040525081019061127c9190611fd6565b10156112bd576040517f08c379a00000000000000000000000000000000000000000000000000000000081526004016112b490612389565b60405180910390fd5b60008211611300576040517f08c379a00000000000000000000000000000000000000000000000000000000081526004016112f790611f69565b60405180910390fd5b8073ffffffffffffffffffffffffffffffffffffffff1663095ea7b384846040518363ffffffff1660e01b815260040161133b92919061202d565b6020604051808303816000875af115801561135a573d6000803e3d6000fd5b505050506040513d601f19601f8201168201806040525081019061137e91906123e1565b508273ffffffffffffffffffffffffffffffffffffffff1663a0712d68836040518263ffffffff1660e01b81526004016113b89190612012565b6020604051808303816000875af11580156113d7573d6000803e3d6000fd5b505050506040513d601f19601f820116820180604052508101906113fb9190611fd6565b507fbd654390d0d973e8c8376ed6053be8658870df892687852cc5c914d700291b87838360405161142d92919061202d565b60405180910390a1505050565b600080600360009054906101000a900473ffffffffffffffffffffffffffffffffffffffff16905060008190506000869050848173ffffffffffffffffffffffffffffffffffffffff166370a08231306040518263ffffffff1660e01b81526004016114a69190611a48565b602060405180830381865afa1580156114c3573d6000803e3d6000fd5b505050506040513d601f19601f820116820180604052508101906114e79190611fd6565b1015611528576040517f08c379a000000000000000000000000000000000000000000000000000000000815260040161151f90612389565b60405180910390fd5b6000851161156b576040517f08c379a000000000000000000000000000000000000000000000000000000000815260040161156290611f69565b60405180910390fd5b8073ffffffffffffffffffffffffffffffffffffffff1663095ea7b384876040518363ffffffff1660e01b81526004016115a692919061202d565b6020604051808303816000875af11580156115c5573d6000803e3d6000fd5b505050506040513d601f19601f820116820180604052508101906115e991906123e1565b506060878160008151811061160157611600611e86565b5b602002602001019073ffffffffffffffffffffffffffffffffffffffff16908173ffffffffffffffffffffffffffffffffffffffff168152505086816001815181106116505761164f611e86565b5b602002602001019073ffffffffffffffffffffffffffffffffffffffff16908173ffffffffffffffffffffffffffffffffffffffff168152505060008373ffffffffffffffffffffffffffffffffffffffff166338ed17398860018530426040518663ffffffff1660e01b81526004016116ce959493929190612511565b6000604051808303816000875af11580156116ed573d6000803e3d6000fd5b505050506040513d6000823e3d601f19601f82011682018060405250810190611716919061262e565b905080600182516117279190612274565b8151811061173857611737611e86565b5b6020026020010151955050505050509392505050565b6000600160009054906101000a900473ffffffffffffffffffffffffffffffffffffffff1690506000600460009054906101000a900473ffffffffffffffffffffffffffffffffffffffff169050828273ffffffffffffffffffffffffffffffffffffffff166370a08231306040518263ffffffff1660e01b81526004016117d69190611a48565b602060405180830381865afa1580156117f3573d6000803e3d6000fd5b505050506040513d601f19601f820116820180604052508101906118179190611fd6565b1015611858576040517f08c379a000000000000000000000000000000000000000000000000000000000815260040161184f906126c3565b60405180910390fd5b6000831161189b576040517f08c379a000000000000000000000000000000000000000000000000000000000815260040161189290611f69565b60405180910390fd5b60008273ffffffffffffffffffffffffffffffffffffffff1663a9059cbb83866040518363ffffffff1660e01b81526004016118d892919061202d565b6020604051808303816000875af11580156118f7573d6000803e3d6000fd5b505050506040513d601f19601f8201168201806040525081019061191b91906123e1565b90508061195d576040517f08c379a00000000000000000000000000000000000000000000000000000000081526004016119549061272f565b60405180910390fd5b7f27a17079ff5974b0187a2665f922f8e85abfc4ec8a64b2c63fc893624d39c4a78460405161198c9190612012565b60405180910390a150505050565b6000604051905090565b600080fd5b600080fd5b600073ffffffffffffffffffffffffffffffffffffffff82169050919050565b60006119d9826119ae565b9050919050565b6119e9816119ce565b81146119f457600080fd5b50565b600081359050611a06816119e0565b92915050565b600060208284031215611a2257611a216119a4565b5b6000611a30848285016119f7565b91505092915050565b611a42816119ce565b82525050565b6000602082019050611a5d6000830184611a39565b92915050565b6000819050919050565b611a7681611a63565b8114611a8157600080fd5b50565b600081359050611a9381611a6d565b92915050565b60008060408385031215611ab057611aaf6119a4565b5b6000611abe858286016119f7565b9250506020611acf85828601611a84565b9150509250929050565b600060ff82169050919050565b611aef81611ad9565b8114611afa57600080fd5b50565b600081359050611b0c81611ae6565b92915050565b600060208284031215611b2857611b276119a4565b5b6000611b3684828501611afd565b91505092915050565b6000611b4a826119ce565b9050919050565b611b5a81611b3f565b8114611b6557600080fd5b50565b600081359050611b7781611b51565b92915050565b60008060408385031215611b9457611b936119a4565b5b6000611ba285828601611b68565b9250506020611bb385828601611a84565b9150509250929050565b600082825260208201905092915050565b7f4f6e6c7941646d696e0000000000000000000000000000000000000000000000600082015250565b6000611c04600983611bbd565b9150611c0f82611bce565b602082019050919050565b60006020820190508181036000830152611c3381611bf7565b9050919050565b6000604082019050611c4f6000830185611a39565b611c5c6020830184611a39565b9392505050565b7f6e6f207265656e7472616e636500000000000000000000000000000000000000600082015250565b6000611c99600d83611bbd565b9150611ca482611c63565b602082019050919050565b60006020820190508181036000830152611cc881611c8c565b9050919050565b600080fd5b6000601f19601f8301169050919050565b7f4e487b7100000000000000000000000000000000000000000000000000000000600052604160045260246000fd5b611d1d82611cd4565b810181811067ffffffffffffffff82111715611d3c57611d3b611ce5565b5b80604052505050565b6000611d4f61199a565b9050611d5b8282611d14565b919050565b600067ffffffffffffffff821115611d7b57611d7a611ce5565b5b602082029050602081019050919050565b600080fd5b600081519050611da081611b51565b92915050565b6000611db9611db484611d60565b611d45565b90508083825260208201905060208402830185811115611ddc57611ddb611d8c565b5b835b81811015611e055780611df18882611d91565b845260208401935050602081019050611dde565b5050509392505050565b600082601f830112611e2457611e23611ccf565b5b8151611e34848260208601611da6565b91505092915050565b600060208284031215611e5357611e526119a4565b5b600082015167ffffffffffffffff811115611e7157611e706119a9565b5b611e7d84828501611e0f565b91505092915050565b7f4e487b7100000000000000000000000000000000000000000000000000000000600052603260045260246000fd5b7f4e487b7100000000000000000000000000000000000000000000000000000000600052601160045260246000fd5b600061ffff82169050919050565b6000611efd82611ee4565b915061ffff821415611f1257611f11611eb5565b5b600182019050919050565b7f4241445f494e5055540000000000000000000000000000000000000000000000600082015250565b6000611f53600983611bbd565b9150611f5e82611f1d565b602082019050919050565b60006020820190508181036000830152611f8281611f46565b9050919050565b611f9281611ad9565b82525050565b6000604082019050611fad6000830185611f89565b611fba6020830184611f89565b9392505050565b600081519050611fd081611a6d565b92915050565b600060208284031215611fec57611feb6119a4565b5b6000611ffa84828501611fc1565b91505092915050565b61200c81611a63565b82525050565b60006020820190506120276000830184612003565b92915050565b60006040820190506120426000830185611a39565b61204f6020830184612003565b9392505050565b600080fd5b600067ffffffffffffffff82111561207657612075611ce5565b5b61207f82611cd4565b9050602081019050919050565b60005b838110156120aa57808201518184015260208101905061208f565b838111156120b9576000848401525b50505050565b60006120d26120cd8461205b565b611d45565b9050828152602081018484840111156120ee576120ed612056565b5b6120f984828561208c565b509392505050565b600082601f83011261211657612115611ccf565b5b81516121268482602086016120bf565b91505092915050565b600060208284031215612145576121446119a4565b5b600082015167ffffffffffffffff811115612163576121626119a9565b5b61216f84828501612101565b91505092915050565b600081519050612187816119e0565b92915050565b6000602082840312156121a3576121a26119a4565b5b60006121b184828501612178565b91505092915050565b60006121c582611a63565b91506121d083611a63565b9250817fffffffffffffffffffffffffffffffffffffffffffffffffffffffffffffffff048311821515161561220957612208611eb5565b5b828202905092915050565b7f4e487b7100000000000000000000000000000000000000000000000000000000600052601260045260246000fd5b600061224e82611a63565b915061225983611a63565b92508261226957612268612214565b5b828204905092915050565b600061227f82611a63565b915061228a83611a63565b92508282101561229d5761229c611eb5565b5b828203905092915050565b60006060820190506122bd6000830186611a39565b6122ca6020830185612003565b6122d76040830184612003565b949350505050565b600081519050919050565b600081905092915050565b6000612300826122df565b61230a81856122ea565b935061231a81856020860161208c565b80840191505092915050565b600061233282846122f5565b915081905092915050565b7f4e6f7420656e6f7567682062616c616e63650000000000000000000000000000600082015250565b6000612373601283611bbd565b915061237e8261233d565b602082019050919050565b600060208201905081810360008301526123a281612366565b9050919050565b60008115159050919050565b6123be816123a9565b81146123c957600080fd5b50565b6000815190506123db816123b5565b92915050565b6000602082840312156123f7576123f66119a4565b5b6000612405848285016123cc565b91505092915050565b6000819050919050565b6000819050919050565b600061243d6124386124338461240e565b612418565b611a63565b9050919050565b61244d81612422565b82525050565b600081519050919050565b600082825260208201905092915050565b6000819050602082019050919050565b612488816119ce565b82525050565b600061249a838361247f565b60208301905092915050565b6000602082019050919050565b60006124be82612453565b6124c8818561245e565b93506124d38361246f565b8060005b838110156125045781516124eb888261248e565b97506124f6836124a6565b9250506001810190506124d7565b5085935050505092915050565b600060a0820190506125266000830188612003565b6125336020830187612444565b818103604083015261254581866124b3565b90506125546060830185611a39565b6125616080830184612003565b9695505050505050565b600067ffffffffffffffff82111561258657612585611ce5565b5b602082029050602081019050919050565b60006125aa6125a58461256b565b611d45565b905080838252602082019050602084028301858111156125cd576125cc611d8c565b5b835b818110156125f657806125e28882611fc1565b8452602084019350506020810190506125cf565b5050509392505050565b600082601f83011261261557612614611ccf565b5b8151612625848260208601612597565b91505092915050565b600060208284031215612644576126436119a4565b5b600082015167ffffffffffffffff811115612662576126616119a9565b5b61266e84828501612600565b91505092915050565b7f4e6f7420656e6f75676820425553440000000000000000000000000000000000600082015250565b60006126ad600f83611bbd565b91506126b882612677565b602082019050919050565b600060208201905081810360008301526126dc816126a0565b9050919050565b7f5472616e73666572206661696c65640000000000000000000000000000000000600082015250565b6000612719600f83611bbd565b9150612724826126e3565b602082019050919050565b600060208201905081810360008301526127488161270c565b905091905056fea2646970667358221220a013e922ad502b07380d5e86a23bd847d5d53b2c2ec6b570ba2f07ce81d58a0264736f6c634300080c0033",
  "immutableReferences": {},
  "source": "// SPDX-License-Identifier: MIT\r\npragma solidity ^0.8.0;\r\n\r\nimport './interface/ComptrollerInterface.sol';\r\n// import './interface/StakingARMInterface.sol';\r\nimport './interface/UniswapInterface.sol';\r\nimport \"@openzeppelin/contracts/token/ERC20/IERC20.sol\";\r\n\r\ncontract TreasuryWallet {\r\n    address public admin;\r\n    \r\n    address public busd; // kBUSD address, this will reference stable coin to be switch to and send them to Vault to distribute to share hodlers.\r\n\r\n    address public compStorage;\r\n    address public uniswapRouters; // This refer to uniswap v2 router\r\n    address public armVault; // The reward distributing vault (Distribute kBUSD), only send kBUSD to this address, the contract will automatic adjust reward spending.\r\n\r\n    bool locked;\r\n\r\n    uint8 reinvestRatio; // 0 = 0%, 100 = 100%\r\n\r\n    constructor (address busd_, address compStorage_, address uniswapRouters_, address armVault_, uint8 reinvestRatio_) {\r\n        admin = msg.sender;\r\n        busd = busd_;\r\n        compStorage = compStorage_;\r\n        uniswapRouters = uniswapRouters_;\r\n        armVault = armVault_;\r\n\r\n        reinvestRatio = reinvestRatio_;\r\n        locked = false;\r\n    }\r\n\r\n\r\n    event SendBUSDToVault(uint amount);\r\n    event Swap(address tokenIn, address tokenOut, uint amount);\r\n    event Reinvest(address lendToken, uint amount);\r\n    event Withdraw(address lendToken, uint amount);\r\n    event DistributeToken(address token, uint reinvestAmount, uint distributeAmount);\r\n\r\n    event SetAdmin(address oldAdmin, address newAdmin);\r\n    event SetComptroller(address oldComptroller, address newComptroller);\r\n    event SetUniswapRouters(address oldUniswapRouters, address newUniswapRouters);\r\n    event SetARMVault(address oldARMVault, address newARMVault);\r\n    event SetReinvestRatio(uint8 oldRatio, uint8 newRatio);\r\n\r\n    modifier onlyAdmin {\r\n        require(msg.sender == admin, \"OnlyAdmin\");\r\n        _;\r\n    }\r\n\r\n    modifier noReentrance {\r\n        require(!locked, \"no reentrance\");\r\n        locked = true;\r\n        _;\r\n        locked = false;\r\n    }\r\n\r\n\r\n\r\n    // This function will send BUSD to armVault\r\n    function sendToVault(uint amount) internal {\r\n        IERC20 kBUSD = IERC20(busd);\r\n        address vault = armVault;\r\n        require(kBUSD.balanceOf(address(this)) >= amount, \"Not enough BUSD\");\r\n        require(amount > 0, \"BAD_INPUT\");\r\n        \r\n        bool success = kBUSD.transfer(vault, amount);\r\n        require(success,\"Transfer failed\");\r\n\r\n        emit SendBUSDToVault(amount);\r\n    }\r\n\r\n    // Call swap function of Uniswap V2\r\n    function swap(address tokenA, address tokenB, uint amountIn) internal returns(uint amountOut) {\r\n        address varRouter = uniswapRouters;\r\n        IUniswapV2Router routerContract = IUniswapV2Router(varRouter);\r\n        IERC20 tokenIn = IERC20(tokenA);\r\n\r\n        require(tokenIn.balanceOf(address(this))>=amountIn, \"Not enough balance\");\r\n        require(amountIn > 0, \"BAD_INPUT\");\r\n\r\n        //Approve the tokenA\r\n        tokenIn.approve(varRouter, amountIn);\r\n\r\n        //Setting path\r\n        address[] memory path;\r\n        path[0] = tokenA;\r\n        path[1] = tokenB;\r\n\r\n        //Swap A to B\r\n        (uint[] memory amount) = routerContract.swapExactTokensForTokens(amountIn, 1, path, address(this), block.timestamp);\r\n\r\n        amountOut = amount[amount.length-1]; // return amountOut;\r\n    }\r\n\r\n    /* Reinvest and Withdraw function\r\n     * These function interact with LendToken contract to Deposit OR Withdraw underlying tokens\r\n     */\r\n    function reinvest(LendTokenInterface lendToken, uint amount) internal {\r\n        IERC20 underlying = IERC20(lendToken.underlying());\r\n        require(underlying.balanceOf(address(this)) >= amount,\"Not enough balance\");\r\n        require(amount > 0, \"BAD_INPUT\");\r\n\r\n        //Approve underlying\r\n        underlying.approve(address(lendToken), amount); // Deposit underlying to lendToken contract\r\n\r\n        //Deposit\r\n        lendToken.mint(amount);\r\n        emit Reinvest(address(lendToken), amount);\r\n    }\r\n\r\n    function withdraw(LendTokenInterface lendToken, uint amount) external onlyAdmin {\r\n        require(lendToken.balanceOf(address(this)) >= amount);\r\n        require(amount > 0, \"BAD_INPUT\");\r\n\r\n        //Withdraw\r\n        lendToken.redeem(amount); // redeem amount using lendToken amount\r\n        emit Withdraw(address(lendToken), amount);\r\n    }\r\n\r\n    //ALL-IN-ONE switch will do following functions\r\n    //  Divided each tokens to 2 part\r\n    //  First part is reinvest\r\n    //  Second part is swap to kBUSD and transfer to armVault\r\n    //--Anyone can trigger this button !!\r\n    function distributionSwitch() external noReentrance {\r\n        ComptrollerStorageInterface comptrollerStorage = ComptrollerStorageInterface(compStorage);\r\n        LendTokenInterface[] memory markets = comptrollerStorage.getAllMarkets();\r\n        uint16 i;\r\n        uint16 len = uint16(markets.length);\r\n        for(i=0; i<len; i++){\r\n            distributeEachTokens(markets[i]);\r\n        }\r\n\r\n    }\r\n\r\n    function distributeEachTokens(LendTokenInterface lendToken) internal {\r\n        //Rule out the lendREI first\r\n        if(compareStrings(lendToken.symbol(), \"lendREI\")){\r\n            return; // lendREI not use for calculation, Admin can withdraw all REI using withdrawREI function\r\n        }\r\n\r\n        IERC20 underlying = IERC20(lendToken.underlying());\r\n\r\n        //Check balance\r\n        uint balance = underlying.balanceOf(address(this));\r\n        if(balance == 0){\r\n            return; //Short circuit out\r\n        }\r\n\r\n        //Divided to 2 part\r\n        uint8 varsReinvest = reinvestRatio;\r\n        \r\n        uint reinvestAmount = balance * varsReinvest / 100;\r\n        uint distributeAmount = balance - reinvestAmount;\r\n\r\n        //Reinvestment\r\n        if(reinvestAmount > 0){\r\n            reinvest(lendToken, reinvestAmount); //Deposit to the LendToken contract.\r\n        }\r\n\r\n        //Distribute -- Swap and transfer that amount\r\n        if(distributeAmount > 0){\r\n            uint actualBUSDget = swap(address(underlying), busd, distributeAmount);\r\n            sendToVault(actualBUSDget);\r\n        }\r\n        emit DistributeToken(address(underlying), reinvestAmount, distributeAmount);\r\n    }\r\n\r\n    function compareStrings(string memory a, string memory b) internal pure returns (bool) {\r\n        return (keccak256(abi.encodePacked((a))) == keccak256(abi.encodePacked((b))));\r\n    }\r\n\r\n    function withdrawREI(address to, uint amount) external payable onlyAdmin {\r\n\r\n    }\r\n\r\n    // ==================================\r\n    //  Admin function\r\n    // ==================================\r\n    function _setAdmin (address newAdmin) external onlyAdmin {\r\n        require(newAdmin != address(0));\r\n        address oldAdmin = admin;\r\n        admin = newAdmin;\r\n\r\n        emit SetAdmin(oldAdmin, newAdmin);\r\n    }\r\n\r\n    function _setComptroller (address newComptroller) external onlyAdmin {\r\n        require(newComptroller != address(0));\r\n        address oldComptroller = compStorage;\r\n        compStorage = newComptroller;\r\n\r\n        emit SetComptroller(oldComptroller, newComptroller);\r\n    }\r\n\r\n    function _setUniswapRouters(address newUniswapRouters) external onlyAdmin {\r\n        require(newUniswapRouters != address(0));\r\n        address oldUniswapRouters = uniswapRouters;\r\n        uniswapRouters = newUniswapRouters;\r\n\r\n        emit SetUniswapRouters(oldUniswapRouters, newUniswapRouters);\r\n    }\r\n\r\n    function _setARMVault(address newARMVault) external onlyAdmin {\r\n        require(newARMVault != address(0));\r\n        address oldARMVault = armVault;\r\n        armVault = newARMVault;\r\n\r\n        emit SetARMVault(oldARMVault, newARMVault);\r\n    }\r\n\r\n    function _setReinvestRatio(uint8 newRatio) external onlyAdmin {\r\n        require(newRatio>=0 && newRatio<=100, \"BAD_INPUT\");\r\n        uint8 oldRatio = reinvestRatio;\r\n        reinvestRatio = newRatio;\r\n\r\n        emit SetReinvestRatio(oldRatio, newRatio);\r\n    }\r\n}",
  "sourcePath": "C:\\Users\\chana\\desktop\\aurumdefi\\src\\contracts\\TreasuryWallet.sol",
  "compiler": {
    "name": "solc",
    "version": "0.8.12+commit.f00d7308.Emscripten.clang"
  },
  "schemaVersion": "3.4.6",
  "updatedAt": "2022-04-16T15:53:56.816Z",
  "devdoc": {
    "kind": "dev",
    "methods": {},
    "version": 1
  },
  "userdoc": {
    "kind": "user",
    "methods": {},
    "version": 1
  }
}