{
  "contractName": "TreasuryAURUM",
  "abi": [
    {
      "inputs": [
        {
          "internalType": "address",
          "name": "busd_",
          "type": "address"
        },
        {
          "internalType": "address",
          "name": "aurum_",
          "type": "address"
        }
      ],
      "stateMutability": "nonpayable",
      "type": "constructor"
    },
    {
      "anonymous": false,
      "inputs": [
        {
          "indexed": false,
          "internalType": "address",
          "name": "to",
          "type": "address"
        },
        {
          "indexed": false,
          "internalType": "uint256",
          "name": "BUSD",
          "type": "uint256"
        },
        {
          "indexed": false,
          "internalType": "uint256",
          "name": "AURUM",
          "type": "uint256"
        },
        {
          "indexed": false,
          "internalType": "uint256",
          "name": "LPToken",
          "type": "uint256"
        }
      ],
      "name": "Migrate",
      "type": "event"
    },
    {
      "anonymous": false,
      "inputs": [
        {
          "indexed": false,
          "internalType": "address",
          "name": "oldAdmin",
          "type": "address"
        },
        {
          "indexed": false,
          "internalType": "address",
          "name": "newAdmin",
          "type": "address"
        }
      ],
      "name": "SetAdmin",
      "type": "event"
    },
    {
      "anonymous": false,
      "inputs": [
        {
          "indexed": false,
          "internalType": "uint256",
          "name": "oldFee",
          "type": "uint256"
        },
        {
          "indexed": false,
          "internalType": "uint256",
          "name": "newFee",
          "type": "uint256"
        }
      ],
      "name": "SetFee",
      "type": "event"
    },
    {
      "anonymous": false,
      "inputs": [
        {
          "indexed": false,
          "internalType": "address",
          "name": "oldPriceOracle",
          "type": "address"
        },
        {
          "indexed": false,
          "internalType": "address",
          "name": "newPriceOracle",
          "type": "address"
        }
      ],
      "name": "SetPriceOracle",
      "type": "event"
    },
    {
      "anonymous": false,
      "inputs": [
        {
          "indexed": false,
          "internalType": "address",
          "name": "oldUniswapFactory",
          "type": "address"
        },
        {
          "indexed": false,
          "internalType": "address",
          "name": "newUniswapFactory",
          "type": "address"
        }
      ],
      "name": "SetUniswapFactory",
      "type": "event"
    },
    {
      "anonymous": false,
      "inputs": [
        {
          "indexed": false,
          "internalType": "address",
          "name": "oldUniswapRouters",
          "type": "address"
        },
        {
          "indexed": false,
          "internalType": "address",
          "name": "newUniswapRouters",
          "type": "address"
        }
      ],
      "name": "SetUniswapRouters",
      "type": "event"
    },
    {
      "inputs": [],
      "name": "admin",
      "outputs": [
        {
          "internalType": "address",
          "name": "",
          "type": "address"
        }
      ],
      "stateMutability": "view",
      "type": "function"
    },
    {
      "inputs": [],
      "name": "aurum",
      "outputs": [
        {
          "internalType": "address",
          "name": "",
          "type": "address"
        }
      ],
      "stateMutability": "view",
      "type": "function"
    },
    {
      "inputs": [],
      "name": "busd",
      "outputs": [
        {
          "internalType": "address",
          "name": "",
          "type": "address"
        }
      ],
      "stateMutability": "view",
      "type": "function"
    },
    {
      "inputs": [],
      "name": "oracle",
      "outputs": [
        {
          "internalType": "contract PriceOracle",
          "name": "",
          "type": "address"
        }
      ],
      "stateMutability": "view",
      "type": "function"
    },
    {
      "inputs": [],
      "name": "swapfee",
      "outputs": [
        {
          "internalType": "uint256",
          "name": "",
          "type": "uint256"
        }
      ],
      "stateMutability": "view",
      "type": "function"
    },
    {
      "inputs": [],
      "name": "uniswapFactory",
      "outputs": [
        {
          "internalType": "address",
          "name": "",
          "type": "address"
        }
      ],
      "stateMutability": "view",
      "type": "function"
    },
    {
      "inputs": [],
      "name": "uniswapRouters",
      "outputs": [
        {
          "internalType": "address",
          "name": "",
          "type": "address"
        }
      ],
      "stateMutability": "view",
      "type": "function"
    },
    {
      "inputs": [],
      "name": "getDEXAURUMPrice",
      "outputs": [
        {
          "internalType": "uint256",
          "name": "price",
          "type": "uint256"
        }
      ],
      "stateMutability": "view",
      "type": "function"
    },
    {
      "inputs": [],
      "name": "arbitrage",
      "outputs": [],
      "stateMutability": "nonpayable",
      "type": "function"
    },
    {
      "inputs": [
        {
          "internalType": "address",
          "name": "newAdmin",
          "type": "address"
        }
      ],
      "name": "_setAdmin",
      "outputs": [],
      "stateMutability": "nonpayable",
      "type": "function"
    },
    {
      "inputs": [
        {
          "internalType": "address",
          "name": "newUniswapRouters",
          "type": "address"
        }
      ],
      "name": "_setUniswapRouters",
      "outputs": [],
      "stateMutability": "nonpayable",
      "type": "function"
    },
    {
      "inputs": [
        {
          "internalType": "address",
          "name": "newUniswapFactory",
          "type": "address"
        }
      ],
      "name": "_setUniswapFactory",
      "outputs": [],
      "stateMutability": "nonpayable",
      "type": "function"
    },
    {
      "inputs": [
        {
          "internalType": "uint256",
          "name": "newFee",
          "type": "uint256"
        }
      ],
      "name": "_setFee",
      "outputs": [],
      "stateMutability": "nonpayable",
      "type": "function"
    },
    {
      "inputs": [
        {
          "internalType": "address",
          "name": "newPriceOracle",
          "type": "address"
        }
      ],
      "name": "_setPriceOracle",
      "outputs": [],
      "stateMutability": "nonpayable",
      "type": "function"
    },
    {
      "inputs": [
        {
          "internalType": "address",
          "name": "to",
          "type": "address"
        }
      ],
      "name": "_migrate",
      "outputs": [],
      "stateMutability": "nonpayable",
      "type": "function"
    }
  ],
  "bytecode": "0x60806040523480156200001157600080fd5b50604051620034f2380380620034f2833981810160405281019062000037919062000186565b336000806101000a81548173ffffffffffffffffffffffffffffffffffffffff021916908373ffffffffffffffffffffffffffffffffffffffff1602179055506000600660146101000a81548160ff02191690831515021790555081600160006101000a81548173ffffffffffffffffffffffffffffffffffffffff021916908373ffffffffffffffffffffffffffffffffffffffff16021790555080600260006101000a81548173ffffffffffffffffffffffffffffffffffffffff021916908373ffffffffffffffffffffffffffffffffffffffff1602179055505050620001cd565b600080fd5b600073ffffffffffffffffffffffffffffffffffffffff82169050919050565b60006200014e8262000121565b9050919050565b620001608162000141565b81146200016c57600080fd5b50565b600081519050620001808162000155565b92915050565b60008060408385031215620001a0576200019f6200011c565b5b6000620001b0858286016200016f565b9250506020620001c3858286016200016f565b9150509250929050565b61331580620001dd6000396000f3fe608060405234801561001057600080fd5b50600436106100f55760003560e01c80636af1b9ce11610097578063ac11505511610066578063ac11505514610228578063c3c0b2b814610244578063eafa9ff114610260578063f851a4401461027e576100f5565b80636af1b9ce146101b25780637dc0d1d0146101d05780638bdb2afa146101ee578063aaa2092c1461020c576100f5565b80633ca5b234116100d35780633ca5b234146101505780634ab698111461016e57806355ee1fe11461018c57806369c8d338146101a8576100f5565b80630784e350146100fa5780632a932d26146101185780633a74a76714610134575b600080fd5b61010261029c565b60405161010f9190612663565b60405180910390f35b610132600480360381019061012d91906126f0565b6102a2565b005b61014e600480360381019061014991906126f0565b61040f565b005b61015861057a565b604051610165919061272c565b60405180910390f35b6101766105a0565b6040516101839190612663565b60405180910390f35b6101a660048036038101906101a191906126f0565b61080d565b005b6101b061097a565b005b6101ba610a0a565b6040516101c7919061272c565b60405180910390f35b6101d8610a30565b6040516101e591906127a6565b60405180910390f35b6101f6610a56565b604051610203919061272c565b60405180910390f35b610226600480360381019061022191906126f0565b610a7c565b005b610242600480360381019061023d91906127ed565b610be9565b005b61025e600480360381019061025991906126f0565b610d07565b005b610268611345565b604051610275919061272c565b60405180910390f35b61028661136b565b604051610293919061272c565b60405180910390f35b60055481565b60008054906101000a900473ffffffffffffffffffffffffffffffffffffffff1673ffffffffffffffffffffffffffffffffffffffff163373ffffffffffffffffffffffffffffffffffffffff1614610330576040517f08c379a000000000000000000000000000000000000000000000000000000000815260040161032790612877565b60405180910390fd5b600073ffffffffffffffffffffffffffffffffffffffff168173ffffffffffffffffffffffffffffffffffffffff16141561036a57600080fd5b6000600360009054906101000a900473ffffffffffffffffffffffffffffffffffffffff16905081600360006101000a81548173ffffffffffffffffffffffffffffffffffffffff021916908373ffffffffffffffffffffffffffffffffffffffff1602179055507f6e9f0fec8d15d9be0ba9d3c807d5b6e5e8c662311938734322014eb83d68fe858183604051610403929190612897565b60405180910390a15050565b60008054906101000a900473ffffffffffffffffffffffffffffffffffffffff1673ffffffffffffffffffffffffffffffffffffffff163373ffffffffffffffffffffffffffffffffffffffff161461049d576040517f08c379a000000000000000000000000000000000000000000000000000000000815260040161049490612877565b60405180910390fd5b600073ffffffffffffffffffffffffffffffffffffffff168173ffffffffffffffffffffffffffffffffffffffff1614156104d757600080fd5b60008060009054906101000a900473ffffffffffffffffffffffffffffffffffffffff169050816000806101000a81548173ffffffffffffffffffffffffffffffffffffffff021916908373ffffffffffffffffffffffffffffffffffffffff1602179055507f848ac24ab84501710d6631faab117b66b79aba7ec6f7778cf3bcff428c1a4efc818360405161056e929190612897565b60405180910390a15050565b600160009054906101000a900473ffffffffffffffffffffffffffffffffffffffff1681565b600080600160009054906101000a900473ffffffffffffffffffffffffffffffffffffffff1690506000600260009054906101000a900473ffffffffffffffffffffffffffffffffffffffff1690506000600460009054906101000a900473ffffffffffffffffffffffffffffffffffffffff16905060008173ffffffffffffffffffffffffffffffffffffffff1663e6a4390585856040518363ffffffff1660e01b8152600401610653929190612897565b602060405180830381865afa158015610670573d6000803e3d6000fd5b505050506040513d601f19601f8201168201806040525081019061069491906128d5565b905060008473ffffffffffffffffffffffffffffffffffffffff166370a08231836040518263ffffffff1660e01b81526004016106d1919061272c565b602060405180830381865afa1580156106ee573d6000803e3d6000fd5b505050506040513d601f19601f820116820180604052508101906107129190612917565b905060008473ffffffffffffffffffffffffffffffffffffffff166370a08231846040518263ffffffff1660e01b815260040161074f919061272c565b602060405180830381865afa15801561076c573d6000803e3d6000fd5b505050506040513d601f19601f820116820180604052508101906107909190612917565b9050600082141580156107a4575060008114155b6107e3576040517f08c379a00000000000000000000000000000000000000000000000000000000081526004016107da90612990565b60405180910390fd5b80670de0b6b3a7640000836107f891906129df565b6108029190612a68565b965050505050505090565b60008054906101000a900473ffffffffffffffffffffffffffffffffffffffff1673ffffffffffffffffffffffffffffffffffffffff163373ffffffffffffffffffffffffffffffffffffffff161461089b576040517f08c379a000000000000000000000000000000000000000000000000000000000815260040161089290612877565b60405180910390fd5b600073ffffffffffffffffffffffffffffffffffffffff168173ffffffffffffffffffffffffffffffffffffffff1614156108d557600080fd5b6000600660009054906101000a900473ffffffffffffffffffffffffffffffffffffffff16905081600660006101000a81548173ffffffffffffffffffffffffffffffffffffffff021916908373ffffffffffffffffffffffffffffffffffffffff1602179055507f6e9f0fec8d15d9be0ba9d3c807d5b6e5e8c662311938734322014eb83d68fe85818360405161096e929190612897565b60405180910390a15050565b600660149054906101000a900460ff16156109ca576040517f08c379a00000000000000000000000000000000000000000000000000000000081526004016109c190612ae5565b60405180910390fd5b6001600660146101000a81548160ff0219169083151502179055506109ed61138f565b6000600660146101000a81548160ff021916908315150217905550565b600260009054906101000a900473ffffffffffffffffffffffffffffffffffffffff1681565b600660009054906101000a900473ffffffffffffffffffffffffffffffffffffffff1681565b600460009054906101000a900473ffffffffffffffffffffffffffffffffffffffff1681565b60008054906101000a900473ffffffffffffffffffffffffffffffffffffffff1673ffffffffffffffffffffffffffffffffffffffff163373ffffffffffffffffffffffffffffffffffffffff1614610b0a576040517f08c379a0000000000000000000000000000000000000000000000000000000008152600401610b0190612877565b60405180910390fd5b600073ffffffffffffffffffffffffffffffffffffffff168173ffffffffffffffffffffffffffffffffffffffff161415610b4457600080fd5b6000600460009054906101000a900473ffffffffffffffffffffffffffffffffffffffff16905081600460006101000a81548173ffffffffffffffffffffffffffffffffffffffff021916908373ffffffffffffffffffffffffffffffffffffffff1602179055507f1d63ba0b48b767ad4e57f2dabb3bc49065423e8fb23b85274d4f8d0c695284898183604051610bdd929190612897565b60405180910390a15050565b60008054906101000a900473ffffffffffffffffffffffffffffffffffffffff1673ffffffffffffffffffffffffffffffffffffffff163373ffffffffffffffffffffffffffffffffffffffff1614610c77576040517f08c379a0000000000000000000000000000000000000000000000000000000008152600401610c6e90612877565b60405180910390fd5b600554811415610cbc576040517f08c379a0000000000000000000000000000000000000000000000000000000008152600401610cb390612b51565b60405180910390fd5b60006005549050816005819055507f032dc6a2d839eb179729a55633fdf1c41a1fc4739394154117005db2b354b9b58183604051610cfb929190612b71565b60405180910390a15050565b60008054906101000a900473ffffffffffffffffffffffffffffffffffffffff1673ffffffffffffffffffffffffffffffffffffffff163373ffffffffffffffffffffffffffffffffffffffff1614610d95576040517f08c379a0000000000000000000000000000000000000000000000000000000008152600401610d8c90612877565b60405180910390fd5b6000600160009054906101000a900473ffffffffffffffffffffffffffffffffffffffff1690506000600260009054906101000a900473ffffffffffffffffffffffffffffffffffffffff1690506000600460009054906101000a900473ffffffffffffffffffffffffffffffffffffffff16905060008173ffffffffffffffffffffffffffffffffffffffff1663e6a4390585856040518363ffffffff1660e01b8152600401610e47929190612897565b602060405180830381865afa158015610e64573d6000803e3d6000fd5b505050506040513d601f19601f82011682018060405250810190610e8891906128d5565b905060008473ffffffffffffffffffffffffffffffffffffffff166370a08231306040518263ffffffff1660e01b8152600401610ec5919061272c565b602060405180830381865afa158015610ee2573d6000803e3d6000fd5b505050506040513d601f19601f82011682018060405250810190610f069190612917565b905060008473ffffffffffffffffffffffffffffffffffffffff166370a08231306040518263ffffffff1660e01b8152600401610f43919061272c565b602060405180830381865afa158015610f60573d6000803e3d6000fd5b505050506040513d601f19601f82011682018060405250810190610f849190612917565b905060008373ffffffffffffffffffffffffffffffffffffffff166370a08231306040518263ffffffff1660e01b8152600401610fc1919061272c565b602060405180830381865afa158015610fde573d6000803e3d6000fd5b505050506040513d601f19601f820116820180604052508101906110029190612917565b90508673ffffffffffffffffffffffffffffffffffffffff1663095ea7b389856040518363ffffffff1660e01b815260040161103f929190612b9a565b6020604051808303816000875af115801561105e573d6000803e3d6000fd5b505050506040513d601f19601f820116820180604052508101906110829190612bfb565b508573ffffffffffffffffffffffffffffffffffffffff1663095ea7b389846040518363ffffffff1660e01b81526004016110be929190612b9a565b6020604051808303816000875af11580156110dd573d6000803e3d6000fd5b505050506040513d601f19601f820116820180604052508101906111019190612bfb565b508373ffffffffffffffffffffffffffffffffffffffff1663095ea7b389836040518363ffffffff1660e01b815260040161113d929190612b9a565b6020604051808303816000875af115801561115c573d6000803e3d6000fd5b505050506040513d601f19601f820116820180604052508101906111809190612bfb565b508673ffffffffffffffffffffffffffffffffffffffff1663a9059cbb89856040518363ffffffff1660e01b81526004016111bc929190612b9a565b6020604051808303816000875af11580156111db573d6000803e3d6000fd5b505050506040513d601f19601f820116820180604052508101906111ff9190612bfb565b508573ffffffffffffffffffffffffffffffffffffffff1663a9059cbb89846040518363ffffffff1660e01b815260040161123b929190612b9a565b6020604051808303816000875af115801561125a573d6000803e3d6000fd5b505050506040513d601f19601f8201168201806040525081019061127e9190612bfb565b508373ffffffffffffffffffffffffffffffffffffffff1663a9059cbb89836040518363ffffffff1660e01b81526004016112ba929190612b9a565b6020604051808303816000875af11580156112d9573d6000803e3d6000fd5b505050506040513d601f19601f820116820180604052508101906112fd9190612bfb565b507fc47a839c70aa320457c80c5abd38ce8b516c72e37be119b7962f67f1f8eb7ac2888484846040516113339493929190612c28565b60405180910390a15050505050505050565b600360009054906101000a900473ffffffffffffffffffffffffffffffffffffffff1681565b60008054906101000a900473ffffffffffffffffffffffffffffffffffffffff1681565b6000600160009054906101000a900473ffffffffffffffffffffffffffffffffffffffff1690506000600260009054906101000a900473ffffffffffffffffffffffffffffffffffffffff1690506000600460009054906101000a900473ffffffffffffffffffffffffffffffffffffffff16905060008173ffffffffffffffffffffffffffffffffffffffff1663e6a4390585856040518363ffffffff1660e01b8152600401611441929190612897565b602060405180830381865afa15801561145e573d6000803e3d6000fd5b505050506040513d601f19601f8201168201806040525081019061148291906128d5565b905061148c61260d565b8473ffffffffffffffffffffffffffffffffffffffff166370a08231306040518263ffffffff1660e01b81526004016114c5919061272c565b602060405180830381865afa1580156114e2573d6000803e3d6000fd5b505050506040513d601f19601f820116820180604052508101906115069190612917565b8160400181815250508373ffffffffffffffffffffffffffffffffffffffff166370a08231306040518263ffffffff1660e01b8152600401611548919061272c565b602060405180830381865afa158015611565573d6000803e3d6000fd5b505050506040513d601f19601f820116820180604052508101906115899190612917565b8160600181815250508173ffffffffffffffffffffffffffffffffffffffff166370a08231306040518263ffffffff1660e01b81526004016115cb919061272c565b602060405180830381865afa1580156115e8573d6000803e3d6000fd5b505050506040513d601f19601f8201168201806040525081019061160c9190612917565b816080018181525050600660009054906101000a900473ffffffffffffffffffffffffffffffffffffffff1673ffffffffffffffffffffffffffffffffffffffff1663da6bae106040518163ffffffff1660e01b8152600401602060405180830381865afa158015611682573d6000803e3d6000fd5b505050506040513d601f19601f820116820180604052508101906116a69190612917565b8160000181815250508373ffffffffffffffffffffffffffffffffffffffff166370a08231836040518263ffffffff1660e01b81526004016116e8919061272c565b602060405180830381865afa158015611705573d6000803e3d6000fd5b505050506040513d601f19601f820116820180604052508101906117299190612917565b670de0b6b3a76400008673ffffffffffffffffffffffffffffffffffffffff166370a08231856040518263ffffffff1660e01b815260040161176b919061272c565b602060405180830381865afa158015611788573d6000803e3d6000fd5b505050506040513d601f19601f820116820180604052508101906117ac9190612917565b6117b691906129df565b6117c09190612a68565b81602001818152505060008160200151826000015111156117f657816020015182600001516117ef9190612c6d565b905061180d565b8160000151826020015161180a9190612c6d565b90505b60008260000151670de0b6b3a76400008361182891906129df565b6118329190612a68565b9050662386f26fc1000081101561184f5750505050505050611d4d565b60008360800151146119145782604001518773ffffffffffffffffffffffffffffffffffffffff166370a08231866040518263ffffffff1660e01b8152600401611899919061272c565b602060405180830381865afa1580156118b6573d6000803e3d6000fd5b505050506040513d601f19601f820116820180604052508101906118da9190612917565b146118f5576118ee87878560800151611d4f565b5050611913565b61191087876064866080015161190b9190612a68565b611d4f565b50505b5b8673ffffffffffffffffffffffffffffffffffffffff166370a08231306040518263ffffffff1660e01b815260040161194d919061272c565b602060405180830381865afa15801561196a573d6000803e3d6000fd5b505050506040513d601f19601f8201168201806040525081019061198e9190612917565b8360400181815250508573ffffffffffffffffffffffffffffffffffffffff166370a08231306040518263ffffffff1660e01b81526004016119d0919061272c565b602060405180830381865afa1580156119ed573d6000803e3d6000fd5b505050506040513d601f19601f82011682018060405250810190611a119190612917565b8360600181815250508673ffffffffffffffffffffffffffffffffffffffff166370a08231856040518263ffffffff1660e01b8152600401611a53919061272c565b602060405180830381865afa158015611a70573d6000803e3d6000fd5b505050506040513d601f19601f82011682018060405250810190611a949190612917565b8360a00181815250508573ffffffffffffffffffffffffffffffffffffffff166370a08231856040518263ffffffff1660e01b8152600401611ad6919061272c565b602060405180830381865afa158015611af3573d6000803e3d6000fd5b505050506040513d601f19601f82011682018060405250810190611b179190612917565b8360c001818152505060008360a0015114158015611b3a575060008360c0015114155b611b79576040517f08c379a0000000000000000000000000000000000000000000000000000000008152600401611b7090612ced565b60405180910390fd5b600080846020015185600001511115611c5e57600554670de0b6b3a7640000611ba29190612c6d565b670de0b6b3a7640000611be187602001516ec097ce7bc90715b34b9f10000000008960000151611bd291906129df565b611bdc9190612a68565b611fff565b611beb9190612c6d565b8660a00151611bfa91906129df565b611c049190612a68565b91508460400151821115611c1a57846040015191505b611c25898984612079565b9050818560400151611c379190612c6d565b856040018181525050808560600151611c509190612d0d565b856060018181525050611d2c565b600554670de0b6b3a7640000611c749190612c6d565b670de0b6b3a7640000611cb387600001516ec097ce7bc90715b34b9f10000000008960200151611ca491906129df565b611cae9190612a68565b611fff565b611cbd9190612c6d565b8660c00151611ccc91906129df565b611cd69190612a68565b91508460600151821115611cec57846060015191505b611cf7888a84612079565b9050818560600151611d099190612c6d565b856060018181525050808560400151611d229190612d0d565b8560400181815250505b611d4089898760400151886060015161240b565b5050505050505050505050505b565b600080600073ffffffffffffffffffffffffffffffffffffffff168573ffffffffffffffffffffffffffffffffffffffff1614158015611dbc5750600073ffffffffffffffffffffffffffffffffffffffff168473ffffffffffffffffffffffffffffffffffffffff1614155b611dfb576040517f08c379a0000000000000000000000000000000000000000000000000000000008152600401611df290612daf565b60405180910390fd5b6000831415611e105760008091509150611ff7565b6000600360009054906101000a900473ffffffffffffffffffffffffffffffffffffffff16905060008190506000600460009054906101000a900473ffffffffffffffffffffffffffffffffffffffff16905060008173ffffffffffffffffffffffffffffffffffffffff1663e6a439058a8a6040518363ffffffff1660e01b8152600401611ea0929190612897565b602060405180830381865afa158015611ebd573d6000803e3d6000fd5b505050506040513d601f19601f82011682018060405250810190611ee191906128d5565b90508073ffffffffffffffffffffffffffffffffffffffff1663095ea7b385896040518363ffffffff1660e01b8152600401611f1e929190612b9a565b6020604051808303816000875af1158015611f3d573d6000803e3d6000fd5b505050506040513d601f19601f82011682018060405250810190611f619190612bfb565b508273ffffffffffffffffffffffffffffffffffffffff1663baa2abde8a8a8a60018030426040518863ffffffff1660e01b8152600401611fa89796959493929190612e0a565b60408051808303816000875af1158015611fc6573d6000803e3d6000fd5b505050506040513d601f19601f82011682018060405250810190611fea9190612e79565b8096508197505050505050505b935093915050565b60006003821115612066578190506000600160028461201e9190612a68565b6120289190612d0d565b90505b818110156120605780915060028182856120459190612a68565b61204f9190612d0d565b6120599190612a68565b905061202b565b50612074565b6000821461207357600190505b5b919050565b60008273ffffffffffffffffffffffffffffffffffffffff168473ffffffffffffffffffffffffffffffffffffffff1614156120b757819050612404565b6000600360009054906101000a900473ffffffffffffffffffffffffffffffffffffffff16905060008190506000869050848173ffffffffffffffffffffffffffffffffffffffff166370a08231306040518263ffffffff1660e01b8152600401612122919061272c565b602060405180830381865afa15801561213f573d6000803e3d6000fd5b505050506040513d601f19601f820116820180604052508101906121639190612917565b10156121a4576040517f08c379a000000000000000000000000000000000000000000000000000000000815260040161219b90612f05565b60405180910390fd5b600085116121e7576040517f08c379a00000000000000000000000000000000000000000000000000000000081526004016121de90612daf565b60405180910390fd5b8073ffffffffffffffffffffffffffffffffffffffff1663095ea7b384876040518363ffffffff1660e01b8152600401612222929190612b9a565b6020604051808303816000875af1158015612241573d6000803e3d6000fd5b505050506040513d601f19601f820116820180604052508101906122659190612bfb565b506060600267ffffffffffffffff81111561228357612282612f25565b5b6040519080825280602002602001820160405280156122b15781602001602082028036833780820191505090505b50905087816000815181106122c9576122c8612f54565b5b602002602001019073ffffffffffffffffffffffffffffffffffffffff16908173ffffffffffffffffffffffffffffffffffffffff1681525050868160018151811061231857612317612f54565b5b602002602001019073ffffffffffffffffffffffffffffffffffffffff16908173ffffffffffffffffffffffffffffffffffffffff168152505060008373ffffffffffffffffffffffffffffffffffffffff166338ed17398860018530426040518663ffffffff1660e01b8152600401612396959493929190613041565b6000604051808303816000875af11580156123b5573d6000803e3d6000fd5b505050506040513d6000823e3d601f19601f820116820180604052508101906123de91906131c5565b9050806001815181106123f4576123f3612f54565b5b6020026020010151955050505050505b9392505050565b60008060008085148061241e5750600084145b15612433576000806000925092509250612603565b600087905060008790506000600360009054906101000a900473ffffffffffffffffffffffffffffffffffffffff16905060008190508373ffffffffffffffffffffffffffffffffffffffff1663095ea7b3838b6040518363ffffffff1660e01b81526004016124a4929190612b9a565b6020604051808303816000875af11580156124c3573d6000803e3d6000fd5b505050506040513d601f19601f820116820180604052508101906124e79190612bfb565b508273ffffffffffffffffffffffffffffffffffffffff1663095ea7b3838a6040518363ffffffff1660e01b8152600401612523929190612b9a565b6020604051808303816000875af1158015612542573d6000803e3d6000fd5b505050506040513d601f19601f820116820180604052508101906125669190612bfb565b508073ffffffffffffffffffffffffffffffffffffffff1663e8e337008c8c8c8c60018030426040518963ffffffff1660e01b81526004016125af98979695949392919061320e565b6060604051808303816000875af11580156125ce573d6000803e3d6000fd5b505050506040513d601f19601f820116820180604052508101906125f2919061328c565b809750819850829950505050505050505b9450945094915050565b6040518060e00160405280600081526020016000815260200160008152602001600081526020016000815260200160008152602001600081525090565b6000819050919050565b61265d8161264a565b82525050565b60006020820190506126786000830184612654565b92915050565b6000604051905090565b600080fd5b600080fd5b600073ffffffffffffffffffffffffffffffffffffffff82169050919050565b60006126bd82612692565b9050919050565b6126cd816126b2565b81146126d857600080fd5b50565b6000813590506126ea816126c4565b92915050565b60006020828403121561270657612705612688565b5b6000612714848285016126db565b91505092915050565b612726816126b2565b82525050565b6000602082019050612741600083018461271d565b92915050565b6000819050919050565b600061276c61276761276284612692565b612747565b612692565b9050919050565b600061277e82612751565b9050919050565b600061279082612773565b9050919050565b6127a081612785565b82525050565b60006020820190506127bb6000830184612797565b92915050565b6127ca8161264a565b81146127d557600080fd5b50565b6000813590506127e7816127c1565b92915050565b60006020828403121561280357612802612688565b5b6000612811848285016127d8565b91505092915050565b600082825260208201905092915050565b7f4f6e6c7941646d696e0000000000000000000000000000000000000000000000600082015250565b600061286160098361281a565b915061286c8261282b565b602082019050919050565b6000602082019050818103600083015261289081612854565b9050919050565b60006040820190506128ac600083018561271d565b6128b9602083018461271d565b9392505050565b6000815190506128cf816126c4565b92915050565b6000602082840312156128eb576128ea612688565b5b60006128f9848285016128c0565b91505092915050565b600081519050612911816127c1565b92915050565b60006020828403121561292d5761292c612688565b5b600061293b84828501612902565b91505092915050565b7f50726963652063616e27742062652063616c63756c6174656400000000000000600082015250565b600061297a60198361281a565b915061298582612944565b602082019050919050565b600060208201905081810360008301526129a98161296d565b9050919050565b7f4e487b7100000000000000000000000000000000000000000000000000000000600052601160045260246000fd5b60006129ea8261264a565b91506129f58361264a565b9250817fffffffffffffffffffffffffffffffffffffffffffffffffffffffffffffffff0483118215151615612a2e57612a2d6129b0565b5b828202905092915050565b7f4e487b7100000000000000000000000000000000000000000000000000000000600052601260045260246000fd5b6000612a738261264a565b9150612a7e8361264a565b925082612a8e57612a8d612a39565b5b828204905092915050565b7f6e6f207265656e7472616e636500000000000000000000000000000000000000600082015250565b6000612acf600d8361281a565b9150612ada82612a99565b602082019050919050565b60006020820190508181036000830152612afe81612ac2565b9050919050565b7f7265706561746564206665650000000000000000000000000000000000000000600082015250565b6000612b3b600c8361281a565b9150612b4682612b05565b602082019050919050565b60006020820190508181036000830152612b6a81612b2e565b9050919050565b6000604082019050612b866000830185612654565b612b936020830184612654565b9392505050565b6000604082019050612baf600083018561271d565b612bbc6020830184612654565b9392505050565b60008115159050919050565b612bd881612bc3565b8114612be357600080fd5b50565b600081519050612bf581612bcf565b92915050565b600060208284031215612c1157612c10612688565b5b6000612c1f84828501612be6565b91505092915050565b6000608082019050612c3d600083018761271d565b612c4a6020830186612654565b612c576040830185612654565b612c646060830184612654565b95945050505050565b6000612c788261264a565b9150612c838361264a565b925082821015612c9657612c956129b0565b5b828203905092915050565b7f4e6f7420656e6f756768204c502062616c616e63650000000000000000000000600082015250565b6000612cd760158361281a565b9150612ce282612ca1565b602082019050919050565b60006020820190508181036000830152612d0681612cca565b9050919050565b6000612d188261264a565b9150612d238361264a565b9250827fffffffffffffffffffffffffffffffffffffffffffffffffffffffffffffffff03821115612d5857612d576129b0565b5b828201905092915050565b7f4241445f494e5055540000000000000000000000000000000000000000000000600082015250565b6000612d9960098361281a565b9150612da482612d63565b602082019050919050565b60006020820190508181036000830152612dc881612d8c565b9050919050565b6000819050919050565b6000612df4612def612dea84612dcf565b612747565b61264a565b9050919050565b612e0481612dd9565b82525050565b600060e082019050612e1f600083018a61271d565b612e2c602083018961271d565b612e396040830188612654565b612e466060830187612dfb565b612e536080830186612dfb565b612e6060a083018561271d565b612e6d60c0830184612654565b98975050505050505050565b60008060408385031215612e9057612e8f612688565b5b6000612e9e85828601612902565b9250506020612eaf85828601612902565b9150509250929050565b7f4e6f7420656e6f7567682062616c616e63650000000000000000000000000000600082015250565b6000612eef60128361281a565b9150612efa82612eb9565b602082019050919050565b60006020820190508181036000830152612f1e81612ee2565b9050919050565b7f4e487b7100000000000000000000000000000000000000000000000000000000600052604160045260246000fd5b7f4e487b7100000000000000000000000000000000000000000000000000000000600052603260045260246000fd5b600081519050919050565b600082825260208201905092915050565b6000819050602082019050919050565b612fb8816126b2565b82525050565b6000612fca8383612faf565b60208301905092915050565b6000602082019050919050565b6000612fee82612f83565b612ff88185612f8e565b935061300383612f9f565b8060005b8381101561303457815161301b8882612fbe565b975061302683612fd6565b925050600181019050613007565b5085935050505092915050565b600060a0820190506130566000830188612654565b6130636020830187612dfb565b81810360408301526130758186612fe3565b9050613084606083018561271d565b6130916080830184612654565b9695505050505050565b600080fd5b6000601f19601f8301169050919050565b6130ba826130a0565b810181811067ffffffffffffffff821117156130d9576130d8612f25565b5b80604052505050565b60006130ec61267e565b90506130f882826130b1565b919050565b600067ffffffffffffffff82111561311857613117612f25565b5b602082029050602081019050919050565b600080fd5b600061314161313c846130fd565b6130e2565b9050808382526020820190506020840283018581111561316457613163613129565b5b835b8181101561318d57806131798882612902565b845260208401935050602081019050613166565b5050509392505050565b600082601f8301126131ac576131ab61309b565b5b81516131bc84826020860161312e565b91505092915050565b6000602082840312156131db576131da612688565b5b600082015167ffffffffffffffff8111156131f9576131f861268d565b5b61320584828501613197565b91505092915050565b600061010082019050613224600083018b61271d565b613231602083018a61271d565b61323e6040830189612654565b61324b6060830188612654565b6132586080830187612dfb565b61326560a0830186612dfb565b61327260c083018561271d565b61327f60e0830184612654565b9998505050505050505050565b6000806000606084860312156132a5576132a4612688565b5b60006132b386828701612902565b93505060206132c486828701612902565b92505060406132d586828701612902565b915050925092509256fea2646970667358221220bfca59e39106f5ea1f9ef1634ad34e55d1012131982bb7f4ccc3764f0db8590164736f6c634300080c0033",
  "immutableReferences": {},
  "source": "// SPDX-License-Identifier: MIT\r\npragma solidity ^0.8.0;\r\n\r\nimport './interface/ComptrollerInterface.sol';\r\nimport './interface/UniswapInterface.sol';\r\nimport \"@openzeppelin/contracts/token/ERC20/IERC20.sol\";\r\n\r\ncontract TreasuryAURUM {\r\n    address public admin;\r\n\r\n    address public busd;    //kBUSD contract\r\n    address public aurum;   //AURUM contract\r\n\r\n    address public uniswapRouters;      //Using Add/Remove liquidity\r\n    address public uniswapFactory;      //Used for get AURUM/kBUSD LP address\r\n    uint public swapfee;                //Uniswap swap fee\r\n\r\n    PriceOracle public oracle;  //getGoldPrice\r\n\r\n    bool locked;    //Reentrance\r\n\r\n    event SetAdmin(address oldAdmin, address newAdmin);\r\n    event SetFee(uint oldFee, uint newFee);\r\n    event SetUniswapRouters(address oldUniswapRouters, address newUniswapRouters);\r\n    event SetUniswapFactory(address oldUniswapFactory, address newUniswapFactory);\r\n    event SetPriceOracle(address oldPriceOracle, address newPriceOracle);\r\n    event Migrate(address to, uint BUSD, uint AURUM, uint LPToken);\r\n\r\n    modifier onlyAdmin {\r\n        require(msg.sender == admin, \"OnlyAdmin\");\r\n        _;\r\n    }\r\n\r\n    modifier noReentrance {\r\n        require(!locked, \"no reentrance\");\r\n        locked = true;\r\n        _;\r\n        locked = false;\r\n    }\r\n\r\n    constructor(address busd_, address aurum_) {\r\n        admin = msg.sender;\r\n        locked = false;\r\n\r\n        busd = busd_;\r\n        aurum = aurum_;\r\n\r\n    }\r\n\r\n    function addLiquidity(address tokenA, address tokenB, uint amountInA, uint amountInB) internal returns(uint amountA, uint amountB, uint liquidity) {\r\n        if(amountInA == 0 || amountInB == 0){\r\n            return (0,0,0);\r\n        }\r\n        IERC20 tokenA_ = IERC20(tokenA);\r\n        IERC20 tokenB_ = IERC20(tokenB);\r\n        \r\n        address varRouter = uniswapRouters;\r\n        IUniswapV2Router routerContract = IUniswapV2Router(varRouter);\r\n\r\n        // Approve\r\n        tokenA_.approve(varRouter, amountInA);\r\n        tokenB_.approve(varRouter, amountInB);\r\n\r\n        (amountA, amountB, liquidity) = routerContract.addLiquidity(\r\n            tokenA,\r\n            tokenB,\r\n            amountInA,\r\n            amountInB,\r\n            1,\r\n            1,\r\n            address(this),\r\n            block.timestamp\r\n        );\r\n    }\r\n\r\n    function removeLiquidity(address tokenA, address tokenB, uint amount) internal returns(uint amountOutA, uint amountOutB){\r\n        require (tokenA != address(0) && tokenB != address(0), \"BAD_INPUT\");\r\n        if(amount == 0){\r\n            return (0,0);\r\n        }\r\n        address varRouter = uniswapRouters;\r\n        IUniswapV2Router routerContract = IUniswapV2Router(varRouter);\r\n\r\n        IUniswapV2Factory factory = IUniswapV2Factory(uniswapFactory);\r\n        IERC20 LPToken = IERC20(factory.getPair(address(tokenA), address(tokenB)));\r\n\r\n        //Approve\r\n        LPToken.approve(varRouter, amount);\r\n\r\n        (amountOutA, amountOutB) = routerContract.removeLiquidity(\r\n            tokenA,\r\n            tokenB,\r\n            amount,\r\n            1,\r\n            1,\r\n            address(this),\r\n            block.timestamp\r\n        );\r\n    }\r\n\r\n    function swap(address tokenA, address tokenB, uint amountIn) internal returns(uint) {\r\n        if(tokenA == tokenB){\r\n            return amountIn; //no need for swap\r\n        }\r\n        address varRouter = uniswapRouters;\r\n        IUniswapV2Router routerContract = IUniswapV2Router(varRouter);\r\n        IERC20 tokenIn = IERC20(tokenA);\r\n\r\n        require(tokenIn.balanceOf(address(this))>=amountIn, \"Not enough balance\");\r\n        require(amountIn > 0, \"BAD_INPUT\");\r\n\r\n        //Approve the tokenA\r\n        tokenIn.approve(varRouter, amountIn);\r\n\r\n        //Setting path\r\n        address[] memory path;\r\n        path = new address[](2);\r\n        path[0] = tokenA;\r\n        path[1] = tokenB;\r\n\r\n        //Swap A to B\r\n        (uint[] memory amount) = routerContract.swapExactTokensForTokens(amountIn, 1, path, address(this), block.timestamp);\r\n\r\n        return amount[1]; // return amountOut;\r\n    }\r\n\r\n    function getDEXAURUMPrice() external view returns(uint price){\r\n        IERC20 busd_ = IERC20(busd);\r\n        IERC20 aurum_ = IERC20(aurum);\r\n\r\n        IUniswapV2Factory factory = IUniswapV2Factory(uniswapFactory);\r\n        address LPToken = factory.getPair(address(busd_), address(aurum_));\r\n\r\n        uint busdAmount = busd_.balanceOf(LPToken);\r\n        uint aurumAmount = aurum_.balanceOf(LPToken);\r\n\r\n        require(busdAmount != 0 && aurumAmount != 0, \"Price can't be calculated\");\r\n        price = busdAmount * 1e18 / aurumAmount;\r\n\r\n    }\r\n\r\n    struct ArbitrageVariable {\r\n        uint goldPrice;\r\n        uint currentPrice;\r\n        uint balanceBUSD;\r\n        uint balanceAURUM;\r\n        uint balanceLPToken;\r\n        uint lpBalanceBUSD;\r\n        uint lpBalanceAURUM;\r\n    }\r\n    function arbitrage() external noReentrance{\r\n        arbitrageInternal();\r\n    }\r\n\r\n    function arbitrageInternal() internal {\r\n        IERC20 busd_ = IERC20(busd);\r\n        IERC20 aurum_ = IERC20(aurum);\r\n\r\n        IUniswapV2Factory factory = IUniswapV2Factory(uniswapFactory);\r\n        IERC20 LPToken = IERC20(factory.getPair(address(busd_), address(aurum_)));\r\n\r\n        ArbitrageVariable memory vars;\r\n\r\n        vars.balanceBUSD = busd_.balanceOf(address(this));\r\n        vars.balanceAURUM = aurum_.balanceOf(address(this));\r\n        vars.balanceLPToken = LPToken.balanceOf(address(this));\r\n\r\n        vars.goldPrice = oracle.getGoldPrice();\r\n        vars.currentPrice = (busd_.balanceOf(address(LPToken)) * 1e18 / aurum_.balanceOf(address(LPToken)));\r\n\r\n        //Check difference price\r\n        uint dif;\r\n        if(vars.goldPrice > vars.currentPrice) {\r\n            dif = vars.goldPrice - vars.currentPrice;\r\n        } else {\r\n            dif = vars.currentPrice - vars.goldPrice;\r\n        }\r\n\r\n        uint difPercent = dif * 1e18 / vars.goldPrice;\r\n        if(difPercent < 0.01e18){\r\n            return; //Dif < 1%, No need for arbitrage\r\n        }\r\n\r\n        //Removing LP for using less token for stabilized pricec\r\n        if(vars.balanceLPToken != 0){\r\n            if(busd_.balanceOf(address(LPToken)) != vars.balanceBUSD){\r\n                //Remove all\r\n                removeLiquidity(address(busd_), address(aurum_), vars.balanceLPToken);\r\n            } else {\r\n                //Remove 99%\r\n                removeLiquidity(address(busd_), address(aurum_), vars.balanceLPToken / 100);\r\n            }\r\n        }\r\n        \r\n        vars.balanceBUSD = busd_.balanceOf(address(this));\r\n        vars.balanceAURUM = aurum_.balanceOf(address(this));\r\n\r\n\r\n        vars.lpBalanceBUSD = busd_.balanceOf(address(LPToken)); //Balance of tokens in LPpool after removing liquidity\r\n        vars.lpBalanceAURUM = aurum_.balanceOf(address(LPToken));\r\n        require(vars.lpBalanceBUSD != 0 && vars.lpBalanceAURUM != 0,\"Not enough LP balance\");\r\n\r\n        //Calculate swap amount to target price\r\n        uint amountIn;\r\n        uint amountOut;\r\n        if(vars.goldPrice > vars.currentPrice) {\r\n            //Buy Aurum, amountIn is kBUSD amount\r\n            amountIn = vars.lpBalanceBUSD * (sqrt(vars.goldPrice * 1e36 / vars.currentPrice) -1e18) / (1e18 - swapfee);\r\n            if(amountIn > vars.balanceBUSD){\r\n                amountIn = vars.balanceBUSD;\r\n            }\r\n            //Swap\r\n            amountOut = swap(address(busd_), address(aurum_), amountIn);\r\n            vars.balanceBUSD = vars.balanceBUSD - amountIn;\r\n            vars.balanceAURUM = vars.balanceAURUM + amountOut;\r\n        } else {\r\n            amountIn = vars.lpBalanceAURUM * (sqrt(vars.currentPrice * 1e36 / vars.goldPrice) - 1e18) / (1e18 - swapfee);\r\n            if(amountIn > vars.balanceAURUM){\r\n                amountIn = vars.balanceAURUM;\r\n            }\r\n            amountOut = swap(address(aurum_), address(busd_), amountIn);\r\n            vars.balanceAURUM = vars.balanceAURUM - amountIn;\r\n            vars.balanceBUSD = vars.balanceBUSD + amountOut;\r\n        }\r\n\r\n        //Finally add liquidity\r\n        addLiquidity(address(busd_), address(aurum_), vars.balanceBUSD, vars.balanceAURUM);\r\n    }\r\n\r\n    function sqrt(uint y) internal pure returns (uint z) {\r\n        if (y > 3) {\r\n            z = y;\r\n            uint x = y / 2 + 1;\r\n            while (x < z) {\r\n                z = x;\r\n                x = (y / x + x) / 2;\r\n            }\r\n        } else if (y != 0) {\r\n            z = 1;\r\n        }\r\n    }\r\n\r\n    // ==================================\r\n    //  Admin function\r\n    // ==================================\r\n    function _setAdmin (address newAdmin) external onlyAdmin {\r\n        require(newAdmin != address(0));\r\n        address oldAdmin = admin;\r\n        admin = newAdmin;\r\n\r\n        emit SetAdmin(oldAdmin, newAdmin);\r\n    }\r\n\r\n    function _setUniswapRouters(address newUniswapRouters) external onlyAdmin {\r\n        require(newUniswapRouters != address(0));\r\n        address oldUniswapRouters = uniswapRouters;\r\n        uniswapRouters = newUniswapRouters;\r\n\r\n        emit SetUniswapRouters(oldUniswapRouters, newUniswapRouters);\r\n    }\r\n\r\n    function _setUniswapFactory(address newUniswapFactory) external onlyAdmin {\r\n        require(newUniswapFactory != address(0));\r\n        address oldUniswapFactory = uniswapFactory;\r\n        uniswapFactory = newUniswapFactory;\r\n\r\n        emit SetUniswapFactory(oldUniswapFactory, newUniswapFactory);\r\n    }\r\n\r\n    function _setFee(uint newFee) external onlyAdmin {\r\n        require(newFee != swapfee,\"repeated fee\");\r\n        uint oldFee = swapfee;\r\n        swapfee = newFee;\r\n\r\n        emit SetFee(oldFee, newFee);\r\n    }\r\n\r\n    function _setPriceOracle(address newPriceOracle) external onlyAdmin {\r\n        require(newPriceOracle != address(0));\r\n        address oldPriceOracle = address(oracle);\r\n        oracle = PriceOracle(newPriceOracle);\r\n\r\n        emit SetUniswapRouters(oldPriceOracle, newPriceOracle);\r\n    }\r\n    // Migrate kBUSD, AURUM, LP token   to target address.\r\n    function _migrate(address to) external onlyAdmin {\r\n        IERC20 busd_ = IERC20(busd);\r\n        IERC20 aurum_ = IERC20(aurum);\r\n\r\n        IUniswapV2Factory factory = IUniswapV2Factory(uniswapFactory);\r\n        IERC20 LPToken = IERC20(factory.getPair(address(busd_), address(aurum_)));\r\n\r\n        uint balanceBUSD = busd_.balanceOf(address(this));\r\n        uint balanceAURUM = aurum_.balanceOf(address(this));\r\n        uint balanceLPToken = LPToken.balanceOf(address(this));\r\n\r\n        //Approve all tokens\r\n        busd_.approve(to, balanceBUSD);\r\n        aurum_.approve(to, balanceAURUM);\r\n        LPToken.approve(to, balanceLPToken);\r\n\r\n        //Transfer all tokens\r\n        busd_.transfer(to, balanceBUSD);\r\n        aurum_.transfer(to, balanceAURUM);\r\n        LPToken.transfer(to, balanceLPToken);\r\n\r\n        emit Migrate(to, balanceBUSD, balanceAURUM, balanceLPToken);\r\n    }\r\n\r\n}",
  "sourcePath": "C:\\Users\\chana\\desktop\\aurumdefi\\src\\contracts\\TreasuryAURUM.sol",
  "compiler": {
    "name": "solc",
    "version": "0.8.12+commit.f00d7308.Emscripten.clang"
  },
  "schemaVersion": "3.4.6",
  "updatedAt": "2022-04-24T15:41:33.963Z",
  "networkType": "ethereum",
  "devdoc": {
    "kind": "dev",
    "methods": {},
    "version": 1
  },
  "userdoc": {
    "kind": "user",
    "methods": {},
    "version": 1
  }
}