{
  "contractName": "TreasuryAURUM",
  "abi": [
    {
      "inputs": [
        {
          "internalType": "address",
          "name": "busd_",
          "type": "address"
        },
        {
          "internalType": "address",
          "name": "aurum_",
          "type": "address"
        }
      ],
      "stateMutability": "nonpayable",
      "type": "constructor"
    },
    {
      "inputs": [],
      "name": "ApproveFail",
      "type": "error"
    },
    {
      "inputs": [],
      "name": "TransferFail",
      "type": "error"
    },
    {
      "anonymous": false,
      "inputs": [
        {
          "indexed": false,
          "internalType": "address",
          "name": "to",
          "type": "address"
        },
        {
          "indexed": false,
          "internalType": "uint256",
          "name": "BUSD",
          "type": "uint256"
        },
        {
          "indexed": false,
          "internalType": "uint256",
          "name": "AURUM",
          "type": "uint256"
        },
        {
          "indexed": false,
          "internalType": "uint256",
          "name": "LPToken",
          "type": "uint256"
        }
      ],
      "name": "Migrate",
      "type": "event"
    },
    {
      "anonymous": false,
      "inputs": [
        {
          "indexed": false,
          "internalType": "address",
          "name": "oldAdmin",
          "type": "address"
        },
        {
          "indexed": false,
          "internalType": "address",
          "name": "newAdmin",
          "type": "address"
        }
      ],
      "name": "SetAdmin",
      "type": "event"
    },
    {
      "anonymous": false,
      "inputs": [
        {
          "indexed": false,
          "internalType": "uint256",
          "name": "oldFee",
          "type": "uint256"
        },
        {
          "indexed": false,
          "internalType": "uint256",
          "name": "newFee",
          "type": "uint256"
        }
      ],
      "name": "SetFee",
      "type": "event"
    },
    {
      "anonymous": false,
      "inputs": [
        {
          "indexed": false,
          "internalType": "address",
          "name": "oldPriceOracle",
          "type": "address"
        },
        {
          "indexed": false,
          "internalType": "address",
          "name": "newPriceOracle",
          "type": "address"
        }
      ],
      "name": "SetPriceOracle",
      "type": "event"
    },
    {
      "anonymous": false,
      "inputs": [
        {
          "indexed": false,
          "internalType": "address",
          "name": "oldUniswapFactory",
          "type": "address"
        },
        {
          "indexed": false,
          "internalType": "address",
          "name": "newUniswapFactory",
          "type": "address"
        }
      ],
      "name": "SetUniswapFactory",
      "type": "event"
    },
    {
      "anonymous": false,
      "inputs": [
        {
          "indexed": false,
          "internalType": "address",
          "name": "oldUniswapRouters",
          "type": "address"
        },
        {
          "indexed": false,
          "internalType": "address",
          "name": "newUniswapRouters",
          "type": "address"
        }
      ],
      "name": "SetUniswapRouters",
      "type": "event"
    },
    {
      "inputs": [],
      "name": "admin",
      "outputs": [
        {
          "internalType": "address",
          "name": "",
          "type": "address"
        }
      ],
      "stateMutability": "view",
      "type": "function"
    },
    {
      "inputs": [],
      "name": "aurum",
      "outputs": [
        {
          "internalType": "address",
          "name": "",
          "type": "address"
        }
      ],
      "stateMutability": "view",
      "type": "function"
    },
    {
      "inputs": [],
      "name": "busd",
      "outputs": [
        {
          "internalType": "address",
          "name": "",
          "type": "address"
        }
      ],
      "stateMutability": "view",
      "type": "function"
    },
    {
      "inputs": [],
      "name": "oracle",
      "outputs": [
        {
          "internalType": "contract PriceOracle",
          "name": "",
          "type": "address"
        }
      ],
      "stateMutability": "view",
      "type": "function"
    },
    {
      "inputs": [],
      "name": "swapfee",
      "outputs": [
        {
          "internalType": "uint256",
          "name": "",
          "type": "uint256"
        }
      ],
      "stateMutability": "view",
      "type": "function"
    },
    {
      "inputs": [],
      "name": "uniswapFactory",
      "outputs": [
        {
          "internalType": "address",
          "name": "",
          "type": "address"
        }
      ],
      "stateMutability": "view",
      "type": "function"
    },
    {
      "inputs": [],
      "name": "uniswapRouters",
      "outputs": [
        {
          "internalType": "address",
          "name": "",
          "type": "address"
        }
      ],
      "stateMutability": "view",
      "type": "function"
    },
    {
      "inputs": [],
      "name": "getDEXAURUMPrice",
      "outputs": [
        {
          "internalType": "uint256",
          "name": "price",
          "type": "uint256"
        }
      ],
      "stateMutability": "view",
      "type": "function"
    },
    {
      "inputs": [],
      "name": "arbitrage",
      "outputs": [],
      "stateMutability": "nonpayable",
      "type": "function"
    },
    {
      "inputs": [
        {
          "internalType": "address",
          "name": "newAdmin",
          "type": "address"
        }
      ],
      "name": "_setAdmin",
      "outputs": [],
      "stateMutability": "nonpayable",
      "type": "function"
    },
    {
      "inputs": [
        {
          "internalType": "address",
          "name": "newUniswapRouters",
          "type": "address"
        }
      ],
      "name": "_setUniswapRouters",
      "outputs": [],
      "stateMutability": "nonpayable",
      "type": "function"
    },
    {
      "inputs": [
        {
          "internalType": "address",
          "name": "newUniswapFactory",
          "type": "address"
        }
      ],
      "name": "_setUniswapFactory",
      "outputs": [],
      "stateMutability": "nonpayable",
      "type": "function"
    },
    {
      "inputs": [
        {
          "internalType": "uint256",
          "name": "newFee",
          "type": "uint256"
        }
      ],
      "name": "_setFee",
      "outputs": [],
      "stateMutability": "nonpayable",
      "type": "function"
    },
    {
      "inputs": [
        {
          "internalType": "address",
          "name": "newPriceOracle",
          "type": "address"
        }
      ],
      "name": "_setPriceOracle",
      "outputs": [],
      "stateMutability": "nonpayable",
      "type": "function"
    },
    {
      "inputs": [
        {
          "internalType": "address",
          "name": "to",
          "type": "address"
        }
      ],
      "name": "_migrate",
      "outputs": [],
      "stateMutability": "nonpayable",
      "type": "function"
    }
  ],
  "bytecode": "0x60806040523480156200001157600080fd5b506040516200372e3803806200372e833981810160405281019062000037919062000186565b336000806101000a81548173ffffffffffffffffffffffffffffffffffffffff021916908373ffffffffffffffffffffffffffffffffffffffff1602179055506000600660146101000a81548160ff02191690831515021790555081600160006101000a81548173ffffffffffffffffffffffffffffffffffffffff021916908373ffffffffffffffffffffffffffffffffffffffff16021790555080600260006101000a81548173ffffffffffffffffffffffffffffffffffffffff021916908373ffffffffffffffffffffffffffffffffffffffff1602179055505050620001cd565b600080fd5b600073ffffffffffffffffffffffffffffffffffffffff82169050919050565b60006200014e8262000121565b9050919050565b620001608162000141565b81146200016c57600080fd5b50565b600081519050620001808162000155565b92915050565b60008060408385031215620001a0576200019f6200011c565b5b6000620001b0858286016200016f565b9250506020620001c3858286016200016f565b9150509250929050565b61355180620001dd6000396000f3fe608060405234801561001057600080fd5b50600436106100f55760003560e01c80636af1b9ce11610097578063ac11505511610066578063ac11505514610228578063c3c0b2b814610244578063eafa9ff114610260578063f851a4401461027e576100f5565b80636af1b9ce146101b25780637dc0d1d0146101d05780638bdb2afa146101ee578063aaa2092c1461020c576100f5565b80633ca5b234116100d35780633ca5b234146101505780634ab698111461016e57806355ee1fe11461018c57806369c8d338146101a8576100f5565b80630784e350146100fa5780632a932d26146101185780633a74a76714610134575b600080fd5b61010261029c565b60405161010f919061289f565b60405180910390f35b610132600480360381019061012d919061292c565b6102a2565b005b61014e6004803603810190610149919061292c565b61040f565b005b61015861057a565b6040516101659190612968565b60405180910390f35b6101766105a0565b604051610183919061289f565b60405180910390f35b6101a660048036038101906101a1919061292c565b61080d565b005b6101b061097a565b005b6101ba610a0a565b6040516101c79190612968565b60405180910390f35b6101d8610a30565b6040516101e591906129e2565b60405180910390f35b6101f6610a56565b6040516102039190612968565b60405180910390f35b6102266004803603810190610221919061292c565b610a7c565b005b610242600480360381019061023d9190612a29565b610be9565b005b61025e6004803603810190610259919061292c565b610d07565b005b610268611498565b6040516102759190612968565b60405180910390f35b6102866114be565b6040516102939190612968565b60405180910390f35b60055481565b60008054906101000a900473ffffffffffffffffffffffffffffffffffffffff1673ffffffffffffffffffffffffffffffffffffffff163373ffffffffffffffffffffffffffffffffffffffff1614610330576040517f08c379a000000000000000000000000000000000000000000000000000000000815260040161032790612ab3565b60405180910390fd5b600073ffffffffffffffffffffffffffffffffffffffff168173ffffffffffffffffffffffffffffffffffffffff16141561036a57600080fd5b6000600360009054906101000a900473ffffffffffffffffffffffffffffffffffffffff16905081600360006101000a81548173ffffffffffffffffffffffffffffffffffffffff021916908373ffffffffffffffffffffffffffffffffffffffff1602179055507f6e9f0fec8d15d9be0ba9d3c807d5b6e5e8c662311938734322014eb83d68fe858183604051610403929190612ad3565b60405180910390a15050565b60008054906101000a900473ffffffffffffffffffffffffffffffffffffffff1673ffffffffffffffffffffffffffffffffffffffff163373ffffffffffffffffffffffffffffffffffffffff161461049d576040517f08c379a000000000000000000000000000000000000000000000000000000000815260040161049490612ab3565b60405180910390fd5b600073ffffffffffffffffffffffffffffffffffffffff168173ffffffffffffffffffffffffffffffffffffffff1614156104d757600080fd5b60008060009054906101000a900473ffffffffffffffffffffffffffffffffffffffff169050816000806101000a81548173ffffffffffffffffffffffffffffffffffffffff021916908373ffffffffffffffffffffffffffffffffffffffff1602179055507f848ac24ab84501710d6631faab117b66b79aba7ec6f7778cf3bcff428c1a4efc818360405161056e929190612ad3565b60405180910390a15050565b600160009054906101000a900473ffffffffffffffffffffffffffffffffffffffff1681565b600080600160009054906101000a900473ffffffffffffffffffffffffffffffffffffffff1690506000600260009054906101000a900473ffffffffffffffffffffffffffffffffffffffff1690506000600460009054906101000a900473ffffffffffffffffffffffffffffffffffffffff16905060008173ffffffffffffffffffffffffffffffffffffffff1663e6a4390585856040518363ffffffff1660e01b8152600401610653929190612ad3565b602060405180830381865afa158015610670573d6000803e3d6000fd5b505050506040513d601f19601f820116820180604052508101906106949190612b11565b905060008473ffffffffffffffffffffffffffffffffffffffff166370a08231836040518263ffffffff1660e01b81526004016106d19190612968565b602060405180830381865afa1580156106ee573d6000803e3d6000fd5b505050506040513d601f19601f820116820180604052508101906107129190612b53565b905060008473ffffffffffffffffffffffffffffffffffffffff166370a08231846040518263ffffffff1660e01b815260040161074f9190612968565b602060405180830381865afa15801561076c573d6000803e3d6000fd5b505050506040513d601f19601f820116820180604052508101906107909190612b53565b9050600082141580156107a4575060008114155b6107e3576040517f08c379a00000000000000000000000000000000000000000000000000000000081526004016107da90612bcc565b60405180910390fd5b80670de0b6b3a7640000836107f89190612c1b565b6108029190612ca4565b965050505050505090565b60008054906101000a900473ffffffffffffffffffffffffffffffffffffffff1673ffffffffffffffffffffffffffffffffffffffff163373ffffffffffffffffffffffffffffffffffffffff161461089b576040517f08c379a000000000000000000000000000000000000000000000000000000000815260040161089290612ab3565b60405180910390fd5b600073ffffffffffffffffffffffffffffffffffffffff168173ffffffffffffffffffffffffffffffffffffffff1614156108d557600080fd5b6000600660009054906101000a900473ffffffffffffffffffffffffffffffffffffffff16905081600660006101000a81548173ffffffffffffffffffffffffffffffffffffffff021916908373ffffffffffffffffffffffffffffffffffffffff1602179055507f6e9f0fec8d15d9be0ba9d3c807d5b6e5e8c662311938734322014eb83d68fe85818360405161096e929190612ad3565b60405180910390a15050565b600660149054906101000a900460ff16156109ca576040517f08c379a00000000000000000000000000000000000000000000000000000000081526004016109c190612d21565b60405180910390fd5b6001600660146101000a81548160ff0219169083151502179055506109ed6114e2565b6000600660146101000a81548160ff021916908315150217905550565b600260009054906101000a900473ffffffffffffffffffffffffffffffffffffffff1681565b600660009054906101000a900473ffffffffffffffffffffffffffffffffffffffff1681565b600460009054906101000a900473ffffffffffffffffffffffffffffffffffffffff1681565b60008054906101000a900473ffffffffffffffffffffffffffffffffffffffff1673ffffffffffffffffffffffffffffffffffffffff163373ffffffffffffffffffffffffffffffffffffffff1614610b0a576040517f08c379a0000000000000000000000000000000000000000000000000000000008152600401610b0190612ab3565b60405180910390fd5b600073ffffffffffffffffffffffffffffffffffffffff168173ffffffffffffffffffffffffffffffffffffffff161415610b4457600080fd5b6000600460009054906101000a900473ffffffffffffffffffffffffffffffffffffffff16905081600460006101000a81548173ffffffffffffffffffffffffffffffffffffffff021916908373ffffffffffffffffffffffffffffffffffffffff1602179055507f1d63ba0b48b767ad4e57f2dabb3bc49065423e8fb23b85274d4f8d0c695284898183604051610bdd929190612ad3565b60405180910390a15050565b60008054906101000a900473ffffffffffffffffffffffffffffffffffffffff1673ffffffffffffffffffffffffffffffffffffffff163373ffffffffffffffffffffffffffffffffffffffff1614610c77576040517f08c379a0000000000000000000000000000000000000000000000000000000008152600401610c6e90612ab3565b60405180910390fd5b600554811415610cbc576040517f08c379a0000000000000000000000000000000000000000000000000000000008152600401610cb390612d8d565b60405180910390fd5b60006005549050816005819055507f032dc6a2d839eb179729a55633fdf1c41a1fc4739394154117005db2b354b9b58183604051610cfb929190612dad565b60405180910390a15050565b60008054906101000a900473ffffffffffffffffffffffffffffffffffffffff1673ffffffffffffffffffffffffffffffffffffffff163373ffffffffffffffffffffffffffffffffffffffff1614610d95576040517f08c379a0000000000000000000000000000000000000000000000000000000008152600401610d8c90612ab3565b60405180910390fd5b6000600160009054906101000a900473ffffffffffffffffffffffffffffffffffffffff1690506000600260009054906101000a900473ffffffffffffffffffffffffffffffffffffffff1690506000600460009054906101000a900473ffffffffffffffffffffffffffffffffffffffff16905060008173ffffffffffffffffffffffffffffffffffffffff1663e6a4390585856040518363ffffffff1660e01b8152600401610e47929190612ad3565b602060405180830381865afa158015610e64573d6000803e3d6000fd5b505050506040513d601f19601f82011682018060405250810190610e889190612b11565b905060008473ffffffffffffffffffffffffffffffffffffffff166370a08231306040518263ffffffff1660e01b8152600401610ec59190612968565b602060405180830381865afa158015610ee2573d6000803e3d6000fd5b505050506040513d601f19601f82011682018060405250810190610f069190612b53565b905060008473ffffffffffffffffffffffffffffffffffffffff166370a08231306040518263ffffffff1660e01b8152600401610f439190612968565b602060405180830381865afa158015610f60573d6000803e3d6000fd5b505050506040513d601f19601f82011682018060405250810190610f849190612b53565b905060008373ffffffffffffffffffffffffffffffffffffffff166370a08231306040518263ffffffff1660e01b8152600401610fc19190612968565b602060405180830381865afa158015610fde573d6000803e3d6000fd5b505050506040513d601f19601f820116820180604052508101906110029190612b53565b905060008773ffffffffffffffffffffffffffffffffffffffff1663095ea7b38a866040518363ffffffff1660e01b8152600401611041929190612dd6565b6020604051808303816000875af1158015611060573d6000803e3d6000fd5b505050506040513d601f19601f820116820180604052508101906110849190612e37565b9050806110bd576040517fc915b22a00000000000000000000000000000000000000000000000000000000815260040160405180910390fd5b8673ffffffffffffffffffffffffffffffffffffffff1663095ea7b38a856040518363ffffffff1660e01b81526004016110f8929190612dd6565b6020604051808303816000875af1158015611117573d6000803e3d6000fd5b505050506040513d601f19601f8201168201806040525081019061113b9190612e37565b905080611174576040517fc915b22a00000000000000000000000000000000000000000000000000000000815260040160405180910390fd5b8473ffffffffffffffffffffffffffffffffffffffff1663095ea7b38a846040518363ffffffff1660e01b81526004016111af929190612dd6565b6020604051808303816000875af11580156111ce573d6000803e3d6000fd5b505050506040513d601f19601f820116820180604052508101906111f29190612e37565b90508061122b576040517fc915b22a00000000000000000000000000000000000000000000000000000000815260040160405180910390fd5b8773ffffffffffffffffffffffffffffffffffffffff1663a9059cbb8a866040518363ffffffff1660e01b8152600401611266929190612dd6565b6020604051808303816000875af1158015611285573d6000803e3d6000fd5b505050506040513d601f19601f820116820180604052508101906112a99190612e37565b9050806112e2576040517f9c9e641c00000000000000000000000000000000000000000000000000000000815260040160405180910390fd5b8673ffffffffffffffffffffffffffffffffffffffff1663a9059cbb8a856040518363ffffffff1660e01b815260040161131d929190612dd6565b6020604051808303816000875af115801561133c573d6000803e3d6000fd5b505050506040513d601f19601f820116820180604052508101906113609190612e37565b905080611399576040517f9c9e641c00000000000000000000000000000000000000000000000000000000815260040160405180910390fd5b8473ffffffffffffffffffffffffffffffffffffffff1663a9059cbb8a846040518363ffffffff1660e01b81526004016113d4929190612dd6565b6020604051808303816000875af11580156113f3573d6000803e3d6000fd5b505050506040513d601f19601f820116820180604052508101906114179190612e37565b905080611450576040517f9c9e641c00000000000000000000000000000000000000000000000000000000815260040160405180910390fd5b7fc47a839c70aa320457c80c5abd38ce8b516c72e37be119b7962f67f1f8eb7ac2898585856040516114859493929190612e64565b60405180910390a1505050505050505050565b600360009054906101000a900473ffffffffffffffffffffffffffffffffffffffff1681565b60008054906101000a900473ffffffffffffffffffffffffffffffffffffffff1681565b6000600160009054906101000a900473ffffffffffffffffffffffffffffffffffffffff1690506000600260009054906101000a900473ffffffffffffffffffffffffffffffffffffffff1690506000600460009054906101000a900473ffffffffffffffffffffffffffffffffffffffff16905060008173ffffffffffffffffffffffffffffffffffffffff1663e6a4390585856040518363ffffffff1660e01b8152600401611594929190612ad3565b602060405180830381865afa1580156115b1573d6000803e3d6000fd5b505050506040513d601f19601f820116820180604052508101906115d59190612b11565b90506115df612849565b8473ffffffffffffffffffffffffffffffffffffffff166370a08231306040518263ffffffff1660e01b81526004016116189190612968565b602060405180830381865afa158015611635573d6000803e3d6000fd5b505050506040513d601f19601f820116820180604052508101906116599190612b53565b8160400181815250508373ffffffffffffffffffffffffffffffffffffffff166370a08231306040518263ffffffff1660e01b815260040161169b9190612968565b602060405180830381865afa1580156116b8573d6000803e3d6000fd5b505050506040513d601f19601f820116820180604052508101906116dc9190612b53565b8160600181815250508173ffffffffffffffffffffffffffffffffffffffff166370a08231306040518263ffffffff1660e01b815260040161171e9190612968565b602060405180830381865afa15801561173b573d6000803e3d6000fd5b505050506040513d601f19601f8201168201806040525081019061175f9190612b53565b816080018181525050600660009054906101000a900473ffffffffffffffffffffffffffffffffffffffff1673ffffffffffffffffffffffffffffffffffffffff1663da6bae106040518163ffffffff1660e01b8152600401602060405180830381865afa1580156117d5573d6000803e3d6000fd5b505050506040513d601f19601f820116820180604052508101906117f99190612b53565b8160000181815250508373ffffffffffffffffffffffffffffffffffffffff166370a08231836040518263ffffffff1660e01b815260040161183b9190612968565b602060405180830381865afa158015611858573d6000803e3d6000fd5b505050506040513d601f19601f8201168201806040525081019061187c9190612b53565b670de0b6b3a76400008673ffffffffffffffffffffffffffffffffffffffff166370a08231856040518263ffffffff1660e01b81526004016118be9190612968565b602060405180830381865afa1580156118db573d6000803e3d6000fd5b505050506040513d601f19601f820116820180604052508101906118ff9190612b53565b6119099190612c1b565b6119139190612ca4565b816020018181525050600081602001518260000151111561194957816020015182600001516119429190612ea9565b9050611960565b8160000151826020015161195d9190612ea9565b90505b60008260000151670de0b6b3a76400008361197b9190612c1b565b6119859190612ca4565b9050662386f26fc100008110156119a25750505050505050611ea0565b6000836080015114611a675782604001518773ffffffffffffffffffffffffffffffffffffffff166370a08231866040518263ffffffff1660e01b81526004016119ec9190612968565b602060405180830381865afa158015611a09573d6000803e3d6000fd5b505050506040513d601f19601f82011682018060405250810190611a2d9190612b53565b14611a4857611a4187878560800151611ea2565b5050611a66565b611a63878760648660800151611a5e9190612ca4565b611ea2565b50505b5b8673ffffffffffffffffffffffffffffffffffffffff166370a08231306040518263ffffffff1660e01b8152600401611aa09190612968565b602060405180830381865afa158015611abd573d6000803e3d6000fd5b505050506040513d601f19601f82011682018060405250810190611ae19190612b53565b8360400181815250508573ffffffffffffffffffffffffffffffffffffffff166370a08231306040518263ffffffff1660e01b8152600401611b239190612968565b602060405180830381865afa158015611b40573d6000803e3d6000fd5b505050506040513d601f19601f82011682018060405250810190611b649190612b53565b8360600181815250508673ffffffffffffffffffffffffffffffffffffffff166370a08231856040518263ffffffff1660e01b8152600401611ba69190612968565b602060405180830381865afa158015611bc3573d6000803e3d6000fd5b505050506040513d601f19601f82011682018060405250810190611be79190612b53565b8360a00181815250508573ffffffffffffffffffffffffffffffffffffffff166370a08231856040518263ffffffff1660e01b8152600401611c299190612968565b602060405180830381865afa158015611c46573d6000803e3d6000fd5b505050506040513d601f19601f82011682018060405250810190611c6a9190612b53565b8360c001818152505060008360a0015114158015611c8d575060008360c0015114155b611ccc576040517f08c379a0000000000000000000000000000000000000000000000000000000008152600401611cc390612f29565b60405180910390fd5b600080846020015185600001511115611db157600554670de0b6b3a7640000611cf59190612ea9565b670de0b6b3a7640000611d3487602001516ec097ce7bc90715b34b9f10000000008960000151611d259190612c1b565b611d2f9190612ca4565b61218d565b611d3e9190612ea9565b8660a00151611d4d9190612c1b565b611d579190612ca4565b91508460400151821115611d6d57846040015191505b611d78898984612207565b9050818560400151611d8a9190612ea9565b856040018181525050808560600151611da39190612f49565b856060018181525050611e7f565b600554670de0b6b3a7640000611dc79190612ea9565b670de0b6b3a7640000611e0687600001516ec097ce7bc90715b34b9f10000000008960200151611df79190612c1b565b611e019190612ca4565b61218d565b611e109190612ea9565b8660c00151611e1f9190612c1b565b611e299190612ca4565b91508460600151821115611e3f57846060015191505b611e4a888a84612207565b9050818560600151611e5c9190612ea9565b856060018181525050808560400151611e759190612f49565b8560400181815250505b611e938989876040015188606001516125d4565b5050505050505050505050505b565b600080600073ffffffffffffffffffffffffffffffffffffffff168573ffffffffffffffffffffffffffffffffffffffff1614158015611f0f5750600073ffffffffffffffffffffffffffffffffffffffff168473ffffffffffffffffffffffffffffffffffffffff1614155b611f4e576040517f08c379a0000000000000000000000000000000000000000000000000000000008152600401611f4590612feb565b60405180910390fd5b6000831415611f635760008091509150612185565b6000600360009054906101000a900473ffffffffffffffffffffffffffffffffffffffff16905060008190506000600460009054906101000a900473ffffffffffffffffffffffffffffffffffffffff16905060008173ffffffffffffffffffffffffffffffffffffffff1663e6a439058a8a6040518363ffffffff1660e01b8152600401611ff3929190612ad3565b602060405180830381865afa158015612010573d6000803e3d6000fd5b505050506040513d601f19601f820116820180604052508101906120349190612b11565b905060008173ffffffffffffffffffffffffffffffffffffffff1663095ea7b3868a6040518363ffffffff1660e01b8152600401612073929190612dd6565b6020604051808303816000875af1158015612092573d6000803e3d6000fd5b505050506040513d601f19601f820116820180604052508101906120b69190612e37565b9050806120ef576040517fc915b22a00000000000000000000000000000000000000000000000000000000815260040160405180910390fd5b8373ffffffffffffffffffffffffffffffffffffffff1663baa2abde8b8b8b60018030426040518863ffffffff1660e01b81526004016121359796959493929190613046565b60408051808303816000875af1158015612153573d6000803e3d6000fd5b505050506040513d601f19601f8201168201806040525081019061217791906130b5565b809750819850505050505050505b935093915050565b600060038211156121f457819050600060016002846121ac9190612ca4565b6121b69190612f49565b90505b818110156121ee5780915060028182856121d39190612ca4565b6121dd9190612f49565b6121e79190612ca4565b90506121b9565b50612202565b6000821461220157600190505b5b919050565b60008273ffffffffffffffffffffffffffffffffffffffff168473ffffffffffffffffffffffffffffffffffffffff161415612245578190506125cd565b6000600360009054906101000a900473ffffffffffffffffffffffffffffffffffffffff16905060008190506000869050848173ffffffffffffffffffffffffffffffffffffffff166370a08231306040518263ffffffff1660e01b81526004016122b09190612968565b602060405180830381865afa1580156122cd573d6000803e3d6000fd5b505050506040513d601f19601f820116820180604052508101906122f19190612b53565b1015612332576040517f08c379a000000000000000000000000000000000000000000000000000000000815260040161232990613141565b60405180910390fd5b60008511612375576040517f08c379a000000000000000000000000000000000000000000000000000000000815260040161236c90612feb565b60405180910390fd5b60008173ffffffffffffffffffffffffffffffffffffffff1663095ea7b385886040518363ffffffff1660e01b81526004016123b2929190612dd6565b6020604051808303816000875af11580156123d1573d6000803e3d6000fd5b505050506040513d601f19601f820116820180604052508101906123f59190612e37565b90508061242e576040517fc915b22a00000000000000000000000000000000000000000000000000000000815260040160405180910390fd5b6060600267ffffffffffffffff81111561244b5761244a613161565b5b6040519080825280602002602001820160405280156124795781602001602082028036833780820191505090505b509050888160008151811061249157612490613190565b5b602002602001019073ffffffffffffffffffffffffffffffffffffffff16908173ffffffffffffffffffffffffffffffffffffffff168152505087816001815181106124e0576124df613190565b5b602002602001019073ffffffffffffffffffffffffffffffffffffffff16908173ffffffffffffffffffffffffffffffffffffffff168152505060008473ffffffffffffffffffffffffffffffffffffffff166338ed17398960018530426040518663ffffffff1660e01b815260040161255e95949392919061327d565b6000604051808303816000875af115801561257d573d6000803e3d6000fd5b505050506040513d6000823e3d601f19601f820116820180604052508101906125a69190613401565b9050806001815181106125bc576125bb613190565b5b602002602001015196505050505050505b9392505050565b6000806000808514806125e75750600084145b156125fc57600080600092509250925061283f565b600087905060008790506000600360009054906101000a900473ffffffffffffffffffffffffffffffffffffffff169050600081905060008473ffffffffffffffffffffffffffffffffffffffff1663095ea7b3848c6040518363ffffffff1660e01b815260040161266f929190612dd6565b6020604051808303816000875af115801561268e573d6000803e3d6000fd5b505050506040513d601f19601f820116820180604052508101906126b29190612e37565b9050806126eb576040517fc915b22a00000000000000000000000000000000000000000000000000000000815260040160405180910390fd5b8373ffffffffffffffffffffffffffffffffffffffff1663095ea7b3848b6040518363ffffffff1660e01b8152600401612726929190612dd6565b6020604051808303816000875af1158015612745573d6000803e3d6000fd5b505050506040513d601f19601f820116820180604052508101906127699190612e37565b9050806127a2576040517fc915b22a00000000000000000000000000000000000000000000000000000000815260040160405180910390fd5b8173ffffffffffffffffffffffffffffffffffffffff1663e8e337008d8d8d8d60018030426040518963ffffffff1660e01b81526004016127ea98979695949392919061344a565b6060604051808303816000875af1158015612809573d6000803e3d6000fd5b505050506040513d601f19601f8201168201806040525081019061282d91906134c8565b809850819950829a5050505050505050505b9450945094915050565b6040518060e00160405280600081526020016000815260200160008152602001600081526020016000815260200160008152602001600081525090565b6000819050919050565b61289981612886565b82525050565b60006020820190506128b46000830184612890565b92915050565b6000604051905090565b600080fd5b600080fd5b600073ffffffffffffffffffffffffffffffffffffffff82169050919050565b60006128f9826128ce565b9050919050565b612909816128ee565b811461291457600080fd5b50565b60008135905061292681612900565b92915050565b600060208284031215612942576129416128c4565b5b600061295084828501612917565b91505092915050565b612962816128ee565b82525050565b600060208201905061297d6000830184612959565b92915050565b6000819050919050565b60006129a86129a361299e846128ce565b612983565b6128ce565b9050919050565b60006129ba8261298d565b9050919050565b60006129cc826129af565b9050919050565b6129dc816129c1565b82525050565b60006020820190506129f760008301846129d3565b92915050565b612a0681612886565b8114612a1157600080fd5b50565b600081359050612a23816129fd565b92915050565b600060208284031215612a3f57612a3e6128c4565b5b6000612a4d84828501612a14565b91505092915050565b600082825260208201905092915050565b7f4f6e6c7941646d696e0000000000000000000000000000000000000000000000600082015250565b6000612a9d600983612a56565b9150612aa882612a67565b602082019050919050565b60006020820190508181036000830152612acc81612a90565b9050919050565b6000604082019050612ae86000830185612959565b612af56020830184612959565b9392505050565b600081519050612b0b81612900565b92915050565b600060208284031215612b2757612b266128c4565b5b6000612b3584828501612afc565b91505092915050565b600081519050612b4d816129fd565b92915050565b600060208284031215612b6957612b686128c4565b5b6000612b7784828501612b3e565b91505092915050565b7f50726963652063616e27742062652063616c63756c6174656400000000000000600082015250565b6000612bb6601983612a56565b9150612bc182612b80565b602082019050919050565b60006020820190508181036000830152612be581612ba9565b9050919050565b7f4e487b7100000000000000000000000000000000000000000000000000000000600052601160045260246000fd5b6000612c2682612886565b9150612c3183612886565b9250817fffffffffffffffffffffffffffffffffffffffffffffffffffffffffffffffff0483118215151615612c6a57612c69612bec565b5b828202905092915050565b7f4e487b7100000000000000000000000000000000000000000000000000000000600052601260045260246000fd5b6000612caf82612886565b9150612cba83612886565b925082612cca57612cc9612c75565b5b828204905092915050565b7f6e6f207265656e7472616e636500000000000000000000000000000000000000600082015250565b6000612d0b600d83612a56565b9150612d1682612cd5565b602082019050919050565b60006020820190508181036000830152612d3a81612cfe565b9050919050565b7f7265706561746564206665650000000000000000000000000000000000000000600082015250565b6000612d77600c83612a56565b9150612d8282612d41565b602082019050919050565b60006020820190508181036000830152612da681612d6a565b9050919050565b6000604082019050612dc26000830185612890565b612dcf6020830184612890565b9392505050565b6000604082019050612deb6000830185612959565b612df86020830184612890565b9392505050565b60008115159050919050565b612e1481612dff565b8114612e1f57600080fd5b50565b600081519050612e3181612e0b565b92915050565b600060208284031215612e4d57612e4c6128c4565b5b6000612e5b84828501612e22565b91505092915050565b6000608082019050612e796000830187612959565b612e866020830186612890565b612e936040830185612890565b612ea06060830184612890565b95945050505050565b6000612eb482612886565b9150612ebf83612886565b925082821015612ed257612ed1612bec565b5b828203905092915050565b7f4e6f7420656e6f756768204c502062616c616e63650000000000000000000000600082015250565b6000612f13601583612a56565b9150612f1e82612edd565b602082019050919050565b60006020820190508181036000830152612f4281612f06565b9050919050565b6000612f5482612886565b9150612f5f83612886565b9250827fffffffffffffffffffffffffffffffffffffffffffffffffffffffffffffffff03821115612f9457612f93612bec565b5b828201905092915050565b7f4241445f494e5055540000000000000000000000000000000000000000000000600082015250565b6000612fd5600983612a56565b9150612fe082612f9f565b602082019050919050565b6000602082019050818103600083015261300481612fc8565b9050919050565b6000819050919050565b600061303061302b6130268461300b565b612983565b612886565b9050919050565b61304081613015565b82525050565b600060e08201905061305b600083018a612959565b6130686020830189612959565b6130756040830188612890565b6130826060830187613037565b61308f6080830186613037565b61309c60a0830185612959565b6130a960c0830184612890565b98975050505050505050565b600080604083850312156130cc576130cb6128c4565b5b60006130da85828601612b3e565b92505060206130eb85828601612b3e565b9150509250929050565b7f4e6f7420656e6f7567682062616c616e63650000000000000000000000000000600082015250565b600061312b601283612a56565b9150613136826130f5565b602082019050919050565b6000602082019050818103600083015261315a8161311e565b9050919050565b7f4e487b7100000000000000000000000000000000000000000000000000000000600052604160045260246000fd5b7f4e487b7100000000000000000000000000000000000000000000000000000000600052603260045260246000fd5b600081519050919050565b600082825260208201905092915050565b6000819050602082019050919050565b6131f4816128ee565b82525050565b600061320683836131eb565b60208301905092915050565b6000602082019050919050565b600061322a826131bf565b61323481856131ca565b935061323f836131db565b8060005b8381101561327057815161325788826131fa565b975061326283613212565b925050600181019050613243565b5085935050505092915050565b600060a0820190506132926000830188612890565b61329f6020830187613037565b81810360408301526132b1818661321f565b90506132c06060830185612959565b6132cd6080830184612890565b9695505050505050565b600080fd5b6000601f19601f8301169050919050565b6132f6826132dc565b810181811067ffffffffffffffff8211171561331557613314613161565b5b80604052505050565b60006133286128ba565b905061333482826132ed565b919050565b600067ffffffffffffffff82111561335457613353613161565b5b602082029050602081019050919050565b600080fd5b600061337d61337884613339565b61331e565b905080838252602082019050602084028301858111156133a05761339f613365565b5b835b818110156133c957806133b58882612b3e565b8452602084019350506020810190506133a2565b5050509392505050565b600082601f8301126133e8576133e76132d7565b5b81516133f884826020860161336a565b91505092915050565b600060208284031215613417576134166128c4565b5b600082015167ffffffffffffffff811115613435576134346128c9565b5b613441848285016133d3565b91505092915050565b600061010082019050613460600083018b612959565b61346d602083018a612959565b61347a6040830189612890565b6134876060830188612890565b6134946080830187613037565b6134a160a0830186613037565b6134ae60c0830185612959565b6134bb60e0830184612890565b9998505050505050505050565b6000806000606084860312156134e1576134e06128c4565b5b60006134ef86828701612b3e565b935050602061350086828701612b3e565b925050604061351186828701612b3e565b915050925092509256fea2646970667358221220197b240d56d8924ac1dfcff3b806dbaeb3c618d1cf58dea0f457c37ff1667e1a64736f6c634300080c0033",
  "immutableReferences": {},
  "source": "// SPDX-License-Identifier: MIT\r\npragma solidity 0.8.12;\r\n\r\nimport './interface/ComptrollerInterface.sol';\r\nimport './interface/UniswapInterface.sol';\r\nimport \"@openzeppelin/contracts/token/ERC20/IERC20.sol\";\r\n\r\ncontract TreasuryAURUM {\r\n    address public admin;\r\n\r\n    address public busd;    //kBUSD contract\r\n    address public aurum;   //AURUM contract\r\n\r\n    address public uniswapRouters;      //Using Add/Remove liquidity\r\n    address public uniswapFactory;      //Used for get AURUM/kBUSD LP address\r\n    uint public swapfee;                //Uniswap swap fee\r\n\r\n    PriceOracle public oracle;  //getGoldPrice\r\n\r\n    bool locked;    //Reentrance\r\n\r\n    error ApproveFail();\r\n    error TransferFail();\r\n\r\n    event SetAdmin(address oldAdmin, address newAdmin);\r\n    event SetFee(uint oldFee, uint newFee);\r\n    event SetUniswapRouters(address oldUniswapRouters, address newUniswapRouters);\r\n    event SetUniswapFactory(address oldUniswapFactory, address newUniswapFactory);\r\n    event SetPriceOracle(address oldPriceOracle, address newPriceOracle);\r\n    event Migrate(address to, uint BUSD, uint AURUM, uint LPToken);\r\n\r\n    modifier onlyAdmin {\r\n        require(msg.sender == admin, \"OnlyAdmin\");\r\n        _;\r\n    }\r\n\r\n    modifier noReentrance {\r\n        require(!locked, \"no reentrance\");\r\n        locked = true;\r\n        _;\r\n        locked = false;\r\n    }\r\n\r\n    constructor(address busd_, address aurum_) {\r\n        admin = msg.sender;\r\n        locked = false;\r\n\r\n        busd = busd_;\r\n        aurum = aurum_;\r\n\r\n    }\r\n\r\n    function addLiquidity(address tokenA, address tokenB, uint amountInA, uint amountInB) internal returns(uint amountA, uint amountB, uint liquidity) {\r\n        if(amountInA == 0 || amountInB == 0){\r\n            return (0,0,0);\r\n        }\r\n        IERC20 tokenA_ = IERC20(tokenA);\r\n        IERC20 tokenB_ = IERC20(tokenB);\r\n        \r\n        address varRouter = uniswapRouters;\r\n        IUniswapV2Router routerContract = IUniswapV2Router(varRouter);\r\n\r\n        // Approve\r\n        bool success;\r\n        success = tokenA_.approve(varRouter, amountInA);\r\n        if(!success){\r\n            revert ApproveFail();\r\n        }        \r\n        success = tokenB_.approve(varRouter, amountInB);\r\n        if(!success){\r\n            revert ApproveFail();\r\n        }        \r\n\r\n        (amountA, amountB, liquidity) = routerContract.addLiquidity(\r\n            tokenA,\r\n            tokenB,\r\n            amountInA,\r\n            amountInB,\r\n            1,\r\n            1,\r\n            address(this),\r\n            block.timestamp\r\n        );\r\n    }\r\n\r\n    function removeLiquidity(address tokenA, address tokenB, uint amount) internal returns(uint amountOutA, uint amountOutB){\r\n        require (tokenA != address(0) && tokenB != address(0), \"BAD_INPUT\");\r\n        if(amount == 0){\r\n            return (0,0);\r\n        }\r\n        address varRouter = uniswapRouters;\r\n        IUniswapV2Router routerContract = IUniswapV2Router(varRouter);\r\n\r\n        IUniswapV2Factory factory = IUniswapV2Factory(uniswapFactory);\r\n        IERC20 LPToken = IERC20(factory.getPair(address(tokenA), address(tokenB)));\r\n\r\n        //Approve\r\n        bool success = LPToken.approve(varRouter, amount);\r\n        if(!success){\r\n            revert ApproveFail();\r\n        }        \r\n\r\n        (amountOutA, amountOutB) = routerContract.removeLiquidity(\r\n            tokenA,\r\n            tokenB,\r\n            amount,\r\n            1,\r\n            1,\r\n            address(this),\r\n            block.timestamp\r\n        );\r\n    }\r\n\r\n    function swap(address tokenA, address tokenB, uint amountIn) internal returns(uint) {\r\n        if(tokenA == tokenB){\r\n            return amountIn; //no need for swap\r\n        }\r\n        address varRouter = uniswapRouters;\r\n        IUniswapV2Router routerContract = IUniswapV2Router(varRouter);\r\n        IERC20 tokenIn = IERC20(tokenA);\r\n\r\n        require(tokenIn.balanceOf(address(this))>=amountIn, \"Not enough balance\");\r\n        require(amountIn > 0, \"BAD_INPUT\");\r\n\r\n        //Approve the tokenA\r\n        bool success = tokenIn.approve(varRouter, amountIn);\r\n        if(!success){\r\n            revert ApproveFail();\r\n        }        \r\n\r\n        //Setting path\r\n        address[] memory path;\r\n        path = new address[](2);\r\n        path[0] = tokenA;\r\n        path[1] = tokenB;\r\n\r\n        //Swap A to B\r\n        (uint[] memory amount) = routerContract.swapExactTokensForTokens(amountIn, 1, path, address(this), block.timestamp);\r\n\r\n        return amount[1]; // return amountOut;\r\n    }\r\n\r\n    function getDEXAURUMPrice() external view returns(uint price){\r\n        IERC20 busd_ = IERC20(busd);\r\n        IERC20 aurum_ = IERC20(aurum);\r\n\r\n        IUniswapV2Factory factory = IUniswapV2Factory(uniswapFactory);\r\n        address LPToken = factory.getPair(address(busd_), address(aurum_));\r\n\r\n        uint busdAmount = busd_.balanceOf(LPToken);\r\n        uint aurumAmount = aurum_.balanceOf(LPToken);\r\n\r\n        require(busdAmount != 0 && aurumAmount != 0, \"Price can't be calculated\");\r\n        price = busdAmount * 1e18 / aurumAmount;\r\n\r\n    }\r\n\r\n    struct ArbitrageVariable {\r\n        uint goldPrice;\r\n        uint currentPrice;\r\n        uint balanceBUSD;\r\n        uint balanceAURUM;\r\n        uint balanceLPToken;\r\n        uint lpBalanceBUSD;\r\n        uint lpBalanceAURUM;\r\n    }\r\n    function arbitrage() external noReentrance{\r\n        arbitrageInternal();\r\n    }\r\n\r\n    function arbitrageInternal() internal {\r\n        IERC20 busd_ = IERC20(busd);\r\n        IERC20 aurum_ = IERC20(aurum);\r\n\r\n        IUniswapV2Factory factory = IUniswapV2Factory(uniswapFactory);\r\n        IERC20 LPToken = IERC20(factory.getPair(address(busd_), address(aurum_)));\r\n\r\n        ArbitrageVariable memory vars;\r\n\r\n        vars.balanceBUSD = busd_.balanceOf(address(this));\r\n        vars.balanceAURUM = aurum_.balanceOf(address(this));\r\n        vars.balanceLPToken = LPToken.balanceOf(address(this));\r\n\r\n        vars.goldPrice = oracle.getGoldPrice();\r\n        vars.currentPrice = (busd_.balanceOf(address(LPToken)) * 1e18 / aurum_.balanceOf(address(LPToken)));\r\n\r\n        //Check difference price\r\n        uint dif;\r\n        if(vars.goldPrice > vars.currentPrice) {\r\n            dif = vars.goldPrice - vars.currentPrice;\r\n        } else {\r\n            dif = vars.currentPrice - vars.goldPrice;\r\n        }\r\n\r\n        uint difPercent = dif * 1e18 / vars.goldPrice;\r\n        if(difPercent < 0.01e18){\r\n            return; //Dif < 1%, No need for arbitrage\r\n        }\r\n\r\n        //Removing LP for using less token for stabilized pricec\r\n        if(vars.balanceLPToken != 0){\r\n            if(busd_.balanceOf(address(LPToken)) != vars.balanceBUSD){\r\n                //Remove all\r\n                removeLiquidity(address(busd_), address(aurum_), vars.balanceLPToken);\r\n            } else {\r\n                //Remove 99%\r\n                removeLiquidity(address(busd_), address(aurum_), vars.balanceLPToken / 100);\r\n            }\r\n        }\r\n        \r\n        vars.balanceBUSD = busd_.balanceOf(address(this));\r\n        vars.balanceAURUM = aurum_.balanceOf(address(this));\r\n\r\n\r\n        vars.lpBalanceBUSD = busd_.balanceOf(address(LPToken)); //Balance of tokens in LPpool after removing liquidity\r\n        vars.lpBalanceAURUM = aurum_.balanceOf(address(LPToken));\r\n        require(vars.lpBalanceBUSD != 0 && vars.lpBalanceAURUM != 0,\"Not enough LP balance\");\r\n\r\n        //Calculate swap amount to target price\r\n        uint amountIn;\r\n        uint amountOut;\r\n        if(vars.goldPrice > vars.currentPrice) {\r\n            //Buy Aurum, amountIn is kBUSD amount\r\n            amountIn = vars.lpBalanceBUSD * (sqrt(vars.goldPrice * 1e36 / vars.currentPrice) -1e18) / (1e18 - swapfee);\r\n            if(amountIn > vars.balanceBUSD){\r\n                amountIn = vars.balanceBUSD;\r\n            }\r\n            //Swap\r\n            amountOut = swap(address(busd_), address(aurum_), amountIn);\r\n            vars.balanceBUSD = vars.balanceBUSD - amountIn;\r\n            vars.balanceAURUM = vars.balanceAURUM + amountOut;\r\n        } else {\r\n            amountIn = vars.lpBalanceAURUM * (sqrt(vars.currentPrice * 1e36 / vars.goldPrice) - 1e18) / (1e18 - swapfee);\r\n            if(amountIn > vars.balanceAURUM){\r\n                amountIn = vars.balanceAURUM;\r\n            }\r\n            amountOut = swap(address(aurum_), address(busd_), amountIn);\r\n            vars.balanceAURUM = vars.balanceAURUM - amountIn;\r\n            vars.balanceBUSD = vars.balanceBUSD + amountOut;\r\n        }\r\n\r\n        //Finally add liquidity\r\n        addLiquidity(address(busd_), address(aurum_), vars.balanceBUSD, vars.balanceAURUM);\r\n    }\r\n\r\n    function sqrt(uint y) internal pure returns (uint z) {\r\n        if (y > 3) {\r\n            z = y;\r\n            uint x = y / 2 + 1;\r\n            while (x < z) {\r\n                z = x;\r\n                x = (y / x + x) / 2;\r\n            }\r\n        } else if (y != 0) {\r\n            z = 1;\r\n        }\r\n    }\r\n\r\n    // ==================================\r\n    //  Admin function\r\n    // ==================================\r\n    function _setAdmin (address newAdmin) external onlyAdmin {\r\n        require(newAdmin != address(0));\r\n        address oldAdmin = admin;\r\n        admin = newAdmin;\r\n\r\n        emit SetAdmin(oldAdmin, newAdmin);\r\n    }\r\n\r\n    function _setUniswapRouters(address newUniswapRouters) external onlyAdmin {\r\n        require(newUniswapRouters != address(0));\r\n        address oldUniswapRouters = uniswapRouters;\r\n        uniswapRouters = newUniswapRouters;\r\n\r\n        emit SetUniswapRouters(oldUniswapRouters, newUniswapRouters);\r\n    }\r\n\r\n    function _setUniswapFactory(address newUniswapFactory) external onlyAdmin {\r\n        require(newUniswapFactory != address(0));\r\n        address oldUniswapFactory = uniswapFactory;\r\n        uniswapFactory = newUniswapFactory;\r\n\r\n        emit SetUniswapFactory(oldUniswapFactory, newUniswapFactory);\r\n    }\r\n\r\n    function _setFee(uint newFee) external onlyAdmin {\r\n        require(newFee != swapfee,\"repeated fee\");\r\n        uint oldFee = swapfee;\r\n        swapfee = newFee;\r\n\r\n        emit SetFee(oldFee, newFee);\r\n    }\r\n\r\n    function _setPriceOracle(address newPriceOracle) external onlyAdmin {\r\n        require(newPriceOracle != address(0));\r\n        address oldPriceOracle = address(oracle);\r\n        oracle = PriceOracle(newPriceOracle);\r\n\r\n        emit SetUniswapRouters(oldPriceOracle, newPriceOracle);\r\n    }\r\n    // Migrate kBUSD, AURUM, LP token   to target address.\r\n    function _migrate(address to) external onlyAdmin {\r\n        IERC20 busd_ = IERC20(busd);\r\n        IERC20 aurum_ = IERC20(aurum);\r\n\r\n        IUniswapV2Factory factory = IUniswapV2Factory(uniswapFactory);\r\n        IERC20 LPToken = IERC20(factory.getPair(address(busd_), address(aurum_)));\r\n\r\n        uint balanceBUSD = busd_.balanceOf(address(this));\r\n        uint balanceAURUM = aurum_.balanceOf(address(this));\r\n        uint balanceLPToken = LPToken.balanceOf(address(this));\r\n\r\n        //Approve all tokens\r\n        bool success;\r\n        success = busd_.approve(to, balanceBUSD);\r\n        if(!success){\r\n            revert ApproveFail();\r\n        }\r\n        success = aurum_.approve(to, balanceAURUM);\r\n        if(!success){\r\n            revert ApproveFail();\r\n        }\r\n        success = LPToken.approve(to, balanceLPToken);\r\n        if(!success){\r\n            revert ApproveFail();\r\n        }\r\n\r\n        //Transfer all tokens\r\n        success = busd_.transfer(to, balanceBUSD);\r\n        if(!success){\r\n            revert TransferFail();\r\n        }\r\n        success = aurum_.transfer(to, balanceAURUM);\r\n        if(!success){\r\n            revert TransferFail();\r\n        }\r\n        success = LPToken.transfer(to, balanceLPToken);\r\n        if(!success){\r\n            revert TransferFail();\r\n        }\r\n\r\n        emit Migrate(to, balanceBUSD, balanceAURUM, balanceLPToken);\r\n    }\r\n\r\n}",
  "sourcePath": "C:\\Users\\chana\\desktop\\aurumdefi\\src\\contracts\\TreasuryAURUM.sol",
  "compiler": {
    "name": "solc",
    "version": "0.8.12+commit.f00d7308.Emscripten.clang"
  },
  "schemaVersion": "3.4.6",
  "updatedAt": "2022-04-28T14:57:09.103Z",
  "devdoc": {
    "kind": "dev",
    "methods": {},
    "version": 1
  },
  "userdoc": {
    "kind": "user",
    "methods": {},
    "version": 1
  }
}