{
  "contractName": "TreasuryWallet",
  "abi": [
    {
      "inputs": [
        {
          "internalType": "address",
          "name": "busd_",
          "type": "address"
        },
        {
          "internalType": "uint8",
          "name": "reinvestRatio_",
          "type": "uint8"
        }
      ],
      "stateMutability": "nonpayable",
      "type": "constructor"
    },
    {
      "inputs": [],
      "name": "ApproveFail",
      "type": "error"
    },
    {
      "inputs": [],
      "name": "TransferFail",
      "type": "error"
    },
    {
      "anonymous": false,
      "inputs": [
        {
          "indexed": false,
          "internalType": "address",
          "name": "token",
          "type": "address"
        },
        {
          "indexed": false,
          "internalType": "uint256",
          "name": "reinvestAmount",
          "type": "uint256"
        },
        {
          "indexed": false,
          "internalType": "uint256",
          "name": "distributeAmount",
          "type": "uint256"
        }
      ],
      "name": "DistributeToken",
      "type": "event"
    },
    {
      "anonymous": false,
      "inputs": [
        {
          "indexed": false,
          "internalType": "address",
          "name": "lendToken",
          "type": "address"
        },
        {
          "indexed": false,
          "internalType": "uint256",
          "name": "amount",
          "type": "uint256"
        }
      ],
      "name": "Reinvest",
      "type": "event"
    },
    {
      "anonymous": false,
      "inputs": [
        {
          "indexed": false,
          "internalType": "uint256",
          "name": "amount",
          "type": "uint256"
        }
      ],
      "name": "SendBUSDToVault",
      "type": "event"
    },
    {
      "anonymous": false,
      "inputs": [
        {
          "indexed": false,
          "internalType": "address",
          "name": "oldARMVault",
          "type": "address"
        },
        {
          "indexed": false,
          "internalType": "address",
          "name": "newARMVault",
          "type": "address"
        }
      ],
      "name": "SetARMVault",
      "type": "event"
    },
    {
      "anonymous": false,
      "inputs": [
        {
          "indexed": false,
          "internalType": "address",
          "name": "oldAdmin",
          "type": "address"
        },
        {
          "indexed": false,
          "internalType": "address",
          "name": "newAdmin",
          "type": "address"
        }
      ],
      "name": "SetAdmin",
      "type": "event"
    },
    {
      "anonymous": false,
      "inputs": [
        {
          "indexed": false,
          "internalType": "address",
          "name": "oldComptrollerStorage",
          "type": "address"
        },
        {
          "indexed": false,
          "internalType": "address",
          "name": "newComptrollerStorage",
          "type": "address"
        }
      ],
      "name": "SetComptrollerStorage",
      "type": "event"
    },
    {
      "anonymous": false,
      "inputs": [
        {
          "indexed": false,
          "internalType": "uint8",
          "name": "oldRatio",
          "type": "uint8"
        },
        {
          "indexed": false,
          "internalType": "uint8",
          "name": "newRatio",
          "type": "uint8"
        }
      ],
      "name": "SetReinvestRatio",
      "type": "event"
    },
    {
      "anonymous": false,
      "inputs": [
        {
          "indexed": false,
          "internalType": "address",
          "name": "oldUniswapRouters",
          "type": "address"
        },
        {
          "indexed": false,
          "internalType": "address",
          "name": "newUniswapRouters",
          "type": "address"
        }
      ],
      "name": "SetUniswapRouters",
      "type": "event"
    },
    {
      "anonymous": false,
      "inputs": [
        {
          "indexed": false,
          "internalType": "address",
          "name": "tokenIn",
          "type": "address"
        },
        {
          "indexed": false,
          "internalType": "address",
          "name": "tokenOut",
          "type": "address"
        },
        {
          "indexed": false,
          "internalType": "uint256",
          "name": "amount",
          "type": "uint256"
        }
      ],
      "name": "Swap",
      "type": "event"
    },
    {
      "anonymous": false,
      "inputs": [
        {
          "indexed": false,
          "internalType": "address",
          "name": "to",
          "type": "address"
        },
        {
          "indexed": false,
          "internalType": "uint256",
          "name": "amount",
          "type": "uint256"
        }
      ],
      "name": "TransferREI",
      "type": "event"
    },
    {
      "anonymous": false,
      "inputs": [
        {
          "indexed": false,
          "internalType": "address",
          "name": "lendToken",
          "type": "address"
        },
        {
          "indexed": false,
          "internalType": "uint256",
          "name": "amount",
          "type": "uint256"
        }
      ],
      "name": "Withdraw",
      "type": "event"
    },
    {
      "inputs": [],
      "name": "admin",
      "outputs": [
        {
          "internalType": "address",
          "name": "",
          "type": "address"
        }
      ],
      "stateMutability": "view",
      "type": "function"
    },
    {
      "inputs": [],
      "name": "armVault",
      "outputs": [
        {
          "internalType": "address",
          "name": "",
          "type": "address"
        }
      ],
      "stateMutability": "view",
      "type": "function"
    },
    {
      "inputs": [],
      "name": "busd",
      "outputs": [
        {
          "internalType": "address",
          "name": "",
          "type": "address"
        }
      ],
      "stateMutability": "view",
      "type": "function"
    },
    {
      "inputs": [],
      "name": "compStorage",
      "outputs": [
        {
          "internalType": "address",
          "name": "",
          "type": "address"
        }
      ],
      "stateMutability": "view",
      "type": "function"
    },
    {
      "inputs": [],
      "name": "reinvestRatio",
      "outputs": [
        {
          "internalType": "uint8",
          "name": "",
          "type": "uint8"
        }
      ],
      "stateMutability": "view",
      "type": "function"
    },
    {
      "inputs": [],
      "name": "uniswapRouters",
      "outputs": [
        {
          "internalType": "address",
          "name": "",
          "type": "address"
        }
      ],
      "stateMutability": "view",
      "type": "function"
    },
    {
      "inputs": [
        {
          "internalType": "contract LendTokenInterface",
          "name": "lendToken",
          "type": "address"
        },
        {
          "internalType": "uint256",
          "name": "amount",
          "type": "uint256"
        }
      ],
      "name": "withdraw",
      "outputs": [],
      "stateMutability": "nonpayable",
      "type": "function"
    },
    {
      "inputs": [],
      "name": "distributionSwitch",
      "outputs": [],
      "stateMutability": "nonpayable",
      "type": "function"
    },
    {
      "inputs": [
        {
          "internalType": "address payable",
          "name": "to",
          "type": "address"
        },
        {
          "internalType": "uint256",
          "name": "amount",
          "type": "uint256"
        }
      ],
      "name": "withdrawREI",
      "outputs": [],
      "stateMutability": "nonpayable",
      "type": "function"
    },
    {
      "inputs": [
        {
          "internalType": "address",
          "name": "newAdmin",
          "type": "address"
        }
      ],
      "name": "_setAdmin",
      "outputs": [],
      "stateMutability": "nonpayable",
      "type": "function"
    },
    {
      "inputs": [
        {
          "internalType": "address",
          "name": "newComptrollerStorage",
          "type": "address"
        }
      ],
      "name": "_setComptrollerStorage",
      "outputs": [],
      "stateMutability": "nonpayable",
      "type": "function"
    },
    {
      "inputs": [
        {
          "internalType": "address",
          "name": "newUniswapRouters",
          "type": "address"
        }
      ],
      "name": "_setUniswapRouters",
      "outputs": [],
      "stateMutability": "nonpayable",
      "type": "function"
    },
    {
      "inputs": [
        {
          "internalType": "address",
          "name": "newARMVault",
          "type": "address"
        }
      ],
      "name": "_setARMVault",
      "outputs": [],
      "stateMutability": "nonpayable",
      "type": "function"
    },
    {
      "inputs": [
        {
          "internalType": "uint8",
          "name": "newRatio",
          "type": "uint8"
        }
      ],
      "name": "_setReinvestRatio",
      "outputs": [],
      "stateMutability": "nonpayable",
      "type": "function"
    }
  ],
  "bytecode": "0x60806040523480156200001157600080fd5b5060405162002b0d38038062002b0d83398181016040528101906200003791906200019e565b336000806101000a81548173ffffffffffffffffffffffffffffffffffffffff021916908373ffffffffffffffffffffffffffffffffffffffff16021790555081600160006101000a81548173ffffffffffffffffffffffffffffffffffffffff021916908373ffffffffffffffffffffffffffffffffffffffff16021790555080600460156101000a81548160ff021916908360ff1602179055506000600460146101000a81548160ff0219169083151502179055505050620001e5565b600080fd5b600073ffffffffffffffffffffffffffffffffffffffff82169050919050565b60006200012882620000fb565b9050919050565b6200013a816200011b565b81146200014657600080fd5b50565b6000815190506200015a816200012f565b92915050565b600060ff82169050919050565b620001788162000160565b81146200018457600080fd5b50565b60008151905062000198816200016d565b92915050565b60008060408385031215620001b857620001b7620000f6565b5b6000620001c88582860162000149565b9250506020620001db8582860162000187565b9150509250929050565b61291880620001f56000396000f3fe608060405234801561001057600080fd5b50600436106100ea5760003560e01c8063b1dfd3bf1161008c578063d5d159bc11610066578063d5d159bc146101fd578063eafa9ff114610219578063f3fef3a314610237578063f851a44014610253576100ea565b8063b1dfd3bf146101a5578063bd378e8e146101c1578063d0c48c9c146101df576100ea565b806336973efb116100c857806336973efb146101435780633773f0621461014d5780633a74a7671461016b5780633ca5b23414610187576100ea565b8063082f4c3b146100ef5780631c422d491461010b5780632a932d2614610127575b600080fd5b61010960048036038101906101049190611b34565b610271565b005b61012560048036038101906101209190611b34565b6103de565b005b610141600480360381019061013c9190611b34565b61054b565b005b61014b6106b8565b005b610155610839565b6040516101629190611b7d565b60405180910390f35b61018560048036038101906101809190611b34565b61084c565b005b61018f6109b7565b60405161019c9190611ba7565b60405180910390f35b6101bf60048036038101906101ba9190611c36565b6109dd565b005b6101c9610aef565b6040516101d69190611ba7565b60405180910390f35b6101e7610b15565b6040516101f49190611ba7565b60405180910390f35b61021760048036038101906102129190611ca2565b610b3b565b005b610221610c8c565b60405161022e9190611ba7565b60405180910390f35b610251600480360381019061024c9190611d0d565b610cb2565b005b61025b610eb1565b6040516102689190611ba7565b60405180910390f35b60008054906101000a900473ffffffffffffffffffffffffffffffffffffffff1673ffffffffffffffffffffffffffffffffffffffff163373ffffffffffffffffffffffffffffffffffffffff16146102ff576040517f08c379a00000000000000000000000000000000000000000000000000000000081526004016102f690611daa565b60405180910390fd5b600073ffffffffffffffffffffffffffffffffffffffff168173ffffffffffffffffffffffffffffffffffffffff16141561033957600080fd5b6000600460009054906101000a900473ffffffffffffffffffffffffffffffffffffffff16905081600460006101000a81548173ffffffffffffffffffffffffffffffffffffffff021916908373ffffffffffffffffffffffffffffffffffffffff1602179055507ff43b70160ea3ffe6dcf16797b5910f669804f54ffea48faaf94543ae2bb8672c81836040516103d2929190611dca565b60405180910390a15050565b60008054906101000a900473ffffffffffffffffffffffffffffffffffffffff1673ffffffffffffffffffffffffffffffffffffffff163373ffffffffffffffffffffffffffffffffffffffff161461046c576040517f08c379a000000000000000000000000000000000000000000000000000000000815260040161046390611daa565b60405180910390fd5b600073ffffffffffffffffffffffffffffffffffffffff168173ffffffffffffffffffffffffffffffffffffffff1614156104a657600080fd5b6000600260009054906101000a900473ffffffffffffffffffffffffffffffffffffffff16905081600260006101000a81548173ffffffffffffffffffffffffffffffffffffffff021916908373ffffffffffffffffffffffffffffffffffffffff1602179055507fbad8c9c3bde5f97ad806e7d0cdb6624ca74869d8f7acfb4656f75b52d6011686818360405161053f929190611dca565b60405180910390a15050565b60008054906101000a900473ffffffffffffffffffffffffffffffffffffffff1673ffffffffffffffffffffffffffffffffffffffff163373ffffffffffffffffffffffffffffffffffffffff16146105d9576040517f08c379a00000000000000000000000000000000000000000000000000000000081526004016105d090611daa565b60405180910390fd5b600073ffffffffffffffffffffffffffffffffffffffff168173ffffffffffffffffffffffffffffffffffffffff16141561061357600080fd5b6000600360009054906101000a900473ffffffffffffffffffffffffffffffffffffffff16905081600360006101000a81548173ffffffffffffffffffffffffffffffffffffffff021916908373ffffffffffffffffffffffffffffffffffffffff1602179055507f6e9f0fec8d15d9be0ba9d3c807d5b6e5e8c662311938734322014eb83d68fe8581836040516106ac929190611dca565b60405180910390a15050565b600460149054906101000a900460ff1615610708576040517f08c379a00000000000000000000000000000000000000000000000000000000081526004016106ff90611e3f565b60405180910390fd5b6001600460146101000a81548160ff0219169083151502179055506000600260009054906101000a900473ffffffffffffffffffffffffffffffffffffffff16905060008173ffffffffffffffffffffffffffffffffffffffff1663b0772d0b6040518163ffffffff1660e01b8152600401600060405180830381865afa158015610797573d6000803e3d6000fd5b505050506040513d6000823e3d601f19601f820116820180604052508101906107c09190611fcd565b905060008082519050600091505b8061ffff168261ffff16101561081857610805838361ffff16815181106107f8576107f7612016565b5b6020026020010151610ed5565b818061081090612082565b9250506107ce565b505050506000600460146101000a81548160ff021916908315150217905550565b600460159054906101000a900460ff1681565b60008054906101000a900473ffffffffffffffffffffffffffffffffffffffff1673ffffffffffffffffffffffffffffffffffffffff163373ffffffffffffffffffffffffffffffffffffffff16146108da576040517f08c379a00000000000000000000000000000000000000000000000000000000081526004016108d190611daa565b60405180910390fd5b600073ffffffffffffffffffffffffffffffffffffffff168173ffffffffffffffffffffffffffffffffffffffff16141561091457600080fd5b60008060009054906101000a900473ffffffffffffffffffffffffffffffffffffffff169050816000806101000a81548173ffffffffffffffffffffffffffffffffffffffff021916908373ffffffffffffffffffffffffffffffffffffffff1602179055507f848ac24ab84501710d6631faab117b66b79aba7ec6f7778cf3bcff428c1a4efc81836040516109ab929190611dca565b60405180910390a15050565b600160009054906101000a900473ffffffffffffffffffffffffffffffffffffffff1681565b60008054906101000a900473ffffffffffffffffffffffffffffffffffffffff1673ffffffffffffffffffffffffffffffffffffffff163373ffffffffffffffffffffffffffffffffffffffff1614610a6b576040517f08c379a0000000000000000000000000000000000000000000000000000000008152600401610a6290611daa565b60405180910390fd5b8173ffffffffffffffffffffffffffffffffffffffff166108fc829081150290604051600060405180830381858888f19350505050158015610ab1573d6000803e3d6000fd5b507f56b6124fb414b974ba56a1df942d36b9c89033c2e4eeef3a888cca09e15e71cb8282604051610ae392919061211b565b60405180910390a15050565b600260009054906101000a900473ffffffffffffffffffffffffffffffffffffffff1681565b600460009054906101000a900473ffffffffffffffffffffffffffffffffffffffff1681565b60008054906101000a900473ffffffffffffffffffffffffffffffffffffffff1673ffffffffffffffffffffffffffffffffffffffff163373ffffffffffffffffffffffffffffffffffffffff1614610bc9576040517f08c379a0000000000000000000000000000000000000000000000000000000008152600401610bc090611daa565b60405180910390fd5b60008160ff1610158015610be1575060648160ff1611155b610c20576040517f08c379a0000000000000000000000000000000000000000000000000000000008152600401610c1790612190565b60405180910390fd5b6000600460159054906101000a900460ff16905081600460156101000a81548160ff021916908360ff1602179055507f17a447a714e611c92f26b45d1c345d3ffc6adeddc360644cf5a5925a340ffd658183604051610c809291906121b0565b60405180910390a15050565b600360009054906101000a900473ffffffffffffffffffffffffffffffffffffffff1681565b60008054906101000a900473ffffffffffffffffffffffffffffffffffffffff1673ffffffffffffffffffffffffffffffffffffffff163373ffffffffffffffffffffffffffffffffffffffff1614610d40576040517f08c379a0000000000000000000000000000000000000000000000000000000008152600401610d3790611daa565b60405180910390fd5b808273ffffffffffffffffffffffffffffffffffffffff166370a08231306040518263ffffffff1660e01b8152600401610d7a9190611ba7565b602060405180830381865afa158015610d97573d6000803e3d6000fd5b505050506040513d601f19601f82011682018060405250810190610dbb91906121ee565b1015610dc657600080fd5b60008111610e09576040517f08c379a0000000000000000000000000000000000000000000000000000000008152600401610e0090612190565b60405180910390fd5b8173ffffffffffffffffffffffffffffffffffffffff1663db006a75826040518263ffffffff1660e01b8152600401610e42919061221b565b600060405180830381600087803b158015610e5c57600080fd5b505af1158015610e70573d6000803e3d6000fd5b505050507f884edad9ce6fa2440d8a54cc123490eb96d2768479d49ff9c7366125a94243648282604051610ea5929190612236565b60405180910390a15050565b60008054906101000a900473ffffffffffffffffffffffffffffffffffffffff1681565b610f878173ffffffffffffffffffffffffffffffffffffffff166395d89b416040518163ffffffff1660e01b8152600401600060405180830381865afa158015610f23573d6000803e3d6000fd5b505050506040513d6000823e3d601f19601f82011682018060405250810190610f4c9190612338565b6040518060400160405280600781526020017f6c656e6452454900000000000000000000000000000000000000000000000000815250611172565b15610f915761116f565b60008173ffffffffffffffffffffffffffffffffffffffff16636f307dc36040518163ffffffff1660e01b8152600401602060405180830381865afa158015610fde573d6000803e3d6000fd5b505050506040513d601f19601f820116820180604052508101906110029190612396565b905060008173ffffffffffffffffffffffffffffffffffffffff166370a08231306040518263ffffffff1660e01b815260040161103f9190611ba7565b602060405180830381865afa15801561105c573d6000803e3d6000fd5b505050506040513d601f19601f8201168201806040525081019061108091906121ee565b9050600081141561109257505061116f565b6000600460159054906101000a900460ff169050600060648260ff16846110b991906123c3565b6110c3919061244c565b9050600081846110d3919061247d565b905060008211156110e9576110e886836111cb565b5b600081111561112e57600061112186600160009054906101000a900473ffffffffffffffffffffffffffffffffffffffff16846114b2565b905061112c8161187f565b505b7f7f3494fc2348ba13898c6d7546b3903d0864084c91846853430e9fb59ee4f08b858383604051611161939291906124b1565b60405180910390a150505050505b50565b600081604051602001611185919061252f565b60405160208183030381529060405280519060200120836040516020016111ac919061252f565b6040516020818303038152906040528051906020012014905092915050565b60008273ffffffffffffffffffffffffffffffffffffffff16636f307dc36040518163ffffffff1660e01b8152600401602060405180830381865afa158015611218573d6000803e3d6000fd5b505050506040513d601f19601f8201168201806040525081019061123c9190612396565b9050818173ffffffffffffffffffffffffffffffffffffffff166370a08231306040518263ffffffff1660e01b81526004016112789190611ba7565b602060405180830381865afa158015611295573d6000803e3d6000fd5b505050506040513d601f19601f820116820180604052508101906112b991906121ee565b10156112fa576040517f08c379a00000000000000000000000000000000000000000000000000000000081526004016112f190612592565b60405180910390fd5b6000821161133d576040517f08c379a000000000000000000000000000000000000000000000000000000000815260040161133490612190565b60405180910390fd5b60008173ffffffffffffffffffffffffffffffffffffffff1663095ea7b385856040518363ffffffff1660e01b815260040161137a929190612236565b6020604051808303816000875af1158015611399573d6000803e3d6000fd5b505050506040513d601f19601f820116820180604052508101906113bd91906125ea565b9050806113f6576040517fc915b22a00000000000000000000000000000000000000000000000000000000815260040160405180910390fd5b8373ffffffffffffffffffffffffffffffffffffffff1663a0712d68846040518263ffffffff1660e01b815260040161142f919061221b565b6020604051808303816000875af115801561144e573d6000803e3d6000fd5b505050506040513d601f19601f8201168201806040525081019061147291906121ee565b507fbd654390d0d973e8c8376ed6053be8658870df892687852cc5c914d700291b8784846040516114a4929190612236565b60405180910390a150505050565b60008273ffffffffffffffffffffffffffffffffffffffff168473ffffffffffffffffffffffffffffffffffffffff1614156114f057819050611878565b6000600360009054906101000a900473ffffffffffffffffffffffffffffffffffffffff16905060008190506000869050848173ffffffffffffffffffffffffffffffffffffffff166370a08231306040518263ffffffff1660e01b815260040161155b9190611ba7565b602060405180830381865afa158015611578573d6000803e3d6000fd5b505050506040513d601f19601f8201168201806040525081019061159c91906121ee565b10156115dd576040517f08c379a00000000000000000000000000000000000000000000000000000000081526004016115d490612592565b60405180910390fd5b60008511611620576040517f08c379a000000000000000000000000000000000000000000000000000000000815260040161161790612190565b60405180910390fd5b60008173ffffffffffffffffffffffffffffffffffffffff1663095ea7b385886040518363ffffffff1660e01b815260040161165d929190612236565b6020604051808303816000875af115801561167c573d6000803e3d6000fd5b505050506040513d601f19601f820116820180604052508101906116a091906125ea565b9050806116d9576040517fc915b22a00000000000000000000000000000000000000000000000000000000815260040160405180910390fd5b6060600267ffffffffffffffff8111156116f6576116f5611e75565b5b6040519080825280602002602001820160405280156117245781602001602082028036833780820191505090505b509050888160008151811061173c5761173b612016565b5b602002602001019073ffffffffffffffffffffffffffffffffffffffff16908173ffffffffffffffffffffffffffffffffffffffff1681525050878160018151811061178b5761178a612016565b5b602002602001019073ffffffffffffffffffffffffffffffffffffffff16908173ffffffffffffffffffffffffffffffffffffffff168152505060008473ffffffffffffffffffffffffffffffffffffffff166338ed17398960018530426040518663ffffffff1660e01b8152600401611809959493929190612710565b6000604051808303816000875af1158015611828573d6000803e3d6000fd5b505050506040513d6000823e3d601f19601f82011682018060405250810190611851919061282d565b90508060018151811061186757611866612016565b5b602002602001015196505050505050505b9392505050565b6000600160009054906101000a900473ffffffffffffffffffffffffffffffffffffffff1690506000600460009054906101000a900473ffffffffffffffffffffffffffffffffffffffff169050828273ffffffffffffffffffffffffffffffffffffffff166370a08231306040518263ffffffff1660e01b81526004016119079190611ba7565b602060405180830381865afa158015611924573d6000803e3d6000fd5b505050506040513d601f19601f8201168201806040525081019061194891906121ee565b1015611989576040517f08c379a0000000000000000000000000000000000000000000000000000000008152600401611980906128c2565b60405180910390fd5b600083116119cc576040517f08c379a00000000000000000000000000000000000000000000000000000000081526004016119c390612190565b60405180910390fd5b60008273ffffffffffffffffffffffffffffffffffffffff1663a9059cbb83866040518363ffffffff1660e01b8152600401611a09929190612236565b6020604051808303816000875af1158015611a28573d6000803e3d6000fd5b505050506040513d601f19601f82011682018060405250810190611a4c91906125ea565b905080611a85576040517f9c9e641c00000000000000000000000000000000000000000000000000000000815260040160405180910390fd5b7f27a17079ff5974b0187a2665f922f8e85abfc4ec8a64b2c63fc893624d39c4a784604051611ab4919061221b565b60405180910390a150505050565b6000604051905090565b600080fd5b600080fd5b600073ffffffffffffffffffffffffffffffffffffffff82169050919050565b6000611b0182611ad6565b9050919050565b611b1181611af6565b8114611b1c57600080fd5b50565b600081359050611b2e81611b08565b92915050565b600060208284031215611b4a57611b49611acc565b5b6000611b5884828501611b1f565b91505092915050565b600060ff82169050919050565b611b7781611b61565b82525050565b6000602082019050611b926000830184611b6e565b92915050565b611ba181611af6565b82525050565b6000602082019050611bbc6000830184611b98565b92915050565b6000611bcd82611ad6565b9050919050565b611bdd81611bc2565b8114611be857600080fd5b50565b600081359050611bfa81611bd4565b92915050565b6000819050919050565b611c1381611c00565b8114611c1e57600080fd5b50565b600081359050611c3081611c0a565b92915050565b60008060408385031215611c4d57611c4c611acc565b5b6000611c5b85828601611beb565b9250506020611c6c85828601611c21565b9150509250929050565b611c7f81611b61565b8114611c8a57600080fd5b50565b600081359050611c9c81611c76565b92915050565b600060208284031215611cb857611cb7611acc565b5b6000611cc684828501611c8d565b91505092915050565b6000611cda82611af6565b9050919050565b611cea81611ccf565b8114611cf557600080fd5b50565b600081359050611d0781611ce1565b92915050565b60008060408385031215611d2457611d23611acc565b5b6000611d3285828601611cf8565b9250506020611d4385828601611c21565b9150509250929050565b600082825260208201905092915050565b7f4f6e6c7941646d696e0000000000000000000000000000000000000000000000600082015250565b6000611d94600983611d4d565b9150611d9f82611d5e565b602082019050919050565b60006020820190508181036000830152611dc381611d87565b9050919050565b6000604082019050611ddf6000830185611b98565b611dec6020830184611b98565b9392505050565b7f6e6f207265656e7472616e636500000000000000000000000000000000000000600082015250565b6000611e29600d83611d4d565b9150611e3482611df3565b602082019050919050565b60006020820190508181036000830152611e5881611e1c565b9050919050565b600080fd5b6000601f19601f8301169050919050565b7f4e487b7100000000000000000000000000000000000000000000000000000000600052604160045260246000fd5b611ead82611e64565b810181811067ffffffffffffffff82111715611ecc57611ecb611e75565b5b80604052505050565b6000611edf611ac2565b9050611eeb8282611ea4565b919050565b600067ffffffffffffffff821115611f0b57611f0a611e75565b5b602082029050602081019050919050565b600080fd5b600081519050611f3081611ce1565b92915050565b6000611f49611f4484611ef0565b611ed5565b90508083825260208201905060208402830185811115611f6c57611f6b611f1c565b5b835b81811015611f955780611f818882611f21565b845260208401935050602081019050611f6e565b5050509392505050565b600082601f830112611fb457611fb3611e5f565b5b8151611fc4848260208601611f36565b91505092915050565b600060208284031215611fe357611fe2611acc565b5b600082015167ffffffffffffffff81111561200157612000611ad1565b5b61200d84828501611f9f565b91505092915050565b7f4e487b7100000000000000000000000000000000000000000000000000000000600052603260045260246000fd5b7f4e487b7100000000000000000000000000000000000000000000000000000000600052601160045260246000fd5b600061ffff82169050919050565b600061208d82612074565b915061ffff8214156120a2576120a1612045565b5b600182019050919050565b6000819050919050565b60006120d26120cd6120c884611ad6565b6120ad565b611ad6565b9050919050565b60006120e4826120b7565b9050919050565b60006120f6826120d9565b9050919050565b612106816120eb565b82525050565b61211581611c00565b82525050565b600060408201905061213060008301856120fd565b61213d602083018461210c565b9392505050565b7f4241445f494e5055540000000000000000000000000000000000000000000000600082015250565b600061217a600983611d4d565b915061218582612144565b602082019050919050565b600060208201905081810360008301526121a98161216d565b9050919050565b60006040820190506121c56000830185611b6e565b6121d26020830184611b6e565b9392505050565b6000815190506121e881611c0a565b92915050565b60006020828403121561220457612203611acc565b5b6000612212848285016121d9565b91505092915050565b6000602082019050612230600083018461210c565b92915050565b600060408201905061224b6000830185611b98565b612258602083018461210c565b9392505050565b600080fd5b600067ffffffffffffffff82111561227f5761227e611e75565b5b61228882611e64565b9050602081019050919050565b60005b838110156122b3578082015181840152602081019050612298565b838111156122c2576000848401525b50505050565b60006122db6122d684612264565b611ed5565b9050828152602081018484840111156122f7576122f661225f565b5b612302848285612295565b509392505050565b600082601f83011261231f5761231e611e5f565b5b815161232f8482602086016122c8565b91505092915050565b60006020828403121561234e5761234d611acc565b5b600082015167ffffffffffffffff81111561236c5761236b611ad1565b5b6123788482850161230a565b91505092915050565b60008151905061239081611b08565b92915050565b6000602082840312156123ac576123ab611acc565b5b60006123ba84828501612381565b91505092915050565b60006123ce82611c00565b91506123d983611c00565b9250817fffffffffffffffffffffffffffffffffffffffffffffffffffffffffffffffff048311821515161561241257612411612045565b5b828202905092915050565b7f4e487b7100000000000000000000000000000000000000000000000000000000600052601260045260246000fd5b600061245782611c00565b915061246283611c00565b9250826124725761247161241d565b5b828204905092915050565b600061248882611c00565b915061249383611c00565b9250828210156124a6576124a5612045565b5b828203905092915050565b60006060820190506124c66000830186611b98565b6124d3602083018561210c565b6124e0604083018461210c565b949350505050565b600081519050919050565b600081905092915050565b6000612509826124e8565b61251381856124f3565b9350612523818560208601612295565b80840191505092915050565b600061253b82846124fe565b915081905092915050565b7f4e6f7420656e6f7567682062616c616e63650000000000000000000000000000600082015250565b600061257c601283611d4d565b915061258782612546565b602082019050919050565b600060208201905081810360008301526125ab8161256f565b9050919050565b60008115159050919050565b6125c7816125b2565b81146125d257600080fd5b50565b6000815190506125e4816125be565b92915050565b600060208284031215612600576125ff611acc565b5b600061260e848285016125d5565b91505092915050565b6000819050919050565b600061263c61263761263284612617565b6120ad565b611c00565b9050919050565b61264c81612621565b82525050565b600081519050919050565b600082825260208201905092915050565b6000819050602082019050919050565b61268781611af6565b82525050565b6000612699838361267e565b60208301905092915050565b6000602082019050919050565b60006126bd82612652565b6126c7818561265d565b93506126d28361266e565b8060005b838110156127035781516126ea888261268d565b97506126f5836126a5565b9250506001810190506126d6565b5085935050505092915050565b600060a082019050612725600083018861210c565b6127326020830187612643565b818103604083015261274481866126b2565b90506127536060830185611b98565b612760608083018461210c565b9695505050505050565b600067ffffffffffffffff82111561278557612784611e75565b5b602082029050602081019050919050565b60006127a96127a48461276a565b611ed5565b905080838252602082019050602084028301858111156127cc576127cb611f1c565b5b835b818110156127f557806127e188826121d9565b8452602084019350506020810190506127ce565b5050509392505050565b600082601f83011261281457612813611e5f565b5b8151612824848260208601612796565b91505092915050565b60006020828403121561284357612842611acc565b5b600082015167ffffffffffffffff81111561286157612860611ad1565b5b61286d848285016127ff565b91505092915050565b7f4e6f7420656e6f75676820425553440000000000000000000000000000000000600082015250565b60006128ac600f83611d4d565b91506128b782612876565b602082019050919050565b600060208201905081810360008301526128db8161289f565b905091905056fea2646970667358221220bba6311cd03e2bfeea6101c9b1abe88a28173063284630b55887128e81257be264736f6c634300080c0033",
  "immutableReferences": {},
  "source": "// SPDX-License-Identifier: MIT\r\npragma solidity 0.8.12;\r\n\r\nimport './interface/ComptrollerInterface.sol';\r\nimport './interface/UniswapInterface.sol';\r\nimport \"@openzeppelin/contracts/token/ERC20/IERC20.sol\";\r\n\r\ncontract TreasuryWallet {\r\n    address public admin;\r\n    \r\n    address public busd; // kBUSD address, this will reference stable coin to be switch to and send them to Vault to distribute to share hodlers.\r\n\r\n    address public compStorage;\r\n    address public uniswapRouters; // This refer to uniswap v2 router\r\n    address public armVault; // The reward distributing vault (Distribute kBUSD), only send kBUSD to this address, the contract will automatic adjust reward spending.\r\n\r\n    bool locked;\r\n\r\n    uint8 public reinvestRatio; // 0 = 0%, 100 = 100%\r\n\r\n    constructor (address busd_, uint8 reinvestRatio_) {\r\n        admin = msg.sender;\r\n        busd = busd_;\r\n\r\n        reinvestRatio = reinvestRatio_;\r\n        locked = false;\r\n    }\r\n\r\n    error ApproveFail();\r\n    error TransferFail();\r\n\r\n    event SendBUSDToVault(uint amount);\r\n    event Swap(address tokenIn, address tokenOut, uint amount);\r\n    event Reinvest(address lendToken, uint amount);\r\n    event Withdraw(address lendToken, uint amount);\r\n    event DistributeToken(address token, uint reinvestAmount, uint distributeAmount);\r\n    event TransferREI(address to, uint amount);\r\n\r\n    event SetAdmin(address oldAdmin, address newAdmin);\r\n    event SetComptrollerStorage(address oldComptrollerStorage, address newComptrollerStorage);\r\n    event SetUniswapRouters(address oldUniswapRouters, address newUniswapRouters);\r\n    event SetARMVault(address oldARMVault, address newARMVault);\r\n    event SetReinvestRatio(uint8 oldRatio, uint8 newRatio);\r\n\r\n    modifier onlyAdmin {\r\n        require(msg.sender == admin, \"OnlyAdmin\");\r\n        _;\r\n    }\r\n\r\n    modifier noReentrance {\r\n        require(!locked, \"no reentrance\");\r\n        locked = true;\r\n        _;\r\n        locked = false;\r\n    }\r\n\r\n\r\n\r\n    // This function will send BUSD to armVault\r\n    function sendToVault(uint amount) internal {\r\n        IERC20 kBUSD = IERC20(busd);\r\n        address vault = armVault;\r\n        require(kBUSD.balanceOf(address(this)) >= amount, \"Not enough BUSD\");\r\n        require(amount > 0, \"BAD_INPUT\");\r\n        \r\n        bool success = kBUSD.transfer(vault, amount);\r\n        if(!success){\r\n            revert TransferFail();\r\n        }        \r\n\r\n        emit SendBUSDToVault(amount);\r\n    }\r\n\r\n    // Call swap function of Uniswap V2\r\n    function swap(address tokenA, address tokenB, uint amountIn) internal returns(uint) {\r\n        if(tokenA == tokenB){\r\n            return amountIn; //no need for swap\r\n        }\r\n        address varRouter = uniswapRouters;\r\n        IUniswapV2Router routerContract = IUniswapV2Router(varRouter);\r\n        IERC20 tokenIn = IERC20(tokenA);\r\n\r\n        require(tokenIn.balanceOf(address(this))>=amountIn, \"Not enough balance\");\r\n        require(amountIn > 0, \"BAD_INPUT\");\r\n\r\n        //Approve the tokenA\r\n        bool success = tokenIn.approve(varRouter, amountIn);\r\n        if(!success){\r\n            revert ApproveFail();\r\n        }        \r\n\r\n        //Setting path\r\n        address[] memory path;\r\n        path = new address[](2);\r\n        path[0] = tokenA;\r\n        path[1] = tokenB;\r\n\r\n        //Swap A to B\r\n        (uint[] memory amount) = routerContract.swapExactTokensForTokens(amountIn, 1, path, address(this), block.timestamp);\r\n\r\n        return amount[1]; // return amountOut;\r\n    }\r\n\r\n    /* Reinvest and Withdraw function\r\n     * These function interact with LendToken contract to Deposit OR Withdraw underlying tokens\r\n     */\r\n    function reinvest(LendTokenInterface lendToken, uint amount) internal {\r\n        IERC20 underlying = IERC20(lendToken.underlying());\r\n        require(underlying.balanceOf(address(this)) >= amount,\"Not enough balance\");\r\n        require(amount > 0, \"BAD_INPUT\");\r\n\r\n        //Approve underlying\r\n        bool success = underlying.approve(address(lendToken), amount); // Deposit underlying to lendToken contract\r\n        if(!success){\r\n            revert ApproveFail();\r\n        }        \r\n\r\n        //Deposit\r\n        lendToken.mint(amount);\r\n        emit Reinvest(address(lendToken), amount);\r\n    }\r\n\r\n    function withdraw(LendTokenInterface lendToken, uint amount) external onlyAdmin {\r\n        require(lendToken.balanceOf(address(this)) >= amount);\r\n        require(amount > 0, \"BAD_INPUT\");\r\n\r\n        //Withdraw\r\n        lendToken.redeem(amount); // redeem amount using lendToken amount\r\n        emit Withdraw(address(lendToken), amount);\r\n    }\r\n\r\n    //ALL-IN-ONE switch will do following functions\r\n    //  Divided each tokens to 2 part\r\n    //  First part is reinvest\r\n    //  Second part is swap to kBUSD and transfer to armVault\r\n    //--Anyone can trigger this button !!\r\n    function distributionSwitch() external noReentrance {\r\n        ComptrollerStorageInterface comptrollerStorage = ComptrollerStorageInterface(compStorage);\r\n        LendTokenInterface[] memory markets = comptrollerStorage.getAllMarkets();\r\n        uint16 i;\r\n        uint16 len = uint16(markets.length);\r\n        for(i=0; i<len; i++){\r\n            distributeEachTokens(markets[i]);\r\n        }\r\n\r\n    }\r\n\r\n    function distributeEachTokens(LendTokenInterface lendToken) internal {\r\n        //Rule out the lendREI first\r\n        if(compareStrings(lendToken.symbol(), \"lendREI\")){\r\n            return; // lendREI not use for calculation, Admin can withdraw all REI using withdrawREI function\r\n        }\r\n\r\n        IERC20 underlying = IERC20(lendToken.underlying());\r\n\r\n        //Check balance\r\n        uint balance = underlying.balanceOf(address(this));\r\n        if(balance == 0){\r\n            return; //Short circuit out\r\n        }\r\n\r\n        //Divided to 2 part\r\n        uint8 varsReinvest = reinvestRatio;\r\n        \r\n        uint reinvestAmount = balance * varsReinvest / 100;\r\n        uint distributeAmount = balance - reinvestAmount;\r\n\r\n        //Reinvestment\r\n        if(reinvestAmount > 0){\r\n            reinvest(lendToken, reinvestAmount); //Deposit to the LendToken contract.\r\n        }\r\n\r\n        //Distribute -- Swap and transfer that amount\r\n        if(distributeAmount > 0){\r\n            uint actualBUSDget = swap(address(underlying), busd, distributeAmount);\r\n            sendToVault(actualBUSDget);\r\n        }\r\n        emit DistributeToken(address(underlying), reinvestAmount, distributeAmount);\r\n    }\r\n\r\n    function compareStrings(string memory a, string memory b) internal pure returns (bool) {\r\n        return (keccak256(abi.encodePacked((a))) == keccak256(abi.encodePacked((b))));\r\n    }\r\n\r\n    function withdrawREI(address payable to, uint amount) external onlyAdmin {\r\n        to.transfer(amount);\r\n        emit TransferREI(to, amount);\r\n    }\r\n\r\n    // ==================================\r\n    //  Admin function\r\n    // ==================================\r\n    function _setAdmin (address newAdmin) external onlyAdmin {\r\n        require(newAdmin != address(0));\r\n        address oldAdmin = admin;\r\n        admin = newAdmin;\r\n\r\n        emit SetAdmin(oldAdmin, newAdmin);\r\n    }\r\n\r\n    function _setComptrollerStorage (address newComptrollerStorage) external onlyAdmin {\r\n        require(newComptrollerStorage != address(0));\r\n        address oldComptrollerStorage = compStorage;\r\n        compStorage = newComptrollerStorage;\r\n\r\n        emit SetComptrollerStorage(oldComptrollerStorage, newComptrollerStorage);\r\n    }\r\n\r\n    function _setUniswapRouters(address newUniswapRouters) external onlyAdmin {\r\n        require(newUniswapRouters != address(0));\r\n        address oldUniswapRouters = uniswapRouters;\r\n        uniswapRouters = newUniswapRouters;\r\n\r\n        emit SetUniswapRouters(oldUniswapRouters, newUniswapRouters);\r\n    }\r\n\r\n    function _setARMVault(address newARMVault) external onlyAdmin {\r\n        require(newARMVault != address(0));\r\n        address oldARMVault = armVault;\r\n        armVault = newARMVault;\r\n\r\n        emit SetARMVault(oldARMVault, newARMVault);\r\n    }\r\n\r\n    function _setReinvestRatio(uint8 newRatio) external onlyAdmin {\r\n        require(newRatio>=0 && newRatio<=100, \"BAD_INPUT\");\r\n        uint8 oldRatio = reinvestRatio;\r\n        reinvestRatio = newRatio;\r\n\r\n        emit SetReinvestRatio(oldRatio, newRatio);\r\n    }\r\n}",
  "sourcePath": "C:\\Users\\chana\\desktop\\aurumdefi\\src\\contracts\\TreasuryWallet.sol",
  "compiler": {
    "name": "solc",
    "version": "0.8.12+commit.f00d7308.Emscripten.clang"
  },
  "schemaVersion": "3.4.6",
  "updatedAt": "2022-05-02T14:11:22.143Z",
  "devdoc": {
    "kind": "dev",
    "methods": {},
    "version": 1
  },
  "userdoc": {
    "kind": "user",
    "methods": {},
    "version": 1
  }
}