{
  "contractName": "TreasuryAURUM",
  "abi": [
    {
      "inputs": [
        {
          "internalType": "address",
          "name": "busd_",
          "type": "address"
        },
        {
          "internalType": "address",
          "name": "aurum_",
          "type": "address"
        }
      ],
      "stateMutability": "nonpayable",
      "type": "constructor"
    },
    {
      "inputs": [],
      "name": "ApproveFail",
      "type": "error"
    },
    {
      "inputs": [],
      "name": "TransferFail",
      "type": "error"
    },
    {
      "anonymous": false,
      "inputs": [
        {
          "indexed": false,
          "internalType": "address",
          "name": "to",
          "type": "address"
        },
        {
          "indexed": false,
          "internalType": "uint256",
          "name": "BUSD",
          "type": "uint256"
        },
        {
          "indexed": false,
          "internalType": "uint256",
          "name": "AURUM",
          "type": "uint256"
        },
        {
          "indexed": false,
          "internalType": "uint256",
          "name": "LPToken",
          "type": "uint256"
        }
      ],
      "name": "Migrate",
      "type": "event"
    },
    {
      "anonymous": false,
      "inputs": [
        {
          "indexed": false,
          "internalType": "address",
          "name": "oldAdmin",
          "type": "address"
        },
        {
          "indexed": false,
          "internalType": "address",
          "name": "newAdmin",
          "type": "address"
        }
      ],
      "name": "SetAdmin",
      "type": "event"
    },
    {
      "anonymous": false,
      "inputs": [
        {
          "indexed": false,
          "internalType": "uint256",
          "name": "oldFee",
          "type": "uint256"
        },
        {
          "indexed": false,
          "internalType": "uint256",
          "name": "newFee",
          "type": "uint256"
        }
      ],
      "name": "SetFee",
      "type": "event"
    },
    {
      "anonymous": false,
      "inputs": [
        {
          "indexed": false,
          "internalType": "address",
          "name": "oldPriceOracle",
          "type": "address"
        },
        {
          "indexed": false,
          "internalType": "address",
          "name": "newPriceOracle",
          "type": "address"
        }
      ],
      "name": "SetPriceOracle",
      "type": "event"
    },
    {
      "anonymous": false,
      "inputs": [
        {
          "indexed": false,
          "internalType": "address",
          "name": "oldUniswapFactory",
          "type": "address"
        },
        {
          "indexed": false,
          "internalType": "address",
          "name": "newUniswapFactory",
          "type": "address"
        }
      ],
      "name": "SetUniswapFactory",
      "type": "event"
    },
    {
      "anonymous": false,
      "inputs": [
        {
          "indexed": false,
          "internalType": "address",
          "name": "oldUniswapRouters",
          "type": "address"
        },
        {
          "indexed": false,
          "internalType": "address",
          "name": "newUniswapRouters",
          "type": "address"
        }
      ],
      "name": "SetUniswapRouters",
      "type": "event"
    },
    {
      "inputs": [],
      "name": "admin",
      "outputs": [
        {
          "internalType": "address",
          "name": "",
          "type": "address"
        }
      ],
      "stateMutability": "view",
      "type": "function"
    },
    {
      "inputs": [],
      "name": "aurum",
      "outputs": [
        {
          "internalType": "address",
          "name": "",
          "type": "address"
        }
      ],
      "stateMutability": "view",
      "type": "function"
    },
    {
      "inputs": [],
      "name": "busd",
      "outputs": [
        {
          "internalType": "address",
          "name": "",
          "type": "address"
        }
      ],
      "stateMutability": "view",
      "type": "function"
    },
    {
      "inputs": [],
      "name": "lastUpdate",
      "outputs": [
        {
          "internalType": "uint256",
          "name": "",
          "type": "uint256"
        }
      ],
      "stateMutability": "view",
      "type": "function"
    },
    {
      "inputs": [],
      "name": "oracle",
      "outputs": [
        {
          "internalType": "contract PriceOracle",
          "name": "",
          "type": "address"
        }
      ],
      "stateMutability": "view",
      "type": "function"
    },
    {
      "inputs": [],
      "name": "period",
      "outputs": [
        {
          "internalType": "uint256",
          "name": "",
          "type": "uint256"
        }
      ],
      "stateMutability": "view",
      "type": "function"
    },
    {
      "inputs": [],
      "name": "swapfee",
      "outputs": [
        {
          "internalType": "uint256",
          "name": "",
          "type": "uint256"
        }
      ],
      "stateMutability": "view",
      "type": "function"
    },
    {
      "inputs": [],
      "name": "uniswapFactory",
      "outputs": [
        {
          "internalType": "address",
          "name": "",
          "type": "address"
        }
      ],
      "stateMutability": "view",
      "type": "function"
    },
    {
      "inputs": [],
      "name": "uniswapRouters",
      "outputs": [
        {
          "internalType": "address",
          "name": "",
          "type": "address"
        }
      ],
      "stateMutability": "view",
      "type": "function"
    },
    {
      "inputs": [],
      "name": "getDEXAURUMPrice",
      "outputs": [
        {
          "internalType": "uint256",
          "name": "price",
          "type": "uint256"
        }
      ],
      "stateMutability": "view",
      "type": "function"
    },
    {
      "inputs": [],
      "name": "arbitrage",
      "outputs": [],
      "stateMutability": "nonpayable",
      "type": "function"
    },
    {
      "inputs": [
        {
          "internalType": "address",
          "name": "newAdmin",
          "type": "address"
        }
      ],
      "name": "_setAdmin",
      "outputs": [],
      "stateMutability": "nonpayable",
      "type": "function"
    },
    {
      "inputs": [
        {
          "internalType": "address",
          "name": "newUniswapRouters",
          "type": "address"
        }
      ],
      "name": "_setUniswapRouters",
      "outputs": [],
      "stateMutability": "nonpayable",
      "type": "function"
    },
    {
      "inputs": [
        {
          "internalType": "address",
          "name": "newUniswapFactory",
          "type": "address"
        }
      ],
      "name": "_setUniswapFactory",
      "outputs": [],
      "stateMutability": "nonpayable",
      "type": "function"
    },
    {
      "inputs": [
        {
          "internalType": "uint256",
          "name": "newFee",
          "type": "uint256"
        }
      ],
      "name": "_setFee",
      "outputs": [],
      "stateMutability": "nonpayable",
      "type": "function"
    },
    {
      "inputs": [
        {
          "internalType": "address",
          "name": "newPriceOracle",
          "type": "address"
        }
      ],
      "name": "_setPriceOracle",
      "outputs": [],
      "stateMutability": "nonpayable",
      "type": "function"
    },
    {
      "inputs": [
        {
          "internalType": "address",
          "name": "to",
          "type": "address"
        }
      ],
      "name": "_migrate",
      "outputs": [],
      "stateMutability": "nonpayable",
      "type": "function"
    }
  ],
  "bytecode": "0x60806040523480156200001157600080fd5b506040516200386c3803806200386c83398181016040528101906200003791906200018f565b336000806101000a81548173ffffffffffffffffffffffffffffffffffffffff021916908373ffffffffffffffffffffffffffffffffffffffff1602179055506000600860146101000a81548160ff02191690831515021790555081600160006101000a81548173ffffffffffffffffffffffffffffffffffffffff021916908373ffffffffffffffffffffffffffffffffffffffff16021790555080600260006101000a81548173ffffffffffffffffffffffffffffffffffffffff021916908373ffffffffffffffffffffffffffffffffffffffff160217905550610e106006819055505050620001d6565b600080fd5b600073ffffffffffffffffffffffffffffffffffffffff82169050919050565b600062000157826200012a565b9050919050565b62000169816200014a565b81146200017557600080fd5b50565b60008151905062000189816200015e565b92915050565b60008060408385031215620001a957620001a862000125565b5b6000620001b98582860162000178565b9250506020620001cc8582860162000178565b9150509250929050565b61368680620001e66000396000f3fe608060405234801561001057600080fd5b506004361061010b5760003560e01c80637dc0d1d0116100a2578063c046371111610071578063c04637111461025a578063c3c0b2b814610278578063eafa9ff114610294578063ef78d4fd146102b2578063f851a440146102d05761010b565b80637dc0d1d0146101e65780638bdb2afa14610204578063aaa2092c14610222578063ac1150551461023e5761010b565b80634ab69811116100de5780634ab698111461018457806355ee1fe1146101a257806369c8d338146101be5780636af1b9ce146101c85761010b565b80630784e350146101105780632a932d261461012e5780633a74a7671461014a5780633ca5b23414610166575b600080fd5b6101186102ee565b6040516101259190612968565b60405180910390f35b610148600480360381019061014391906129f5565b6102f4565b005b610164600480360381019061015f91906129f5565b610461565b005b61016e6105cc565b60405161017b9190612a31565b60405180910390f35b61018c6105f2565b6040516101999190612968565b60405180910390f35b6101bc60048036038101906101b791906129f5565b61085f565b005b6101c66109cc565b005b6101d0610ac7565b6040516101dd9190612a31565b60405180910390f35b6101ee610aed565b6040516101fb9190612aab565b60405180910390f35b61020c610b13565b6040516102199190612a31565b60405180910390f35b61023c600480360381019061023791906129f5565b610b39565b005b61025860048036038101906102539190612af2565b610ca6565b005b610262610dc4565b60405161026f9190612968565b60405180910390f35b610292600480360381019061028d91906129f5565b610dca565b005b61029c61155b565b6040516102a99190612a31565b60405180910390f35b6102ba611581565b6040516102c79190612968565b60405180910390f35b6102d8611587565b6040516102e59190612a31565b60405180910390f35b60055481565b60008054906101000a900473ffffffffffffffffffffffffffffffffffffffff1673ffffffffffffffffffffffffffffffffffffffff163373ffffffffffffffffffffffffffffffffffffffff1614610382576040517f08c379a000000000000000000000000000000000000000000000000000000000815260040161037990612b7c565b60405180910390fd5b600073ffffffffffffffffffffffffffffffffffffffff168173ffffffffffffffffffffffffffffffffffffffff1614156103bc57600080fd5b6000600360009054906101000a900473ffffffffffffffffffffffffffffffffffffffff16905081600360006101000a81548173ffffffffffffffffffffffffffffffffffffffff021916908373ffffffffffffffffffffffffffffffffffffffff1602179055507f6e9f0fec8d15d9be0ba9d3c807d5b6e5e8c662311938734322014eb83d68fe858183604051610455929190612b9c565b60405180910390a15050565b60008054906101000a900473ffffffffffffffffffffffffffffffffffffffff1673ffffffffffffffffffffffffffffffffffffffff163373ffffffffffffffffffffffffffffffffffffffff16146104ef576040517f08c379a00000000000000000000000000000000000000000000000000000000081526004016104e690612b7c565b60405180910390fd5b600073ffffffffffffffffffffffffffffffffffffffff168173ffffffffffffffffffffffffffffffffffffffff16141561052957600080fd5b60008060009054906101000a900473ffffffffffffffffffffffffffffffffffffffff169050816000806101000a81548173ffffffffffffffffffffffffffffffffffffffff021916908373ffffffffffffffffffffffffffffffffffffffff1602179055507f848ac24ab84501710d6631faab117b66b79aba7ec6f7778cf3bcff428c1a4efc81836040516105c0929190612b9c565b60405180910390a15050565b600160009054906101000a900473ffffffffffffffffffffffffffffffffffffffff1681565b600080600160009054906101000a900473ffffffffffffffffffffffffffffffffffffffff1690506000600260009054906101000a900473ffffffffffffffffffffffffffffffffffffffff1690506000600460009054906101000a900473ffffffffffffffffffffffffffffffffffffffff16905060008173ffffffffffffffffffffffffffffffffffffffff1663e6a4390585856040518363ffffffff1660e01b81526004016106a5929190612b9c565b602060405180830381865afa1580156106c2573d6000803e3d6000fd5b505050506040513d601f19601f820116820180604052508101906106e69190612bda565b905060008473ffffffffffffffffffffffffffffffffffffffff166370a08231836040518263ffffffff1660e01b81526004016107239190612a31565b602060405180830381865afa158015610740573d6000803e3d6000fd5b505050506040513d601f19601f820116820180604052508101906107649190612c1c565b905060008473ffffffffffffffffffffffffffffffffffffffff166370a08231846040518263ffffffff1660e01b81526004016107a19190612a31565b602060405180830381865afa1580156107be573d6000803e3d6000fd5b505050506040513d601f19601f820116820180604052508101906107e29190612c1c565b9050600082141580156107f6575060008114155b610835576040517f08c379a000000000000000000000000000000000000000000000000000000000815260040161082c90612c95565b60405180910390fd5b80670de0b6b3a76400008361084a9190612ce4565b6108549190612d6d565b965050505050505090565b60008054906101000a900473ffffffffffffffffffffffffffffffffffffffff1673ffffffffffffffffffffffffffffffffffffffff163373ffffffffffffffffffffffffffffffffffffffff16146108ed576040517f08c379a00000000000000000000000000000000000000000000000000000000081526004016108e490612b7c565b60405180910390fd5b600073ffffffffffffffffffffffffffffffffffffffff168173ffffffffffffffffffffffffffffffffffffffff16141561092757600080fd5b6000600860009054906101000a900473ffffffffffffffffffffffffffffffffffffffff16905081600860006101000a81548173ffffffffffffffffffffffffffffffffffffffff021916908373ffffffffffffffffffffffffffffffffffffffff1602179055507f6e9f0fec8d15d9be0ba9d3c807d5b6e5e8c662311938734322014eb83d68fe8581836040516109c0929190612b9c565b60405180910390a15050565b600860149054906101000a900460ff1615610a1c576040517f08c379a0000000000000000000000000000000000000000000000000000000008152600401610a1390612dea565b60405180910390fd5b6001600860146101000a81548160ff02191690831515021790555060004290506000600754905060006006549050828282610a579190612e0a565b1115610a98576040517f08c379a0000000000000000000000000000000000000000000000000000000008152600401610a8f90612eac565b60405180910390fd5b82600781905550610aa76115ab565b5050506000600860146101000a81548160ff021916908315150217905550565b600260009054906101000a900473ffffffffffffffffffffffffffffffffffffffff1681565b600860009054906101000a900473ffffffffffffffffffffffffffffffffffffffff1681565b600460009054906101000a900473ffffffffffffffffffffffffffffffffffffffff1681565b60008054906101000a900473ffffffffffffffffffffffffffffffffffffffff1673ffffffffffffffffffffffffffffffffffffffff163373ffffffffffffffffffffffffffffffffffffffff1614610bc7576040517f08c379a0000000000000000000000000000000000000000000000000000000008152600401610bbe90612b7c565b60405180910390fd5b600073ffffffffffffffffffffffffffffffffffffffff168173ffffffffffffffffffffffffffffffffffffffff161415610c0157600080fd5b6000600460009054906101000a900473ffffffffffffffffffffffffffffffffffffffff16905081600460006101000a81548173ffffffffffffffffffffffffffffffffffffffff021916908373ffffffffffffffffffffffffffffffffffffffff1602179055507f1d63ba0b48b767ad4e57f2dabb3bc49065423e8fb23b85274d4f8d0c695284898183604051610c9a929190612b9c565b60405180910390a15050565b60008054906101000a900473ffffffffffffffffffffffffffffffffffffffff1673ffffffffffffffffffffffffffffffffffffffff163373ffffffffffffffffffffffffffffffffffffffff1614610d34576040517f08c379a0000000000000000000000000000000000000000000000000000000008152600401610d2b90612b7c565b60405180910390fd5b600554811415610d79576040517f08c379a0000000000000000000000000000000000000000000000000000000008152600401610d7090612f18565b60405180910390fd5b60006005549050816005819055507f032dc6a2d839eb179729a55633fdf1c41a1fc4739394154117005db2b354b9b58183604051610db8929190612f38565b60405180910390a15050565b60075481565b60008054906101000a900473ffffffffffffffffffffffffffffffffffffffff1673ffffffffffffffffffffffffffffffffffffffff163373ffffffffffffffffffffffffffffffffffffffff1614610e58576040517f08c379a0000000000000000000000000000000000000000000000000000000008152600401610e4f90612b7c565b60405180910390fd5b6000600160009054906101000a900473ffffffffffffffffffffffffffffffffffffffff1690506000600260009054906101000a900473ffffffffffffffffffffffffffffffffffffffff1690506000600460009054906101000a900473ffffffffffffffffffffffffffffffffffffffff16905060008173ffffffffffffffffffffffffffffffffffffffff1663e6a4390585856040518363ffffffff1660e01b8152600401610f0a929190612b9c565b602060405180830381865afa158015610f27573d6000803e3d6000fd5b505050506040513d601f19601f82011682018060405250810190610f4b9190612bda565b905060008473ffffffffffffffffffffffffffffffffffffffff166370a08231306040518263ffffffff1660e01b8152600401610f889190612a31565b602060405180830381865afa158015610fa5573d6000803e3d6000fd5b505050506040513d601f19601f82011682018060405250810190610fc99190612c1c565b905060008473ffffffffffffffffffffffffffffffffffffffff166370a08231306040518263ffffffff1660e01b81526004016110069190612a31565b602060405180830381865afa158015611023573d6000803e3d6000fd5b505050506040513d601f19601f820116820180604052508101906110479190612c1c565b905060008373ffffffffffffffffffffffffffffffffffffffff166370a08231306040518263ffffffff1660e01b81526004016110849190612a31565b602060405180830381865afa1580156110a1573d6000803e3d6000fd5b505050506040513d601f19601f820116820180604052508101906110c59190612c1c565b905060008773ffffffffffffffffffffffffffffffffffffffff1663095ea7b38a866040518363ffffffff1660e01b8152600401611104929190612f61565b6020604051808303816000875af1158015611123573d6000803e3d6000fd5b505050506040513d601f19601f820116820180604052508101906111479190612fc2565b905080611180576040517fc915b22a00000000000000000000000000000000000000000000000000000000815260040160405180910390fd5b8673ffffffffffffffffffffffffffffffffffffffff1663095ea7b38a856040518363ffffffff1660e01b81526004016111bb929190612f61565b6020604051808303816000875af11580156111da573d6000803e3d6000fd5b505050506040513d601f19601f820116820180604052508101906111fe9190612fc2565b905080611237576040517fc915b22a00000000000000000000000000000000000000000000000000000000815260040160405180910390fd5b8473ffffffffffffffffffffffffffffffffffffffff1663095ea7b38a846040518363ffffffff1660e01b8152600401611272929190612f61565b6020604051808303816000875af1158015611291573d6000803e3d6000fd5b505050506040513d601f19601f820116820180604052508101906112b59190612fc2565b9050806112ee576040517fc915b22a00000000000000000000000000000000000000000000000000000000815260040160405180910390fd5b8773ffffffffffffffffffffffffffffffffffffffff1663a9059cbb8a866040518363ffffffff1660e01b8152600401611329929190612f61565b6020604051808303816000875af1158015611348573d6000803e3d6000fd5b505050506040513d601f19601f8201168201806040525081019061136c9190612fc2565b9050806113a5576040517f9c9e641c00000000000000000000000000000000000000000000000000000000815260040160405180910390fd5b8673ffffffffffffffffffffffffffffffffffffffff1663a9059cbb8a856040518363ffffffff1660e01b81526004016113e0929190612f61565b6020604051808303816000875af11580156113ff573d6000803e3d6000fd5b505050506040513d601f19601f820116820180604052508101906114239190612fc2565b90508061145c576040517f9c9e641c00000000000000000000000000000000000000000000000000000000815260040160405180910390fd5b8473ffffffffffffffffffffffffffffffffffffffff1663a9059cbb8a846040518363ffffffff1660e01b8152600401611497929190612f61565b6020604051808303816000875af11580156114b6573d6000803e3d6000fd5b505050506040513d601f19601f820116820180604052508101906114da9190612fc2565b905080611513576040517f9c9e641c00000000000000000000000000000000000000000000000000000000815260040160405180910390fd5b7fc47a839c70aa320457c80c5abd38ce8b516c72e37be119b7962f67f1f8eb7ac2898585856040516115489493929190612fef565b60405180910390a1505050505050505050565b600360009054906101000a900473ffffffffffffffffffffffffffffffffffffffff1681565b60065481565b60008054906101000a900473ffffffffffffffffffffffffffffffffffffffff1681565b6000600160009054906101000a900473ffffffffffffffffffffffffffffffffffffffff1690506000600260009054906101000a900473ffffffffffffffffffffffffffffffffffffffff1690506000600460009054906101000a900473ffffffffffffffffffffffffffffffffffffffff16905060008173ffffffffffffffffffffffffffffffffffffffff1663e6a4390585856040518363ffffffff1660e01b815260040161165d929190612b9c565b602060405180830381865afa15801561167a573d6000803e3d6000fd5b505050506040513d601f19601f8201168201806040525081019061169e9190612bda565b90506116a8612912565b8473ffffffffffffffffffffffffffffffffffffffff166370a08231306040518263ffffffff1660e01b81526004016116e19190612a31565b602060405180830381865afa1580156116fe573d6000803e3d6000fd5b505050506040513d601f19601f820116820180604052508101906117229190612c1c565b8160400181815250508373ffffffffffffffffffffffffffffffffffffffff166370a08231306040518263ffffffff1660e01b81526004016117649190612a31565b602060405180830381865afa158015611781573d6000803e3d6000fd5b505050506040513d601f19601f820116820180604052508101906117a59190612c1c565b8160600181815250508173ffffffffffffffffffffffffffffffffffffffff166370a08231306040518263ffffffff1660e01b81526004016117e79190612a31565b602060405180830381865afa158015611804573d6000803e3d6000fd5b505050506040513d601f19601f820116820180604052508101906118289190612c1c565b816080018181525050600860009054906101000a900473ffffffffffffffffffffffffffffffffffffffff1673ffffffffffffffffffffffffffffffffffffffff1663da6bae106040518163ffffffff1660e01b8152600401602060405180830381865afa15801561189e573d6000803e3d6000fd5b505050506040513d601f19601f820116820180604052508101906118c29190612c1c565b8160000181815250508373ffffffffffffffffffffffffffffffffffffffff166370a08231836040518263ffffffff1660e01b81526004016119049190612a31565b602060405180830381865afa158015611921573d6000803e3d6000fd5b505050506040513d601f19601f820116820180604052508101906119459190612c1c565b670de0b6b3a76400008673ffffffffffffffffffffffffffffffffffffffff166370a08231856040518263ffffffff1660e01b81526004016119879190612a31565b602060405180830381865afa1580156119a4573d6000803e3d6000fd5b505050506040513d601f19601f820116820180604052508101906119c89190612c1c565b6119d29190612ce4565b6119dc9190612d6d565b8160200181815250506000816020015182600001511115611a125781602001518260000151611a0b9190613034565b9050611a29565b81600001518260200151611a269190613034565b90505b60008260000151670de0b6b3a764000083611a449190612ce4565b611a4e9190612d6d565b9050662386f26fc10000811015611a6b5750505050505050611f69565b6000836080015114611b305782604001518773ffffffffffffffffffffffffffffffffffffffff166370a08231866040518263ffffffff1660e01b8152600401611ab59190612a31565b602060405180830381865afa158015611ad2573d6000803e3d6000fd5b505050506040513d601f19601f82011682018060405250810190611af69190612c1c565b14611b1157611b0a87878560800151611f6b565b5050611b2f565b611b2c878760648660800151611b279190612d6d565b611f6b565b50505b5b8673ffffffffffffffffffffffffffffffffffffffff166370a08231306040518263ffffffff1660e01b8152600401611b699190612a31565b602060405180830381865afa158015611b86573d6000803e3d6000fd5b505050506040513d601f19601f82011682018060405250810190611baa9190612c1c565b8360400181815250508573ffffffffffffffffffffffffffffffffffffffff166370a08231306040518263ffffffff1660e01b8152600401611bec9190612a31565b602060405180830381865afa158015611c09573d6000803e3d6000fd5b505050506040513d601f19601f82011682018060405250810190611c2d9190612c1c565b8360600181815250508673ffffffffffffffffffffffffffffffffffffffff166370a08231856040518263ffffffff1660e01b8152600401611c6f9190612a31565b602060405180830381865afa158015611c8c573d6000803e3d6000fd5b505050506040513d601f19601f82011682018060405250810190611cb09190612c1c565b8360a00181815250508573ffffffffffffffffffffffffffffffffffffffff166370a08231856040518263ffffffff1660e01b8152600401611cf29190612a31565b602060405180830381865afa158015611d0f573d6000803e3d6000fd5b505050506040513d601f19601f82011682018060405250810190611d339190612c1c565b8360c001818152505060008360a0015114158015611d56575060008360c0015114155b611d95576040517f08c379a0000000000000000000000000000000000000000000000000000000008152600401611d8c906130b4565b60405180910390fd5b600080846020015185600001511115611e7a57600554670de0b6b3a7640000611dbe9190613034565b670de0b6b3a7640000611dfd87602001516ec097ce7bc90715b34b9f10000000008960000151611dee9190612ce4565b611df89190612d6d565b612256565b611e079190613034565b8660a00151611e169190612ce4565b611e209190612d6d565b91508460400151821115611e3657846040015191505b611e418989846122d0565b9050818560400151611e539190613034565b856040018181525050808560600151611e6c9190612e0a565b856060018181525050611f48565b600554670de0b6b3a7640000611e909190613034565b670de0b6b3a7640000611ecf87600001516ec097ce7bc90715b34b9f10000000008960200151611ec09190612ce4565b611eca9190612d6d565b612256565b611ed99190613034565b8660c00151611ee89190612ce4565b611ef29190612d6d565b91508460600151821115611f0857846060015191505b611f13888a846122d0565b9050818560600151611f259190613034565b856060018181525050808560400151611f3e9190612e0a565b8560400181815250505b611f5c89898760400151886060015161269d565b5050505050505050505050505b565b600080600073ffffffffffffffffffffffffffffffffffffffff168573ffffffffffffffffffffffffffffffffffffffff1614158015611fd85750600073ffffffffffffffffffffffffffffffffffffffff168473ffffffffffffffffffffffffffffffffffffffff1614155b612017576040517f08c379a000000000000000000000000000000000000000000000000000000000815260040161200e90613120565b60405180910390fd5b600083141561202c576000809150915061224e565b6000600360009054906101000a900473ffffffffffffffffffffffffffffffffffffffff16905060008190506000600460009054906101000a900473ffffffffffffffffffffffffffffffffffffffff16905060008173ffffffffffffffffffffffffffffffffffffffff1663e6a439058a8a6040518363ffffffff1660e01b81526004016120bc929190612b9c565b602060405180830381865afa1580156120d9573d6000803e3d6000fd5b505050506040513d601f19601f820116820180604052508101906120fd9190612bda565b905060008173ffffffffffffffffffffffffffffffffffffffff1663095ea7b3868a6040518363ffffffff1660e01b815260040161213c929190612f61565b6020604051808303816000875af115801561215b573d6000803e3d6000fd5b505050506040513d601f19601f8201168201806040525081019061217f9190612fc2565b9050806121b8576040517fc915b22a00000000000000000000000000000000000000000000000000000000815260040160405180910390fd5b8373ffffffffffffffffffffffffffffffffffffffff1663baa2abde8b8b8b60018030426040518863ffffffff1660e01b81526004016121fe979695949392919061317b565b60408051808303816000875af115801561221c573d6000803e3d6000fd5b505050506040513d601f19601f8201168201806040525081019061224091906131ea565b809750819850505050505050505b935093915050565b600060038211156122bd57819050600060016002846122759190612d6d565b61227f9190612e0a565b90505b818110156122b757809150600281828561229c9190612d6d565b6122a69190612e0a565b6122b09190612d6d565b9050612282565b506122cb565b600082146122ca57600190505b5b919050565b60008273ffffffffffffffffffffffffffffffffffffffff168473ffffffffffffffffffffffffffffffffffffffff16141561230e57819050612696565b6000600360009054906101000a900473ffffffffffffffffffffffffffffffffffffffff16905060008190506000869050848173ffffffffffffffffffffffffffffffffffffffff166370a08231306040518263ffffffff1660e01b81526004016123799190612a31565b602060405180830381865afa158015612396573d6000803e3d6000fd5b505050506040513d601f19601f820116820180604052508101906123ba9190612c1c565b10156123fb576040517f08c379a00000000000000000000000000000000000000000000000000000000081526004016123f290613276565b60405180910390fd5b6000851161243e576040517f08c379a000000000000000000000000000000000000000000000000000000000815260040161243590613120565b60405180910390fd5b60008173ffffffffffffffffffffffffffffffffffffffff1663095ea7b385886040518363ffffffff1660e01b815260040161247b929190612f61565b6020604051808303816000875af115801561249a573d6000803e3d6000fd5b505050506040513d601f19601f820116820180604052508101906124be9190612fc2565b9050806124f7576040517fc915b22a00000000000000000000000000000000000000000000000000000000815260040160405180910390fd5b6060600267ffffffffffffffff81111561251457612513613296565b5b6040519080825280602002602001820160405280156125425781602001602082028036833780820191505090505b509050888160008151811061255a576125596132c5565b5b602002602001019073ffffffffffffffffffffffffffffffffffffffff16908173ffffffffffffffffffffffffffffffffffffffff168152505087816001815181106125a9576125a86132c5565b5b602002602001019073ffffffffffffffffffffffffffffffffffffffff16908173ffffffffffffffffffffffffffffffffffffffff168152505060008473ffffffffffffffffffffffffffffffffffffffff166338ed17398960018530426040518663ffffffff1660e01b81526004016126279594939291906133b2565b6000604051808303816000875af1158015612646573d6000803e3d6000fd5b505050506040513d6000823e3d601f19601f8201168201806040525081019061266f9190613536565b905080600181518110612685576126846132c5565b5b602002602001015196505050505050505b9392505050565b6000806000808514806126b05750600084145b156126c5576000806000925092509250612908565b600087905060008790506000600360009054906101000a900473ffffffffffffffffffffffffffffffffffffffff169050600081905060008473ffffffffffffffffffffffffffffffffffffffff1663095ea7b3848c6040518363ffffffff1660e01b8152600401612738929190612f61565b6020604051808303816000875af1158015612757573d6000803e3d6000fd5b505050506040513d601f19601f8201168201806040525081019061277b9190612fc2565b9050806127b4576040517fc915b22a00000000000000000000000000000000000000000000000000000000815260040160405180910390fd5b8373ffffffffffffffffffffffffffffffffffffffff1663095ea7b3848b6040518363ffffffff1660e01b81526004016127ef929190612f61565b6020604051808303816000875af115801561280e573d6000803e3d6000fd5b505050506040513d601f19601f820116820180604052508101906128329190612fc2565b90508061286b576040517fc915b22a00000000000000000000000000000000000000000000000000000000815260040160405180910390fd5b8173ffffffffffffffffffffffffffffffffffffffff1663e8e337008d8d8d8d60018030426040518963ffffffff1660e01b81526004016128b398979695949392919061357f565b6060604051808303816000875af11580156128d2573d6000803e3d6000fd5b505050506040513d601f19601f820116820180604052508101906128f691906135fd565b809850819950829a5050505050505050505b9450945094915050565b6040518060e00160405280600081526020016000815260200160008152602001600081526020016000815260200160008152602001600081525090565b6000819050919050565b6129628161294f565b82525050565b600060208201905061297d6000830184612959565b92915050565b6000604051905090565b600080fd5b600080fd5b600073ffffffffffffffffffffffffffffffffffffffff82169050919050565b60006129c282612997565b9050919050565b6129d2816129b7565b81146129dd57600080fd5b50565b6000813590506129ef816129c9565b92915050565b600060208284031215612a0b57612a0a61298d565b5b6000612a19848285016129e0565b91505092915050565b612a2b816129b7565b82525050565b6000602082019050612a466000830184612a22565b92915050565b6000819050919050565b6000612a71612a6c612a6784612997565b612a4c565b612997565b9050919050565b6000612a8382612a56565b9050919050565b6000612a9582612a78565b9050919050565b612aa581612a8a565b82525050565b6000602082019050612ac06000830184612a9c565b92915050565b612acf8161294f565b8114612ada57600080fd5b50565b600081359050612aec81612ac6565b92915050565b600060208284031215612b0857612b0761298d565b5b6000612b1684828501612add565b91505092915050565b600082825260208201905092915050565b7f4f6e6c7941646d696e0000000000000000000000000000000000000000000000600082015250565b6000612b66600983612b1f565b9150612b7182612b30565b602082019050919050565b60006020820190508181036000830152612b9581612b59565b9050919050565b6000604082019050612bb16000830185612a22565b612bbe6020830184612a22565b9392505050565b600081519050612bd4816129c9565b92915050565b600060208284031215612bf057612bef61298d565b5b6000612bfe84828501612bc5565b91505092915050565b600081519050612c1681612ac6565b92915050565b600060208284031215612c3257612c3161298d565b5b6000612c4084828501612c07565b91505092915050565b7f50726963652063616e27742062652063616c63756c6174656400000000000000600082015250565b6000612c7f601983612b1f565b9150612c8a82612c49565b602082019050919050565b60006020820190508181036000830152612cae81612c72565b9050919050565b7f4e487b7100000000000000000000000000000000000000000000000000000000600052601160045260246000fd5b6000612cef8261294f565b9150612cfa8361294f565b9250817fffffffffffffffffffffffffffffffffffffffffffffffffffffffffffffffff0483118215151615612d3357612d32612cb5565b5b828202905092915050565b7f4e487b7100000000000000000000000000000000000000000000000000000000600052601260045260246000fd5b6000612d788261294f565b9150612d838361294f565b925082612d9357612d92612d3e565b5b828204905092915050565b7f6e6f207265656e7472616e636500000000000000000000000000000000000000600082015250565b6000612dd4600d83612b1f565b9150612ddf82612d9e565b602082019050919050565b60006020820190508181036000830152612e0381612dc7565b9050919050565b6000612e158261294f565b9150612e208361294f565b9250827fffffffffffffffffffffffffffffffffffffffffffffffffffffffffffffffff03821115612e5557612e54612cb5565b5b828201905092915050565b7f546f6f204672657175656e740000000000000000000000000000000000000000600082015250565b6000612e96600c83612b1f565b9150612ea182612e60565b602082019050919050565b60006020820190508181036000830152612ec581612e89565b9050919050565b7f7265706561746564206665650000000000000000000000000000000000000000600082015250565b6000612f02600c83612b1f565b9150612f0d82612ecc565b602082019050919050565b60006020820190508181036000830152612f3181612ef5565b9050919050565b6000604082019050612f4d6000830185612959565b612f5a6020830184612959565b9392505050565b6000604082019050612f766000830185612a22565b612f836020830184612959565b9392505050565b60008115159050919050565b612f9f81612f8a565b8114612faa57600080fd5b50565b600081519050612fbc81612f96565b92915050565b600060208284031215612fd857612fd761298d565b5b6000612fe684828501612fad565b91505092915050565b60006080820190506130046000830187612a22565b6130116020830186612959565b61301e6040830185612959565b61302b6060830184612959565b95945050505050565b600061303f8261294f565b915061304a8361294f565b92508282101561305d5761305c612cb5565b5b828203905092915050565b7f4e6f7420656e6f756768204c502062616c616e63650000000000000000000000600082015250565b600061309e601583612b1f565b91506130a982613068565b602082019050919050565b600060208201905081810360008301526130cd81613091565b9050919050565b7f4241445f494e5055540000000000000000000000000000000000000000000000600082015250565b600061310a600983612b1f565b9150613115826130d4565b602082019050919050565b60006020820190508181036000830152613139816130fd565b9050919050565b6000819050919050565b600061316561316061315b84613140565b612a4c565b61294f565b9050919050565b6131758161314a565b82525050565b600060e082019050613190600083018a612a22565b61319d6020830189612a22565b6131aa6040830188612959565b6131b7606083018761316c565b6131c4608083018661316c565b6131d160a0830185612a22565b6131de60c0830184612959565b98975050505050505050565b600080604083850312156132015761320061298d565b5b600061320f85828601612c07565b925050602061322085828601612c07565b9150509250929050565b7f4e6f7420656e6f7567682062616c616e63650000000000000000000000000000600082015250565b6000613260601283612b1f565b915061326b8261322a565b602082019050919050565b6000602082019050818103600083015261328f81613253565b9050919050565b7f4e487b7100000000000000000000000000000000000000000000000000000000600052604160045260246000fd5b7f4e487b7100000000000000000000000000000000000000000000000000000000600052603260045260246000fd5b600081519050919050565b600082825260208201905092915050565b6000819050602082019050919050565b613329816129b7565b82525050565b600061333b8383613320565b60208301905092915050565b6000602082019050919050565b600061335f826132f4565b61336981856132ff565b935061337483613310565b8060005b838110156133a557815161338c888261332f565b975061339783613347565b925050600181019050613378565b5085935050505092915050565b600060a0820190506133c76000830188612959565b6133d4602083018761316c565b81810360408301526133e68186613354565b90506133f56060830185612a22565b6134026080830184612959565b9695505050505050565b600080fd5b6000601f19601f8301169050919050565b61342b82613411565b810181811067ffffffffffffffff8211171561344a57613449613296565b5b80604052505050565b600061345d612983565b90506134698282613422565b919050565b600067ffffffffffffffff82111561348957613488613296565b5b602082029050602081019050919050565b600080fd5b60006134b26134ad8461346e565b613453565b905080838252602082019050602084028301858111156134d5576134d461349a565b5b835b818110156134fe57806134ea8882612c07565b8452602084019350506020810190506134d7565b5050509392505050565b600082601f83011261351d5761351c61340c565b5b815161352d84826020860161349f565b91505092915050565b60006020828403121561354c5761354b61298d565b5b600082015167ffffffffffffffff81111561356a57613569612992565b5b61357684828501613508565b91505092915050565b600061010082019050613595600083018b612a22565b6135a2602083018a612a22565b6135af6040830189612959565b6135bc6060830188612959565b6135c9608083018761316c565b6135d660a083018661316c565b6135e360c0830185612a22565b6135f060e0830184612959565b9998505050505050505050565b6000806000606084860312156136165761361561298d565b5b600061362486828701612c07565b935050602061363586828701612c07565b925050604061364686828701612c07565b915050925092509256fea26469706673582212200258edfb41a5d7c0c697c13a063f0a995427e1a32ef43c43e2fbe8c24f31b97f64736f6c634300080c0033",
  "immutableReferences": {},
  "source": "// SPDX-License-Identifier: MIT\r\npragma solidity 0.8.12;\r\n\r\nimport './interface/ComptrollerInterface.sol';\r\nimport './interface/UniswapInterface.sol';\r\nimport \"@openzeppelin/contracts/token/ERC20/IERC20.sol\";\r\n\r\ncontract TreasuryAURUM {\r\n    address public admin;\r\n\r\n    address public busd;    //kBUSD contract\r\n    address public aurum;   //AURUM contract\r\n\r\n    address public uniswapRouters;      //Using Add/Remove liquidity\r\n    address public uniswapFactory;      //Used for get AURUM/kBUSD LP address\r\n    uint public swapfee;                //Uniswap swap fee\r\n\r\n    uint public period;     //Interval that arbitrage function can be used\r\n    uint public lastUpdate; //Recorded last arbitrage activate time.\r\n\r\n    PriceOracle public oracle;  //getGoldPrice\r\n\r\n    bool locked;    //Reentrance\r\n\r\n    error ApproveFail();\r\n    error TransferFail();\r\n\r\n    event SetAdmin(address oldAdmin, address newAdmin);\r\n    event SetFee(uint oldFee, uint newFee);\r\n    event SetUniswapRouters(address oldUniswapRouters, address newUniswapRouters);\r\n    event SetUniswapFactory(address oldUniswapFactory, address newUniswapFactory);\r\n    event SetPriceOracle(address oldPriceOracle, address newPriceOracle);\r\n    event Migrate(address to, uint BUSD, uint AURUM, uint LPToken);\r\n\r\n    modifier onlyAdmin {\r\n        require(msg.sender == admin, \"OnlyAdmin\");\r\n        _;\r\n    }\r\n\r\n    modifier noReentrance {\r\n        require(!locked, \"no reentrance\");\r\n        locked = true;\r\n        _;\r\n        locked = false;\r\n    }\r\n\r\n    constructor(address busd_, address aurum_) {\r\n        admin = msg.sender;\r\n        locked = false;\r\n\r\n        busd = busd_;\r\n        aurum = aurum_;\r\n\r\n        period = 3600;   // 1 hr\r\n    }\r\n\r\n    function addLiquidity(address tokenA, address tokenB, uint amountInA, uint amountInB) internal returns(uint amountA, uint amountB, uint liquidity) {\r\n        if(amountInA == 0 || amountInB == 0){\r\n            return (0,0,0);\r\n        }\r\n        IERC20 tokenA_ = IERC20(tokenA);\r\n        IERC20 tokenB_ = IERC20(tokenB);\r\n        \r\n        address varRouter = uniswapRouters;\r\n        IUniswapV2Router routerContract = IUniswapV2Router(varRouter);\r\n\r\n        // Approve\r\n        bool success;\r\n        success = tokenA_.approve(varRouter, amountInA);\r\n        if(!success){\r\n            revert ApproveFail();\r\n        }        \r\n        success = tokenB_.approve(varRouter, amountInB);\r\n        if(!success){\r\n            revert ApproveFail();\r\n        }        \r\n\r\n        (amountA, amountB, liquidity) = routerContract.addLiquidity(\r\n            tokenA,\r\n            tokenB,\r\n            amountInA,\r\n            amountInB,\r\n            1,\r\n            1,\r\n            address(this),\r\n            block.timestamp\r\n        );\r\n    }\r\n\r\n    function removeLiquidity(address tokenA, address tokenB, uint amount) internal returns(uint amountOutA, uint amountOutB){\r\n        require (tokenA != address(0) && tokenB != address(0), \"BAD_INPUT\");\r\n        if(amount == 0){\r\n            return (0,0);\r\n        }\r\n        address varRouter = uniswapRouters;\r\n        IUniswapV2Router routerContract = IUniswapV2Router(varRouter);\r\n\r\n        IUniswapV2Factory factory = IUniswapV2Factory(uniswapFactory);\r\n        IERC20 LPToken = IERC20(factory.getPair(address(tokenA), address(tokenB)));\r\n\r\n        //Approve\r\n        bool success = LPToken.approve(varRouter, amount);\r\n        if(!success){\r\n            revert ApproveFail();\r\n        }        \r\n\r\n        (amountOutA, amountOutB) = routerContract.removeLiquidity(\r\n            tokenA,\r\n            tokenB,\r\n            amount,\r\n            1,\r\n            1,\r\n            address(this),\r\n            block.timestamp\r\n        );\r\n    }\r\n\r\n    function swap(address tokenA, address tokenB, uint amountIn) internal returns(uint) {\r\n        if(tokenA == tokenB){\r\n            return amountIn; //no need for swap\r\n        }\r\n        address varRouter = uniswapRouters;\r\n        IUniswapV2Router routerContract = IUniswapV2Router(varRouter);\r\n        IERC20 tokenIn = IERC20(tokenA);\r\n\r\n        require(tokenIn.balanceOf(address(this))>=amountIn, \"Not enough balance\");\r\n        require(amountIn > 0, \"BAD_INPUT\");\r\n\r\n        //Approve the tokenA\r\n        bool success = tokenIn.approve(varRouter, amountIn);\r\n        if(!success){\r\n            revert ApproveFail();\r\n        }        \r\n\r\n        //Setting path\r\n        address[] memory path;\r\n        path = new address[](2);\r\n        path[0] = tokenA;\r\n        path[1] = tokenB;\r\n\r\n        //Swap A to B\r\n        (uint[] memory amount) = routerContract.swapExactTokensForTokens(amountIn, 1, path, address(this), block.timestamp);\r\n\r\n        return amount[1]; // return amountOut;\r\n    }\r\n\r\n    function getDEXAURUMPrice() external view returns(uint price){\r\n        IERC20 busd_ = IERC20(busd);\r\n        IERC20 aurum_ = IERC20(aurum);\r\n\r\n        IUniswapV2Factory factory = IUniswapV2Factory(uniswapFactory);\r\n        address LPToken = factory.getPair(address(busd_), address(aurum_));\r\n\r\n        uint busdAmount = busd_.balanceOf(LPToken);\r\n        uint aurumAmount = aurum_.balanceOf(LPToken);\r\n\r\n        require(busdAmount != 0 && aurumAmount != 0, \"Price can't be calculated\");\r\n        price = busdAmount * 1e18 / aurumAmount;\r\n\r\n    }\r\n\r\n    struct ArbitrageVariable {\r\n        uint goldPrice;\r\n        uint currentPrice;\r\n        uint balanceBUSD;\r\n        uint balanceAURUM;\r\n        uint balanceLPToken;\r\n        uint lpBalanceBUSD;\r\n        uint lpBalanceAURUM;\r\n    }\r\n\r\n    function arbitrage() external noReentrance{\r\n        //Check and update Activate time   this function can only use once in a period time.\r\n        uint currentTime = block.timestamp;\r\n        uint lastTime = lastUpdate;\r\n        uint period_ = period;\r\n        if(period_ + lastTime > currentTime){\r\n            revert (\"Too Frequent\");\r\n        } else {\r\n            lastUpdate = currentTime;\r\n        }\r\n\r\n        arbitrageInternal();\r\n    }\r\n\r\n    function arbitrageInternal() internal {\r\n\r\n        IERC20 busd_ = IERC20(busd);\r\n        IERC20 aurum_ = IERC20(aurum);\r\n\r\n        IUniswapV2Factory factory = IUniswapV2Factory(uniswapFactory);\r\n        IERC20 LPToken = IERC20(factory.getPair(address(busd_), address(aurum_)));\r\n\r\n        ArbitrageVariable memory vars;\r\n\r\n        vars.balanceBUSD = busd_.balanceOf(address(this));\r\n        vars.balanceAURUM = aurum_.balanceOf(address(this));\r\n        vars.balanceLPToken = LPToken.balanceOf(address(this));\r\n\r\n        vars.goldPrice = oracle.getGoldPrice();\r\n        vars.currentPrice = (busd_.balanceOf(address(LPToken)) * 1e18 / aurum_.balanceOf(address(LPToken)));\r\n\r\n        //Check difference price\r\n        uint dif;\r\n        if(vars.goldPrice > vars.currentPrice) {\r\n            dif = vars.goldPrice - vars.currentPrice;\r\n        } else {\r\n            dif = vars.currentPrice - vars.goldPrice;\r\n        }\r\n\r\n        uint difPercent = dif * 1e18 / vars.goldPrice;\r\n        if(difPercent < 0.01e18){\r\n            return; //Dif < 1%, No need for arbitrage\r\n        }\r\n\r\n        //Removing LP for using less token for stabilized pricec\r\n        if(vars.balanceLPToken != 0){\r\n            if(busd_.balanceOf(address(LPToken)) != vars.balanceBUSD){\r\n                //Remove all\r\n                removeLiquidity(address(busd_), address(aurum_), vars.balanceLPToken);\r\n            } else {\r\n                //Remove 99%\r\n                removeLiquidity(address(busd_), address(aurum_), vars.balanceLPToken / 100);\r\n            }\r\n        }\r\n        \r\n        vars.balanceBUSD = busd_.balanceOf(address(this));\r\n        vars.balanceAURUM = aurum_.balanceOf(address(this));\r\n\r\n\r\n        vars.lpBalanceBUSD = busd_.balanceOf(address(LPToken)); //Balance of tokens in LPpool after removing liquidity\r\n        vars.lpBalanceAURUM = aurum_.balanceOf(address(LPToken));\r\n        require(vars.lpBalanceBUSD != 0 && vars.lpBalanceAURUM != 0,\"Not enough LP balance\");\r\n\r\n        //Calculate swap amount to target price\r\n        uint amountIn;\r\n        uint amountOut;\r\n        if(vars.goldPrice > vars.currentPrice) {\r\n            //Buy Aurum, amountIn is kBUSD amount\r\n            amountIn = vars.lpBalanceBUSD * (sqrt(vars.goldPrice * 1e36 / vars.currentPrice) -1e18) / (1e18 - swapfee);\r\n            if(amountIn > vars.balanceBUSD){\r\n                amountIn = vars.balanceBUSD;\r\n            }\r\n            //Swap\r\n            amountOut = swap(address(busd_), address(aurum_), amountIn);\r\n            vars.balanceBUSD = vars.balanceBUSD - amountIn;\r\n            vars.balanceAURUM = vars.balanceAURUM + amountOut;\r\n        } else {\r\n            amountIn = vars.lpBalanceAURUM * (sqrt(vars.currentPrice * 1e36 / vars.goldPrice) - 1e18) / (1e18 - swapfee);\r\n            if(amountIn > vars.balanceAURUM){\r\n                amountIn = vars.balanceAURUM;\r\n            }\r\n            amountOut = swap(address(aurum_), address(busd_), amountIn);\r\n            vars.balanceAURUM = vars.balanceAURUM - amountIn;\r\n            vars.balanceBUSD = vars.balanceBUSD + amountOut;\r\n        }\r\n\r\n        //Finally add liquidity\r\n        addLiquidity(address(busd_), address(aurum_), vars.balanceBUSD, vars.balanceAURUM);\r\n    }\r\n\r\n    //Square root mathematic library  this function fork from uniswap\r\n    function sqrt(uint y) internal pure returns (uint z) {\r\n        if (y > 3) {\r\n            z = y;\r\n            uint x = y / 2 + 1;\r\n            while (x < z) {\r\n                z = x;\r\n                x = (y / x + x) / 2;\r\n            }\r\n        } else if (y != 0) {\r\n            z = 1;\r\n        }\r\n    }\r\n\r\n    // ==================================\r\n    //  Admin function\r\n    // ==================================\r\n    function _setAdmin (address newAdmin) external onlyAdmin {\r\n        require(newAdmin != address(0));\r\n        address oldAdmin = admin;\r\n        admin = newAdmin;\r\n\r\n        emit SetAdmin(oldAdmin, newAdmin);\r\n    }\r\n\r\n    function _setUniswapRouters(address newUniswapRouters) external onlyAdmin {\r\n        require(newUniswapRouters != address(0));\r\n        address oldUniswapRouters = uniswapRouters;\r\n        uniswapRouters = newUniswapRouters;\r\n\r\n        emit SetUniswapRouters(oldUniswapRouters, newUniswapRouters);\r\n    }\r\n\r\n    function _setUniswapFactory(address newUniswapFactory) external onlyAdmin {\r\n        require(newUniswapFactory != address(0));\r\n        address oldUniswapFactory = uniswapFactory;\r\n        uniswapFactory = newUniswapFactory;\r\n\r\n        emit SetUniswapFactory(oldUniswapFactory, newUniswapFactory);\r\n    }\r\n\r\n    function _setFee(uint newFee) external onlyAdmin {\r\n        require(newFee != swapfee,\"repeated fee\");\r\n        uint oldFee = swapfee;\r\n        swapfee = newFee;\r\n\r\n        emit SetFee(oldFee, newFee);\r\n    }\r\n\r\n    function _setPriceOracle(address newPriceOracle) external onlyAdmin {\r\n        require(newPriceOracle != address(0));\r\n        address oldPriceOracle = address(oracle);\r\n        oracle = PriceOracle(newPriceOracle);\r\n\r\n        emit SetUniswapRouters(oldPriceOracle, newPriceOracle);\r\n    }\r\n    // Migrate kBUSD, AURUM, LP token   to target address.\r\n    function _migrate(address to) external onlyAdmin {\r\n        IERC20 busd_ = IERC20(busd);\r\n        IERC20 aurum_ = IERC20(aurum);\r\n\r\n        IUniswapV2Factory factory = IUniswapV2Factory(uniswapFactory);\r\n        IERC20 LPToken = IERC20(factory.getPair(address(busd_), address(aurum_)));\r\n\r\n        uint balanceBUSD = busd_.balanceOf(address(this));\r\n        uint balanceAURUM = aurum_.balanceOf(address(this));\r\n        uint balanceLPToken = LPToken.balanceOf(address(this));\r\n\r\n        //Approve all tokens\r\n        bool success;\r\n        success = busd_.approve(to, balanceBUSD);\r\n        if(!success){\r\n            revert ApproveFail();\r\n        }\r\n        success = aurum_.approve(to, balanceAURUM);\r\n        if(!success){\r\n            revert ApproveFail();\r\n        }\r\n        success = LPToken.approve(to, balanceLPToken);\r\n        if(!success){\r\n            revert ApproveFail();\r\n        }\r\n\r\n        //Transfer all tokens\r\n        success = busd_.transfer(to, balanceBUSD);\r\n        if(!success){\r\n            revert TransferFail();\r\n        }\r\n        success = aurum_.transfer(to, balanceAURUM);\r\n        if(!success){\r\n            revert TransferFail();\r\n        }\r\n        success = LPToken.transfer(to, balanceLPToken);\r\n        if(!success){\r\n            revert TransferFail();\r\n        }\r\n\r\n        emit Migrate(to, balanceBUSD, balanceAURUM, balanceLPToken);\r\n    }\r\n\r\n}",
  "sourcePath": "C:\\Users\\chana\\desktop\\aurumdefi\\src\\contracts\\TreasuryAURUM.sol",
  "compiler": {
    "name": "solc",
    "version": "0.8.12+commit.f00d7308.Emscripten.clang"
  },
  "schemaVersion": "3.4.6",
  "updatedAt": "2022-05-01T10:25:13.376Z",
  "devdoc": {
    "kind": "dev",
    "methods": {},
    "version": 1
  },
  "userdoc": {
    "kind": "user",
    "methods": {},
    "version": 1
  }
}