{
  "contractName": "TreasuryWallet",
  "abi": [
    {
      "inputs": [
        {
          "internalType": "address",
          "name": "busd_",
          "type": "address"
        },
        {
          "internalType": "uint8",
          "name": "reinvestRatio_",
          "type": "uint8"
        }
      ],
      "stateMutability": "nonpayable",
      "type": "constructor"
    },
    {
      "anonymous": false,
      "inputs": [
        {
          "indexed": false,
          "internalType": "address",
          "name": "token",
          "type": "address"
        },
        {
          "indexed": false,
          "internalType": "uint256",
          "name": "reinvestAmount",
          "type": "uint256"
        },
        {
          "indexed": false,
          "internalType": "uint256",
          "name": "distributeAmount",
          "type": "uint256"
        }
      ],
      "name": "DistributeToken",
      "type": "event"
    },
    {
      "anonymous": false,
      "inputs": [
        {
          "indexed": false,
          "internalType": "address",
          "name": "lendToken",
          "type": "address"
        },
        {
          "indexed": false,
          "internalType": "uint256",
          "name": "amount",
          "type": "uint256"
        }
      ],
      "name": "Reinvest",
      "type": "event"
    },
    {
      "anonymous": false,
      "inputs": [
        {
          "indexed": false,
          "internalType": "uint256",
          "name": "amount",
          "type": "uint256"
        }
      ],
      "name": "SendBUSDToVault",
      "type": "event"
    },
    {
      "anonymous": false,
      "inputs": [
        {
          "indexed": false,
          "internalType": "address",
          "name": "oldARMVault",
          "type": "address"
        },
        {
          "indexed": false,
          "internalType": "address",
          "name": "newARMVault",
          "type": "address"
        }
      ],
      "name": "SetARMVault",
      "type": "event"
    },
    {
      "anonymous": false,
      "inputs": [
        {
          "indexed": false,
          "internalType": "address",
          "name": "oldAdmin",
          "type": "address"
        },
        {
          "indexed": false,
          "internalType": "address",
          "name": "newAdmin",
          "type": "address"
        }
      ],
      "name": "SetAdmin",
      "type": "event"
    },
    {
      "anonymous": false,
      "inputs": [
        {
          "indexed": false,
          "internalType": "address",
          "name": "oldComptrollerStorage",
          "type": "address"
        },
        {
          "indexed": false,
          "internalType": "address",
          "name": "newComptrollerStorage",
          "type": "address"
        }
      ],
      "name": "SetComptrollerStorage",
      "type": "event"
    },
    {
      "anonymous": false,
      "inputs": [
        {
          "indexed": false,
          "internalType": "uint8",
          "name": "oldRatio",
          "type": "uint8"
        },
        {
          "indexed": false,
          "internalType": "uint8",
          "name": "newRatio",
          "type": "uint8"
        }
      ],
      "name": "SetReinvestRatio",
      "type": "event"
    },
    {
      "anonymous": false,
      "inputs": [
        {
          "indexed": false,
          "internalType": "address",
          "name": "oldUniswapRouters",
          "type": "address"
        },
        {
          "indexed": false,
          "internalType": "address",
          "name": "newUniswapRouters",
          "type": "address"
        }
      ],
      "name": "SetUniswapRouters",
      "type": "event"
    },
    {
      "anonymous": false,
      "inputs": [
        {
          "indexed": false,
          "internalType": "address",
          "name": "tokenIn",
          "type": "address"
        },
        {
          "indexed": false,
          "internalType": "address",
          "name": "tokenOut",
          "type": "address"
        },
        {
          "indexed": false,
          "internalType": "uint256",
          "name": "amount",
          "type": "uint256"
        }
      ],
      "name": "Swap",
      "type": "event"
    },
    {
      "anonymous": false,
      "inputs": [
        {
          "indexed": false,
          "internalType": "address",
          "name": "to",
          "type": "address"
        },
        {
          "indexed": false,
          "internalType": "uint256",
          "name": "amount",
          "type": "uint256"
        }
      ],
      "name": "TransferREI",
      "type": "event"
    },
    {
      "anonymous": false,
      "inputs": [
        {
          "indexed": false,
          "internalType": "address",
          "name": "lendToken",
          "type": "address"
        },
        {
          "indexed": false,
          "internalType": "uint256",
          "name": "amount",
          "type": "uint256"
        }
      ],
      "name": "Withdraw",
      "type": "event"
    },
    {
      "inputs": [],
      "name": "admin",
      "outputs": [
        {
          "internalType": "address",
          "name": "",
          "type": "address"
        }
      ],
      "stateMutability": "view",
      "type": "function"
    },
    {
      "inputs": [],
      "name": "armVault",
      "outputs": [
        {
          "internalType": "address",
          "name": "",
          "type": "address"
        }
      ],
      "stateMutability": "view",
      "type": "function"
    },
    {
      "inputs": [],
      "name": "busd",
      "outputs": [
        {
          "internalType": "address",
          "name": "",
          "type": "address"
        }
      ],
      "stateMutability": "view",
      "type": "function"
    },
    {
      "inputs": [],
      "name": "compStorage",
      "outputs": [
        {
          "internalType": "address",
          "name": "",
          "type": "address"
        }
      ],
      "stateMutability": "view",
      "type": "function"
    },
    {
      "inputs": [],
      "name": "reinvestRatio",
      "outputs": [
        {
          "internalType": "uint8",
          "name": "",
          "type": "uint8"
        }
      ],
      "stateMutability": "view",
      "type": "function"
    },
    {
      "inputs": [],
      "name": "uniswapRouters",
      "outputs": [
        {
          "internalType": "address",
          "name": "",
          "type": "address"
        }
      ],
      "stateMutability": "view",
      "type": "function"
    },
    {
      "inputs": [
        {
          "internalType": "contract LendTokenInterface",
          "name": "lendToken",
          "type": "address"
        },
        {
          "internalType": "uint256",
          "name": "amount",
          "type": "uint256"
        }
      ],
      "name": "withdraw",
      "outputs": [],
      "stateMutability": "nonpayable",
      "type": "function"
    },
    {
      "inputs": [],
      "name": "distributionSwitch",
      "outputs": [],
      "stateMutability": "nonpayable",
      "type": "function"
    },
    {
      "inputs": [
        {
          "internalType": "address payable",
          "name": "to",
          "type": "address"
        },
        {
          "internalType": "uint256",
          "name": "amount",
          "type": "uint256"
        }
      ],
      "name": "withdrawREI",
      "outputs": [],
      "stateMutability": "nonpayable",
      "type": "function"
    },
    {
      "inputs": [
        {
          "internalType": "address",
          "name": "newAdmin",
          "type": "address"
        }
      ],
      "name": "_setAdmin",
      "outputs": [],
      "stateMutability": "nonpayable",
      "type": "function"
    },
    {
      "inputs": [
        {
          "internalType": "address",
          "name": "newComptrollerStorage",
          "type": "address"
        }
      ],
      "name": "_setComptrollerStorage",
      "outputs": [],
      "stateMutability": "nonpayable",
      "type": "function"
    },
    {
      "inputs": [
        {
          "internalType": "address",
          "name": "newUniswapRouters",
          "type": "address"
        }
      ],
      "name": "_setUniswapRouters",
      "outputs": [],
      "stateMutability": "nonpayable",
      "type": "function"
    },
    {
      "inputs": [
        {
          "internalType": "address",
          "name": "newARMVault",
          "type": "address"
        }
      ],
      "name": "_setARMVault",
      "outputs": [],
      "stateMutability": "nonpayable",
      "type": "function"
    },
    {
      "inputs": [
        {
          "internalType": "uint8",
          "name": "newRatio",
          "type": "uint8"
        }
      ],
      "name": "_setReinvestRatio",
      "outputs": [],
      "stateMutability": "nonpayable",
      "type": "function"
    }
  ],
  "bytecode": "0x60806040523480156200001157600080fd5b5060405162002b0c38038062002b0c83398181016040528101906200003791906200019e565b336000806101000a81548173ffffffffffffffffffffffffffffffffffffffff021916908373ffffffffffffffffffffffffffffffffffffffff16021790555081600160006101000a81548173ffffffffffffffffffffffffffffffffffffffff021916908373ffffffffffffffffffffffffffffffffffffffff16021790555080600460156101000a81548160ff021916908360ff1602179055506000600460146101000a81548160ff0219169083151502179055505050620001e5565b600080fd5b600073ffffffffffffffffffffffffffffffffffffffff82169050919050565b60006200012882620000fb565b9050919050565b6200013a816200011b565b81146200014657600080fd5b50565b6000815190506200015a816200012f565b92915050565b600060ff82169050919050565b620001788162000160565b81146200018457600080fd5b50565b60008151905062000198816200016d565b92915050565b60008060408385031215620001b857620001b7620000f6565b5b6000620001c88582860162000149565b9250506020620001db8582860162000187565b9150509250929050565b61291780620001f56000396000f3fe608060405234801561001057600080fd5b50600436106100ea5760003560e01c8063b1dfd3bf1161008c578063d5d159bc11610066578063d5d159bc146101fd578063eafa9ff114610219578063f3fef3a314610237578063f851a44014610253576100ea565b8063b1dfd3bf146101a5578063bd378e8e146101c1578063d0c48c9c146101df576100ea565b806336973efb116100c857806336973efb146101435780633773f0621461014d5780633a74a7671461016b5780633ca5b23414610187576100ea565b8063082f4c3b146100ef5780631c422d491461010b5780632a932d2614610127575b600080fd5b61010960048036038101906101049190611ac7565b610271565b005b61012560048036038101906101209190611ac7565b6103de565b005b610141600480360381019061013c9190611ac7565b61054b565b005b61014b6106b8565b005b610155610839565b6040516101629190611b10565b60405180910390f35b61018560048036038101906101809190611ac7565b61084c565b005b61018f6109b7565b60405161019c9190611b3a565b60405180910390f35b6101bf60048036038101906101ba9190611bc9565b6109dd565b005b6101c9610aef565b6040516101d69190611b3a565b60405180910390f35b6101e7610b15565b6040516101f49190611b3a565b60405180910390f35b61021760048036038101906102129190611c35565b610b3b565b005b610221610c8c565b60405161022e9190611b3a565b60405180910390f35b610251600480360381019061024c9190611ca0565b610cb2565b005b61025b610eb1565b6040516102689190611b3a565b60405180910390f35b60008054906101000a900473ffffffffffffffffffffffffffffffffffffffff1673ffffffffffffffffffffffffffffffffffffffff163373ffffffffffffffffffffffffffffffffffffffff16146102ff576040517f08c379a00000000000000000000000000000000000000000000000000000000081526004016102f690611d3d565b60405180910390fd5b600073ffffffffffffffffffffffffffffffffffffffff168173ffffffffffffffffffffffffffffffffffffffff16141561033957600080fd5b6000600460009054906101000a900473ffffffffffffffffffffffffffffffffffffffff16905081600460006101000a81548173ffffffffffffffffffffffffffffffffffffffff021916908373ffffffffffffffffffffffffffffffffffffffff1602179055507ff43b70160ea3ffe6dcf16797b5910f669804f54ffea48faaf94543ae2bb8672c81836040516103d2929190611d5d565b60405180910390a15050565b60008054906101000a900473ffffffffffffffffffffffffffffffffffffffff1673ffffffffffffffffffffffffffffffffffffffff163373ffffffffffffffffffffffffffffffffffffffff161461046c576040517f08c379a000000000000000000000000000000000000000000000000000000000815260040161046390611d3d565b60405180910390fd5b600073ffffffffffffffffffffffffffffffffffffffff168173ffffffffffffffffffffffffffffffffffffffff1614156104a657600080fd5b6000600260009054906101000a900473ffffffffffffffffffffffffffffffffffffffff16905081600260006101000a81548173ffffffffffffffffffffffffffffffffffffffff021916908373ffffffffffffffffffffffffffffffffffffffff1602179055507fbad8c9c3bde5f97ad806e7d0cdb6624ca74869d8f7acfb4656f75b52d6011686818360405161053f929190611d5d565b60405180910390a15050565b60008054906101000a900473ffffffffffffffffffffffffffffffffffffffff1673ffffffffffffffffffffffffffffffffffffffff163373ffffffffffffffffffffffffffffffffffffffff16146105d9576040517f08c379a00000000000000000000000000000000000000000000000000000000081526004016105d090611d3d565b60405180910390fd5b600073ffffffffffffffffffffffffffffffffffffffff168173ffffffffffffffffffffffffffffffffffffffff16141561061357600080fd5b6000600360009054906101000a900473ffffffffffffffffffffffffffffffffffffffff16905081600360006101000a81548173ffffffffffffffffffffffffffffffffffffffff021916908373ffffffffffffffffffffffffffffffffffffffff1602179055507f6e9f0fec8d15d9be0ba9d3c807d5b6e5e8c662311938734322014eb83d68fe8581836040516106ac929190611d5d565b60405180910390a15050565b600460149054906101000a900460ff1615610708576040517f08c379a00000000000000000000000000000000000000000000000000000000081526004016106ff90611dd2565b60405180910390fd5b6001600460146101000a81548160ff0219169083151502179055506000600260009054906101000a900473ffffffffffffffffffffffffffffffffffffffff16905060008173ffffffffffffffffffffffffffffffffffffffff1663b0772d0b6040518163ffffffff1660e01b8152600401600060405180830381865afa158015610797573d6000803e3d6000fd5b505050506040513d6000823e3d601f19601f820116820180604052508101906107c09190611f60565b905060008082519050600091505b8061ffff168261ffff16101561081857610805838361ffff16815181106107f8576107f7611fa9565b5b6020026020010151610ed5565b818061081090612015565b9250506107ce565b505050506000600460146101000a81548160ff021916908315150217905550565b600460159054906101000a900460ff1681565b60008054906101000a900473ffffffffffffffffffffffffffffffffffffffff1673ffffffffffffffffffffffffffffffffffffffff163373ffffffffffffffffffffffffffffffffffffffff16146108da576040517f08c379a00000000000000000000000000000000000000000000000000000000081526004016108d190611d3d565b60405180910390fd5b600073ffffffffffffffffffffffffffffffffffffffff168173ffffffffffffffffffffffffffffffffffffffff16141561091457600080fd5b60008060009054906101000a900473ffffffffffffffffffffffffffffffffffffffff169050816000806101000a81548173ffffffffffffffffffffffffffffffffffffffff021916908373ffffffffffffffffffffffffffffffffffffffff1602179055507f848ac24ab84501710d6631faab117b66b79aba7ec6f7778cf3bcff428c1a4efc81836040516109ab929190611d5d565b60405180910390a15050565b600160009054906101000a900473ffffffffffffffffffffffffffffffffffffffff1681565b60008054906101000a900473ffffffffffffffffffffffffffffffffffffffff1673ffffffffffffffffffffffffffffffffffffffff163373ffffffffffffffffffffffffffffffffffffffff1614610a6b576040517f08c379a0000000000000000000000000000000000000000000000000000000008152600401610a6290611d3d565b60405180910390fd5b8173ffffffffffffffffffffffffffffffffffffffff166108fc829081150290604051600060405180830381858888f19350505050158015610ab1573d6000803e3d6000fd5b507f56b6124fb414b974ba56a1df942d36b9c89033c2e4eeef3a888cca09e15e71cb8282604051610ae39291906120ae565b60405180910390a15050565b600260009054906101000a900473ffffffffffffffffffffffffffffffffffffffff1681565b600460009054906101000a900473ffffffffffffffffffffffffffffffffffffffff1681565b60008054906101000a900473ffffffffffffffffffffffffffffffffffffffff1673ffffffffffffffffffffffffffffffffffffffff163373ffffffffffffffffffffffffffffffffffffffff1614610bc9576040517f08c379a0000000000000000000000000000000000000000000000000000000008152600401610bc090611d3d565b60405180910390fd5b60008160ff1610158015610be1575060648160ff1611155b610c20576040517f08c379a0000000000000000000000000000000000000000000000000000000008152600401610c1790612123565b60405180910390fd5b6000600460159054906101000a900460ff16905081600460156101000a81548160ff021916908360ff1602179055507f17a447a714e611c92f26b45d1c345d3ffc6adeddc360644cf5a5925a340ffd658183604051610c80929190612143565b60405180910390a15050565b600360009054906101000a900473ffffffffffffffffffffffffffffffffffffffff1681565b60008054906101000a900473ffffffffffffffffffffffffffffffffffffffff1673ffffffffffffffffffffffffffffffffffffffff163373ffffffffffffffffffffffffffffffffffffffff1614610d40576040517f08c379a0000000000000000000000000000000000000000000000000000000008152600401610d3790611d3d565b60405180910390fd5b808273ffffffffffffffffffffffffffffffffffffffff166370a08231306040518263ffffffff1660e01b8152600401610d7a9190611b3a565b602060405180830381865afa158015610d97573d6000803e3d6000fd5b505050506040513d601f19601f82011682018060405250810190610dbb9190612181565b1015610dc657600080fd5b60008111610e09576040517f08c379a0000000000000000000000000000000000000000000000000000000008152600401610e0090612123565b60405180910390fd5b8173ffffffffffffffffffffffffffffffffffffffff1663db006a75826040518263ffffffff1660e01b8152600401610e4291906121ae565b600060405180830381600087803b158015610e5c57600080fd5b505af1158015610e70573d6000803e3d6000fd5b505050507f884edad9ce6fa2440d8a54cc123490eb96d2768479d49ff9c7366125a94243648282604051610ea59291906121c9565b60405180910390a15050565b60008054906101000a900473ffffffffffffffffffffffffffffffffffffffff1681565b610f878173ffffffffffffffffffffffffffffffffffffffff166395d89b416040518163ffffffff1660e01b8152600401600060405180830381865afa158015610f23573d6000803e3d6000fd5b505050506040513d6000823e3d601f19601f82011682018060405250810190610f4c91906122cb565b6040518060400160405280600781526020017f6c656e6452454900000000000000000000000000000000000000000000000000815250611172565b15610f915761116f565b60008173ffffffffffffffffffffffffffffffffffffffff16636f307dc36040518163ffffffff1660e01b8152600401602060405180830381865afa158015610fde573d6000803e3d6000fd5b505050506040513d601f19601f820116820180604052508101906110029190612329565b905060008173ffffffffffffffffffffffffffffffffffffffff166370a08231306040518263ffffffff1660e01b815260040161103f9190611b3a565b602060405180830381865afa15801561105c573d6000803e3d6000fd5b505050506040513d601f19601f820116820180604052508101906110809190612181565b9050600081141561109257505061116f565b6000600460159054906101000a900460ff169050600060648260ff16846110b99190612356565b6110c391906123df565b9050600081846110d39190612410565b905060008211156110e9576110e886836111cb565b5b600081111561112e57600061112186600160009054906101000a900473ffffffffffffffffffffffffffffffffffffffff1684611477565b905061112c81611809565b505b7f7f3494fc2348ba13898c6d7546b3903d0864084c91846853430e9fb59ee4f08b85838360405161116193929190612444565b60405180910390a150505050505b50565b60008160405160200161118591906124c2565b60405160208183030381529060405280519060200120836040516020016111ac91906124c2565b6040516020818303038152906040528051906020012014905092915050565b60008273ffffffffffffffffffffffffffffffffffffffff16636f307dc36040518163ffffffff1660e01b8152600401602060405180830381865afa158015611218573d6000803e3d6000fd5b505050506040513d601f19601f8201168201806040525081019061123c9190612329565b9050818173ffffffffffffffffffffffffffffffffffffffff166370a08231306040518263ffffffff1660e01b81526004016112789190611b3a565b602060405180830381865afa158015611295573d6000803e3d6000fd5b505050506040513d601f19601f820116820180604052508101906112b99190612181565b10156112fa576040517f08c379a00000000000000000000000000000000000000000000000000000000081526004016112f190612525565b60405180910390fd5b6000821161133d576040517f08c379a000000000000000000000000000000000000000000000000000000000815260040161133490612123565b60405180910390fd5b8073ffffffffffffffffffffffffffffffffffffffff1663095ea7b384846040518363ffffffff1660e01b81526004016113789291906121c9565b6020604051808303816000875af1158015611397573d6000803e3d6000fd5b505050506040513d601f19601f820116820180604052508101906113bb919061257d565b508273ffffffffffffffffffffffffffffffffffffffff1663a0712d68836040518263ffffffff1660e01b81526004016113f591906121ae565b6020604051808303816000875af1158015611414573d6000803e3d6000fd5b505050506040513d601f19601f820116820180604052508101906114389190612181565b507fbd654390d0d973e8c8376ed6053be8658870df892687852cc5c914d700291b87838360405161146a9291906121c9565b60405180910390a1505050565b60008273ffffffffffffffffffffffffffffffffffffffff168473ffffffffffffffffffffffffffffffffffffffff1614156114b557819050611802565b6000600360009054906101000a900473ffffffffffffffffffffffffffffffffffffffff16905060008190506000869050848173ffffffffffffffffffffffffffffffffffffffff166370a08231306040518263ffffffff1660e01b81526004016115209190611b3a565b602060405180830381865afa15801561153d573d6000803e3d6000fd5b505050506040513d601f19601f820116820180604052508101906115619190612181565b10156115a2576040517f08c379a000000000000000000000000000000000000000000000000000000000815260040161159990612525565b60405180910390fd5b600085116115e5576040517f08c379a00000000000000000000000000000000000000000000000000000000081526004016115dc90612123565b60405180910390fd5b8073ffffffffffffffffffffffffffffffffffffffff1663095ea7b384876040518363ffffffff1660e01b81526004016116209291906121c9565b6020604051808303816000875af115801561163f573d6000803e3d6000fd5b505050506040513d601f19601f82011682018060405250810190611663919061257d565b506060600267ffffffffffffffff81111561168157611680611e08565b5b6040519080825280602002602001820160405280156116af5781602001602082028036833780820191505090505b50905087816000815181106116c7576116c6611fa9565b5b602002602001019073ffffffffffffffffffffffffffffffffffffffff16908173ffffffffffffffffffffffffffffffffffffffff1681525050868160018151811061171657611715611fa9565b5b602002602001019073ffffffffffffffffffffffffffffffffffffffff16908173ffffffffffffffffffffffffffffffffffffffff168152505060008373ffffffffffffffffffffffffffffffffffffffff166338ed17398860018530426040518663ffffffff1660e01b81526004016117949594939291906126a3565b6000604051808303816000875af11580156117b3573d6000803e3d6000fd5b505050506040513d6000823e3d601f19601f820116820180604052508101906117dc91906127c0565b9050806001815181106117f2576117f1611fa9565b5b6020026020010151955050505050505b9392505050565b6000600160009054906101000a900473ffffffffffffffffffffffffffffffffffffffff1690506000600460009054906101000a900473ffffffffffffffffffffffffffffffffffffffff169050828273ffffffffffffffffffffffffffffffffffffffff166370a08231306040518263ffffffff1660e01b81526004016118919190611b3a565b602060405180830381865afa1580156118ae573d6000803e3d6000fd5b505050506040513d601f19601f820116820180604052508101906118d29190612181565b1015611913576040517f08c379a000000000000000000000000000000000000000000000000000000000815260040161190a90612855565b60405180910390fd5b60008311611956576040517f08c379a000000000000000000000000000000000000000000000000000000000815260040161194d90612123565b60405180910390fd5b60008273ffffffffffffffffffffffffffffffffffffffff1663a9059cbb83866040518363ffffffff1660e01b81526004016119939291906121c9565b6020604051808303816000875af11580156119b2573d6000803e3d6000fd5b505050506040513d601f19601f820116820180604052508101906119d6919061257d565b905080611a18576040517f08c379a0000000000000000000000000000000000000000000000000000000008152600401611a0f906128c1565b60405180910390fd5b7f27a17079ff5974b0187a2665f922f8e85abfc4ec8a64b2c63fc893624d39c4a784604051611a4791906121ae565b60405180910390a150505050565b6000604051905090565b600080fd5b600080fd5b600073ffffffffffffffffffffffffffffffffffffffff82169050919050565b6000611a9482611a69565b9050919050565b611aa481611a89565b8114611aaf57600080fd5b50565b600081359050611ac181611a9b565b92915050565b600060208284031215611add57611adc611a5f565b5b6000611aeb84828501611ab2565b91505092915050565b600060ff82169050919050565b611b0a81611af4565b82525050565b6000602082019050611b256000830184611b01565b92915050565b611b3481611a89565b82525050565b6000602082019050611b4f6000830184611b2b565b92915050565b6000611b6082611a69565b9050919050565b611b7081611b55565b8114611b7b57600080fd5b50565b600081359050611b8d81611b67565b92915050565b6000819050919050565b611ba681611b93565b8114611bb157600080fd5b50565b600081359050611bc381611b9d565b92915050565b60008060408385031215611be057611bdf611a5f565b5b6000611bee85828601611b7e565b9250506020611bff85828601611bb4565b9150509250929050565b611c1281611af4565b8114611c1d57600080fd5b50565b600081359050611c2f81611c09565b92915050565b600060208284031215611c4b57611c4a611a5f565b5b6000611c5984828501611c20565b91505092915050565b6000611c6d82611a89565b9050919050565b611c7d81611c62565b8114611c8857600080fd5b50565b600081359050611c9a81611c74565b92915050565b60008060408385031215611cb757611cb6611a5f565b5b6000611cc585828601611c8b565b9250506020611cd685828601611bb4565b9150509250929050565b600082825260208201905092915050565b7f4f6e6c7941646d696e0000000000000000000000000000000000000000000000600082015250565b6000611d27600983611ce0565b9150611d3282611cf1565b602082019050919050565b60006020820190508181036000830152611d5681611d1a565b9050919050565b6000604082019050611d726000830185611b2b565b611d7f6020830184611b2b565b9392505050565b7f6e6f207265656e7472616e636500000000000000000000000000000000000000600082015250565b6000611dbc600d83611ce0565b9150611dc782611d86565b602082019050919050565b60006020820190508181036000830152611deb81611daf565b9050919050565b600080fd5b6000601f19601f8301169050919050565b7f4e487b7100000000000000000000000000000000000000000000000000000000600052604160045260246000fd5b611e4082611df7565b810181811067ffffffffffffffff82111715611e5f57611e5e611e08565b5b80604052505050565b6000611e72611a55565b9050611e7e8282611e37565b919050565b600067ffffffffffffffff821115611e9e57611e9d611e08565b5b602082029050602081019050919050565b600080fd5b600081519050611ec381611c74565b92915050565b6000611edc611ed784611e83565b611e68565b90508083825260208201905060208402830185811115611eff57611efe611eaf565b5b835b81811015611f285780611f148882611eb4565b845260208401935050602081019050611f01565b5050509392505050565b600082601f830112611f4757611f46611df2565b5b8151611f57848260208601611ec9565b91505092915050565b600060208284031215611f7657611f75611a5f565b5b600082015167ffffffffffffffff811115611f9457611f93611a64565b5b611fa084828501611f32565b91505092915050565b7f4e487b7100000000000000000000000000000000000000000000000000000000600052603260045260246000fd5b7f4e487b7100000000000000000000000000000000000000000000000000000000600052601160045260246000fd5b600061ffff82169050919050565b600061202082612007565b915061ffff82141561203557612034611fd8565b5b600182019050919050565b6000819050919050565b600061206561206061205b84611a69565b612040565b611a69565b9050919050565b60006120778261204a565b9050919050565b60006120898261206c565b9050919050565b6120998161207e565b82525050565b6120a881611b93565b82525050565b60006040820190506120c36000830185612090565b6120d0602083018461209f565b9392505050565b7f4241445f494e5055540000000000000000000000000000000000000000000000600082015250565b600061210d600983611ce0565b9150612118826120d7565b602082019050919050565b6000602082019050818103600083015261213c81612100565b9050919050565b60006040820190506121586000830185611b01565b6121656020830184611b01565b9392505050565b60008151905061217b81611b9d565b92915050565b60006020828403121561219757612196611a5f565b5b60006121a58482850161216c565b91505092915050565b60006020820190506121c3600083018461209f565b92915050565b60006040820190506121de6000830185611b2b565b6121eb602083018461209f565b9392505050565b600080fd5b600067ffffffffffffffff82111561221257612211611e08565b5b61221b82611df7565b9050602081019050919050565b60005b8381101561224657808201518184015260208101905061222b565b83811115612255576000848401525b50505050565b600061226e612269846121f7565b611e68565b90508281526020810184848401111561228a576122896121f2565b5b612295848285612228565b509392505050565b600082601f8301126122b2576122b1611df2565b5b81516122c284826020860161225b565b91505092915050565b6000602082840312156122e1576122e0611a5f565b5b600082015167ffffffffffffffff8111156122ff576122fe611a64565b5b61230b8482850161229d565b91505092915050565b60008151905061232381611a9b565b92915050565b60006020828403121561233f5761233e611a5f565b5b600061234d84828501612314565b91505092915050565b600061236182611b93565b915061236c83611b93565b9250817fffffffffffffffffffffffffffffffffffffffffffffffffffffffffffffffff04831182151516156123a5576123a4611fd8565b5b828202905092915050565b7f4e487b7100000000000000000000000000000000000000000000000000000000600052601260045260246000fd5b60006123ea82611b93565b91506123f583611b93565b925082612405576124046123b0565b5b828204905092915050565b600061241b82611b93565b915061242683611b93565b92508282101561243957612438611fd8565b5b828203905092915050565b60006060820190506124596000830186611b2b565b612466602083018561209f565b612473604083018461209f565b949350505050565b600081519050919050565b600081905092915050565b600061249c8261247b565b6124a68185612486565b93506124b6818560208601612228565b80840191505092915050565b60006124ce8284612491565b915081905092915050565b7f4e6f7420656e6f7567682062616c616e63650000000000000000000000000000600082015250565b600061250f601283611ce0565b915061251a826124d9565b602082019050919050565b6000602082019050818103600083015261253e81612502565b9050919050565b60008115159050919050565b61255a81612545565b811461256557600080fd5b50565b60008151905061257781612551565b92915050565b60006020828403121561259357612592611a5f565b5b60006125a184828501612568565b91505092915050565b6000819050919050565b60006125cf6125ca6125c5846125aa565b612040565b611b93565b9050919050565b6125df816125b4565b82525050565b600081519050919050565b600082825260208201905092915050565b6000819050602082019050919050565b61261a81611a89565b82525050565b600061262c8383612611565b60208301905092915050565b6000602082019050919050565b6000612650826125e5565b61265a81856125f0565b935061266583612601565b8060005b8381101561269657815161267d8882612620565b975061268883612638565b925050600181019050612669565b5085935050505092915050565b600060a0820190506126b8600083018861209f565b6126c560208301876125d6565b81810360408301526126d78186612645565b90506126e66060830185611b2b565b6126f3608083018461209f565b9695505050505050565b600067ffffffffffffffff82111561271857612717611e08565b5b602082029050602081019050919050565b600061273c612737846126fd565b611e68565b9050808382526020820190506020840283018581111561275f5761275e611eaf565b5b835b818110156127885780612774888261216c565b845260208401935050602081019050612761565b5050509392505050565b600082601f8301126127a7576127a6611df2565b5b81516127b7848260208601612729565b91505092915050565b6000602082840312156127d6576127d5611a5f565b5b600082015167ffffffffffffffff8111156127f4576127f3611a64565b5b61280084828501612792565b91505092915050565b7f4e6f7420656e6f75676820425553440000000000000000000000000000000000600082015250565b600061283f600f83611ce0565b915061284a82612809565b602082019050919050565b6000602082019050818103600083015261286e81612832565b9050919050565b7f5472616e73666572206661696c65640000000000000000000000000000000000600082015250565b60006128ab600f83611ce0565b91506128b682612875565b602082019050919050565b600060208201905081810360008301526128da8161289e565b905091905056fea26469706673582212200ea64d5d2985012a24625113b6df61eb3c9d0ccf4bd474db08c6fbab7ceb2bf864736f6c634300080c0033",
  "immutableReferences": {},
  "source": "// SPDX-License-Identifier: MIT\r\npragma solidity ^0.8.0;\r\n\r\nimport './interface/ComptrollerInterface.sol';\r\nimport './interface/UniswapInterface.sol';\r\nimport \"@openzeppelin/contracts/token/ERC20/IERC20.sol\";\r\n\r\ncontract TreasuryWallet {\r\n    address public admin;\r\n    \r\n    address public busd; // kBUSD address, this will reference stable coin to be switch to and send them to Vault to distribute to share hodlers.\r\n\r\n    address public compStorage;\r\n    address public uniswapRouters; // This refer to uniswap v2 router\r\n    address public armVault; // The reward distributing vault (Distribute kBUSD), only send kBUSD to this address, the contract will automatic adjust reward spending.\r\n\r\n    bool locked;\r\n\r\n    uint8 public reinvestRatio; // 0 = 0%, 100 = 100%\r\n\r\n    constructor (address busd_, uint8 reinvestRatio_) {\r\n        admin = msg.sender;\r\n        busd = busd_;\r\n\r\n        reinvestRatio = reinvestRatio_;\r\n        locked = false;\r\n    }\r\n\r\n\r\n    event SendBUSDToVault(uint amount);\r\n    event Swap(address tokenIn, address tokenOut, uint amount);\r\n    event Reinvest(address lendToken, uint amount);\r\n    event Withdraw(address lendToken, uint amount);\r\n    event DistributeToken(address token, uint reinvestAmount, uint distributeAmount);\r\n    event TransferREI(address to, uint amount);\r\n\r\n    event SetAdmin(address oldAdmin, address newAdmin);\r\n    event SetComptrollerStorage(address oldComptrollerStorage, address newComptrollerStorage);\r\n    event SetUniswapRouters(address oldUniswapRouters, address newUniswapRouters);\r\n    event SetARMVault(address oldARMVault, address newARMVault);\r\n    event SetReinvestRatio(uint8 oldRatio, uint8 newRatio);\r\n\r\n    modifier onlyAdmin {\r\n        require(msg.sender == admin, \"OnlyAdmin\");\r\n        _;\r\n    }\r\n\r\n    modifier noReentrance {\r\n        require(!locked, \"no reentrance\");\r\n        locked = true;\r\n        _;\r\n        locked = false;\r\n    }\r\n\r\n\r\n\r\n    // This function will send BUSD to armVault\r\n    function sendToVault(uint amount) internal {\r\n        IERC20 kBUSD = IERC20(busd);\r\n        address vault = armVault;\r\n        require(kBUSD.balanceOf(address(this)) >= amount, \"Not enough BUSD\");\r\n        require(amount > 0, \"BAD_INPUT\");\r\n        \r\n        bool success = kBUSD.transfer(vault, amount);\r\n        require(success,\"Transfer failed\");\r\n\r\n        emit SendBUSDToVault(amount);\r\n    }\r\n\r\n    // Call swap function of Uniswap V2\r\n    function swap(address tokenA, address tokenB, uint amountIn) internal returns(uint) {\r\n        if(tokenA == tokenB){\r\n            return amountIn; //no need for swap\r\n        }\r\n        address varRouter = uniswapRouters;\r\n        IUniswapV2Router routerContract = IUniswapV2Router(varRouter);\r\n        IERC20 tokenIn = IERC20(tokenA);\r\n\r\n        require(tokenIn.balanceOf(address(this))>=amountIn, \"Not enough balance\");\r\n        require(amountIn > 0, \"BAD_INPUT\");\r\n\r\n        //Approve the tokenA\r\n        tokenIn.approve(varRouter, amountIn);\r\n\r\n        //Setting path\r\n        address[] memory path;\r\n        path = new address[](2);\r\n        path[0] = tokenA;\r\n        path[1] = tokenB;\r\n\r\n        //Swap A to B\r\n        (uint[] memory amount) = routerContract.swapExactTokensForTokens(amountIn, 1, path, address(this), block.timestamp);\r\n\r\n        return amount[1]; // return amountOut;\r\n    }\r\n\r\n    /* Reinvest and Withdraw function\r\n     * These function interact with LendToken contract to Deposit OR Withdraw underlying tokens\r\n     */\r\n    function reinvest(LendTokenInterface lendToken, uint amount) internal {\r\n        IERC20 underlying = IERC20(lendToken.underlying());\r\n        require(underlying.balanceOf(address(this)) >= amount,\"Not enough balance\");\r\n        require(amount > 0, \"BAD_INPUT\");\r\n\r\n        //Approve underlying\r\n        underlying.approve(address(lendToken), amount); // Deposit underlying to lendToken contract\r\n\r\n        //Deposit\r\n        lendToken.mint(amount);\r\n        emit Reinvest(address(lendToken), amount);\r\n    }\r\n\r\n    function withdraw(LendTokenInterface lendToken, uint amount) external onlyAdmin {\r\n        require(lendToken.balanceOf(address(this)) >= amount);\r\n        require(amount > 0, \"BAD_INPUT\");\r\n\r\n        //Withdraw\r\n        lendToken.redeem(amount); // redeem amount using lendToken amount\r\n        emit Withdraw(address(lendToken), amount);\r\n    }\r\n\r\n    //ALL-IN-ONE switch will do following functions\r\n    //  Divided each tokens to 2 part\r\n    //  First part is reinvest\r\n    //  Second part is swap to kBUSD and transfer to armVault\r\n    //--Anyone can trigger this button !!\r\n    function distributionSwitch() external noReentrance {\r\n        ComptrollerStorageInterface comptrollerStorage = ComptrollerStorageInterface(compStorage);\r\n        LendTokenInterface[] memory markets = comptrollerStorage.getAllMarkets();\r\n        uint16 i;\r\n        uint16 len = uint16(markets.length);\r\n        for(i=0; i<len; i++){\r\n            distributeEachTokens(markets[i]);\r\n        }\r\n\r\n    }\r\n\r\n    function distributeEachTokens(LendTokenInterface lendToken) internal {\r\n        //Rule out the lendREI first\r\n        if(compareStrings(lendToken.symbol(), \"lendREI\")){\r\n            return; // lendREI not use for calculation, Admin can withdraw all REI using withdrawREI function\r\n        }\r\n\r\n        IERC20 underlying = IERC20(lendToken.underlying());\r\n\r\n        //Check balance\r\n        uint balance = underlying.balanceOf(address(this));\r\n        if(balance == 0){\r\n            return; //Short circuit out\r\n        }\r\n\r\n        //Divided to 2 part\r\n        uint8 varsReinvest = reinvestRatio;\r\n        \r\n        uint reinvestAmount = balance * varsReinvest / 100;\r\n        uint distributeAmount = balance - reinvestAmount;\r\n\r\n        //Reinvestment\r\n        if(reinvestAmount > 0){\r\n            reinvest(lendToken, reinvestAmount); //Deposit to the LendToken contract.\r\n        }\r\n\r\n        //Distribute -- Swap and transfer that amount\r\n        if(distributeAmount > 0){\r\n            uint actualBUSDget = swap(address(underlying), busd, distributeAmount);\r\n            sendToVault(actualBUSDget);\r\n        }\r\n        emit DistributeToken(address(underlying), reinvestAmount, distributeAmount);\r\n    }\r\n\r\n    function compareStrings(string memory a, string memory b) internal pure returns (bool) {\r\n        return (keccak256(abi.encodePacked((a))) == keccak256(abi.encodePacked((b))));\r\n    }\r\n\r\n    function withdrawREI(address payable to, uint amount) external onlyAdmin {\r\n        to.transfer(amount);\r\n        emit TransferREI(to, amount);\r\n    }\r\n\r\n    // ==================================\r\n    //  Admin function\r\n    // ==================================\r\n    function _setAdmin (address newAdmin) external onlyAdmin {\r\n        require(newAdmin != address(0));\r\n        address oldAdmin = admin;\r\n        admin = newAdmin;\r\n\r\n        emit SetAdmin(oldAdmin, newAdmin);\r\n    }\r\n\r\n    function _setComptrollerStorage (address newComptrollerStorage) external onlyAdmin {\r\n        require(newComptrollerStorage != address(0));\r\n        address oldComptrollerStorage = compStorage;\r\n        compStorage = newComptrollerStorage;\r\n\r\n        emit SetComptrollerStorage(oldComptrollerStorage, newComptrollerStorage);\r\n    }\r\n\r\n    function _setUniswapRouters(address newUniswapRouters) external onlyAdmin {\r\n        require(newUniswapRouters != address(0));\r\n        address oldUniswapRouters = uniswapRouters;\r\n        uniswapRouters = newUniswapRouters;\r\n\r\n        emit SetUniswapRouters(oldUniswapRouters, newUniswapRouters);\r\n    }\r\n\r\n    function _setARMVault(address newARMVault) external onlyAdmin {\r\n        require(newARMVault != address(0));\r\n        address oldARMVault = armVault;\r\n        armVault = newARMVault;\r\n\r\n        emit SetARMVault(oldARMVault, newARMVault);\r\n    }\r\n\r\n    function _setReinvestRatio(uint8 newRatio) external onlyAdmin {\r\n        require(newRatio>=0 && newRatio<=100, \"BAD_INPUT\");\r\n        uint8 oldRatio = reinvestRatio;\r\n        reinvestRatio = newRatio;\r\n\r\n        emit SetReinvestRatio(oldRatio, newRatio);\r\n    }\r\n}",
  "sourcePath": "C:\\Users\\chana\\desktop\\aurumdefi\\src\\contracts\\TreasuryWallet.sol",
  "compiler": {
    "name": "solc",
    "version": "0.8.12+commit.f00d7308.Emscripten.clang"
  },
  "schemaVersion": "3.4.6",
  "updatedAt": "2022-04-24T15:41:33.927Z",
  "networkType": "ethereum",
  "devdoc": {
    "kind": "dev",
    "methods": {},
    "version": 1
  },
  "userdoc": {
    "kind": "user",
    "methods": {},
    "version": 1
  }
}